{
	"VulnerableVoting.sol": {
		"VulnerableVoting": {
			"abi": [
				{
					"inputs": [
						{
							"internalType": "string[]",
							"name": "candidateNames",
							"type": "string[]"
						}
					],
					"stateMutability": "nonpayable",
					"type": "constructor"
				},
				{
					"inputs": [
						{
							"internalType": "uint256",
							"name": "",
							"type": "uint256"
						}
					],
					"name": "candidates",
					"outputs": [
						{
							"internalType": "string",
							"name": "name",
							"type": "string"
						},
						{
							"internalType": "uint256",
							"name": "voteCount",
							"type": "uint256"
						}
					],
					"stateMutability": "view",
					"type": "function"
				},
				{
					"inputs": [],
					"name": "closeVoting",
					"outputs": [],
					"stateMutability": "nonpayable",
					"type": "function"
				},
				{
					"inputs": [],
					"name": "getWinner",
					"outputs": [
						{
							"internalType": "string",
							"name": "",
							"type": "string"
						}
					],
					"stateMutability": "view",
					"type": "function"
				},
				{
					"inputs": [
						{
							"internalType": "address",
							"name": "",
							"type": "address"
						}
					],
					"name": "hasVoted",
					"outputs": [
						{
							"internalType": "bool",
							"name": "",
							"type": "bool"
						}
					],
					"stateMutability": "view",
					"type": "function"
				},
				{
					"inputs": [
						{
							"internalType": "uint256",
							"name": "candidateIndex",
							"type": "uint256"
						}
					],
					"name": "vote",
					"outputs": [],
					"stateMutability": "nonpayable",
					"type": "function"
				},
				{
					"inputs": [],
					"name": "votingOpen",
					"outputs": [
						{
							"internalType": "bool",
							"name": "",
							"type": "bool"
						}
					],
					"stateMutability": "view",
					"type": "function"
				}
			],
			"devdoc": {
				"kind": "dev",
				"methods": {},
				"version": 1
			},
			"evm": {
				"assembly": "    /* \"VulnerableVoting.sol\":61:1472  contract VulnerableVoting {... */\n  mstore(0x40, 0x80)\n    /* \"VulnerableVoting.sol\":291:508  constructor(string[] memory candidateNames) {... */\n  callvalue\n  dup1\n  iszero\n  tag_1\n  jumpi\n  0x00\n  dup1\n  revert\ntag_1:\n  pop\n  mload(0x40)\n  sub(codesize, bytecodeSize)\n  dup1\n  bytecodeSize\n  dup4\n  codecopy\n  dup2\n  dup2\n  add\n  0x40\n  mstore\n  dup2\n  add\n  swap1\n  tag_2\n  swap2\n  swap1\n  tag_3\n  jump\t// in\ntag_2:\n    /* \"VulnerableVoting.sol\":351:360  uint256 i */\n  0x00\n    /* \"VulnerableVoting.sol\":346:473  for (uint256 i = 0; i < candidateNames.length; i++) {... */\ntag_6:\n    /* \"VulnerableVoting.sol\":370:384  candidateNames */\n  dup2\n    /* \"VulnerableVoting.sol\":370:391  candidateNames.length */\n  mload\n    /* \"VulnerableVoting.sol\":366:367  i */\n  dup2\n    /* \"VulnerableVoting.sol\":366:391  i < candidateNames.length */\n  lt\n    /* \"VulnerableVoting.sol\":346:473  for (uint256 i = 0; i < candidateNames.length; i++) {... */\n  iszero\n  tag_7\n  jumpi\n    /* \"VulnerableVoting.sol\":413:423  candidates */\n  0x01\n    /* \"VulnerableVoting.sol\":429:460  Candidate(candidateNames[i], 0) */\n  mload(0x40)\n  dup1\n  0x40\n  add\n  0x40\n  mstore\n  dup1\n    /* \"VulnerableVoting.sol\":439:453  candidateNames */\n  dup5\n    /* \"VulnerableVoting.sol\":454:455  i */\n  dup5\n    /* \"VulnerableVoting.sol\":439:456  candidateNames[i] */\n  dup2\n  mload\n  dup2\n  lt\n  tag_9\n  jumpi\n  tag_10\n  tag_11\n  jump\t// in\ntag_10:\ntag_9:\n  0x20\n  mul\n  0x20\n  add\n  add\n  mload\n    /* \"VulnerableVoting.sol\":429:460  Candidate(candidateNames[i], 0) */\n  dup2\n  mstore\n  0x20\n  add\n    /* \"VulnerableVoting.sol\":458:459  0 */\n  0x00\n    /* \"VulnerableVoting.sol\":429:460  Candidate(candidateNames[i], 0) */\n  dup2\n  mstore\n  pop\n    /* \"VulnerableVoting.sol\":413:461  candidates.push(Candidate(candidateNames[i], 0)) */\n  swap1\n  dup1\n  0x01\n  dup2\n  sload\n  add\n  dup1\n  dup3\n  sstore\n  dup1\n  swap2\n  pop\n  pop\n  0x01\n  swap1\n  sub\n  swap1\n  0x00\n  mstore\n  keccak256(0x00, 0x20)\n  swap1\n  0x02\n  mul\n  add\n  0x00\n  swap1\n  swap2\n  swap1\n  swap2\n  swap1\n  swap2\n  pop\n  0x00\n  dup3\n  add\n  mload\n  dup2\n  0x00\n  add\n  swap1\n  dup2\n  tag_13\n  swap2\n  swap1\n  tag_14\n  jump\t// in\ntag_13:\n  pop\n  0x20\n  dup3\n  add\n  mload\n  dup2\n  0x01\n  add\n  sstore\n  pop\n  pop\n    /* \"VulnerableVoting.sol\":393:396  i++ */\n  dup1\n  dup1\n  0x01\n  add\n  swap2\n  pop\n  pop\n    /* \"VulnerableVoting.sol\":346:473  for (uint256 i = 0; i < candidateNames.length; i++) {... */\n  jump(tag_6)\ntag_7:\n  pop\n    /* \"VulnerableVoting.sol\":496:500  true */\n  0x01\n    /* \"VulnerableVoting.sol\":483:493  votingOpen */\n  0x02\n  0x00\n    /* \"VulnerableVoting.sol\":483:500  votingOpen = true */\n  0x0100\n  exp\n  dup2\n  sload\n  dup2\n  0xff\n  mul\n  not\n  and\n  swap1\n  dup4\n  iszero\n  iszero\n  mul\n  or\n  swap1\n  sstore\n  pop\n    /* \"VulnerableVoting.sol\":291:508  constructor(string[] memory candidateNames) {... */\n  pop\n    /* \"VulnerableVoting.sol\":61:1472  contract VulnerableVoting {... */\n  jump(tag_15)\n    /* \"#utility.yul\":7:82   */\ntag_16:\n    /* \"#utility.yul\":40:46   */\n  0x00\n    /* \"#utility.yul\":73:75   */\n  0x40\n    /* \"#utility.yul\":67:76   */\n  mload\n    /* \"#utility.yul\":57:76   */\n  swap1\n  pop\n    /* \"#utility.yul\":7:82   */\n  swap1\n  jump\t// out\n    /* \"#utility.yul\":88:205   */\ntag_17:\n    /* \"#utility.yul\":197:198   */\n  0x00\n    /* \"#utility.yul\":194:195   */\n  dup1\n    /* \"#utility.yul\":187:199   */\n  revert\n    /* \"#utility.yul\":211:328   */\ntag_18:\n    /* \"#utility.yul\":320:321   */\n  0x00\n    /* \"#utility.yul\":317:318   */\n  dup1\n    /* \"#utility.yul\":310:322   */\n  revert\n    /* \"#utility.yul\":334:451   */\ntag_19:\n    /* \"#utility.yul\":443:444   */\n  0x00\n    /* \"#utility.yul\":440:441   */\n  dup1\n    /* \"#utility.yul\":433:445   */\n  revert\n    /* \"#utility.yul\":457:559   */\ntag_20:\n    /* \"#utility.yul\":498:504   */\n  0x00\n    /* \"#utility.yul\":549:551   */\n  0x1f\n    /* \"#utility.yul\":545:552   */\n  not\n    /* \"#utility.yul\":540:542   */\n  0x1f\n    /* \"#utility.yul\":533:538   */\n  dup4\n    /* \"#utility.yul\":529:543   */\n  add\n    /* \"#utility.yul\":525:553   */\n  and\n    /* \"#utility.yul\":515:553   */\n  swap1\n  pop\n    /* \"#utility.yul\":457:559   */\n  swap2\n  swap1\n  pop\n  jump\t// out\n    /* \"#utility.yul\":565:745   */\ntag_21:\n    /* \"#utility.yul\":613:690   */\n  0x4e487b7100000000000000000000000000000000000000000000000000000000\n    /* \"#utility.yul\":610:611   */\n  0x00\n    /* \"#utility.yul\":603:691   */\n  mstore\n    /* \"#utility.yul\":710:714   */\n  0x41\n    /* \"#utility.yul\":707:708   */\n  0x04\n    /* \"#utility.yul\":700:715   */\n  mstore\n    /* \"#utility.yul\":734:738   */\n  0x24\n    /* \"#utility.yul\":731:732   */\n  0x00\n    /* \"#utility.yul\":724:739   */\n  revert\n    /* \"#utility.yul\":751:1032   */\ntag_22:\n    /* \"#utility.yul\":834:861   */\n  tag_60\n    /* \"#utility.yul\":856:860   */\n  dup3\n    /* \"#utility.yul\":834:861   */\n  tag_20\n  jump\t// in\ntag_60:\n    /* \"#utility.yul\":826:832   */\n  dup2\n    /* \"#utility.yul\":822:862   */\n  add\n    /* \"#utility.yul\":964:970   */\n  dup2\n    /* \"#utility.yul\":952:962   */\n  dup2\n    /* \"#utility.yul\":949:971   */\n  lt\n    /* \"#utility.yul\":928:946   */\n  0xffffffffffffffff\n    /* \"#utility.yul\":916:926   */\n  dup3\n    /* \"#utility.yul\":913:947   */\n  gt\n    /* \"#utility.yul\":910:972   */\n  or\n    /* \"#utility.yul\":907:995   */\n  iszero\n  tag_61\n  jumpi\n    /* \"#utility.yul\":975:993   */\n  tag_62\n  tag_21\n  jump\t// in\ntag_62:\n    /* \"#utility.yul\":907:995   */\ntag_61:\n    /* \"#utility.yul\":1015:1025   */\n  dup1\n    /* \"#utility.yul\":1011:1013   */\n  0x40\n    /* \"#utility.yul\":1004:1026   */\n  mstore\n    /* \"#utility.yul\":794:1032   */\n  pop\n    /* \"#utility.yul\":751:1032   */\n  pop\n  pop\n  jump\t// out\n    /* \"#utility.yul\":1038:1167   */\ntag_23:\n    /* \"#utility.yul\":1072:1078   */\n  0x00\n    /* \"#utility.yul\":1099:1119   */\n  tag_64\n  tag_16\n  jump\t// in\ntag_64:\n    /* \"#utility.yul\":1089:1119   */\n  swap1\n  pop\n    /* \"#utility.yul\":1128:1161   */\n  tag_65\n    /* \"#utility.yul\":1156:1160   */\n  dup3\n    /* \"#utility.yul\":1148:1154   */\n  dup3\n    /* \"#utility.yul\":1128:1161   */\n  tag_22\n  jump\t// in\ntag_65:\n    /* \"#utility.yul\":1038:1167   */\n  swap2\n  swap1\n  pop\n  jump\t// out\n    /* \"#utility.yul\":1173:1494   */\ntag_24:\n    /* \"#utility.yul\":1260:1264   */\n  0x00\n    /* \"#utility.yul\":1350:1368   */\n  0xffffffffffffffff\n    /* \"#utility.yul\":1342:1348   */\n  dup3\n    /* \"#utility.yul\":1339:1369   */\n  gt\n    /* \"#utility.yul\":1336:1392   */\n  iszero\n  tag_67\n  jumpi\n    /* \"#utility.yul\":1372:1390   */\n  tag_68\n  tag_21\n  jump\t// in\ntag_68:\n    /* \"#utility.yul\":1336:1392   */\ntag_67:\n    /* \"#utility.yul\":1422:1426   */\n  0x20\n    /* \"#utility.yul\":1414:1420   */\n  dup3\n    /* \"#utility.yul\":1410:1427   */\n  mul\n    /* \"#utility.yul\":1402:1427   */\n  swap1\n  pop\n    /* \"#utility.yul\":1482:1486   */\n  0x20\n    /* \"#utility.yul\":1476:1480   */\n  dup2\n    /* \"#utility.yul\":1472:1487   */\n  add\n    /* \"#utility.yul\":1464:1487   */\n  swap1\n  pop\n    /* \"#utility.yul\":1173:1494   */\n  swap2\n  swap1\n  pop\n  jump\t// out\n    /* \"#utility.yul\":1500:1617   */\ntag_25:\n    /* \"#utility.yul\":1609:1610   */\n  0x00\n    /* \"#utility.yul\":1606:1607   */\n  dup1\n    /* \"#utility.yul\":1599:1611   */\n  revert\n    /* \"#utility.yul\":1623:1740   */\ntag_26:\n    /* \"#utility.yul\":1732:1733   */\n  0x00\n    /* \"#utility.yul\":1729:1730   */\n  dup1\n    /* \"#utility.yul\":1722:1734   */\n  revert\n    /* \"#utility.yul\":1746:2054   */\ntag_27:\n    /* \"#utility.yul\":1808:1812   */\n  0x00\n    /* \"#utility.yul\":1898:1916   */\n  0xffffffffffffffff\n    /* \"#utility.yul\":1890:1896   */\n  dup3\n    /* \"#utility.yul\":1887:1917   */\n  gt\n    /* \"#utility.yul\":1884:1940   */\n  iszero\n  tag_72\n  jumpi\n    /* \"#utility.yul\":1920:1938   */\n  tag_73\n  tag_21\n  jump\t// in\ntag_73:\n    /* \"#utility.yul\":1884:1940   */\ntag_72:\n    /* \"#utility.yul\":1958:1987   */\n  tag_74\n    /* \"#utility.yul\":1980:1986   */\n  dup3\n    /* \"#utility.yul\":1958:1987   */\n  tag_20\n  jump\t// in\ntag_74:\n    /* \"#utility.yul\":1950:1987   */\n  swap1\n  pop\n    /* \"#utility.yul\":2042:2046   */\n  0x20\n    /* \"#utility.yul\":2036:2040   */\n  dup2\n    /* \"#utility.yul\":2032:2047   */\n  add\n    /* \"#utility.yul\":2024:2047   */\n  swap1\n  pop\n    /* \"#utility.yul\":1746:2054   */\n  swap2\n  swap1\n  pop\n  jump\t// out\n    /* \"#utility.yul\":2060:2199   */\ntag_28:\n    /* \"#utility.yul\":2149:2155   */\n  dup3\n    /* \"#utility.yul\":2144:2147   */\n  dup2\n    /* \"#utility.yul\":2139:2142   */\n  dup4\n    /* \"#utility.yul\":2133:2156   */\n  mcopy\n    /* \"#utility.yul\":2190:2191   */\n  0x00\n    /* \"#utility.yul\":2181:2187   */\n  dup4\n    /* \"#utility.yul\":2176:2179   */\n  dup4\n    /* \"#utility.yul\":2172:2188   */\n  add\n    /* \"#utility.yul\":2165:2192   */\n  mstore\n    /* \"#utility.yul\":2060:2199   */\n  pop\n  pop\n  pop\n  jump\t// out\n    /* \"#utility.yul\":2205:2639   */\ntag_29:\n    /* \"#utility.yul\":2294:2299   */\n  0x00\n    /* \"#utility.yul\":2319:2385   */\n  tag_77\n    /* \"#utility.yul\":2335:2384   */\n  tag_78\n    /* \"#utility.yul\":2377:2383   */\n  dup5\n    /* \"#utility.yul\":2335:2384   */\n  tag_27\n  jump\t// in\ntag_78:\n    /* \"#utility.yul\":2319:2385   */\n  tag_23\n  jump\t// in\ntag_77:\n    /* \"#utility.yul\":2310:2385   */\n  swap1\n  pop\n    /* \"#utility.yul\":2408:2414   */\n  dup3\n    /* \"#utility.yul\":2401:2406   */\n  dup2\n    /* \"#utility.yul\":2394:2415   */\n  mstore\n    /* \"#utility.yul\":2446:2450   */\n  0x20\n    /* \"#utility.yul\":2439:2444   */\n  dup2\n    /* \"#utility.yul\":2435:2451   */\n  add\n    /* \"#utility.yul\":2484:2487   */\n  dup5\n    /* \"#utility.yul\":2475:2481   */\n  dup5\n    /* \"#utility.yul\":2470:2473   */\n  dup5\n    /* \"#utility.yul\":2466:2482   */\n  add\n    /* \"#utility.yul\":2463:2488   */\n  gt\n    /* \"#utility.yul\":2460:2572   */\n  iszero\n  tag_79\n  jumpi\n    /* \"#utility.yul\":2491:2570   */\n  tag_80\n  tag_26\n  jump\t// in\ntag_80:\n    /* \"#utility.yul\":2460:2572   */\ntag_79:\n    /* \"#utility.yul\":2581:2633   */\n  tag_81\n    /* \"#utility.yul\":2626:2632   */\n  dup5\n    /* \"#utility.yul\":2621:2624   */\n  dup3\n    /* \"#utility.yul\":2616:2619   */\n  dup6\n    /* \"#utility.yul\":2581:2633   */\n  tag_28\n  jump\t// in\ntag_81:\n    /* \"#utility.yul\":2300:2639   */\n  pop\n    /* \"#utility.yul\":2205:2639   */\n  swap4\n  swap3\n  pop\n  pop\n  pop\n  jump\t// out\n    /* \"#utility.yul\":2659:3014   */\ntag_30:\n    /* \"#utility.yul\":2726:2731   */\n  0x00\n    /* \"#utility.yul\":2775:2778   */\n  dup3\n    /* \"#utility.yul\":2768:2772   */\n  0x1f\n    /* \"#utility.yul\":2760:2766   */\n  dup4\n    /* \"#utility.yul\":2756:2773   */\n  add\n    /* \"#utility.yul\":2752:2779   */\n  slt\n    /* \"#utility.yul\":2742:2864   */\n  tag_83\n  jumpi\n    /* \"#utility.yul\":2783:2862   */\n  tag_84\n  tag_19\n  jump\t// in\ntag_84:\n    /* \"#utility.yul\":2742:2864   */\ntag_83:\n    /* \"#utility.yul\":2893:2899   */\n  dup2\n    /* \"#utility.yul\":2887:2900   */\n  mload\n    /* \"#utility.yul\":2918:3008   */\n  tag_85\n    /* \"#utility.yul\":3004:3007   */\n  dup5\n    /* \"#utility.yul\":2996:3002   */\n  dup3\n    /* \"#utility.yul\":2989:2993   */\n  0x20\n    /* \"#utility.yul\":2981:2987   */\n  dup7\n    /* \"#utility.yul\":2977:2994   */\n  add\n    /* \"#utility.yul\":2918:3008   */\n  tag_29\n  jump\t// in\ntag_85:\n    /* \"#utility.yul\":2909:3008   */\n  swap2\n  pop\n    /* \"#utility.yul\":2732:3014   */\n  pop\n    /* \"#utility.yul\":2659:3014   */\n  swap3\n  swap2\n  pop\n  pop\n  jump\t// out\n    /* \"#utility.yul\":3036:3996   */\ntag_31:\n    /* \"#utility.yul\":3153:3158   */\n  0x00\n    /* \"#utility.yul\":3178:3269   */\n  tag_87\n    /* \"#utility.yul\":3194:3268   */\n  tag_88\n    /* \"#utility.yul\":3261:3267   */\n  dup5\n    /* \"#utility.yul\":3194:3268   */\n  tag_24\n  jump\t// in\ntag_88:\n    /* \"#utility.yul\":3178:3269   */\n  tag_23\n  jump\t// in\ntag_87:\n    /* \"#utility.yul\":3169:3269   */\n  swap1\n  pop\n    /* \"#utility.yul\":3289:3294   */\n  dup1\n    /* \"#utility.yul\":3318:3324   */\n  dup4\n    /* \"#utility.yul\":3311:3316   */\n  dup3\n    /* \"#utility.yul\":3304:3325   */\n  mstore\n    /* \"#utility.yul\":3352:3356   */\n  0x20\n    /* \"#utility.yul\":3345:3350   */\n  dup3\n    /* \"#utility.yul\":3341:3357   */\n  add\n    /* \"#utility.yul\":3334:3357   */\n  swap1\n  pop\n    /* \"#utility.yul\":3405:3409   */\n  0x20\n    /* \"#utility.yul\":3397:3403   */\n  dup5\n    /* \"#utility.yul\":3393:3410   */\n  mul\n    /* \"#utility.yul\":3385:3391   */\n  dup4\n    /* \"#utility.yul\":3381:3411   */\n  add\n    /* \"#utility.yul\":3434:3437   */\n  dup6\n    /* \"#utility.yul\":3426:3432   */\n  dup2\n    /* \"#utility.yul\":3423:3438   */\n  gt\n    /* \"#utility.yul\":3420:3542   */\n  iszero\n  tag_89\n  jumpi\n    /* \"#utility.yul\":3453:3532   */\n  tag_90\n  tag_25\n  jump\t// in\ntag_90:\n    /* \"#utility.yul\":3420:3542   */\ntag_89:\n    /* \"#utility.yul\":3568:3574   */\n  dup4\n    /* \"#utility.yul\":3551:3990   */\ntag_91:\n    /* \"#utility.yul\":3585:3591   */\n  dup2\n    /* \"#utility.yul\":3580:3583   */\n  dup2\n    /* \"#utility.yul\":3577:3592   */\n  lt\n    /* \"#utility.yul\":3551:3990   */\n  iszero\n  tag_93\n  jumpi\n    /* \"#utility.yul\":3667:3670   */\n  dup1\n    /* \"#utility.yul\":3661:3671   */\n  mload\n    /* \"#utility.yul\":3703:3721   */\n  0xffffffffffffffff\n    /* \"#utility.yul\":3690:3701   */\n  dup2\n    /* \"#utility.yul\":3687:3722   */\n  gt\n    /* \"#utility.yul\":3684:3806   */\n  iszero\n  tag_94\n  jumpi\n    /* \"#utility.yul\":3725:3804   */\n  tag_95\n  tag_19\n  jump\t// in\ntag_95:\n    /* \"#utility.yul\":3684:3806   */\ntag_94:\n    /* \"#utility.yul\":3849:3860   */\n  dup1\n    /* \"#utility.yul\":3841:3847   */\n  dup7\n    /* \"#utility.yul\":3837:3861   */\n  add\n    /* \"#utility.yul\":3887:3945   */\n  tag_96\n    /* \"#utility.yul\":3941:3944   */\n  dup10\n    /* \"#utility.yul\":3929:3939   */\n  dup3\n    /* \"#utility.yul\":3887:3945   */\n  tag_30\n  jump\t// in\ntag_96:\n    /* \"#utility.yul\":3882:3885   */\n  dup6\n    /* \"#utility.yul\":3875:3946   */\n  mstore\n    /* \"#utility.yul\":3975:3979   */\n  0x20\n    /* \"#utility.yul\":3970:3973   */\n  dup6\n    /* \"#utility.yul\":3966:3980   */\n  add\n    /* \"#utility.yul\":3959:3980   */\n  swap5\n  pop\n    /* \"#utility.yul\":3627:3990   */\n  pop\n  pop\n    /* \"#utility.yul\":3611:3615   */\n  0x20\n    /* \"#utility.yul\":3606:3609   */\n  dup2\n    /* \"#utility.yul\":3602:3616   */\n  add\n    /* \"#utility.yul\":3595:3616   */\n  swap1\n  pop\n    /* \"#utility.yul\":3551:3990   */\n  jump(tag_91)\ntag_93:\n    /* \"#utility.yul\":3555:3576   */\n  pop\n    /* \"#utility.yul\":3159:3996   */\n  pop\n  pop\n    /* \"#utility.yul\":3036:3996   */\n  swap4\n  swap3\n  pop\n  pop\n  pop\n  jump\t// out\n    /* \"#utility.yul\":4018:4423   */\ntag_32:\n    /* \"#utility.yul\":4110:4115   */\n  0x00\n    /* \"#utility.yul\":4159:4162   */\n  dup3\n    /* \"#utility.yul\":4152:4156   */\n  0x1f\n    /* \"#utility.yul\":4144:4150   */\n  dup4\n    /* \"#utility.yul\":4140:4157   */\n  add\n    /* \"#utility.yul\":4136:4163   */\n  slt\n    /* \"#utility.yul\":4126:4248   */\n  tag_98\n  jumpi\n    /* \"#utility.yul\":4167:4246   */\n  tag_99\n  tag_19\n  jump\t// in\ntag_99:\n    /* \"#utility.yul\":4126:4248   */\ntag_98:\n    /* \"#utility.yul\":4277:4283   */\n  dup2\n    /* \"#utility.yul\":4271:4284   */\n  mload\n    /* \"#utility.yul\":4302:4417   */\n  tag_100\n    /* \"#utility.yul\":4413:4416   */\n  dup5\n    /* \"#utility.yul\":4405:4411   */\n  dup3\n    /* \"#utility.yul\":4398:4402   */\n  0x20\n    /* \"#utility.yul\":4390:4396   */\n  dup7\n    /* \"#utility.yul\":4386:4403   */\n  add\n    /* \"#utility.yul\":4302:4417   */\n  tag_31\n  jump\t// in\ntag_100:\n    /* \"#utility.yul\":4293:4417   */\n  swap2\n  pop\n    /* \"#utility.yul\":4116:4423   */\n  pop\n    /* \"#utility.yul\":4018:4423   */\n  swap3\n  swap2\n  pop\n  pop\n  jump\t// out\n    /* \"#utility.yul\":4429:5003   */\ntag_3:\n    /* \"#utility.yul\":4534:4540   */\n  0x00\n    /* \"#utility.yul\":4583:4585   */\n  0x20\n    /* \"#utility.yul\":4571:4580   */\n  dup3\n    /* \"#utility.yul\":4562:4569   */\n  dup5\n    /* \"#utility.yul\":4558:4581   */\n  sub\n    /* \"#utility.yul\":4554:4586   */\n  slt\n    /* \"#utility.yul\":4551:4670   */\n  iszero\n  tag_102\n  jumpi\n    /* \"#utility.yul\":4589:4668   */\n  tag_103\n  tag_17\n  jump\t// in\ntag_103:\n    /* \"#utility.yul\":4551:4670   */\ntag_102:\n    /* \"#utility.yul\":4730:4731   */\n  0x00\n    /* \"#utility.yul\":4719:4728   */\n  dup3\n    /* \"#utility.yul\":4715:4732   */\n  add\n    /* \"#utility.yul\":4709:4733   */\n  mload\n    /* \"#utility.yul\":4760:4778   */\n  0xffffffffffffffff\n    /* \"#utility.yul\":4752:4758   */\n  dup2\n    /* \"#utility.yul\":4749:4779   */\n  gt\n    /* \"#utility.yul\":4746:4863   */\n  iszero\n  tag_104\n  jumpi\n    /* \"#utility.yul\":4782:4861   */\n  tag_105\n  tag_18\n  jump\t// in\ntag_105:\n    /* \"#utility.yul\":4746:4863   */\ntag_104:\n    /* \"#utility.yul\":4887:4986   */\n  tag_106\n    /* \"#utility.yul\":4978:4985   */\n  dup5\n    /* \"#utility.yul\":4969:4975   */\n  dup3\n    /* \"#utility.yul\":4958:4967   */\n  dup6\n    /* \"#utility.yul\":4954:4976   */\n  add\n    /* \"#utility.yul\":4887:4986   */\n  tag_32\n  jump\t// in\ntag_106:\n    /* \"#utility.yul\":4877:4986   */\n  swap2\n  pop\n    /* \"#utility.yul\":4680:4996   */\n  pop\n    /* \"#utility.yul\":4429:5003   */\n  swap3\n  swap2\n  pop\n  pop\n  jump\t// out\n    /* \"#utility.yul\":5009:5189   */\ntag_11:\n    /* \"#utility.yul\":5057:5134   */\n  0x4e487b7100000000000000000000000000000000000000000000000000000000\n    /* \"#utility.yul\":5054:5055   */\n  0x00\n    /* \"#utility.yul\":5047:5135   */\n  mstore\n    /* \"#utility.yul\":5154:5158   */\n  0x32\n    /* \"#utility.yul\":5151:5152   */\n  0x04\n    /* \"#utility.yul\":5144:5159   */\n  mstore\n    /* \"#utility.yul\":5178:5182   */\n  0x24\n    /* \"#utility.yul\":5175:5176   */\n  0x00\n    /* \"#utility.yul\":5168:5183   */\n  revert\n    /* \"#utility.yul\":5195:5294   */\ntag_33:\n    /* \"#utility.yul\":5247:5253   */\n  0x00\n    /* \"#utility.yul\":5281:5286   */\n  dup2\n    /* \"#utility.yul\":5275:5287   */\n  mload\n    /* \"#utility.yul\":5265:5287   */\n  swap1\n  pop\n    /* \"#utility.yul\":5195:5294   */\n  swap2\n  swap1\n  pop\n  jump\t// out\n    /* \"#utility.yul\":5300:5480   */\ntag_34:\n    /* \"#utility.yul\":5348:5425   */\n  0x4e487b7100000000000000000000000000000000000000000000000000000000\n    /* \"#utility.yul\":5345:5346   */\n  0x00\n    /* \"#utility.yul\":5338:5426   */\n  mstore\n    /* \"#utility.yul\":5445:5449   */\n  0x22\n    /* \"#utility.yul\":5442:5443   */\n  0x04\n    /* \"#utility.yul\":5435:5450   */\n  mstore\n    /* \"#utility.yul\":5469:5473   */\n  0x24\n    /* \"#utility.yul\":5466:5467   */\n  0x00\n    /* \"#utility.yul\":5459:5474   */\n  revert\n    /* \"#utility.yul\":5486:5806   */\ntag_35:\n    /* \"#utility.yul\":5530:5536   */\n  0x00\n    /* \"#utility.yul\":5567:5568   */\n  0x02\n    /* \"#utility.yul\":5561:5565   */\n  dup3\n    /* \"#utility.yul\":5557:5569   */\n  div\n    /* \"#utility.yul\":5547:5569   */\n  swap1\n  pop\n    /* \"#utility.yul\":5614:5615   */\n  0x01\n    /* \"#utility.yul\":5608:5612   */\n  dup3\n    /* \"#utility.yul\":5604:5616   */\n  and\n    /* \"#utility.yul\":5635:5653   */\n  dup1\n    /* \"#utility.yul\":5625:5706   */\n  tag_111\n  jumpi\n    /* \"#utility.yul\":5691:5695   */\n  0x7f\n    /* \"#utility.yul\":5683:5689   */\n  dup3\n    /* \"#utility.yul\":5679:5696   */\n  and\n    /* \"#utility.yul\":5669:5696   */\n  swap2\n  pop\n    /* \"#utility.yul\":5625:5706   */\ntag_111:\n    /* \"#utility.yul\":5753:5755   */\n  0x20\n    /* \"#utility.yul\":5745:5751   */\n  dup3\n    /* \"#utility.yul\":5742:5756   */\n  lt\n    /* \"#utility.yul\":5722:5740   */\n  dup2\n    /* \"#utility.yul\":5719:5757   */\n  sub\n    /* \"#utility.yul\":5716:5800   */\n  tag_112\n  jumpi\n    /* \"#utility.yul\":5772:5790   */\n  tag_113\n  tag_34\n  jump\t// in\ntag_113:\n    /* \"#utility.yul\":5716:5800   */\ntag_112:\n    /* \"#utility.yul\":5537:5806   */\n  pop\n    /* \"#utility.yul\":5486:5806   */\n  swap2\n  swap1\n  pop\n  jump\t// out\n    /* \"#utility.yul\":5812:5953   */\ntag_36:\n    /* \"#utility.yul\":5861:5865   */\n  0x00\n    /* \"#utility.yul\":5884:5887   */\n  dup2\n    /* \"#utility.yul\":5876:5887   */\n  swap1\n  pop\n    /* \"#utility.yul\":5907:5910   */\n  dup2\n    /* \"#utility.yul\":5904:5905   */\n  0x00\n    /* \"#utility.yul\":5897:5911   */\n  mstore\n    /* \"#utility.yul\":5941:5945   */\n  0x20\n    /* \"#utility.yul\":5938:5939   */\n  0x00\n    /* \"#utility.yul\":5928:5946   */\n  keccak256\n    /* \"#utility.yul\":5920:5946   */\n  swap1\n  pop\n    /* \"#utility.yul\":5812:5953   */\n  swap2\n  swap1\n  pop\n  jump\t// out\n    /* \"#utility.yul\":5959:6052   */\ntag_37:\n    /* \"#utility.yul\":5996:6002   */\n  0x00\n    /* \"#utility.yul\":6043:6045   */\n  0x20\n    /* \"#utility.yul\":6038:6040   */\n  0x1f\n    /* \"#utility.yul\":6031:6036   */\n  dup4\n    /* \"#utility.yul\":6027:6041   */\n  add\n    /* \"#utility.yul\":6023:6046   */\n  div\n    /* \"#utility.yul\":6013:6046   */\n  swap1\n  pop\n    /* \"#utility.yul\":5959:6052   */\n  swap2\n  swap1\n  pop\n  jump\t// out\n    /* \"#utility.yul\":6058:6165   */\ntag_38:\n    /* \"#utility.yul\":6102:6110   */\n  0x00\n    /* \"#utility.yul\":6152:6157   */\n  dup3\n    /* \"#utility.yul\":6146:6150   */\n  dup3\n    /* \"#utility.yul\":6142:6158   */\n  shl\n    /* \"#utility.yul\":6121:6158   */\n  swap1\n  pop\n    /* \"#utility.yul\":6058:6165   */\n  swap3\n  swap2\n  pop\n  pop\n  jump\t// out\n    /* \"#utility.yul\":6171:6564   */\ntag_39:\n    /* \"#utility.yul\":6240:6246   */\n  0x00\n    /* \"#utility.yul\":6290:6291   */\n  0x08\n    /* \"#utility.yul\":6278:6288   */\n  dup4\n    /* \"#utility.yul\":6274:6292   */\n  mul\n    /* \"#utility.yul\":6313:6410   */\n  tag_118\n    /* \"#utility.yul\":6343:6409   */\n  0xffffffffffffffffffffffffffffffffffffffffffffffffffffffffffffffff\n    /* \"#utility.yul\":6332:6341   */\n  dup3\n    /* \"#utility.yul\":6313:6410   */\n  tag_38\n  jump\t// in\ntag_118:\n    /* \"#utility.yul\":6431:6470   */\n  tag_119\n    /* \"#utility.yul\":6461:6469   */\n  dup7\n    /* \"#utility.yul\":6450:6459   */\n  dup4\n    /* \"#utility.yul\":6431:6470   */\n  tag_38\n  jump\t// in\ntag_119:\n    /* \"#utility.yul\":6419:6470   */\n  swap6\n  pop\n    /* \"#utility.yul\":6503:6507   */\n  dup1\n    /* \"#utility.yul\":6499:6508   */\n  not\n    /* \"#utility.yul\":6492:6497   */\n  dup5\n    /* \"#utility.yul\":6488:6509   */\n  and\n    /* \"#utility.yul\":6479:6509   */\n  swap4\n  pop\n    /* \"#utility.yul\":6552:6556   */\n  dup1\n    /* \"#utility.yul\":6542:6550   */\n  dup7\n    /* \"#utility.yul\":6538:6557   */\n  and\n    /* \"#utility.yul\":6531:6536   */\n  dup5\n    /* \"#utility.yul\":6528:6558   */\n  or\n    /* \"#utility.yul\":6518:6558   */\n  swap3\n  pop\n    /* \"#utility.yul\":6247:6564   */\n  pop\n  pop\n    /* \"#utility.yul\":6171:6564   */\n  swap4\n  swap3\n  pop\n  pop\n  pop\n  jump\t// out\n    /* \"#utility.yul\":6570:6647   */\ntag_40:\n    /* \"#utility.yul\":6607:6614   */\n  0x00\n    /* \"#utility.yul\":6636:6641   */\n  dup2\n    /* \"#utility.yul\":6625:6641   */\n  swap1\n  pop\n    /* \"#utility.yul\":6570:6647   */\n  swap2\n  swap1\n  pop\n  jump\t// out\n    /* \"#utility.yul\":6653:6713   */\ntag_41:\n    /* \"#utility.yul\":6681:6684   */\n  0x00\n    /* \"#utility.yul\":6702:6707   */\n  dup2\n    /* \"#utility.yul\":6695:6707   */\n  swap1\n  pop\n    /* \"#utility.yul\":6653:6713   */\n  swap2\n  swap1\n  pop\n  jump\t// out\n    /* \"#utility.yul\":6719:6861   */\ntag_42:\n    /* \"#utility.yul\":6769:6778   */\n  0x00\n    /* \"#utility.yul\":6802:6855   */\n  tag_123\n    /* \"#utility.yul\":6820:6854   */\n  tag_124\n    /* \"#utility.yul\":6829:6853   */\n  tag_125\n    /* \"#utility.yul\":6847:6852   */\n  dup5\n    /* \"#utility.yul\":6829:6853   */\n  tag_40\n  jump\t// in\ntag_125:\n    /* \"#utility.yul\":6820:6854   */\n  tag_41\n  jump\t// in\ntag_124:\n    /* \"#utility.yul\":6802:6855   */\n  tag_40\n  jump\t// in\ntag_123:\n    /* \"#utility.yul\":6789:6855   */\n  swap1\n  pop\n    /* \"#utility.yul\":6719:6861   */\n  swap2\n  swap1\n  pop\n  jump\t// out\n    /* \"#utility.yul\":6867:6942   */\ntag_43:\n    /* \"#utility.yul\":6910:6913   */\n  0x00\n    /* \"#utility.yul\":6931:6936   */\n  dup2\n    /* \"#utility.yul\":6924:6936   */\n  swap1\n  pop\n    /* \"#utility.yul\":6867:6942   */\n  swap2\n  swap1\n  pop\n  jump\t// out\n    /* \"#utility.yul\":6948:7217   */\ntag_44:\n    /* \"#utility.yul\":7058:7097   */\n  tag_128\n    /* \"#utility.yul\":7089:7096   */\n  dup4\n    /* \"#utility.yul\":7058:7097   */\n  tag_42\n  jump\t// in\ntag_128:\n    /* \"#utility.yul\":7119:7210   */\n  tag_129\n    /* \"#utility.yul\":7168:7209   */\n  tag_130\n    /* \"#utility.yul\":7192:7208   */\n  dup3\n    /* \"#utility.yul\":7168:7209   */\n  tag_43\n  jump\t// in\ntag_130:\n    /* \"#utility.yul\":7160:7166   */\n  dup5\n    /* \"#utility.yul\":7153:7157   */\n  dup5\n    /* \"#utility.yul\":7147:7158   */\n  sload\n    /* \"#utility.yul\":7119:7210   */\n  tag_39\n  jump\t// in\ntag_129:\n    /* \"#utility.yul\":7113:7117   */\n  dup3\n    /* \"#utility.yul\":7106:7211   */\n  sstore\n    /* \"#utility.yul\":7024:7217   */\n  pop\n    /* \"#utility.yul\":6948:7217   */\n  pop\n  pop\n  pop\n  jump\t// out\n    /* \"#utility.yul\":7223:7296   */\ntag_45:\n    /* \"#utility.yul\":7268:7271   */\n  0x00\n    /* \"#utility.yul\":7223:7296   */\n  swap1\n  jump\t// out\n    /* \"#utility.yul\":7302:7491   */\ntag_46:\n    /* \"#utility.yul\":7379:7411   */\n  tag_133\n  tag_45\n  jump\t// in\ntag_133:\n    /* \"#utility.yul\":7420:7485   */\n  tag_134\n    /* \"#utility.yul\":7478:7484   */\n  dup2\n    /* \"#utility.yul\":7470:7476   */\n  dup5\n    /* \"#utility.yul\":7464:7468   */\n  dup5\n    /* \"#utility.yul\":7420:7485   */\n  tag_44\n  jump\t// in\ntag_134:\n    /* \"#utility.yul\":7355:7491   */\n  pop\n    /* \"#utility.yul\":7302:7491   */\n  pop\n  pop\n  jump\t// out\n    /* \"#utility.yul\":7497:7683   */\ntag_47:\n    /* \"#utility.yul\":7557:7677   */\ntag_136:\n    /* \"#utility.yul\":7574:7577   */\n  dup2\n    /* \"#utility.yul\":7567:7572   */\n  dup2\n    /* \"#utility.yul\":7564:7578   */\n  lt\n    /* \"#utility.yul\":7557:7677   */\n  iszero\n  tag_138\n  jumpi\n    /* \"#utility.yul\":7628:7667   */\n  tag_139\n    /* \"#utility.yul\":7665:7666   */\n  0x00\n    /* \"#utility.yul\":7658:7663   */\n  dup3\n    /* \"#utility.yul\":7628:7667   */\n  tag_46\n  jump\t// in\ntag_139:\n    /* \"#utility.yul\":7601:7602   */\n  0x01\n    /* \"#utility.yul\":7594:7599   */\n  dup2\n    /* \"#utility.yul\":7590:7603   */\n  add\n    /* \"#utility.yul\":7581:7603   */\n  swap1\n  pop\n    /* \"#utility.yul\":7557:7677   */\n  jump(tag_136)\ntag_138:\n    /* \"#utility.yul\":7497:7683   */\n  pop\n  pop\n  jump\t// out\n    /* \"#utility.yul\":7689:8232   */\ntag_48:\n    /* \"#utility.yul\":7790:7792   */\n  0x1f\n    /* \"#utility.yul\":7785:7788   */\n  dup3\n    /* \"#utility.yul\":7782:7793   */\n  gt\n    /* \"#utility.yul\":7779:8225   */\n  iszero\n  tag_141\n  jumpi\n    /* \"#utility.yul\":7824:7862   */\n  tag_142\n    /* \"#utility.yul\":7856:7861   */\n  dup2\n    /* \"#utility.yul\":7824:7862   */\n  tag_36\n  jump\t// in\ntag_142:\n    /* \"#utility.yul\":7908:7937   */\n  tag_143\n    /* \"#utility.yul\":7926:7936   */\n  dup5\n    /* \"#utility.yul\":7908:7937   */\n  tag_37\n  jump\t// in\ntag_143:\n    /* \"#utility.yul\":7898:7906   */\n  dup2\n    /* \"#utility.yul\":7894:7938   */\n  add\n    /* \"#utility.yul\":8091:8093   */\n  0x20\n    /* \"#utility.yul\":8079:8089   */\n  dup6\n    /* \"#utility.yul\":8076:8094   */\n  lt\n    /* \"#utility.yul\":8073:8122   */\n  iszero\n  tag_144\n  jumpi\n    /* \"#utility.yul\":8112:8120   */\n  dup2\n    /* \"#utility.yul\":8097:8120   */\n  swap1\n  pop\n    /* \"#utility.yul\":8073:8122   */\ntag_144:\n    /* \"#utility.yul\":8135:8215   */\n  tag_145\n    /* \"#utility.yul\":8191:8213   */\n  tag_146\n    /* \"#utility.yul\":8209:8212   */\n  dup6\n    /* \"#utility.yul\":8191:8213   */\n  tag_37\n  jump\t// in\ntag_146:\n    /* \"#utility.yul\":8181:8189   */\n  dup4\n    /* \"#utility.yul\":8177:8214   */\n  add\n    /* \"#utility.yul\":8164:8175   */\n  dup3\n    /* \"#utility.yul\":8135:8215   */\n  tag_47\n  jump\t// in\ntag_145:\n    /* \"#utility.yul\":7794:8225   */\n  pop\n  pop\n    /* \"#utility.yul\":7779:8225   */\ntag_141:\n    /* \"#utility.yul\":7689:8232   */\n  pop\n  pop\n  pop\n  jump\t// out\n    /* \"#utility.yul\":8238:8355   */\ntag_49:\n    /* \"#utility.yul\":8292:8300   */\n  0x00\n    /* \"#utility.yul\":8342:8347   */\n  dup3\n    /* \"#utility.yul\":8336:8340   */\n  dup3\n    /* \"#utility.yul\":8332:8348   */\n  shr\n    /* \"#utility.yul\":8311:8348   */\n  swap1\n  pop\n    /* \"#utility.yul\":8238:8355   */\n  swap3\n  swap2\n  pop\n  pop\n  jump\t// out\n    /* \"#utility.yul\":8361:8530   */\ntag_50:\n    /* \"#utility.yul\":8405:8411   */\n  0x00\n    /* \"#utility.yul\":8438:8489   */\n  tag_149\n    /* \"#utility.yul\":8486:8487   */\n  0x00\n    /* \"#utility.yul\":8482:8488   */\n  not\n    /* \"#utility.yul\":8474:8479   */\n  dup5\n    /* \"#utility.yul\":8471:8472   */\n  0x08\n    /* \"#utility.yul\":8467:8480   */\n  mul\n    /* \"#utility.yul\":8438:8489   */\n  tag_49\n  jump\t// in\ntag_149:\n    /* \"#utility.yul\":8434:8490   */\n  not\n    /* \"#utility.yul\":8519:8523   */\n  dup1\n    /* \"#utility.yul\":8513:8517   */\n  dup4\n    /* \"#utility.yul\":8509:8524   */\n  and\n    /* \"#utility.yul\":8499:8524   */\n  swap2\n  pop\n    /* \"#utility.yul\":8412:8530   */\n  pop\n    /* \"#utility.yul\":8361:8530   */\n  swap3\n  swap2\n  pop\n  pop\n  jump\t// out\n    /* \"#utility.yul\":8535:8830   */\ntag_51:\n    /* \"#utility.yul\":8611:8615   */\n  0x00\n    /* \"#utility.yul\":8757:8786   */\n  tag_151\n    /* \"#utility.yul\":8782:8785   */\n  dup4\n    /* \"#utility.yul\":8776:8780   */\n  dup4\n    /* \"#utility.yul\":8757:8786   */\n  tag_50\n  jump\t// in\ntag_151:\n    /* \"#utility.yul\":8749:8786   */\n  swap2\n  pop\n    /* \"#utility.yul\":8819:8822   */\n  dup3\n    /* \"#utility.yul\":8816:8817   */\n  0x02\n    /* \"#utility.yul\":8812:8823   */\n  mul\n    /* \"#utility.yul\":8806:8810   */\n  dup3\n    /* \"#utility.yul\":8803:8824   */\n  or\n    /* \"#utility.yul\":8795:8824   */\n  swap1\n  pop\n    /* \"#utility.yul\":8535:8830   */\n  swap3\n  swap2\n  pop\n  pop\n  jump\t// out\n    /* \"#utility.yul\":8835:10230   */\ntag_14:\n    /* \"#utility.yul\":8952:8989   */\n  tag_153\n    /* \"#utility.yul\":8985:8988   */\n  dup3\n    /* \"#utility.yul\":8952:8989   */\n  tag_33\n  jump\t// in\ntag_153:\n    /* \"#utility.yul\":9054:9072   */\n  0xffffffffffffffff\n    /* \"#utility.yul\":9046:9052   */\n  dup2\n    /* \"#utility.yul\":9043:9073   */\n  gt\n    /* \"#utility.yul\":9040:9096   */\n  iszero\n  tag_154\n  jumpi\n    /* \"#utility.yul\":9076:9094   */\n  tag_155\n  tag_21\n  jump\t// in\ntag_155:\n    /* \"#utility.yul\":9040:9096   */\ntag_154:\n    /* \"#utility.yul\":9120:9158   */\n  tag_156\n    /* \"#utility.yul\":9152:9156   */\n  dup3\n    /* \"#utility.yul\":9146:9157   */\n  sload\n    /* \"#utility.yul\":9120:9158   */\n  tag_35\n  jump\t// in\ntag_156:\n    /* \"#utility.yul\":9205:9272   */\n  tag_157\n    /* \"#utility.yul\":9265:9271   */\n  dup3\n    /* \"#utility.yul\":9257:9263   */\n  dup3\n    /* \"#utility.yul\":9251:9255   */\n  dup6\n    /* \"#utility.yul\":9205:9272   */\n  tag_48\n  jump\t// in\ntag_157:\n    /* \"#utility.yul\":9299:9300   */\n  0x00\n    /* \"#utility.yul\":9323:9327   */\n  0x20\n    /* \"#utility.yul\":9310:9327   */\n  swap1\n  pop\n    /* \"#utility.yul\":9355:9357   */\n  0x1f\n    /* \"#utility.yul\":9347:9353   */\n  dup4\n    /* \"#utility.yul\":9344:9358   */\n  gt\n    /* \"#utility.yul\":9372:9373   */\n  0x01\n    /* \"#utility.yul\":9367:9985   */\n  dup2\n  eq\n  tag_159\n  jumpi\n    /* \"#utility.yul\":10029:10030   */\n  0x00\n    /* \"#utility.yul\":10046:10052   */\n  dup5\n    /* \"#utility.yul\":10043:10120   */\n  iszero\n  tag_160\n  jumpi\n    /* \"#utility.yul\":10095:10104   */\n  dup3\n    /* \"#utility.yul\":10090:10093   */\n  dup8\n    /* \"#utility.yul\":10086:10105   */\n  add\n    /* \"#utility.yul\":10080:10106   */\n  mload\n    /* \"#utility.yul\":10071:10106   */\n  swap1\n  pop\n    /* \"#utility.yul\":10043:10120   */\ntag_160:\n    /* \"#utility.yul\":10146:10213   */\n  tag_161\n    /* \"#utility.yul\":10206:10212   */\n  dup6\n    /* \"#utility.yul\":10199:10204   */\n  dup3\n    /* \"#utility.yul\":10146:10213   */\n  tag_51\n  jump\t// in\ntag_161:\n    /* \"#utility.yul\":10140:10144   */\n  dup7\n    /* \"#utility.yul\":10133:10214   */\n  sstore\n    /* \"#utility.yul\":10002:10224   */\n  pop\n    /* \"#utility.yul\":9337:10224   */\n  jump(tag_158)\n    /* \"#utility.yul\":9367:9985   */\ntag_159:\n    /* \"#utility.yul\":9419:9423   */\n  0x1f\n    /* \"#utility.yul\":9415:9424   */\n  not\n    /* \"#utility.yul\":9407:9413   */\n  dup5\n    /* \"#utility.yul\":9403:9425   */\n  and\n    /* \"#utility.yul\":9453:9490   */\n  tag_162\n    /* \"#utility.yul\":9485:9489   */\n  dup7\n    /* \"#utility.yul\":9453:9490   */\n  tag_36\n  jump\t// in\ntag_162:\n    /* \"#utility.yul\":9512:9513   */\n  0x00\n    /* \"#utility.yul\":9526:9734   */\ntag_163:\n    /* \"#utility.yul\":9540:9547   */\n  dup3\n    /* \"#utility.yul\":9537:9538   */\n  dup2\n    /* \"#utility.yul\":9534:9548   */\n  lt\n    /* \"#utility.yul\":9526:9734   */\n  iszero\n  tag_165\n  jumpi\n    /* \"#utility.yul\":9619:9628   */\n  dup5\n    /* \"#utility.yul\":9614:9617   */\n  dup10\n    /* \"#utility.yul\":9610:9629   */\n  add\n    /* \"#utility.yul\":9604:9630   */\n  mload\n    /* \"#utility.yul\":9596:9602   */\n  dup3\n    /* \"#utility.yul\":9589:9631   */\n  sstore\n    /* \"#utility.yul\":9670:9671   */\n  0x01\n    /* \"#utility.yul\":9662:9668   */\n  dup3\n    /* \"#utility.yul\":9658:9672   */\n  add\n    /* \"#utility.yul\":9648:9672   */\n  swap2\n  pop\n    /* \"#utility.yul\":9717:9719   */\n  0x20\n    /* \"#utility.yul\":9706:9715   */\n  dup6\n    /* \"#utility.yul\":9702:9720   */\n  add\n    /* \"#utility.yul\":9689:9720   */\n  swap5\n  pop\n    /* \"#utility.yul\":9563:9567   */\n  0x20\n    /* \"#utility.yul\":9560:9561   */\n  dup2\n    /* \"#utility.yul\":9556:9568   */\n  add\n    /* \"#utility.yul\":9551:9568   */\n  swap1\n  pop\n    /* \"#utility.yul\":9526:9734   */\n  jump(tag_163)\ntag_165:\n    /* \"#utility.yul\":9762:9768   */\n  dup7\n    /* \"#utility.yul\":9753:9760   */\n  dup4\n    /* \"#utility.yul\":9750:9769   */\n  lt\n    /* \"#utility.yul\":9747:9926   */\n  iszero\n  tag_166\n  jumpi\n    /* \"#utility.yul\":9820:9829   */\n  dup5\n    /* \"#utility.yul\":9815:9818   */\n  dup10\n    /* \"#utility.yul\":9811:9830   */\n  add\n    /* \"#utility.yul\":9805:9831   */\n  mload\n    /* \"#utility.yul\":9863:9911   */\n  tag_167\n    /* \"#utility.yul\":9905:9909   */\n  0x1f\n    /* \"#utility.yul\":9897:9903   */\n  dup10\n    /* \"#utility.yul\":9893:9910   */\n  and\n    /* \"#utility.yul\":9882:9891   */\n  dup3\n    /* \"#utility.yul\":9863:9911   */\n  tag_50\n  jump\t// in\ntag_167:\n    /* \"#utility.yul\":9855:9861   */\n  dup4\n    /* \"#utility.yul\":9848:9912   */\n  sstore\n    /* \"#utility.yul\":9770:9926   */\n  pop\n    /* \"#utility.yul\":9747:9926   */\ntag_166:\n    /* \"#utility.yul\":9972:9973   */\n  0x01\n    /* \"#utility.yul\":9968:9969   */\n  0x02\n    /* \"#utility.yul\":9960:9966   */\n  dup9\n    /* \"#utility.yul\":9956:9970   */\n  mul\n    /* \"#utility.yul\":9952:9974   */\n  add\n    /* \"#utility.yul\":9946:9950   */\n  dup9\n    /* \"#utility.yul\":9939:9975   */\n  sstore\n    /* \"#utility.yul\":9374:9985   */\n  pop\n  pop\n  pop\n    /* \"#utility.yul\":9337:10224   */\ntag_158:\n  pop\n    /* \"#utility.yul\":8927:10230   */\n  pop\n  pop\n  pop\n    /* \"#utility.yul\":8835:10230   */\n  pop\n  pop\n  jump\t// out\n    /* \"VulnerableVoting.sol\":61:1472  contract VulnerableVoting {... */\ntag_15:\n  dataSize(sub_0)\n  dup1\n  dataOffset(sub_0)\n  0x00\n  codecopy\n  0x00\n  return\nstop\n\nsub_0: assembly {\n        /* \"VulnerableVoting.sol\":61:1472  contract VulnerableVoting {... */\n      mstore(0x40, 0x80)\n      callvalue\n      dup1\n      iszero\n      tag_1\n      jumpi\n      0x00\n      dup1\n      revert\n    tag_1:\n      pop\n      jumpi(tag_2, lt(calldatasize, 0x04))\n      shr(0xe0, calldataload(0x00))\n      dup1\n      0x0121b93f\n      eq\n      tag_3\n      jumpi\n      dup1\n      0x09eef43e\n      eq\n      tag_4\n      jumpi\n      dup1\n      0x3477ee2e\n      eq\n      tag_5\n      jumpi\n      dup1\n      0x8e7ea5b2\n      eq\n      tag_6\n      jumpi\n      dup1\n      0xa95824b4\n      eq\n      tag_7\n      jumpi\n      dup1\n      0xc631b292\n      eq\n      tag_8\n      jumpi\n    tag_2:\n      0x00\n      dup1\n      revert\n        /* \"VulnerableVoting.sol\":516:979  function vote(uint256 candidateIndex) public {... */\n    tag_3:\n      tag_9\n      0x04\n      dup1\n      calldatasize\n      sub\n      dup2\n      add\n      swap1\n      tag_10\n      swap2\n      swap1\n      tag_11\n      jump\t// in\n    tag_10:\n      tag_12\n      jump\t// in\n    tag_9:\n      stop\n        /* \"VulnerableVoting.sol\":177:217  mapping(address => bool) public hasVoted */\n    tag_4:\n      tag_13\n      0x04\n      dup1\n      calldatasize\n      sub\n      dup2\n      add\n      swap1\n      tag_14\n      swap2\n      swap1\n      tag_15\n      jump\t// in\n    tag_14:\n      tag_16\n      jump\t// in\n    tag_13:\n      mload(0x40)\n      tag_17\n      swap2\n      swap1\n      tag_18\n      jump\t// in\n    tag_17:\n      mload(0x40)\n      dup1\n      swap2\n      sub\n      swap1\n      return\n        /* \"VulnerableVoting.sol\":224:253  Candidate[] public candidates */\n    tag_5:\n      tag_19\n      0x04\n      dup1\n      calldatasize\n      sub\n      dup2\n      add\n      swap1\n      tag_20\n      swap2\n      swap1\n      tag_11\n      jump\t// in\n    tag_20:\n      tag_21\n      jump\t// in\n    tag_19:\n      mload(0x40)\n      tag_22\n      swap3\n      swap2\n      swap1\n      tag_23\n      jump\t// in\n    tag_22:\n      mload(0x40)\n      dup1\n      swap2\n      sub\n      swap1\n      return\n        /* \"VulnerableVoting.sol\":1062:1469  function getWinner() public view returns (string memory) {... */\n    tag_6:\n      tag_24\n      tag_25\n      jump\t// in\n    tag_24:\n      mload(0x40)\n      tag_26\n      swap2\n      swap1\n      tag_27\n      jump\t// in\n    tag_26:\n      mload(0x40)\n      dup1\n      swap2\n      sub\n      swap1\n      return\n        /* \"VulnerableVoting.sol\":260:282  bool public votingOpen */\n    tag_7:\n      tag_28\n      tag_29\n      jump\t// in\n    tag_28:\n      mload(0x40)\n      tag_30\n      swap2\n      swap1\n      tag_18\n      jump\t// in\n    tag_30:\n      mload(0x40)\n      dup1\n      swap2\n      sub\n      swap1\n      return\n        /* \"VulnerableVoting.sol\":987:1054  function closeVoting() public {... */\n    tag_8:\n      tag_31\n      tag_32\n      jump\t// in\n    tag_31:\n      stop\n        /* \"VulnerableVoting.sol\":516:979  function vote(uint256 candidateIndex) public {... */\n    tag_12:\n        /* \"VulnerableVoting.sol\":580:590  votingOpen */\n      0x02\n      0x00\n      swap1\n      sload\n      swap1\n      0x0100\n      exp\n      swap1\n      div\n      0xff\n      and\n        /* \"VulnerableVoting.sol\":572:611  require(votingOpen, \"Voting is closed\") */\n      tag_34\n      jumpi\n      mload(0x40)\n      0x08c379a000000000000000000000000000000000000000000000000000000000\n      dup2\n      mstore\n      0x04\n      add\n      tag_35\n      swap1\n      tag_36\n      jump\t// in\n    tag_35:\n      mload(0x40)\n      dup1\n      swap2\n      sub\n      swap1\n      revert\n    tag_34:\n        /* \"VulnerableVoting.sol\":647:657  candidates */\n      0x01\n        /* \"VulnerableVoting.sol\":647:664  candidates.length */\n      dup1\n      sload\n      swap1\n      pop\n        /* \"VulnerableVoting.sol\":630:644  candidateIndex */\n      dup2\n        /* \"VulnerableVoting.sol\":630:664  candidateIndex < candidates.length */\n      lt\n        /* \"VulnerableVoting.sol\":622:686  require(candidateIndex < candidates.length, \"Invalid candidate\") */\n      tag_37\n      jumpi\n      mload(0x40)\n      0x08c379a000000000000000000000000000000000000000000000000000000000\n      dup2\n      mstore\n      0x04\n      add\n      tag_38\n      swap1\n      tag_39\n      jump\t// in\n    tag_38:\n      mload(0x40)\n      dup1\n      swap2\n      sub\n      swap1\n      revert\n    tag_37:\n        /* \"VulnerableVoting.sol\":764:776  bool success */\n      0x00\n        /* \"VulnerableVoting.sol\":782:792  msg.sender */\n      caller\n        /* \"VulnerableVoting.sol\":782:797  msg.sender.call */\n      0xffffffffffffffffffffffffffffffffffffffff\n      and\n        /* \"VulnerableVoting.sol\":782:801  msg.sender.call(\"\") */\n      mload(0x40)\n      tag_40\n      swap1\n      tag_41\n      jump\t// in\n    tag_40:\n      0x00\n      mload(0x40)\n      dup1\n      dup4\n      sub\n      dup2\n      0x00\n      dup7\n      gas\n      call\n      swap2\n      pop\n      pop\n      returndatasize\n      dup1\n      0x00\n      dup2\n      eq\n      tag_44\n      jumpi\n      mload(0x40)\n      swap2\n      pop\n      and(add(returndatasize, 0x3f), not(0x1f))\n      dup3\n      add\n      0x40\n      mstore\n      returndatasize\n      dup3\n      mstore\n      returndatasize\n      0x00\n      0x20\n      dup5\n      add\n      returndatacopy\n      jump(tag_43)\n    tag_44:\n      0x60\n      swap2\n      pop\n    tag_43:\n      pop\n        /* \"VulnerableVoting.sol\":763:801  (bool success, ) = msg.sender.call(\"\") */\n      pop\n      swap1\n      pop\n        /* \"VulnerableVoting.sol\":847:854  success */\n      dup1\n        /* \"VulnerableVoting.sol\":839:879  require(success, \"External call failed\") */\n      tag_45\n      jumpi\n      mload(0x40)\n      0x08c379a000000000000000000000000000000000000000000000000000000000\n      dup2\n      mstore\n      0x04\n      add\n      tag_46\n      swap1\n      tag_47\n      jump\t// in\n    tag_46:\n      mload(0x40)\n      dup1\n      swap2\n      sub\n      swap1\n      revert\n    tag_45:\n        /* \"VulnerableVoting.sol\":932:933  1 */\n      0x01\n        /* \"VulnerableVoting.sol\":892:902  candidates */\n      dup1\n        /* \"VulnerableVoting.sol\":903:917  candidateIndex */\n      dup4\n        /* \"VulnerableVoting.sol\":892:918  candidates[candidateIndex] */\n      dup2\n      sload\n      dup2\n      lt\n      tag_48\n      jumpi\n      tag_49\n      tag_50\n      jump\t// in\n    tag_49:\n    tag_48:\n      swap1\n      0x00\n      mstore\n      keccak256(0x00, 0x20)\n      swap1\n      0x02\n      mul\n      add\n        /* \"VulnerableVoting.sol\":892:928  candidates[candidateIndex].voteCount */\n      0x01\n      add\n      0x00\n        /* \"VulnerableVoting.sol\":892:933  candidates[candidateIndex].voteCount += 1 */\n      dup3\n      dup3\n      sload\n      tag_52\n      swap2\n      swap1\n      tag_53\n      jump\t// in\n    tag_52:\n      swap3\n      pop\n      pop\n      dup2\n      swap1\n      sstore\n      pop\n        /* \"VulnerableVoting.sol\":967:971  true */\n      0x01\n        /* \"VulnerableVoting.sol\":944:952  hasVoted */\n      0x00\n        /* \"VulnerableVoting.sol\":944:964  hasVoted[msg.sender] */\n      dup1\n        /* \"VulnerableVoting.sol\":953:963  msg.sender */\n      caller\n        /* \"VulnerableVoting.sol\":944:964  hasVoted[msg.sender] */\n      0xffffffffffffffffffffffffffffffffffffffff\n      and\n      0xffffffffffffffffffffffffffffffffffffffff\n      and\n      dup2\n      mstore\n      0x20\n      add\n      swap1\n      dup2\n      mstore\n      0x20\n      add\n      0x00\n      keccak256\n      0x00\n        /* \"VulnerableVoting.sol\":944:971  hasVoted[msg.sender] = true */\n      0x0100\n      exp\n      dup2\n      sload\n      dup2\n      0xff\n      mul\n      not\n      and\n      swap1\n      dup4\n      iszero\n      iszero\n      mul\n      or\n      swap1\n      sstore\n      pop\n        /* \"VulnerableVoting.sol\":561:979  {... */\n      pop\n        /* \"VulnerableVoting.sol\":516:979  function vote(uint256 candidateIndex) public {... */\n      pop\n      jump\t// out\n        /* \"VulnerableVoting.sol\":177:217  mapping(address => bool) public hasVoted */\n    tag_16:\n      mstore(0x20, 0x00)\n      dup1\n      0x00\n      mstore\n      keccak256(0x00, 0x40)\n      0x00\n      swap2\n      pop\n      sload\n      swap1\n      0x0100\n      exp\n      swap1\n      div\n      0xff\n      and\n      dup2\n      jump\t// out\n        /* \"VulnerableVoting.sol\":224:253  Candidate[] public candidates */\n    tag_21:\n      0x01\n      dup2\n      dup2\n      sload\n      dup2\n      lt\n      tag_54\n      jumpi\n      0x00\n      dup1\n      revert\n    tag_54:\n      swap1\n      0x00\n      mstore\n      keccak256(0x00, 0x20)\n      swap1\n      0x02\n      mul\n      add\n      0x00\n      swap2\n      pop\n      swap1\n      pop\n      dup1\n      0x00\n      add\n      dup1\n      sload\n      tag_56\n      swap1\n      tag_57\n      jump\t// in\n    tag_56:\n      dup1\n      0x1f\n      add\n      0x20\n      dup1\n      swap2\n      div\n      mul\n      0x20\n      add\n      mload(0x40)\n      swap1\n      dup2\n      add\n      0x40\n      mstore\n      dup1\n      swap3\n      swap2\n      swap1\n      dup2\n      dup2\n      mstore\n      0x20\n      add\n      dup3\n      dup1\n      sload\n      tag_58\n      swap1\n      tag_57\n      jump\t// in\n    tag_58:\n      dup1\n      iszero\n      tag_59\n      jumpi\n      dup1\n      0x1f\n      lt\n      tag_60\n      jumpi\n      0x0100\n      dup1\n      dup4\n      sload\n      div\n      mul\n      dup4\n      mstore\n      swap2\n      0x20\n      add\n      swap2\n      jump(tag_59)\n    tag_60:\n      dup3\n      add\n      swap2\n      swap1\n      0x00\n      mstore\n      keccak256(0x00, 0x20)\n      swap1\n    tag_61:\n      dup2\n      sload\n      dup2\n      mstore\n      swap1\n      0x01\n      add\n      swap1\n      0x20\n      add\n      dup1\n      dup4\n      gt\n      tag_61\n      jumpi\n      dup3\n      swap1\n      sub\n      0x1f\n      and\n      dup3\n      add\n      swap2\n    tag_59:\n      pop\n      pop\n      pop\n      pop\n      pop\n      swap1\n      dup1\n      0x01\n      add\n      sload\n      swap1\n      pop\n      dup3\n      jump\t// out\n        /* \"VulnerableVoting.sol\":1062:1469  function getWinner() public view returns (string memory) {... */\n    tag_25:\n        /* \"VulnerableVoting.sol\":1104:1117  string memory */\n      0x60\n        /* \"VulnerableVoting.sol\":1130:1146  uint256 maxVotes */\n      0x00\n        /* \"VulnerableVoting.sol\":1161:1180  uint256 winnerIndex */\n      dup1\n        /* \"VulnerableVoting.sol\":1202:1211  uint256 i */\n      0x00\n        /* \"VulnerableVoting.sol\":1197:1414  for (uint256 i = 0; i < candidates.length; i++) {... */\n    tag_63:\n        /* \"VulnerableVoting.sol\":1221:1231  candidates */\n      0x01\n        /* \"VulnerableVoting.sol\":1221:1238  candidates.length */\n      dup1\n      sload\n      swap1\n      pop\n        /* \"VulnerableVoting.sol\":1217:1218  i */\n      dup2\n        /* \"VulnerableVoting.sol\":1217:1238  i < candidates.length */\n      lt\n        /* \"VulnerableVoting.sol\":1197:1414  for (uint256 i = 0; i < candidates.length; i++) {... */\n      iszero\n      tag_64\n      jumpi\n        /* \"VulnerableVoting.sol\":1290:1298  maxVotes */\n      dup3\n        /* \"VulnerableVoting.sol\":1264:1274  candidates */\n      0x01\n        /* \"VulnerableVoting.sol\":1275:1276  i */\n      dup3\n        /* \"VulnerableVoting.sol\":1264:1277  candidates[i] */\n      dup2\n      sload\n      dup2\n      lt\n      tag_66\n      jumpi\n      tag_67\n      tag_50\n      jump\t// in\n    tag_67:\n    tag_66:\n      swap1\n      0x00\n      mstore\n      keccak256(0x00, 0x20)\n      swap1\n      0x02\n      mul\n      add\n        /* \"VulnerableVoting.sol\":1264:1287  candidates[i].voteCount */\n      0x01\n      add\n      sload\n        /* \"VulnerableVoting.sol\":1264:1298  candidates[i].voteCount > maxVotes */\n      gt\n        /* \"VulnerableVoting.sol\":1260:1403  if (candidates[i].voteCount > maxVotes) {... */\n      iszero\n      tag_69\n      jumpi\n        /* \"VulnerableVoting.sol\":1330:1340  candidates */\n      0x01\n        /* \"VulnerableVoting.sol\":1341:1342  i */\n      dup2\n        /* \"VulnerableVoting.sol\":1330:1343  candidates[i] */\n      dup2\n      sload\n      dup2\n      lt\n      tag_70\n      jumpi\n      tag_71\n      tag_50\n      jump\t// in\n    tag_71:\n    tag_70:\n      swap1\n      0x00\n      mstore\n      keccak256(0x00, 0x20)\n      swap1\n      0x02\n      mul\n      add\n        /* \"VulnerableVoting.sol\":1330:1353  candidates[i].voteCount */\n      0x01\n      add\n      sload\n        /* \"VulnerableVoting.sol\":1319:1353  maxVotes = candidates[i].voteCount */\n      swap3\n      pop\n        /* \"VulnerableVoting.sol\":1386:1387  i */\n      dup1\n        /* \"VulnerableVoting.sol\":1372:1387  winnerIndex = i */\n      swap2\n      pop\n        /* \"VulnerableVoting.sol\":1260:1403  if (candidates[i].voteCount > maxVotes) {... */\n    tag_69:\n        /* \"VulnerableVoting.sol\":1240:1243  i++ */\n      dup1\n      dup1\n      0x01\n      add\n      swap2\n      pop\n      pop\n        /* \"VulnerableVoting.sol\":1197:1414  for (uint256 i = 0; i < candidates.length; i++) {... */\n      jump(tag_63)\n    tag_64:\n      pop\n        /* \"VulnerableVoting.sol\":1433:1443  candidates */\n      0x01\n        /* \"VulnerableVoting.sol\":1444:1455  winnerIndex */\n      dup2\n        /* \"VulnerableVoting.sol\":1433:1456  candidates[winnerIndex] */\n      dup2\n      sload\n      dup2\n      lt\n      tag_73\n      jumpi\n      tag_74\n      tag_50\n      jump\t// in\n    tag_74:\n    tag_73:\n      swap1\n      0x00\n      mstore\n      keccak256(0x00, 0x20)\n      swap1\n      0x02\n      mul\n      add\n        /* \"VulnerableVoting.sol\":1433:1461  candidates[winnerIndex].name */\n      0x00\n      add\n        /* \"VulnerableVoting.sol\":1426:1461  return candidates[winnerIndex].name */\n      dup1\n      sload\n      tag_76\n      swap1\n      tag_57\n      jump\t// in\n    tag_76:\n      dup1\n      0x1f\n      add\n      0x20\n      dup1\n      swap2\n      div\n      mul\n      0x20\n      add\n      mload(0x40)\n      swap1\n      dup2\n      add\n      0x40\n      mstore\n      dup1\n      swap3\n      swap2\n      swap1\n      dup2\n      dup2\n      mstore\n      0x20\n      add\n      dup3\n      dup1\n      sload\n      tag_77\n      swap1\n      tag_57\n      jump\t// in\n    tag_77:\n      dup1\n      iszero\n      tag_78\n      jumpi\n      dup1\n      0x1f\n      lt\n      tag_79\n      jumpi\n      0x0100\n      dup1\n      dup4\n      sload\n      div\n      mul\n      dup4\n      mstore\n      swap2\n      0x20\n      add\n      swap2\n      jump(tag_78)\n    tag_79:\n      dup3\n      add\n      swap2\n      swap1\n      0x00\n      mstore\n      keccak256(0x00, 0x20)\n      swap1\n    tag_80:\n      dup2\n      sload\n      dup2\n      mstore\n      swap1\n      0x01\n      add\n      swap1\n      0x20\n      add\n      dup1\n      dup4\n      gt\n      tag_80\n      jumpi\n      dup3\n      swap1\n      sub\n      0x1f\n      and\n      dup3\n      add\n      swap2\n    tag_78:\n      pop\n      pop\n      pop\n      pop\n      pop\n      swap3\n      pop\n      pop\n      pop\n        /* \"VulnerableVoting.sol\":1062:1469  function getWinner() public view returns (string memory) {... */\n      swap1\n      jump\t// out\n        /* \"VulnerableVoting.sol\":260:282  bool public votingOpen */\n    tag_29:\n      0x02\n      0x00\n      swap1\n      sload\n      swap1\n      0x0100\n      exp\n      swap1\n      div\n      0xff\n      and\n      dup2\n      jump\t// out\n        /* \"VulnerableVoting.sol\":987:1054  function closeVoting() public {... */\n    tag_32:\n        /* \"VulnerableVoting.sol\":1041:1046  false */\n      0x00\n        /* \"VulnerableVoting.sol\":1028:1038  votingOpen */\n      0x02\n      0x00\n        /* \"VulnerableVoting.sol\":1028:1046  votingOpen = false */\n      0x0100\n      exp\n      dup2\n      sload\n      dup2\n      0xff\n      mul\n      not\n      and\n      swap1\n      dup4\n      iszero\n      iszero\n      mul\n      or\n      swap1\n      sstore\n      pop\n        /* \"VulnerableVoting.sol\":987:1054  function closeVoting() public {... */\n      jump\t// out\n        /* \"#utility.yul\":88:205   */\n    tag_83:\n        /* \"#utility.yul\":197:198   */\n      0x00\n        /* \"#utility.yul\":194:195   */\n      dup1\n        /* \"#utility.yul\":187:199   */\n      revert\n        /* \"#utility.yul\":334:411   */\n    tag_85:\n        /* \"#utility.yul\":371:378   */\n      0x00\n        /* \"#utility.yul\":400:405   */\n      dup2\n        /* \"#utility.yul\":389:405   */\n      swap1\n      pop\n        /* \"#utility.yul\":334:411   */\n      swap2\n      swap1\n      pop\n      jump\t// out\n        /* \"#utility.yul\":417:539   */\n    tag_86:\n        /* \"#utility.yul\":490:514   */\n      tag_117\n        /* \"#utility.yul\":508:513   */\n      dup2\n        /* \"#utility.yul\":490:514   */\n      tag_85\n      jump\t// in\n    tag_117:\n        /* \"#utility.yul\":483:488   */\n      dup2\n        /* \"#utility.yul\":480:515   */\n      eq\n        /* \"#utility.yul\":470:533   */\n      tag_118\n      jumpi\n        /* \"#utility.yul\":529:530   */\n      0x00\n        /* \"#utility.yul\":526:527   */\n      dup1\n        /* \"#utility.yul\":519:531   */\n      revert\n        /* \"#utility.yul\":470:533   */\n    tag_118:\n        /* \"#utility.yul\":417:539   */\n      pop\n      jump\t// out\n        /* \"#utility.yul\":545:684   */\n    tag_87:\n        /* \"#utility.yul\":591:596   */\n      0x00\n        /* \"#utility.yul\":629:635   */\n      dup2\n        /* \"#utility.yul\":616:636   */\n      calldataload\n        /* \"#utility.yul\":607:636   */\n      swap1\n      pop\n        /* \"#utility.yul\":645:678   */\n      tag_120\n        /* \"#utility.yul\":672:677   */\n      dup2\n        /* \"#utility.yul\":645:678   */\n      tag_86\n      jump\t// in\n    tag_120:\n        /* \"#utility.yul\":545:684   */\n      swap3\n      swap2\n      pop\n      pop\n      jump\t// out\n        /* \"#utility.yul\":690:1019   */\n    tag_11:\n        /* \"#utility.yul\":749:755   */\n      0x00\n        /* \"#utility.yul\":798:800   */\n      0x20\n        /* \"#utility.yul\":786:795   */\n      dup3\n        /* \"#utility.yul\":777:784   */\n      dup5\n        /* \"#utility.yul\":773:796   */\n      sub\n        /* \"#utility.yul\":769:801   */\n      slt\n        /* \"#utility.yul\":766:885   */\n      iszero\n      tag_122\n      jumpi\n        /* \"#utility.yul\":804:883   */\n      tag_123\n      tag_83\n      jump\t// in\n    tag_123:\n        /* \"#utility.yul\":766:885   */\n    tag_122:\n        /* \"#utility.yul\":924:925   */\n      0x00\n        /* \"#utility.yul\":949:1002   */\n      tag_124\n        /* \"#utility.yul\":994:1001   */\n      dup5\n        /* \"#utility.yul\":985:991   */\n      dup3\n        /* \"#utility.yul\":974:983   */\n      dup6\n        /* \"#utility.yul\":970:992   */\n      add\n        /* \"#utility.yul\":949:1002   */\n      tag_87\n      jump\t// in\n    tag_124:\n        /* \"#utility.yul\":939:1002   */\n      swap2\n      pop\n        /* \"#utility.yul\":895:1012   */\n      pop\n        /* \"#utility.yul\":690:1019   */\n      swap3\n      swap2\n      pop\n      pop\n      jump\t// out\n        /* \"#utility.yul\":1025:1151   */\n    tag_88:\n        /* \"#utility.yul\":1062:1069   */\n      0x00\n        /* \"#utility.yul\":1102:1144   */\n      0xffffffffffffffffffffffffffffffffffffffff\n        /* \"#utility.yul\":1095:1100   */\n      dup3\n        /* \"#utility.yul\":1091:1145   */\n      and\n        /* \"#utility.yul\":1080:1145   */\n      swap1\n      pop\n        /* \"#utility.yul\":1025:1151   */\n      swap2\n      swap1\n      pop\n      jump\t// out\n        /* \"#utility.yul\":1157:1253   */\n    tag_89:\n        /* \"#utility.yul\":1194:1201   */\n      0x00\n        /* \"#utility.yul\":1223:1247   */\n      tag_127\n        /* \"#utility.yul\":1241:1246   */\n      dup3\n        /* \"#utility.yul\":1223:1247   */\n      tag_88\n      jump\t// in\n    tag_127:\n        /* \"#utility.yul\":1212:1247   */\n      swap1\n      pop\n        /* \"#utility.yul\":1157:1253   */\n      swap2\n      swap1\n      pop\n      jump\t// out\n        /* \"#utility.yul\":1259:1381   */\n    tag_90:\n        /* \"#utility.yul\":1332:1356   */\n      tag_129\n        /* \"#utility.yul\":1350:1355   */\n      dup2\n        /* \"#utility.yul\":1332:1356   */\n      tag_89\n      jump\t// in\n    tag_129:\n        /* \"#utility.yul\":1325:1330   */\n      dup2\n        /* \"#utility.yul\":1322:1357   */\n      eq\n        /* \"#utility.yul\":1312:1375   */\n      tag_130\n      jumpi\n        /* \"#utility.yul\":1371:1372   */\n      0x00\n        /* \"#utility.yul\":1368:1369   */\n      dup1\n        /* \"#utility.yul\":1361:1373   */\n      revert\n        /* \"#utility.yul\":1312:1375   */\n    tag_130:\n        /* \"#utility.yul\":1259:1381   */\n      pop\n      jump\t// out\n        /* \"#utility.yul\":1387:1526   */\n    tag_91:\n        /* \"#utility.yul\":1433:1438   */\n      0x00\n        /* \"#utility.yul\":1471:1477   */\n      dup2\n        /* \"#utility.yul\":1458:1478   */\n      calldataload\n        /* \"#utility.yul\":1449:1478   */\n      swap1\n      pop\n        /* \"#utility.yul\":1487:1520   */\n      tag_132\n        /* \"#utility.yul\":1514:1519   */\n      dup2\n        /* \"#utility.yul\":1487:1520   */\n      tag_90\n      jump\t// in\n    tag_132:\n        /* \"#utility.yul\":1387:1526   */\n      swap3\n      swap2\n      pop\n      pop\n      jump\t// out\n        /* \"#utility.yul\":1532:1861   */\n    tag_15:\n        /* \"#utility.yul\":1591:1597   */\n      0x00\n        /* \"#utility.yul\":1640:1642   */\n      0x20\n        /* \"#utility.yul\":1628:1637   */\n      dup3\n        /* \"#utility.yul\":1619:1626   */\n      dup5\n        /* \"#utility.yul\":1615:1638   */\n      sub\n        /* \"#utility.yul\":1611:1643   */\n      slt\n        /* \"#utility.yul\":1608:1727   */\n      iszero\n      tag_134\n      jumpi\n        /* \"#utility.yul\":1646:1725   */\n      tag_135\n      tag_83\n      jump\t// in\n    tag_135:\n        /* \"#utility.yul\":1608:1727   */\n    tag_134:\n        /* \"#utility.yul\":1766:1767   */\n      0x00\n        /* \"#utility.yul\":1791:1844   */\n      tag_136\n        /* \"#utility.yul\":1836:1843   */\n      dup5\n        /* \"#utility.yul\":1827:1833   */\n      dup3\n        /* \"#utility.yul\":1816:1825   */\n      dup6\n        /* \"#utility.yul\":1812:1834   */\n      add\n        /* \"#utility.yul\":1791:1844   */\n      tag_91\n      jump\t// in\n    tag_136:\n        /* \"#utility.yul\":1781:1844   */\n      swap2\n      pop\n        /* \"#utility.yul\":1737:1854   */\n      pop\n        /* \"#utility.yul\":1532:1861   */\n      swap3\n      swap2\n      pop\n      pop\n      jump\t// out\n        /* \"#utility.yul\":1867:1957   */\n    tag_92:\n        /* \"#utility.yul\":1901:1908   */\n      0x00\n        /* \"#utility.yul\":1944:1949   */\n      dup2\n        /* \"#utility.yul\":1937:1950   */\n      iszero\n        /* \"#utility.yul\":1930:1951   */\n      iszero\n        /* \"#utility.yul\":1919:1951   */\n      swap1\n      pop\n        /* \"#utility.yul\":1867:1957   */\n      swap2\n      swap1\n      pop\n      jump\t// out\n        /* \"#utility.yul\":1963:2072   */\n    tag_93:\n        /* \"#utility.yul\":2044:2065   */\n      tag_139\n        /* \"#utility.yul\":2059:2064   */\n      dup2\n        /* \"#utility.yul\":2044:2065   */\n      tag_92\n      jump\t// in\n    tag_139:\n        /* \"#utility.yul\":2039:2042   */\n      dup3\n        /* \"#utility.yul\":2032:2066   */\n      mstore\n        /* \"#utility.yul\":1963:2072   */\n      pop\n      pop\n      jump\t// out\n        /* \"#utility.yul\":2078:2288   */\n    tag_18:\n        /* \"#utility.yul\":2165:2169   */\n      0x00\n        /* \"#utility.yul\":2203:2205   */\n      0x20\n        /* \"#utility.yul\":2192:2201   */\n      dup3\n        /* \"#utility.yul\":2188:2206   */\n      add\n        /* \"#utility.yul\":2180:2206   */\n      swap1\n      pop\n        /* \"#utility.yul\":2216:2281   */\n      tag_141\n        /* \"#utility.yul\":2278:2279   */\n      0x00\n        /* \"#utility.yul\":2267:2276   */\n      dup4\n        /* \"#utility.yul\":2263:2280   */\n      add\n        /* \"#utility.yul\":2254:2260   */\n      dup5\n        /* \"#utility.yul\":2216:2281   */\n      tag_93\n      jump\t// in\n    tag_141:\n        /* \"#utility.yul\":2078:2288   */\n      swap3\n      swap2\n      pop\n      pop\n      jump\t// out\n        /* \"#utility.yul\":2294:2393   */\n    tag_94:\n        /* \"#utility.yul\":2346:2352   */\n      0x00\n        /* \"#utility.yul\":2380:2385   */\n      dup2\n        /* \"#utility.yul\":2374:2386   */\n      mload\n        /* \"#utility.yul\":2364:2386   */\n      swap1\n      pop\n        /* \"#utility.yul\":2294:2393   */\n      swap2\n      swap1\n      pop\n      jump\t// out\n        /* \"#utility.yul\":2399:2568   */\n    tag_95:\n        /* \"#utility.yul\":2483:2494   */\n      0x00\n        /* \"#utility.yul\":2517:2523   */\n      dup3\n        /* \"#utility.yul\":2512:2515   */\n      dup3\n        /* \"#utility.yul\":2505:2524   */\n      mstore\n        /* \"#utility.yul\":2557:2561   */\n      0x20\n        /* \"#utility.yul\":2552:2555   */\n      dup3\n        /* \"#utility.yul\":2548:2562   */\n      add\n        /* \"#utility.yul\":2533:2562   */\n      swap1\n      pop\n        /* \"#utility.yul\":2399:2568   */\n      swap3\n      swap2\n      pop\n      pop\n      jump\t// out\n        /* \"#utility.yul\":2574:2713   */\n    tag_96:\n        /* \"#utility.yul\":2663:2669   */\n      dup3\n        /* \"#utility.yul\":2658:2661   */\n      dup2\n        /* \"#utility.yul\":2653:2656   */\n      dup4\n        /* \"#utility.yul\":2647:2670   */\n      mcopy\n        /* \"#utility.yul\":2704:2705   */\n      0x00\n        /* \"#utility.yul\":2695:2701   */\n      dup4\n        /* \"#utility.yul\":2690:2693   */\n      dup4\n        /* \"#utility.yul\":2686:2702   */\n      add\n        /* \"#utility.yul\":2679:2706   */\n      mstore\n        /* \"#utility.yul\":2574:2713   */\n      pop\n      pop\n      pop\n      jump\t// out\n        /* \"#utility.yul\":2719:2821   */\n    tag_97:\n        /* \"#utility.yul\":2760:2766   */\n      0x00\n        /* \"#utility.yul\":2811:2813   */\n      0x1f\n        /* \"#utility.yul\":2807:2814   */\n      not\n        /* \"#utility.yul\":2802:2804   */\n      0x1f\n        /* \"#utility.yul\":2795:2800   */\n      dup4\n        /* \"#utility.yul\":2791:2805   */\n      add\n        /* \"#utility.yul\":2787:2815   */\n      and\n        /* \"#utility.yul\":2777:2815   */\n      swap1\n      pop\n        /* \"#utility.yul\":2719:2821   */\n      swap2\n      swap1\n      pop\n      jump\t// out\n        /* \"#utility.yul\":2827:3204   */\n    tag_98:\n        /* \"#utility.yul\":2915:2918   */\n      0x00\n        /* \"#utility.yul\":2943:2982   */\n      tag_147\n        /* \"#utility.yul\":2976:2981   */\n      dup3\n        /* \"#utility.yul\":2943:2982   */\n      tag_94\n      jump\t// in\n    tag_147:\n        /* \"#utility.yul\":2998:3069   */\n      tag_148\n        /* \"#utility.yul\":3062:3068   */\n      dup2\n        /* \"#utility.yul\":3057:3060   */\n      dup6\n        /* \"#utility.yul\":2998:3069   */\n      tag_95\n      jump\t// in\n    tag_148:\n        /* \"#utility.yul\":2991:3069   */\n      swap4\n      pop\n        /* \"#utility.yul\":3078:3143   */\n      tag_149\n        /* \"#utility.yul\":3136:3142   */\n      dup2\n        /* \"#utility.yul\":3131:3134   */\n      dup6\n        /* \"#utility.yul\":3124:3128   */\n      0x20\n        /* \"#utility.yul\":3117:3122   */\n      dup7\n        /* \"#utility.yul\":3113:3129   */\n      add\n        /* \"#utility.yul\":3078:3143   */\n      tag_96\n      jump\t// in\n    tag_149:\n        /* \"#utility.yul\":3168:3197   */\n      tag_150\n        /* \"#utility.yul\":3190:3196   */\n      dup2\n        /* \"#utility.yul\":3168:3197   */\n      tag_97\n      jump\t// in\n    tag_150:\n        /* \"#utility.yul\":3163:3166   */\n      dup5\n        /* \"#utility.yul\":3159:3198   */\n      add\n        /* \"#utility.yul\":3152:3198   */\n      swap2\n      pop\n        /* \"#utility.yul\":2919:3204   */\n      pop\n        /* \"#utility.yul\":2827:3204   */\n      swap3\n      swap2\n      pop\n      pop\n      jump\t// out\n        /* \"#utility.yul\":3210:3328   */\n    tag_99:\n        /* \"#utility.yul\":3297:3321   */\n      tag_152\n        /* \"#utility.yul\":3315:3320   */\n      dup2\n        /* \"#utility.yul\":3297:3321   */\n      tag_85\n      jump\t// in\n    tag_152:\n        /* \"#utility.yul\":3292:3295   */\n      dup3\n        /* \"#utility.yul\":3285:3322   */\n      mstore\n        /* \"#utility.yul\":3210:3328   */\n      pop\n      pop\n      jump\t// out\n        /* \"#utility.yul\":3334:3757   */\n    tag_23:\n        /* \"#utility.yul\":3475:3479   */\n      0x00\n        /* \"#utility.yul\":3513:3515   */\n      0x40\n        /* \"#utility.yul\":3502:3511   */\n      dup3\n        /* \"#utility.yul\":3498:3516   */\n      add\n        /* \"#utility.yul\":3490:3516   */\n      swap1\n      pop\n        /* \"#utility.yul\":3562:3571   */\n      dup2\n        /* \"#utility.yul\":3556:3560   */\n      dup2\n        /* \"#utility.yul\":3552:3572   */\n      sub\n        /* \"#utility.yul\":3548:3549   */\n      0x00\n        /* \"#utility.yul\":3537:3546   */\n      dup4\n        /* \"#utility.yul\":3533:3550   */\n      add\n        /* \"#utility.yul\":3526:3573   */\n      mstore\n        /* \"#utility.yul\":3590:3668   */\n      tag_154\n        /* \"#utility.yul\":3663:3667   */\n      dup2\n        /* \"#utility.yul\":3654:3660   */\n      dup6\n        /* \"#utility.yul\":3590:3668   */\n      tag_98\n      jump\t// in\n    tag_154:\n        /* \"#utility.yul\":3582:3668   */\n      swap1\n      pop\n        /* \"#utility.yul\":3678:3750   */\n      tag_155\n        /* \"#utility.yul\":3746:3748   */\n      0x20\n        /* \"#utility.yul\":3735:3744   */\n      dup4\n        /* \"#utility.yul\":3731:3749   */\n      add\n        /* \"#utility.yul\":3722:3728   */\n      dup5\n        /* \"#utility.yul\":3678:3750   */\n      tag_99\n      jump\t// in\n    tag_155:\n        /* \"#utility.yul\":3334:3757   */\n      swap4\n      swap3\n      pop\n      pop\n      pop\n      jump\t// out\n        /* \"#utility.yul\":3763:4076   */\n    tag_27:\n        /* \"#utility.yul\":3876:3880   */\n      0x00\n        /* \"#utility.yul\":3914:3916   */\n      0x20\n        /* \"#utility.yul\":3903:3912   */\n      dup3\n        /* \"#utility.yul\":3899:3917   */\n      add\n        /* \"#utility.yul\":3891:3917   */\n      swap1\n      pop\n        /* \"#utility.yul\":3963:3972   */\n      dup2\n        /* \"#utility.yul\":3957:3961   */\n      dup2\n        /* \"#utility.yul\":3953:3973   */\n      sub\n        /* \"#utility.yul\":3949:3950   */\n      0x00\n        /* \"#utility.yul\":3938:3947   */\n      dup4\n        /* \"#utility.yul\":3934:3951   */\n      add\n        /* \"#utility.yul\":3927:3974   */\n      mstore\n        /* \"#utility.yul\":3991:4069   */\n      tag_157\n        /* \"#utility.yul\":4064:4068   */\n      dup2\n        /* \"#utility.yul\":4055:4061   */\n      dup5\n        /* \"#utility.yul\":3991:4069   */\n      tag_98\n      jump\t// in\n    tag_157:\n        /* \"#utility.yul\":3983:4069   */\n      swap1\n      pop\n        /* \"#utility.yul\":3763:4076   */\n      swap3\n      swap2\n      pop\n      pop\n      jump\t// out\n        /* \"#utility.yul\":4082:4248   */\n    tag_100:\n        /* \"#utility.yul\":4222:4240   */\n      0x566f74696e6720697320636c6f73656400000000000000000000000000000000\n        /* \"#utility.yul\":4218:4219   */\n      0x00\n        /* \"#utility.yul\":4210:4216   */\n      dup3\n        /* \"#utility.yul\":4206:4220   */\n      add\n        /* \"#utility.yul\":4199:4241   */\n      mstore\n        /* \"#utility.yul\":4082:4248   */\n      pop\n      jump\t// out\n        /* \"#utility.yul\":4254:4620   */\n    tag_101:\n        /* \"#utility.yul\":4396:4399   */\n      0x00\n        /* \"#utility.yul\":4417:4484   */\n      tag_160\n        /* \"#utility.yul\":4481:4483   */\n      0x10\n        /* \"#utility.yul\":4476:4479   */\n      dup4\n        /* \"#utility.yul\":4417:4484   */\n      tag_95\n      jump\t// in\n    tag_160:\n        /* \"#utility.yul\":4410:4484   */\n      swap2\n      pop\n        /* \"#utility.yul\":4493:4586   */\n      tag_161\n        /* \"#utility.yul\":4582:4585   */\n      dup3\n        /* \"#utility.yul\":4493:4586   */\n      tag_100\n      jump\t// in\n    tag_161:\n        /* \"#utility.yul\":4611:4613   */\n      0x20\n        /* \"#utility.yul\":4606:4609   */\n      dup3\n        /* \"#utility.yul\":4602:4614   */\n      add\n        /* \"#utility.yul\":4595:4614   */\n      swap1\n      pop\n        /* \"#utility.yul\":4254:4620   */\n      swap2\n      swap1\n      pop\n      jump\t// out\n        /* \"#utility.yul\":4626:5045   */\n    tag_36:\n        /* \"#utility.yul\":4792:4796   */\n      0x00\n        /* \"#utility.yul\":4830:4832   */\n      0x20\n        /* \"#utility.yul\":4819:4828   */\n      dup3\n        /* \"#utility.yul\":4815:4833   */\n      add\n        /* \"#utility.yul\":4807:4833   */\n      swap1\n      pop\n        /* \"#utility.yul\":4879:4888   */\n      dup2\n        /* \"#utility.yul\":4873:4877   */\n      dup2\n        /* \"#utility.yul\":4869:4889   */\n      sub\n        /* \"#utility.yul\":4865:4866   */\n      0x00\n        /* \"#utility.yul\":4854:4863   */\n      dup4\n        /* \"#utility.yul\":4850:4867   */\n      add\n        /* \"#utility.yul\":4843:4890   */\n      mstore\n        /* \"#utility.yul\":4907:5038   */\n      tag_163\n        /* \"#utility.yul\":5033:5037   */\n      dup2\n        /* \"#utility.yul\":4907:5038   */\n      tag_101\n      jump\t// in\n    tag_163:\n        /* \"#utility.yul\":4899:5038   */\n      swap1\n      pop\n        /* \"#utility.yul\":4626:5045   */\n      swap2\n      swap1\n      pop\n      jump\t// out\n        /* \"#utility.yul\":5051:5218   */\n    tag_102:\n        /* \"#utility.yul\":5191:5210   */\n      0x496e76616c69642063616e646964617465000000000000000000000000000000\n        /* \"#utility.yul\":5187:5188   */\n      0x00\n        /* \"#utility.yul\":5179:5185   */\n      dup3\n        /* \"#utility.yul\":5175:5189   */\n      add\n        /* \"#utility.yul\":5168:5211   */\n      mstore\n        /* \"#utility.yul\":5051:5218   */\n      pop\n      jump\t// out\n        /* \"#utility.yul\":5224:5590   */\n    tag_103:\n        /* \"#utility.yul\":5366:5369   */\n      0x00\n        /* \"#utility.yul\":5387:5454   */\n      tag_166\n        /* \"#utility.yul\":5451:5453   */\n      0x11\n        /* \"#utility.yul\":5446:5449   */\n      dup4\n        /* \"#utility.yul\":5387:5454   */\n      tag_95\n      jump\t// in\n    tag_166:\n        /* \"#utility.yul\":5380:5454   */\n      swap2\n      pop\n        /* \"#utility.yul\":5463:5556   */\n      tag_167\n        /* \"#utility.yul\":5552:5555   */\n      dup3\n        /* \"#utility.yul\":5463:5556   */\n      tag_102\n      jump\t// in\n    tag_167:\n        /* \"#utility.yul\":5581:5583   */\n      0x20\n        /* \"#utility.yul\":5576:5579   */\n      dup3\n        /* \"#utility.yul\":5572:5584   */\n      add\n        /* \"#utility.yul\":5565:5584   */\n      swap1\n      pop\n        /* \"#utility.yul\":5224:5590   */\n      swap2\n      swap1\n      pop\n      jump\t// out\n        /* \"#utility.yul\":5596:6015   */\n    tag_39:\n        /* \"#utility.yul\":5762:5766   */\n      0x00\n        /* \"#utility.yul\":5800:5802   */\n      0x20\n        /* \"#utility.yul\":5789:5798   */\n      dup3\n        /* \"#utility.yul\":5785:5803   */\n      add\n        /* \"#utility.yul\":5777:5803   */\n      swap1\n      pop\n        /* \"#utility.yul\":5849:5858   */\n      dup2\n        /* \"#utility.yul\":5843:5847   */\n      dup2\n        /* \"#utility.yul\":5839:5859   */\n      sub\n        /* \"#utility.yul\":5835:5836   */\n      0x00\n        /* \"#utility.yul\":5824:5833   */\n      dup4\n        /* \"#utility.yul\":5820:5837   */\n      add\n        /* \"#utility.yul\":5813:5860   */\n      mstore\n        /* \"#utility.yul\":5877:6008   */\n      tag_169\n        /* \"#utility.yul\":6003:6007   */\n      dup2\n        /* \"#utility.yul\":5877:6008   */\n      tag_103\n      jump\t// in\n    tag_169:\n        /* \"#utility.yul\":5869:6008   */\n      swap1\n      pop\n        /* \"#utility.yul\":5596:6015   */\n      swap2\n      swap1\n      pop\n      jump\t// out\n        /* \"#utility.yul\":6021:6168   */\n    tag_104:\n        /* \"#utility.yul\":6122:6133   */\n      0x00\n        /* \"#utility.yul\":6159:6162   */\n      dup2\n        /* \"#utility.yul\":6144:6162   */\n      swap1\n      pop\n        /* \"#utility.yul\":6021:6168   */\n      swap3\n      swap2\n      pop\n      pop\n      jump\t// out\n        /* \"#utility.yul\":6174:6288   */\n    tag_105:\n      pop\n      jump\t// out\n        /* \"#utility.yul\":6294:6692   */\n    tag_106:\n        /* \"#utility.yul\":6453:6456   */\n      0x00\n        /* \"#utility.yul\":6474:6557   */\n      tag_173\n        /* \"#utility.yul\":6555:6556   */\n      0x00\n        /* \"#utility.yul\":6550:6553   */\n      dup4\n        /* \"#utility.yul\":6474:6557   */\n      tag_104\n      jump\t// in\n    tag_173:\n        /* \"#utility.yul\":6467:6557   */\n      swap2\n      pop\n        /* \"#utility.yul\":6566:6659   */\n      tag_174\n        /* \"#utility.yul\":6655:6658   */\n      dup3\n        /* \"#utility.yul\":6566:6659   */\n      tag_105\n      jump\t// in\n    tag_174:\n        /* \"#utility.yul\":6684:6685   */\n      0x00\n        /* \"#utility.yul\":6679:6682   */\n      dup3\n        /* \"#utility.yul\":6675:6686   */\n      add\n        /* \"#utility.yul\":6668:6686   */\n      swap1\n      pop\n        /* \"#utility.yul\":6294:6692   */\n      swap2\n      swap1\n      pop\n      jump\t// out\n        /* \"#utility.yul\":6698:7077   */\n    tag_41:\n        /* \"#utility.yul\":6882:6885   */\n      0x00\n        /* \"#utility.yul\":6904:7051   */\n      tag_176\n        /* \"#utility.yul\":7047:7050   */\n      dup3\n        /* \"#utility.yul\":6904:7051   */\n      tag_106\n      jump\t// in\n    tag_176:\n        /* \"#utility.yul\":6897:7051   */\n      swap2\n      pop\n        /* \"#utility.yul\":7068:7071   */\n      dup2\n        /* \"#utility.yul\":7061:7071   */\n      swap1\n      pop\n        /* \"#utility.yul\":6698:7077   */\n      swap2\n      swap1\n      pop\n      jump\t// out\n        /* \"#utility.yul\":7083:7253   */\n    tag_107:\n        /* \"#utility.yul\":7223:7245   */\n      0x45787465726e616c2063616c6c206661696c6564000000000000000000000000\n        /* \"#utility.yul\":7219:7220   */\n      0x00\n        /* \"#utility.yul\":7211:7217   */\n      dup3\n        /* \"#utility.yul\":7207:7221   */\n      add\n        /* \"#utility.yul\":7200:7246   */\n      mstore\n        /* \"#utility.yul\":7083:7253   */\n      pop\n      jump\t// out\n        /* \"#utility.yul\":7259:7625   */\n    tag_108:\n        /* \"#utility.yul\":7401:7404   */\n      0x00\n        /* \"#utility.yul\":7422:7489   */\n      tag_179\n        /* \"#utility.yul\":7486:7488   */\n      0x14\n        /* \"#utility.yul\":7481:7484   */\n      dup4\n        /* \"#utility.yul\":7422:7489   */\n      tag_95\n      jump\t// in\n    tag_179:\n        /* \"#utility.yul\":7415:7489   */\n      swap2\n      pop\n        /* \"#utility.yul\":7498:7591   */\n      tag_180\n        /* \"#utility.yul\":7587:7590   */\n      dup3\n        /* \"#utility.yul\":7498:7591   */\n      tag_107\n      jump\t// in\n    tag_180:\n        /* \"#utility.yul\":7616:7618   */\n      0x20\n        /* \"#utility.yul\":7611:7614   */\n      dup3\n        /* \"#utility.yul\":7607:7619   */\n      add\n        /* \"#utility.yul\":7600:7619   */\n      swap1\n      pop\n        /* \"#utility.yul\":7259:7625   */\n      swap2\n      swap1\n      pop\n      jump\t// out\n        /* \"#utility.yul\":7631:8050   */\n    tag_47:\n        /* \"#utility.yul\":7797:7801   */\n      0x00\n        /* \"#utility.yul\":7835:7837   */\n      0x20\n        /* \"#utility.yul\":7824:7833   */\n      dup3\n        /* \"#utility.yul\":7820:7838   */\n      add\n        /* \"#utility.yul\":7812:7838   */\n      swap1\n      pop\n        /* \"#utility.yul\":7884:7893   */\n      dup2\n        /* \"#utility.yul\":7878:7882   */\n      dup2\n        /* \"#utility.yul\":7874:7894   */\n      sub\n        /* \"#utility.yul\":7870:7871   */\n      0x00\n        /* \"#utility.yul\":7859:7868   */\n      dup4\n        /* \"#utility.yul\":7855:7872   */\n      add\n        /* \"#utility.yul\":7848:7895   */\n      mstore\n        /* \"#utility.yul\":7912:8043   */\n      tag_182\n        /* \"#utility.yul\":8038:8042   */\n      dup2\n        /* \"#utility.yul\":7912:8043   */\n      tag_108\n      jump\t// in\n    tag_182:\n        /* \"#utility.yul\":7904:8043   */\n      swap1\n      pop\n        /* \"#utility.yul\":7631:8050   */\n      swap2\n      swap1\n      pop\n      jump\t// out\n        /* \"#utility.yul\":8056:8236   */\n    tag_50:\n        /* \"#utility.yul\":8104:8181   */\n      0x4e487b7100000000000000000000000000000000000000000000000000000000\n        /* \"#utility.yul\":8101:8102   */\n      0x00\n        /* \"#utility.yul\":8094:8182   */\n      mstore\n        /* \"#utility.yul\":8201:8205   */\n      0x32\n        /* \"#utility.yul\":8198:8199   */\n      0x04\n        /* \"#utility.yul\":8191:8206   */\n      mstore\n        /* \"#utility.yul\":8225:8229   */\n      0x24\n        /* \"#utility.yul\":8222:8223   */\n      0x00\n        /* \"#utility.yul\":8215:8230   */\n      revert\n        /* \"#utility.yul\":8242:8422   */\n    tag_109:\n        /* \"#utility.yul\":8290:8367   */\n      0x4e487b7100000000000000000000000000000000000000000000000000000000\n        /* \"#utility.yul\":8287:8288   */\n      0x00\n        /* \"#utility.yul\":8280:8368   */\n      mstore\n        /* \"#utility.yul\":8387:8391   */\n      0x11\n        /* \"#utility.yul\":8384:8385   */\n      0x04\n        /* \"#utility.yul\":8377:8392   */\n      mstore\n        /* \"#utility.yul\":8411:8415   */\n      0x24\n        /* \"#utility.yul\":8408:8409   */\n      0x00\n        /* \"#utility.yul\":8401:8416   */\n      revert\n        /* \"#utility.yul\":8428:8619   */\n    tag_53:\n        /* \"#utility.yul\":8468:8471   */\n      0x00\n        /* \"#utility.yul\":8487:8507   */\n      tag_186\n        /* \"#utility.yul\":8505:8506   */\n      dup3\n        /* \"#utility.yul\":8487:8507   */\n      tag_85\n      jump\t// in\n    tag_186:\n        /* \"#utility.yul\":8482:8507   */\n      swap2\n      pop\n        /* \"#utility.yul\":8521:8541   */\n      tag_187\n        /* \"#utility.yul\":8539:8540   */\n      dup4\n        /* \"#utility.yul\":8521:8541   */\n      tag_85\n      jump\t// in\n    tag_187:\n        /* \"#utility.yul\":8516:8541   */\n      swap3\n      pop\n        /* \"#utility.yul\":8564:8565   */\n      dup3\n        /* \"#utility.yul\":8561:8562   */\n      dup3\n        /* \"#utility.yul\":8557:8566   */\n      add\n        /* \"#utility.yul\":8550:8566   */\n      swap1\n      pop\n        /* \"#utility.yul\":8585:8588   */\n      dup1\n        /* \"#utility.yul\":8582:8583   */\n      dup3\n        /* \"#utility.yul\":8579:8589   */\n      gt\n        /* \"#utility.yul\":8576:8612   */\n      iszero\n      tag_188\n      jumpi\n        /* \"#utility.yul\":8592:8610   */\n      tag_189\n      tag_109\n      jump\t// in\n    tag_189:\n        /* \"#utility.yul\":8576:8612   */\n    tag_188:\n        /* \"#utility.yul\":8428:8619   */\n      swap3\n      swap2\n      pop\n      pop\n      jump\t// out\n        /* \"#utility.yul\":8625:8805   */\n    tag_110:\n        /* \"#utility.yul\":8673:8750   */\n      0x4e487b7100000000000000000000000000000000000000000000000000000000\n        /* \"#utility.yul\":8670:8671   */\n      0x00\n        /* \"#utility.yul\":8663:8751   */\n      mstore\n        /* \"#utility.yul\":8770:8774   */\n      0x22\n        /* \"#utility.yul\":8767:8768   */\n      0x04\n        /* \"#utility.yul\":8760:8775   */\n      mstore\n        /* \"#utility.yul\":8794:8798   */\n      0x24\n        /* \"#utility.yul\":8791:8792   */\n      0x00\n        /* \"#utility.yul\":8784:8799   */\n      revert\n        /* \"#utility.yul\":8811:9131   */\n    tag_57:\n        /* \"#utility.yul\":8855:8861   */\n      0x00\n        /* \"#utility.yul\":8892:8893   */\n      0x02\n        /* \"#utility.yul\":8886:8890   */\n      dup3\n        /* \"#utility.yul\":8882:8894   */\n      div\n        /* \"#utility.yul\":8872:8894   */\n      swap1\n      pop\n        /* \"#utility.yul\":8939:8940   */\n      0x01\n        /* \"#utility.yul\":8933:8937   */\n      dup3\n        /* \"#utility.yul\":8929:8941   */\n      and\n        /* \"#utility.yul\":8960:8978   */\n      dup1\n        /* \"#utility.yul\":8950:9031   */\n      tag_192\n      jumpi\n        /* \"#utility.yul\":9016:9020   */\n      0x7f\n        /* \"#utility.yul\":9008:9014   */\n      dup3\n        /* \"#utility.yul\":9004:9021   */\n      and\n        /* \"#utility.yul\":8994:9021   */\n      swap2\n      pop\n        /* \"#utility.yul\":8950:9031   */\n    tag_192:\n        /* \"#utility.yul\":9078:9080   */\n      0x20\n        /* \"#utility.yul\":9070:9076   */\n      dup3\n        /* \"#utility.yul\":9067:9081   */\n      lt\n        /* \"#utility.yul\":9047:9065   */\n      dup2\n        /* \"#utility.yul\":9044:9082   */\n      sub\n        /* \"#utility.yul\":9041:9125   */\n      tag_193\n      jumpi\n        /* \"#utility.yul\":9097:9115   */\n      tag_194\n      tag_110\n      jump\t// in\n    tag_194:\n        /* \"#utility.yul\":9041:9125   */\n    tag_193:\n        /* \"#utility.yul\":8862:9131   */\n      pop\n        /* \"#utility.yul\":8811:9131   */\n      swap2\n      swap1\n      pop\n      jump\t// out\n\n    auxdata: 0xa264697066735822122033fbd5b302fa5945c383024c3bd4ad9b25761dcb694fc830f18ed54844a1532764736f6c634300081a0033\n}\n",
				"bytecode": {
					"linkReferences": {},
					"object": "608060405234801561000f575f80fd5b5060405161100438038061100483398181016040528101906100319190610310565b5f5b81518110156100c0576001604051806040016040528084848151811061005c5761005b610357565b5b602002602001015181526020015f815250908060018154018082558091505060019003905f5260205f2090600202015f909190919091505f820151815f0190816100a69190610591565b506020820151816001015550508080600101915050610033565b50600160025f6101000a81548160ff02191690831515021790555050610660565b5f604051905090565b5f80fd5b5f80fd5b5f80fd5b5f601f19601f8301169050919050565b7f4e487b71000000000000000000000000000000000000000000000000000000005f52604160045260245ffd5b61013c826100f6565b810181811067ffffffffffffffff8211171561015b5761015a610106565b5b80604052505050565b5f61016d6100e1565b90506101798282610133565b919050565b5f67ffffffffffffffff82111561019857610197610106565b5b602082029050602081019050919050565b5f80fd5b5f80fd5b5f67ffffffffffffffff8211156101cb576101ca610106565b5b6101d4826100f6565b9050602081019050919050565b8281835e5f83830152505050565b5f6102016101fc846101b1565b610164565b90508281526020810184848401111561021d5761021c6101ad565b5b6102288482856101e1565b509392505050565b5f82601f830112610244576102436100f2565b5b81516102548482602086016101ef565b91505092915050565b5f61026f61026a8461017e565b610164565b90508083825260208201905060208402830185811115610292576102916101a9565b5b835b818110156102d957805167ffffffffffffffff8111156102b7576102b66100f2565b5b8086016102c48982610230565b85526020850194505050602081019050610294565b5050509392505050565b5f82601f8301126102f7576102f66100f2565b5b815161030784826020860161025d565b91505092915050565b5f60208284031215610325576103246100ea565b5b5f82015167ffffffffffffffff811115610342576103416100ee565b5b61034e848285016102e3565b91505092915050565b7f4e487b71000000000000000000000000000000000000000000000000000000005f52603260045260245ffd5b5f81519050919050565b7f4e487b71000000000000000000000000000000000000000000000000000000005f52602260045260245ffd5b5f60028204905060018216806103d257607f821691505b6020821081036103e5576103e461038e565b5b50919050565b5f819050815f5260205f209050919050565b5f6020601f8301049050919050565b5f82821b905092915050565b5f600883026104477fffffffffffffffffffffffffffffffffffffffffffffffffffffffffffffffff8261040c565b610451868361040c565b95508019841693508086168417925050509392505050565b5f819050919050565b5f819050919050565b5f61049561049061048b84610469565b610472565b610469565b9050919050565b5f819050919050565b6104ae8361047b565b6104c26104ba8261049c565b848454610418565b825550505050565b5f90565b6104d66104ca565b6104e18184846104a5565b505050565b5b81811015610504576104f95f826104ce565b6001810190506104e7565b5050565b601f8211156105495761051a816103eb565b610523846103fd565b81016020851015610532578190505b61054661053e856103fd565b8301826104e6565b50505b505050565b5f82821c905092915050565b5f6105695f198460080261054e565b1980831691505092915050565b5f610581838361055a565b9150826002028217905092915050565b61059a82610384565b67ffffffffffffffff8111156105b3576105b2610106565b5b6105bd82546103bb565b6105c8828285610508565b5f60209050601f8311600181146105f9575f84156105e7578287015190505b6105f18582610576565b865550610658565b601f198416610607866103eb565b5f5b8281101561062e57848901518255600182019150602085019450602081019050610609565b8683101561064b5784890151610647601f89168261055a565b8355505b6001600288020188555050505b505050505050565b6109978061066d5f395ff3fe608060405234801561000f575f80fd5b5060043610610060575f3560e01c80630121b93f1461006457806309eef43e146100805780633477ee2e146100b05780638e7ea5b2146100e1578063a95824b4146100ff578063c631b2921461011d575b5f80fd5b61007e6004803603810190610079919061054e565b610127565b005b61009a600480360381019061009591906105d3565b6102f3565b6040516100a79190610618565b60405180910390f35b6100ca60048036038101906100c5919061054e565b61030f565b6040516100d89291906106b0565b60405180910390f35b6100e96103c4565b6040516100f691906106de565b60405180910390f35b6101076104ea565b6040516101149190610618565b60405180910390f35b6101256104fc565b005b60025f9054906101000a900460ff16610175576040517f08c379a000000000000000000000000000000000000000000000000000000000815260040161016c90610748565b60405180910390fd5b60018054905081106101bc576040517f08c379a00000000000000000000000000000000000000000000000000000000081526004016101b3906107b0565b60405180910390fd5b5f3373ffffffffffffffffffffffffffffffffffffffff166040516101e0906107fb565b5f604051808303815f865af19150503d805f8114610219576040519150601f19603f3d011682016040523d82523d5f602084013e61021e565b606091505b5050905080610262576040517f08c379a000000000000000000000000000000000000000000000000000000000815260040161025990610859565b60405180910390fd5b600180838154811061027757610276610877565b5b905f5260205f2090600202016001015f82825461029491906108d1565b9250508190555060015f803373ffffffffffffffffffffffffffffffffffffffff1673ffffffffffffffffffffffffffffffffffffffff1681526020019081526020015f205f6101000a81548160ff0219169083151502179055505050565b5f602052805f5260405f205f915054906101000a900460ff1681565b6001818154811061031e575f80fd5b905f5260205f2090600202015f91509050805f01805461033d90610931565b80601f016020809104026020016040519081016040528092919081815260200182805461036990610931565b80156103b45780601f1061038b576101008083540402835291602001916103b4565b820191905f5260205f20905b81548152906001019060200180831161039757829003601f168201915b5050505050908060010154905082565b60605f805f5b6001805490508110156104395782600182815481106103ec576103eb610877565b5b905f5260205f20906002020160010154111561042c576001818154811061041657610415610877565b5b905f5260205f2090600202016001015492508091505b80806001019150506103ca565b506001818154811061044e5761044d610877565b5b905f5260205f2090600202015f01805461046790610931565b80601f016020809104026020016040519081016040528092919081815260200182805461049390610931565b80156104de5780601f106104b5576101008083540402835291602001916104de565b820191905f5260205f20905b8154815290600101906020018083116104c157829003601f168201915b50505050509250505090565b60025f9054906101000a900460ff1681565b5f60025f6101000a81548160ff021916908315150217905550565b5f80fd5b5f819050919050565b61052d8161051b565b8114610537575f80fd5b50565b5f8135905061054881610524565b92915050565b5f6020828403121561056357610562610517565b5b5f6105708482850161053a565b91505092915050565b5f73ffffffffffffffffffffffffffffffffffffffff82169050919050565b5f6105a282610579565b9050919050565b6105b281610598565b81146105bc575f80fd5b50565b5f813590506105cd816105a9565b92915050565b5f602082840312156105e8576105e7610517565b5b5f6105f5848285016105bf565b91505092915050565b5f8115159050919050565b610612816105fe565b82525050565b5f60208201905061062b5f830184610609565b92915050565b5f81519050919050565b5f82825260208201905092915050565b8281835e5f83830152505050565b5f601f19601f8301169050919050565b5f61067382610631565b61067d818561063b565b935061068d81856020860161064b565b61069681610659565b840191505092915050565b6106aa8161051b565b82525050565b5f6040820190508181035f8301526106c88185610669565b90506106d760208301846106a1565b9392505050565b5f6020820190508181035f8301526106f68184610669565b905092915050565b7f566f74696e6720697320636c6f736564000000000000000000000000000000005f82015250565b5f61073260108361063b565b915061073d826106fe565b602082019050919050565b5f6020820190508181035f83015261075f81610726565b9050919050565b7f496e76616c69642063616e6469646174650000000000000000000000000000005f82015250565b5f61079a60118361063b565b91506107a582610766565b602082019050919050565b5f6020820190508181035f8301526107c78161078e565b9050919050565b5f81905092915050565b50565b5f6107e65f836107ce565b91506107f1826107d8565b5f82019050919050565b5f610805826107db565b9150819050919050565b7f45787465726e616c2063616c6c206661696c65640000000000000000000000005f82015250565b5f61084360148361063b565b915061084e8261080f565b602082019050919050565b5f6020820190508181035f83015261087081610837565b9050919050565b7f4e487b71000000000000000000000000000000000000000000000000000000005f52603260045260245ffd5b7f4e487b71000000000000000000000000000000000000000000000000000000005f52601160045260245ffd5b5f6108db8261051b565b91506108e68361051b565b92508282019050808211156108fe576108fd6108a4565b5b92915050565b7f4e487b71000000000000000000000000000000000000000000000000000000005f52602260045260245ffd5b5f600282049050600182168061094857607f821691505b60208210810361095b5761095a610904565b5b5091905056fea264697066735822122033fbd5b302fa5945c383024c3bd4ad9b25761dcb694fc830f18ed54844a1532764736f6c634300081a0033",
					"opcodes": "PUSH1 0x80 PUSH1 0x40 MSTORE CALLVALUE DUP1 ISZERO PUSH2 0xF JUMPI PUSH0 DUP1 REVERT JUMPDEST POP PUSH1 0x40 MLOAD PUSH2 0x1004 CODESIZE SUB DUP1 PUSH2 0x1004 DUP4 CODECOPY DUP2 DUP2 ADD PUSH1 0x40 MSTORE DUP2 ADD SWAP1 PUSH2 0x31 SWAP2 SWAP1 PUSH2 0x310 JUMP JUMPDEST PUSH0 JUMPDEST DUP2 MLOAD DUP2 LT ISZERO PUSH2 0xC0 JUMPI PUSH1 0x1 PUSH1 0x40 MLOAD DUP1 PUSH1 0x40 ADD PUSH1 0x40 MSTORE DUP1 DUP5 DUP5 DUP2 MLOAD DUP2 LT PUSH2 0x5C JUMPI PUSH2 0x5B PUSH2 0x357 JUMP JUMPDEST JUMPDEST PUSH1 0x20 MUL PUSH1 0x20 ADD ADD MLOAD DUP2 MSTORE PUSH1 0x20 ADD PUSH0 DUP2 MSTORE POP SWAP1 DUP1 PUSH1 0x1 DUP2 SLOAD ADD DUP1 DUP3 SSTORE DUP1 SWAP2 POP POP PUSH1 0x1 SWAP1 SUB SWAP1 PUSH0 MSTORE PUSH1 0x20 PUSH0 KECCAK256 SWAP1 PUSH1 0x2 MUL ADD PUSH0 SWAP1 SWAP2 SWAP1 SWAP2 SWAP1 SWAP2 POP PUSH0 DUP3 ADD MLOAD DUP2 PUSH0 ADD SWAP1 DUP2 PUSH2 0xA6 SWAP2 SWAP1 PUSH2 0x591 JUMP JUMPDEST POP PUSH1 0x20 DUP3 ADD MLOAD DUP2 PUSH1 0x1 ADD SSTORE POP POP DUP1 DUP1 PUSH1 0x1 ADD SWAP2 POP POP PUSH2 0x33 JUMP JUMPDEST POP PUSH1 0x1 PUSH1 0x2 PUSH0 PUSH2 0x100 EXP DUP2 SLOAD DUP2 PUSH1 0xFF MUL NOT AND SWAP1 DUP4 ISZERO ISZERO MUL OR SWAP1 SSTORE POP POP PUSH2 0x660 JUMP JUMPDEST PUSH0 PUSH1 0x40 MLOAD SWAP1 POP SWAP1 JUMP JUMPDEST PUSH0 DUP1 REVERT JUMPDEST PUSH0 DUP1 REVERT JUMPDEST PUSH0 DUP1 REVERT JUMPDEST PUSH0 PUSH1 0x1F NOT PUSH1 0x1F DUP4 ADD AND SWAP1 POP SWAP2 SWAP1 POP JUMP JUMPDEST PUSH32 0x4E487B7100000000000000000000000000000000000000000000000000000000 PUSH0 MSTORE PUSH1 0x41 PUSH1 0x4 MSTORE PUSH1 0x24 PUSH0 REVERT JUMPDEST PUSH2 0x13C DUP3 PUSH2 0xF6 JUMP JUMPDEST DUP2 ADD DUP2 DUP2 LT PUSH8 0xFFFFFFFFFFFFFFFF DUP3 GT OR ISZERO PUSH2 0x15B JUMPI PUSH2 0x15A PUSH2 0x106 JUMP JUMPDEST JUMPDEST DUP1 PUSH1 0x40 MSTORE POP POP POP JUMP JUMPDEST PUSH0 PUSH2 0x16D PUSH2 0xE1 JUMP JUMPDEST SWAP1 POP PUSH2 0x179 DUP3 DUP3 PUSH2 0x133 JUMP JUMPDEST SWAP2 SWAP1 POP JUMP JUMPDEST PUSH0 PUSH8 0xFFFFFFFFFFFFFFFF DUP3 GT ISZERO PUSH2 0x198 JUMPI PUSH2 0x197 PUSH2 0x106 JUMP JUMPDEST JUMPDEST PUSH1 0x20 DUP3 MUL SWAP1 POP PUSH1 0x20 DUP2 ADD SWAP1 POP SWAP2 SWAP1 POP JUMP JUMPDEST PUSH0 DUP1 REVERT JUMPDEST PUSH0 DUP1 REVERT JUMPDEST PUSH0 PUSH8 0xFFFFFFFFFFFFFFFF DUP3 GT ISZERO PUSH2 0x1CB JUMPI PUSH2 0x1CA PUSH2 0x106 JUMP JUMPDEST JUMPDEST PUSH2 0x1D4 DUP3 PUSH2 0xF6 JUMP JUMPDEST SWAP1 POP PUSH1 0x20 DUP2 ADD SWAP1 POP SWAP2 SWAP1 POP JUMP JUMPDEST DUP3 DUP2 DUP4 MCOPY PUSH0 DUP4 DUP4 ADD MSTORE POP POP POP JUMP JUMPDEST PUSH0 PUSH2 0x201 PUSH2 0x1FC DUP5 PUSH2 0x1B1 JUMP JUMPDEST PUSH2 0x164 JUMP JUMPDEST SWAP1 POP DUP3 DUP2 MSTORE PUSH1 0x20 DUP2 ADD DUP5 DUP5 DUP5 ADD GT ISZERO PUSH2 0x21D JUMPI PUSH2 0x21C PUSH2 0x1AD JUMP JUMPDEST JUMPDEST PUSH2 0x228 DUP5 DUP3 DUP6 PUSH2 0x1E1 JUMP JUMPDEST POP SWAP4 SWAP3 POP POP POP JUMP JUMPDEST PUSH0 DUP3 PUSH1 0x1F DUP4 ADD SLT PUSH2 0x244 JUMPI PUSH2 0x243 PUSH2 0xF2 JUMP JUMPDEST JUMPDEST DUP2 MLOAD PUSH2 0x254 DUP5 DUP3 PUSH1 0x20 DUP7 ADD PUSH2 0x1EF JUMP JUMPDEST SWAP2 POP POP SWAP3 SWAP2 POP POP JUMP JUMPDEST PUSH0 PUSH2 0x26F PUSH2 0x26A DUP5 PUSH2 0x17E JUMP JUMPDEST PUSH2 0x164 JUMP JUMPDEST SWAP1 POP DUP1 DUP4 DUP3 MSTORE PUSH1 0x20 DUP3 ADD SWAP1 POP PUSH1 0x20 DUP5 MUL DUP4 ADD DUP6 DUP2 GT ISZERO PUSH2 0x292 JUMPI PUSH2 0x291 PUSH2 0x1A9 JUMP JUMPDEST JUMPDEST DUP4 JUMPDEST DUP2 DUP2 LT ISZERO PUSH2 0x2D9 JUMPI DUP1 MLOAD PUSH8 0xFFFFFFFFFFFFFFFF DUP2 GT ISZERO PUSH2 0x2B7 JUMPI PUSH2 0x2B6 PUSH2 0xF2 JUMP JUMPDEST JUMPDEST DUP1 DUP7 ADD PUSH2 0x2C4 DUP10 DUP3 PUSH2 0x230 JUMP JUMPDEST DUP6 MSTORE PUSH1 0x20 DUP6 ADD SWAP5 POP POP POP PUSH1 0x20 DUP2 ADD SWAP1 POP PUSH2 0x294 JUMP JUMPDEST POP POP POP SWAP4 SWAP3 POP POP POP JUMP JUMPDEST PUSH0 DUP3 PUSH1 0x1F DUP4 ADD SLT PUSH2 0x2F7 JUMPI PUSH2 0x2F6 PUSH2 0xF2 JUMP JUMPDEST JUMPDEST DUP2 MLOAD PUSH2 0x307 DUP5 DUP3 PUSH1 0x20 DUP7 ADD PUSH2 0x25D JUMP JUMPDEST SWAP2 POP POP SWAP3 SWAP2 POP POP JUMP JUMPDEST PUSH0 PUSH1 0x20 DUP3 DUP5 SUB SLT ISZERO PUSH2 0x325 JUMPI PUSH2 0x324 PUSH2 0xEA JUMP JUMPDEST JUMPDEST PUSH0 DUP3 ADD MLOAD PUSH8 0xFFFFFFFFFFFFFFFF DUP2 GT ISZERO PUSH2 0x342 JUMPI PUSH2 0x341 PUSH2 0xEE JUMP JUMPDEST JUMPDEST PUSH2 0x34E DUP5 DUP3 DUP6 ADD PUSH2 0x2E3 JUMP JUMPDEST SWAP2 POP POP SWAP3 SWAP2 POP POP JUMP JUMPDEST PUSH32 0x4E487B7100000000000000000000000000000000000000000000000000000000 PUSH0 MSTORE PUSH1 0x32 PUSH1 0x4 MSTORE PUSH1 0x24 PUSH0 REVERT JUMPDEST PUSH0 DUP2 MLOAD SWAP1 POP SWAP2 SWAP1 POP JUMP JUMPDEST PUSH32 0x4E487B7100000000000000000000000000000000000000000000000000000000 PUSH0 MSTORE PUSH1 0x22 PUSH1 0x4 MSTORE PUSH1 0x24 PUSH0 REVERT JUMPDEST PUSH0 PUSH1 0x2 DUP3 DIV SWAP1 POP PUSH1 0x1 DUP3 AND DUP1 PUSH2 0x3D2 JUMPI PUSH1 0x7F DUP3 AND SWAP2 POP JUMPDEST PUSH1 0x20 DUP3 LT DUP2 SUB PUSH2 0x3E5 JUMPI PUSH2 0x3E4 PUSH2 0x38E JUMP JUMPDEST JUMPDEST POP SWAP2 SWAP1 POP JUMP JUMPDEST PUSH0 DUP2 SWAP1 POP DUP2 PUSH0 MSTORE PUSH1 0x20 PUSH0 KECCAK256 SWAP1 POP SWAP2 SWAP1 POP JUMP JUMPDEST PUSH0 PUSH1 0x20 PUSH1 0x1F DUP4 ADD DIV SWAP1 POP SWAP2 SWAP1 POP JUMP JUMPDEST PUSH0 DUP3 DUP3 SHL SWAP1 POP SWAP3 SWAP2 POP POP JUMP JUMPDEST PUSH0 PUSH1 0x8 DUP4 MUL PUSH2 0x447 PUSH32 0xFFFFFFFFFFFFFFFFFFFFFFFFFFFFFFFFFFFFFFFFFFFFFFFFFFFFFFFFFFFFFFFF DUP3 PUSH2 0x40C JUMP JUMPDEST PUSH2 0x451 DUP7 DUP4 PUSH2 0x40C JUMP JUMPDEST SWAP6 POP DUP1 NOT DUP5 AND SWAP4 POP DUP1 DUP7 AND DUP5 OR SWAP3 POP POP POP SWAP4 SWAP3 POP POP POP JUMP JUMPDEST PUSH0 DUP2 SWAP1 POP SWAP2 SWAP1 POP JUMP JUMPDEST PUSH0 DUP2 SWAP1 POP SWAP2 SWAP1 POP JUMP JUMPDEST PUSH0 PUSH2 0x495 PUSH2 0x490 PUSH2 0x48B DUP5 PUSH2 0x469 JUMP JUMPDEST PUSH2 0x472 JUMP JUMPDEST PUSH2 0x469 JUMP JUMPDEST SWAP1 POP SWAP2 SWAP1 POP JUMP JUMPDEST PUSH0 DUP2 SWAP1 POP SWAP2 SWAP1 POP JUMP JUMPDEST PUSH2 0x4AE DUP4 PUSH2 0x47B JUMP JUMPDEST PUSH2 0x4C2 PUSH2 0x4BA DUP3 PUSH2 0x49C JUMP JUMPDEST DUP5 DUP5 SLOAD PUSH2 0x418 JUMP JUMPDEST DUP3 SSTORE POP POP POP POP JUMP JUMPDEST PUSH0 SWAP1 JUMP JUMPDEST PUSH2 0x4D6 PUSH2 0x4CA JUMP JUMPDEST PUSH2 0x4E1 DUP2 DUP5 DUP5 PUSH2 0x4A5 JUMP JUMPDEST POP POP POP JUMP JUMPDEST JUMPDEST DUP2 DUP2 LT ISZERO PUSH2 0x504 JUMPI PUSH2 0x4F9 PUSH0 DUP3 PUSH2 0x4CE JUMP JUMPDEST PUSH1 0x1 DUP2 ADD SWAP1 POP PUSH2 0x4E7 JUMP JUMPDEST POP POP JUMP JUMPDEST PUSH1 0x1F DUP3 GT ISZERO PUSH2 0x549 JUMPI PUSH2 0x51A DUP2 PUSH2 0x3EB JUMP JUMPDEST PUSH2 0x523 DUP5 PUSH2 0x3FD JUMP JUMPDEST DUP2 ADD PUSH1 0x20 DUP6 LT ISZERO PUSH2 0x532 JUMPI DUP2 SWAP1 POP JUMPDEST PUSH2 0x546 PUSH2 0x53E DUP6 PUSH2 0x3FD JUMP JUMPDEST DUP4 ADD DUP3 PUSH2 0x4E6 JUMP JUMPDEST POP POP JUMPDEST POP POP POP JUMP JUMPDEST PUSH0 DUP3 DUP3 SHR SWAP1 POP SWAP3 SWAP2 POP POP JUMP JUMPDEST PUSH0 PUSH2 0x569 PUSH0 NOT DUP5 PUSH1 0x8 MUL PUSH2 0x54E JUMP JUMPDEST NOT DUP1 DUP4 AND SWAP2 POP POP SWAP3 SWAP2 POP POP JUMP JUMPDEST PUSH0 PUSH2 0x581 DUP4 DUP4 PUSH2 0x55A JUMP JUMPDEST SWAP2 POP DUP3 PUSH1 0x2 MUL DUP3 OR SWAP1 POP SWAP3 SWAP2 POP POP JUMP JUMPDEST PUSH2 0x59A DUP3 PUSH2 0x384 JUMP JUMPDEST PUSH8 0xFFFFFFFFFFFFFFFF DUP2 GT ISZERO PUSH2 0x5B3 JUMPI PUSH2 0x5B2 PUSH2 0x106 JUMP JUMPDEST JUMPDEST PUSH2 0x5BD DUP3 SLOAD PUSH2 0x3BB JUMP JUMPDEST PUSH2 0x5C8 DUP3 DUP3 DUP6 PUSH2 0x508 JUMP JUMPDEST PUSH0 PUSH1 0x20 SWAP1 POP PUSH1 0x1F DUP4 GT PUSH1 0x1 DUP2 EQ PUSH2 0x5F9 JUMPI PUSH0 DUP5 ISZERO PUSH2 0x5E7 JUMPI DUP3 DUP8 ADD MLOAD SWAP1 POP JUMPDEST PUSH2 0x5F1 DUP6 DUP3 PUSH2 0x576 JUMP JUMPDEST DUP7 SSTORE POP PUSH2 0x658 JUMP JUMPDEST PUSH1 0x1F NOT DUP5 AND PUSH2 0x607 DUP7 PUSH2 0x3EB JUMP JUMPDEST PUSH0 JUMPDEST DUP3 DUP2 LT ISZERO PUSH2 0x62E JUMPI DUP5 DUP10 ADD MLOAD DUP3 SSTORE PUSH1 0x1 DUP3 ADD SWAP2 POP PUSH1 0x20 DUP6 ADD SWAP5 POP PUSH1 0x20 DUP2 ADD SWAP1 POP PUSH2 0x609 JUMP JUMPDEST DUP7 DUP4 LT ISZERO PUSH2 0x64B JUMPI DUP5 DUP10 ADD MLOAD PUSH2 0x647 PUSH1 0x1F DUP10 AND DUP3 PUSH2 0x55A JUMP JUMPDEST DUP4 SSTORE POP JUMPDEST PUSH1 0x1 PUSH1 0x2 DUP9 MUL ADD DUP9 SSTORE POP POP POP JUMPDEST POP POP POP POP POP POP JUMP JUMPDEST PUSH2 0x997 DUP1 PUSH2 0x66D PUSH0 CODECOPY PUSH0 RETURN INVALID PUSH1 0x80 PUSH1 0x40 MSTORE CALLVALUE DUP1 ISZERO PUSH2 0xF JUMPI PUSH0 DUP1 REVERT JUMPDEST POP PUSH1 0x4 CALLDATASIZE LT PUSH2 0x60 JUMPI PUSH0 CALLDATALOAD PUSH1 0xE0 SHR DUP1 PUSH4 0x121B93F EQ PUSH2 0x64 JUMPI DUP1 PUSH4 0x9EEF43E EQ PUSH2 0x80 JUMPI DUP1 PUSH4 0x3477EE2E EQ PUSH2 0xB0 JUMPI DUP1 PUSH4 0x8E7EA5B2 EQ PUSH2 0xE1 JUMPI DUP1 PUSH4 0xA95824B4 EQ PUSH2 0xFF JUMPI DUP1 PUSH4 0xC631B292 EQ PUSH2 0x11D JUMPI JUMPDEST PUSH0 DUP1 REVERT JUMPDEST PUSH2 0x7E PUSH1 0x4 DUP1 CALLDATASIZE SUB DUP2 ADD SWAP1 PUSH2 0x79 SWAP2 SWAP1 PUSH2 0x54E JUMP JUMPDEST PUSH2 0x127 JUMP JUMPDEST STOP JUMPDEST PUSH2 0x9A PUSH1 0x4 DUP1 CALLDATASIZE SUB DUP2 ADD SWAP1 PUSH2 0x95 SWAP2 SWAP1 PUSH2 0x5D3 JUMP JUMPDEST PUSH2 0x2F3 JUMP JUMPDEST PUSH1 0x40 MLOAD PUSH2 0xA7 SWAP2 SWAP1 PUSH2 0x618 JUMP JUMPDEST PUSH1 0x40 MLOAD DUP1 SWAP2 SUB SWAP1 RETURN JUMPDEST PUSH2 0xCA PUSH1 0x4 DUP1 CALLDATASIZE SUB DUP2 ADD SWAP1 PUSH2 0xC5 SWAP2 SWAP1 PUSH2 0x54E JUMP JUMPDEST PUSH2 0x30F JUMP JUMPDEST PUSH1 0x40 MLOAD PUSH2 0xD8 SWAP3 SWAP2 SWAP1 PUSH2 0x6B0 JUMP JUMPDEST PUSH1 0x40 MLOAD DUP1 SWAP2 SUB SWAP1 RETURN JUMPDEST PUSH2 0xE9 PUSH2 0x3C4 JUMP JUMPDEST PUSH1 0x40 MLOAD PUSH2 0xF6 SWAP2 SWAP1 PUSH2 0x6DE JUMP JUMPDEST PUSH1 0x40 MLOAD DUP1 SWAP2 SUB SWAP1 RETURN JUMPDEST PUSH2 0x107 PUSH2 0x4EA JUMP JUMPDEST PUSH1 0x40 MLOAD PUSH2 0x114 SWAP2 SWAP1 PUSH2 0x618 JUMP JUMPDEST PUSH1 0x40 MLOAD DUP1 SWAP2 SUB SWAP1 RETURN JUMPDEST PUSH2 0x125 PUSH2 0x4FC JUMP JUMPDEST STOP JUMPDEST PUSH1 0x2 PUSH0 SWAP1 SLOAD SWAP1 PUSH2 0x100 EXP SWAP1 DIV PUSH1 0xFF AND PUSH2 0x175 JUMPI PUSH1 0x40 MLOAD PUSH32 0x8C379A000000000000000000000000000000000000000000000000000000000 DUP2 MSTORE PUSH1 0x4 ADD PUSH2 0x16C SWAP1 PUSH2 0x748 JUMP JUMPDEST PUSH1 0x40 MLOAD DUP1 SWAP2 SUB SWAP1 REVERT JUMPDEST PUSH1 0x1 DUP1 SLOAD SWAP1 POP DUP2 LT PUSH2 0x1BC JUMPI PUSH1 0x40 MLOAD PUSH32 0x8C379A000000000000000000000000000000000000000000000000000000000 DUP2 MSTORE PUSH1 0x4 ADD PUSH2 0x1B3 SWAP1 PUSH2 0x7B0 JUMP JUMPDEST PUSH1 0x40 MLOAD DUP1 SWAP2 SUB SWAP1 REVERT JUMPDEST PUSH0 CALLER PUSH20 0xFFFFFFFFFFFFFFFFFFFFFFFFFFFFFFFFFFFFFFFF AND PUSH1 0x40 MLOAD PUSH2 0x1E0 SWAP1 PUSH2 0x7FB JUMP JUMPDEST PUSH0 PUSH1 0x40 MLOAD DUP1 DUP4 SUB DUP2 PUSH0 DUP7 GAS CALL SWAP2 POP POP RETURNDATASIZE DUP1 PUSH0 DUP2 EQ PUSH2 0x219 JUMPI PUSH1 0x40 MLOAD SWAP2 POP PUSH1 0x1F NOT PUSH1 0x3F RETURNDATASIZE ADD AND DUP3 ADD PUSH1 0x40 MSTORE RETURNDATASIZE DUP3 MSTORE RETURNDATASIZE PUSH0 PUSH1 0x20 DUP5 ADD RETURNDATACOPY PUSH2 0x21E JUMP JUMPDEST PUSH1 0x60 SWAP2 POP JUMPDEST POP POP SWAP1 POP DUP1 PUSH2 0x262 JUMPI PUSH1 0x40 MLOAD PUSH32 0x8C379A000000000000000000000000000000000000000000000000000000000 DUP2 MSTORE PUSH1 0x4 ADD PUSH2 0x259 SWAP1 PUSH2 0x859 JUMP JUMPDEST PUSH1 0x40 MLOAD DUP1 SWAP2 SUB SWAP1 REVERT JUMPDEST PUSH1 0x1 DUP1 DUP4 DUP2 SLOAD DUP2 LT PUSH2 0x277 JUMPI PUSH2 0x276 PUSH2 0x877 JUMP JUMPDEST JUMPDEST SWAP1 PUSH0 MSTORE PUSH1 0x20 PUSH0 KECCAK256 SWAP1 PUSH1 0x2 MUL ADD PUSH1 0x1 ADD PUSH0 DUP3 DUP3 SLOAD PUSH2 0x294 SWAP2 SWAP1 PUSH2 0x8D1 JUMP JUMPDEST SWAP3 POP POP DUP2 SWAP1 SSTORE POP PUSH1 0x1 PUSH0 DUP1 CALLER PUSH20 0xFFFFFFFFFFFFFFFFFFFFFFFFFFFFFFFFFFFFFFFF AND PUSH20 0xFFFFFFFFFFFFFFFFFFFFFFFFFFFFFFFFFFFFFFFF AND DUP2 MSTORE PUSH1 0x20 ADD SWAP1 DUP2 MSTORE PUSH1 0x20 ADD PUSH0 KECCAK256 PUSH0 PUSH2 0x100 EXP DUP2 SLOAD DUP2 PUSH1 0xFF MUL NOT AND SWAP1 DUP4 ISZERO ISZERO MUL OR SWAP1 SSTORE POP POP POP JUMP JUMPDEST PUSH0 PUSH1 0x20 MSTORE DUP1 PUSH0 MSTORE PUSH1 0x40 PUSH0 KECCAK256 PUSH0 SWAP2 POP SLOAD SWAP1 PUSH2 0x100 EXP SWAP1 DIV PUSH1 0xFF AND DUP2 JUMP JUMPDEST PUSH1 0x1 DUP2 DUP2 SLOAD DUP2 LT PUSH2 0x31E JUMPI PUSH0 DUP1 REVERT JUMPDEST SWAP1 PUSH0 MSTORE PUSH1 0x20 PUSH0 KECCAK256 SWAP1 PUSH1 0x2 MUL ADD PUSH0 SWAP2 POP SWAP1 POP DUP1 PUSH0 ADD DUP1 SLOAD PUSH2 0x33D SWAP1 PUSH2 0x931 JUMP JUMPDEST DUP1 PUSH1 0x1F ADD PUSH1 0x20 DUP1 SWAP2 DIV MUL PUSH1 0x20 ADD PUSH1 0x40 MLOAD SWAP1 DUP2 ADD PUSH1 0x40 MSTORE DUP1 SWAP3 SWAP2 SWAP1 DUP2 DUP2 MSTORE PUSH1 0x20 ADD DUP3 DUP1 SLOAD PUSH2 0x369 SWAP1 PUSH2 0x931 JUMP JUMPDEST DUP1 ISZERO PUSH2 0x3B4 JUMPI DUP1 PUSH1 0x1F LT PUSH2 0x38B JUMPI PUSH2 0x100 DUP1 DUP4 SLOAD DIV MUL DUP4 MSTORE SWAP2 PUSH1 0x20 ADD SWAP2 PUSH2 0x3B4 JUMP JUMPDEST DUP3 ADD SWAP2 SWAP1 PUSH0 MSTORE PUSH1 0x20 PUSH0 KECCAK256 SWAP1 JUMPDEST DUP2 SLOAD DUP2 MSTORE SWAP1 PUSH1 0x1 ADD SWAP1 PUSH1 0x20 ADD DUP1 DUP4 GT PUSH2 0x397 JUMPI DUP3 SWAP1 SUB PUSH1 0x1F AND DUP3 ADD SWAP2 JUMPDEST POP POP POP POP POP SWAP1 DUP1 PUSH1 0x1 ADD SLOAD SWAP1 POP DUP3 JUMP JUMPDEST PUSH1 0x60 PUSH0 DUP1 PUSH0 JUMPDEST PUSH1 0x1 DUP1 SLOAD SWAP1 POP DUP2 LT ISZERO PUSH2 0x439 JUMPI DUP3 PUSH1 0x1 DUP3 DUP2 SLOAD DUP2 LT PUSH2 0x3EC JUMPI PUSH2 0x3EB PUSH2 0x877 JUMP JUMPDEST JUMPDEST SWAP1 PUSH0 MSTORE PUSH1 0x20 PUSH0 KECCAK256 SWAP1 PUSH1 0x2 MUL ADD PUSH1 0x1 ADD SLOAD GT ISZERO PUSH2 0x42C JUMPI PUSH1 0x1 DUP2 DUP2 SLOAD DUP2 LT PUSH2 0x416 JUMPI PUSH2 0x415 PUSH2 0x877 JUMP JUMPDEST JUMPDEST SWAP1 PUSH0 MSTORE PUSH1 0x20 PUSH0 KECCAK256 SWAP1 PUSH1 0x2 MUL ADD PUSH1 0x1 ADD SLOAD SWAP3 POP DUP1 SWAP2 POP JUMPDEST DUP1 DUP1 PUSH1 0x1 ADD SWAP2 POP POP PUSH2 0x3CA JUMP JUMPDEST POP PUSH1 0x1 DUP2 DUP2 SLOAD DUP2 LT PUSH2 0x44E JUMPI PUSH2 0x44D PUSH2 0x877 JUMP JUMPDEST JUMPDEST SWAP1 PUSH0 MSTORE PUSH1 0x20 PUSH0 KECCAK256 SWAP1 PUSH1 0x2 MUL ADD PUSH0 ADD DUP1 SLOAD PUSH2 0x467 SWAP1 PUSH2 0x931 JUMP JUMPDEST DUP1 PUSH1 0x1F ADD PUSH1 0x20 DUP1 SWAP2 DIV MUL PUSH1 0x20 ADD PUSH1 0x40 MLOAD SWAP1 DUP2 ADD PUSH1 0x40 MSTORE DUP1 SWAP3 SWAP2 SWAP1 DUP2 DUP2 MSTORE PUSH1 0x20 ADD DUP3 DUP1 SLOAD PUSH2 0x493 SWAP1 PUSH2 0x931 JUMP JUMPDEST DUP1 ISZERO PUSH2 0x4DE JUMPI DUP1 PUSH1 0x1F LT PUSH2 0x4B5 JUMPI PUSH2 0x100 DUP1 DUP4 SLOAD DIV MUL DUP4 MSTORE SWAP2 PUSH1 0x20 ADD SWAP2 PUSH2 0x4DE JUMP JUMPDEST DUP3 ADD SWAP2 SWAP1 PUSH0 MSTORE PUSH1 0x20 PUSH0 KECCAK256 SWAP1 JUMPDEST DUP2 SLOAD DUP2 MSTORE SWAP1 PUSH1 0x1 ADD SWAP1 PUSH1 0x20 ADD DUP1 DUP4 GT PUSH2 0x4C1 JUMPI DUP3 SWAP1 SUB PUSH1 0x1F AND DUP3 ADD SWAP2 JUMPDEST POP POP POP POP POP SWAP3 POP POP POP SWAP1 JUMP JUMPDEST PUSH1 0x2 PUSH0 SWAP1 SLOAD SWAP1 PUSH2 0x100 EXP SWAP1 DIV PUSH1 0xFF AND DUP2 JUMP JUMPDEST PUSH0 PUSH1 0x2 PUSH0 PUSH2 0x100 EXP DUP2 SLOAD DUP2 PUSH1 0xFF MUL NOT AND SWAP1 DUP4 ISZERO ISZERO MUL OR SWAP1 SSTORE POP JUMP JUMPDEST PUSH0 DUP1 REVERT JUMPDEST PUSH0 DUP2 SWAP1 POP SWAP2 SWAP1 POP JUMP JUMPDEST PUSH2 0x52D DUP2 PUSH2 0x51B JUMP JUMPDEST DUP2 EQ PUSH2 0x537 JUMPI PUSH0 DUP1 REVERT JUMPDEST POP JUMP JUMPDEST PUSH0 DUP2 CALLDATALOAD SWAP1 POP PUSH2 0x548 DUP2 PUSH2 0x524 JUMP JUMPDEST SWAP3 SWAP2 POP POP JUMP JUMPDEST PUSH0 PUSH1 0x20 DUP3 DUP5 SUB SLT ISZERO PUSH2 0x563 JUMPI PUSH2 0x562 PUSH2 0x517 JUMP JUMPDEST JUMPDEST PUSH0 PUSH2 0x570 DUP5 DUP3 DUP6 ADD PUSH2 0x53A JUMP JUMPDEST SWAP2 POP POP SWAP3 SWAP2 POP POP JUMP JUMPDEST PUSH0 PUSH20 0xFFFFFFFFFFFFFFFFFFFFFFFFFFFFFFFFFFFFFFFF DUP3 AND SWAP1 POP SWAP2 SWAP1 POP JUMP JUMPDEST PUSH0 PUSH2 0x5A2 DUP3 PUSH2 0x579 JUMP JUMPDEST SWAP1 POP SWAP2 SWAP1 POP JUMP JUMPDEST PUSH2 0x5B2 DUP2 PUSH2 0x598 JUMP JUMPDEST DUP2 EQ PUSH2 0x5BC JUMPI PUSH0 DUP1 REVERT JUMPDEST POP JUMP JUMPDEST PUSH0 DUP2 CALLDATALOAD SWAP1 POP PUSH2 0x5CD DUP2 PUSH2 0x5A9 JUMP JUMPDEST SWAP3 SWAP2 POP POP JUMP JUMPDEST PUSH0 PUSH1 0x20 DUP3 DUP5 SUB SLT ISZERO PUSH2 0x5E8 JUMPI PUSH2 0x5E7 PUSH2 0x517 JUMP JUMPDEST JUMPDEST PUSH0 PUSH2 0x5F5 DUP5 DUP3 DUP6 ADD PUSH2 0x5BF JUMP JUMPDEST SWAP2 POP POP SWAP3 SWAP2 POP POP JUMP JUMPDEST PUSH0 DUP2 ISZERO ISZERO SWAP1 POP SWAP2 SWAP1 POP JUMP JUMPDEST PUSH2 0x612 DUP2 PUSH2 0x5FE JUMP JUMPDEST DUP3 MSTORE POP POP JUMP JUMPDEST PUSH0 PUSH1 0x20 DUP3 ADD SWAP1 POP PUSH2 0x62B PUSH0 DUP4 ADD DUP5 PUSH2 0x609 JUMP JUMPDEST SWAP3 SWAP2 POP POP JUMP JUMPDEST PUSH0 DUP2 MLOAD SWAP1 POP SWAP2 SWAP1 POP JUMP JUMPDEST PUSH0 DUP3 DUP3 MSTORE PUSH1 0x20 DUP3 ADD SWAP1 POP SWAP3 SWAP2 POP POP JUMP JUMPDEST DUP3 DUP2 DUP4 MCOPY PUSH0 DUP4 DUP4 ADD MSTORE POP POP POP JUMP JUMPDEST PUSH0 PUSH1 0x1F NOT PUSH1 0x1F DUP4 ADD AND SWAP1 POP SWAP2 SWAP1 POP JUMP JUMPDEST PUSH0 PUSH2 0x673 DUP3 PUSH2 0x631 JUMP JUMPDEST PUSH2 0x67D DUP2 DUP6 PUSH2 0x63B JUMP JUMPDEST SWAP4 POP PUSH2 0x68D DUP2 DUP6 PUSH1 0x20 DUP7 ADD PUSH2 0x64B JUMP JUMPDEST PUSH2 0x696 DUP2 PUSH2 0x659 JUMP JUMPDEST DUP5 ADD SWAP2 POP POP SWAP3 SWAP2 POP POP JUMP JUMPDEST PUSH2 0x6AA DUP2 PUSH2 0x51B JUMP JUMPDEST DUP3 MSTORE POP POP JUMP JUMPDEST PUSH0 PUSH1 0x40 DUP3 ADD SWAP1 POP DUP2 DUP2 SUB PUSH0 DUP4 ADD MSTORE PUSH2 0x6C8 DUP2 DUP6 PUSH2 0x669 JUMP JUMPDEST SWAP1 POP PUSH2 0x6D7 PUSH1 0x20 DUP4 ADD DUP5 PUSH2 0x6A1 JUMP JUMPDEST SWAP4 SWAP3 POP POP POP JUMP JUMPDEST PUSH0 PUSH1 0x20 DUP3 ADD SWAP1 POP DUP2 DUP2 SUB PUSH0 DUP4 ADD MSTORE PUSH2 0x6F6 DUP2 DUP5 PUSH2 0x669 JUMP JUMPDEST SWAP1 POP SWAP3 SWAP2 POP POP JUMP JUMPDEST PUSH32 0x566F74696E6720697320636C6F73656400000000000000000000000000000000 PUSH0 DUP3 ADD MSTORE POP JUMP JUMPDEST PUSH0 PUSH2 0x732 PUSH1 0x10 DUP4 PUSH2 0x63B JUMP JUMPDEST SWAP2 POP PUSH2 0x73D DUP3 PUSH2 0x6FE JUMP JUMPDEST PUSH1 0x20 DUP3 ADD SWAP1 POP SWAP2 SWAP1 POP JUMP JUMPDEST PUSH0 PUSH1 0x20 DUP3 ADD SWAP1 POP DUP2 DUP2 SUB PUSH0 DUP4 ADD MSTORE PUSH2 0x75F DUP2 PUSH2 0x726 JUMP JUMPDEST SWAP1 POP SWAP2 SWAP1 POP JUMP JUMPDEST PUSH32 0x496E76616C69642063616E646964617465000000000000000000000000000000 PUSH0 DUP3 ADD MSTORE POP JUMP JUMPDEST PUSH0 PUSH2 0x79A PUSH1 0x11 DUP4 PUSH2 0x63B JUMP JUMPDEST SWAP2 POP PUSH2 0x7A5 DUP3 PUSH2 0x766 JUMP JUMPDEST PUSH1 0x20 DUP3 ADD SWAP1 POP SWAP2 SWAP1 POP JUMP JUMPDEST PUSH0 PUSH1 0x20 DUP3 ADD SWAP1 POP DUP2 DUP2 SUB PUSH0 DUP4 ADD MSTORE PUSH2 0x7C7 DUP2 PUSH2 0x78E JUMP JUMPDEST SWAP1 POP SWAP2 SWAP1 POP JUMP JUMPDEST PUSH0 DUP2 SWAP1 POP SWAP3 SWAP2 POP POP JUMP JUMPDEST POP JUMP JUMPDEST PUSH0 PUSH2 0x7E6 PUSH0 DUP4 PUSH2 0x7CE JUMP JUMPDEST SWAP2 POP PUSH2 0x7F1 DUP3 PUSH2 0x7D8 JUMP JUMPDEST PUSH0 DUP3 ADD SWAP1 POP SWAP2 SWAP1 POP JUMP JUMPDEST PUSH0 PUSH2 0x805 DUP3 PUSH2 0x7DB JUMP JUMPDEST SWAP2 POP DUP2 SWAP1 POP SWAP2 SWAP1 POP JUMP JUMPDEST PUSH32 0x45787465726E616C2063616C6C206661696C6564000000000000000000000000 PUSH0 DUP3 ADD MSTORE POP JUMP JUMPDEST PUSH0 PUSH2 0x843 PUSH1 0x14 DUP4 PUSH2 0x63B JUMP JUMPDEST SWAP2 POP PUSH2 0x84E DUP3 PUSH2 0x80F JUMP JUMPDEST PUSH1 0x20 DUP3 ADD SWAP1 POP SWAP2 SWAP1 POP JUMP JUMPDEST PUSH0 PUSH1 0x20 DUP3 ADD SWAP1 POP DUP2 DUP2 SUB PUSH0 DUP4 ADD MSTORE PUSH2 0x870 DUP2 PUSH2 0x837 JUMP JUMPDEST SWAP1 POP SWAP2 SWAP1 POP JUMP JUMPDEST PUSH32 0x4E487B7100000000000000000000000000000000000000000000000000000000 PUSH0 MSTORE PUSH1 0x32 PUSH1 0x4 MSTORE PUSH1 0x24 PUSH0 REVERT JUMPDEST PUSH32 0x4E487B7100000000000000000000000000000000000000000000000000000000 PUSH0 MSTORE PUSH1 0x11 PUSH1 0x4 MSTORE PUSH1 0x24 PUSH0 REVERT JUMPDEST PUSH0 PUSH2 0x8DB DUP3 PUSH2 0x51B JUMP JUMPDEST SWAP2 POP PUSH2 0x8E6 DUP4 PUSH2 0x51B JUMP JUMPDEST SWAP3 POP DUP3 DUP3 ADD SWAP1 POP DUP1 DUP3 GT ISZERO PUSH2 0x8FE JUMPI PUSH2 0x8FD PUSH2 0x8A4 JUMP JUMPDEST JUMPDEST SWAP3 SWAP2 POP POP JUMP JUMPDEST PUSH32 0x4E487B7100000000000000000000000000000000000000000000000000000000 PUSH0 MSTORE PUSH1 0x22 PUSH1 0x4 MSTORE PUSH1 0x24 PUSH0 REVERT JUMPDEST PUSH0 PUSH1 0x2 DUP3 DIV SWAP1 POP PUSH1 0x1 DUP3 AND DUP1 PUSH2 0x948 JUMPI PUSH1 0x7F DUP3 AND SWAP2 POP JUMPDEST PUSH1 0x20 DUP3 LT DUP2 SUB PUSH2 0x95B JUMPI PUSH2 0x95A PUSH2 0x904 JUMP JUMPDEST JUMPDEST POP SWAP2 SWAP1 POP JUMP INVALID LOG2 PUSH5 0x6970667358 0x22 SLT KECCAK256 CALLER 0xFB 0xD5 0xB3 MUL STATICCALL MSIZE GASLIMIT 0xC3 DUP4 MUL 0x4C EXTCODESIZE 0xD4 0xAD SWAP12 0x25 PUSH23 0x1DCB694FC830F18ED54844A1532764736F6C634300081A STOP CALLER "
				},
				"gasEstimates": {
					"creation": {
						"codeDepositCost": "491000",
						"executionCost": "infinite",
						"totalCost": "infinite"
					},
					"external": {
						"candidates(uint256)": "infinite",
						"closeVoting()": "24496",
						"getWinner()": "infinite",
						"hasVoted(address)": "2832",
						"vote(uint256)": "infinite",
						"votingOpen()": "2532"
					}
				},
				"methodIdentifiers": {
					"candidates(uint256)": "3477ee2e",
					"closeVoting()": "c631b292",
					"getWinner()": "8e7ea5b2",
					"hasVoted(address)": "09eef43e",
					"vote(uint256)": "0121b93f",
					"votingOpen()": "a95824b4"
				}
			},
			"storageLayout": {
				"storage": [
					{
						"astId": 10,
						"contract": "VulnerableVoting.sol:VulnerableVoting",
						"label": "hasVoted",
						"offset": 0,
						"slot": "0",
						"type": "t_mapping(t_address,t_bool)"
					},
					{
						"astId": 14,
						"contract": "VulnerableVoting.sol:VulnerableVoting",
						"label": "candidates",
						"offset": 0,
						"slot": "1",
						"type": "t_array(t_struct(Candidate)6_storage)dyn_storage"
					},
					{
						"astId": 16,
						"contract": "VulnerableVoting.sol:VulnerableVoting",
						"label": "votingOpen",
						"offset": 0,
						"slot": "2",
						"type": "t_bool"
					}
				],
				"types": {
					"t_address": {
						"encoding": "inplace",
						"label": "address",
						"numberOfBytes": "20"
					},
					"t_array(t_struct(Candidate)6_storage)dyn_storage": {
						"base": "t_struct(Candidate)6_storage",
						"encoding": "dynamic_array",
						"label": "struct VulnerableVoting.Candidate[]",
						"numberOfBytes": "32"
					},
					"t_bool": {
						"encoding": "inplace",
						"label": "bool",
						"numberOfBytes": "1"
					},
					"t_mapping(t_address,t_bool)": {
						"encoding": "mapping",
						"key": "t_address",
						"label": "mapping(address => bool)",
						"numberOfBytes": "32",
						"value": "t_bool"
					},
					"t_string_storage": {
						"encoding": "bytes",
						"label": "string",
						"numberOfBytes": "32"
					},
					"t_struct(Candidate)6_storage": {
						"encoding": "inplace",
						"label": "struct VulnerableVoting.Candidate",
						"members": [
							{
								"astId": 3,
								"contract": "VulnerableVoting.sol:VulnerableVoting",
								"label": "name",
								"offset": 0,
								"slot": "0",
								"type": "t_string_storage"
							},
							{
								"astId": 5,
								"contract": "VulnerableVoting.sol:VulnerableVoting",
								"label": "voteCount",
								"offset": 0,
								"slot": "1",
								"type": "t_uint256"
							}
						],
						"numberOfBytes": "64"
					},
					"t_uint256": {
						"encoding": "inplace",
						"label": "uint256",
						"numberOfBytes": "32"
					}
				}
			},
			"userdoc": {
				"kind": "user",
				"methods": {},
				"version": 1
			}
		}
	}
}