{
	"SecureVoting.sol": {
		"SecureVoting": {
			"abi": [
				{
					"inputs": [
						{
							"internalType": "string[]",
							"name": "candidateNames",
							"type": "string[]"
						}
					],
					"stateMutability": "nonpayable",
					"type": "constructor"
				},
				{
					"anonymous": false,
					"inputs": [
						{
							"indexed": true,
							"internalType": "address",
							"name": "voter",
							"type": "address"
						},
						{
							"indexed": false,
							"internalType": "uint256",
							"name": "candidateIndex",
							"type": "uint256"
						}
					],
					"name": "VoteCast",
					"type": "event"
				},
				{
					"anonymous": false,
					"inputs": [],
					"name": "VotingEnded",
					"type": "event"
				},
				{
					"inputs": [],
					"name": "admin",
					"outputs": [
						{
							"internalType": "address",
							"name": "",
							"type": "address"
						}
					],
					"stateMutability": "view",
					"type": "function"
				},
				{
					"inputs": [
						{
							"internalType": "uint256",
							"name": "",
							"type": "uint256"
						}
					],
					"name": "candidates",
					"outputs": [
						{
							"internalType": "string",
							"name": "name",
							"type": "string"
						},
						{
							"internalType": "uint256",
							"name": "voteCount",
							"type": "uint256"
						}
					],
					"stateMutability": "view",
					"type": "function"
				},
				{
					"inputs": [],
					"name": "closeVoting",
					"outputs": [],
					"stateMutability": "nonpayable",
					"type": "function"
				},
				{
					"inputs": [],
					"name": "getWinner",
					"outputs": [
						{
							"internalType": "string",
							"name": "",
							"type": "string"
						}
					],
					"stateMutability": "view",
					"type": "function"
				},
				{
					"inputs": [
						{
							"internalType": "address",
							"name": "",
							"type": "address"
						}
					],
					"name": "hasVoted",
					"outputs": [
						{
							"internalType": "bool",
							"name": "",
							"type": "bool"
						}
					],
					"stateMutability": "view",
					"type": "function"
				},
				{
					"inputs": [
						{
							"internalType": "uint256",
							"name": "candidateIndex",
							"type": "uint256"
						}
					],
					"name": "vote",
					"outputs": [],
					"stateMutability": "nonpayable",
					"type": "function"
				},
				{
					"inputs": [],
					"name": "votingOpen",
					"outputs": [
						{
							"internalType": "bool",
							"name": "",
							"type": "bool"
						}
					],
					"stateMutability": "view",
					"type": "function"
				}
			],
			"devdoc": {
				"kind": "dev",
				"methods": {},
				"version": 1
			},
			"evm": {
				"assembly": "    /* \"SecureVoting.sol\":126:1849  contract SecureVoting is ReentrancyGuard {... */\n  mstore(0x40, 0x80)\n    /* \"SecureVoting.sol\":620:866  constructor(string[] memory candidateNames) {... */\n  callvalue\n  dup1\n  iszero\n  tag_1\n  jumpi\n  0x00\n  dup1\n  revert\ntag_1:\n  pop\n  mload(0x40)\n  sub(codesize, bytecodeSize)\n  dup1\n  bytecodeSize\n  dup4\n  codecopy\n  dup2\n  dup2\n  add\n  0x40\n  mstore\n  dup2\n  add\n  swap1\n  tag_2\n  swap2\n  swap1\n  tag_3\n  jump\t// in\ntag_2:\n    /* \"@openzeppelin/contracts/security/ReentrancyGuard.sol\":1716:1717  1 */\n  0x01\n    /* \"@openzeppelin/contracts/security/ReentrancyGuard.sol\":1821:1828  _status */\n  0x00\n    /* \"@openzeppelin/contracts/security/ReentrancyGuard.sol\":1821:1843  _status = _NOT_ENTERED */\n  dup2\n  swap1\n  sstore\n  pop\n    /* \"SecureVoting.sol\":683:693  msg.sender */\n  caller\n    /* \"SecureVoting.sol\":675:680  admin */\n  0x01\n  0x00\n    /* \"SecureVoting.sol\":675:693  admin = msg.sender */\n  0x0100\n  exp\n  dup2\n  sload\n  dup2\n  0xffffffffffffffffffffffffffffffffffffffff\n  mul\n  not\n  and\n  swap1\n  dup4\n  0xffffffffffffffffffffffffffffffffffffffff\n  and\n  mul\n  or\n  swap1\n  sstore\n  pop\n    /* \"SecureVoting.sol\":709:718  uint256 i */\n  0x00\n    /* \"SecureVoting.sol\":704:831  for (uint256 i = 0; i < candidateNames.length; i++) {... */\ntag_8:\n    /* \"SecureVoting.sol\":728:742  candidateNames */\n  dup2\n    /* \"SecureVoting.sol\":728:749  candidateNames.length */\n  mload\n    /* \"SecureVoting.sol\":724:725  i */\n  dup2\n    /* \"SecureVoting.sol\":724:749  i < candidateNames.length */\n  lt\n    /* \"SecureVoting.sol\":704:831  for (uint256 i = 0; i < candidateNames.length; i++) {... */\n  iszero\n  tag_9\n  jumpi\n    /* \"SecureVoting.sol\":771:781  candidates */\n  0x03\n    /* \"SecureVoting.sol\":787:818  Candidate(candidateNames[i], 0) */\n  mload(0x40)\n  dup1\n  0x40\n  add\n  0x40\n  mstore\n  dup1\n    /* \"SecureVoting.sol\":797:811  candidateNames */\n  dup5\n    /* \"SecureVoting.sol\":812:813  i */\n  dup5\n    /* \"SecureVoting.sol\":797:814  candidateNames[i] */\n  dup2\n  mload\n  dup2\n  lt\n  tag_11\n  jumpi\n  tag_12\n  tag_13\n  jump\t// in\ntag_12:\ntag_11:\n  0x20\n  mul\n  0x20\n  add\n  add\n  mload\n    /* \"SecureVoting.sol\":787:818  Candidate(candidateNames[i], 0) */\n  dup2\n  mstore\n  0x20\n  add\n    /* \"SecureVoting.sol\":816:817  0 */\n  0x00\n    /* \"SecureVoting.sol\":787:818  Candidate(candidateNames[i], 0) */\n  dup2\n  mstore\n  pop\n    /* \"SecureVoting.sol\":771:819  candidates.push(Candidate(candidateNames[i], 0)) */\n  swap1\n  dup1\n  0x01\n  dup2\n  sload\n  add\n  dup1\n  dup3\n  sstore\n  dup1\n  swap2\n  pop\n  pop\n  0x01\n  swap1\n  sub\n  swap1\n  0x00\n  mstore\n  keccak256(0x00, 0x20)\n  swap1\n  0x02\n  mul\n  add\n  0x00\n  swap1\n  swap2\n  swap1\n  swap2\n  swap1\n  swap2\n  pop\n  0x00\n  dup3\n  add\n  mload\n  dup2\n  0x00\n  add\n  swap1\n  dup2\n  tag_15\n  swap2\n  swap1\n  tag_16\n  jump\t// in\ntag_15:\n  pop\n  0x20\n  dup3\n  add\n  mload\n  dup2\n  0x01\n  add\n  sstore\n  pop\n  pop\n    /* \"SecureVoting.sol\":751:754  i++ */\n  dup1\n  dup1\n  0x01\n  add\n  swap2\n  pop\n  pop\n    /* \"SecureVoting.sol\":704:831  for (uint256 i = 0; i < candidateNames.length; i++) {... */\n  jump(tag_8)\ntag_9:\n  pop\n    /* \"SecureVoting.sol\":854:858  true */\n  0x01\n    /* \"SecureVoting.sol\":841:851  votingOpen */\n  0x04\n  0x00\n    /* \"SecureVoting.sol\":841:858  votingOpen = true */\n  0x0100\n  exp\n  dup2\n  sload\n  dup2\n  0xff\n  mul\n  not\n  and\n  swap1\n  dup4\n  iszero\n  iszero\n  mul\n  or\n  swap1\n  sstore\n  pop\n    /* \"SecureVoting.sol\":620:866  constructor(string[] memory candidateNames) {... */\n  pop\n    /* \"SecureVoting.sol\":126:1849  contract SecureVoting is ReentrancyGuard {... */\n  jump(tag_17)\n    /* \"#utility.yul\":7:82   */\ntag_18:\n    /* \"#utility.yul\":40:46   */\n  0x00\n    /* \"#utility.yul\":73:75   */\n  0x40\n    /* \"#utility.yul\":67:76   */\n  mload\n    /* \"#utility.yul\":57:76   */\n  swap1\n  pop\n    /* \"#utility.yul\":7:82   */\n  swap1\n  jump\t// out\n    /* \"#utility.yul\":88:205   */\ntag_19:\n    /* \"#utility.yul\":197:198   */\n  0x00\n    /* \"#utility.yul\":194:195   */\n  dup1\n    /* \"#utility.yul\":187:199   */\n  revert\n    /* \"#utility.yul\":211:328   */\ntag_20:\n    /* \"#utility.yul\":320:321   */\n  0x00\n    /* \"#utility.yul\":317:318   */\n  dup1\n    /* \"#utility.yul\":310:322   */\n  revert\n    /* \"#utility.yul\":334:451   */\ntag_21:\n    /* \"#utility.yul\":443:444   */\n  0x00\n    /* \"#utility.yul\":440:441   */\n  dup1\n    /* \"#utility.yul\":433:445   */\n  revert\n    /* \"#utility.yul\":457:559   */\ntag_22:\n    /* \"#utility.yul\":498:504   */\n  0x00\n    /* \"#utility.yul\":549:551   */\n  0x1f\n    /* \"#utility.yul\":545:552   */\n  not\n    /* \"#utility.yul\":540:542   */\n  0x1f\n    /* \"#utility.yul\":533:538   */\n  dup4\n    /* \"#utility.yul\":529:543   */\n  add\n    /* \"#utility.yul\":525:553   */\n  and\n    /* \"#utility.yul\":515:553   */\n  swap1\n  pop\n    /* \"#utility.yul\":457:559   */\n  swap2\n  swap1\n  pop\n  jump\t// out\n    /* \"#utility.yul\":565:745   */\ntag_23:\n    /* \"#utility.yul\":613:690   */\n  0x4e487b7100000000000000000000000000000000000000000000000000000000\n    /* \"#utility.yul\":610:611   */\n  0x00\n    /* \"#utility.yul\":603:691   */\n  mstore\n    /* \"#utility.yul\":710:714   */\n  0x41\n    /* \"#utility.yul\":707:708   */\n  0x04\n    /* \"#utility.yul\":700:715   */\n  mstore\n    /* \"#utility.yul\":734:738   */\n  0x24\n    /* \"#utility.yul\":731:732   */\n  0x00\n    /* \"#utility.yul\":724:739   */\n  revert\n    /* \"#utility.yul\":751:1032   */\ntag_24:\n    /* \"#utility.yul\":834:861   */\n  tag_62\n    /* \"#utility.yul\":856:860   */\n  dup3\n    /* \"#utility.yul\":834:861   */\n  tag_22\n  jump\t// in\ntag_62:\n    /* \"#utility.yul\":826:832   */\n  dup2\n    /* \"#utility.yul\":822:862   */\n  add\n    /* \"#utility.yul\":964:970   */\n  dup2\n    /* \"#utility.yul\":952:962   */\n  dup2\n    /* \"#utility.yul\":949:971   */\n  lt\n    /* \"#utility.yul\":928:946   */\n  0xffffffffffffffff\n    /* \"#utility.yul\":916:926   */\n  dup3\n    /* \"#utility.yul\":913:947   */\n  gt\n    /* \"#utility.yul\":910:972   */\n  or\n    /* \"#utility.yul\":907:995   */\n  iszero\n  tag_63\n  jumpi\n    /* \"#utility.yul\":975:993   */\n  tag_64\n  tag_23\n  jump\t// in\ntag_64:\n    /* \"#utility.yul\":907:995   */\ntag_63:\n    /* \"#utility.yul\":1015:1025   */\n  dup1\n    /* \"#utility.yul\":1011:1013   */\n  0x40\n    /* \"#utility.yul\":1004:1026   */\n  mstore\n    /* \"#utility.yul\":794:1032   */\n  pop\n    /* \"#utility.yul\":751:1032   */\n  pop\n  pop\n  jump\t// out\n    /* \"#utility.yul\":1038:1167   */\ntag_25:\n    /* \"#utility.yul\":1072:1078   */\n  0x00\n    /* \"#utility.yul\":1099:1119   */\n  tag_66\n  tag_18\n  jump\t// in\ntag_66:\n    /* \"#utility.yul\":1089:1119   */\n  swap1\n  pop\n    /* \"#utility.yul\":1128:1161   */\n  tag_67\n    /* \"#utility.yul\":1156:1160   */\n  dup3\n    /* \"#utility.yul\":1148:1154   */\n  dup3\n    /* \"#utility.yul\":1128:1161   */\n  tag_24\n  jump\t// in\ntag_67:\n    /* \"#utility.yul\":1038:1167   */\n  swap2\n  swap1\n  pop\n  jump\t// out\n    /* \"#utility.yul\":1173:1494   */\ntag_26:\n    /* \"#utility.yul\":1260:1264   */\n  0x00\n    /* \"#utility.yul\":1350:1368   */\n  0xffffffffffffffff\n    /* \"#utility.yul\":1342:1348   */\n  dup3\n    /* \"#utility.yul\":1339:1369   */\n  gt\n    /* \"#utility.yul\":1336:1392   */\n  iszero\n  tag_69\n  jumpi\n    /* \"#utility.yul\":1372:1390   */\n  tag_70\n  tag_23\n  jump\t// in\ntag_70:\n    /* \"#utility.yul\":1336:1392   */\ntag_69:\n    /* \"#utility.yul\":1422:1426   */\n  0x20\n    /* \"#utility.yul\":1414:1420   */\n  dup3\n    /* \"#utility.yul\":1410:1427   */\n  mul\n    /* \"#utility.yul\":1402:1427   */\n  swap1\n  pop\n    /* \"#utility.yul\":1482:1486   */\n  0x20\n    /* \"#utility.yul\":1476:1480   */\n  dup2\n    /* \"#utility.yul\":1472:1487   */\n  add\n    /* \"#utility.yul\":1464:1487   */\n  swap1\n  pop\n    /* \"#utility.yul\":1173:1494   */\n  swap2\n  swap1\n  pop\n  jump\t// out\n    /* \"#utility.yul\":1500:1617   */\ntag_27:\n    /* \"#utility.yul\":1609:1610   */\n  0x00\n    /* \"#utility.yul\":1606:1607   */\n  dup1\n    /* \"#utility.yul\":1599:1611   */\n  revert\n    /* \"#utility.yul\":1623:1740   */\ntag_28:\n    /* \"#utility.yul\":1732:1733   */\n  0x00\n    /* \"#utility.yul\":1729:1730   */\n  dup1\n    /* \"#utility.yul\":1722:1734   */\n  revert\n    /* \"#utility.yul\":1746:2054   */\ntag_29:\n    /* \"#utility.yul\":1808:1812   */\n  0x00\n    /* \"#utility.yul\":1898:1916   */\n  0xffffffffffffffff\n    /* \"#utility.yul\":1890:1896   */\n  dup3\n    /* \"#utility.yul\":1887:1917   */\n  gt\n    /* \"#utility.yul\":1884:1940   */\n  iszero\n  tag_74\n  jumpi\n    /* \"#utility.yul\":1920:1938   */\n  tag_75\n  tag_23\n  jump\t// in\ntag_75:\n    /* \"#utility.yul\":1884:1940   */\ntag_74:\n    /* \"#utility.yul\":1958:1987   */\n  tag_76\n    /* \"#utility.yul\":1980:1986   */\n  dup3\n    /* \"#utility.yul\":1958:1987   */\n  tag_22\n  jump\t// in\ntag_76:\n    /* \"#utility.yul\":1950:1987   */\n  swap1\n  pop\n    /* \"#utility.yul\":2042:2046   */\n  0x20\n    /* \"#utility.yul\":2036:2040   */\n  dup2\n    /* \"#utility.yul\":2032:2047   */\n  add\n    /* \"#utility.yul\":2024:2047   */\n  swap1\n  pop\n    /* \"#utility.yul\":1746:2054   */\n  swap2\n  swap1\n  pop\n  jump\t// out\n    /* \"#utility.yul\":2060:2199   */\ntag_30:\n    /* \"#utility.yul\":2149:2155   */\n  dup3\n    /* \"#utility.yul\":2144:2147   */\n  dup2\n    /* \"#utility.yul\":2139:2142   */\n  dup4\n    /* \"#utility.yul\":2133:2156   */\n  mcopy\n    /* \"#utility.yul\":2190:2191   */\n  0x00\n    /* \"#utility.yul\":2181:2187   */\n  dup4\n    /* \"#utility.yul\":2176:2179   */\n  dup4\n    /* \"#utility.yul\":2172:2188   */\n  add\n    /* \"#utility.yul\":2165:2192   */\n  mstore\n    /* \"#utility.yul\":2060:2199   */\n  pop\n  pop\n  pop\n  jump\t// out\n    /* \"#utility.yul\":2205:2639   */\ntag_31:\n    /* \"#utility.yul\":2294:2299   */\n  0x00\n    /* \"#utility.yul\":2319:2385   */\n  tag_79\n    /* \"#utility.yul\":2335:2384   */\n  tag_80\n    /* \"#utility.yul\":2377:2383   */\n  dup5\n    /* \"#utility.yul\":2335:2384   */\n  tag_29\n  jump\t// in\ntag_80:\n    /* \"#utility.yul\":2319:2385   */\n  tag_25\n  jump\t// in\ntag_79:\n    /* \"#utility.yul\":2310:2385   */\n  swap1\n  pop\n    /* \"#utility.yul\":2408:2414   */\n  dup3\n    /* \"#utility.yul\":2401:2406   */\n  dup2\n    /* \"#utility.yul\":2394:2415   */\n  mstore\n    /* \"#utility.yul\":2446:2450   */\n  0x20\n    /* \"#utility.yul\":2439:2444   */\n  dup2\n    /* \"#utility.yul\":2435:2451   */\n  add\n    /* \"#utility.yul\":2484:2487   */\n  dup5\n    /* \"#utility.yul\":2475:2481   */\n  dup5\n    /* \"#utility.yul\":2470:2473   */\n  dup5\n    /* \"#utility.yul\":2466:2482   */\n  add\n    /* \"#utility.yul\":2463:2488   */\n  gt\n    /* \"#utility.yul\":2460:2572   */\n  iszero\n  tag_81\n  jumpi\n    /* \"#utility.yul\":2491:2570   */\n  tag_82\n  tag_28\n  jump\t// in\ntag_82:\n    /* \"#utility.yul\":2460:2572   */\ntag_81:\n    /* \"#utility.yul\":2581:2633   */\n  tag_83\n    /* \"#utility.yul\":2626:2632   */\n  dup5\n    /* \"#utility.yul\":2621:2624   */\n  dup3\n    /* \"#utility.yul\":2616:2619   */\n  dup6\n    /* \"#utility.yul\":2581:2633   */\n  tag_30\n  jump\t// in\ntag_83:\n    /* \"#utility.yul\":2300:2639   */\n  pop\n    /* \"#utility.yul\":2205:2639   */\n  swap4\n  swap3\n  pop\n  pop\n  pop\n  jump\t// out\n    /* \"#utility.yul\":2659:3014   */\ntag_32:\n    /* \"#utility.yul\":2726:2731   */\n  0x00\n    /* \"#utility.yul\":2775:2778   */\n  dup3\n    /* \"#utility.yul\":2768:2772   */\n  0x1f\n    /* \"#utility.yul\":2760:2766   */\n  dup4\n    /* \"#utility.yul\":2756:2773   */\n  add\n    /* \"#utility.yul\":2752:2779   */\n  slt\n    /* \"#utility.yul\":2742:2864   */\n  tag_85\n  jumpi\n    /* \"#utility.yul\":2783:2862   */\n  tag_86\n  tag_21\n  jump\t// in\ntag_86:\n    /* \"#utility.yul\":2742:2864   */\ntag_85:\n    /* \"#utility.yul\":2893:2899   */\n  dup2\n    /* \"#utility.yul\":2887:2900   */\n  mload\n    /* \"#utility.yul\":2918:3008   */\n  tag_87\n    /* \"#utility.yul\":3004:3007   */\n  dup5\n    /* \"#utility.yul\":2996:3002   */\n  dup3\n    /* \"#utility.yul\":2989:2993   */\n  0x20\n    /* \"#utility.yul\":2981:2987   */\n  dup7\n    /* \"#utility.yul\":2977:2994   */\n  add\n    /* \"#utility.yul\":2918:3008   */\n  tag_31\n  jump\t// in\ntag_87:\n    /* \"#utility.yul\":2909:3008   */\n  swap2\n  pop\n    /* \"#utility.yul\":2732:3014   */\n  pop\n    /* \"#utility.yul\":2659:3014   */\n  swap3\n  swap2\n  pop\n  pop\n  jump\t// out\n    /* \"#utility.yul\":3036:3996   */\ntag_33:\n    /* \"#utility.yul\":3153:3158   */\n  0x00\n    /* \"#utility.yul\":3178:3269   */\n  tag_89\n    /* \"#utility.yul\":3194:3268   */\n  tag_90\n    /* \"#utility.yul\":3261:3267   */\n  dup5\n    /* \"#utility.yul\":3194:3268   */\n  tag_26\n  jump\t// in\ntag_90:\n    /* \"#utility.yul\":3178:3269   */\n  tag_25\n  jump\t// in\ntag_89:\n    /* \"#utility.yul\":3169:3269   */\n  swap1\n  pop\n    /* \"#utility.yul\":3289:3294   */\n  dup1\n    /* \"#utility.yul\":3318:3324   */\n  dup4\n    /* \"#utility.yul\":3311:3316   */\n  dup3\n    /* \"#utility.yul\":3304:3325   */\n  mstore\n    /* \"#utility.yul\":3352:3356   */\n  0x20\n    /* \"#utility.yul\":3345:3350   */\n  dup3\n    /* \"#utility.yul\":3341:3357   */\n  add\n    /* \"#utility.yul\":3334:3357   */\n  swap1\n  pop\n    /* \"#utility.yul\":3405:3409   */\n  0x20\n    /* \"#utility.yul\":3397:3403   */\n  dup5\n    /* \"#utility.yul\":3393:3410   */\n  mul\n    /* \"#utility.yul\":3385:3391   */\n  dup4\n    /* \"#utility.yul\":3381:3411   */\n  add\n    /* \"#utility.yul\":3434:3437   */\n  dup6\n    /* \"#utility.yul\":3426:3432   */\n  dup2\n    /* \"#utility.yul\":3423:3438   */\n  gt\n    /* \"#utility.yul\":3420:3542   */\n  iszero\n  tag_91\n  jumpi\n    /* \"#utility.yul\":3453:3532   */\n  tag_92\n  tag_27\n  jump\t// in\ntag_92:\n    /* \"#utility.yul\":3420:3542   */\ntag_91:\n    /* \"#utility.yul\":3568:3574   */\n  dup4\n    /* \"#utility.yul\":3551:3990   */\ntag_93:\n    /* \"#utility.yul\":3585:3591   */\n  dup2\n    /* \"#utility.yul\":3580:3583   */\n  dup2\n    /* \"#utility.yul\":3577:3592   */\n  lt\n    /* \"#utility.yul\":3551:3990   */\n  iszero\n  tag_95\n  jumpi\n    /* \"#utility.yul\":3667:3670   */\n  dup1\n    /* \"#utility.yul\":3661:3671   */\n  mload\n    /* \"#utility.yul\":3703:3721   */\n  0xffffffffffffffff\n    /* \"#utility.yul\":3690:3701   */\n  dup2\n    /* \"#utility.yul\":3687:3722   */\n  gt\n    /* \"#utility.yul\":3684:3806   */\n  iszero\n  tag_96\n  jumpi\n    /* \"#utility.yul\":3725:3804   */\n  tag_97\n  tag_21\n  jump\t// in\ntag_97:\n    /* \"#utility.yul\":3684:3806   */\ntag_96:\n    /* \"#utility.yul\":3849:3860   */\n  dup1\n    /* \"#utility.yul\":3841:3847   */\n  dup7\n    /* \"#utility.yul\":3837:3861   */\n  add\n    /* \"#utility.yul\":3887:3945   */\n  tag_98\n    /* \"#utility.yul\":3941:3944   */\n  dup10\n    /* \"#utility.yul\":3929:3939   */\n  dup3\n    /* \"#utility.yul\":3887:3945   */\n  tag_32\n  jump\t// in\ntag_98:\n    /* \"#utility.yul\":3882:3885   */\n  dup6\n    /* \"#utility.yul\":3875:3946   */\n  mstore\n    /* \"#utility.yul\":3975:3979   */\n  0x20\n    /* \"#utility.yul\":3970:3973   */\n  dup6\n    /* \"#utility.yul\":3966:3980   */\n  add\n    /* \"#utility.yul\":3959:3980   */\n  swap5\n  pop\n    /* \"#utility.yul\":3627:3990   */\n  pop\n  pop\n    /* \"#utility.yul\":3611:3615   */\n  0x20\n    /* \"#utility.yul\":3606:3609   */\n  dup2\n    /* \"#utility.yul\":3602:3616   */\n  add\n    /* \"#utility.yul\":3595:3616   */\n  swap1\n  pop\n    /* \"#utility.yul\":3551:3990   */\n  jump(tag_93)\ntag_95:\n    /* \"#utility.yul\":3555:3576   */\n  pop\n    /* \"#utility.yul\":3159:3996   */\n  pop\n  pop\n    /* \"#utility.yul\":3036:3996   */\n  swap4\n  swap3\n  pop\n  pop\n  pop\n  jump\t// out\n    /* \"#utility.yul\":4018:4423   */\ntag_34:\n    /* \"#utility.yul\":4110:4115   */\n  0x00\n    /* \"#utility.yul\":4159:4162   */\n  dup3\n    /* \"#utility.yul\":4152:4156   */\n  0x1f\n    /* \"#utility.yul\":4144:4150   */\n  dup4\n    /* \"#utility.yul\":4140:4157   */\n  add\n    /* \"#utility.yul\":4136:4163   */\n  slt\n    /* \"#utility.yul\":4126:4248   */\n  tag_100\n  jumpi\n    /* \"#utility.yul\":4167:4246   */\n  tag_101\n  tag_21\n  jump\t// in\ntag_101:\n    /* \"#utility.yul\":4126:4248   */\ntag_100:\n    /* \"#utility.yul\":4277:4283   */\n  dup2\n    /* \"#utility.yul\":4271:4284   */\n  mload\n    /* \"#utility.yul\":4302:4417   */\n  tag_102\n    /* \"#utility.yul\":4413:4416   */\n  dup5\n    /* \"#utility.yul\":4405:4411   */\n  dup3\n    /* \"#utility.yul\":4398:4402   */\n  0x20\n    /* \"#utility.yul\":4390:4396   */\n  dup7\n    /* \"#utility.yul\":4386:4403   */\n  add\n    /* \"#utility.yul\":4302:4417   */\n  tag_33\n  jump\t// in\ntag_102:\n    /* \"#utility.yul\":4293:4417   */\n  swap2\n  pop\n    /* \"#utility.yul\":4116:4423   */\n  pop\n    /* \"#utility.yul\":4018:4423   */\n  swap3\n  swap2\n  pop\n  pop\n  jump\t// out\n    /* \"#utility.yul\":4429:5003   */\ntag_3:\n    /* \"#utility.yul\":4534:4540   */\n  0x00\n    /* \"#utility.yul\":4583:4585   */\n  0x20\n    /* \"#utility.yul\":4571:4580   */\n  dup3\n    /* \"#utility.yul\":4562:4569   */\n  dup5\n    /* \"#utility.yul\":4558:4581   */\n  sub\n    /* \"#utility.yul\":4554:4586   */\n  slt\n    /* \"#utility.yul\":4551:4670   */\n  iszero\n  tag_104\n  jumpi\n    /* \"#utility.yul\":4589:4668   */\n  tag_105\n  tag_19\n  jump\t// in\ntag_105:\n    /* \"#utility.yul\":4551:4670   */\ntag_104:\n    /* \"#utility.yul\":4730:4731   */\n  0x00\n    /* \"#utility.yul\":4719:4728   */\n  dup3\n    /* \"#utility.yul\":4715:4732   */\n  add\n    /* \"#utility.yul\":4709:4733   */\n  mload\n    /* \"#utility.yul\":4760:4778   */\n  0xffffffffffffffff\n    /* \"#utility.yul\":4752:4758   */\n  dup2\n    /* \"#utility.yul\":4749:4779   */\n  gt\n    /* \"#utility.yul\":4746:4863   */\n  iszero\n  tag_106\n  jumpi\n    /* \"#utility.yul\":4782:4861   */\n  tag_107\n  tag_20\n  jump\t// in\ntag_107:\n    /* \"#utility.yul\":4746:4863   */\ntag_106:\n    /* \"#utility.yul\":4887:4986   */\n  tag_108\n    /* \"#utility.yul\":4978:4985   */\n  dup5\n    /* \"#utility.yul\":4969:4975   */\n  dup3\n    /* \"#utility.yul\":4958:4967   */\n  dup6\n    /* \"#utility.yul\":4954:4976   */\n  add\n    /* \"#utility.yul\":4887:4986   */\n  tag_34\n  jump\t// in\ntag_108:\n    /* \"#utility.yul\":4877:4986   */\n  swap2\n  pop\n    /* \"#utility.yul\":4680:4996   */\n  pop\n    /* \"#utility.yul\":4429:5003   */\n  swap3\n  swap2\n  pop\n  pop\n  jump\t// out\n    /* \"#utility.yul\":5009:5189   */\ntag_13:\n    /* \"#utility.yul\":5057:5134   */\n  0x4e487b7100000000000000000000000000000000000000000000000000000000\n    /* \"#utility.yul\":5054:5055   */\n  0x00\n    /* \"#utility.yul\":5047:5135   */\n  mstore\n    /* \"#utility.yul\":5154:5158   */\n  0x32\n    /* \"#utility.yul\":5151:5152   */\n  0x04\n    /* \"#utility.yul\":5144:5159   */\n  mstore\n    /* \"#utility.yul\":5178:5182   */\n  0x24\n    /* \"#utility.yul\":5175:5176   */\n  0x00\n    /* \"#utility.yul\":5168:5183   */\n  revert\n    /* \"#utility.yul\":5195:5294   */\ntag_35:\n    /* \"#utility.yul\":5247:5253   */\n  0x00\n    /* \"#utility.yul\":5281:5286   */\n  dup2\n    /* \"#utility.yul\":5275:5287   */\n  mload\n    /* \"#utility.yul\":5265:5287   */\n  swap1\n  pop\n    /* \"#utility.yul\":5195:5294   */\n  swap2\n  swap1\n  pop\n  jump\t// out\n    /* \"#utility.yul\":5300:5480   */\ntag_36:\n    /* \"#utility.yul\":5348:5425   */\n  0x4e487b7100000000000000000000000000000000000000000000000000000000\n    /* \"#utility.yul\":5345:5346   */\n  0x00\n    /* \"#utility.yul\":5338:5426   */\n  mstore\n    /* \"#utility.yul\":5445:5449   */\n  0x22\n    /* \"#utility.yul\":5442:5443   */\n  0x04\n    /* \"#utility.yul\":5435:5450   */\n  mstore\n    /* \"#utility.yul\":5469:5473   */\n  0x24\n    /* \"#utility.yul\":5466:5467   */\n  0x00\n    /* \"#utility.yul\":5459:5474   */\n  revert\n    /* \"#utility.yul\":5486:5806   */\ntag_37:\n    /* \"#utility.yul\":5530:5536   */\n  0x00\n    /* \"#utility.yul\":5567:5568   */\n  0x02\n    /* \"#utility.yul\":5561:5565   */\n  dup3\n    /* \"#utility.yul\":5557:5569   */\n  div\n    /* \"#utility.yul\":5547:5569   */\n  swap1\n  pop\n    /* \"#utility.yul\":5614:5615   */\n  0x01\n    /* \"#utility.yul\":5608:5612   */\n  dup3\n    /* \"#utility.yul\":5604:5616   */\n  and\n    /* \"#utility.yul\":5635:5653   */\n  dup1\n    /* \"#utility.yul\":5625:5706   */\n  tag_113\n  jumpi\n    /* \"#utility.yul\":5691:5695   */\n  0x7f\n    /* \"#utility.yul\":5683:5689   */\n  dup3\n    /* \"#utility.yul\":5679:5696   */\n  and\n    /* \"#utility.yul\":5669:5696   */\n  swap2\n  pop\n    /* \"#utility.yul\":5625:5706   */\ntag_113:\n    /* \"#utility.yul\":5753:5755   */\n  0x20\n    /* \"#utility.yul\":5745:5751   */\n  dup3\n    /* \"#utility.yul\":5742:5756   */\n  lt\n    /* \"#utility.yul\":5722:5740   */\n  dup2\n    /* \"#utility.yul\":5719:5757   */\n  sub\n    /* \"#utility.yul\":5716:5800   */\n  tag_114\n  jumpi\n    /* \"#utility.yul\":5772:5790   */\n  tag_115\n  tag_36\n  jump\t// in\ntag_115:\n    /* \"#utility.yul\":5716:5800   */\ntag_114:\n    /* \"#utility.yul\":5537:5806   */\n  pop\n    /* \"#utility.yul\":5486:5806   */\n  swap2\n  swap1\n  pop\n  jump\t// out\n    /* \"#utility.yul\":5812:5953   */\ntag_38:\n    /* \"#utility.yul\":5861:5865   */\n  0x00\n    /* \"#utility.yul\":5884:5887   */\n  dup2\n    /* \"#utility.yul\":5876:5887   */\n  swap1\n  pop\n    /* \"#utility.yul\":5907:5910   */\n  dup2\n    /* \"#utility.yul\":5904:5905   */\n  0x00\n    /* \"#utility.yul\":5897:5911   */\n  mstore\n    /* \"#utility.yul\":5941:5945   */\n  0x20\n    /* \"#utility.yul\":5938:5939   */\n  0x00\n    /* \"#utility.yul\":5928:5946   */\n  keccak256\n    /* \"#utility.yul\":5920:5946   */\n  swap1\n  pop\n    /* \"#utility.yul\":5812:5953   */\n  swap2\n  swap1\n  pop\n  jump\t// out\n    /* \"#utility.yul\":5959:6052   */\ntag_39:\n    /* \"#utility.yul\":5996:6002   */\n  0x00\n    /* \"#utility.yul\":6043:6045   */\n  0x20\n    /* \"#utility.yul\":6038:6040   */\n  0x1f\n    /* \"#utility.yul\":6031:6036   */\n  dup4\n    /* \"#utility.yul\":6027:6041   */\n  add\n    /* \"#utility.yul\":6023:6046   */\n  div\n    /* \"#utility.yul\":6013:6046   */\n  swap1\n  pop\n    /* \"#utility.yul\":5959:6052   */\n  swap2\n  swap1\n  pop\n  jump\t// out\n    /* \"#utility.yul\":6058:6165   */\ntag_40:\n    /* \"#utility.yul\":6102:6110   */\n  0x00\n    /* \"#utility.yul\":6152:6157   */\n  dup3\n    /* \"#utility.yul\":6146:6150   */\n  dup3\n    /* \"#utility.yul\":6142:6158   */\n  shl\n    /* \"#utility.yul\":6121:6158   */\n  swap1\n  pop\n    /* \"#utility.yul\":6058:6165   */\n  swap3\n  swap2\n  pop\n  pop\n  jump\t// out\n    /* \"#utility.yul\":6171:6564   */\ntag_41:\n    /* \"#utility.yul\":6240:6246   */\n  0x00\n    /* \"#utility.yul\":6290:6291   */\n  0x08\n    /* \"#utility.yul\":6278:6288   */\n  dup4\n    /* \"#utility.yul\":6274:6292   */\n  mul\n    /* \"#utility.yul\":6313:6410   */\n  tag_120\n    /* \"#utility.yul\":6343:6409   */\n  0xffffffffffffffffffffffffffffffffffffffffffffffffffffffffffffffff\n    /* \"#utility.yul\":6332:6341   */\n  dup3\n    /* \"#utility.yul\":6313:6410   */\n  tag_40\n  jump\t// in\ntag_120:\n    /* \"#utility.yul\":6431:6470   */\n  tag_121\n    /* \"#utility.yul\":6461:6469   */\n  dup7\n    /* \"#utility.yul\":6450:6459   */\n  dup4\n    /* \"#utility.yul\":6431:6470   */\n  tag_40\n  jump\t// in\ntag_121:\n    /* \"#utility.yul\":6419:6470   */\n  swap6\n  pop\n    /* \"#utility.yul\":6503:6507   */\n  dup1\n    /* \"#utility.yul\":6499:6508   */\n  not\n    /* \"#utility.yul\":6492:6497   */\n  dup5\n    /* \"#utility.yul\":6488:6509   */\n  and\n    /* \"#utility.yul\":6479:6509   */\n  swap4\n  pop\n    /* \"#utility.yul\":6552:6556   */\n  dup1\n    /* \"#utility.yul\":6542:6550   */\n  dup7\n    /* \"#utility.yul\":6538:6557   */\n  and\n    /* \"#utility.yul\":6531:6536   */\n  dup5\n    /* \"#utility.yul\":6528:6558   */\n  or\n    /* \"#utility.yul\":6518:6558   */\n  swap3\n  pop\n    /* \"#utility.yul\":6247:6564   */\n  pop\n  pop\n    /* \"#utility.yul\":6171:6564   */\n  swap4\n  swap3\n  pop\n  pop\n  pop\n  jump\t// out\n    /* \"#utility.yul\":6570:6647   */\ntag_42:\n    /* \"#utility.yul\":6607:6614   */\n  0x00\n    /* \"#utility.yul\":6636:6641   */\n  dup2\n    /* \"#utility.yul\":6625:6641   */\n  swap1\n  pop\n    /* \"#utility.yul\":6570:6647   */\n  swap2\n  swap1\n  pop\n  jump\t// out\n    /* \"#utility.yul\":6653:6713   */\ntag_43:\n    /* \"#utility.yul\":6681:6684   */\n  0x00\n    /* \"#utility.yul\":6702:6707   */\n  dup2\n    /* \"#utility.yul\":6695:6707   */\n  swap1\n  pop\n    /* \"#utility.yul\":6653:6713   */\n  swap2\n  swap1\n  pop\n  jump\t// out\n    /* \"#utility.yul\":6719:6861   */\ntag_44:\n    /* \"#utility.yul\":6769:6778   */\n  0x00\n    /* \"#utility.yul\":6802:6855   */\n  tag_125\n    /* \"#utility.yul\":6820:6854   */\n  tag_126\n    /* \"#utility.yul\":6829:6853   */\n  tag_127\n    /* \"#utility.yul\":6847:6852   */\n  dup5\n    /* \"#utility.yul\":6829:6853   */\n  tag_42\n  jump\t// in\ntag_127:\n    /* \"#utility.yul\":6820:6854   */\n  tag_43\n  jump\t// in\ntag_126:\n    /* \"#utility.yul\":6802:6855   */\n  tag_42\n  jump\t// in\ntag_125:\n    /* \"#utility.yul\":6789:6855   */\n  swap1\n  pop\n    /* \"#utility.yul\":6719:6861   */\n  swap2\n  swap1\n  pop\n  jump\t// out\n    /* \"#utility.yul\":6867:6942   */\ntag_45:\n    /* \"#utility.yul\":6910:6913   */\n  0x00\n    /* \"#utility.yul\":6931:6936   */\n  dup2\n    /* \"#utility.yul\":6924:6936   */\n  swap1\n  pop\n    /* \"#utility.yul\":6867:6942   */\n  swap2\n  swap1\n  pop\n  jump\t// out\n    /* \"#utility.yul\":6948:7217   */\ntag_46:\n    /* \"#utility.yul\":7058:7097   */\n  tag_130\n    /* \"#utility.yul\":7089:7096   */\n  dup4\n    /* \"#utility.yul\":7058:7097   */\n  tag_44\n  jump\t// in\ntag_130:\n    /* \"#utility.yul\":7119:7210   */\n  tag_131\n    /* \"#utility.yul\":7168:7209   */\n  tag_132\n    /* \"#utility.yul\":7192:7208   */\n  dup3\n    /* \"#utility.yul\":7168:7209   */\n  tag_45\n  jump\t// in\ntag_132:\n    /* \"#utility.yul\":7160:7166   */\n  dup5\n    /* \"#utility.yul\":7153:7157   */\n  dup5\n    /* \"#utility.yul\":7147:7158   */\n  sload\n    /* \"#utility.yul\":7119:7210   */\n  tag_41\n  jump\t// in\ntag_131:\n    /* \"#utility.yul\":7113:7117   */\n  dup3\n    /* \"#utility.yul\":7106:7211   */\n  sstore\n    /* \"#utility.yul\":7024:7217   */\n  pop\n    /* \"#utility.yul\":6948:7217   */\n  pop\n  pop\n  pop\n  jump\t// out\n    /* \"#utility.yul\":7223:7296   */\ntag_47:\n    /* \"#utility.yul\":7268:7271   */\n  0x00\n    /* \"#utility.yul\":7223:7296   */\n  swap1\n  jump\t// out\n    /* \"#utility.yul\":7302:7491   */\ntag_48:\n    /* \"#utility.yul\":7379:7411   */\n  tag_135\n  tag_47\n  jump\t// in\ntag_135:\n    /* \"#utility.yul\":7420:7485   */\n  tag_136\n    /* \"#utility.yul\":7478:7484   */\n  dup2\n    /* \"#utility.yul\":7470:7476   */\n  dup5\n    /* \"#utility.yul\":7464:7468   */\n  dup5\n    /* \"#utility.yul\":7420:7485   */\n  tag_46\n  jump\t// in\ntag_136:\n    /* \"#utility.yul\":7355:7491   */\n  pop\n    /* \"#utility.yul\":7302:7491   */\n  pop\n  pop\n  jump\t// out\n    /* \"#utility.yul\":7497:7683   */\ntag_49:\n    /* \"#utility.yul\":7557:7677   */\ntag_138:\n    /* \"#utility.yul\":7574:7577   */\n  dup2\n    /* \"#utility.yul\":7567:7572   */\n  dup2\n    /* \"#utility.yul\":7564:7578   */\n  lt\n    /* \"#utility.yul\":7557:7677   */\n  iszero\n  tag_140\n  jumpi\n    /* \"#utility.yul\":7628:7667   */\n  tag_141\n    /* \"#utility.yul\":7665:7666   */\n  0x00\n    /* \"#utility.yul\":7658:7663   */\n  dup3\n    /* \"#utility.yul\":7628:7667   */\n  tag_48\n  jump\t// in\ntag_141:\n    /* \"#utility.yul\":7601:7602   */\n  0x01\n    /* \"#utility.yul\":7594:7599   */\n  dup2\n    /* \"#utility.yul\":7590:7603   */\n  add\n    /* \"#utility.yul\":7581:7603   */\n  swap1\n  pop\n    /* \"#utility.yul\":7557:7677   */\n  jump(tag_138)\ntag_140:\n    /* \"#utility.yul\":7497:7683   */\n  pop\n  pop\n  jump\t// out\n    /* \"#utility.yul\":7689:8232   */\ntag_50:\n    /* \"#utility.yul\":7790:7792   */\n  0x1f\n    /* \"#utility.yul\":7785:7788   */\n  dup3\n    /* \"#utility.yul\":7782:7793   */\n  gt\n    /* \"#utility.yul\":7779:8225   */\n  iszero\n  tag_143\n  jumpi\n    /* \"#utility.yul\":7824:7862   */\n  tag_144\n    /* \"#utility.yul\":7856:7861   */\n  dup2\n    /* \"#utility.yul\":7824:7862   */\n  tag_38\n  jump\t// in\ntag_144:\n    /* \"#utility.yul\":7908:7937   */\n  tag_145\n    /* \"#utility.yul\":7926:7936   */\n  dup5\n    /* \"#utility.yul\":7908:7937   */\n  tag_39\n  jump\t// in\ntag_145:\n    /* \"#utility.yul\":7898:7906   */\n  dup2\n    /* \"#utility.yul\":7894:7938   */\n  add\n    /* \"#utility.yul\":8091:8093   */\n  0x20\n    /* \"#utility.yul\":8079:8089   */\n  dup6\n    /* \"#utility.yul\":8076:8094   */\n  lt\n    /* \"#utility.yul\":8073:8122   */\n  iszero\n  tag_146\n  jumpi\n    /* \"#utility.yul\":8112:8120   */\n  dup2\n    /* \"#utility.yul\":8097:8120   */\n  swap1\n  pop\n    /* \"#utility.yul\":8073:8122   */\ntag_146:\n    /* \"#utility.yul\":8135:8215   */\n  tag_147\n    /* \"#utility.yul\":8191:8213   */\n  tag_148\n    /* \"#utility.yul\":8209:8212   */\n  dup6\n    /* \"#utility.yul\":8191:8213   */\n  tag_39\n  jump\t// in\ntag_148:\n    /* \"#utility.yul\":8181:8189   */\n  dup4\n    /* \"#utility.yul\":8177:8214   */\n  add\n    /* \"#utility.yul\":8164:8175   */\n  dup3\n    /* \"#utility.yul\":8135:8215   */\n  tag_49\n  jump\t// in\ntag_147:\n    /* \"#utility.yul\":7794:8225   */\n  pop\n  pop\n    /* \"#utility.yul\":7779:8225   */\ntag_143:\n    /* \"#utility.yul\":7689:8232   */\n  pop\n  pop\n  pop\n  jump\t// out\n    /* \"#utility.yul\":8238:8355   */\ntag_51:\n    /* \"#utility.yul\":8292:8300   */\n  0x00\n    /* \"#utility.yul\":8342:8347   */\n  dup3\n    /* \"#utility.yul\":8336:8340   */\n  dup3\n    /* \"#utility.yul\":8332:8348   */\n  shr\n    /* \"#utility.yul\":8311:8348   */\n  swap1\n  pop\n    /* \"#utility.yul\":8238:8355   */\n  swap3\n  swap2\n  pop\n  pop\n  jump\t// out\n    /* \"#utility.yul\":8361:8530   */\ntag_52:\n    /* \"#utility.yul\":8405:8411   */\n  0x00\n    /* \"#utility.yul\":8438:8489   */\n  tag_151\n    /* \"#utility.yul\":8486:8487   */\n  0x00\n    /* \"#utility.yul\":8482:8488   */\n  not\n    /* \"#utility.yul\":8474:8479   */\n  dup5\n    /* \"#utility.yul\":8471:8472   */\n  0x08\n    /* \"#utility.yul\":8467:8480   */\n  mul\n    /* \"#utility.yul\":8438:8489   */\n  tag_51\n  jump\t// in\ntag_151:\n    /* \"#utility.yul\":8434:8490   */\n  not\n    /* \"#utility.yul\":8519:8523   */\n  dup1\n    /* \"#utility.yul\":8513:8517   */\n  dup4\n    /* \"#utility.yul\":8509:8524   */\n  and\n    /* \"#utility.yul\":8499:8524   */\n  swap2\n  pop\n    /* \"#utility.yul\":8412:8530   */\n  pop\n    /* \"#utility.yul\":8361:8530   */\n  swap3\n  swap2\n  pop\n  pop\n  jump\t// out\n    /* \"#utility.yul\":8535:8830   */\ntag_53:\n    /* \"#utility.yul\":8611:8615   */\n  0x00\n    /* \"#utility.yul\":8757:8786   */\n  tag_153\n    /* \"#utility.yul\":8782:8785   */\n  dup4\n    /* \"#utility.yul\":8776:8780   */\n  dup4\n    /* \"#utility.yul\":8757:8786   */\n  tag_52\n  jump\t// in\ntag_153:\n    /* \"#utility.yul\":8749:8786   */\n  swap2\n  pop\n    /* \"#utility.yul\":8819:8822   */\n  dup3\n    /* \"#utility.yul\":8816:8817   */\n  0x02\n    /* \"#utility.yul\":8812:8823   */\n  mul\n    /* \"#utility.yul\":8806:8810   */\n  dup3\n    /* \"#utility.yul\":8803:8824   */\n  or\n    /* \"#utility.yul\":8795:8824   */\n  swap1\n  pop\n    /* \"#utility.yul\":8535:8830   */\n  swap3\n  swap2\n  pop\n  pop\n  jump\t// out\n    /* \"#utility.yul\":8835:10230   */\ntag_16:\n    /* \"#utility.yul\":8952:8989   */\n  tag_155\n    /* \"#utility.yul\":8985:8988   */\n  dup3\n    /* \"#utility.yul\":8952:8989   */\n  tag_35\n  jump\t// in\ntag_155:\n    /* \"#utility.yul\":9054:9072   */\n  0xffffffffffffffff\n    /* \"#utility.yul\":9046:9052   */\n  dup2\n    /* \"#utility.yul\":9043:9073   */\n  gt\n    /* \"#utility.yul\":9040:9096   */\n  iszero\n  tag_156\n  jumpi\n    /* \"#utility.yul\":9076:9094   */\n  tag_157\n  tag_23\n  jump\t// in\ntag_157:\n    /* \"#utility.yul\":9040:9096   */\ntag_156:\n    /* \"#utility.yul\":9120:9158   */\n  tag_158\n    /* \"#utility.yul\":9152:9156   */\n  dup3\n    /* \"#utility.yul\":9146:9157   */\n  sload\n    /* \"#utility.yul\":9120:9158   */\n  tag_37\n  jump\t// in\ntag_158:\n    /* \"#utility.yul\":9205:9272   */\n  tag_159\n    /* \"#utility.yul\":9265:9271   */\n  dup3\n    /* \"#utility.yul\":9257:9263   */\n  dup3\n    /* \"#utility.yul\":9251:9255   */\n  dup6\n    /* \"#utility.yul\":9205:9272   */\n  tag_50\n  jump\t// in\ntag_159:\n    /* \"#utility.yul\":9299:9300   */\n  0x00\n    /* \"#utility.yul\":9323:9327   */\n  0x20\n    /* \"#utility.yul\":9310:9327   */\n  swap1\n  pop\n    /* \"#utility.yul\":9355:9357   */\n  0x1f\n    /* \"#utility.yul\":9347:9353   */\n  dup4\n    /* \"#utility.yul\":9344:9358   */\n  gt\n    /* \"#utility.yul\":9372:9373   */\n  0x01\n    /* \"#utility.yul\":9367:9985   */\n  dup2\n  eq\n  tag_161\n  jumpi\n    /* \"#utility.yul\":10029:10030   */\n  0x00\n    /* \"#utility.yul\":10046:10052   */\n  dup5\n    /* \"#utility.yul\":10043:10120   */\n  iszero\n  tag_162\n  jumpi\n    /* \"#utility.yul\":10095:10104   */\n  dup3\n    /* \"#utility.yul\":10090:10093   */\n  dup8\n    /* \"#utility.yul\":10086:10105   */\n  add\n    /* \"#utility.yul\":10080:10106   */\n  mload\n    /* \"#utility.yul\":10071:10106   */\n  swap1\n  pop\n    /* \"#utility.yul\":10043:10120   */\ntag_162:\n    /* \"#utility.yul\":10146:10213   */\n  tag_163\n    /* \"#utility.yul\":10206:10212   */\n  dup6\n    /* \"#utility.yul\":10199:10204   */\n  dup3\n    /* \"#utility.yul\":10146:10213   */\n  tag_53\n  jump\t// in\ntag_163:\n    /* \"#utility.yul\":10140:10144   */\n  dup7\n    /* \"#utility.yul\":10133:10214   */\n  sstore\n    /* \"#utility.yul\":10002:10224   */\n  pop\n    /* \"#utility.yul\":9337:10224   */\n  jump(tag_160)\n    /* \"#utility.yul\":9367:9985   */\ntag_161:\n    /* \"#utility.yul\":9419:9423   */\n  0x1f\n    /* \"#utility.yul\":9415:9424   */\n  not\n    /* \"#utility.yul\":9407:9413   */\n  dup5\n    /* \"#utility.yul\":9403:9425   */\n  and\n    /* \"#utility.yul\":9453:9490   */\n  tag_164\n    /* \"#utility.yul\":9485:9489   */\n  dup7\n    /* \"#utility.yul\":9453:9490   */\n  tag_38\n  jump\t// in\ntag_164:\n    /* \"#utility.yul\":9512:9513   */\n  0x00\n    /* \"#utility.yul\":9526:9734   */\ntag_165:\n    /* \"#utility.yul\":9540:9547   */\n  dup3\n    /* \"#utility.yul\":9537:9538   */\n  dup2\n    /* \"#utility.yul\":9534:9548   */\n  lt\n    /* \"#utility.yul\":9526:9734   */\n  iszero\n  tag_167\n  jumpi\n    /* \"#utility.yul\":9619:9628   */\n  dup5\n    /* \"#utility.yul\":9614:9617   */\n  dup10\n    /* \"#utility.yul\":9610:9629   */\n  add\n    /* \"#utility.yul\":9604:9630   */\n  mload\n    /* \"#utility.yul\":9596:9602   */\n  dup3\n    /* \"#utility.yul\":9589:9631   */\n  sstore\n    /* \"#utility.yul\":9670:9671   */\n  0x01\n    /* \"#utility.yul\":9662:9668   */\n  dup3\n    /* \"#utility.yul\":9658:9672   */\n  add\n    /* \"#utility.yul\":9648:9672   */\n  swap2\n  pop\n    /* \"#utility.yul\":9717:9719   */\n  0x20\n    /* \"#utility.yul\":9706:9715   */\n  dup6\n    /* \"#utility.yul\":9702:9720   */\n  add\n    /* \"#utility.yul\":9689:9720   */\n  swap5\n  pop\n    /* \"#utility.yul\":9563:9567   */\n  0x20\n    /* \"#utility.yul\":9560:9561   */\n  dup2\n    /* \"#utility.yul\":9556:9568   */\n  add\n    /* \"#utility.yul\":9551:9568   */\n  swap1\n  pop\n    /* \"#utility.yul\":9526:9734   */\n  jump(tag_165)\ntag_167:\n    /* \"#utility.yul\":9762:9768   */\n  dup7\n    /* \"#utility.yul\":9753:9760   */\n  dup4\n    /* \"#utility.yul\":9750:9769   */\n  lt\n    /* \"#utility.yul\":9747:9926   */\n  iszero\n  tag_168\n  jumpi\n    /* \"#utility.yul\":9820:9829   */\n  dup5\n    /* \"#utility.yul\":9815:9818   */\n  dup10\n    /* \"#utility.yul\":9811:9830   */\n  add\n    /* \"#utility.yul\":9805:9831   */\n  mload\n    /* \"#utility.yul\":9863:9911   */\n  tag_169\n    /* \"#utility.yul\":9905:9909   */\n  0x1f\n    /* \"#utility.yul\":9897:9903   */\n  dup10\n    /* \"#utility.yul\":9893:9910   */\n  and\n    /* \"#utility.yul\":9882:9891   */\n  dup3\n    /* \"#utility.yul\":9863:9911   */\n  tag_52\n  jump\t// in\ntag_169:\n    /* \"#utility.yul\":9855:9861   */\n  dup4\n    /* \"#utility.yul\":9848:9912   */\n  sstore\n    /* \"#utility.yul\":9770:9926   */\n  pop\n    /* \"#utility.yul\":9747:9926   */\ntag_168:\n    /* \"#utility.yul\":9972:9973   */\n  0x01\n    /* \"#utility.yul\":9968:9969   */\n  0x02\n    /* \"#utility.yul\":9960:9966   */\n  dup9\n    /* \"#utility.yul\":9956:9970   */\n  mul\n    /* \"#utility.yul\":9952:9974   */\n  add\n    /* \"#utility.yul\":9946:9950   */\n  dup9\n    /* \"#utility.yul\":9939:9975   */\n  sstore\n    /* \"#utility.yul\":9374:9985   */\n  pop\n  pop\n  pop\n    /* \"#utility.yul\":9337:10224   */\ntag_160:\n  pop\n    /* \"#utility.yul\":8927:10230   */\n  pop\n  pop\n  pop\n    /* \"#utility.yul\":8835:10230   */\n  pop\n  pop\n  jump\t// out\n    /* \"SecureVoting.sol\":126:1849  contract SecureVoting is ReentrancyGuard {... */\ntag_17:\n  dataSize(sub_0)\n  dup1\n  dataOffset(sub_0)\n  0x00\n  codecopy\n  0x00\n  return\nstop\n\nsub_0: assembly {\n        /* \"SecureVoting.sol\":126:1849  contract SecureVoting is ReentrancyGuard {... */\n      mstore(0x40, 0x80)\n      callvalue\n      dup1\n      iszero\n      tag_1\n      jumpi\n      0x00\n      dup1\n      revert\n    tag_1:\n      pop\n      jumpi(tag_2, lt(calldatasize, 0x04))\n      shr(0xe0, calldataload(0x00))\n      dup1\n      0x8e7ea5b2\n      gt\n      tag_10\n      jumpi\n      dup1\n      0x8e7ea5b2\n      eq\n      tag_6\n      jumpi\n      dup1\n      0xa95824b4\n      eq\n      tag_7\n      jumpi\n      dup1\n      0xc631b292\n      eq\n      tag_8\n      jumpi\n      dup1\n      0xf851a440\n      eq\n      tag_9\n      jumpi\n      jump(tag_2)\n    tag_10:\n      dup1\n      0x0121b93f\n      eq\n      tag_3\n      jumpi\n      dup1\n      0x09eef43e\n      eq\n      tag_4\n      jumpi\n      dup1\n      0x3477ee2e\n      eq\n      tag_5\n      jumpi\n    tag_2:\n      0x00\n      dup1\n      revert\n        /* \"SecureVoting.sol\":874:1317  function vote(uint256 candidateIndex) public nonReentrant {... */\n    tag_3:\n      tag_11\n      0x04\n      dup1\n      calldatasize\n      sub\n      dup2\n      add\n      swap1\n      tag_12\n      swap2\n      swap1\n      tag_13\n      jump\t// in\n    tag_12:\n      tag_14\n      jump\t// in\n    tag_11:\n      stop\n        /* \"SecureVoting.sol\":284:324  mapping(address => bool) public hasVoted */\n    tag_4:\n      tag_15\n      0x04\n      dup1\n      calldatasize\n      sub\n      dup2\n      add\n      swap1\n      tag_16\n      swap2\n      swap1\n      tag_17\n      jump\t// in\n    tag_16:\n      tag_18\n      jump\t// in\n    tag_15:\n      mload(0x40)\n      tag_19\n      swap2\n      swap1\n      tag_20\n      jump\t// in\n    tag_19:\n      mload(0x40)\n      dup1\n      swap2\n      sub\n      swap1\n      return\n        /* \"SecureVoting.sol\":331:360  Candidate[] public candidates */\n    tag_5:\n      tag_21\n      0x04\n      dup1\n      calldatasize\n      sub\n      dup2\n      add\n      swap1\n      tag_22\n      swap2\n      swap1\n      tag_13\n      jump\t// in\n    tag_22:\n      tag_23\n      jump\t// in\n    tag_21:\n      mload(0x40)\n      tag_24\n      swap3\n      swap2\n      swap1\n      tag_25\n      jump\t// in\n    tag_24:\n      mload(0x40)\n      dup1\n      swap2\n      sub\n      swap1\n      return\n        /* \"SecureVoting.sol\":1439:1846  function getWinner() public view returns (string memory) {... */\n    tag_6:\n      tag_26\n      tag_27\n      jump\t// in\n    tag_26:\n      mload(0x40)\n      tag_28\n      swap2\n      swap1\n      tag_29\n      jump\t// in\n    tag_28:\n      mload(0x40)\n      dup1\n      swap2\n      sub\n      swap1\n      return\n        /* \"SecureVoting.sol\":367:389  bool public votingOpen */\n    tag_7:\n      tag_30\n      tag_31\n      jump\t// in\n    tag_30:\n      mload(0x40)\n      tag_32\n      swap2\n      swap1\n      tag_20\n      jump\t// in\n    tag_32:\n      mload(0x40)\n      dup1\n      swap2\n      sub\n      swap1\n      return\n        /* \"SecureVoting.sol\":1325:1431  function closeVoting() public onlyAdmin {... */\n    tag_8:\n      tag_33\n      tag_34\n      jump\t// in\n    tag_33:\n      stop\n        /* \"SecureVoting.sol\":257:277  address public admin */\n    tag_9:\n      tag_35\n      tag_36\n      jump\t// in\n    tag_35:\n      mload(0x40)\n      tag_37\n      swap2\n      swap1\n      tag_38\n      jump\t// in\n    tag_37:\n      mload(0x40)\n      dup1\n      swap2\n      sub\n      swap1\n      return\n        /* \"SecureVoting.sol\":874:1317  function vote(uint256 candidateIndex) public nonReentrant {... */\n    tag_14:\n        /* \"@openzeppelin/contracts/security/ReentrancyGuard.sol\":2261:2282  _nonReentrantBefore() */\n      tag_40\n        /* \"@openzeppelin/contracts/security/ReentrancyGuard.sol\":2261:2280  _nonReentrantBefore */\n      tag_41\n        /* \"@openzeppelin/contracts/security/ReentrancyGuard.sol\":2261:2282  _nonReentrantBefore() */\n      jump\t// in\n    tag_40:\n        /* \"SecureVoting.sol\":951:961  votingOpen */\n      0x04\n      0x00\n      swap1\n      sload\n      swap1\n      0x0100\n      exp\n      swap1\n      div\n      0xff\n      and\n        /* \"SecureVoting.sol\":943:982  require(votingOpen, \"Voting is closed\") */\n      tag_43\n      jumpi\n      mload(0x40)\n      0x08c379a000000000000000000000000000000000000000000000000000000000\n      dup2\n      mstore\n      0x04\n      add\n      tag_44\n      swap1\n      tag_45\n      jump\t// in\n    tag_44:\n      mload(0x40)\n      dup1\n      swap2\n      sub\n      swap1\n      revert\n    tag_43:\n        /* \"SecureVoting.sol\":1002:1010  hasVoted */\n      0x02\n        /* \"SecureVoting.sol\":1002:1022  hasVoted[msg.sender] */\n      0x00\n        /* \"SecureVoting.sol\":1011:1021  msg.sender */\n      caller\n        /* \"SecureVoting.sol\":1002:1022  hasVoted[msg.sender] */\n      0xffffffffffffffffffffffffffffffffffffffff\n      and\n      0xffffffffffffffffffffffffffffffffffffffff\n      and\n      dup2\n      mstore\n      0x20\n      add\n      swap1\n      dup2\n      mstore\n      0x20\n      add\n      0x00\n      keccak256\n      0x00\n      swap1\n      sload\n      swap1\n      0x0100\n      exp\n      swap1\n      div\n      0xff\n      and\n        /* \"SecureVoting.sol\":1001:1022  !hasVoted[msg.sender] */\n      iszero\n        /* \"SecureVoting.sol\":993:1040  require(!hasVoted[msg.sender], \"Already voted\") */\n      tag_46\n      jumpi\n      mload(0x40)\n      0x08c379a000000000000000000000000000000000000000000000000000000000\n      dup2\n      mstore\n      0x04\n      add\n      tag_47\n      swap1\n      tag_48\n      jump\t// in\n    tag_47:\n      mload(0x40)\n      dup1\n      swap2\n      sub\n      swap1\n      revert\n    tag_46:\n        /* \"SecureVoting.sol\":1076:1086  candidates */\n      0x03\n        /* \"SecureVoting.sol\":1076:1093  candidates.length */\n      dup1\n      sload\n      swap1\n      pop\n        /* \"SecureVoting.sol\":1059:1073  candidateIndex */\n      dup2\n        /* \"SecureVoting.sol\":1059:1093  candidateIndex < candidates.length */\n      lt\n        /* \"SecureVoting.sol\":1051:1115  require(candidateIndex < candidates.length, \"Invalid candidate\") */\n      tag_49\n      jumpi\n      mload(0x40)\n      0x08c379a000000000000000000000000000000000000000000000000000000000\n      dup2\n      mstore\n      0x04\n      add\n      tag_50\n      swap1\n      tag_51\n      jump\t// in\n    tag_50:\n      mload(0x40)\n      dup1\n      swap2\n      sub\n      swap1\n      revert\n    tag_49:\n        /* \"SecureVoting.sol\":1199:1203  true */\n      0x01\n        /* \"SecureVoting.sol\":1176:1184  hasVoted */\n      0x02\n        /* \"SecureVoting.sol\":1176:1196  hasVoted[msg.sender] */\n      0x00\n        /* \"SecureVoting.sol\":1185:1195  msg.sender */\n      caller\n        /* \"SecureVoting.sol\":1176:1196  hasVoted[msg.sender] */\n      0xffffffffffffffffffffffffffffffffffffffff\n      and\n      0xffffffffffffffffffffffffffffffffffffffff\n      and\n      dup2\n      mstore\n      0x20\n      add\n      swap1\n      dup2\n      mstore\n      0x20\n      add\n      0x00\n      keccak256\n      0x00\n        /* \"SecureVoting.sol\":1176:1203  hasVoted[msg.sender] = true */\n      0x0100\n      exp\n      dup2\n      sload\n      dup2\n      0xff\n      mul\n      not\n      and\n      swap1\n      dup4\n      iszero\n      iszero\n      mul\n      or\n      swap1\n      sstore\n      pop\n        /* \"SecureVoting.sol\":1254:1255  1 */\n      0x01\n        /* \"SecureVoting.sol\":1214:1224  candidates */\n      0x03\n        /* \"SecureVoting.sol\":1225:1239  candidateIndex */\n      dup3\n        /* \"SecureVoting.sol\":1214:1240  candidates[candidateIndex] */\n      dup2\n      sload\n      dup2\n      lt\n      tag_52\n      jumpi\n      tag_53\n      tag_54\n      jump\t// in\n    tag_53:\n    tag_52:\n      swap1\n      0x00\n      mstore\n      keccak256(0x00, 0x20)\n      swap1\n      0x02\n      mul\n      add\n        /* \"SecureVoting.sol\":1214:1250  candidates[candidateIndex].voteCount */\n      0x01\n      add\n      0x00\n        /* \"SecureVoting.sol\":1214:1255  candidates[candidateIndex].voteCount += 1 */\n      dup3\n      dup3\n      sload\n      tag_56\n      swap2\n      swap1\n      tag_57\n      jump\t// in\n    tag_56:\n      swap3\n      pop\n      pop\n      dup2\n      swap1\n      sstore\n      pop\n        /* \"SecureVoting.sol\":1282:1292  msg.sender */\n      caller\n        /* \"SecureVoting.sol\":1273:1309  VoteCast(msg.sender, candidateIndex) */\n      0xffffffffffffffffffffffffffffffffffffffff\n      and\n      0xa36cc2bebb74db33e9f88110a07ef56e1b31b24b4c4f51b54b1664266e29f45b\n        /* \"SecureVoting.sol\":1294:1308  candidateIndex */\n      dup3\n        /* \"SecureVoting.sol\":1273:1309  VoteCast(msg.sender, candidateIndex) */\n      mload(0x40)\n      tag_58\n      swap2\n      swap1\n      tag_59\n      jump\t// in\n    tag_58:\n      mload(0x40)\n      dup1\n      swap2\n      sub\n      swap1\n      log2\n        /* \"@openzeppelin/contracts/security/ReentrancyGuard.sol\":2303:2323  _nonReentrantAfter() */\n      tag_60\n        /* \"@openzeppelin/contracts/security/ReentrancyGuard.sol\":2303:2321  _nonReentrantAfter */\n      tag_61\n        /* \"@openzeppelin/contracts/security/ReentrancyGuard.sol\":2303:2323  _nonReentrantAfter() */\n      jump\t// in\n    tag_60:\n        /* \"SecureVoting.sol\":874:1317  function vote(uint256 candidateIndex) public nonReentrant {... */\n      pop\n      jump\t// out\n        /* \"SecureVoting.sol\":284:324  mapping(address => bool) public hasVoted */\n    tag_18:\n      mstore(0x20, 0x02)\n      dup1\n      0x00\n      mstore\n      keccak256(0x00, 0x40)\n      0x00\n      swap2\n      pop\n      sload\n      swap1\n      0x0100\n      exp\n      swap1\n      div\n      0xff\n      and\n      dup2\n      jump\t// out\n        /* \"SecureVoting.sol\":331:360  Candidate[] public candidates */\n    tag_23:\n      0x03\n      dup2\n      dup2\n      sload\n      dup2\n      lt\n      tag_62\n      jumpi\n      0x00\n      dup1\n      revert\n    tag_62:\n      swap1\n      0x00\n      mstore\n      keccak256(0x00, 0x20)\n      swap1\n      0x02\n      mul\n      add\n      0x00\n      swap2\n      pop\n      swap1\n      pop\n      dup1\n      0x00\n      add\n      dup1\n      sload\n      tag_64\n      swap1\n      tag_65\n      jump\t// in\n    tag_64:\n      dup1\n      0x1f\n      add\n      0x20\n      dup1\n      swap2\n      div\n      mul\n      0x20\n      add\n      mload(0x40)\n      swap1\n      dup2\n      add\n      0x40\n      mstore\n      dup1\n      swap3\n      swap2\n      swap1\n      dup2\n      dup2\n      mstore\n      0x20\n      add\n      dup3\n      dup1\n      sload\n      tag_66\n      swap1\n      tag_65\n      jump\t// in\n    tag_66:\n      dup1\n      iszero\n      tag_67\n      jumpi\n      dup1\n      0x1f\n      lt\n      tag_68\n      jumpi\n      0x0100\n      dup1\n      dup4\n      sload\n      div\n      mul\n      dup4\n      mstore\n      swap2\n      0x20\n      add\n      swap2\n      jump(tag_67)\n    tag_68:\n      dup3\n      add\n      swap2\n      swap1\n      0x00\n      mstore\n      keccak256(0x00, 0x20)\n      swap1\n    tag_69:\n      dup2\n      sload\n      dup2\n      mstore\n      swap1\n      0x01\n      add\n      swap1\n      0x20\n      add\n      dup1\n      dup4\n      gt\n      tag_69\n      jumpi\n      dup3\n      swap1\n      sub\n      0x1f\n      and\n      dup3\n      add\n      swap2\n    tag_67:\n      pop\n      pop\n      pop\n      pop\n      pop\n      swap1\n      dup1\n      0x01\n      add\n      sload\n      swap1\n      pop\n      dup3\n      jump\t// out\n        /* \"SecureVoting.sol\":1439:1846  function getWinner() public view returns (string memory) {... */\n    tag_27:\n        /* \"SecureVoting.sol\":1481:1494  string memory */\n      0x60\n        /* \"SecureVoting.sol\":1507:1523  uint256 maxVotes */\n      0x00\n        /* \"SecureVoting.sol\":1538:1557  uint256 winnerIndex */\n      dup1\n        /* \"SecureVoting.sol\":1579:1588  uint256 i */\n      0x00\n        /* \"SecureVoting.sol\":1574:1791  for (uint256 i = 0; i < candidates.length; i++) {... */\n    tag_71:\n        /* \"SecureVoting.sol\":1598:1608  candidates */\n      0x03\n        /* \"SecureVoting.sol\":1598:1615  candidates.length */\n      dup1\n      sload\n      swap1\n      pop\n        /* \"SecureVoting.sol\":1594:1595  i */\n      dup2\n        /* \"SecureVoting.sol\":1594:1615  i < candidates.length */\n      lt\n        /* \"SecureVoting.sol\":1574:1791  for (uint256 i = 0; i < candidates.length; i++) {... */\n      iszero\n      tag_72\n      jumpi\n        /* \"SecureVoting.sol\":1667:1675  maxVotes */\n      dup3\n        /* \"SecureVoting.sol\":1641:1651  candidates */\n      0x03\n        /* \"SecureVoting.sol\":1652:1653  i */\n      dup3\n        /* \"SecureVoting.sol\":1641:1654  candidates[i] */\n      dup2\n      sload\n      dup2\n      lt\n      tag_74\n      jumpi\n      tag_75\n      tag_54\n      jump\t// in\n    tag_75:\n    tag_74:\n      swap1\n      0x00\n      mstore\n      keccak256(0x00, 0x20)\n      swap1\n      0x02\n      mul\n      add\n        /* \"SecureVoting.sol\":1641:1664  candidates[i].voteCount */\n      0x01\n      add\n      sload\n        /* \"SecureVoting.sol\":1641:1675  candidates[i].voteCount > maxVotes */\n      gt\n        /* \"SecureVoting.sol\":1637:1780  if (candidates[i].voteCount > maxVotes) {... */\n      iszero\n      tag_77\n      jumpi\n        /* \"SecureVoting.sol\":1707:1717  candidates */\n      0x03\n        /* \"SecureVoting.sol\":1718:1719  i */\n      dup2\n        /* \"SecureVoting.sol\":1707:1720  candidates[i] */\n      dup2\n      sload\n      dup2\n      lt\n      tag_78\n      jumpi\n      tag_79\n      tag_54\n      jump\t// in\n    tag_79:\n    tag_78:\n      swap1\n      0x00\n      mstore\n      keccak256(0x00, 0x20)\n      swap1\n      0x02\n      mul\n      add\n        /* \"SecureVoting.sol\":1707:1730  candidates[i].voteCount */\n      0x01\n      add\n      sload\n        /* \"SecureVoting.sol\":1696:1730  maxVotes = candidates[i].voteCount */\n      swap3\n      pop\n        /* \"SecureVoting.sol\":1763:1764  i */\n      dup1\n        /* \"SecureVoting.sol\":1749:1764  winnerIndex = i */\n      swap2\n      pop\n        /* \"SecureVoting.sol\":1637:1780  if (candidates[i].voteCount > maxVotes) {... */\n    tag_77:\n        /* \"SecureVoting.sol\":1617:1620  i++ */\n      dup1\n      dup1\n      0x01\n      add\n      swap2\n      pop\n      pop\n        /* \"SecureVoting.sol\":1574:1791  for (uint256 i = 0; i < candidates.length; i++) {... */\n      jump(tag_71)\n    tag_72:\n      pop\n        /* \"SecureVoting.sol\":1810:1820  candidates */\n      0x03\n        /* \"SecureVoting.sol\":1821:1832  winnerIndex */\n      dup2\n        /* \"SecureVoting.sol\":1810:1833  candidates[winnerIndex] */\n      dup2\n      sload\n      dup2\n      lt\n      tag_81\n      jumpi\n      tag_82\n      tag_54\n      jump\t// in\n    tag_82:\n    tag_81:\n      swap1\n      0x00\n      mstore\n      keccak256(0x00, 0x20)\n      swap1\n      0x02\n      mul\n      add\n        /* \"SecureVoting.sol\":1810:1838  candidates[winnerIndex].name */\n      0x00\n      add\n        /* \"SecureVoting.sol\":1803:1838  return candidates[winnerIndex].name */\n      dup1\n      sload\n      tag_84\n      swap1\n      tag_65\n      jump\t// in\n    tag_84:\n      dup1\n      0x1f\n      add\n      0x20\n      dup1\n      swap2\n      div\n      mul\n      0x20\n      add\n      mload(0x40)\n      swap1\n      dup2\n      add\n      0x40\n      mstore\n      dup1\n      swap3\n      swap2\n      swap1\n      dup2\n      dup2\n      mstore\n      0x20\n      add\n      dup3\n      dup1\n      sload\n      tag_85\n      swap1\n      tag_65\n      jump\t// in\n    tag_85:\n      dup1\n      iszero\n      tag_86\n      jumpi\n      dup1\n      0x1f\n      lt\n      tag_87\n      jumpi\n      0x0100\n      dup1\n      dup4\n      sload\n      div\n      mul\n      dup4\n      mstore\n      swap2\n      0x20\n      add\n      swap2\n      jump(tag_86)\n    tag_87:\n      dup3\n      add\n      swap2\n      swap1\n      0x00\n      mstore\n      keccak256(0x00, 0x20)\n      swap1\n    tag_88:\n      dup2\n      sload\n      dup2\n      mstore\n      swap1\n      0x01\n      add\n      swap1\n      0x20\n      add\n      dup1\n      dup4\n      gt\n      tag_88\n      jumpi\n      dup3\n      swap1\n      sub\n      0x1f\n      and\n      dup3\n      add\n      swap2\n    tag_86:\n      pop\n      pop\n      pop\n      pop\n      pop\n      swap3\n      pop\n      pop\n      pop\n        /* \"SecureVoting.sol\":1439:1846  function getWinner() public view returns (string memory) {... */\n      swap1\n      jump\t// out\n        /* \"SecureVoting.sol\":367:389  bool public votingOpen */\n    tag_31:\n      0x04\n      0x00\n      swap1\n      sload\n      swap1\n      0x0100\n      exp\n      swap1\n      div\n      0xff\n      and\n      dup2\n      jump\t// out\n        /* \"SecureVoting.sol\":1325:1431  function closeVoting() public onlyAdmin {... */\n    tag_34:\n        /* \"SecureVoting.sol\":548:553  admin */\n      0x01\n      0x00\n      swap1\n      sload\n      swap1\n      0x0100\n      exp\n      swap1\n      div\n      0xffffffffffffffffffffffffffffffffffffffff\n      and\n        /* \"SecureVoting.sol\":534:553  msg.sender == admin */\n      0xffffffffffffffffffffffffffffffffffffffff\n      and\n        /* \"SecureVoting.sol\":534:544  msg.sender */\n      caller\n        /* \"SecureVoting.sol\":534:553  msg.sender == admin */\n      0xffffffffffffffffffffffffffffffffffffffff\n      and\n      eq\n        /* \"SecureVoting.sol\":526:592  require(msg.sender == admin, \"Only admin can perform this action\") */\n      tag_90\n      jumpi\n      mload(0x40)\n      0x08c379a000000000000000000000000000000000000000000000000000000000\n      dup2\n      mstore\n      0x04\n      add\n      tag_91\n      swap1\n      tag_92\n      jump\t// in\n    tag_91:\n      mload(0x40)\n      dup1\n      swap2\n      sub\n      swap1\n      revert\n    tag_90:\n        /* \"SecureVoting.sol\":1389:1394  false */\n      0x00\n        /* \"SecureVoting.sol\":1376:1386  votingOpen */\n      0x04\n      0x00\n        /* \"SecureVoting.sol\":1376:1394  votingOpen = false */\n      0x0100\n      exp\n      dup2\n      sload\n      dup2\n      0xff\n      mul\n      not\n      and\n      swap1\n      dup4\n      iszero\n      iszero\n      mul\n      or\n      swap1\n      sstore\n      pop\n        /* \"SecureVoting.sol\":1410:1423  VotingEnded() */\n      0x7a19ed057db79e3c2fa0b97a54b43bef4fce74b31bb6c01af514b9a18a7f70ab\n      mload(0x40)\n      mload(0x40)\n      dup1\n      swap2\n      sub\n      swap1\n      log1\n        /* \"SecureVoting.sol\":1325:1431  function closeVoting() public onlyAdmin {... */\n      jump\t// out\n        /* \"SecureVoting.sol\":257:277  address public admin */\n    tag_36:\n      0x01\n      0x00\n      swap1\n      sload\n      swap1\n      0x0100\n      exp\n      swap1\n      div\n      0xffffffffffffffffffffffffffffffffffffffff\n      and\n      dup2\n      jump\t// out\n        /* \"@openzeppelin/contracts/security/ReentrancyGuard.sol\":2336:2623  function _nonReentrantBefore() private {... */\n    tag_41:\n        /* \"@openzeppelin/contracts/security/ReentrancyGuard.sol\":1759:1760  2 */\n      0x02\n        /* \"@openzeppelin/contracts/security/ReentrancyGuard.sol\":2468:2475  _status */\n      sload(0x00)\n        /* \"@openzeppelin/contracts/security/ReentrancyGuard.sol\":2468:2487  _status != _ENTERED */\n      sub\n        /* \"@openzeppelin/contracts/security/ReentrancyGuard.sol\":2460:2523  require(_status != _ENTERED, \"ReentrancyGuard: reentrant call\") */\n      tag_95\n      jumpi\n      mload(0x40)\n      0x08c379a000000000000000000000000000000000000000000000000000000000\n      dup2\n      mstore\n      0x04\n      add\n      tag_96\n      swap1\n      tag_97\n      jump\t// in\n    tag_96:\n      mload(0x40)\n      dup1\n      swap2\n      sub\n      swap1\n      revert\n    tag_95:\n        /* \"@openzeppelin/contracts/security/ReentrancyGuard.sol\":1759:1760  2 */\n      0x02\n        /* \"@openzeppelin/contracts/security/ReentrancyGuard.sol\":2598:2605  _status */\n      0x00\n        /* \"@openzeppelin/contracts/security/ReentrancyGuard.sol\":2598:2616  _status = _ENTERED */\n      dup2\n      swap1\n      sstore\n      pop\n        /* \"@openzeppelin/contracts/security/ReentrancyGuard.sol\":2336:2623  function _nonReentrantBefore() private {... */\n      jump\t// out\n        /* \"@openzeppelin/contracts/security/ReentrancyGuard.sol\":2629:2838  function _nonReentrantAfter() private {... */\n    tag_61:\n        /* \"@openzeppelin/contracts/security/ReentrancyGuard.sol\":1716:1717  1 */\n      0x01\n        /* \"@openzeppelin/contracts/security/ReentrancyGuard.sol\":2809:2816  _status */\n      0x00\n        /* \"@openzeppelin/contracts/security/ReentrancyGuard.sol\":2809:2831  _status = _NOT_ENTERED */\n      dup2\n      swap1\n      sstore\n      pop\n        /* \"@openzeppelin/contracts/security/ReentrancyGuard.sol\":2629:2838  function _nonReentrantAfter() private {... */\n      jump\t// out\n        /* \"#utility.yul\":88:205   */\n    tag_100:\n        /* \"#utility.yul\":197:198   */\n      0x00\n        /* \"#utility.yul\":194:195   */\n      dup1\n        /* \"#utility.yul\":187:199   */\n      revert\n        /* \"#utility.yul\":334:411   */\n    tag_102:\n        /* \"#utility.yul\":371:378   */\n      0x00\n        /* \"#utility.yul\":400:405   */\n      dup2\n        /* \"#utility.yul\":389:405   */\n      swap1\n      pop\n        /* \"#utility.yul\":334:411   */\n      swap2\n      swap1\n      pop\n      jump\t// out\n        /* \"#utility.yul\":417:539   */\n    tag_103:\n        /* \"#utility.yul\":490:514   */\n      tag_136\n        /* \"#utility.yul\":508:513   */\n      dup2\n        /* \"#utility.yul\":490:514   */\n      tag_102\n      jump\t// in\n    tag_136:\n        /* \"#utility.yul\":483:488   */\n      dup2\n        /* \"#utility.yul\":480:515   */\n      eq\n        /* \"#utility.yul\":470:533   */\n      tag_137\n      jumpi\n        /* \"#utility.yul\":529:530   */\n      0x00\n        /* \"#utility.yul\":526:527   */\n      dup1\n        /* \"#utility.yul\":519:531   */\n      revert\n        /* \"#utility.yul\":470:533   */\n    tag_137:\n        /* \"#utility.yul\":417:539   */\n      pop\n      jump\t// out\n        /* \"#utility.yul\":545:684   */\n    tag_104:\n        /* \"#utility.yul\":591:596   */\n      0x00\n        /* \"#utility.yul\":629:635   */\n      dup2\n        /* \"#utility.yul\":616:636   */\n      calldataload\n        /* \"#utility.yul\":607:636   */\n      swap1\n      pop\n        /* \"#utility.yul\":645:678   */\n      tag_139\n        /* \"#utility.yul\":672:677   */\n      dup2\n        /* \"#utility.yul\":645:678   */\n      tag_103\n      jump\t// in\n    tag_139:\n        /* \"#utility.yul\":545:684   */\n      swap3\n      swap2\n      pop\n      pop\n      jump\t// out\n        /* \"#utility.yul\":690:1019   */\n    tag_13:\n        /* \"#utility.yul\":749:755   */\n      0x00\n        /* \"#utility.yul\":798:800   */\n      0x20\n        /* \"#utility.yul\":786:795   */\n      dup3\n        /* \"#utility.yul\":777:784   */\n      dup5\n        /* \"#utility.yul\":773:796   */\n      sub\n        /* \"#utility.yul\":769:801   */\n      slt\n        /* \"#utility.yul\":766:885   */\n      iszero\n      tag_141\n      jumpi\n        /* \"#utility.yul\":804:883   */\n      tag_142\n      tag_100\n      jump\t// in\n    tag_142:\n        /* \"#utility.yul\":766:885   */\n    tag_141:\n        /* \"#utility.yul\":924:925   */\n      0x00\n        /* \"#utility.yul\":949:1002   */\n      tag_143\n        /* \"#utility.yul\":994:1001   */\n      dup5\n        /* \"#utility.yul\":985:991   */\n      dup3\n        /* \"#utility.yul\":974:983   */\n      dup6\n        /* \"#utility.yul\":970:992   */\n      add\n        /* \"#utility.yul\":949:1002   */\n      tag_104\n      jump\t// in\n    tag_143:\n        /* \"#utility.yul\":939:1002   */\n      swap2\n      pop\n        /* \"#utility.yul\":895:1012   */\n      pop\n        /* \"#utility.yul\":690:1019   */\n      swap3\n      swap2\n      pop\n      pop\n      jump\t// out\n        /* \"#utility.yul\":1025:1151   */\n    tag_105:\n        /* \"#utility.yul\":1062:1069   */\n      0x00\n        /* \"#utility.yul\":1102:1144   */\n      0xffffffffffffffffffffffffffffffffffffffff\n        /* \"#utility.yul\":1095:1100   */\n      dup3\n        /* \"#utility.yul\":1091:1145   */\n      and\n        /* \"#utility.yul\":1080:1145   */\n      swap1\n      pop\n        /* \"#utility.yul\":1025:1151   */\n      swap2\n      swap1\n      pop\n      jump\t// out\n        /* \"#utility.yul\":1157:1253   */\n    tag_106:\n        /* \"#utility.yul\":1194:1201   */\n      0x00\n        /* \"#utility.yul\":1223:1247   */\n      tag_146\n        /* \"#utility.yul\":1241:1246   */\n      dup3\n        /* \"#utility.yul\":1223:1247   */\n      tag_105\n      jump\t// in\n    tag_146:\n        /* \"#utility.yul\":1212:1247   */\n      swap1\n      pop\n        /* \"#utility.yul\":1157:1253   */\n      swap2\n      swap1\n      pop\n      jump\t// out\n        /* \"#utility.yul\":1259:1381   */\n    tag_107:\n        /* \"#utility.yul\":1332:1356   */\n      tag_148\n        /* \"#utility.yul\":1350:1355   */\n      dup2\n        /* \"#utility.yul\":1332:1356   */\n      tag_106\n      jump\t// in\n    tag_148:\n        /* \"#utility.yul\":1325:1330   */\n      dup2\n        /* \"#utility.yul\":1322:1357   */\n      eq\n        /* \"#utility.yul\":1312:1375   */\n      tag_149\n      jumpi\n        /* \"#utility.yul\":1371:1372   */\n      0x00\n        /* \"#utility.yul\":1368:1369   */\n      dup1\n        /* \"#utility.yul\":1361:1373   */\n      revert\n        /* \"#utility.yul\":1312:1375   */\n    tag_149:\n        /* \"#utility.yul\":1259:1381   */\n      pop\n      jump\t// out\n        /* \"#utility.yul\":1387:1526   */\n    tag_108:\n        /* \"#utility.yul\":1433:1438   */\n      0x00\n        /* \"#utility.yul\":1471:1477   */\n      dup2\n        /* \"#utility.yul\":1458:1478   */\n      calldataload\n        /* \"#utility.yul\":1449:1478   */\n      swap1\n      pop\n        /* \"#utility.yul\":1487:1520   */\n      tag_151\n        /* \"#utility.yul\":1514:1519   */\n      dup2\n        /* \"#utility.yul\":1487:1520   */\n      tag_107\n      jump\t// in\n    tag_151:\n        /* \"#utility.yul\":1387:1526   */\n      swap3\n      swap2\n      pop\n      pop\n      jump\t// out\n        /* \"#utility.yul\":1532:1861   */\n    tag_17:\n        /* \"#utility.yul\":1591:1597   */\n      0x00\n        /* \"#utility.yul\":1640:1642   */\n      0x20\n        /* \"#utility.yul\":1628:1637   */\n      dup3\n        /* \"#utility.yul\":1619:1626   */\n      dup5\n        /* \"#utility.yul\":1615:1638   */\n      sub\n        /* \"#utility.yul\":1611:1643   */\n      slt\n        /* \"#utility.yul\":1608:1727   */\n      iszero\n      tag_153\n      jumpi\n        /* \"#utility.yul\":1646:1725   */\n      tag_154\n      tag_100\n      jump\t// in\n    tag_154:\n        /* \"#utility.yul\":1608:1727   */\n    tag_153:\n        /* \"#utility.yul\":1766:1767   */\n      0x00\n        /* \"#utility.yul\":1791:1844   */\n      tag_155\n        /* \"#utility.yul\":1836:1843   */\n      dup5\n        /* \"#utility.yul\":1827:1833   */\n      dup3\n        /* \"#utility.yul\":1816:1825   */\n      dup6\n        /* \"#utility.yul\":1812:1834   */\n      add\n        /* \"#utility.yul\":1791:1844   */\n      tag_108\n      jump\t// in\n    tag_155:\n        /* \"#utility.yul\":1781:1844   */\n      swap2\n      pop\n        /* \"#utility.yul\":1737:1854   */\n      pop\n        /* \"#utility.yul\":1532:1861   */\n      swap3\n      swap2\n      pop\n      pop\n      jump\t// out\n        /* \"#utility.yul\":1867:1957   */\n    tag_109:\n        /* \"#utility.yul\":1901:1908   */\n      0x00\n        /* \"#utility.yul\":1944:1949   */\n      dup2\n        /* \"#utility.yul\":1937:1950   */\n      iszero\n        /* \"#utility.yul\":1930:1951   */\n      iszero\n        /* \"#utility.yul\":1919:1951   */\n      swap1\n      pop\n        /* \"#utility.yul\":1867:1957   */\n      swap2\n      swap1\n      pop\n      jump\t// out\n        /* \"#utility.yul\":1963:2072   */\n    tag_110:\n        /* \"#utility.yul\":2044:2065   */\n      tag_158\n        /* \"#utility.yul\":2059:2064   */\n      dup2\n        /* \"#utility.yul\":2044:2065   */\n      tag_109\n      jump\t// in\n    tag_158:\n        /* \"#utility.yul\":2039:2042   */\n      dup3\n        /* \"#utility.yul\":2032:2066   */\n      mstore\n        /* \"#utility.yul\":1963:2072   */\n      pop\n      pop\n      jump\t// out\n        /* \"#utility.yul\":2078:2288   */\n    tag_20:\n        /* \"#utility.yul\":2165:2169   */\n      0x00\n        /* \"#utility.yul\":2203:2205   */\n      0x20\n        /* \"#utility.yul\":2192:2201   */\n      dup3\n        /* \"#utility.yul\":2188:2206   */\n      add\n        /* \"#utility.yul\":2180:2206   */\n      swap1\n      pop\n        /* \"#utility.yul\":2216:2281   */\n      tag_160\n        /* \"#utility.yul\":2278:2279   */\n      0x00\n        /* \"#utility.yul\":2267:2276   */\n      dup4\n        /* \"#utility.yul\":2263:2280   */\n      add\n        /* \"#utility.yul\":2254:2260   */\n      dup5\n        /* \"#utility.yul\":2216:2281   */\n      tag_110\n      jump\t// in\n    tag_160:\n        /* \"#utility.yul\":2078:2288   */\n      swap3\n      swap2\n      pop\n      pop\n      jump\t// out\n        /* \"#utility.yul\":2294:2393   */\n    tag_111:\n        /* \"#utility.yul\":2346:2352   */\n      0x00\n        /* \"#utility.yul\":2380:2385   */\n      dup2\n        /* \"#utility.yul\":2374:2386   */\n      mload\n        /* \"#utility.yul\":2364:2386   */\n      swap1\n      pop\n        /* \"#utility.yul\":2294:2393   */\n      swap2\n      swap1\n      pop\n      jump\t// out\n        /* \"#utility.yul\":2399:2568   */\n    tag_112:\n        /* \"#utility.yul\":2483:2494   */\n      0x00\n        /* \"#utility.yul\":2517:2523   */\n      dup3\n        /* \"#utility.yul\":2512:2515   */\n      dup3\n        /* \"#utility.yul\":2505:2524   */\n      mstore\n        /* \"#utility.yul\":2557:2561   */\n      0x20\n        /* \"#utility.yul\":2552:2555   */\n      dup3\n        /* \"#utility.yul\":2548:2562   */\n      add\n        /* \"#utility.yul\":2533:2562   */\n      swap1\n      pop\n        /* \"#utility.yul\":2399:2568   */\n      swap3\n      swap2\n      pop\n      pop\n      jump\t// out\n        /* \"#utility.yul\":2574:2713   */\n    tag_113:\n        /* \"#utility.yul\":2663:2669   */\n      dup3\n        /* \"#utility.yul\":2658:2661   */\n      dup2\n        /* \"#utility.yul\":2653:2656   */\n      dup4\n        /* \"#utility.yul\":2647:2670   */\n      mcopy\n        /* \"#utility.yul\":2704:2705   */\n      0x00\n        /* \"#utility.yul\":2695:2701   */\n      dup4\n        /* \"#utility.yul\":2690:2693   */\n      dup4\n        /* \"#utility.yul\":2686:2702   */\n      add\n        /* \"#utility.yul\":2679:2706   */\n      mstore\n        /* \"#utility.yul\":2574:2713   */\n      pop\n      pop\n      pop\n      jump\t// out\n        /* \"#utility.yul\":2719:2821   */\n    tag_114:\n        /* \"#utility.yul\":2760:2766   */\n      0x00\n        /* \"#utility.yul\":2811:2813   */\n      0x1f\n        /* \"#utility.yul\":2807:2814   */\n      not\n        /* \"#utility.yul\":2802:2804   */\n      0x1f\n        /* \"#utility.yul\":2795:2800   */\n      dup4\n        /* \"#utility.yul\":2791:2805   */\n      add\n        /* \"#utility.yul\":2787:2815   */\n      and\n        /* \"#utility.yul\":2777:2815   */\n      swap1\n      pop\n        /* \"#utility.yul\":2719:2821   */\n      swap2\n      swap1\n      pop\n      jump\t// out\n        /* \"#utility.yul\":2827:3204   */\n    tag_115:\n        /* \"#utility.yul\":2915:2918   */\n      0x00\n        /* \"#utility.yul\":2943:2982   */\n      tag_166\n        /* \"#utility.yul\":2976:2981   */\n      dup3\n        /* \"#utility.yul\":2943:2982   */\n      tag_111\n      jump\t// in\n    tag_166:\n        /* \"#utility.yul\":2998:3069   */\n      tag_167\n        /* \"#utility.yul\":3062:3068   */\n      dup2\n        /* \"#utility.yul\":3057:3060   */\n      dup6\n        /* \"#utility.yul\":2998:3069   */\n      tag_112\n      jump\t// in\n    tag_167:\n        /* \"#utility.yul\":2991:3069   */\n      swap4\n      pop\n        /* \"#utility.yul\":3078:3143   */\n      tag_168\n        /* \"#utility.yul\":3136:3142   */\n      dup2\n        /* \"#utility.yul\":3131:3134   */\n      dup6\n        /* \"#utility.yul\":3124:3128   */\n      0x20\n        /* \"#utility.yul\":3117:3122   */\n      dup7\n        /* \"#utility.yul\":3113:3129   */\n      add\n        /* \"#utility.yul\":3078:3143   */\n      tag_113\n      jump\t// in\n    tag_168:\n        /* \"#utility.yul\":3168:3197   */\n      tag_169\n        /* \"#utility.yul\":3190:3196   */\n      dup2\n        /* \"#utility.yul\":3168:3197   */\n      tag_114\n      jump\t// in\n    tag_169:\n        /* \"#utility.yul\":3163:3166   */\n      dup5\n        /* \"#utility.yul\":3159:3198   */\n      add\n        /* \"#utility.yul\":3152:3198   */\n      swap2\n      pop\n        /* \"#utility.yul\":2919:3204   */\n      pop\n        /* \"#utility.yul\":2827:3204   */\n      swap3\n      swap2\n      pop\n      pop\n      jump\t// out\n        /* \"#utility.yul\":3210:3328   */\n    tag_116:\n        /* \"#utility.yul\":3297:3321   */\n      tag_171\n        /* \"#utility.yul\":3315:3320   */\n      dup2\n        /* \"#utility.yul\":3297:3321   */\n      tag_102\n      jump\t// in\n    tag_171:\n        /* \"#utility.yul\":3292:3295   */\n      dup3\n        /* \"#utility.yul\":3285:3322   */\n      mstore\n        /* \"#utility.yul\":3210:3328   */\n      pop\n      pop\n      jump\t// out\n        /* \"#utility.yul\":3334:3757   */\n    tag_25:\n        /* \"#utility.yul\":3475:3479   */\n      0x00\n        /* \"#utility.yul\":3513:3515   */\n      0x40\n        /* \"#utility.yul\":3502:3511   */\n      dup3\n        /* \"#utility.yul\":3498:3516   */\n      add\n        /* \"#utility.yul\":3490:3516   */\n      swap1\n      pop\n        /* \"#utility.yul\":3562:3571   */\n      dup2\n        /* \"#utility.yul\":3556:3560   */\n      dup2\n        /* \"#utility.yul\":3552:3572   */\n      sub\n        /* \"#utility.yul\":3548:3549   */\n      0x00\n        /* \"#utility.yul\":3537:3546   */\n      dup4\n        /* \"#utility.yul\":3533:3550   */\n      add\n        /* \"#utility.yul\":3526:3573   */\n      mstore\n        /* \"#utility.yul\":3590:3668   */\n      tag_173\n        /* \"#utility.yul\":3663:3667   */\n      dup2\n        /* \"#utility.yul\":3654:3660   */\n      dup6\n        /* \"#utility.yul\":3590:3668   */\n      tag_115\n      jump\t// in\n    tag_173:\n        /* \"#utility.yul\":3582:3668   */\n      swap1\n      pop\n        /* \"#utility.yul\":3678:3750   */\n      tag_174\n        /* \"#utility.yul\":3746:3748   */\n      0x20\n        /* \"#utility.yul\":3735:3744   */\n      dup4\n        /* \"#utility.yul\":3731:3749   */\n      add\n        /* \"#utility.yul\":3722:3728   */\n      dup5\n        /* \"#utility.yul\":3678:3750   */\n      tag_116\n      jump\t// in\n    tag_174:\n        /* \"#utility.yul\":3334:3757   */\n      swap4\n      swap3\n      pop\n      pop\n      pop\n      jump\t// out\n        /* \"#utility.yul\":3763:4076   */\n    tag_29:\n        /* \"#utility.yul\":3876:3880   */\n      0x00\n        /* \"#utility.yul\":3914:3916   */\n      0x20\n        /* \"#utility.yul\":3903:3912   */\n      dup3\n        /* \"#utility.yul\":3899:3917   */\n      add\n        /* \"#utility.yul\":3891:3917   */\n      swap1\n      pop\n        /* \"#utility.yul\":3963:3972   */\n      dup2\n        /* \"#utility.yul\":3957:3961   */\n      dup2\n        /* \"#utility.yul\":3953:3973   */\n      sub\n        /* \"#utility.yul\":3949:3950   */\n      0x00\n        /* \"#utility.yul\":3938:3947   */\n      dup4\n        /* \"#utility.yul\":3934:3951   */\n      add\n        /* \"#utility.yul\":3927:3974   */\n      mstore\n        /* \"#utility.yul\":3991:4069   */\n      tag_176\n        /* \"#utility.yul\":4064:4068   */\n      dup2\n        /* \"#utility.yul\":4055:4061   */\n      dup5\n        /* \"#utility.yul\":3991:4069   */\n      tag_115\n      jump\t// in\n    tag_176:\n        /* \"#utility.yul\":3983:4069   */\n      swap1\n      pop\n        /* \"#utility.yul\":3763:4076   */\n      swap3\n      swap2\n      pop\n      pop\n      jump\t// out\n        /* \"#utility.yul\":4082:4200   */\n    tag_117:\n        /* \"#utility.yul\":4169:4193   */\n      tag_178\n        /* \"#utility.yul\":4187:4192   */\n      dup2\n        /* \"#utility.yul\":4169:4193   */\n      tag_106\n      jump\t// in\n    tag_178:\n        /* \"#utility.yul\":4164:4167   */\n      dup3\n        /* \"#utility.yul\":4157:4194   */\n      mstore\n        /* \"#utility.yul\":4082:4200   */\n      pop\n      pop\n      jump\t// out\n        /* \"#utility.yul\":4206:4428   */\n    tag_38:\n        /* \"#utility.yul\":4299:4303   */\n      0x00\n        /* \"#utility.yul\":4337:4339   */\n      0x20\n        /* \"#utility.yul\":4326:4335   */\n      dup3\n        /* \"#utility.yul\":4322:4340   */\n      add\n        /* \"#utility.yul\":4314:4340   */\n      swap1\n      pop\n        /* \"#utility.yul\":4350:4421   */\n      tag_180\n        /* \"#utility.yul\":4418:4419   */\n      0x00\n        /* \"#utility.yul\":4407:4416   */\n      dup4\n        /* \"#utility.yul\":4403:4420   */\n      add\n        /* \"#utility.yul\":4394:4400   */\n      dup5\n        /* \"#utility.yul\":4350:4421   */\n      tag_117\n      jump\t// in\n    tag_180:\n        /* \"#utility.yul\":4206:4428   */\n      swap3\n      swap2\n      pop\n      pop\n      jump\t// out\n        /* \"#utility.yul\":4434:4600   */\n    tag_118:\n        /* \"#utility.yul\":4574:4592   */\n      0x566f74696e6720697320636c6f73656400000000000000000000000000000000\n        /* \"#utility.yul\":4570:4571   */\n      0x00\n        /* \"#utility.yul\":4562:4568   */\n      dup3\n        /* \"#utility.yul\":4558:4572   */\n      add\n        /* \"#utility.yul\":4551:4593   */\n      mstore\n        /* \"#utility.yul\":4434:4600   */\n      pop\n      jump\t// out\n        /* \"#utility.yul\":4606:4972   */\n    tag_119:\n        /* \"#utility.yul\":4748:4751   */\n      0x00\n        /* \"#utility.yul\":4769:4836   */\n      tag_183\n        /* \"#utility.yul\":4833:4835   */\n      0x10\n        /* \"#utility.yul\":4828:4831   */\n      dup4\n        /* \"#utility.yul\":4769:4836   */\n      tag_112\n      jump\t// in\n    tag_183:\n        /* \"#utility.yul\":4762:4836   */\n      swap2\n      pop\n        /* \"#utility.yul\":4845:4938   */\n      tag_184\n        /* \"#utility.yul\":4934:4937   */\n      dup3\n        /* \"#utility.yul\":4845:4938   */\n      tag_118\n      jump\t// in\n    tag_184:\n        /* \"#utility.yul\":4963:4965   */\n      0x20\n        /* \"#utility.yul\":4958:4961   */\n      dup3\n        /* \"#utility.yul\":4954:4966   */\n      add\n        /* \"#utility.yul\":4947:4966   */\n      swap1\n      pop\n        /* \"#utility.yul\":4606:4972   */\n      swap2\n      swap1\n      pop\n      jump\t// out\n        /* \"#utility.yul\":4978:5397   */\n    tag_45:\n        /* \"#utility.yul\":5144:5148   */\n      0x00\n        /* \"#utility.yul\":5182:5184   */\n      0x20\n        /* \"#utility.yul\":5171:5180   */\n      dup3\n        /* \"#utility.yul\":5167:5185   */\n      add\n        /* \"#utility.yul\":5159:5185   */\n      swap1\n      pop\n        /* \"#utility.yul\":5231:5240   */\n      dup2\n        /* \"#utility.yul\":5225:5229   */\n      dup2\n        /* \"#utility.yul\":5221:5241   */\n      sub\n        /* \"#utility.yul\":5217:5218   */\n      0x00\n        /* \"#utility.yul\":5206:5215   */\n      dup4\n        /* \"#utility.yul\":5202:5219   */\n      add\n        /* \"#utility.yul\":5195:5242   */\n      mstore\n        /* \"#utility.yul\":5259:5390   */\n      tag_186\n        /* \"#utility.yul\":5385:5389   */\n      dup2\n        /* \"#utility.yul\":5259:5390   */\n      tag_119\n      jump\t// in\n    tag_186:\n        /* \"#utility.yul\":5251:5390   */\n      swap1\n      pop\n        /* \"#utility.yul\":4978:5397   */\n      swap2\n      swap1\n      pop\n      jump\t// out\n        /* \"#utility.yul\":5403:5566   */\n    tag_120:\n        /* \"#utility.yul\":5543:5558   */\n      0x416c726561647920766f74656400000000000000000000000000000000000000\n        /* \"#utility.yul\":5539:5540   */\n      0x00\n        /* \"#utility.yul\":5531:5537   */\n      dup3\n        /* \"#utility.yul\":5527:5541   */\n      add\n        /* \"#utility.yul\":5520:5559   */\n      mstore\n        /* \"#utility.yul\":5403:5566   */\n      pop\n      jump\t// out\n        /* \"#utility.yul\":5572:5938   */\n    tag_121:\n        /* \"#utility.yul\":5714:5717   */\n      0x00\n        /* \"#utility.yul\":5735:5802   */\n      tag_189\n        /* \"#utility.yul\":5799:5801   */\n      0x0d\n        /* \"#utility.yul\":5794:5797   */\n      dup4\n        /* \"#utility.yul\":5735:5802   */\n      tag_112\n      jump\t// in\n    tag_189:\n        /* \"#utility.yul\":5728:5802   */\n      swap2\n      pop\n        /* \"#utility.yul\":5811:5904   */\n      tag_190\n        /* \"#utility.yul\":5900:5903   */\n      dup3\n        /* \"#utility.yul\":5811:5904   */\n      tag_120\n      jump\t// in\n    tag_190:\n        /* \"#utility.yul\":5929:5931   */\n      0x20\n        /* \"#utility.yul\":5924:5927   */\n      dup3\n        /* \"#utility.yul\":5920:5932   */\n      add\n        /* \"#utility.yul\":5913:5932   */\n      swap1\n      pop\n        /* \"#utility.yul\":5572:5938   */\n      swap2\n      swap1\n      pop\n      jump\t// out\n        /* \"#utility.yul\":5944:6363   */\n    tag_48:\n        /* \"#utility.yul\":6110:6114   */\n      0x00\n        /* \"#utility.yul\":6148:6150   */\n      0x20\n        /* \"#utility.yul\":6137:6146   */\n      dup3\n        /* \"#utility.yul\":6133:6151   */\n      add\n        /* \"#utility.yul\":6125:6151   */\n      swap1\n      pop\n        /* \"#utility.yul\":6197:6206   */\n      dup2\n        /* \"#utility.yul\":6191:6195   */\n      dup2\n        /* \"#utility.yul\":6187:6207   */\n      sub\n        /* \"#utility.yul\":6183:6184   */\n      0x00\n        /* \"#utility.yul\":6172:6181   */\n      dup4\n        /* \"#utility.yul\":6168:6185   */\n      add\n        /* \"#utility.yul\":6161:6208   */\n      mstore\n        /* \"#utility.yul\":6225:6356   */\n      tag_192\n        /* \"#utility.yul\":6351:6355   */\n      dup2\n        /* \"#utility.yul\":6225:6356   */\n      tag_121\n      jump\t// in\n    tag_192:\n        /* \"#utility.yul\":6217:6356   */\n      swap1\n      pop\n        /* \"#utility.yul\":5944:6363   */\n      swap2\n      swap1\n      pop\n      jump\t// out\n        /* \"#utility.yul\":6369:6536   */\n    tag_122:\n        /* \"#utility.yul\":6509:6528   */\n      0x496e76616c69642063616e646964617465000000000000000000000000000000\n        /* \"#utility.yul\":6505:6506   */\n      0x00\n        /* \"#utility.yul\":6497:6503   */\n      dup3\n        /* \"#utility.yul\":6493:6507   */\n      add\n        /* \"#utility.yul\":6486:6529   */\n      mstore\n        /* \"#utility.yul\":6369:6536   */\n      pop\n      jump\t// out\n        /* \"#utility.yul\":6542:6908   */\n    tag_123:\n        /* \"#utility.yul\":6684:6687   */\n      0x00\n        /* \"#utility.yul\":6705:6772   */\n      tag_195\n        /* \"#utility.yul\":6769:6771   */\n      0x11\n        /* \"#utility.yul\":6764:6767   */\n      dup4\n        /* \"#utility.yul\":6705:6772   */\n      tag_112\n      jump\t// in\n    tag_195:\n        /* \"#utility.yul\":6698:6772   */\n      swap2\n      pop\n        /* \"#utility.yul\":6781:6874   */\n      tag_196\n        /* \"#utility.yul\":6870:6873   */\n      dup3\n        /* \"#utility.yul\":6781:6874   */\n      tag_122\n      jump\t// in\n    tag_196:\n        /* \"#utility.yul\":6899:6901   */\n      0x20\n        /* \"#utility.yul\":6894:6897   */\n      dup3\n        /* \"#utility.yul\":6890:6902   */\n      add\n        /* \"#utility.yul\":6883:6902   */\n      swap1\n      pop\n        /* \"#utility.yul\":6542:6908   */\n      swap2\n      swap1\n      pop\n      jump\t// out\n        /* \"#utility.yul\":6914:7333   */\n    tag_51:\n        /* \"#utility.yul\":7080:7084   */\n      0x00\n        /* \"#utility.yul\":7118:7120   */\n      0x20\n        /* \"#utility.yul\":7107:7116   */\n      dup3\n        /* \"#utility.yul\":7103:7121   */\n      add\n        /* \"#utility.yul\":7095:7121   */\n      swap1\n      pop\n        /* \"#utility.yul\":7167:7176   */\n      dup2\n        /* \"#utility.yul\":7161:7165   */\n      dup2\n        /* \"#utility.yul\":7157:7177   */\n      sub\n        /* \"#utility.yul\":7153:7154   */\n      0x00\n        /* \"#utility.yul\":7142:7151   */\n      dup4\n        /* \"#utility.yul\":7138:7155   */\n      add\n        /* \"#utility.yul\":7131:7178   */\n      mstore\n        /* \"#utility.yul\":7195:7326   */\n      tag_198\n        /* \"#utility.yul\":7321:7325   */\n      dup2\n        /* \"#utility.yul\":7195:7326   */\n      tag_123\n      jump\t// in\n    tag_198:\n        /* \"#utility.yul\":7187:7326   */\n      swap1\n      pop\n        /* \"#utility.yul\":6914:7333   */\n      swap2\n      swap1\n      pop\n      jump\t// out\n        /* \"#utility.yul\":7339:7519   */\n    tag_54:\n        /* \"#utility.yul\":7387:7464   */\n      0x4e487b7100000000000000000000000000000000000000000000000000000000\n        /* \"#utility.yul\":7384:7385   */\n      0x00\n        /* \"#utility.yul\":7377:7465   */\n      mstore\n        /* \"#utility.yul\":7484:7488   */\n      0x32\n        /* \"#utility.yul\":7481:7482   */\n      0x04\n        /* \"#utility.yul\":7474:7489   */\n      mstore\n        /* \"#utility.yul\":7508:7512   */\n      0x24\n        /* \"#utility.yul\":7505:7506   */\n      0x00\n        /* \"#utility.yul\":7498:7513   */\n      revert\n        /* \"#utility.yul\":7525:7705   */\n    tag_124:\n        /* \"#utility.yul\":7573:7650   */\n      0x4e487b7100000000000000000000000000000000000000000000000000000000\n        /* \"#utility.yul\":7570:7571   */\n      0x00\n        /* \"#utility.yul\":7563:7651   */\n      mstore\n        /* \"#utility.yul\":7670:7674   */\n      0x11\n        /* \"#utility.yul\":7667:7668   */\n      0x04\n        /* \"#utility.yul\":7660:7675   */\n      mstore\n        /* \"#utility.yul\":7694:7698   */\n      0x24\n        /* \"#utility.yul\":7691:7692   */\n      0x00\n        /* \"#utility.yul\":7684:7699   */\n      revert\n        /* \"#utility.yul\":7711:7902   */\n    tag_57:\n        /* \"#utility.yul\":7751:7754   */\n      0x00\n        /* \"#utility.yul\":7770:7790   */\n      tag_202\n        /* \"#utility.yul\":7788:7789   */\n      dup3\n        /* \"#utility.yul\":7770:7790   */\n      tag_102\n      jump\t// in\n    tag_202:\n        /* \"#utility.yul\":7765:7790   */\n      swap2\n      pop\n        /* \"#utility.yul\":7804:7824   */\n      tag_203\n        /* \"#utility.yul\":7822:7823   */\n      dup4\n        /* \"#utility.yul\":7804:7824   */\n      tag_102\n      jump\t// in\n    tag_203:\n        /* \"#utility.yul\":7799:7824   */\n      swap3\n      pop\n        /* \"#utility.yul\":7847:7848   */\n      dup3\n        /* \"#utility.yul\":7844:7845   */\n      dup3\n        /* \"#utility.yul\":7840:7849   */\n      add\n        /* \"#utility.yul\":7833:7849   */\n      swap1\n      pop\n        /* \"#utility.yul\":7868:7871   */\n      dup1\n        /* \"#utility.yul\":7865:7866   */\n      dup3\n        /* \"#utility.yul\":7862:7872   */\n      gt\n        /* \"#utility.yul\":7859:7895   */\n      iszero\n      tag_204\n      jumpi\n        /* \"#utility.yul\":7875:7893   */\n      tag_205\n      tag_124\n      jump\t// in\n    tag_205:\n        /* \"#utility.yul\":7859:7895   */\n    tag_204:\n        /* \"#utility.yul\":7711:7902   */\n      swap3\n      swap2\n      pop\n      pop\n      jump\t// out\n        /* \"#utility.yul\":7908:8130   */\n    tag_59:\n        /* \"#utility.yul\":8001:8005   */\n      0x00\n        /* \"#utility.yul\":8039:8041   */\n      0x20\n        /* \"#utility.yul\":8028:8037   */\n      dup3\n        /* \"#utility.yul\":8024:8042   */\n      add\n        /* \"#utility.yul\":8016:8042   */\n      swap1\n      pop\n        /* \"#utility.yul\":8052:8123   */\n      tag_207\n        /* \"#utility.yul\":8120:8121   */\n      0x00\n        /* \"#utility.yul\":8109:8118   */\n      dup4\n        /* \"#utility.yul\":8105:8122   */\n      add\n        /* \"#utility.yul\":8096:8102   */\n      dup5\n        /* \"#utility.yul\":8052:8123   */\n      tag_116\n      jump\t// in\n    tag_207:\n        /* \"#utility.yul\":7908:8130   */\n      swap3\n      swap2\n      pop\n      pop\n      jump\t// out\n        /* \"#utility.yul\":8136:8316   */\n    tag_125:\n        /* \"#utility.yul\":8184:8261   */\n      0x4e487b7100000000000000000000000000000000000000000000000000000000\n        /* \"#utility.yul\":8181:8182   */\n      0x00\n        /* \"#utility.yul\":8174:8262   */\n      mstore\n        /* \"#utility.yul\":8281:8285   */\n      0x22\n        /* \"#utility.yul\":8278:8279   */\n      0x04\n        /* \"#utility.yul\":8271:8286   */\n      mstore\n        /* \"#utility.yul\":8305:8309   */\n      0x24\n        /* \"#utility.yul\":8302:8303   */\n      0x00\n        /* \"#utility.yul\":8295:8310   */\n      revert\n        /* \"#utility.yul\":8322:8642   */\n    tag_65:\n        /* \"#utility.yul\":8366:8372   */\n      0x00\n        /* \"#utility.yul\":8403:8404   */\n      0x02\n        /* \"#utility.yul\":8397:8401   */\n      dup3\n        /* \"#utility.yul\":8393:8405   */\n      div\n        /* \"#utility.yul\":8383:8405   */\n      swap1\n      pop\n        /* \"#utility.yul\":8450:8451   */\n      0x01\n        /* \"#utility.yul\":8444:8448   */\n      dup3\n        /* \"#utility.yul\":8440:8452   */\n      and\n        /* \"#utility.yul\":8471:8489   */\n      dup1\n        /* \"#utility.yul\":8461:8542   */\n      tag_210\n      jumpi\n        /* \"#utility.yul\":8527:8531   */\n      0x7f\n        /* \"#utility.yul\":8519:8525   */\n      dup3\n        /* \"#utility.yul\":8515:8532   */\n      and\n        /* \"#utility.yul\":8505:8532   */\n      swap2\n      pop\n        /* \"#utility.yul\":8461:8542   */\n    tag_210:\n        /* \"#utility.yul\":8589:8591   */\n      0x20\n        /* \"#utility.yul\":8581:8587   */\n      dup3\n        /* \"#utility.yul\":8578:8592   */\n      lt\n        /* \"#utility.yul\":8558:8576   */\n      dup2\n        /* \"#utility.yul\":8555:8593   */\n      sub\n        /* \"#utility.yul\":8552:8636   */\n      tag_211\n      jumpi\n        /* \"#utility.yul\":8608:8626   */\n      tag_212\n      tag_125\n      jump\t// in\n    tag_212:\n        /* \"#utility.yul\":8552:8636   */\n    tag_211:\n        /* \"#utility.yul\":8373:8642   */\n      pop\n        /* \"#utility.yul\":8322:8642   */\n      swap2\n      swap1\n      pop\n      jump\t// out\n        /* \"#utility.yul\":8648:8869   */\n    tag_126:\n        /* \"#utility.yul\":8788:8822   */\n      0x4f6e6c792061646d696e2063616e20706572666f726d20746869732061637469\n        /* \"#utility.yul\":8784:8785   */\n      0x00\n        /* \"#utility.yul\":8776:8782   */\n      dup3\n        /* \"#utility.yul\":8772:8786   */\n      add\n        /* \"#utility.yul\":8765:8823   */\n      mstore\n        /* \"#utility.yul\":8857:8861   */\n      0x6f6e000000000000000000000000000000000000000000000000000000000000\n        /* \"#utility.yul\":8852:8854   */\n      0x20\n        /* \"#utility.yul\":8844:8850   */\n      dup3\n        /* \"#utility.yul\":8840:8855   */\n      add\n        /* \"#utility.yul\":8833:8862   */\n      mstore\n        /* \"#utility.yul\":8648:8869   */\n      pop\n      jump\t// out\n        /* \"#utility.yul\":8875:9241   */\n    tag_127:\n        /* \"#utility.yul\":9017:9020   */\n      0x00\n        /* \"#utility.yul\":9038:9105   */\n      tag_215\n        /* \"#utility.yul\":9102:9104   */\n      0x22\n        /* \"#utility.yul\":9097:9100   */\n      dup4\n        /* \"#utility.yul\":9038:9105   */\n      tag_112\n      jump\t// in\n    tag_215:\n        /* \"#utility.yul\":9031:9105   */\n      swap2\n      pop\n        /* \"#utility.yul\":9114:9207   */\n      tag_216\n        /* \"#utility.yul\":9203:9206   */\n      dup3\n        /* \"#utility.yul\":9114:9207   */\n      tag_126\n      jump\t// in\n    tag_216:\n        /* \"#utility.yul\":9232:9234   */\n      0x40\n        /* \"#utility.yul\":9227:9230   */\n      dup3\n        /* \"#utility.yul\":9223:9235   */\n      add\n        /* \"#utility.yul\":9216:9235   */\n      swap1\n      pop\n        /* \"#utility.yul\":8875:9241   */\n      swap2\n      swap1\n      pop\n      jump\t// out\n        /* \"#utility.yul\":9247:9666   */\n    tag_92:\n        /* \"#utility.yul\":9413:9417   */\n      0x00\n        /* \"#utility.yul\":9451:9453   */\n      0x20\n        /* \"#utility.yul\":9440:9449   */\n      dup3\n        /* \"#utility.yul\":9436:9454   */\n      add\n        /* \"#utility.yul\":9428:9454   */\n      swap1\n      pop\n        /* \"#utility.yul\":9500:9509   */\n      dup2\n        /* \"#utility.yul\":9494:9498   */\n      dup2\n        /* \"#utility.yul\":9490:9510   */\n      sub\n        /* \"#utility.yul\":9486:9487   */\n      0x00\n        /* \"#utility.yul\":9475:9484   */\n      dup4\n        /* \"#utility.yul\":9471:9488   */\n      add\n        /* \"#utility.yul\":9464:9511   */\n      mstore\n        /* \"#utility.yul\":9528:9659   */\n      tag_218\n        /* \"#utility.yul\":9654:9658   */\n      dup2\n        /* \"#utility.yul\":9528:9659   */\n      tag_127\n      jump\t// in\n    tag_218:\n        /* \"#utility.yul\":9520:9659   */\n      swap1\n      pop\n        /* \"#utility.yul\":9247:9666   */\n      swap2\n      swap1\n      pop\n      jump\t// out\n        /* \"#utility.yul\":9672:9853   */\n    tag_128:\n        /* \"#utility.yul\":9812:9845   */\n      0x5265656e7472616e637947756172643a207265656e7472616e742063616c6c00\n        /* \"#utility.yul\":9808:9809   */\n      0x00\n        /* \"#utility.yul\":9800:9806   */\n      dup3\n        /* \"#utility.yul\":9796:9810   */\n      add\n        /* \"#utility.yul\":9789:9846   */\n      mstore\n        /* \"#utility.yul\":9672:9853   */\n      pop\n      jump\t// out\n        /* \"#utility.yul\":9859:10225   */\n    tag_129:\n        /* \"#utility.yul\":10001:10004   */\n      0x00\n        /* \"#utility.yul\":10022:10089   */\n      tag_221\n        /* \"#utility.yul\":10086:10088   */\n      0x1f\n        /* \"#utility.yul\":10081:10084   */\n      dup4\n        /* \"#utility.yul\":10022:10089   */\n      tag_112\n      jump\t// in\n    tag_221:\n        /* \"#utility.yul\":10015:10089   */\n      swap2\n      pop\n        /* \"#utility.yul\":10098:10191   */\n      tag_222\n        /* \"#utility.yul\":10187:10190   */\n      dup3\n        /* \"#utility.yul\":10098:10191   */\n      tag_128\n      jump\t// in\n    tag_222:\n        /* \"#utility.yul\":10216:10218   */\n      0x20\n        /* \"#utility.yul\":10211:10214   */\n      dup3\n        /* \"#utility.yul\":10207:10219   */\n      add\n        /* \"#utility.yul\":10200:10219   */\n      swap1\n      pop\n        /* \"#utility.yul\":9859:10225   */\n      swap2\n      swap1\n      pop\n      jump\t// out\n        /* \"#utility.yul\":10231:10650   */\n    tag_97:\n        /* \"#utility.yul\":10397:10401   */\n      0x00\n        /* \"#utility.yul\":10435:10437   */\n      0x20\n        /* \"#utility.yul\":10424:10433   */\n      dup3\n        /* \"#utility.yul\":10420:10438   */\n      add\n        /* \"#utility.yul\":10412:10438   */\n      swap1\n      pop\n        /* \"#utility.yul\":10484:10493   */\n      dup2\n        /* \"#utility.yul\":10478:10482   */\n      dup2\n        /* \"#utility.yul\":10474:10494   */\n      sub\n        /* \"#utility.yul\":10470:10471   */\n      0x00\n        /* \"#utility.yul\":10459:10468   */\n      dup4\n        /* \"#utility.yul\":10455:10472   */\n      add\n        /* \"#utility.yul\":10448:10495   */\n      mstore\n        /* \"#utility.yul\":10512:10643   */\n      tag_224\n        /* \"#utility.yul\":10638:10642   */\n      dup2\n        /* \"#utility.yul\":10512:10643   */\n      tag_129\n      jump\t// in\n    tag_224:\n        /* \"#utility.yul\":10504:10643   */\n      swap1\n      pop\n        /* \"#utility.yul\":10231:10650   */\n      swap2\n      swap1\n      pop\n      jump\t// out\n\n    auxdata: 0xa2646970667358221220b323c8aa684f3fe0b90035724dc6832e101de29f0efe9bba1679589a6abd34ff64736f6c634300081a0033\n}\n",
				"bytecode": {
					"linkReferences": {},
					"object": "608060405234801561000f575f80fd5b506040516112f43803806112f483398181016040528101906100319190610357565b60015f819055503360015f6101000a81548173ffffffffffffffffffffffffffffffffffffffff021916908373ffffffffffffffffffffffffffffffffffffffff1602179055505f5b815181101561010757600360405180604001604052808484815181106100a3576100a261039e565b5b602002602001015181526020015f815250908060018154018082558091505060019003905f5260205f2090600202015f909190919091505f820151815f0190816100ed91906105d8565b50602082015181600101555050808060010191505061007a565b50600160045f6101000a81548160ff021916908315150217905550506106a7565b5f604051905090565b5f80fd5b5f80fd5b5f80fd5b5f601f19601f8301169050919050565b7f4e487b71000000000000000000000000000000000000000000000000000000005f52604160045260245ffd5b6101838261013d565b810181811067ffffffffffffffff821117156101a2576101a161014d565b5b80604052505050565b5f6101b4610128565b90506101c0828261017a565b919050565b5f67ffffffffffffffff8211156101df576101de61014d565b5b602082029050602081019050919050565b5f80fd5b5f80fd5b5f67ffffffffffffffff8211156102125761021161014d565b5b61021b8261013d565b9050602081019050919050565b8281835e5f83830152505050565b5f610248610243846101f8565b6101ab565b905082815260208101848484011115610264576102636101f4565b5b61026f848285610228565b509392505050565b5f82601f83011261028b5761028a610139565b5b815161029b848260208601610236565b91505092915050565b5f6102b66102b1846101c5565b6101ab565b905080838252602082019050602084028301858111156102d9576102d86101f0565b5b835b8181101561032057805167ffffffffffffffff8111156102fe576102fd610139565b5b80860161030b8982610277565b855260208501945050506020810190506102db565b5050509392505050565b5f82601f83011261033e5761033d610139565b5b815161034e8482602086016102a4565b91505092915050565b5f6020828403121561036c5761036b610131565b5b5f82015167ffffffffffffffff81111561038957610388610135565b5b6103958482850161032a565b91505092915050565b7f4e487b71000000000000000000000000000000000000000000000000000000005f52603260045260245ffd5b5f81519050919050565b7f4e487b71000000000000000000000000000000000000000000000000000000005f52602260045260245ffd5b5f600282049050600182168061041957607f821691505b60208210810361042c5761042b6103d5565b5b50919050565b5f819050815f5260205f209050919050565b5f6020601f8301049050919050565b5f82821b905092915050565b5f6008830261048e7fffffffffffffffffffffffffffffffffffffffffffffffffffffffffffffffff82610453565b6104988683610453565b95508019841693508086168417925050509392505050565b5f819050919050565b5f819050919050565b5f6104dc6104d76104d2846104b0565b6104b9565b6104b0565b9050919050565b5f819050919050565b6104f5836104c2565b610509610501826104e3565b84845461045f565b825550505050565b5f90565b61051d610511565b6105288184846104ec565b505050565b5b8181101561054b576105405f82610515565b60018101905061052e565b5050565b601f8211156105905761056181610432565b61056a84610444565b81016020851015610579578190505b61058d61058585610444565b83018261052d565b50505b505050565b5f82821c905092915050565b5f6105b05f1984600802610595565b1980831691505092915050565b5f6105c883836105a1565b9150826002028217905092915050565b6105e1826103cb565b67ffffffffffffffff8111156105fa576105f961014d565b5b6106048254610402565b61060f82828561054f565b5f60209050601f831160018114610640575f841561062e578287015190505b61063885826105bd565b86555061069f565b601f19841661064e86610432565b5f5b8281101561067557848901518255600182019150602085019450602081019050610650565b86831015610692578489015161068e601f8916826105a1565b8355505b6001600288020188555050505b505050505050565b610c40806106b45f395ff3fe608060405234801561000f575f80fd5b506004361061007b575f3560e01c80638e7ea5b2116100595780638e7ea5b2146100fc578063a95824b41461011a578063c631b29214610138578063f851a440146101425761007b565b80630121b93f1461007f57806309eef43e1461009b5780633477ee2e146100cb575b5f80fd5b61009960048036038101906100949190610701565b610160565b005b6100b560048036038101906100b09190610786565b61036f565b6040516100c291906107cb565b60405180910390f35b6100e560048036038101906100e09190610701565b61038c565b6040516100f3929190610863565b60405180910390f35b610104610441565b6040516101119190610891565b60405180910390f35b610122610567565b60405161012f91906107cb565b60405180910390f35b610140610579565b005b61014a61064f565b60405161015791906108c0565b60405180910390f35b610168610674565b60045f9054906101000a900460ff166101b6576040517f08c379a00000000000000000000000000000000000000000000000000000000081526004016101ad90610923565b60405180910390fd5b60025f3373ffffffffffffffffffffffffffffffffffffffff1673ffffffffffffffffffffffffffffffffffffffff1681526020019081526020015f205f9054906101000a900460ff1615610240576040517f08c379a00000000000000000000000000000000000000000000000000000000081526004016102379061098b565b60405180910390fd5b6003805490508110610287576040517f08c379a000000000000000000000000000000000000000000000000000000000815260040161027e906109f3565b60405180910390fd5b600160025f3373ffffffffffffffffffffffffffffffffffffffff1673ffffffffffffffffffffffffffffffffffffffff1681526020019081526020015f205f6101000a81548160ff0219169083151502179055506001600382815481106102f2576102f1610a11565b5b905f5260205f2090600202016001015f82825461030f9190610a6b565b925050819055503373ffffffffffffffffffffffffffffffffffffffff167fa36cc2bebb74db33e9f88110a07ef56e1b31b24b4c4f51b54b1664266e29f45b8260405161035c9190610a9e565b60405180910390a261036c6106c1565b50565b6002602052805f5260405f205f915054906101000a900460ff1681565b6003818154811061039b575f80fd5b905f5260205f2090600202015f91509050805f0180546103ba90610ae4565b80601f01602080910402602001604051908101604052809291908181526020018280546103e690610ae4565b80156104315780601f1061040857610100808354040283529160200191610431565b820191905f5260205f20905b81548152906001019060200180831161041457829003601f168201915b5050505050908060010154905082565b60605f805f5b6003805490508110156104b657826003828154811061046957610468610a11565b5b905f5260205f2090600202016001015411156104a9576003818154811061049357610492610a11565b5b905f5260205f2090600202016001015492508091505b8080600101915050610447565b50600381815481106104cb576104ca610a11565b5b905f5260205f2090600202015f0180546104e490610ae4565b80601f016020809104026020016040519081016040528092919081815260200182805461051090610ae4565b801561055b5780601f106105325761010080835404028352916020019161055b565b820191905f5260205f20905b81548152906001019060200180831161053e57829003601f168201915b50505050509250505090565b60045f9054906101000a900460ff1681565b60015f9054906101000a900473ffffffffffffffffffffffffffffffffffffffff1673ffffffffffffffffffffffffffffffffffffffff163373ffffffffffffffffffffffffffffffffffffffff1614610608576040517f08c379a00000000000000000000000000000000000000000000000000000000081526004016105ff90610b84565b60405180910390fd5b5f60045f6101000a81548160ff0219169083151502179055507f7a19ed057db79e3c2fa0b97a54b43bef4fce74b31bb6c01af514b9a18a7f70ab60405160405180910390a1565b60015f9054906101000a900473ffffffffffffffffffffffffffffffffffffffff1681565b60025f54036106b8576040517f08c379a00000000000000000000000000000000000000000000000000000000081526004016106af90610bec565b60405180910390fd5b60025f81905550565b60015f81905550565b5f80fd5b5f819050919050565b6106e0816106ce565b81146106ea575f80fd5b50565b5f813590506106fb816106d7565b92915050565b5f60208284031215610716576107156106ca565b5b5f610723848285016106ed565b91505092915050565b5f73ffffffffffffffffffffffffffffffffffffffff82169050919050565b5f6107558261072c565b9050919050565b6107658161074b565b811461076f575f80fd5b50565b5f813590506107808161075c565b92915050565b5f6020828403121561079b5761079a6106ca565b5b5f6107a884828501610772565b91505092915050565b5f8115159050919050565b6107c5816107b1565b82525050565b5f6020820190506107de5f8301846107bc565b92915050565b5f81519050919050565b5f82825260208201905092915050565b8281835e5f83830152505050565b5f601f19601f8301169050919050565b5f610826826107e4565b61083081856107ee565b93506108408185602086016107fe565b6108498161080c565b840191505092915050565b61085d816106ce565b82525050565b5f6040820190508181035f83015261087b818561081c565b905061088a6020830184610854565b9392505050565b5f6020820190508181035f8301526108a9818461081c565b905092915050565b6108ba8161074b565b82525050565b5f6020820190506108d35f8301846108b1565b92915050565b7f566f74696e6720697320636c6f736564000000000000000000000000000000005f82015250565b5f61090d6010836107ee565b9150610918826108d9565b602082019050919050565b5f6020820190508181035f83015261093a81610901565b9050919050565b7f416c726561647920766f746564000000000000000000000000000000000000005f82015250565b5f610975600d836107ee565b915061098082610941565b602082019050919050565b5f6020820190508181035f8301526109a281610969565b9050919050565b7f496e76616c69642063616e6469646174650000000000000000000000000000005f82015250565b5f6109dd6011836107ee565b91506109e8826109a9565b602082019050919050565b5f6020820190508181035f830152610a0a816109d1565b9050919050565b7f4e487b71000000000000000000000000000000000000000000000000000000005f52603260045260245ffd5b7f4e487b71000000000000000000000000000000000000000000000000000000005f52601160045260245ffd5b5f610a75826106ce565b9150610a80836106ce565b9250828201905080821115610a9857610a97610a3e565b5b92915050565b5f602082019050610ab15f830184610854565b92915050565b7f4e487b71000000000000000000000000000000000000000000000000000000005f52602260045260245ffd5b5f6002820490506001821680610afb57607f821691505b602082108103610b0e57610b0d610ab7565b5b50919050565b7f4f6e6c792061646d696e2063616e20706572666f726d207468697320616374695f8201527f6f6e000000000000000000000000000000000000000000000000000000000000602082015250565b5f610b6e6022836107ee565b9150610b7982610b14565b604082019050919050565b5f6020820190508181035f830152610b9b81610b62565b9050919050565b7f5265656e7472616e637947756172643a207265656e7472616e742063616c6c005f82015250565b5f610bd6601f836107ee565b9150610be182610ba2565b602082019050919050565b5f6020820190508181035f830152610c0381610bca565b905091905056fea2646970667358221220b323c8aa684f3fe0b90035724dc6832e101de29f0efe9bba1679589a6abd34ff64736f6c634300081a0033",
					"opcodes": "PUSH1 0x80 PUSH1 0x40 MSTORE CALLVALUE DUP1 ISZERO PUSH2 0xF JUMPI PUSH0 DUP1 REVERT JUMPDEST POP PUSH1 0x40 MLOAD PUSH2 0x12F4 CODESIZE SUB DUP1 PUSH2 0x12F4 DUP4 CODECOPY DUP2 DUP2 ADD PUSH1 0x40 MSTORE DUP2 ADD SWAP1 PUSH2 0x31 SWAP2 SWAP1 PUSH2 0x357 JUMP JUMPDEST PUSH1 0x1 PUSH0 DUP2 SWAP1 SSTORE POP CALLER PUSH1 0x1 PUSH0 PUSH2 0x100 EXP DUP2 SLOAD DUP2 PUSH20 0xFFFFFFFFFFFFFFFFFFFFFFFFFFFFFFFFFFFFFFFF MUL NOT AND SWAP1 DUP4 PUSH20 0xFFFFFFFFFFFFFFFFFFFFFFFFFFFFFFFFFFFFFFFF AND MUL OR SWAP1 SSTORE POP PUSH0 JUMPDEST DUP2 MLOAD DUP2 LT ISZERO PUSH2 0x107 JUMPI PUSH1 0x3 PUSH1 0x40 MLOAD DUP1 PUSH1 0x40 ADD PUSH1 0x40 MSTORE DUP1 DUP5 DUP5 DUP2 MLOAD DUP2 LT PUSH2 0xA3 JUMPI PUSH2 0xA2 PUSH2 0x39E JUMP JUMPDEST JUMPDEST PUSH1 0x20 MUL PUSH1 0x20 ADD ADD MLOAD DUP2 MSTORE PUSH1 0x20 ADD PUSH0 DUP2 MSTORE POP SWAP1 DUP1 PUSH1 0x1 DUP2 SLOAD ADD DUP1 DUP3 SSTORE DUP1 SWAP2 POP POP PUSH1 0x1 SWAP1 SUB SWAP1 PUSH0 MSTORE PUSH1 0x20 PUSH0 KECCAK256 SWAP1 PUSH1 0x2 MUL ADD PUSH0 SWAP1 SWAP2 SWAP1 SWAP2 SWAP1 SWAP2 POP PUSH0 DUP3 ADD MLOAD DUP2 PUSH0 ADD SWAP1 DUP2 PUSH2 0xED SWAP2 SWAP1 PUSH2 0x5D8 JUMP JUMPDEST POP PUSH1 0x20 DUP3 ADD MLOAD DUP2 PUSH1 0x1 ADD SSTORE POP POP DUP1 DUP1 PUSH1 0x1 ADD SWAP2 POP POP PUSH2 0x7A JUMP JUMPDEST POP PUSH1 0x1 PUSH1 0x4 PUSH0 PUSH2 0x100 EXP DUP2 SLOAD DUP2 PUSH1 0xFF MUL NOT AND SWAP1 DUP4 ISZERO ISZERO MUL OR SWAP1 SSTORE POP POP PUSH2 0x6A7 JUMP JUMPDEST PUSH0 PUSH1 0x40 MLOAD SWAP1 POP SWAP1 JUMP JUMPDEST PUSH0 DUP1 REVERT JUMPDEST PUSH0 DUP1 REVERT JUMPDEST PUSH0 DUP1 REVERT JUMPDEST PUSH0 PUSH1 0x1F NOT PUSH1 0x1F DUP4 ADD AND SWAP1 POP SWAP2 SWAP1 POP JUMP JUMPDEST PUSH32 0x4E487B7100000000000000000000000000000000000000000000000000000000 PUSH0 MSTORE PUSH1 0x41 PUSH1 0x4 MSTORE PUSH1 0x24 PUSH0 REVERT JUMPDEST PUSH2 0x183 DUP3 PUSH2 0x13D JUMP JUMPDEST DUP2 ADD DUP2 DUP2 LT PUSH8 0xFFFFFFFFFFFFFFFF DUP3 GT OR ISZERO PUSH2 0x1A2 JUMPI PUSH2 0x1A1 PUSH2 0x14D JUMP JUMPDEST JUMPDEST DUP1 PUSH1 0x40 MSTORE POP POP POP JUMP JUMPDEST PUSH0 PUSH2 0x1B4 PUSH2 0x128 JUMP JUMPDEST SWAP1 POP PUSH2 0x1C0 DUP3 DUP3 PUSH2 0x17A JUMP JUMPDEST SWAP2 SWAP1 POP JUMP JUMPDEST PUSH0 PUSH8 0xFFFFFFFFFFFFFFFF DUP3 GT ISZERO PUSH2 0x1DF JUMPI PUSH2 0x1DE PUSH2 0x14D JUMP JUMPDEST JUMPDEST PUSH1 0x20 DUP3 MUL SWAP1 POP PUSH1 0x20 DUP2 ADD SWAP1 POP SWAP2 SWAP1 POP JUMP JUMPDEST PUSH0 DUP1 REVERT JUMPDEST PUSH0 DUP1 REVERT JUMPDEST PUSH0 PUSH8 0xFFFFFFFFFFFFFFFF DUP3 GT ISZERO PUSH2 0x212 JUMPI PUSH2 0x211 PUSH2 0x14D JUMP JUMPDEST JUMPDEST PUSH2 0x21B DUP3 PUSH2 0x13D JUMP JUMPDEST SWAP1 POP PUSH1 0x20 DUP2 ADD SWAP1 POP SWAP2 SWAP1 POP JUMP JUMPDEST DUP3 DUP2 DUP4 MCOPY PUSH0 DUP4 DUP4 ADD MSTORE POP POP POP JUMP JUMPDEST PUSH0 PUSH2 0x248 PUSH2 0x243 DUP5 PUSH2 0x1F8 JUMP JUMPDEST PUSH2 0x1AB JUMP JUMPDEST SWAP1 POP DUP3 DUP2 MSTORE PUSH1 0x20 DUP2 ADD DUP5 DUP5 DUP5 ADD GT ISZERO PUSH2 0x264 JUMPI PUSH2 0x263 PUSH2 0x1F4 JUMP JUMPDEST JUMPDEST PUSH2 0x26F DUP5 DUP3 DUP6 PUSH2 0x228 JUMP JUMPDEST POP SWAP4 SWAP3 POP POP POP JUMP JUMPDEST PUSH0 DUP3 PUSH1 0x1F DUP4 ADD SLT PUSH2 0x28B JUMPI PUSH2 0x28A PUSH2 0x139 JUMP JUMPDEST JUMPDEST DUP2 MLOAD PUSH2 0x29B DUP5 DUP3 PUSH1 0x20 DUP7 ADD PUSH2 0x236 JUMP JUMPDEST SWAP2 POP POP SWAP3 SWAP2 POP POP JUMP JUMPDEST PUSH0 PUSH2 0x2B6 PUSH2 0x2B1 DUP5 PUSH2 0x1C5 JUMP JUMPDEST PUSH2 0x1AB JUMP JUMPDEST SWAP1 POP DUP1 DUP4 DUP3 MSTORE PUSH1 0x20 DUP3 ADD SWAP1 POP PUSH1 0x20 DUP5 MUL DUP4 ADD DUP6 DUP2 GT ISZERO PUSH2 0x2D9 JUMPI PUSH2 0x2D8 PUSH2 0x1F0 JUMP JUMPDEST JUMPDEST DUP4 JUMPDEST DUP2 DUP2 LT ISZERO PUSH2 0x320 JUMPI DUP1 MLOAD PUSH8 0xFFFFFFFFFFFFFFFF DUP2 GT ISZERO PUSH2 0x2FE JUMPI PUSH2 0x2FD PUSH2 0x139 JUMP JUMPDEST JUMPDEST DUP1 DUP7 ADD PUSH2 0x30B DUP10 DUP3 PUSH2 0x277 JUMP JUMPDEST DUP6 MSTORE PUSH1 0x20 DUP6 ADD SWAP5 POP POP POP PUSH1 0x20 DUP2 ADD SWAP1 POP PUSH2 0x2DB JUMP JUMPDEST POP POP POP SWAP4 SWAP3 POP POP POP JUMP JUMPDEST PUSH0 DUP3 PUSH1 0x1F DUP4 ADD SLT PUSH2 0x33E JUMPI PUSH2 0x33D PUSH2 0x139 JUMP JUMPDEST JUMPDEST DUP2 MLOAD PUSH2 0x34E DUP5 DUP3 PUSH1 0x20 DUP7 ADD PUSH2 0x2A4 JUMP JUMPDEST SWAP2 POP POP SWAP3 SWAP2 POP POP JUMP JUMPDEST PUSH0 PUSH1 0x20 DUP3 DUP5 SUB SLT ISZERO PUSH2 0x36C JUMPI PUSH2 0x36B PUSH2 0x131 JUMP JUMPDEST JUMPDEST PUSH0 DUP3 ADD MLOAD PUSH8 0xFFFFFFFFFFFFFFFF DUP2 GT ISZERO PUSH2 0x389 JUMPI PUSH2 0x388 PUSH2 0x135 JUMP JUMPDEST JUMPDEST PUSH2 0x395 DUP5 DUP3 DUP6 ADD PUSH2 0x32A JUMP JUMPDEST SWAP2 POP POP SWAP3 SWAP2 POP POP JUMP JUMPDEST PUSH32 0x4E487B7100000000000000000000000000000000000000000000000000000000 PUSH0 MSTORE PUSH1 0x32 PUSH1 0x4 MSTORE PUSH1 0x24 PUSH0 REVERT JUMPDEST PUSH0 DUP2 MLOAD SWAP1 POP SWAP2 SWAP1 POP JUMP JUMPDEST PUSH32 0x4E487B7100000000000000000000000000000000000000000000000000000000 PUSH0 MSTORE PUSH1 0x22 PUSH1 0x4 MSTORE PUSH1 0x24 PUSH0 REVERT JUMPDEST PUSH0 PUSH1 0x2 DUP3 DIV SWAP1 POP PUSH1 0x1 DUP3 AND DUP1 PUSH2 0x419 JUMPI PUSH1 0x7F DUP3 AND SWAP2 POP JUMPDEST PUSH1 0x20 DUP3 LT DUP2 SUB PUSH2 0x42C JUMPI PUSH2 0x42B PUSH2 0x3D5 JUMP JUMPDEST JUMPDEST POP SWAP2 SWAP1 POP JUMP JUMPDEST PUSH0 DUP2 SWAP1 POP DUP2 PUSH0 MSTORE PUSH1 0x20 PUSH0 KECCAK256 SWAP1 POP SWAP2 SWAP1 POP JUMP JUMPDEST PUSH0 PUSH1 0x20 PUSH1 0x1F DUP4 ADD DIV SWAP1 POP SWAP2 SWAP1 POP JUMP JUMPDEST PUSH0 DUP3 DUP3 SHL SWAP1 POP SWAP3 SWAP2 POP POP JUMP JUMPDEST PUSH0 PUSH1 0x8 DUP4 MUL PUSH2 0x48E PUSH32 0xFFFFFFFFFFFFFFFFFFFFFFFFFFFFFFFFFFFFFFFFFFFFFFFFFFFFFFFFFFFFFFFF DUP3 PUSH2 0x453 JUMP JUMPDEST PUSH2 0x498 DUP7 DUP4 PUSH2 0x453 JUMP JUMPDEST SWAP6 POP DUP1 NOT DUP5 AND SWAP4 POP DUP1 DUP7 AND DUP5 OR SWAP3 POP POP POP SWAP4 SWAP3 POP POP POP JUMP JUMPDEST PUSH0 DUP2 SWAP1 POP SWAP2 SWAP1 POP JUMP JUMPDEST PUSH0 DUP2 SWAP1 POP SWAP2 SWAP1 POP JUMP JUMPDEST PUSH0 PUSH2 0x4DC PUSH2 0x4D7 PUSH2 0x4D2 DUP5 PUSH2 0x4B0 JUMP JUMPDEST PUSH2 0x4B9 JUMP JUMPDEST PUSH2 0x4B0 JUMP JUMPDEST SWAP1 POP SWAP2 SWAP1 POP JUMP JUMPDEST PUSH0 DUP2 SWAP1 POP SWAP2 SWAP1 POP JUMP JUMPDEST PUSH2 0x4F5 DUP4 PUSH2 0x4C2 JUMP JUMPDEST PUSH2 0x509 PUSH2 0x501 DUP3 PUSH2 0x4E3 JUMP JUMPDEST DUP5 DUP5 SLOAD PUSH2 0x45F JUMP JUMPDEST DUP3 SSTORE POP POP POP POP JUMP JUMPDEST PUSH0 SWAP1 JUMP JUMPDEST PUSH2 0x51D PUSH2 0x511 JUMP JUMPDEST PUSH2 0x528 DUP2 DUP5 DUP5 PUSH2 0x4EC JUMP JUMPDEST POP POP POP JUMP JUMPDEST JUMPDEST DUP2 DUP2 LT ISZERO PUSH2 0x54B JUMPI PUSH2 0x540 PUSH0 DUP3 PUSH2 0x515 JUMP JUMPDEST PUSH1 0x1 DUP2 ADD SWAP1 POP PUSH2 0x52E JUMP JUMPDEST POP POP JUMP JUMPDEST PUSH1 0x1F DUP3 GT ISZERO PUSH2 0x590 JUMPI PUSH2 0x561 DUP2 PUSH2 0x432 JUMP JUMPDEST PUSH2 0x56A DUP5 PUSH2 0x444 JUMP JUMPDEST DUP2 ADD PUSH1 0x20 DUP6 LT ISZERO PUSH2 0x579 JUMPI DUP2 SWAP1 POP JUMPDEST PUSH2 0x58D PUSH2 0x585 DUP6 PUSH2 0x444 JUMP JUMPDEST DUP4 ADD DUP3 PUSH2 0x52D JUMP JUMPDEST POP POP JUMPDEST POP POP POP JUMP JUMPDEST PUSH0 DUP3 DUP3 SHR SWAP1 POP SWAP3 SWAP2 POP POP JUMP JUMPDEST PUSH0 PUSH2 0x5B0 PUSH0 NOT DUP5 PUSH1 0x8 MUL PUSH2 0x595 JUMP JUMPDEST NOT DUP1 DUP4 AND SWAP2 POP POP SWAP3 SWAP2 POP POP JUMP JUMPDEST PUSH0 PUSH2 0x5C8 DUP4 DUP4 PUSH2 0x5A1 JUMP JUMPDEST SWAP2 POP DUP3 PUSH1 0x2 MUL DUP3 OR SWAP1 POP SWAP3 SWAP2 POP POP JUMP JUMPDEST PUSH2 0x5E1 DUP3 PUSH2 0x3CB JUMP JUMPDEST PUSH8 0xFFFFFFFFFFFFFFFF DUP2 GT ISZERO PUSH2 0x5FA JUMPI PUSH2 0x5F9 PUSH2 0x14D JUMP JUMPDEST JUMPDEST PUSH2 0x604 DUP3 SLOAD PUSH2 0x402 JUMP JUMPDEST PUSH2 0x60F DUP3 DUP3 DUP6 PUSH2 0x54F JUMP JUMPDEST PUSH0 PUSH1 0x20 SWAP1 POP PUSH1 0x1F DUP4 GT PUSH1 0x1 DUP2 EQ PUSH2 0x640 JUMPI PUSH0 DUP5 ISZERO PUSH2 0x62E JUMPI DUP3 DUP8 ADD MLOAD SWAP1 POP JUMPDEST PUSH2 0x638 DUP6 DUP3 PUSH2 0x5BD JUMP JUMPDEST DUP7 SSTORE POP PUSH2 0x69F JUMP JUMPDEST PUSH1 0x1F NOT DUP5 AND PUSH2 0x64E DUP7 PUSH2 0x432 JUMP JUMPDEST PUSH0 JUMPDEST DUP3 DUP2 LT ISZERO PUSH2 0x675 JUMPI DUP5 DUP10 ADD MLOAD DUP3 SSTORE PUSH1 0x1 DUP3 ADD SWAP2 POP PUSH1 0x20 DUP6 ADD SWAP5 POP PUSH1 0x20 DUP2 ADD SWAP1 POP PUSH2 0x650 JUMP JUMPDEST DUP7 DUP4 LT ISZERO PUSH2 0x692 JUMPI DUP5 DUP10 ADD MLOAD PUSH2 0x68E PUSH1 0x1F DUP10 AND DUP3 PUSH2 0x5A1 JUMP JUMPDEST DUP4 SSTORE POP JUMPDEST PUSH1 0x1 PUSH1 0x2 DUP9 MUL ADD DUP9 SSTORE POP POP POP JUMPDEST POP POP POP POP POP POP JUMP JUMPDEST PUSH2 0xC40 DUP1 PUSH2 0x6B4 PUSH0 CODECOPY PUSH0 RETURN INVALID PUSH1 0x80 PUSH1 0x40 MSTORE CALLVALUE DUP1 ISZERO PUSH2 0xF JUMPI PUSH0 DUP1 REVERT JUMPDEST POP PUSH1 0x4 CALLDATASIZE LT PUSH2 0x7B JUMPI PUSH0 CALLDATALOAD PUSH1 0xE0 SHR DUP1 PUSH4 0x8E7EA5B2 GT PUSH2 0x59 JUMPI DUP1 PUSH4 0x8E7EA5B2 EQ PUSH2 0xFC JUMPI DUP1 PUSH4 0xA95824B4 EQ PUSH2 0x11A JUMPI DUP1 PUSH4 0xC631B292 EQ PUSH2 0x138 JUMPI DUP1 PUSH4 0xF851A440 EQ PUSH2 0x142 JUMPI PUSH2 0x7B JUMP JUMPDEST DUP1 PUSH4 0x121B93F EQ PUSH2 0x7F JUMPI DUP1 PUSH4 0x9EEF43E EQ PUSH2 0x9B JUMPI DUP1 PUSH4 0x3477EE2E EQ PUSH2 0xCB JUMPI JUMPDEST PUSH0 DUP1 REVERT JUMPDEST PUSH2 0x99 PUSH1 0x4 DUP1 CALLDATASIZE SUB DUP2 ADD SWAP1 PUSH2 0x94 SWAP2 SWAP1 PUSH2 0x701 JUMP JUMPDEST PUSH2 0x160 JUMP JUMPDEST STOP JUMPDEST PUSH2 0xB5 PUSH1 0x4 DUP1 CALLDATASIZE SUB DUP2 ADD SWAP1 PUSH2 0xB0 SWAP2 SWAP1 PUSH2 0x786 JUMP JUMPDEST PUSH2 0x36F JUMP JUMPDEST PUSH1 0x40 MLOAD PUSH2 0xC2 SWAP2 SWAP1 PUSH2 0x7CB JUMP JUMPDEST PUSH1 0x40 MLOAD DUP1 SWAP2 SUB SWAP1 RETURN JUMPDEST PUSH2 0xE5 PUSH1 0x4 DUP1 CALLDATASIZE SUB DUP2 ADD SWAP1 PUSH2 0xE0 SWAP2 SWAP1 PUSH2 0x701 JUMP JUMPDEST PUSH2 0x38C JUMP JUMPDEST PUSH1 0x40 MLOAD PUSH2 0xF3 SWAP3 SWAP2 SWAP1 PUSH2 0x863 JUMP JUMPDEST PUSH1 0x40 MLOAD DUP1 SWAP2 SUB SWAP1 RETURN JUMPDEST PUSH2 0x104 PUSH2 0x441 JUMP JUMPDEST PUSH1 0x40 MLOAD PUSH2 0x111 SWAP2 SWAP1 PUSH2 0x891 JUMP JUMPDEST PUSH1 0x40 MLOAD DUP1 SWAP2 SUB SWAP1 RETURN JUMPDEST PUSH2 0x122 PUSH2 0x567 JUMP JUMPDEST PUSH1 0x40 MLOAD PUSH2 0x12F SWAP2 SWAP1 PUSH2 0x7CB JUMP JUMPDEST PUSH1 0x40 MLOAD DUP1 SWAP2 SUB SWAP1 RETURN JUMPDEST PUSH2 0x140 PUSH2 0x579 JUMP JUMPDEST STOP JUMPDEST PUSH2 0x14A PUSH2 0x64F JUMP JUMPDEST PUSH1 0x40 MLOAD PUSH2 0x157 SWAP2 SWAP1 PUSH2 0x8C0 JUMP JUMPDEST PUSH1 0x40 MLOAD DUP1 SWAP2 SUB SWAP1 RETURN JUMPDEST PUSH2 0x168 PUSH2 0x674 JUMP JUMPDEST PUSH1 0x4 PUSH0 SWAP1 SLOAD SWAP1 PUSH2 0x100 EXP SWAP1 DIV PUSH1 0xFF AND PUSH2 0x1B6 JUMPI PUSH1 0x40 MLOAD PUSH32 0x8C379A000000000000000000000000000000000000000000000000000000000 DUP2 MSTORE PUSH1 0x4 ADD PUSH2 0x1AD SWAP1 PUSH2 0x923 JUMP JUMPDEST PUSH1 0x40 MLOAD DUP1 SWAP2 SUB SWAP1 REVERT JUMPDEST PUSH1 0x2 PUSH0 CALLER PUSH20 0xFFFFFFFFFFFFFFFFFFFFFFFFFFFFFFFFFFFFFFFF AND PUSH20 0xFFFFFFFFFFFFFFFFFFFFFFFFFFFFFFFFFFFFFFFF AND DUP2 MSTORE PUSH1 0x20 ADD SWAP1 DUP2 MSTORE PUSH1 0x20 ADD PUSH0 KECCAK256 PUSH0 SWAP1 SLOAD SWAP1 PUSH2 0x100 EXP SWAP1 DIV PUSH1 0xFF AND ISZERO PUSH2 0x240 JUMPI PUSH1 0x40 MLOAD PUSH32 0x8C379A000000000000000000000000000000000000000000000000000000000 DUP2 MSTORE PUSH1 0x4 ADD PUSH2 0x237 SWAP1 PUSH2 0x98B JUMP JUMPDEST PUSH1 0x40 MLOAD DUP1 SWAP2 SUB SWAP1 REVERT JUMPDEST PUSH1 0x3 DUP1 SLOAD SWAP1 POP DUP2 LT PUSH2 0x287 JUMPI PUSH1 0x40 MLOAD PUSH32 0x8C379A000000000000000000000000000000000000000000000000000000000 DUP2 MSTORE PUSH1 0x4 ADD PUSH2 0x27E SWAP1 PUSH2 0x9F3 JUMP JUMPDEST PUSH1 0x40 MLOAD DUP1 SWAP2 SUB SWAP1 REVERT JUMPDEST PUSH1 0x1 PUSH1 0x2 PUSH0 CALLER PUSH20 0xFFFFFFFFFFFFFFFFFFFFFFFFFFFFFFFFFFFFFFFF AND PUSH20 0xFFFFFFFFFFFFFFFFFFFFFFFFFFFFFFFFFFFFFFFF AND DUP2 MSTORE PUSH1 0x20 ADD SWAP1 DUP2 MSTORE PUSH1 0x20 ADD PUSH0 KECCAK256 PUSH0 PUSH2 0x100 EXP DUP2 SLOAD DUP2 PUSH1 0xFF MUL NOT AND SWAP1 DUP4 ISZERO ISZERO MUL OR SWAP1 SSTORE POP PUSH1 0x1 PUSH1 0x3 DUP3 DUP2 SLOAD DUP2 LT PUSH2 0x2F2 JUMPI PUSH2 0x2F1 PUSH2 0xA11 JUMP JUMPDEST JUMPDEST SWAP1 PUSH0 MSTORE PUSH1 0x20 PUSH0 KECCAK256 SWAP1 PUSH1 0x2 MUL ADD PUSH1 0x1 ADD PUSH0 DUP3 DUP3 SLOAD PUSH2 0x30F SWAP2 SWAP1 PUSH2 0xA6B JUMP JUMPDEST SWAP3 POP POP DUP2 SWAP1 SSTORE POP CALLER PUSH20 0xFFFFFFFFFFFFFFFFFFFFFFFFFFFFFFFFFFFFFFFF AND PUSH32 0xA36CC2BEBB74DB33E9F88110A07EF56E1B31B24B4C4F51B54B1664266E29F45B DUP3 PUSH1 0x40 MLOAD PUSH2 0x35C SWAP2 SWAP1 PUSH2 0xA9E JUMP JUMPDEST PUSH1 0x40 MLOAD DUP1 SWAP2 SUB SWAP1 LOG2 PUSH2 0x36C PUSH2 0x6C1 JUMP JUMPDEST POP JUMP JUMPDEST PUSH1 0x2 PUSH1 0x20 MSTORE DUP1 PUSH0 MSTORE PUSH1 0x40 PUSH0 KECCAK256 PUSH0 SWAP2 POP SLOAD SWAP1 PUSH2 0x100 EXP SWAP1 DIV PUSH1 0xFF AND DUP2 JUMP JUMPDEST PUSH1 0x3 DUP2 DUP2 SLOAD DUP2 LT PUSH2 0x39B JUMPI PUSH0 DUP1 REVERT JUMPDEST SWAP1 PUSH0 MSTORE PUSH1 0x20 PUSH0 KECCAK256 SWAP1 PUSH1 0x2 MUL ADD PUSH0 SWAP2 POP SWAP1 POP DUP1 PUSH0 ADD DUP1 SLOAD PUSH2 0x3BA SWAP1 PUSH2 0xAE4 JUMP JUMPDEST DUP1 PUSH1 0x1F ADD PUSH1 0x20 DUP1 SWAP2 DIV MUL PUSH1 0x20 ADD PUSH1 0x40 MLOAD SWAP1 DUP2 ADD PUSH1 0x40 MSTORE DUP1 SWAP3 SWAP2 SWAP1 DUP2 DUP2 MSTORE PUSH1 0x20 ADD DUP3 DUP1 SLOAD PUSH2 0x3E6 SWAP1 PUSH2 0xAE4 JUMP JUMPDEST DUP1 ISZERO PUSH2 0x431 JUMPI DUP1 PUSH1 0x1F LT PUSH2 0x408 JUMPI PUSH2 0x100 DUP1 DUP4 SLOAD DIV MUL DUP4 MSTORE SWAP2 PUSH1 0x20 ADD SWAP2 PUSH2 0x431 JUMP JUMPDEST DUP3 ADD SWAP2 SWAP1 PUSH0 MSTORE PUSH1 0x20 PUSH0 KECCAK256 SWAP1 JUMPDEST DUP2 SLOAD DUP2 MSTORE SWAP1 PUSH1 0x1 ADD SWAP1 PUSH1 0x20 ADD DUP1 DUP4 GT PUSH2 0x414 JUMPI DUP3 SWAP1 SUB PUSH1 0x1F AND DUP3 ADD SWAP2 JUMPDEST POP POP POP POP POP SWAP1 DUP1 PUSH1 0x1 ADD SLOAD SWAP1 POP DUP3 JUMP JUMPDEST PUSH1 0x60 PUSH0 DUP1 PUSH0 JUMPDEST PUSH1 0x3 DUP1 SLOAD SWAP1 POP DUP2 LT ISZERO PUSH2 0x4B6 JUMPI DUP3 PUSH1 0x3 DUP3 DUP2 SLOAD DUP2 LT PUSH2 0x469 JUMPI PUSH2 0x468 PUSH2 0xA11 JUMP JUMPDEST JUMPDEST SWAP1 PUSH0 MSTORE PUSH1 0x20 PUSH0 KECCAK256 SWAP1 PUSH1 0x2 MUL ADD PUSH1 0x1 ADD SLOAD GT ISZERO PUSH2 0x4A9 JUMPI PUSH1 0x3 DUP2 DUP2 SLOAD DUP2 LT PUSH2 0x493 JUMPI PUSH2 0x492 PUSH2 0xA11 JUMP JUMPDEST JUMPDEST SWAP1 PUSH0 MSTORE PUSH1 0x20 PUSH0 KECCAK256 SWAP1 PUSH1 0x2 MUL ADD PUSH1 0x1 ADD SLOAD SWAP3 POP DUP1 SWAP2 POP JUMPDEST DUP1 DUP1 PUSH1 0x1 ADD SWAP2 POP POP PUSH2 0x447 JUMP JUMPDEST POP PUSH1 0x3 DUP2 DUP2 SLOAD DUP2 LT PUSH2 0x4CB JUMPI PUSH2 0x4CA PUSH2 0xA11 JUMP JUMPDEST JUMPDEST SWAP1 PUSH0 MSTORE PUSH1 0x20 PUSH0 KECCAK256 SWAP1 PUSH1 0x2 MUL ADD PUSH0 ADD DUP1 SLOAD PUSH2 0x4E4 SWAP1 PUSH2 0xAE4 JUMP JUMPDEST DUP1 PUSH1 0x1F ADD PUSH1 0x20 DUP1 SWAP2 DIV MUL PUSH1 0x20 ADD PUSH1 0x40 MLOAD SWAP1 DUP2 ADD PUSH1 0x40 MSTORE DUP1 SWAP3 SWAP2 SWAP1 DUP2 DUP2 MSTORE PUSH1 0x20 ADD DUP3 DUP1 SLOAD PUSH2 0x510 SWAP1 PUSH2 0xAE4 JUMP JUMPDEST DUP1 ISZERO PUSH2 0x55B JUMPI DUP1 PUSH1 0x1F LT PUSH2 0x532 JUMPI PUSH2 0x100 DUP1 DUP4 SLOAD DIV MUL DUP4 MSTORE SWAP2 PUSH1 0x20 ADD SWAP2 PUSH2 0x55B JUMP JUMPDEST DUP3 ADD SWAP2 SWAP1 PUSH0 MSTORE PUSH1 0x20 PUSH0 KECCAK256 SWAP1 JUMPDEST DUP2 SLOAD DUP2 MSTORE SWAP1 PUSH1 0x1 ADD SWAP1 PUSH1 0x20 ADD DUP1 DUP4 GT PUSH2 0x53E JUMPI DUP3 SWAP1 SUB PUSH1 0x1F AND DUP3 ADD SWAP2 JUMPDEST POP POP POP POP POP SWAP3 POP POP POP SWAP1 JUMP JUMPDEST PUSH1 0x4 PUSH0 SWAP1 SLOAD SWAP1 PUSH2 0x100 EXP SWAP1 DIV PUSH1 0xFF AND DUP2 JUMP JUMPDEST PUSH1 0x1 PUSH0 SWAP1 SLOAD SWAP1 PUSH2 0x100 EXP SWAP1 DIV PUSH20 0xFFFFFFFFFFFFFFFFFFFFFFFFFFFFFFFFFFFFFFFF AND PUSH20 0xFFFFFFFFFFFFFFFFFFFFFFFFFFFFFFFFFFFFFFFF AND CALLER PUSH20 0xFFFFFFFFFFFFFFFFFFFFFFFFFFFFFFFFFFFFFFFF AND EQ PUSH2 0x608 JUMPI PUSH1 0x40 MLOAD PUSH32 0x8C379A000000000000000000000000000000000000000000000000000000000 DUP2 MSTORE PUSH1 0x4 ADD PUSH2 0x5FF SWAP1 PUSH2 0xB84 JUMP JUMPDEST PUSH1 0x40 MLOAD DUP1 SWAP2 SUB SWAP1 REVERT JUMPDEST PUSH0 PUSH1 0x4 PUSH0 PUSH2 0x100 EXP DUP2 SLOAD DUP2 PUSH1 0xFF MUL NOT AND SWAP1 DUP4 ISZERO ISZERO MUL OR SWAP1 SSTORE POP PUSH32 0x7A19ED057DB79E3C2FA0B97A54B43BEF4FCE74B31BB6C01AF514B9A18A7F70AB PUSH1 0x40 MLOAD PUSH1 0x40 MLOAD DUP1 SWAP2 SUB SWAP1 LOG1 JUMP JUMPDEST PUSH1 0x1 PUSH0 SWAP1 SLOAD SWAP1 PUSH2 0x100 EXP SWAP1 DIV PUSH20 0xFFFFFFFFFFFFFFFFFFFFFFFFFFFFFFFFFFFFFFFF AND DUP2 JUMP JUMPDEST PUSH1 0x2 PUSH0 SLOAD SUB PUSH2 0x6B8 JUMPI PUSH1 0x40 MLOAD PUSH32 0x8C379A000000000000000000000000000000000000000000000000000000000 DUP2 MSTORE PUSH1 0x4 ADD PUSH2 0x6AF SWAP1 PUSH2 0xBEC JUMP JUMPDEST PUSH1 0x40 MLOAD DUP1 SWAP2 SUB SWAP1 REVERT JUMPDEST PUSH1 0x2 PUSH0 DUP2 SWAP1 SSTORE POP JUMP JUMPDEST PUSH1 0x1 PUSH0 DUP2 SWAP1 SSTORE POP JUMP JUMPDEST PUSH0 DUP1 REVERT JUMPDEST PUSH0 DUP2 SWAP1 POP SWAP2 SWAP1 POP JUMP JUMPDEST PUSH2 0x6E0 DUP2 PUSH2 0x6CE JUMP JUMPDEST DUP2 EQ PUSH2 0x6EA JUMPI PUSH0 DUP1 REVERT JUMPDEST POP JUMP JUMPDEST PUSH0 DUP2 CALLDATALOAD SWAP1 POP PUSH2 0x6FB DUP2 PUSH2 0x6D7 JUMP JUMPDEST SWAP3 SWAP2 POP POP JUMP JUMPDEST PUSH0 PUSH1 0x20 DUP3 DUP5 SUB SLT ISZERO PUSH2 0x716 JUMPI PUSH2 0x715 PUSH2 0x6CA JUMP JUMPDEST JUMPDEST PUSH0 PUSH2 0x723 DUP5 DUP3 DUP6 ADD PUSH2 0x6ED JUMP JUMPDEST SWAP2 POP POP SWAP3 SWAP2 POP POP JUMP JUMPDEST PUSH0 PUSH20 0xFFFFFFFFFFFFFFFFFFFFFFFFFFFFFFFFFFFFFFFF DUP3 AND SWAP1 POP SWAP2 SWAP1 POP JUMP JUMPDEST PUSH0 PUSH2 0x755 DUP3 PUSH2 0x72C JUMP JUMPDEST SWAP1 POP SWAP2 SWAP1 POP JUMP JUMPDEST PUSH2 0x765 DUP2 PUSH2 0x74B JUMP JUMPDEST DUP2 EQ PUSH2 0x76F JUMPI PUSH0 DUP1 REVERT JUMPDEST POP JUMP JUMPDEST PUSH0 DUP2 CALLDATALOAD SWAP1 POP PUSH2 0x780 DUP2 PUSH2 0x75C JUMP JUMPDEST SWAP3 SWAP2 POP POP JUMP JUMPDEST PUSH0 PUSH1 0x20 DUP3 DUP5 SUB SLT ISZERO PUSH2 0x79B JUMPI PUSH2 0x79A PUSH2 0x6CA JUMP JUMPDEST JUMPDEST PUSH0 PUSH2 0x7A8 DUP5 DUP3 DUP6 ADD PUSH2 0x772 JUMP JUMPDEST SWAP2 POP POP SWAP3 SWAP2 POP POP JUMP JUMPDEST PUSH0 DUP2 ISZERO ISZERO SWAP1 POP SWAP2 SWAP1 POP JUMP JUMPDEST PUSH2 0x7C5 DUP2 PUSH2 0x7B1 JUMP JUMPDEST DUP3 MSTORE POP POP JUMP JUMPDEST PUSH0 PUSH1 0x20 DUP3 ADD SWAP1 POP PUSH2 0x7DE PUSH0 DUP4 ADD DUP5 PUSH2 0x7BC JUMP JUMPDEST SWAP3 SWAP2 POP POP JUMP JUMPDEST PUSH0 DUP2 MLOAD SWAP1 POP SWAP2 SWAP1 POP JUMP JUMPDEST PUSH0 DUP3 DUP3 MSTORE PUSH1 0x20 DUP3 ADD SWAP1 POP SWAP3 SWAP2 POP POP JUMP JUMPDEST DUP3 DUP2 DUP4 MCOPY PUSH0 DUP4 DUP4 ADD MSTORE POP POP POP JUMP JUMPDEST PUSH0 PUSH1 0x1F NOT PUSH1 0x1F DUP4 ADD AND SWAP1 POP SWAP2 SWAP1 POP JUMP JUMPDEST PUSH0 PUSH2 0x826 DUP3 PUSH2 0x7E4 JUMP JUMPDEST PUSH2 0x830 DUP2 DUP6 PUSH2 0x7EE JUMP JUMPDEST SWAP4 POP PUSH2 0x840 DUP2 DUP6 PUSH1 0x20 DUP7 ADD PUSH2 0x7FE JUMP JUMPDEST PUSH2 0x849 DUP2 PUSH2 0x80C JUMP JUMPDEST DUP5 ADD SWAP2 POP POP SWAP3 SWAP2 POP POP JUMP JUMPDEST PUSH2 0x85D DUP2 PUSH2 0x6CE JUMP JUMPDEST DUP3 MSTORE POP POP JUMP JUMPDEST PUSH0 PUSH1 0x40 DUP3 ADD SWAP1 POP DUP2 DUP2 SUB PUSH0 DUP4 ADD MSTORE PUSH2 0x87B DUP2 DUP6 PUSH2 0x81C JUMP JUMPDEST SWAP1 POP PUSH2 0x88A PUSH1 0x20 DUP4 ADD DUP5 PUSH2 0x854 JUMP JUMPDEST SWAP4 SWAP3 POP POP POP JUMP JUMPDEST PUSH0 PUSH1 0x20 DUP3 ADD SWAP1 POP DUP2 DUP2 SUB PUSH0 DUP4 ADD MSTORE PUSH2 0x8A9 DUP2 DUP5 PUSH2 0x81C JUMP JUMPDEST SWAP1 POP SWAP3 SWAP2 POP POP JUMP JUMPDEST PUSH2 0x8BA DUP2 PUSH2 0x74B JUMP JUMPDEST DUP3 MSTORE POP POP JUMP JUMPDEST PUSH0 PUSH1 0x20 DUP3 ADD SWAP1 POP PUSH2 0x8D3 PUSH0 DUP4 ADD DUP5 PUSH2 0x8B1 JUMP JUMPDEST SWAP3 SWAP2 POP POP JUMP JUMPDEST PUSH32 0x566F74696E6720697320636C6F73656400000000000000000000000000000000 PUSH0 DUP3 ADD MSTORE POP JUMP JUMPDEST PUSH0 PUSH2 0x90D PUSH1 0x10 DUP4 PUSH2 0x7EE JUMP JUMPDEST SWAP2 POP PUSH2 0x918 DUP3 PUSH2 0x8D9 JUMP JUMPDEST PUSH1 0x20 DUP3 ADD SWAP1 POP SWAP2 SWAP1 POP JUMP JUMPDEST PUSH0 PUSH1 0x20 DUP3 ADD SWAP1 POP DUP2 DUP2 SUB PUSH0 DUP4 ADD MSTORE PUSH2 0x93A DUP2 PUSH2 0x901 JUMP JUMPDEST SWAP1 POP SWAP2 SWAP1 POP JUMP JUMPDEST PUSH32 0x416C726561647920766F74656400000000000000000000000000000000000000 PUSH0 DUP3 ADD MSTORE POP JUMP JUMPDEST PUSH0 PUSH2 0x975 PUSH1 0xD DUP4 PUSH2 0x7EE JUMP JUMPDEST SWAP2 POP PUSH2 0x980 DUP3 PUSH2 0x941 JUMP JUMPDEST PUSH1 0x20 DUP3 ADD SWAP1 POP SWAP2 SWAP1 POP JUMP JUMPDEST PUSH0 PUSH1 0x20 DUP3 ADD SWAP1 POP DUP2 DUP2 SUB PUSH0 DUP4 ADD MSTORE PUSH2 0x9A2 DUP2 PUSH2 0x969 JUMP JUMPDEST SWAP1 POP SWAP2 SWAP1 POP JUMP JUMPDEST PUSH32 0x496E76616C69642063616E646964617465000000000000000000000000000000 PUSH0 DUP3 ADD MSTORE POP JUMP JUMPDEST PUSH0 PUSH2 0x9DD PUSH1 0x11 DUP4 PUSH2 0x7EE JUMP JUMPDEST SWAP2 POP PUSH2 0x9E8 DUP3 PUSH2 0x9A9 JUMP JUMPDEST PUSH1 0x20 DUP3 ADD SWAP1 POP SWAP2 SWAP1 POP JUMP JUMPDEST PUSH0 PUSH1 0x20 DUP3 ADD SWAP1 POP DUP2 DUP2 SUB PUSH0 DUP4 ADD MSTORE PUSH2 0xA0A DUP2 PUSH2 0x9D1 JUMP JUMPDEST SWAP1 POP SWAP2 SWAP1 POP JUMP JUMPDEST PUSH32 0x4E487B7100000000000000000000000000000000000000000000000000000000 PUSH0 MSTORE PUSH1 0x32 PUSH1 0x4 MSTORE PUSH1 0x24 PUSH0 REVERT JUMPDEST PUSH32 0x4E487B7100000000000000000000000000000000000000000000000000000000 PUSH0 MSTORE PUSH1 0x11 PUSH1 0x4 MSTORE PUSH1 0x24 PUSH0 REVERT JUMPDEST PUSH0 PUSH2 0xA75 DUP3 PUSH2 0x6CE JUMP JUMPDEST SWAP2 POP PUSH2 0xA80 DUP4 PUSH2 0x6CE JUMP JUMPDEST SWAP3 POP DUP3 DUP3 ADD SWAP1 POP DUP1 DUP3 GT ISZERO PUSH2 0xA98 JUMPI PUSH2 0xA97 PUSH2 0xA3E JUMP JUMPDEST JUMPDEST SWAP3 SWAP2 POP POP JUMP JUMPDEST PUSH0 PUSH1 0x20 DUP3 ADD SWAP1 POP PUSH2 0xAB1 PUSH0 DUP4 ADD DUP5 PUSH2 0x854 JUMP JUMPDEST SWAP3 SWAP2 POP POP JUMP JUMPDEST PUSH32 0x4E487B7100000000000000000000000000000000000000000000000000000000 PUSH0 MSTORE PUSH1 0x22 PUSH1 0x4 MSTORE PUSH1 0x24 PUSH0 REVERT JUMPDEST PUSH0 PUSH1 0x2 DUP3 DIV SWAP1 POP PUSH1 0x1 DUP3 AND DUP1 PUSH2 0xAFB JUMPI PUSH1 0x7F DUP3 AND SWAP2 POP JUMPDEST PUSH1 0x20 DUP3 LT DUP2 SUB PUSH2 0xB0E JUMPI PUSH2 0xB0D PUSH2 0xAB7 JUMP JUMPDEST JUMPDEST POP SWAP2 SWAP1 POP JUMP JUMPDEST PUSH32 0x4F6E6C792061646D696E2063616E20706572666F726D20746869732061637469 PUSH0 DUP3 ADD MSTORE PUSH32 0x6F6E000000000000000000000000000000000000000000000000000000000000 PUSH1 0x20 DUP3 ADD MSTORE POP JUMP JUMPDEST PUSH0 PUSH2 0xB6E PUSH1 0x22 DUP4 PUSH2 0x7EE JUMP JUMPDEST SWAP2 POP PUSH2 0xB79 DUP3 PUSH2 0xB14 JUMP JUMPDEST PUSH1 0x40 DUP3 ADD SWAP1 POP SWAP2 SWAP1 POP JUMP JUMPDEST PUSH0 PUSH1 0x20 DUP3 ADD SWAP1 POP DUP2 DUP2 SUB PUSH0 DUP4 ADD MSTORE PUSH2 0xB9B DUP2 PUSH2 0xB62 JUMP JUMPDEST SWAP1 POP SWAP2 SWAP1 POP JUMP JUMPDEST PUSH32 0x5265656E7472616E637947756172643A207265656E7472616E742063616C6C00 PUSH0 DUP3 ADD MSTORE POP JUMP JUMPDEST PUSH0 PUSH2 0xBD6 PUSH1 0x1F DUP4 PUSH2 0x7EE JUMP JUMPDEST SWAP2 POP PUSH2 0xBE1 DUP3 PUSH2 0xBA2 JUMP JUMPDEST PUSH1 0x20 DUP3 ADD SWAP1 POP SWAP2 SWAP1 POP JUMP JUMPDEST PUSH0 PUSH1 0x20 DUP3 ADD SWAP1 POP DUP2 DUP2 SUB PUSH0 DUP4 ADD MSTORE PUSH2 0xC03 DUP2 PUSH2 0xBCA JUMP JUMPDEST SWAP1 POP SWAP2 SWAP1 POP JUMP INVALID LOG2 PUSH5 0x6970667358 0x22 SLT KECCAK256 0xB3 0x23 0xC8 0xAA PUSH9 0x4F3FE0B90035724DC6 DUP4 0x2E LT SAR 0xE2 SWAP16 0xE INVALID SWAP12 0xBA AND PUSH26 0x589A6ABD34FF64736F6C634300081A0033000000000000000000 "
				},
				"gasEstimates": {
					"creation": {
						"codeDepositCost": "627200",
						"executionCost": "infinite",
						"totalCost": "infinite"
					},
					"external": {
						"admin()": "2574",
						"candidates(uint256)": "infinite",
						"closeVoting()": "27398",
						"getWinner()": "infinite",
						"hasVoted(address)": "2856",
						"vote(uint256)": "infinite",
						"votingOpen()": "2488"
					}
				},
				"methodIdentifiers": {
					"admin()": "f851a440",
					"candidates(uint256)": "3477ee2e",
					"closeVoting()": "c631b292",
					"getWinner()": "8e7ea5b2",
					"hasVoted(address)": "09eef43e",
					"vote(uint256)": "0121b93f",
					"votingOpen()": "a95824b4"
				}
			},
			"storageLayout": {
				"storage": [
					{
						"astId": 10,
						"contract": "SecureVoting.sol:SecureVoting",
						"label": "_status",
						"offset": 0,
						"slot": "0",
						"type": "t_uint256"
					},
					{
						"astId": 76,
						"contract": "SecureVoting.sol:SecureVoting",
						"label": "admin",
						"offset": 0,
						"slot": "1",
						"type": "t_address"
					},
					{
						"astId": 80,
						"contract": "SecureVoting.sol:SecureVoting",
						"label": "hasVoted",
						"offset": 0,
						"slot": "2",
						"type": "t_mapping(t_address,t_bool)"
					},
					{
						"astId": 84,
						"contract": "SecureVoting.sol:SecureVoting",
						"label": "candidates",
						"offset": 0,
						"slot": "3",
						"type": "t_array(t_struct(Candidate)74_storage)dyn_storage"
					},
					{
						"astId": 86,
						"contract": "SecureVoting.sol:SecureVoting",
						"label": "votingOpen",
						"offset": 0,
						"slot": "4",
						"type": "t_bool"
					}
				],
				"types": {
					"t_address": {
						"encoding": "inplace",
						"label": "address",
						"numberOfBytes": "20"
					},
					"t_array(t_struct(Candidate)74_storage)dyn_storage": {
						"base": "t_struct(Candidate)74_storage",
						"encoding": "dynamic_array",
						"label": "struct SecureVoting.Candidate[]",
						"numberOfBytes": "32"
					},
					"t_bool": {
						"encoding": "inplace",
						"label": "bool",
						"numberOfBytes": "1"
					},
					"t_mapping(t_address,t_bool)": {
						"encoding": "mapping",
						"key": "t_address",
						"label": "mapping(address => bool)",
						"numberOfBytes": "32",
						"value": "t_bool"
					},
					"t_string_storage": {
						"encoding": "bytes",
						"label": "string",
						"numberOfBytes": "32"
					},
					"t_struct(Candidate)74_storage": {
						"encoding": "inplace",
						"label": "struct SecureVoting.Candidate",
						"members": [
							{
								"astId": 71,
								"contract": "SecureVoting.sol:SecureVoting",
								"label": "name",
								"offset": 0,
								"slot": "0",
								"type": "t_string_storage"
							},
							{
								"astId": 73,
								"contract": "SecureVoting.sol:SecureVoting",
								"label": "voteCount",
								"offset": 0,
								"slot": "1",
								"type": "t_uint256"
							}
						],
						"numberOfBytes": "64"
					},
					"t_uint256": {
						"encoding": "inplace",
						"label": "uint256",
						"numberOfBytes": "32"
					}
				}
			},
			"userdoc": {
				"kind": "user",
				"methods": {},
				"version": 1
			}
		}
	}
}