{
	"invoice/invoice1.sol": {
		"Invoice": {
			"abi": [
				{
					"inputs": [
						{
							"internalType": "uint256",
							"name": "_originalAmount",
							"type": "uint256"
						},
						{
							"internalType": "uint256",
							"name": "_discount",
							"type": "uint256"
						}
					],
					"stateMutability": "nonpayable",
					"type": "constructor"
				},
				{
					"inputs": [],
					"name": "discount",
					"outputs": [
						{
							"internalType": "uint256",
							"name": "",
							"type": "uint256"
						}
					],
					"stateMutability": "view",
					"type": "function"
				},
				{
					"inputs": [],
					"name": "getFinalAmount",
					"outputs": [
						{
							"internalType": "uint256",
							"name": "",
							"type": "uint256"
						}
					],
					"stateMutability": "view",
					"type": "function"
				},
				{
					"inputs": [],
					"name": "getGST",
					"outputs": [
						{
							"internalType": "uint256",
							"name": "",
							"type": "uint256"
						}
					],
					"stateMutability": "view",
					"type": "function"
				},
				{
					"inputs": [],
					"name": "getSubtotal",
					"outputs": [
						{
							"internalType": "uint256",
							"name": "",
							"type": "uint256"
						}
					],
					"stateMutability": "view",
					"type": "function"
				},
				{
					"inputs": [],
					"name": "originalAmount",
					"outputs": [
						{
							"internalType": "uint256",
							"name": "",
							"type": "uint256"
						}
					],
					"stateMutability": "view",
					"type": "function"
				},
				{
					"inputs": [],
					"name": "taxRate",
					"outputs": [
						{
							"internalType": "uint256",
							"name": "",
							"type": "uint256"
						}
					],
					"stateMutability": "view",
					"type": "function"
				}
			],
			"devdoc": {
				"kind": "dev",
				"methods": {},
				"version": 1
			},
			"evm": {
				"assembly": "    /* \"invoice/invoice1.sol\":63:1216  contract Invoice {... */\n  mstore(0x40, 0x80)\n    /* \"invoice/invoice1.sol\":264:265  5 */\n  0x05\n    /* \"invoice/invoice1.sol\":239:265  uint256 public taxRate = 5 */\n  0x02\n  sstore\n    /* \"invoice/invoice1.sol\":376:514  constructor(uint256 _originalAmount, uint256 _discount) {... */\n  callvalue\n  dup1\n  iszero\n  tag_1\n  jumpi\n  0x00\n  dup1\n  revert\ntag_1:\n  pop\n  mload(0x40)\n  sub(codesize, bytecodeSize)\n  dup1\n  bytecodeSize\n  dup4\n  codecopy\n  dup2\n  dup2\n  add\n  0x40\n  mstore\n  dup2\n  add\n  swap1\n  tag_2\n  swap2\n  swap1\n  tag_3\n  jump\t// in\ntag_2:\n    /* \"invoice/invoice1.sol\":460:475  _originalAmount */\n  dup2\n    /* \"invoice/invoice1.sol\":443:457  originalAmount */\n  0x00\n    /* \"invoice/invoice1.sol\":443:475  originalAmount = _originalAmount */\n  dup2\n  swap1\n  sstore\n  pop\n    /* \"invoice/invoice1.sol\":497:506  _discount */\n  dup1\n    /* \"invoice/invoice1.sol\":486:494  discount */\n  0x01\n    /* \"invoice/invoice1.sol\":486:506  discount = _discount */\n  dup2\n  swap1\n  sstore\n  pop\n    /* \"invoice/invoice1.sol\":376:514  constructor(uint256 _originalAmount, uint256 _discount) {... */\n  pop\n  pop\n    /* \"invoice/invoice1.sol\":63:1216  contract Invoice {... */\n  jump(tag_6)\n    /* \"#utility.yul\":88:205   */\ntag_8:\n    /* \"#utility.yul\":197:198   */\n  0x00\n    /* \"#utility.yul\":194:195   */\n  dup1\n    /* \"#utility.yul\":187:199   */\n  revert\n    /* \"#utility.yul\":334:411   */\ntag_10:\n    /* \"#utility.yul\":371:378   */\n  0x00\n    /* \"#utility.yul\":400:405   */\n  dup2\n    /* \"#utility.yul\":389:405   */\n  swap1\n  pop\n    /* \"#utility.yul\":334:411   */\n  swap2\n  swap1\n  pop\n  jump\t// out\n    /* \"#utility.yul\":417:539   */\ntag_11:\n    /* \"#utility.yul\":490:514   */\n  tag_19\n    /* \"#utility.yul\":508:513   */\n  dup2\n    /* \"#utility.yul\":490:514   */\n  tag_10\n  jump\t// in\ntag_19:\n    /* \"#utility.yul\":483:488   */\n  dup2\n    /* \"#utility.yul\":480:515   */\n  eq\n    /* \"#utility.yul\":470:533   */\n  tag_20\n  jumpi\n    /* \"#utility.yul\":529:530   */\n  0x00\n    /* \"#utility.yul\":526:527   */\n  dup1\n    /* \"#utility.yul\":519:531   */\n  revert\n    /* \"#utility.yul\":470:533   */\ntag_20:\n    /* \"#utility.yul\":417:539   */\n  pop\n  jump\t// out\n    /* \"#utility.yul\":545:688   */\ntag_12:\n    /* \"#utility.yul\":602:607   */\n  0x00\n    /* \"#utility.yul\":633:639   */\n  dup2\n    /* \"#utility.yul\":627:640   */\n  mload\n    /* \"#utility.yul\":618:640   */\n  swap1\n  pop\n    /* \"#utility.yul\":649:682   */\n  tag_22\n    /* \"#utility.yul\":676:681   */\n  dup2\n    /* \"#utility.yul\":649:682   */\n  tag_11\n  jump\t// in\ntag_22:\n    /* \"#utility.yul\":545:688   */\n  swap3\n  swap2\n  pop\n  pop\n  jump\t// out\n    /* \"#utility.yul\":694:1201   */\ntag_3:\n    /* \"#utility.yul\":773:779   */\n  0x00\n    /* \"#utility.yul\":781:787   */\n  dup1\n    /* \"#utility.yul\":830:832   */\n  0x40\n    /* \"#utility.yul\":818:827   */\n  dup4\n    /* \"#utility.yul\":809:816   */\n  dup6\n    /* \"#utility.yul\":805:828   */\n  sub\n    /* \"#utility.yul\":801:833   */\n  slt\n    /* \"#utility.yul\":798:917   */\n  iszero\n  tag_24\n  jumpi\n    /* \"#utility.yul\":836:915   */\n  tag_25\n  tag_8\n  jump\t// in\ntag_25:\n    /* \"#utility.yul\":798:917   */\ntag_24:\n    /* \"#utility.yul\":956:957   */\n  0x00\n    /* \"#utility.yul\":981:1045   */\n  tag_26\n    /* \"#utility.yul\":1037:1044   */\n  dup6\n    /* \"#utility.yul\":1028:1034   */\n  dup3\n    /* \"#utility.yul\":1017:1026   */\n  dup7\n    /* \"#utility.yul\":1013:1035   */\n  add\n    /* \"#utility.yul\":981:1045   */\n  tag_12\n  jump\t// in\ntag_26:\n    /* \"#utility.yul\":971:1045   */\n  swap3\n  pop\n    /* \"#utility.yul\":927:1055   */\n  pop\n    /* \"#utility.yul\":1094:1096   */\n  0x20\n    /* \"#utility.yul\":1120:1184   */\n  tag_27\n    /* \"#utility.yul\":1176:1183   */\n  dup6\n    /* \"#utility.yul\":1167:1173   */\n  dup3\n    /* \"#utility.yul\":1156:1165   */\n  dup7\n    /* \"#utility.yul\":1152:1174   */\n  add\n    /* \"#utility.yul\":1120:1184   */\n  tag_12\n  jump\t// in\ntag_27:\n    /* \"#utility.yul\":1110:1184   */\n  swap2\n  pop\n    /* \"#utility.yul\":1065:1194   */\n  pop\n    /* \"#utility.yul\":694:1201   */\n  swap3\n  pop\n  swap3\n  swap1\n  pop\n  jump\t// out\n    /* \"invoice/invoice1.sol\":63:1216  contract Invoice {... */\ntag_6:\n  dataSize(sub_0)\n  dup1\n  dataOffset(sub_0)\n  0x00\n  codecopy\n  0x00\n  return\nstop\n\nsub_0: assembly {\n        /* \"invoice/invoice1.sol\":63:1216  contract Invoice {... */\n      mstore(0x40, 0x80)\n      callvalue\n      dup1\n      iszero\n      tag_1\n      jumpi\n      0x00\n      dup1\n      revert\n    tag_1:\n      pop\n      jumpi(tag_2, lt(calldatasize, 0x04))\n      shr(0xe0, calldataload(0x00))\n      dup1\n      0x66b77a96\n      eq\n      tag_3\n      jumpi\n      dup1\n      0x6b6f4a9d\n      eq\n      tag_4\n      jumpi\n      dup1\n      0x771a3a1d\n      eq\n      tag_5\n      jumpi\n      dup1\n      0x96212e33\n      eq\n      tag_6\n      jumpi\n      dup1\n      0xd0d2c92d\n      eq\n      tag_7\n      jumpi\n      dup1\n      0xf94f45cd\n      eq\n      tag_8\n      jumpi\n    tag_2:\n      0x00\n      dup1\n      revert\n        /* \"invoice/invoice1.sol\":105:134  uint256 public originalAmount */\n    tag_3:\n      tag_9\n      tag_10\n      jump\t// in\n    tag_9:\n      mload(0x40)\n      tag_11\n      swap2\n      swap1\n      tag_12\n      jump\t// in\n    tag_11:\n      mload(0x40)\n      dup1\n      swap2\n      sub\n      swap1\n      return\n        /* \"invoice/invoice1.sol\":184:207  uint256 public discount */\n    tag_4:\n      tag_13\n      tag_14\n      jump\t// in\n    tag_13:\n      mload(0x40)\n      tag_15\n      swap2\n      swap1\n      tag_12\n      jump\t// in\n    tag_15:\n      mload(0x40)\n      dup1\n      swap2\n      sub\n      swap1\n      return\n        /* \"invoice/invoice1.sol\":239:265  uint256 public taxRate = 5 */\n    tag_5:\n      tag_16\n      tag_17\n      jump\t// in\n    tag_16:\n      mload(0x40)\n      tag_18\n      swap2\n      swap1\n      tag_12\n      jump\t// in\n    tag_18:\n      mload(0x40)\n      dup1\n      swap2\n      sub\n      swap1\n      return\n        /* \"invoice/invoice1.sol\":734:838  function getSubtotal() public view returns (uint256) {... */\n    tag_6:\n      tag_19\n      tag_20\n      jump\t// in\n    tag_19:\n      mload(0x40)\n      tag_21\n      swap2\n      swap1\n      tag_12\n      jump\t// in\n    tag_21:\n      mload(0x40)\n      dup1\n      swap2\n      sub\n      swap1\n      return\n        /* \"invoice/invoice1.sol\":557:663  function getGST() public view returns (uint256) {... */\n    tag_7:\n      tag_22\n      tag_23\n      jump\t// in\n    tag_22:\n      mload(0x40)\n      tag_24\n      swap2\n      swap1\n      tag_12\n      jump\t// in\n    tag_24:\n      mload(0x40)\n      dup1\n      swap2\n      sub\n      swap1\n      return\n        /* \"invoice/invoice1.sol\":918:1213  function getFinalAmount() public view returns (uint256) {... */\n    tag_8:\n      tag_25\n      tag_26\n      jump\t// in\n    tag_25:\n      mload(0x40)\n      tag_27\n      swap2\n      swap1\n      tag_12\n      jump\t// in\n    tag_27:\n      mload(0x40)\n      dup1\n      swap2\n      sub\n      swap1\n      return\n        /* \"invoice/invoice1.sol\":105:134  uint256 public originalAmount */\n    tag_10:\n      sload(0x00)\n      dup2\n      jump\t// out\n        /* \"invoice/invoice1.sol\":184:207  uint256 public discount */\n    tag_14:\n      sload(0x01)\n      dup2\n      jump\t// out\n        /* \"invoice/invoice1.sol\":239:265  uint256 public taxRate = 5 */\n    tag_17:\n      sload(0x02)\n      dup2\n      jump\t// out\n        /* \"invoice/invoice1.sol\":734:838  function getSubtotal() public view returns (uint256) {... */\n    tag_20:\n        /* \"invoice/invoice1.sol\":778:785  uint256 */\n      0x00\n        /* \"invoice/invoice1.sol\":822:830  getGST() */\n      tag_29\n        /* \"invoice/invoice1.sol\":822:828  getGST */\n      tag_23\n        /* \"invoice/invoice1.sol\":822:830  getGST() */\n      jump\t// in\n    tag_29:\n        /* \"invoice/invoice1.sol\":805:819  originalAmount */\n      sload(0x00)\n        /* \"invoice/invoice1.sol\":805:830  originalAmount + getGST() */\n      tag_30\n      swap2\n      swap1\n      tag_31\n      jump\t// in\n    tag_30:\n        /* \"invoice/invoice1.sol\":798:830  return originalAmount + getGST() */\n      swap1\n      pop\n        /* \"invoice/invoice1.sol\":734:838  function getSubtotal() public view returns (uint256) {... */\n      swap1\n      jump\t// out\n        /* \"invoice/invoice1.sol\":557:663  function getGST() public view returns (uint256) {... */\n    tag_23:\n        /* \"invoice/invoice1.sol\":596:603  uint256 */\n      0x00\n        /* \"invoice/invoice1.sol\":652:655  100 */\n      0x64\n        /* \"invoice/invoice1.sol\":641:648  taxRate */\n      sload(0x02)\n        /* \"invoice/invoice1.sol\":624:638  originalAmount */\n      sload(0x00)\n        /* \"invoice/invoice1.sol\":624:648  originalAmount * taxRate */\n      tag_33\n      swap2\n      swap1\n      tag_34\n      jump\t// in\n    tag_33:\n        /* \"invoice/invoice1.sol\":623:655  (originalAmount * taxRate) / 100 */\n      tag_35\n      swap2\n      swap1\n      tag_36\n      jump\t// in\n    tag_35:\n        /* \"invoice/invoice1.sol\":616:655  return (originalAmount * taxRate) / 100 */\n      swap1\n      pop\n        /* \"invoice/invoice1.sol\":557:663  function getGST() public view returns (uint256) {... */\n      swap1\n      jump\t// out\n        /* \"invoice/invoice1.sol\":918:1213  function getFinalAmount() public view returns (uint256) {... */\n    tag_26:\n        /* \"invoice/invoice1.sol\":965:972  uint256 */\n      0x00\n        /* \"invoice/invoice1.sol\":985:1001  uint256 subtotal */\n      dup1\n        /* \"invoice/invoice1.sol\":1004:1017  getSubtotal() */\n      tag_38\n        /* \"invoice/invoice1.sol\":1004:1015  getSubtotal */\n      tag_20\n        /* \"invoice/invoice1.sol\":1004:1017  getSubtotal() */\n      jump\t// in\n    tag_38:\n        /* \"invoice/invoice1.sol\":985:1017  uint256 subtotal = getSubtotal() */\n      swap1\n      pop\n        /* \"invoice/invoice1.sol\":1043:1051  discount */\n      sload(0x01)\n        /* \"invoice/invoice1.sol\":1032:1040  subtotal */\n      dup2\n        /* \"invoice/invoice1.sol\":1032:1051  subtotal > discount */\n      gt\n        /* \"invoice/invoice1.sol\":1028:1206  if (subtotal > discount) {... */\n      iszero\n      tag_39\n      jumpi\n        /* \"invoice/invoice1.sol\":1086:1094  discount */\n      sload(0x01)\n        /* \"invoice/invoice1.sol\":1075:1083  subtotal */\n      dup2\n        /* \"invoice/invoice1.sol\":1075:1094  subtotal - discount */\n      tag_40\n      swap2\n      swap1\n      tag_41\n      jump\t// in\n    tag_40:\n        /* \"invoice/invoice1.sol\":1068:1094  return subtotal - discount */\n      swap2\n      pop\n      pop\n      jump(tag_37)\n        /* \"invoice/invoice1.sol\":1028:1206  if (subtotal > discount) {... */\n    tag_39:\n        /* \"invoice/invoice1.sol\":1165:1166  0 */\n      0x00\n        /* \"invoice/invoice1.sol\":1158:1166  return 0 */\n      swap2\n      pop\n      pop\n        /* \"invoice/invoice1.sol\":918:1213  function getFinalAmount() public view returns (uint256) {... */\n    tag_37:\n      swap1\n      jump\t// out\n        /* \"#utility.yul\":7:84   */\n    tag_43:\n        /* \"#utility.yul\":44:51   */\n      0x00\n        /* \"#utility.yul\":73:78   */\n      dup2\n        /* \"#utility.yul\":62:78   */\n      swap1\n      pop\n        /* \"#utility.yul\":7:84   */\n      swap2\n      swap1\n      pop\n      jump\t// out\n        /* \"#utility.yul\":90:208   */\n    tag_44:\n        /* \"#utility.yul\":177:201   */\n      tag_50\n        /* \"#utility.yul\":195:200   */\n      dup2\n        /* \"#utility.yul\":177:201   */\n      tag_43\n      jump\t// in\n    tag_50:\n        /* \"#utility.yul\":172:175   */\n      dup3\n        /* \"#utility.yul\":165:202   */\n      mstore\n        /* \"#utility.yul\":90:208   */\n      pop\n      pop\n      jump\t// out\n        /* \"#utility.yul\":214:436   */\n    tag_12:\n        /* \"#utility.yul\":307:311   */\n      0x00\n        /* \"#utility.yul\":345:347   */\n      0x20\n        /* \"#utility.yul\":334:343   */\n      dup3\n        /* \"#utility.yul\":330:348   */\n      add\n        /* \"#utility.yul\":322:348   */\n      swap1\n      pop\n        /* \"#utility.yul\":358:429   */\n      tag_52\n        /* \"#utility.yul\":426:427   */\n      0x00\n        /* \"#utility.yul\":415:424   */\n      dup4\n        /* \"#utility.yul\":411:428   */\n      add\n        /* \"#utility.yul\":402:408   */\n      dup5\n        /* \"#utility.yul\":358:429   */\n      tag_44\n      jump\t// in\n    tag_52:\n        /* \"#utility.yul\":214:436   */\n      swap3\n      swap2\n      pop\n      pop\n      jump\t// out\n        /* \"#utility.yul\":442:622   */\n    tag_45:\n        /* \"#utility.yul\":490:567   */\n      0x4e487b7100000000000000000000000000000000000000000000000000000000\n        /* \"#utility.yul\":487:488   */\n      0x00\n        /* \"#utility.yul\":480:568   */\n      mstore\n        /* \"#utility.yul\":587:591   */\n      0x11\n        /* \"#utility.yul\":584:585   */\n      0x04\n        /* \"#utility.yul\":577:592   */\n      mstore\n        /* \"#utility.yul\":611:615   */\n      0x24\n        /* \"#utility.yul\":608:609   */\n      0x00\n        /* \"#utility.yul\":601:616   */\n      revert\n        /* \"#utility.yul\":628:819   */\n    tag_31:\n        /* \"#utility.yul\":668:671   */\n      0x00\n        /* \"#utility.yul\":687:707   */\n      tag_55\n        /* \"#utility.yul\":705:706   */\n      dup3\n        /* \"#utility.yul\":687:707   */\n      tag_43\n      jump\t// in\n    tag_55:\n        /* \"#utility.yul\":682:707   */\n      swap2\n      pop\n        /* \"#utility.yul\":721:741   */\n      tag_56\n        /* \"#utility.yul\":739:740   */\n      dup4\n        /* \"#utility.yul\":721:741   */\n      tag_43\n      jump\t// in\n    tag_56:\n        /* \"#utility.yul\":716:741   */\n      swap3\n      pop\n        /* \"#utility.yul\":764:765   */\n      dup3\n        /* \"#utility.yul\":761:762   */\n      dup3\n        /* \"#utility.yul\":757:766   */\n      add\n        /* \"#utility.yul\":750:766   */\n      swap1\n      pop\n        /* \"#utility.yul\":785:788   */\n      dup1\n        /* \"#utility.yul\":782:783   */\n      dup3\n        /* \"#utility.yul\":779:789   */\n      gt\n        /* \"#utility.yul\":776:812   */\n      iszero\n      tag_57\n      jumpi\n        /* \"#utility.yul\":792:810   */\n      tag_58\n      tag_45\n      jump\t// in\n    tag_58:\n        /* \"#utility.yul\":776:812   */\n    tag_57:\n        /* \"#utility.yul\":628:819   */\n      swap3\n      swap2\n      pop\n      pop\n      jump\t// out\n        /* \"#utility.yul\":825:1235   */\n    tag_34:\n        /* \"#utility.yul\":865:872   */\n      0x00\n        /* \"#utility.yul\":888:908   */\n      tag_60\n        /* \"#utility.yul\":906:907   */\n      dup3\n        /* \"#utility.yul\":888:908   */\n      tag_43\n      jump\t// in\n    tag_60:\n        /* \"#utility.yul\":883:908   */\n      swap2\n      pop\n        /* \"#utility.yul\":922:942   */\n      tag_61\n        /* \"#utility.yul\":940:941   */\n      dup4\n        /* \"#utility.yul\":922:942   */\n      tag_43\n      jump\t// in\n    tag_61:\n        /* \"#utility.yul\":917:942   */\n      swap3\n      pop\n        /* \"#utility.yul\":977:978   */\n      dup3\n        /* \"#utility.yul\":974:975   */\n      dup3\n        /* \"#utility.yul\":970:979   */\n      mul\n        /* \"#utility.yul\":999:1029   */\n      tag_62\n        /* \"#utility.yul\":1017:1028   */\n      dup2\n        /* \"#utility.yul\":999:1029   */\n      tag_43\n      jump\t// in\n    tag_62:\n        /* \"#utility.yul\":988:1029   */\n      swap2\n      pop\n        /* \"#utility.yul\":1178:1179   */\n      dup3\n        /* \"#utility.yul\":1169:1176   */\n      dup3\n        /* \"#utility.yul\":1165:1180   */\n      div\n        /* \"#utility.yul\":1162:1163   */\n      dup5\n        /* \"#utility.yul\":1159:1181   */\n      eq\n        /* \"#utility.yul\":1139:1140   */\n      dup4\n        /* \"#utility.yul\":1132:1141   */\n      iszero\n        /* \"#utility.yul\":1112:1195   */\n      or\n        /* \"#utility.yul\":1089:1228   */\n      tag_63\n      jumpi\n        /* \"#utility.yul\":1208:1226   */\n      tag_64\n      tag_45\n      jump\t// in\n    tag_64:\n        /* \"#utility.yul\":1089:1228   */\n    tag_63:\n        /* \"#utility.yul\":873:1235   */\n      pop\n        /* \"#utility.yul\":825:1235   */\n      swap3\n      swap2\n      pop\n      pop\n      jump\t// out\n        /* \"#utility.yul\":1241:1421   */\n    tag_46:\n        /* \"#utility.yul\":1289:1366   */\n      0x4e487b7100000000000000000000000000000000000000000000000000000000\n        /* \"#utility.yul\":1286:1287   */\n      0x00\n        /* \"#utility.yul\":1279:1367   */\n      mstore\n        /* \"#utility.yul\":1386:1390   */\n      0x12\n        /* \"#utility.yul\":1383:1384   */\n      0x04\n        /* \"#utility.yul\":1376:1391   */\n      mstore\n        /* \"#utility.yul\":1410:1414   */\n      0x24\n        /* \"#utility.yul\":1407:1408   */\n      0x00\n        /* \"#utility.yul\":1400:1415   */\n      revert\n        /* \"#utility.yul\":1427:1612   */\n    tag_36:\n        /* \"#utility.yul\":1467:1468   */\n      0x00\n        /* \"#utility.yul\":1484:1504   */\n      tag_67\n        /* \"#utility.yul\":1502:1503   */\n      dup3\n        /* \"#utility.yul\":1484:1504   */\n      tag_43\n      jump\t// in\n    tag_67:\n        /* \"#utility.yul\":1479:1504   */\n      swap2\n      pop\n        /* \"#utility.yul\":1518:1538   */\n      tag_68\n        /* \"#utility.yul\":1536:1537   */\n      dup4\n        /* \"#utility.yul\":1518:1538   */\n      tag_43\n      jump\t// in\n    tag_68:\n        /* \"#utility.yul\":1513:1538   */\n      swap3\n      pop\n        /* \"#utility.yul\":1557:1558   */\n      dup3\n        /* \"#utility.yul\":1547:1582   */\n      tag_69\n      jumpi\n        /* \"#utility.yul\":1562:1580   */\n      tag_70\n      tag_46\n      jump\t// in\n    tag_70:\n        /* \"#utility.yul\":1547:1582   */\n    tag_69:\n        /* \"#utility.yul\":1604:1605   */\n      dup3\n        /* \"#utility.yul\":1601:1602   */\n      dup3\n        /* \"#utility.yul\":1597:1606   */\n      div\n        /* \"#utility.yul\":1592:1606   */\n      swap1\n      pop\n        /* \"#utility.yul\":1427:1612   */\n      swap3\n      swap2\n      pop\n      pop\n      jump\t// out\n        /* \"#utility.yul\":1618:1812   */\n    tag_41:\n        /* \"#utility.yul\":1658:1662   */\n      0x00\n        /* \"#utility.yul\":1678:1698   */\n      tag_72\n        /* \"#utility.yul\":1696:1697   */\n      dup3\n        /* \"#utility.yul\":1678:1698   */\n      tag_43\n      jump\t// in\n    tag_72:\n        /* \"#utility.yul\":1673:1698   */\n      swap2\n      pop\n        /* \"#utility.yul\":1712:1732   */\n      tag_73\n        /* \"#utility.yul\":1730:1731   */\n      dup4\n        /* \"#utility.yul\":1712:1732   */\n      tag_43\n      jump\t// in\n    tag_73:\n        /* \"#utility.yul\":1707:1732   */\n      swap3\n      pop\n        /* \"#utility.yul\":1756:1757   */\n      dup3\n        /* \"#utility.yul\":1753:1754   */\n      dup3\n        /* \"#utility.yul\":1749:1758   */\n      sub\n        /* \"#utility.yul\":1741:1758   */\n      swap1\n      pop\n        /* \"#utility.yul\":1780:1781   */\n      dup2\n        /* \"#utility.yul\":1774:1778   */\n      dup2\n        /* \"#utility.yul\":1771:1782   */\n      gt\n        /* \"#utility.yul\":1768:1805   */\n      iszero\n      tag_74\n      jumpi\n        /* \"#utility.yul\":1785:1803   */\n      tag_75\n      tag_45\n      jump\t// in\n    tag_75:\n        /* \"#utility.yul\":1768:1805   */\n    tag_74:\n        /* \"#utility.yul\":1618:1812   */\n      swap3\n      swap2\n      pop\n      pop\n      jump\t// out\n\n    auxdata: 0xa26469706673582212205f24bd57cadab0674643cc164e0c4ee260b10b482789c49dd2029d2f6077fa5064736f6c634300081a0033\n}\n",
				"bytecode": {
					"linkReferences": {},
					"object": "608060405260056002553480156013575f80fd5b506040516103ec3803806103ec8339818101604052810190603391906078565b815f8190555080600181905550505060af565b5f80fd5b5f819050919050565b605a81604a565b81146063575f80fd5b50565b5f815190506072816053565b92915050565b5f8060408385031215608b57608a6046565b5b5f6096858286016066565b925050602060a5858286016066565b9150509250929050565b610330806100bc5f395ff3fe608060405234801561000f575f80fd5b5060043610610060575f3560e01c806366b77a96146100645780636b6f4a9d14610082578063771a3a1d146100a057806396212e33146100be578063d0d2c92d146100dc578063f94f45cd146100fa575b5f80fd5b61006c610118565b60405161007991906101b0565b60405180910390f35b61008a61011d565b60405161009791906101b0565b60405180910390f35b6100a8610123565b6040516100b591906101b0565b60405180910390f35b6100c6610129565b6040516100d391906101b0565b60405180910390f35b6100e4610143565b6040516100f191906101b0565b60405180910390f35b610102610164565b60405161010f91906101b0565b60405180910390f35b5f5481565b60015481565b60025481565b5f610132610143565b5f5461013e91906101f6565b905090565b5f60646002545f546101559190610229565b61015f9190610297565b905090565b5f8061016e610129565b9050600154811115610190576001548161018891906102c7565b915050610195565b5f9150505b90565b5f819050919050565b6101aa81610198565b82525050565b5f6020820190506101c35f8301846101a1565b92915050565b7f4e487b71000000000000000000000000000000000000000000000000000000005f52601160045260245ffd5b5f61020082610198565b915061020b83610198565b9250828201905080821115610223576102226101c9565b5b92915050565b5f61023382610198565b915061023e83610198565b925082820261024c81610198565b91508282048414831517610263576102626101c9565b5b5092915050565b7f4e487b71000000000000000000000000000000000000000000000000000000005f52601260045260245ffd5b5f6102a182610198565b91506102ac83610198565b9250826102bc576102bb61026a565b5b828204905092915050565b5f6102d182610198565b91506102dc83610198565b92508282039050818111156102f4576102f36101c9565b5b9291505056fea26469706673582212205f24bd57cadab0674643cc164e0c4ee260b10b482789c49dd2029d2f6077fa5064736f6c634300081a0033",
					"opcodes": "PUSH1 0x80 PUSH1 0x40 MSTORE PUSH1 0x5 PUSH1 0x2 SSTORE CALLVALUE DUP1 ISZERO PUSH1 0x13 JUMPI PUSH0 DUP1 REVERT JUMPDEST POP PUSH1 0x40 MLOAD PUSH2 0x3EC CODESIZE SUB DUP1 PUSH2 0x3EC DUP4 CODECOPY DUP2 DUP2 ADD PUSH1 0x40 MSTORE DUP2 ADD SWAP1 PUSH1 0x33 SWAP2 SWAP1 PUSH1 0x78 JUMP JUMPDEST DUP2 PUSH0 DUP2 SWAP1 SSTORE POP DUP1 PUSH1 0x1 DUP2 SWAP1 SSTORE POP POP POP PUSH1 0xAF JUMP JUMPDEST PUSH0 DUP1 REVERT JUMPDEST PUSH0 DUP2 SWAP1 POP SWAP2 SWAP1 POP JUMP JUMPDEST PUSH1 0x5A DUP2 PUSH1 0x4A JUMP JUMPDEST DUP2 EQ PUSH1 0x63 JUMPI PUSH0 DUP1 REVERT JUMPDEST POP JUMP JUMPDEST PUSH0 DUP2 MLOAD SWAP1 POP PUSH1 0x72 DUP2 PUSH1 0x53 JUMP JUMPDEST SWAP3 SWAP2 POP POP JUMP JUMPDEST PUSH0 DUP1 PUSH1 0x40 DUP4 DUP6 SUB SLT ISZERO PUSH1 0x8B JUMPI PUSH1 0x8A PUSH1 0x46 JUMP JUMPDEST JUMPDEST PUSH0 PUSH1 0x96 DUP6 DUP3 DUP7 ADD PUSH1 0x66 JUMP JUMPDEST SWAP3 POP POP PUSH1 0x20 PUSH1 0xA5 DUP6 DUP3 DUP7 ADD PUSH1 0x66 JUMP JUMPDEST SWAP2 POP POP SWAP3 POP SWAP3 SWAP1 POP JUMP JUMPDEST PUSH2 0x330 DUP1 PUSH2 0xBC PUSH0 CODECOPY PUSH0 RETURN INVALID PUSH1 0x80 PUSH1 0x40 MSTORE CALLVALUE DUP1 ISZERO PUSH2 0xF JUMPI PUSH0 DUP1 REVERT JUMPDEST POP PUSH1 0x4 CALLDATASIZE LT PUSH2 0x60 JUMPI PUSH0 CALLDATALOAD PUSH1 0xE0 SHR DUP1 PUSH4 0x66B77A96 EQ PUSH2 0x64 JUMPI DUP1 PUSH4 0x6B6F4A9D EQ PUSH2 0x82 JUMPI DUP1 PUSH4 0x771A3A1D EQ PUSH2 0xA0 JUMPI DUP1 PUSH4 0x96212E33 EQ PUSH2 0xBE JUMPI DUP1 PUSH4 0xD0D2C92D EQ PUSH2 0xDC JUMPI DUP1 PUSH4 0xF94F45CD EQ PUSH2 0xFA JUMPI JUMPDEST PUSH0 DUP1 REVERT JUMPDEST PUSH2 0x6C PUSH2 0x118 JUMP JUMPDEST PUSH1 0x40 MLOAD PUSH2 0x79 SWAP2 SWAP1 PUSH2 0x1B0 JUMP JUMPDEST PUSH1 0x40 MLOAD DUP1 SWAP2 SUB SWAP1 RETURN JUMPDEST PUSH2 0x8A PUSH2 0x11D JUMP JUMPDEST PUSH1 0x40 MLOAD PUSH2 0x97 SWAP2 SWAP1 PUSH2 0x1B0 JUMP JUMPDEST PUSH1 0x40 MLOAD DUP1 SWAP2 SUB SWAP1 RETURN JUMPDEST PUSH2 0xA8 PUSH2 0x123 JUMP JUMPDEST PUSH1 0x40 MLOAD PUSH2 0xB5 SWAP2 SWAP1 PUSH2 0x1B0 JUMP JUMPDEST PUSH1 0x40 MLOAD DUP1 SWAP2 SUB SWAP1 RETURN JUMPDEST PUSH2 0xC6 PUSH2 0x129 JUMP JUMPDEST PUSH1 0x40 MLOAD PUSH2 0xD3 SWAP2 SWAP1 PUSH2 0x1B0 JUMP JUMPDEST PUSH1 0x40 MLOAD DUP1 SWAP2 SUB SWAP1 RETURN JUMPDEST PUSH2 0xE4 PUSH2 0x143 JUMP JUMPDEST PUSH1 0x40 MLOAD PUSH2 0xF1 SWAP2 SWAP1 PUSH2 0x1B0 JUMP JUMPDEST PUSH1 0x40 MLOAD DUP1 SWAP2 SUB SWAP1 RETURN JUMPDEST PUSH2 0x102 PUSH2 0x164 JUMP JUMPDEST PUSH1 0x40 MLOAD PUSH2 0x10F SWAP2 SWAP1 PUSH2 0x1B0 JUMP JUMPDEST PUSH1 0x40 MLOAD DUP1 SWAP2 SUB SWAP1 RETURN JUMPDEST PUSH0 SLOAD DUP2 JUMP JUMPDEST PUSH1 0x1 SLOAD DUP2 JUMP JUMPDEST PUSH1 0x2 SLOAD DUP2 JUMP JUMPDEST PUSH0 PUSH2 0x132 PUSH2 0x143 JUMP JUMPDEST PUSH0 SLOAD PUSH2 0x13E SWAP2 SWAP1 PUSH2 0x1F6 JUMP JUMPDEST SWAP1 POP SWAP1 JUMP JUMPDEST PUSH0 PUSH1 0x64 PUSH1 0x2 SLOAD PUSH0 SLOAD PUSH2 0x155 SWAP2 SWAP1 PUSH2 0x229 JUMP JUMPDEST PUSH2 0x15F SWAP2 SWAP1 PUSH2 0x297 JUMP JUMPDEST SWAP1 POP SWAP1 JUMP JUMPDEST PUSH0 DUP1 PUSH2 0x16E PUSH2 0x129 JUMP JUMPDEST SWAP1 POP PUSH1 0x1 SLOAD DUP2 GT ISZERO PUSH2 0x190 JUMPI PUSH1 0x1 SLOAD DUP2 PUSH2 0x188 SWAP2 SWAP1 PUSH2 0x2C7 JUMP JUMPDEST SWAP2 POP POP PUSH2 0x195 JUMP JUMPDEST PUSH0 SWAP2 POP POP JUMPDEST SWAP1 JUMP JUMPDEST PUSH0 DUP2 SWAP1 POP SWAP2 SWAP1 POP JUMP JUMPDEST PUSH2 0x1AA DUP2 PUSH2 0x198 JUMP JUMPDEST DUP3 MSTORE POP POP JUMP JUMPDEST PUSH0 PUSH1 0x20 DUP3 ADD SWAP1 POP PUSH2 0x1C3 PUSH0 DUP4 ADD DUP5 PUSH2 0x1A1 JUMP JUMPDEST SWAP3 SWAP2 POP POP JUMP JUMPDEST PUSH32 0x4E487B7100000000000000000000000000000000000000000000000000000000 PUSH0 MSTORE PUSH1 0x11 PUSH1 0x4 MSTORE PUSH1 0x24 PUSH0 REVERT JUMPDEST PUSH0 PUSH2 0x200 DUP3 PUSH2 0x198 JUMP JUMPDEST SWAP2 POP PUSH2 0x20B DUP4 PUSH2 0x198 JUMP JUMPDEST SWAP3 POP DUP3 DUP3 ADD SWAP1 POP DUP1 DUP3 GT ISZERO PUSH2 0x223 JUMPI PUSH2 0x222 PUSH2 0x1C9 JUMP JUMPDEST JUMPDEST SWAP3 SWAP2 POP POP JUMP JUMPDEST PUSH0 PUSH2 0x233 DUP3 PUSH2 0x198 JUMP JUMPDEST SWAP2 POP PUSH2 0x23E DUP4 PUSH2 0x198 JUMP JUMPDEST SWAP3 POP DUP3 DUP3 MUL PUSH2 0x24C DUP2 PUSH2 0x198 JUMP JUMPDEST SWAP2 POP DUP3 DUP3 DIV DUP5 EQ DUP4 ISZERO OR PUSH2 0x263 JUMPI PUSH2 0x262 PUSH2 0x1C9 JUMP JUMPDEST JUMPDEST POP SWAP3 SWAP2 POP POP JUMP JUMPDEST PUSH32 0x4E487B7100000000000000000000000000000000000000000000000000000000 PUSH0 MSTORE PUSH1 0x12 PUSH1 0x4 MSTORE PUSH1 0x24 PUSH0 REVERT JUMPDEST PUSH0 PUSH2 0x2A1 DUP3 PUSH2 0x198 JUMP JUMPDEST SWAP2 POP PUSH2 0x2AC DUP4 PUSH2 0x198 JUMP JUMPDEST SWAP3 POP DUP3 PUSH2 0x2BC JUMPI PUSH2 0x2BB PUSH2 0x26A JUMP JUMPDEST JUMPDEST DUP3 DUP3 DIV SWAP1 POP SWAP3 SWAP2 POP POP JUMP JUMPDEST PUSH0 PUSH2 0x2D1 DUP3 PUSH2 0x198 JUMP JUMPDEST SWAP2 POP PUSH2 0x2DC DUP4 PUSH2 0x198 JUMP JUMPDEST SWAP3 POP DUP3 DUP3 SUB SWAP1 POP DUP2 DUP2 GT ISZERO PUSH2 0x2F4 JUMPI PUSH2 0x2F3 PUSH2 0x1C9 JUMP JUMPDEST JUMPDEST SWAP3 SWAP2 POP POP JUMP INVALID LOG2 PUSH5 0x6970667358 0x22 SLT KECCAK256 PUSH0 0x24 0xBD JUMPI 0xCA 0xDA 0xB0 PUSH8 0x4643CC164E0C4EE2 PUSH1 0xB1 SIGNEXTEND BASEFEE 0x27 DUP10 0xC4 SWAP14 0xD2 MUL SWAP14 0x2F PUSH1 0x77 STATICCALL POP PUSH5 0x736F6C6343 STOP ADDMOD BYTE STOP CALLER "
				},
				"gasEstimates": {
					"creation": {
						"codeDepositCost": "163200",
						"executionCost": "infinite",
						"totalCost": "infinite"
					},
					"external": {
						"discount()": "2425",
						"getFinalAmount()": "infinite",
						"getGST()": "infinite",
						"getSubtotal()": "infinite",
						"originalAmount()": "2402",
						"taxRate()": "2447"
					}
				},
				"methodIdentifiers": {
					"discount()": "6b6f4a9d",
					"getFinalAmount()": "f94f45cd",
					"getGST()": "d0d2c92d",
					"getSubtotal()": "96212e33",
					"originalAmount()": "66b77a96",
					"taxRate()": "771a3a1d"
				}
			},
			"storageLayout": {
				"storage": [
					{
						"astId": 3,
						"contract": "invoice/invoice1.sol:Invoice",
						"label": "originalAmount",
						"offset": 0,
						"slot": "0",
						"type": "t_uint256"
					},
					{
						"astId": 5,
						"contract": "invoice/invoice1.sol:Invoice",
						"label": "discount",
						"offset": 0,
						"slot": "1",
						"type": "t_uint256"
					},
					{
						"astId": 8,
						"contract": "invoice/invoice1.sol:Invoice",
						"label": "taxRate",
						"offset": 0,
						"slot": "2",
						"type": "t_uint256"
					}
				],
				"types": {
					"t_uint256": {
						"encoding": "inplace",
						"label": "uint256",
						"numberOfBytes": "32"
					}
				}
			},
			"userdoc": {
				"kind": "user",
				"methods": {},
				"version": 1
			}
		}
	}
}