{
	"xyz.sol": {
		"Blockchain": {
			"abi": [
				{
					"inputs": [],
					"stateMutability": "nonpayable",
					"type": "constructor"
				},
				{
					"inputs": [
						{
							"internalType": "string[]",
							"name": "transactions",
							"type": "string[]"
						}
					],
					"name": "addBlock",
					"outputs": [],
					"stateMutability": "nonpayable",
					"type": "function"
				},
				{
					"inputs": [
						{
							"internalType": "uint256",
							"name": "",
							"type": "uint256"
						}
					],
					"name": "chain",
					"outputs": [
						{
							"internalType": "uint256",
							"name": "index",
							"type": "uint256"
						},
						{
							"internalType": "uint256",
							"name": "timestamp",
							"type": "uint256"
						},
						{
							"internalType": "bytes32",
							"name": "previousHash",
							"type": "bytes32"
						},
						{
							"internalType": "bytes32",
							"name": "hash",
							"type": "bytes32"
						},
						{
							"internalType": "uint256",
							"name": "nonce",
							"type": "uint256"
						}
					],
					"stateMutability": "view",
					"type": "function"
				},
				{
					"inputs": [],
					"name": "difficulty",
					"outputs": [
						{
							"internalType": "uint256",
							"name": "",
							"type": "uint256"
						}
					],
					"stateMutability": "view",
					"type": "function"
				},
				{
					"inputs": [],
					"name": "getLatestBlock",
					"outputs": [
						{
							"components": [
								{
									"internalType": "uint256",
									"name": "index",
									"type": "uint256"
								},
								{
									"internalType": "uint256",
									"name": "timestamp",
									"type": "uint256"
								},
								{
									"internalType": "string[]",
									"name": "transactions",
									"type": "string[]"
								},
								{
									"internalType": "bytes32",
									"name": "previousHash",
									"type": "bytes32"
								},
								{
									"internalType": "bytes32",
									"name": "hash",
									"type": "bytes32"
								},
								{
									"internalType": "uint256",
									"name": "nonce",
									"type": "uint256"
								}
							],
							"internalType": "struct Blockchain.Block",
							"name": "",
							"type": "tuple"
						}
					],
					"stateMutability": "view",
					"type": "function"
				},
				{
					"inputs": [],
					"name": "isChainValid",
					"outputs": [
						{
							"internalType": "bool",
							"name": "",
							"type": "bool"
						}
					],
					"stateMutability": "view",
					"type": "function"
				}
			],
			"devdoc": {
				"kind": "dev",
				"methods": {},
				"version": 1
			},
			"evm": {
				"assembly": "    /* \"xyz.sol\":63:2750  contract Blockchain {... */\n  mstore(0x40, 0x80)\n    /* \"xyz.sol\":324:325  4 */\n  0x04\n    /* \"xyz.sol\":299:325  uint public difficulty = 4 */\n  0x01\n  sstore\n    /* \"xyz.sol\":334:399  constructor() {... */\n  callvalue\n  dup1\n  iszero\n  tag_1\n  jumpi\n  0x00\n  dup1\n  revert\ntag_1:\n  pop\n    /* \"xyz.sol\":359:364  chain */\n  0x00\n    /* \"xyz.sol\":370:390  createGenesisBlock() */\n  tag_4\n    /* \"xyz.sol\":370:388  createGenesisBlock */\n  shl(0x20, tag_5)\n    /* \"xyz.sol\":370:390  createGenesisBlock() */\n  0x20\n  shr\n  jump\t// in\ntag_4:\n    /* \"xyz.sol\":359:391  chain.push(createGenesisBlock()) */\n  swap1\n  dup1\n  0x01\n  dup2\n  sload\n  add\n  dup1\n  dup3\n  sstore\n  dup1\n  swap2\n  pop\n  pop\n  0x01\n  swap1\n  sub\n  swap1\n  0x00\n  mstore\n  keccak256(0x00, 0x20)\n  swap1\n  0x06\n  mul\n  add\n  0x00\n  swap1\n  swap2\n  swap1\n  swap2\n  swap1\n  swap2\n  pop\n  0x00\n  dup3\n  add\n  mload\n  dup2\n  0x00\n  add\n  sstore\n  0x20\n  dup3\n  add\n  mload\n  dup2\n  0x01\n  add\n  sstore\n  0x40\n  dup3\n  add\n  mload\n  dup2\n  0x02\n  add\n  swap1\n  dup1\n  mload\n  swap1\n  0x20\n  add\n  swap1\n  tag_7\n  swap3\n  swap2\n  swap1\n  tag_8\n  jump\t// in\ntag_7:\n  pop\n  0x60\n  dup3\n  add\n  mload\n  dup2\n  0x03\n  add\n  sstore\n  0x80\n  dup3\n  add\n  mload\n  dup2\n  0x04\n  add\n  sstore\n  0xa0\n  dup3\n  add\n  mload\n  dup2\n  0x05\n  add\n  sstore\n  pop\n  pop\n    /* \"xyz.sol\":63:2750  contract Blockchain {... */\n  jump(tag_9)\n    /* \"xyz.sol\":407:773  function createGenesisBlock() private view returns (Block memory) {... */\ntag_5:\n    /* \"xyz.sol\":459:471  Block memory */\n  tag_10\n  tag_11\n  jump\t// in\ntag_10:\n    /* \"xyz.sol\":491:765  Block({... */\n  mload(0x40)\n  dup1\n  0xc0\n  add\n  0x40\n  mstore\n  dup1\n    /* \"xyz.sol\":519:520  0 */\n  0x00\n    /* \"xyz.sol\":491:765  Block({... */\n  dup2\n  mstore\n  0x20\n  add\n    /* \"xyz.sol\":546:561  block.timestamp */\n  timestamp\n    /* \"xyz.sol\":491:765  Block({... */\n  dup2\n  mstore\n  0x20\n  add\n    /* \"xyz.sol\":603:604  0 */\n  0x00\n    /* \"xyz.sol\":590:605  new string[](0) */\n  0xffffffffffffffff\n  dup2\n  gt\n  iszero\n  tag_13\n  jumpi\n  tag_14\n  tag_15\n  jump\t// in\ntag_14:\ntag_13:\n  mload(0x40)\n  swap1\n  dup1\n  dup3\n  mstore\n  dup1\n  0x20\n  mul\n  0x20\n  add\n  dup3\n  add\n  0x40\n  mstore\n  dup1\n  iszero\n  tag_16\n  jumpi\n  dup2\n  0x20\n  add\ntag_17:\n  0x60\n  dup2\n  mstore\n  0x20\n  add\n  swap1\n  0x01\n  swap1\n  sub\n  swap1\n  dup2\n  tag_17\n  jumpi\n  swap1\n  pop\ntag_16:\n  pop\n    /* \"xyz.sol\":491:765  Block({... */\n  dup2\n  mstore\n  0x20\n  add\n    /* \"xyz.sol\":642:643  0 */\n  0x00\n    /* \"xyz.sol\":634:644  bytes32(0) */\n  dup1\n  shl\n    /* \"xyz.sol\":491:765  Block({... */\n  dup2\n  mstore\n  0x20\n  add\n    /* \"xyz.sol\":665:730  calculateHash(0, block.timestamp, new string[](0), bytes32(0), 0) */\n  tag_18\n    /* \"xyz.sol\":679:680  0 */\n  0x00\n    /* \"xyz.sol\":682:697  block.timestamp */\n  timestamp\n    /* \"xyz.sol\":712:713  0 */\n  0x00\n    /* \"xyz.sol\":699:714  new string[](0) */\n  0xffffffffffffffff\n  dup2\n  gt\n  iszero\n  tag_19\n  jumpi\n  tag_20\n  tag_15\n  jump\t// in\ntag_20:\ntag_19:\n  mload(0x40)\n  swap1\n  dup1\n  dup3\n  mstore\n  dup1\n  0x20\n  mul\n  0x20\n  add\n  dup3\n  add\n  0x40\n  mstore\n  dup1\n  iszero\n  tag_21\n  jumpi\n  dup2\n  0x20\n  add\ntag_22:\n  0x60\n  dup2\n  mstore\n  0x20\n  add\n  swap1\n  0x01\n  swap1\n  sub\n  swap1\n  dup2\n  tag_22\n  jumpi\n  swap1\n  pop\ntag_21:\n  pop\n    /* \"xyz.sol\":724:725  0 */\n  0x00\n    /* \"xyz.sol\":716:726  bytes32(0) */\n  dup1\n  shl\n    /* \"xyz.sol\":728:729  0 */\n  0x00\n    /* \"xyz.sol\":665:678  calculateHash */\n  shl(0x20, tag_23)\n    /* \"xyz.sol\":665:730  calculateHash(0, block.timestamp, new string[](0), bytes32(0), 0) */\n  0x20\n  shr\n  jump\t// in\ntag_18:\n    /* \"xyz.sol\":491:765  Block({... */\n  dup2\n  mstore\n  0x20\n  add\n    /* \"xyz.sol\":752:753  0 */\n  0x00\n    /* \"xyz.sol\":491:765  Block({... */\n  dup2\n  mstore\n  pop\n    /* \"xyz.sol\":484:765  return Block({... */\n  swap1\n  pop\n    /* \"xyz.sol\":407:773  function createGenesisBlock() private view returns (Block memory) {... */\n  swap1\n  jump\t// out\n    /* \"xyz.sol\":1752:2050  function calculateHash(... */\ntag_23:\n    /* \"xyz.sol\":1941:1948  bytes32 */\n  0x00\n    /* \"xyz.sol\":1989:1994  index */\n  dup6\n    /* \"xyz.sol\":1996:2005  timestamp */\n  dup6\n    /* \"xyz.sol\":2007:2019  transactions */\n  dup6\n    /* \"xyz.sol\":2021:2033  previousHash */\n  dup6\n    /* \"xyz.sol\":2035:2040  nonce */\n  dup6\n    /* \"xyz.sol\":1978:2041  abi.encode(index, timestamp, transactions, previousHash, nonce) */\n  add(0x20, mload(0x40))\n  tag_25\n  swap6\n  swap5\n  swap4\n  swap3\n  swap2\n  swap1\n  tag_26\n  jump\t// in\ntag_25:\n  mload(0x40)\n  0x20\n  dup2\n  dup4\n  sub\n  sub\n  dup2\n  mstore\n  swap1\n  0x40\n  mstore\n    /* \"xyz.sol\":1968:2042  keccak256(abi.encode(index, timestamp, transactions, previousHash, nonce)) */\n  dup1\n  mload\n  swap1\n  0x20\n  add\n  keccak256\n    /* \"xyz.sol\":1961:2042  return keccak256(abi.encode(index, timestamp, transactions, previousHash, nonce)) */\n  swap1\n  pop\n    /* \"xyz.sol\":1752:2050  function calculateHash(... */\n  swap6\n  swap5\n  pop\n  pop\n  pop\n  pop\n  pop\n  jump\t// out\n    /* \"xyz.sol\":63:2750  contract Blockchain {... */\ntag_8:\n  dup3\n  dup1\n  sload\n  dup3\n  dup3\n  sstore\n  swap1\n  0x00\n  mstore\n  keccak256(0x00, 0x20)\n  swap1\n  dup2\n  add\n  swap3\n  dup3\n  iszero\n  tag_27\n  jumpi\n  swap2\n  0x20\n  mul\n  dup3\n  add\ntag_28:\n  dup3\n  dup2\n  gt\n  iszero\n  tag_29\n  jumpi\n  dup3\n  mload\n  dup3\n  swap1\n  dup2\n  tag_30\n  swap2\n  swap1\n  tag_31\n  jump\t// in\ntag_30:\n  pop\n  swap2\n  0x20\n  add\n  swap2\n  swap1\n  0x01\n  add\n  swap1\n  jump(tag_28)\ntag_29:\ntag_27:\n  pop\n  swap1\n  pop\n  tag_32\n  swap2\n  swap1\n  tag_33\n  jump\t// in\ntag_32:\n  pop\n  swap1\n  jump\t// out\ntag_11:\n  mload(0x40)\n  dup1\n  0xc0\n  add\n  0x40\n  mstore\n  dup1\n  0x00\n  dup2\n  mstore\n  0x20\n  add\n  0x00\n  dup2\n  mstore\n  0x20\n  add\n  0x60\n  dup2\n  mstore\n  0x20\n  add\n  0x00\n  dup1\n  not\n  and\n  dup2\n  mstore\n  0x20\n  add\n  0x00\n  dup1\n  not\n  and\n  dup2\n  mstore\n  0x20\n  add\n  0x00\n  dup2\n  mstore\n  pop\n  swap1\n  jump\t// out\ntag_33:\ntag_34:\n  dup1\n  dup3\n  gt\n  iszero\n  tag_35\n  jumpi\n  0x00\n  dup2\n  dup2\n  tag_36\n  swap2\n  swap1\n  tag_37\n  jump\t// in\ntag_36:\n  pop\n  0x01\n  add\n  jump(tag_34)\ntag_35:\n  pop\n  swap1\n  jump\t// out\ntag_37:\n  pop\n  dup1\n  sload\n  tag_38\n  swap1\n  tag_39\n  jump\t// in\ntag_38:\n  0x00\n  dup3\n  sstore\n  dup1\n  0x1f\n  lt\n  tag_41\n  jumpi\n  pop\n  jump(tag_40)\ntag_41:\n  0x1f\n  add\n  0x20\n  swap1\n  div\n  swap1\n  0x00\n  mstore\n  keccak256(0x00, 0x20)\n  swap1\n  dup2\n  add\n  swap1\n  tag_42\n  swap2\n  swap1\n  tag_43\n  jump\t// in\ntag_42:\ntag_40:\n  pop\n  jump\t// out\ntag_43:\ntag_44:\n  dup1\n  dup3\n  gt\n  iszero\n  tag_45\n  jumpi\n  0x00\n  dup2\n  0x00\n  swap1\n  sstore\n  pop\n  0x01\n  add\n  jump(tag_44)\ntag_45:\n  pop\n  swap1\n  jump\t// out\n    /* \"#utility.yul\":7:187   */\ntag_15:\n    /* \"#utility.yul\":55:132   */\n  0x4e487b7100000000000000000000000000000000000000000000000000000000\n    /* \"#utility.yul\":52:53   */\n  0x00\n    /* \"#utility.yul\":45:133   */\n  mstore\n    /* \"#utility.yul\":152:156   */\n  0x41\n    /* \"#utility.yul\":149:150   */\n  0x04\n    /* \"#utility.yul\":142:157   */\n  mstore\n    /* \"#utility.yul\":176:180   */\n  0x24\n    /* \"#utility.yul\":173:174   */\n  0x00\n    /* \"#utility.yul\":166:181   */\n  revert\n    /* \"#utility.yul\":193:270   */\ntag_46:\n    /* \"#utility.yul\":230:237   */\n  0x00\n    /* \"#utility.yul\":259:264   */\n  dup2\n    /* \"#utility.yul\":248:264   */\n  swap1\n  pop\n    /* \"#utility.yul\":193:270   */\n  swap2\n  swap1\n  pop\n  jump\t// out\n    /* \"#utility.yul\":276:394   */\ntag_47:\n    /* \"#utility.yul\":363:387   */\n  tag_81\n    /* \"#utility.yul\":381:386   */\n  dup2\n    /* \"#utility.yul\":363:387   */\n  tag_46\n  jump\t// in\ntag_81:\n    /* \"#utility.yul\":358:361   */\n  dup3\n    /* \"#utility.yul\":351:388   */\n  mstore\n    /* \"#utility.yul\":276:394   */\n  pop\n  pop\n  jump\t// out\n    /* \"#utility.yul\":400:524   */\ntag_48:\n    /* \"#utility.yul\":477:483   */\n  0x00\n    /* \"#utility.yul\":511:516   */\n  dup2\n    /* \"#utility.yul\":505:517   */\n  mload\n    /* \"#utility.yul\":495:517   */\n  swap1\n  pop\n    /* \"#utility.yul\":400:524   */\n  swap2\n  swap1\n  pop\n  jump\t// out\n    /* \"#utility.yul\":530:724   */\ntag_49:\n    /* \"#utility.yul\":639:650   */\n  0x00\n    /* \"#utility.yul\":673:679   */\n  dup3\n    /* \"#utility.yul\":668:671   */\n  dup3\n    /* \"#utility.yul\":661:680   */\n  mstore\n    /* \"#utility.yul\":713:717   */\n  0x20\n    /* \"#utility.yul\":708:711   */\n  dup3\n    /* \"#utility.yul\":704:718   */\n  add\n    /* \"#utility.yul\":689:718   */\n  swap1\n  pop\n    /* \"#utility.yul\":530:724   */\n  swap3\n  swap2\n  pop\n  pop\n  jump\t// out\n    /* \"#utility.yul\":730:872   */\ntag_50:\n    /* \"#utility.yul\":807:811   */\n  0x00\n    /* \"#utility.yul\":830:833   */\n  dup2\n    /* \"#utility.yul\":822:833   */\n  swap1\n  pop\n    /* \"#utility.yul\":860:864   */\n  0x20\n    /* \"#utility.yul\":855:858   */\n  dup3\n    /* \"#utility.yul\":851:865   */\n  add\n    /* \"#utility.yul\":843:865   */\n  swap1\n  pop\n    /* \"#utility.yul\":730:872   */\n  swap2\n  swap1\n  pop\n  jump\t// out\n    /* \"#utility.yul\":878:977   */\ntag_51:\n    /* \"#utility.yul\":930:936   */\n  0x00\n    /* \"#utility.yul\":964:969   */\n  dup2\n    /* \"#utility.yul\":958:970   */\n  mload\n    /* \"#utility.yul\":948:970   */\n  swap1\n  pop\n    /* \"#utility.yul\":878:977   */\n  swap2\n  swap1\n  pop\n  jump\t// out\n    /* \"#utility.yul\":983:1142   */\ntag_52:\n    /* \"#utility.yul\":1057:1068   */\n  0x00\n    /* \"#utility.yul\":1091:1097   */\n  dup3\n    /* \"#utility.yul\":1086:1089   */\n  dup3\n    /* \"#utility.yul\":1079:1098   */\n  mstore\n    /* \"#utility.yul\":1131:1135   */\n  0x20\n    /* \"#utility.yul\":1126:1129   */\n  dup3\n    /* \"#utility.yul\":1122:1136   */\n  add\n    /* \"#utility.yul\":1107:1136   */\n  swap1\n  pop\n    /* \"#utility.yul\":983:1142   */\n  swap3\n  swap2\n  pop\n  pop\n  jump\t// out\n    /* \"#utility.yul\":1148:1287   */\ntag_53:\n    /* \"#utility.yul\":1237:1243   */\n  dup3\n    /* \"#utility.yul\":1232:1235   */\n  dup2\n    /* \"#utility.yul\":1227:1230   */\n  dup4\n    /* \"#utility.yul\":1221:1244   */\n  mcopy\n    /* \"#utility.yul\":1278:1279   */\n  0x00\n    /* \"#utility.yul\":1269:1275   */\n  dup4\n    /* \"#utility.yul\":1264:1267   */\n  dup4\n    /* \"#utility.yul\":1260:1276   */\n  add\n    /* \"#utility.yul\":1253:1280   */\n  mstore\n    /* \"#utility.yul\":1148:1287   */\n  pop\n  pop\n  pop\n  jump\t// out\n    /* \"#utility.yul\":1293:1395   */\ntag_54:\n    /* \"#utility.yul\":1334:1340   */\n  0x00\n    /* \"#utility.yul\":1385:1387   */\n  0x1f\n    /* \"#utility.yul\":1381:1388   */\n  not\n    /* \"#utility.yul\":1376:1378   */\n  0x1f\n    /* \"#utility.yul\":1369:1374   */\n  dup4\n    /* \"#utility.yul\":1365:1379   */\n  add\n    /* \"#utility.yul\":1361:1389   */\n  and\n    /* \"#utility.yul\":1351:1389   */\n  swap1\n  pop\n    /* \"#utility.yul\":1293:1395   */\n  swap2\n  swap1\n  pop\n  jump\t// out\n    /* \"#utility.yul\":1401:1758   */\ntag_55:\n    /* \"#utility.yul\":1479:1482   */\n  0x00\n    /* \"#utility.yul\":1507:1546   */\n  tag_90\n    /* \"#utility.yul\":1540:1545   */\n  dup3\n    /* \"#utility.yul\":1507:1546   */\n  tag_51\n  jump\t// in\ntag_90:\n    /* \"#utility.yul\":1562:1623   */\n  tag_91\n    /* \"#utility.yul\":1616:1622   */\n  dup2\n    /* \"#utility.yul\":1611:1614   */\n  dup6\n    /* \"#utility.yul\":1562:1623   */\n  tag_52\n  jump\t// in\ntag_91:\n    /* \"#utility.yul\":1555:1623   */\n  swap4\n  pop\n    /* \"#utility.yul\":1632:1697   */\n  tag_92\n    /* \"#utility.yul\":1690:1696   */\n  dup2\n    /* \"#utility.yul\":1685:1688   */\n  dup6\n    /* \"#utility.yul\":1678:1682   */\n  0x20\n    /* \"#utility.yul\":1671:1676   */\n  dup7\n    /* \"#utility.yul\":1667:1683   */\n  add\n    /* \"#utility.yul\":1632:1697   */\n  tag_53\n  jump\t// in\ntag_92:\n    /* \"#utility.yul\":1722:1751   */\n  tag_93\n    /* \"#utility.yul\":1744:1750   */\n  dup2\n    /* \"#utility.yul\":1722:1751   */\n  tag_54\n  jump\t// in\ntag_93:\n    /* \"#utility.yul\":1717:1720   */\n  dup5\n    /* \"#utility.yul\":1713:1752   */\n  add\n    /* \"#utility.yul\":1706:1752   */\n  swap2\n  pop\n    /* \"#utility.yul\":1483:1758   */\n  pop\n    /* \"#utility.yul\":1401:1758   */\n  swap3\n  swap2\n  pop\n  pop\n  jump\t// out\n    /* \"#utility.yul\":1764:1960   */\ntag_56:\n    /* \"#utility.yul\":1853:1863   */\n  0x00\n    /* \"#utility.yul\":1888:1954   */\n  tag_95\n    /* \"#utility.yul\":1950:1953   */\n  dup4\n    /* \"#utility.yul\":1942:1948   */\n  dup4\n    /* \"#utility.yul\":1888:1954   */\n  tag_55\n  jump\t// in\ntag_95:\n    /* \"#utility.yul\":1874:1954   */\n  swap1\n  pop\n    /* \"#utility.yul\":1764:1960   */\n  swap3\n  swap2\n  pop\n  pop\n  jump\t// out\n    /* \"#utility.yul\":1966:2089   */\ntag_57:\n    /* \"#utility.yul\":2046:2050   */\n  0x00\n    /* \"#utility.yul\":2078:2082   */\n  0x20\n    /* \"#utility.yul\":2073:2076   */\n  dup3\n    /* \"#utility.yul\":2069:2083   */\n  add\n    /* \"#utility.yul\":2061:2083   */\n  swap1\n  pop\n    /* \"#utility.yul\":1966:2089   */\n  swap2\n  swap1\n  pop\n  jump\t// out\n    /* \"#utility.yul\":2123:3114   */\ntag_58:\n    /* \"#utility.yul\":2262:2265   */\n  0x00\n    /* \"#utility.yul\":2291:2355   */\n  tag_98\n    /* \"#utility.yul\":2349:2354   */\n  dup3\n    /* \"#utility.yul\":2291:2355   */\n  tag_48\n  jump\t// in\ntag_98:\n    /* \"#utility.yul\":2371:2467   */\n  tag_99\n    /* \"#utility.yul\":2460:2466   */\n  dup2\n    /* \"#utility.yul\":2455:2458   */\n  dup6\n    /* \"#utility.yul\":2371:2467   */\n  tag_49\n  jump\t// in\ntag_99:\n    /* \"#utility.yul\":2364:2467   */\n  swap4\n  pop\n    /* \"#utility.yul\":2493:2496   */\n  dup4\n    /* \"#utility.yul\":2538:2542   */\n  0x20\n    /* \"#utility.yul\":2530:2536   */\n  dup3\n    /* \"#utility.yul\":2526:2543   */\n  mul\n    /* \"#utility.yul\":2521:2524   */\n  dup6\n    /* \"#utility.yul\":2517:2544   */\n  add\n    /* \"#utility.yul\":2568:2634   */\n  tag_100\n    /* \"#utility.yul\":2628:2633   */\n  dup6\n    /* \"#utility.yul\":2568:2634   */\n  tag_50\n  jump\t// in\ntag_100:\n    /* \"#utility.yul\":2657:2664   */\n  dup1\n    /* \"#utility.yul\":2688:2689   */\n  0x00\n    /* \"#utility.yul\":2673:3069   */\ntag_101:\n    /* \"#utility.yul\":2698:2704   */\n  dup6\n    /* \"#utility.yul\":2695:2696   */\n  dup2\n    /* \"#utility.yul\":2692:2705   */\n  lt\n    /* \"#utility.yul\":2673:3069   */\n  iszero\n  tag_103\n  jumpi\n    /* \"#utility.yul\":2769:2778   */\n  dup5\n    /* \"#utility.yul\":2763:2767   */\n  dup5\n    /* \"#utility.yul\":2759:2779   */\n  sub\n    /* \"#utility.yul\":2754:2757   */\n  dup10\n    /* \"#utility.yul\":2747:2780   */\n  mstore\n    /* \"#utility.yul\":2820:2826   */\n  dup2\n    /* \"#utility.yul\":2814:2827   */\n  mload\n    /* \"#utility.yul\":2848:2932   */\n  tag_104\n    /* \"#utility.yul\":2927:2931   */\n  dup6\n    /* \"#utility.yul\":2912:2925   */\n  dup3\n    /* \"#utility.yul\":2848:2932   */\n  tag_56\n  jump\t// in\ntag_104:\n    /* \"#utility.yul\":2840:2932   */\n  swap5\n  pop\n    /* \"#utility.yul\":2955:3025   */\n  tag_105\n    /* \"#utility.yul\":3018:3024   */\n  dup4\n    /* \"#utility.yul\":2955:3025   */\n  tag_57\n  jump\t// in\ntag_105:\n    /* \"#utility.yul\":2945:3025   */\n  swap3\n  pop\n    /* \"#utility.yul\":3054:3058   */\n  0x20\n    /* \"#utility.yul\":3049:3052   */\n  dup11\n    /* \"#utility.yul\":3045:3059   */\n  add\n    /* \"#utility.yul\":3038:3059   */\n  swap10\n  pop\n    /* \"#utility.yul\":2733:3069   */\n  pop\n    /* \"#utility.yul\":2720:2721   */\n  0x01\n    /* \"#utility.yul\":2717:2718   */\n  dup2\n    /* \"#utility.yul\":2713:2722   */\n  add\n    /* \"#utility.yul\":2708:2722   */\n  swap1\n  pop\n    /* \"#utility.yul\":2673:3069   */\n  jump(tag_101)\ntag_103:\n    /* \"#utility.yul\":2677:2691   */\n  pop\n    /* \"#utility.yul\":3085:3089   */\n  dup3\n    /* \"#utility.yul\":3078:3089   */\n  swap8\n  pop\n    /* \"#utility.yul\":3105:3108   */\n  dup8\n    /* \"#utility.yul\":3098:3108   */\n  swap6\n  pop\n    /* \"#utility.yul\":2267:3114   */\n  pop\n  pop\n  pop\n  pop\n  pop\n    /* \"#utility.yul\":2123:3114   */\n  swap3\n  swap2\n  pop\n  pop\n  jump\t// out\n    /* \"#utility.yul\":3120:3197   */\ntag_59:\n    /* \"#utility.yul\":3157:3164   */\n  0x00\n    /* \"#utility.yul\":3186:3191   */\n  dup2\n    /* \"#utility.yul\":3175:3191   */\n  swap1\n  pop\n    /* \"#utility.yul\":3120:3197   */\n  swap2\n  swap1\n  pop\n  jump\t// out\n    /* \"#utility.yul\":3203:3321   */\ntag_60:\n    /* \"#utility.yul\":3290:3314   */\n  tag_108\n    /* \"#utility.yul\":3308:3313   */\n  dup2\n    /* \"#utility.yul\":3290:3314   */\n  tag_59\n  jump\t// in\ntag_108:\n    /* \"#utility.yul\":3285:3288   */\n  dup3\n    /* \"#utility.yul\":3278:3315   */\n  mstore\n    /* \"#utility.yul\":3203:3321   */\n  pop\n  pop\n  jump\t// out\n    /* \"#utility.yul\":3327:4182   */\ntag_26:\n    /* \"#utility.yul\":3602:3606   */\n  0x00\n    /* \"#utility.yul\":3640:3643   */\n  0xa0\n    /* \"#utility.yul\":3629:3638   */\n  dup3\n    /* \"#utility.yul\":3625:3644   */\n  add\n    /* \"#utility.yul\":3617:3644   */\n  swap1\n  pop\n    /* \"#utility.yul\":3654:3725   */\n  tag_110\n    /* \"#utility.yul\":3722:3723   */\n  0x00\n    /* \"#utility.yul\":3711:3720   */\n  dup4\n    /* \"#utility.yul\":3707:3724   */\n  add\n    /* \"#utility.yul\":3698:3704   */\n  dup9\n    /* \"#utility.yul\":3654:3725   */\n  tag_47\n  jump\t// in\ntag_110:\n    /* \"#utility.yul\":3735:3807   */\n  tag_111\n    /* \"#utility.yul\":3803:3805   */\n  0x20\n    /* \"#utility.yul\":3792:3801   */\n  dup4\n    /* \"#utility.yul\":3788:3806   */\n  add\n    /* \"#utility.yul\":3779:3785   */\n  dup8\n    /* \"#utility.yul\":3735:3807   */\n  tag_47\n  jump\t// in\ntag_111:\n    /* \"#utility.yul\":3854:3863   */\n  dup2\n    /* \"#utility.yul\":3848:3852   */\n  dup2\n    /* \"#utility.yul\":3844:3864   */\n  sub\n    /* \"#utility.yul\":3839:3841   */\n  0x40\n    /* \"#utility.yul\":3828:3837   */\n  dup4\n    /* \"#utility.yul\":3824:3842   */\n  add\n    /* \"#utility.yul\":3817:3865   */\n  mstore\n    /* \"#utility.yul\":3882:4010   */\n  tag_112\n    /* \"#utility.yul\":4005:4009   */\n  dup2\n    /* \"#utility.yul\":3996:4002   */\n  dup7\n    /* \"#utility.yul\":3882:4010   */\n  tag_58\n  jump\t// in\ntag_112:\n    /* \"#utility.yul\":3874:4010   */\n  swap1\n  pop\n    /* \"#utility.yul\":4020:4092   */\n  tag_113\n    /* \"#utility.yul\":4088:4090   */\n  0x60\n    /* \"#utility.yul\":4077:4086   */\n  dup4\n    /* \"#utility.yul\":4073:4091   */\n  add\n    /* \"#utility.yul\":4064:4070   */\n  dup6\n    /* \"#utility.yul\":4020:4092   */\n  tag_60\n  jump\t// in\ntag_113:\n    /* \"#utility.yul\":4102:4175   */\n  tag_114\n    /* \"#utility.yul\":4170:4173   */\n  0x80\n    /* \"#utility.yul\":4159:4168   */\n  dup4\n    /* \"#utility.yul\":4155:4174   */\n  add\n    /* \"#utility.yul\":4146:4152   */\n  dup5\n    /* \"#utility.yul\":4102:4175   */\n  tag_47\n  jump\t// in\ntag_114:\n    /* \"#utility.yul\":3327:4182   */\n  swap7\n  swap6\n  pop\n  pop\n  pop\n  pop\n  pop\n  pop\n  jump\t// out\n    /* \"#utility.yul\":4188:4368   */\ntag_61:\n    /* \"#utility.yul\":4236:4313   */\n  0x4e487b7100000000000000000000000000000000000000000000000000000000\n    /* \"#utility.yul\":4233:4234   */\n  0x00\n    /* \"#utility.yul\":4226:4314   */\n  mstore\n    /* \"#utility.yul\":4333:4337   */\n  0x22\n    /* \"#utility.yul\":4330:4331   */\n  0x04\n    /* \"#utility.yul\":4323:4338   */\n  mstore\n    /* \"#utility.yul\":4357:4361   */\n  0x24\n    /* \"#utility.yul\":4354:4355   */\n  0x00\n    /* \"#utility.yul\":4347:4362   */\n  revert\n    /* \"#utility.yul\":4374:4694   */\ntag_39:\n    /* \"#utility.yul\":4418:4424   */\n  0x00\n    /* \"#utility.yul\":4455:4456   */\n  0x02\n    /* \"#utility.yul\":4449:4453   */\n  dup3\n    /* \"#utility.yul\":4445:4457   */\n  div\n    /* \"#utility.yul\":4435:4457   */\n  swap1\n  pop\n    /* \"#utility.yul\":4502:4503   */\n  0x01\n    /* \"#utility.yul\":4496:4500   */\n  dup3\n    /* \"#utility.yul\":4492:4504   */\n  and\n    /* \"#utility.yul\":4523:4541   */\n  dup1\n    /* \"#utility.yul\":4513:4594   */\n  tag_117\n  jumpi\n    /* \"#utility.yul\":4579:4583   */\n  0x7f\n    /* \"#utility.yul\":4571:4577   */\n  dup3\n    /* \"#utility.yul\":4567:4584   */\n  and\n    /* \"#utility.yul\":4557:4584   */\n  swap2\n  pop\n    /* \"#utility.yul\":4513:4594   */\ntag_117:\n    /* \"#utility.yul\":4641:4643   */\n  0x20\n    /* \"#utility.yul\":4633:4639   */\n  dup3\n    /* \"#utility.yul\":4630:4644   */\n  lt\n    /* \"#utility.yul\":4610:4628   */\n  dup2\n    /* \"#utility.yul\":4607:4645   */\n  sub\n    /* \"#utility.yul\":4604:4688   */\n  tag_118\n  jumpi\n    /* \"#utility.yul\":4660:4678   */\n  tag_119\n  tag_61\n  jump\t// in\ntag_119:\n    /* \"#utility.yul\":4604:4688   */\ntag_118:\n    /* \"#utility.yul\":4425:4694   */\n  pop\n    /* \"#utility.yul\":4374:4694   */\n  swap2\n  swap1\n  pop\n  jump\t// out\n    /* \"#utility.yul\":4700:4841   */\ntag_62:\n    /* \"#utility.yul\":4749:4753   */\n  0x00\n    /* \"#utility.yul\":4772:4775   */\n  dup2\n    /* \"#utility.yul\":4764:4775   */\n  swap1\n  pop\n    /* \"#utility.yul\":4795:4798   */\n  dup2\n    /* \"#utility.yul\":4792:4793   */\n  0x00\n    /* \"#utility.yul\":4785:4799   */\n  mstore\n    /* \"#utility.yul\":4829:4833   */\n  0x20\n    /* \"#utility.yul\":4826:4827   */\n  0x00\n    /* \"#utility.yul\":4816:4834   */\n  keccak256\n    /* \"#utility.yul\":4808:4834   */\n  swap1\n  pop\n    /* \"#utility.yul\":4700:4841   */\n  swap2\n  swap1\n  pop\n  jump\t// out\n    /* \"#utility.yul\":4847:4940   */\ntag_63:\n    /* \"#utility.yul\":4884:4890   */\n  0x00\n    /* \"#utility.yul\":4931:4933   */\n  0x20\n    /* \"#utility.yul\":4926:4928   */\n  0x1f\n    /* \"#utility.yul\":4919:4924   */\n  dup4\n    /* \"#utility.yul\":4915:4929   */\n  add\n    /* \"#utility.yul\":4911:4934   */\n  div\n    /* \"#utility.yul\":4901:4934   */\n  swap1\n  pop\n    /* \"#utility.yul\":4847:4940   */\n  swap2\n  swap1\n  pop\n  jump\t// out\n    /* \"#utility.yul\":4946:5053   */\ntag_64:\n    /* \"#utility.yul\":4990:4998   */\n  0x00\n    /* \"#utility.yul\":5040:5045   */\n  dup3\n    /* \"#utility.yul\":5034:5038   */\n  dup3\n    /* \"#utility.yul\":5030:5046   */\n  shl\n    /* \"#utility.yul\":5009:5046   */\n  swap1\n  pop\n    /* \"#utility.yul\":4946:5053   */\n  swap3\n  swap2\n  pop\n  pop\n  jump\t// out\n    /* \"#utility.yul\":5059:5452   */\ntag_65:\n    /* \"#utility.yul\":5128:5134   */\n  0x00\n    /* \"#utility.yul\":5178:5179   */\n  0x08\n    /* \"#utility.yul\":5166:5176   */\n  dup4\n    /* \"#utility.yul\":5162:5180   */\n  mul\n    /* \"#utility.yul\":5201:5298   */\n  tag_124\n    /* \"#utility.yul\":5231:5297   */\n  0xffffffffffffffffffffffffffffffffffffffffffffffffffffffffffffffff\n    /* \"#utility.yul\":5220:5229   */\n  dup3\n    /* \"#utility.yul\":5201:5298   */\n  tag_64\n  jump\t// in\ntag_124:\n    /* \"#utility.yul\":5319:5358   */\n  tag_125\n    /* \"#utility.yul\":5349:5357   */\n  dup7\n    /* \"#utility.yul\":5338:5347   */\n  dup4\n    /* \"#utility.yul\":5319:5358   */\n  tag_64\n  jump\t// in\ntag_125:\n    /* \"#utility.yul\":5307:5358   */\n  swap6\n  pop\n    /* \"#utility.yul\":5391:5395   */\n  dup1\n    /* \"#utility.yul\":5387:5396   */\n  not\n    /* \"#utility.yul\":5380:5385   */\n  dup5\n    /* \"#utility.yul\":5376:5397   */\n  and\n    /* \"#utility.yul\":5367:5397   */\n  swap4\n  pop\n    /* \"#utility.yul\":5440:5444   */\n  dup1\n    /* \"#utility.yul\":5430:5438   */\n  dup7\n    /* \"#utility.yul\":5426:5445   */\n  and\n    /* \"#utility.yul\":5419:5424   */\n  dup5\n    /* \"#utility.yul\":5416:5446   */\n  or\n    /* \"#utility.yul\":5406:5446   */\n  swap3\n  pop\n    /* \"#utility.yul\":5135:5452   */\n  pop\n  pop\n    /* \"#utility.yul\":5059:5452   */\n  swap4\n  swap3\n  pop\n  pop\n  pop\n  jump\t// out\n    /* \"#utility.yul\":5458:5518   */\ntag_66:\n    /* \"#utility.yul\":5486:5489   */\n  0x00\n    /* \"#utility.yul\":5507:5512   */\n  dup2\n    /* \"#utility.yul\":5500:5512   */\n  swap1\n  pop\n    /* \"#utility.yul\":5458:5518   */\n  swap2\n  swap1\n  pop\n  jump\t// out\n    /* \"#utility.yul\":5524:5666   */\ntag_67:\n    /* \"#utility.yul\":5574:5583   */\n  0x00\n    /* \"#utility.yul\":5607:5660   */\n  tag_128\n    /* \"#utility.yul\":5625:5659   */\n  tag_129\n    /* \"#utility.yul\":5634:5658   */\n  tag_130\n    /* \"#utility.yul\":5652:5657   */\n  dup5\n    /* \"#utility.yul\":5634:5658   */\n  tag_46\n  jump\t// in\ntag_130:\n    /* \"#utility.yul\":5625:5659   */\n  tag_66\n  jump\t// in\ntag_129:\n    /* \"#utility.yul\":5607:5660   */\n  tag_46\n  jump\t// in\ntag_128:\n    /* \"#utility.yul\":5594:5660   */\n  swap1\n  pop\n    /* \"#utility.yul\":5524:5666   */\n  swap2\n  swap1\n  pop\n  jump\t// out\n    /* \"#utility.yul\":5672:5747   */\ntag_68:\n    /* \"#utility.yul\":5715:5718   */\n  0x00\n    /* \"#utility.yul\":5736:5741   */\n  dup2\n    /* \"#utility.yul\":5729:5741   */\n  swap1\n  pop\n    /* \"#utility.yul\":5672:5747   */\n  swap2\n  swap1\n  pop\n  jump\t// out\n    /* \"#utility.yul\":5753:6022   */\ntag_69:\n    /* \"#utility.yul\":5863:5902   */\n  tag_133\n    /* \"#utility.yul\":5894:5901   */\n  dup4\n    /* \"#utility.yul\":5863:5902   */\n  tag_67\n  jump\t// in\ntag_133:\n    /* \"#utility.yul\":5924:6015   */\n  tag_134\n    /* \"#utility.yul\":5973:6014   */\n  tag_135\n    /* \"#utility.yul\":5997:6013   */\n  dup3\n    /* \"#utility.yul\":5973:6014   */\n  tag_68\n  jump\t// in\ntag_135:\n    /* \"#utility.yul\":5965:5971   */\n  dup5\n    /* \"#utility.yul\":5958:5962   */\n  dup5\n    /* \"#utility.yul\":5952:5963   */\n  sload\n    /* \"#utility.yul\":5924:6015   */\n  tag_65\n  jump\t// in\ntag_134:\n    /* \"#utility.yul\":5918:5922   */\n  dup3\n    /* \"#utility.yul\":5911:6016   */\n  sstore\n    /* \"#utility.yul\":5829:6022   */\n  pop\n    /* \"#utility.yul\":5753:6022   */\n  pop\n  pop\n  pop\n  jump\t// out\n    /* \"#utility.yul\":6028:6101   */\ntag_70:\n    /* \"#utility.yul\":6073:6076   */\n  0x00\n    /* \"#utility.yul\":6028:6101   */\n  swap1\n  jump\t// out\n    /* \"#utility.yul\":6107:6296   */\ntag_71:\n    /* \"#utility.yul\":6184:6216   */\n  tag_138\n  tag_70\n  jump\t// in\ntag_138:\n    /* \"#utility.yul\":6225:6290   */\n  tag_139\n    /* \"#utility.yul\":6283:6289   */\n  dup2\n    /* \"#utility.yul\":6275:6281   */\n  dup5\n    /* \"#utility.yul\":6269:6273   */\n  dup5\n    /* \"#utility.yul\":6225:6290   */\n  tag_69\n  jump\t// in\ntag_139:\n    /* \"#utility.yul\":6160:6296   */\n  pop\n    /* \"#utility.yul\":6107:6296   */\n  pop\n  pop\n  jump\t// out\n    /* \"#utility.yul\":6302:6488   */\ntag_72:\n    /* \"#utility.yul\":6362:6482   */\ntag_141:\n    /* \"#utility.yul\":6379:6382   */\n  dup2\n    /* \"#utility.yul\":6372:6377   */\n  dup2\n    /* \"#utility.yul\":6369:6383   */\n  lt\n    /* \"#utility.yul\":6362:6482   */\n  iszero\n  tag_143\n  jumpi\n    /* \"#utility.yul\":6433:6472   */\n  tag_144\n    /* \"#utility.yul\":6470:6471   */\n  0x00\n    /* \"#utility.yul\":6463:6468   */\n  dup3\n    /* \"#utility.yul\":6433:6472   */\n  tag_71\n  jump\t// in\ntag_144:\n    /* \"#utility.yul\":6406:6407   */\n  0x01\n    /* \"#utility.yul\":6399:6404   */\n  dup2\n    /* \"#utility.yul\":6395:6408   */\n  add\n    /* \"#utility.yul\":6386:6408   */\n  swap1\n  pop\n    /* \"#utility.yul\":6362:6482   */\n  jump(tag_141)\ntag_143:\n    /* \"#utility.yul\":6302:6488   */\n  pop\n  pop\n  jump\t// out\n    /* \"#utility.yul\":6494:7037   */\ntag_73:\n    /* \"#utility.yul\":6595:6597   */\n  0x1f\n    /* \"#utility.yul\":6590:6593   */\n  dup3\n    /* \"#utility.yul\":6587:6598   */\n  gt\n    /* \"#utility.yul\":6584:7030   */\n  iszero\n  tag_146\n  jumpi\n    /* \"#utility.yul\":6629:6667   */\n  tag_147\n    /* \"#utility.yul\":6661:6666   */\n  dup2\n    /* \"#utility.yul\":6629:6667   */\n  tag_62\n  jump\t// in\ntag_147:\n    /* \"#utility.yul\":6713:6742   */\n  tag_148\n    /* \"#utility.yul\":6731:6741   */\n  dup5\n    /* \"#utility.yul\":6713:6742   */\n  tag_63\n  jump\t// in\ntag_148:\n    /* \"#utility.yul\":6703:6711   */\n  dup2\n    /* \"#utility.yul\":6699:6743   */\n  add\n    /* \"#utility.yul\":6896:6898   */\n  0x20\n    /* \"#utility.yul\":6884:6894   */\n  dup6\n    /* \"#utility.yul\":6881:6899   */\n  lt\n    /* \"#utility.yul\":6878:6927   */\n  iszero\n  tag_149\n  jumpi\n    /* \"#utility.yul\":6917:6925   */\n  dup2\n    /* \"#utility.yul\":6902:6925   */\n  swap1\n  pop\n    /* \"#utility.yul\":6878:6927   */\ntag_149:\n    /* \"#utility.yul\":6940:7020   */\n  tag_150\n    /* \"#utility.yul\":6996:7018   */\n  tag_151\n    /* \"#utility.yul\":7014:7017   */\n  dup6\n    /* \"#utility.yul\":6996:7018   */\n  tag_63\n  jump\t// in\ntag_151:\n    /* \"#utility.yul\":6986:6994   */\n  dup4\n    /* \"#utility.yul\":6982:7019   */\n  add\n    /* \"#utility.yul\":6969:6980   */\n  dup3\n    /* \"#utility.yul\":6940:7020   */\n  tag_72\n  jump\t// in\ntag_150:\n    /* \"#utility.yul\":6599:7030   */\n  pop\n  pop\n    /* \"#utility.yul\":6584:7030   */\ntag_146:\n    /* \"#utility.yul\":6494:7037   */\n  pop\n  pop\n  pop\n  jump\t// out\n    /* \"#utility.yul\":7043:7160   */\ntag_74:\n    /* \"#utility.yul\":7097:7105   */\n  0x00\n    /* \"#utility.yul\":7147:7152   */\n  dup3\n    /* \"#utility.yul\":7141:7145   */\n  dup3\n    /* \"#utility.yul\":7137:7153   */\n  shr\n    /* \"#utility.yul\":7116:7153   */\n  swap1\n  pop\n    /* \"#utility.yul\":7043:7160   */\n  swap3\n  swap2\n  pop\n  pop\n  jump\t// out\n    /* \"#utility.yul\":7166:7335   */\ntag_75:\n    /* \"#utility.yul\":7210:7216   */\n  0x00\n    /* \"#utility.yul\":7243:7294   */\n  tag_154\n    /* \"#utility.yul\":7291:7292   */\n  0x00\n    /* \"#utility.yul\":7287:7293   */\n  not\n    /* \"#utility.yul\":7279:7284   */\n  dup5\n    /* \"#utility.yul\":7276:7277   */\n  0x08\n    /* \"#utility.yul\":7272:7285   */\n  mul\n    /* \"#utility.yul\":7243:7294   */\n  tag_74\n  jump\t// in\ntag_154:\n    /* \"#utility.yul\":7239:7295   */\n  not\n    /* \"#utility.yul\":7324:7328   */\n  dup1\n    /* \"#utility.yul\":7318:7322   */\n  dup4\n    /* \"#utility.yul\":7314:7329   */\n  and\n    /* \"#utility.yul\":7304:7329   */\n  swap2\n  pop\n    /* \"#utility.yul\":7217:7335   */\n  pop\n    /* \"#utility.yul\":7166:7335   */\n  swap3\n  swap2\n  pop\n  pop\n  jump\t// out\n    /* \"#utility.yul\":7340:7635   */\ntag_76:\n    /* \"#utility.yul\":7416:7420   */\n  0x00\n    /* \"#utility.yul\":7562:7591   */\n  tag_156\n    /* \"#utility.yul\":7587:7590   */\n  dup4\n    /* \"#utility.yul\":7581:7585   */\n  dup4\n    /* \"#utility.yul\":7562:7591   */\n  tag_75\n  jump\t// in\ntag_156:\n    /* \"#utility.yul\":7554:7591   */\n  swap2\n  pop\n    /* \"#utility.yul\":7624:7627   */\n  dup3\n    /* \"#utility.yul\":7621:7622   */\n  0x02\n    /* \"#utility.yul\":7617:7628   */\n  mul\n    /* \"#utility.yul\":7611:7615   */\n  dup3\n    /* \"#utility.yul\":7608:7629   */\n  or\n    /* \"#utility.yul\":7600:7629   */\n  swap1\n  pop\n    /* \"#utility.yul\":7340:7635   */\n  swap3\n  swap2\n  pop\n  pop\n  jump\t// out\n    /* \"#utility.yul\":7640:9035   */\ntag_31:\n    /* \"#utility.yul\":7757:7794   */\n  tag_158\n    /* \"#utility.yul\":7790:7793   */\n  dup3\n    /* \"#utility.yul\":7757:7794   */\n  tag_51\n  jump\t// in\ntag_158:\n    /* \"#utility.yul\":7859:7877   */\n  0xffffffffffffffff\n    /* \"#utility.yul\":7851:7857   */\n  dup2\n    /* \"#utility.yul\":7848:7878   */\n  gt\n    /* \"#utility.yul\":7845:7901   */\n  iszero\n  tag_159\n  jumpi\n    /* \"#utility.yul\":7881:7899   */\n  tag_160\n  tag_15\n  jump\t// in\ntag_160:\n    /* \"#utility.yul\":7845:7901   */\ntag_159:\n    /* \"#utility.yul\":7925:7963   */\n  tag_161\n    /* \"#utility.yul\":7957:7961   */\n  dup3\n    /* \"#utility.yul\":7951:7962   */\n  sload\n    /* \"#utility.yul\":7925:7963   */\n  tag_39\n  jump\t// in\ntag_161:\n    /* \"#utility.yul\":8010:8077   */\n  tag_162\n    /* \"#utility.yul\":8070:8076   */\n  dup3\n    /* \"#utility.yul\":8062:8068   */\n  dup3\n    /* \"#utility.yul\":8056:8060   */\n  dup6\n    /* \"#utility.yul\":8010:8077   */\n  tag_73\n  jump\t// in\ntag_162:\n    /* \"#utility.yul\":8104:8105   */\n  0x00\n    /* \"#utility.yul\":8128:8132   */\n  0x20\n    /* \"#utility.yul\":8115:8132   */\n  swap1\n  pop\n    /* \"#utility.yul\":8160:8162   */\n  0x1f\n    /* \"#utility.yul\":8152:8158   */\n  dup4\n    /* \"#utility.yul\":8149:8163   */\n  gt\n    /* \"#utility.yul\":8177:8178   */\n  0x01\n    /* \"#utility.yul\":8172:8790   */\n  dup2\n  eq\n  tag_164\n  jumpi\n    /* \"#utility.yul\":8834:8835   */\n  0x00\n    /* \"#utility.yul\":8851:8857   */\n  dup5\n    /* \"#utility.yul\":8848:8925   */\n  iszero\n  tag_165\n  jumpi\n    /* \"#utility.yul\":8900:8909   */\n  dup3\n    /* \"#utility.yul\":8895:8898   */\n  dup8\n    /* \"#utility.yul\":8891:8910   */\n  add\n    /* \"#utility.yul\":8885:8911   */\n  mload\n    /* \"#utility.yul\":8876:8911   */\n  swap1\n  pop\n    /* \"#utility.yul\":8848:8925   */\ntag_165:\n    /* \"#utility.yul\":8951:9018   */\n  tag_166\n    /* \"#utility.yul\":9011:9017   */\n  dup6\n    /* \"#utility.yul\":9004:9009   */\n  dup3\n    /* \"#utility.yul\":8951:9018   */\n  tag_76\n  jump\t// in\ntag_166:\n    /* \"#utility.yul\":8945:8949   */\n  dup7\n    /* \"#utility.yul\":8938:9019   */\n  sstore\n    /* \"#utility.yul\":8807:9029   */\n  pop\n    /* \"#utility.yul\":8142:9029   */\n  jump(tag_163)\n    /* \"#utility.yul\":8172:8790   */\ntag_164:\n    /* \"#utility.yul\":8224:8228   */\n  0x1f\n    /* \"#utility.yul\":8220:8229   */\n  not\n    /* \"#utility.yul\":8212:8218   */\n  dup5\n    /* \"#utility.yul\":8208:8230   */\n  and\n    /* \"#utility.yul\":8258:8295   */\n  tag_167\n    /* \"#utility.yul\":8290:8294   */\n  dup7\n    /* \"#utility.yul\":8258:8295   */\n  tag_62\n  jump\t// in\ntag_167:\n    /* \"#utility.yul\":8317:8318   */\n  0x00\n    /* \"#utility.yul\":8331:8539   */\ntag_168:\n    /* \"#utility.yul\":8345:8352   */\n  dup3\n    /* \"#utility.yul\":8342:8343   */\n  dup2\n    /* \"#utility.yul\":8339:8353   */\n  lt\n    /* \"#utility.yul\":8331:8539   */\n  iszero\n  tag_170\n  jumpi\n    /* \"#utility.yul\":8424:8433   */\n  dup5\n    /* \"#utility.yul\":8419:8422   */\n  dup10\n    /* \"#utility.yul\":8415:8434   */\n  add\n    /* \"#utility.yul\":8409:8435   */\n  mload\n    /* \"#utility.yul\":8401:8407   */\n  dup3\n    /* \"#utility.yul\":8394:8436   */\n  sstore\n    /* \"#utility.yul\":8475:8476   */\n  0x01\n    /* \"#utility.yul\":8467:8473   */\n  dup3\n    /* \"#utility.yul\":8463:8477   */\n  add\n    /* \"#utility.yul\":8453:8477   */\n  swap2\n  pop\n    /* \"#utility.yul\":8522:8524   */\n  0x20\n    /* \"#utility.yul\":8511:8520   */\n  dup6\n    /* \"#utility.yul\":8507:8525   */\n  add\n    /* \"#utility.yul\":8494:8525   */\n  swap5\n  pop\n    /* \"#utility.yul\":8368:8372   */\n  0x20\n    /* \"#utility.yul\":8365:8366   */\n  dup2\n    /* \"#utility.yul\":8361:8373   */\n  add\n    /* \"#utility.yul\":8356:8373   */\n  swap1\n  pop\n    /* \"#utility.yul\":8331:8539   */\n  jump(tag_168)\ntag_170:\n    /* \"#utility.yul\":8567:8573   */\n  dup7\n    /* \"#utility.yul\":8558:8565   */\n  dup4\n    /* \"#utility.yul\":8555:8574   */\n  lt\n    /* \"#utility.yul\":8552:8731   */\n  iszero\n  tag_171\n  jumpi\n    /* \"#utility.yul\":8625:8634   */\n  dup5\n    /* \"#utility.yul\":8620:8623   */\n  dup10\n    /* \"#utility.yul\":8616:8635   */\n  add\n    /* \"#utility.yul\":8610:8636   */\n  mload\n    /* \"#utility.yul\":8668:8716   */\n  tag_172\n    /* \"#utility.yul\":8710:8714   */\n  0x1f\n    /* \"#utility.yul\":8702:8708   */\n  dup10\n    /* \"#utility.yul\":8698:8715   */\n  and\n    /* \"#utility.yul\":8687:8696   */\n  dup3\n    /* \"#utility.yul\":8668:8716   */\n  tag_75\n  jump\t// in\ntag_172:\n    /* \"#utility.yul\":8660:8666   */\n  dup4\n    /* \"#utility.yul\":8653:8717   */\n  sstore\n    /* \"#utility.yul\":8575:8731   */\n  pop\n    /* \"#utility.yul\":8552:8731   */\ntag_171:\n    /* \"#utility.yul\":8777:8778   */\n  0x01\n    /* \"#utility.yul\":8773:8774   */\n  0x02\n    /* \"#utility.yul\":8765:8771   */\n  dup9\n    /* \"#utility.yul\":8761:8775   */\n  mul\n    /* \"#utility.yul\":8757:8779   */\n  add\n    /* \"#utility.yul\":8751:8755   */\n  dup9\n    /* \"#utility.yul\":8744:8780   */\n  sstore\n    /* \"#utility.yul\":8179:8790   */\n  pop\n  pop\n  pop\n    /* \"#utility.yul\":8142:9029   */\ntag_163:\n  pop\n    /* \"#utility.yul\":7732:9035   */\n  pop\n  pop\n  pop\n    /* \"#utility.yul\":7640:9035   */\n  pop\n  pop\n  jump\t// out\n    /* \"xyz.sol\":63:2750  contract Blockchain {... */\ntag_9:\n  dataSize(sub_0)\n  dup1\n  dataOffset(sub_0)\n  0x00\n  codecopy\n  0x00\n  return\nstop\n\nsub_0: assembly {\n        /* \"xyz.sol\":63:2750  contract Blockchain {... */\n      mstore(0x40, 0x80)\n      callvalue\n      dup1\n      iszero\n      tag_1\n      jumpi\n      0x00\n      dup1\n      revert\n    tag_1:\n      pop\n      jumpi(tag_2, lt(calldatasize, 0x04))\n      shr(0xe0, calldataload(0x00))\n      dup1\n      0x19cae462\n      eq\n      tag_3\n      jumpi\n      dup1\n      0x450c624e\n      eq\n      tag_4\n      jumpi\n      dup1\n      0x5852cc0c\n      eq\n      tag_5\n      jumpi\n      dup1\n      0x61d6f78a\n      eq\n      tag_6\n      jumpi\n      dup1\n      0xd8af642c\n      eq\n      tag_7\n      jumpi\n    tag_2:\n      0x00\n      dup1\n      revert\n        /* \"xyz.sol\":299:325  uint public difficulty = 4 */\n    tag_3:\n      tag_8\n      tag_9\n      jump\t// in\n    tag_8:\n      mload(0x40)\n      tag_10\n      swap2\n      swap1\n      tag_11\n      jump\t// in\n    tag_10:\n      mload(0x40)\n      dup1\n      swap2\n      sub\n      swap1\n      return\n        /* \"xyz.sol\":899:1744  function addBlock(string[] memory transactions) public {... */\n    tag_4:\n      tag_12\n      0x04\n      dup1\n      calldatasize\n      sub\n      dup2\n      add\n      swap1\n      tag_13\n      swap2\n      swap1\n      tag_14\n      jump\t// in\n    tag_13:\n      tag_15\n      jump\t// in\n    tag_12:\n      stop\n        /* \"xyz.sol\":272:292  Block[] public chain */\n    tag_5:\n      tag_16\n      0x04\n      dup1\n      calldatasize\n      sub\n      dup2\n      add\n      swap1\n      tag_17\n      swap2\n      swap1\n      tag_18\n      jump\t// in\n    tag_17:\n      tag_19\n      jump\t// in\n    tag_16:\n      mload(0x40)\n      tag_20\n      swap6\n      swap5\n      swap4\n      swap3\n      swap2\n      swap1\n      tag_21\n      jump\t// in\n    tag_20:\n      mload(0x40)\n      dup1\n      swap2\n      sub\n      swap1\n      return\n        /* \"xyz.sol\":781:891  function getLatestBlock() public view returns (Block memory) {... */\n    tag_6:\n      tag_22\n      tag_23\n      jump\t// in\n    tag_22:\n      mload(0x40)\n      tag_24\n      swap2\n      swap1\n      tag_25\n      jump\t// in\n    tag_24:\n      mload(0x40)\n      dup1\n      swap2\n      sub\n      swap1\n      return\n        /* \"xyz.sol\":2058:2747  function isChainValid() public view returns (bool) {... */\n    tag_7:\n      tag_26\n      tag_27\n      jump\t// in\n    tag_26:\n      mload(0x40)\n      tag_28\n      swap2\n      swap1\n      tag_29\n      jump\t// in\n    tag_28:\n      mload(0x40)\n      dup1\n      swap2\n      sub\n      swap1\n      return\n        /* \"xyz.sol\":299:325  uint public difficulty = 4 */\n    tag_9:\n      sload(0x01)\n      dup2\n      jump\t// out\n        /* \"xyz.sol\":899:1744  function addBlock(string[] memory transactions) public {... */\n    tag_15:\n        /* \"xyz.sol\":965:991  Block memory previousBlock */\n      0x00\n        /* \"xyz.sol\":994:1010  getLatestBlock() */\n      tag_31\n        /* \"xyz.sol\":994:1008  getLatestBlock */\n      tag_23\n        /* \"xyz.sol\":994:1010  getLatestBlock() */\n      jump\t// in\n    tag_31:\n        /* \"xyz.sol\":965:1010  Block memory previousBlock = getLatestBlock() */\n      swap1\n      pop\n        /* \"xyz.sol\":1021:1034  uint newIndex */\n      0x00\n        /* \"xyz.sol\":1059:1060  1 */\n      0x01\n        /* \"xyz.sol\":1037:1050  previousBlock */\n      dup3\n        /* \"xyz.sol\":1037:1056  previousBlock.index */\n      0x00\n      add\n      mload\n        /* \"xyz.sol\":1037:1060  previousBlock.index + 1 */\n      tag_32\n      swap2\n      swap1\n      tag_33\n      jump\t// in\n    tag_32:\n        /* \"xyz.sol\":1021:1060  uint newIndex = previousBlock.index + 1 */\n      swap1\n      pop\n        /* \"xyz.sol\":1071:1088  uint newTimestamp */\n      0x00\n        /* \"xyz.sol\":1091:1106  block.timestamp */\n      timestamp\n        /* \"xyz.sol\":1071:1106  uint newTimestamp = block.timestamp */\n      swap1\n      pop\n        /* \"xyz.sol\":1117:1140  bytes32 newPreviousHash */\n      0x00\n        /* \"xyz.sol\":1143:1156  previousBlock */\n      dup4\n        /* \"xyz.sol\":1143:1161  previousBlock.hash */\n      0x80\n      add\n      mload\n        /* \"xyz.sol\":1117:1161  bytes32 newPreviousHash = previousBlock.hash */\n      swap1\n      pop\n        /* \"xyz.sol\":1172:1185  uint newNonce */\n      0x00\n        /* \"xyz.sol\":1200:1215  bytes32 newHash */\n      dup1\n        /* \"xyz.sol\":1228:1483  while (true) {... */\n    tag_34:\n        /* \"xyz.sol\":1235:1239  true */\n      0x01\n        /* \"xyz.sol\":1228:1483  while (true) {... */\n      iszero\n      tag_35\n      jumpi\n        /* \"xyz.sol\":1266:1344  calculateHash(newIndex, newTimestamp, transactions, newPreviousHash, newNonce) */\n      tag_36\n        /* \"xyz.sol\":1280:1288  newIndex */\n      dup6\n        /* \"xyz.sol\":1290:1302  newTimestamp */\n      dup6\n        /* \"xyz.sol\":1304:1316  transactions */\n      dup10\n        /* \"xyz.sol\":1318:1333  newPreviousHash */\n      dup7\n        /* \"xyz.sol\":1335:1343  newNonce */\n      dup7\n        /* \"xyz.sol\":1266:1279  calculateHash */\n      tag_37\n        /* \"xyz.sol\":1266:1344  calculateHash(newIndex, newTimestamp, transactions, newPreviousHash, newNonce) */\n      jump\t// in\n    tag_36:\n        /* \"xyz.sol\":1256:1344  newHash = calculateHash(newIndex, newTimestamp, transactions, newPreviousHash, newNonce) */\n      swap1\n      pop\n        /* \"xyz.sol\":1394:1404  difficulty */\n      sload(0x01)\n        /* \"xyz.sol\":1388:1391  256 */\n      0x0100\n        /* \"xyz.sol\":1388:1404  256 - difficulty */\n      tag_38\n      swap2\n      swap1\n      tag_39\n      jump\t// in\n    tag_38:\n        /* \"xyz.sol\":1382:1383  2 */\n      0x02\n        /* \"xyz.sol\":1382:1405  2 ** (256 - difficulty) */\n      tag_40\n      swap2\n      swap1\n      tag_41\n      jump\t// in\n    tag_40:\n        /* \"xyz.sol\":1371:1378  newHash */\n      dup2\n        /* \"xyz.sol\":1363:1379  uint256(newHash) */\n      0x00\n      shr\n        /* \"xyz.sol\":1363:1405  uint256(newHash) < 2 ** (256 - difficulty) */\n      lt\n        /* \"xyz.sol\":1426:1431  break */\n      tag_35\n        /* \"xyz.sol\":1359:1447  if (uint256(newHash) < 2 ** (256 - difficulty)) {... */\n      jumpi\n        /* \"xyz.sol\":1461:1471  newNonce++ */\n      dup2\n      dup1\n      tag_43\n      swap1\n      tag_44\n      jump\t// in\n    tag_43:\n      swap3\n      pop\n      pop\n        /* \"xyz.sol\":1228:1483  while (true) {... */\n      jump(tag_34)\n    tag_35:\n        /* \"xyz.sol\":1495:1500  chain */\n      0x00\n        /* \"xyz.sol\":1506:1735  Block({... */\n      mload(0x40)\n      dup1\n      0xc0\n      add\n      0x40\n      mstore\n      dup1\n        /* \"xyz.sol\":1534:1542  newIndex */\n      dup8\n        /* \"xyz.sol\":1506:1735  Block({... */\n      dup2\n      mstore\n      0x20\n      add\n        /* \"xyz.sol\":1568:1580  newTimestamp */\n      dup7\n        /* \"xyz.sol\":1506:1735  Block({... */\n      dup2\n      mstore\n      0x20\n      add\n        /* \"xyz.sol\":1609:1621  transactions */\n      dup10\n        /* \"xyz.sol\":1506:1735  Block({... */\n      dup2\n      mstore\n      0x20\n      add\n        /* \"xyz.sol\":1650:1665  newPreviousHash */\n      dup6\n        /* \"xyz.sol\":1506:1735  Block({... */\n      dup2\n      mstore\n      0x20\n      add\n        /* \"xyz.sol\":1686:1693  newHash */\n      dup4\n        /* \"xyz.sol\":1506:1735  Block({... */\n      dup2\n      mstore\n      0x20\n      add\n        /* \"xyz.sol\":1715:1723  newNonce */\n      dup5\n        /* \"xyz.sol\":1506:1735  Block({... */\n      dup2\n      mstore\n      pop\n        /* \"xyz.sol\":1495:1736  chain.push(Block({... */\n      swap1\n      dup1\n      0x01\n      dup2\n      sload\n      add\n      dup1\n      dup3\n      sstore\n      dup1\n      swap2\n      pop\n      pop\n      0x01\n      swap1\n      sub\n      swap1\n      0x00\n      mstore\n      keccak256(0x00, 0x20)\n      swap1\n      0x06\n      mul\n      add\n      0x00\n      swap1\n      swap2\n      swap1\n      swap2\n      swap1\n      swap2\n      pop\n      0x00\n      dup3\n      add\n      mload\n      dup2\n      0x00\n      add\n      sstore\n      0x20\n      dup3\n      add\n      mload\n      dup2\n      0x01\n      add\n      sstore\n      0x40\n      dup3\n      add\n      mload\n      dup2\n      0x02\n      add\n      swap1\n      dup1\n      mload\n      swap1\n      0x20\n      add\n      swap1\n      tag_46\n      swap3\n      swap2\n      swap1\n      tag_47\n      jump\t// in\n    tag_46:\n      pop\n      0x60\n      dup3\n      add\n      mload\n      dup2\n      0x03\n      add\n      sstore\n      0x80\n      dup3\n      add\n      mload\n      dup2\n      0x04\n      add\n      sstore\n      0xa0\n      dup3\n      add\n      mload\n      dup2\n      0x05\n      add\n      sstore\n      pop\n      pop\n        /* \"xyz.sol\":954:1744  {... */\n      pop\n      pop\n      pop\n      pop\n      pop\n      pop\n        /* \"xyz.sol\":899:1744  function addBlock(string[] memory transactions) public {... */\n      pop\n      jump\t// out\n        /* \"xyz.sol\":272:292  Block[] public chain */\n    tag_19:\n      0x00\n      dup2\n      dup2\n      sload\n      dup2\n      lt\n      tag_48\n      jumpi\n      0x00\n      dup1\n      revert\n    tag_48:\n      swap1\n      0x00\n      mstore\n      keccak256(0x00, 0x20)\n      swap1\n      0x06\n      mul\n      add\n      0x00\n      swap2\n      pop\n      swap1\n      pop\n      dup1\n      0x00\n      add\n      sload\n      swap1\n      dup1\n      0x01\n      add\n      sload\n      swap1\n      dup1\n      0x03\n      add\n      sload\n      swap1\n      dup1\n      0x04\n      add\n      sload\n      swap1\n      dup1\n      0x05\n      add\n      sload\n      swap1\n      pop\n      dup6\n      jump\t// out\n        /* \"xyz.sol\":781:891  function getLatestBlock() public view returns (Block memory) {... */\n    tag_23:\n        /* \"xyz.sol\":828:840  Block memory */\n      tag_50\n      tag_51\n      jump\t// in\n    tag_50:\n        /* \"xyz.sol\":860:865  chain */\n      0x00\n        /* \"xyz.sol\":881:882  1 */\n      0x01\n        /* \"xyz.sol\":866:871  chain */\n      0x00\n        /* \"xyz.sol\":866:878  chain.length */\n      dup1\n      sload\n      swap1\n      pop\n        /* \"xyz.sol\":866:882  chain.length - 1 */\n      tag_53\n      swap2\n      swap1\n      tag_39\n      jump\t// in\n    tag_53:\n        /* \"xyz.sol\":860:883  chain[chain.length - 1] */\n      dup2\n      sload\n      dup2\n      lt\n      tag_54\n      jumpi\n      tag_55\n      tag_56\n      jump\t// in\n    tag_55:\n    tag_54:\n      swap1\n      0x00\n      mstore\n      keccak256(0x00, 0x20)\n      swap1\n      0x06\n      mul\n      add\n        /* \"xyz.sol\":853:883  return chain[chain.length - 1] */\n      mload(0x40)\n      dup1\n      0xc0\n      add\n      0x40\n      mstore\n      swap1\n      dup2\n      0x00\n      dup3\n      add\n      sload\n      dup2\n      mstore\n      0x20\n      add\n      0x01\n      dup3\n      add\n      sload\n      dup2\n      mstore\n      0x20\n      add\n      0x02\n      dup3\n      add\n      dup1\n      sload\n      dup1\n      0x20\n      mul\n      0x20\n      add\n      mload(0x40)\n      swap1\n      dup2\n      add\n      0x40\n      mstore\n      dup1\n      swap3\n      swap2\n      swap1\n      dup2\n      dup2\n      mstore\n      0x20\n      add\n      0x00\n      swap1\n    tag_58:\n      dup3\n      dup3\n      lt\n      iszero\n      tag_59\n      jumpi\n      dup4\n      dup3\n      swap1\n      0x00\n      mstore\n      keccak256(0x00, 0x20)\n      add\n      dup1\n      sload\n      tag_61\n      swap1\n      tag_62\n      jump\t// in\n    tag_61:\n      dup1\n      0x1f\n      add\n      0x20\n      dup1\n      swap2\n      div\n      mul\n      0x20\n      add\n      mload(0x40)\n      swap1\n      dup2\n      add\n      0x40\n      mstore\n      dup1\n      swap3\n      swap2\n      swap1\n      dup2\n      dup2\n      mstore\n      0x20\n      add\n      dup3\n      dup1\n      sload\n      tag_63\n      swap1\n      tag_62\n      jump\t// in\n    tag_63:\n      dup1\n      iszero\n      tag_64\n      jumpi\n      dup1\n      0x1f\n      lt\n      tag_65\n      jumpi\n      0x0100\n      dup1\n      dup4\n      sload\n      div\n      mul\n      dup4\n      mstore\n      swap2\n      0x20\n      add\n      swap2\n      jump(tag_64)\n    tag_65:\n      dup3\n      add\n      swap2\n      swap1\n      0x00\n      mstore\n      keccak256(0x00, 0x20)\n      swap1\n    tag_66:\n      dup2\n      sload\n      dup2\n      mstore\n      swap1\n      0x01\n      add\n      swap1\n      0x20\n      add\n      dup1\n      dup4\n      gt\n      tag_66\n      jumpi\n      dup3\n      swap1\n      sub\n      0x1f\n      and\n      dup3\n      add\n      swap2\n    tag_64:\n      pop\n      pop\n      pop\n      pop\n      pop\n      dup2\n      mstore\n      0x20\n      add\n      swap1\n      0x01\n      add\n      swap1\n      jump(tag_58)\n    tag_59:\n      pop\n      pop\n      pop\n      pop\n      dup2\n      mstore\n      0x20\n      add\n      0x03\n      dup3\n      add\n      sload\n      dup2\n      mstore\n      0x20\n      add\n      0x04\n      dup3\n      add\n      sload\n      dup2\n      mstore\n      0x20\n      add\n      0x05\n      dup3\n      add\n      sload\n      dup2\n      mstore\n      pop\n      pop\n      swap1\n      pop\n        /* \"xyz.sol\":781:891  function getLatestBlock() public view returns (Block memory) {... */\n      swap1\n      jump\t// out\n        /* \"xyz.sol\":2058:2747  function isChainValid() public view returns (bool) {... */\n    tag_27:\n        /* \"xyz.sol\":2103:2107  bool */\n      0x00\n        /* \"xyz.sol\":2125:2131  uint i */\n      dup1\n        /* \"xyz.sol\":2134:2135  1 */\n      0x01\n        /* \"xyz.sol\":2125:2135  uint i = 1 */\n      swap1\n      pop\n        /* \"xyz.sol\":2120:2716  for (uint i = 1; i < chain.length; i++) {... */\n    tag_68:\n        /* \"xyz.sol\":2141:2146  chain */\n      0x00\n        /* \"xyz.sol\":2141:2153  chain.length */\n      dup1\n      sload\n      swap1\n      pop\n        /* \"xyz.sol\":2137:2138  i */\n      dup2\n        /* \"xyz.sol\":2137:2153  i < chain.length */\n      lt\n        /* \"xyz.sol\":2120:2716  for (uint i = 1; i < chain.length; i++) {... */\n      iszero\n      tag_69\n      jumpi\n        /* \"xyz.sol\":2175:2200  Block memory currentBlock */\n      0x00\n        /* \"xyz.sol\":2203:2208  chain */\n      dup1\n        /* \"xyz.sol\":2209:2210  i */\n      dup3\n        /* \"xyz.sol\":2203:2211  chain[i] */\n      dup2\n      sload\n      dup2\n      lt\n      tag_71\n      jumpi\n      tag_72\n      tag_56\n      jump\t// in\n    tag_72:\n    tag_71:\n      swap1\n      0x00\n      mstore\n      keccak256(0x00, 0x20)\n      swap1\n      0x06\n      mul\n      add\n        /* \"xyz.sol\":2175:2211  Block memory currentBlock = chain[i] */\n      mload(0x40)\n      dup1\n      0xc0\n      add\n      0x40\n      mstore\n      swap1\n      dup2\n      0x00\n      dup3\n      add\n      sload\n      dup2\n      mstore\n      0x20\n      add\n      0x01\n      dup3\n      add\n      sload\n      dup2\n      mstore\n      0x20\n      add\n      0x02\n      dup3\n      add\n      dup1\n      sload\n      dup1\n      0x20\n      mul\n      0x20\n      add\n      mload(0x40)\n      swap1\n      dup2\n      add\n      0x40\n      mstore\n      dup1\n      swap3\n      swap2\n      swap1\n      dup2\n      dup2\n      mstore\n      0x20\n      add\n      0x00\n      swap1\n    tag_74:\n      dup3\n      dup3\n      lt\n      iszero\n      tag_75\n      jumpi\n      dup4\n      dup3\n      swap1\n      0x00\n      mstore\n      keccak256(0x00, 0x20)\n      add\n      dup1\n      sload\n      tag_77\n      swap1\n      tag_62\n      jump\t// in\n    tag_77:\n      dup1\n      0x1f\n      add\n      0x20\n      dup1\n      swap2\n      div\n      mul\n      0x20\n      add\n      mload(0x40)\n      swap1\n      dup2\n      add\n      0x40\n      mstore\n      dup1\n      swap3\n      swap2\n      swap1\n      dup2\n      dup2\n      mstore\n      0x20\n      add\n      dup3\n      dup1\n      sload\n      tag_78\n      swap1\n      tag_62\n      jump\t// in\n    tag_78:\n      dup1\n      iszero\n      tag_79\n      jumpi\n      dup1\n      0x1f\n      lt\n      tag_80\n      jumpi\n      0x0100\n      dup1\n      dup4\n      sload\n      div\n      mul\n      dup4\n      mstore\n      swap2\n      0x20\n      add\n      swap2\n      jump(tag_79)\n    tag_80:\n      dup3\n      add\n      swap2\n      swap1\n      0x00\n      mstore\n      keccak256(0x00, 0x20)\n      swap1\n    tag_81:\n      dup2\n      sload\n      dup2\n      mstore\n      swap1\n      0x01\n      add\n      swap1\n      0x20\n      add\n      dup1\n      dup4\n      gt\n      tag_81\n      jumpi\n      dup3\n      swap1\n      sub\n      0x1f\n      and\n      dup3\n      add\n      swap2\n    tag_79:\n      pop\n      pop\n      pop\n      pop\n      pop\n      dup2\n      mstore\n      0x20\n      add\n      swap1\n      0x01\n      add\n      swap1\n      jump(tag_74)\n    tag_75:\n      pop\n      pop\n      pop\n      pop\n      dup2\n      mstore\n      0x20\n      add\n      0x03\n      dup3\n      add\n      sload\n      dup2\n      mstore\n      0x20\n      add\n      0x04\n      dup3\n      add\n      sload\n      dup2\n      mstore\n      0x20\n      add\n      0x05\n      dup3\n      add\n      sload\n      dup2\n      mstore\n      pop\n      pop\n      swap1\n      pop\n        /* \"xyz.sol\":2226:2252  Block memory previousBlock */\n      0x00\n        /* \"xyz.sol\":2255:2260  chain */\n      dup1\n        /* \"xyz.sol\":2265:2266  1 */\n      0x01\n        /* \"xyz.sol\":2261:2262  i */\n      dup5\n        /* \"xyz.sol\":2261:2266  i - 1 */\n      tag_82\n      swap2\n      swap1\n      tag_39\n      jump\t// in\n    tag_82:\n        /* \"xyz.sol\":2255:2267  chain[i - 1] */\n      dup2\n      sload\n      dup2\n      lt\n      tag_83\n      jumpi\n      tag_84\n      tag_56\n      jump\t// in\n    tag_84:\n    tag_83:\n      swap1\n      0x00\n      mstore\n      keccak256(0x00, 0x20)\n      swap1\n      0x06\n      mul\n      add\n        /* \"xyz.sol\":2226:2267  Block memory previousBlock = chain[i - 1] */\n      mload(0x40)\n      dup1\n      0xc0\n      add\n      0x40\n      mstore\n      swap1\n      dup2\n      0x00\n      dup3\n      add\n      sload\n      dup2\n      mstore\n      0x20\n      add\n      0x01\n      dup3\n      add\n      sload\n      dup2\n      mstore\n      0x20\n      add\n      0x02\n      dup3\n      add\n      dup1\n      sload\n      dup1\n      0x20\n      mul\n      0x20\n      add\n      mload(0x40)\n      swap1\n      dup2\n      add\n      0x40\n      mstore\n      dup1\n      swap3\n      swap2\n      swap1\n      dup2\n      dup2\n      mstore\n      0x20\n      add\n      0x00\n      swap1\n    tag_86:\n      dup3\n      dup3\n      lt\n      iszero\n      tag_87\n      jumpi\n      dup4\n      dup3\n      swap1\n      0x00\n      mstore\n      keccak256(0x00, 0x20)\n      add\n      dup1\n      sload\n      tag_89\n      swap1\n      tag_62\n      jump\t// in\n    tag_89:\n      dup1\n      0x1f\n      add\n      0x20\n      dup1\n      swap2\n      div\n      mul\n      0x20\n      add\n      mload(0x40)\n      swap1\n      dup2\n      add\n      0x40\n      mstore\n      dup1\n      swap3\n      swap2\n      swap1\n      dup2\n      dup2\n      mstore\n      0x20\n      add\n      dup3\n      dup1\n      sload\n      tag_90\n      swap1\n      tag_62\n      jump\t// in\n    tag_90:\n      dup1\n      iszero\n      tag_91\n      jumpi\n      dup1\n      0x1f\n      lt\n      tag_92\n      jumpi\n      0x0100\n      dup1\n      dup4\n      sload\n      div\n      mul\n      dup4\n      mstore\n      swap2\n      0x20\n      add\n      swap2\n      jump(tag_91)\n    tag_92:\n      dup3\n      add\n      swap2\n      swap1\n      0x00\n      mstore\n      keccak256(0x00, 0x20)\n      swap1\n    tag_93:\n      dup2\n      sload\n      dup2\n      mstore\n      swap1\n      0x01\n      add\n      swap1\n      0x20\n      add\n      dup1\n      dup4\n      gt\n      tag_93\n      jumpi\n      dup3\n      swap1\n      sub\n      0x1f\n      and\n      dup3\n      add\n      swap2\n    tag_91:\n      pop\n      pop\n      pop\n      pop\n      pop\n      dup2\n      mstore\n      0x20\n      add\n      swap1\n      0x01\n      add\n      swap1\n      jump(tag_86)\n    tag_87:\n      pop\n      pop\n      pop\n      pop\n      dup2\n      mstore\n      0x20\n      add\n      0x03\n      dup3\n      add\n      sload\n      dup2\n      mstore\n      0x20\n      add\n      0x04\n      dup3\n      add\n      sload\n      dup2\n      mstore\n      0x20\n      add\n      0x05\n      dup3\n      add\n      sload\n      dup2\n      mstore\n      pop\n      pop\n      swap1\n      pop\n        /* \"xyz.sol\":2309:2540  calculateHash(... */\n      tag_94\n        /* \"xyz.sol\":2341:2353  currentBlock */\n      dup3\n        /* \"xyz.sol\":2341:2359  currentBlock.index */\n      0x00\n      add\n      mload\n        /* \"xyz.sol\":2378:2390  currentBlock */\n      dup4\n        /* \"xyz.sol\":2378:2400  currentBlock.timestamp */\n      0x20\n      add\n      mload\n        /* \"xyz.sol\":2419:2431  currentBlock */\n      dup5\n        /* \"xyz.sol\":2419:2444  currentBlock.transactions */\n      0x40\n      add\n      mload\n        /* \"xyz.sol\":2463:2475  currentBlock */\n      dup6\n        /* \"xyz.sol\":2463:2488  currentBlock.previousHash */\n      0x60\n      add\n      mload\n        /* \"xyz.sol\":2507:2519  currentBlock */\n      dup7\n        /* \"xyz.sol\":2507:2525  currentBlock.nonce */\n      0xa0\n      add\n      mload\n        /* \"xyz.sol\":2309:2322  calculateHash */\n      tag_37\n        /* \"xyz.sol\":2309:2540  calculateHash(... */\n      jump\t// in\n    tag_94:\n        /* \"xyz.sol\":2288:2300  currentBlock */\n      dup3\n        /* \"xyz.sol\":2288:2305  currentBlock.hash */\n      0x80\n      add\n      mload\n        /* \"xyz.sol\":2288:2540  currentBlock.hash != calculateHash(... */\n      eq\n        /* \"xyz.sol\":2284:2589  if (currentBlock.hash != calculateHash(... */\n      tag_95\n      jumpi\n        /* \"xyz.sol\":2568:2573  false */\n      0x00\n        /* \"xyz.sol\":2561:2573  return false */\n      swap4\n      pop\n      pop\n      pop\n      pop\n      jump(tag_67)\n        /* \"xyz.sol\":2284:2589  if (currentBlock.hash != calculateHash(... */\n    tag_95:\n        /* \"xyz.sol\":2638:2651  previousBlock */\n      dup1\n        /* \"xyz.sol\":2638:2656  previousBlock.hash */\n      0x80\n      add\n      mload\n        /* \"xyz.sol\":2609:2621  currentBlock */\n      dup3\n        /* \"xyz.sol\":2609:2634  currentBlock.previousHash */\n      0x60\n      add\n      mload\n        /* \"xyz.sol\":2609:2656  currentBlock.previousHash != previousBlock.hash */\n      eq\n        /* \"xyz.sol\":2605:2705  if (currentBlock.previousHash != previousBlock.hash) {... */\n      tag_96\n      jumpi\n        /* \"xyz.sol\":2684:2689  false */\n      0x00\n        /* \"xyz.sol\":2677:2689  return false */\n      swap4\n      pop\n      pop\n      pop\n      pop\n      jump(tag_67)\n        /* \"xyz.sol\":2605:2705  if (currentBlock.previousHash != previousBlock.hash) {... */\n    tag_96:\n        /* \"xyz.sol\":2160:2716  {... */\n      pop\n      pop\n        /* \"xyz.sol\":2155:2158  i++ */\n      dup1\n      dup1\n      0x01\n      add\n      swap2\n      pop\n      pop\n        /* \"xyz.sol\":2120:2716  for (uint i = 1; i < chain.length; i++) {... */\n      jump(tag_68)\n    tag_69:\n      pop\n        /* \"xyz.sol\":2735:2739  true */\n      0x01\n        /* \"xyz.sol\":2728:2739  return true */\n      swap1\n      pop\n        /* \"xyz.sol\":2058:2747  function isChainValid() public view returns (bool) {... */\n    tag_67:\n      swap1\n      jump\t// out\n        /* \"xyz.sol\":1752:2050  function calculateHash(... */\n    tag_37:\n        /* \"xyz.sol\":1941:1948  bytes32 */\n      0x00\n        /* \"xyz.sol\":1989:1994  index */\n      dup6\n        /* \"xyz.sol\":1996:2005  timestamp */\n      dup6\n        /* \"xyz.sol\":2007:2019  transactions */\n      dup6\n        /* \"xyz.sol\":2021:2033  previousHash */\n      dup6\n        /* \"xyz.sol\":2035:2040  nonce */\n      dup6\n        /* \"xyz.sol\":1978:2041  abi.encode(index, timestamp, transactions, previousHash, nonce) */\n      add(0x20, mload(0x40))\n      tag_98\n      swap6\n      swap5\n      swap4\n      swap3\n      swap2\n      swap1\n      tag_99\n      jump\t// in\n    tag_98:\n      mload(0x40)\n      0x20\n      dup2\n      dup4\n      sub\n      sub\n      dup2\n      mstore\n      swap1\n      0x40\n      mstore\n        /* \"xyz.sol\":1968:2042  keccak256(abi.encode(index, timestamp, transactions, previousHash, nonce)) */\n      dup1\n      mload\n      swap1\n      0x20\n      add\n      keccak256\n        /* \"xyz.sol\":1961:2042  return keccak256(abi.encode(index, timestamp, transactions, previousHash, nonce)) */\n      swap1\n      pop\n        /* \"xyz.sol\":1752:2050  function calculateHash(... */\n      swap6\n      swap5\n      pop\n      pop\n      pop\n      pop\n      pop\n      jump\t// out\n    tag_47:\n      dup3\n      dup1\n      sload\n      dup3\n      dup3\n      sstore\n      swap1\n      0x00\n      mstore\n      keccak256(0x00, 0x20)\n      swap1\n      dup2\n      add\n      swap3\n      dup3\n      iszero\n      tag_100\n      jumpi\n      swap2\n      0x20\n      mul\n      dup3\n      add\n    tag_101:\n      dup3\n      dup2\n      gt\n      iszero\n      tag_102\n      jumpi\n      dup3\n      mload\n      dup3\n      swap1\n      dup2\n      tag_103\n      swap2\n      swap1\n      tag_104\n      jump\t// in\n    tag_103:\n      pop\n      swap2\n      0x20\n      add\n      swap2\n      swap1\n      0x01\n      add\n      swap1\n      jump(tag_101)\n    tag_102:\n    tag_100:\n      pop\n      swap1\n      pop\n      tag_105\n      swap2\n      swap1\n      tag_106\n      jump\t// in\n    tag_105:\n      pop\n      swap1\n      jump\t// out\n    tag_51:\n      mload(0x40)\n      dup1\n      0xc0\n      add\n      0x40\n      mstore\n      dup1\n      0x00\n      dup2\n      mstore\n      0x20\n      add\n      0x00\n      dup2\n      mstore\n      0x20\n      add\n      0x60\n      dup2\n      mstore\n      0x20\n      add\n      0x00\n      dup1\n      not\n      and\n      dup2\n      mstore\n      0x20\n      add\n      0x00\n      dup1\n      not\n      and\n      dup2\n      mstore\n      0x20\n      add\n      0x00\n      dup2\n      mstore\n      pop\n      swap1\n      jump\t// out\n    tag_106:\n    tag_107:\n      dup1\n      dup3\n      gt\n      iszero\n      tag_108\n      jumpi\n      0x00\n      dup2\n      dup2\n      tag_109\n      swap2\n      swap1\n      tag_110\n      jump\t// in\n    tag_109:\n      pop\n      0x01\n      add\n      jump(tag_107)\n    tag_108:\n      pop\n      swap1\n      jump\t// out\n    tag_110:\n      pop\n      dup1\n      sload\n      tag_111\n      swap1\n      tag_62\n      jump\t// in\n    tag_111:\n      0x00\n      dup3\n      sstore\n      dup1\n      0x1f\n      lt\n      tag_113\n      jumpi\n      pop\n      jump(tag_112)\n    tag_113:\n      0x1f\n      add\n      0x20\n      swap1\n      div\n      swap1\n      0x00\n      mstore\n      keccak256(0x00, 0x20)\n      swap1\n      dup2\n      add\n      swap1\n      tag_114\n      swap2\n      swap1\n      tag_115\n      jump\t// in\n    tag_114:\n    tag_112:\n      pop\n      jump\t// out\n    tag_115:\n    tag_116:\n      dup1\n      dup3\n      gt\n      iszero\n      tag_117\n      jumpi\n      0x00\n      dup2\n      0x00\n      swap1\n      sstore\n      pop\n      0x01\n      add\n      jump(tag_116)\n    tag_117:\n      pop\n      swap1\n      jump\t// out\n        /* \"#utility.yul\":7:84   */\n    tag_118:\n        /* \"#utility.yul\":44:51   */\n      0x00\n        /* \"#utility.yul\":73:78   */\n      dup2\n        /* \"#utility.yul\":62:78   */\n      swap1\n      pop\n        /* \"#utility.yul\":7:84   */\n      swap2\n      swap1\n      pop\n      jump\t// out\n        /* \"#utility.yul\":90:208   */\n    tag_119:\n        /* \"#utility.yul\":177:201   */\n      tag_181\n        /* \"#utility.yul\":195:200   */\n      dup2\n        /* \"#utility.yul\":177:201   */\n      tag_118\n      jump\t// in\n    tag_181:\n        /* \"#utility.yul\":172:175   */\n      dup3\n        /* \"#utility.yul\":165:202   */\n      mstore\n        /* \"#utility.yul\":90:208   */\n      pop\n      pop\n      jump\t// out\n        /* \"#utility.yul\":214:436   */\n    tag_11:\n        /* \"#utility.yul\":307:311   */\n      0x00\n        /* \"#utility.yul\":345:347   */\n      0x20\n        /* \"#utility.yul\":334:343   */\n      dup3\n        /* \"#utility.yul\":330:348   */\n      add\n        /* \"#utility.yul\":322:348   */\n      swap1\n      pop\n        /* \"#utility.yul\":358:429   */\n      tag_183\n        /* \"#utility.yul\":426:427   */\n      0x00\n        /* \"#utility.yul\":415:424   */\n      dup4\n        /* \"#utility.yul\":411:428   */\n      add\n        /* \"#utility.yul\":402:408   */\n      dup5\n        /* \"#utility.yul\":358:429   */\n      tag_119\n      jump\t// in\n    tag_183:\n        /* \"#utility.yul\":214:436   */\n      swap3\n      swap2\n      pop\n      pop\n      jump\t// out\n        /* \"#utility.yul\":442:517   */\n    tag_120:\n        /* \"#utility.yul\":475:481   */\n      0x00\n        /* \"#utility.yul\":508:510   */\n      0x40\n        /* \"#utility.yul\":502:511   */\n      mload\n        /* \"#utility.yul\":492:511   */\n      swap1\n      pop\n        /* \"#utility.yul\":442:517   */\n      swap1\n      jump\t// out\n        /* \"#utility.yul\":523:640   */\n    tag_121:\n        /* \"#utility.yul\":632:633   */\n      0x00\n        /* \"#utility.yul\":629:630   */\n      dup1\n        /* \"#utility.yul\":622:634   */\n      revert\n        /* \"#utility.yul\":646:763   */\n    tag_122:\n        /* \"#utility.yul\":755:756   */\n      0x00\n        /* \"#utility.yul\":752:753   */\n      dup1\n        /* \"#utility.yul\":745:757   */\n      revert\n        /* \"#utility.yul\":769:886   */\n    tag_123:\n        /* \"#utility.yul\":878:879   */\n      0x00\n        /* \"#utility.yul\":875:876   */\n      dup1\n        /* \"#utility.yul\":868:880   */\n      revert\n        /* \"#utility.yul\":892:994   */\n    tag_124:\n        /* \"#utility.yul\":933:939   */\n      0x00\n        /* \"#utility.yul\":984:986   */\n      0x1f\n        /* \"#utility.yul\":980:987   */\n      not\n        /* \"#utility.yul\":975:977   */\n      0x1f\n        /* \"#utility.yul\":968:973   */\n      dup4\n        /* \"#utility.yul\":964:978   */\n      add\n        /* \"#utility.yul\":960:988   */\n      and\n        /* \"#utility.yul\":950:988   */\n      swap1\n      pop\n        /* \"#utility.yul\":892:994   */\n      swap2\n      swap1\n      pop\n      jump\t// out\n        /* \"#utility.yul\":1000:1180   */\n    tag_125:\n        /* \"#utility.yul\":1048:1125   */\n      0x4e487b7100000000000000000000000000000000000000000000000000000000\n        /* \"#utility.yul\":1045:1046   */\n      0x00\n        /* \"#utility.yul\":1038:1126   */\n      mstore\n        /* \"#utility.yul\":1145:1149   */\n      0x41\n        /* \"#utility.yul\":1142:1143   */\n      0x04\n        /* \"#utility.yul\":1135:1150   */\n      mstore\n        /* \"#utility.yul\":1169:1173   */\n      0x24\n        /* \"#utility.yul\":1166:1167   */\n      0x00\n        /* \"#utility.yul\":1159:1174   */\n      revert\n        /* \"#utility.yul\":1186:1467   */\n    tag_126:\n        /* \"#utility.yul\":1269:1296   */\n      tag_191\n        /* \"#utility.yul\":1291:1295   */\n      dup3\n        /* \"#utility.yul\":1269:1296   */\n      tag_124\n      jump\t// in\n    tag_191:\n        /* \"#utility.yul\":1261:1267   */\n      dup2\n        /* \"#utility.yul\":1257:1297   */\n      add\n        /* \"#utility.yul\":1399:1405   */\n      dup2\n        /* \"#utility.yul\":1387:1397   */\n      dup2\n        /* \"#utility.yul\":1384:1406   */\n      lt\n        /* \"#utility.yul\":1363:1381   */\n      0xffffffffffffffff\n        /* \"#utility.yul\":1351:1361   */\n      dup3\n        /* \"#utility.yul\":1348:1382   */\n      gt\n        /* \"#utility.yul\":1345:1407   */\n      or\n        /* \"#utility.yul\":1342:1430   */\n      iszero\n      tag_192\n      jumpi\n        /* \"#utility.yul\":1410:1428   */\n      tag_193\n      tag_125\n      jump\t// in\n    tag_193:\n        /* \"#utility.yul\":1342:1430   */\n    tag_192:\n        /* \"#utility.yul\":1450:1460   */\n      dup1\n        /* \"#utility.yul\":1446:1448   */\n      0x40\n        /* \"#utility.yul\":1439:1461   */\n      mstore\n        /* \"#utility.yul\":1229:1467   */\n      pop\n        /* \"#utility.yul\":1186:1467   */\n      pop\n      pop\n      jump\t// out\n        /* \"#utility.yul\":1473:1602   */\n    tag_127:\n        /* \"#utility.yul\":1507:1513   */\n      0x00\n        /* \"#utility.yul\":1534:1554   */\n      tag_195\n      tag_120\n      jump\t// in\n    tag_195:\n        /* \"#utility.yul\":1524:1554   */\n      swap1\n      pop\n        /* \"#utility.yul\":1563:1596   */\n      tag_196\n        /* \"#utility.yul\":1591:1595   */\n      dup3\n        /* \"#utility.yul\":1583:1589   */\n      dup3\n        /* \"#utility.yul\":1563:1596   */\n      tag_126\n      jump\t// in\n    tag_196:\n        /* \"#utility.yul\":1473:1602   */\n      swap2\n      swap1\n      pop\n      jump\t// out\n        /* \"#utility.yul\":1608:1929   */\n    tag_128:\n        /* \"#utility.yul\":1695:1699   */\n      0x00\n        /* \"#utility.yul\":1785:1803   */\n      0xffffffffffffffff\n        /* \"#utility.yul\":1777:1783   */\n      dup3\n        /* \"#utility.yul\":1774:1804   */\n      gt\n        /* \"#utility.yul\":1771:1827   */\n      iszero\n      tag_198\n      jumpi\n        /* \"#utility.yul\":1807:1825   */\n      tag_199\n      tag_125\n      jump\t// in\n    tag_199:\n        /* \"#utility.yul\":1771:1827   */\n    tag_198:\n        /* \"#utility.yul\":1857:1861   */\n      0x20\n        /* \"#utility.yul\":1849:1855   */\n      dup3\n        /* \"#utility.yul\":1845:1862   */\n      mul\n        /* \"#utility.yul\":1837:1862   */\n      swap1\n      pop\n        /* \"#utility.yul\":1917:1921   */\n      0x20\n        /* \"#utility.yul\":1911:1915   */\n      dup2\n        /* \"#utility.yul\":1907:1922   */\n      add\n        /* \"#utility.yul\":1899:1922   */\n      swap1\n      pop\n        /* \"#utility.yul\":1608:1929   */\n      swap2\n      swap1\n      pop\n      jump\t// out\n        /* \"#utility.yul\":1935:2052   */\n    tag_129:\n        /* \"#utility.yul\":2044:2045   */\n      0x00\n        /* \"#utility.yul\":2041:2042   */\n      dup1\n        /* \"#utility.yul\":2034:2046   */\n      revert\n        /* \"#utility.yul\":2058:2175   */\n    tag_130:\n        /* \"#utility.yul\":2167:2168   */\n      0x00\n        /* \"#utility.yul\":2164:2165   */\n      dup1\n        /* \"#utility.yul\":2157:2169   */\n      revert\n        /* \"#utility.yul\":2181:2489   */\n    tag_131:\n        /* \"#utility.yul\":2243:2247   */\n      0x00\n        /* \"#utility.yul\":2333:2351   */\n      0xffffffffffffffff\n        /* \"#utility.yul\":2325:2331   */\n      dup3\n        /* \"#utility.yul\":2322:2352   */\n      gt\n        /* \"#utility.yul\":2319:2375   */\n      iszero\n      tag_203\n      jumpi\n        /* \"#utility.yul\":2355:2373   */\n      tag_204\n      tag_125\n      jump\t// in\n    tag_204:\n        /* \"#utility.yul\":2319:2375   */\n    tag_203:\n        /* \"#utility.yul\":2393:2422   */\n      tag_205\n        /* \"#utility.yul\":2415:2421   */\n      dup3\n        /* \"#utility.yul\":2393:2422   */\n      tag_124\n      jump\t// in\n    tag_205:\n        /* \"#utility.yul\":2385:2422   */\n      swap1\n      pop\n        /* \"#utility.yul\":2477:2481   */\n      0x20\n        /* \"#utility.yul\":2471:2475   */\n      dup2\n        /* \"#utility.yul\":2467:2482   */\n      add\n        /* \"#utility.yul\":2459:2482   */\n      swap1\n      pop\n        /* \"#utility.yul\":2181:2489   */\n      swap2\n      swap1\n      pop\n      jump\t// out\n        /* \"#utility.yul\":2495:2643   */\n    tag_132:\n        /* \"#utility.yul\":2593:2599   */\n      dup3\n        /* \"#utility.yul\":2588:2591   */\n      dup2\n        /* \"#utility.yul\":2583:2586   */\n      dup4\n        /* \"#utility.yul\":2570:2600   */\n      calldatacopy\n        /* \"#utility.yul\":2634:2635   */\n      0x00\n        /* \"#utility.yul\":2625:2631   */\n      dup4\n        /* \"#utility.yul\":2620:2623   */\n      dup4\n        /* \"#utility.yul\":2616:2632   */\n      add\n        /* \"#utility.yul\":2609:2636   */\n      mstore\n        /* \"#utility.yul\":2495:2643   */\n      pop\n      pop\n      pop\n      jump\t// out\n        /* \"#utility.yul\":2649:3074   */\n    tag_133:\n        /* \"#utility.yul\":2727:2732   */\n      0x00\n        /* \"#utility.yul\":2752:2818   */\n      tag_208\n        /* \"#utility.yul\":2768:2817   */\n      tag_209\n        /* \"#utility.yul\":2810:2816   */\n      dup5\n        /* \"#utility.yul\":2768:2817   */\n      tag_131\n      jump\t// in\n    tag_209:\n        /* \"#utility.yul\":2752:2818   */\n      tag_127\n      jump\t// in\n    tag_208:\n        /* \"#utility.yul\":2743:2818   */\n      swap1\n      pop\n        /* \"#utility.yul\":2841:2847   */\n      dup3\n        /* \"#utility.yul\":2834:2839   */\n      dup2\n        /* \"#utility.yul\":2827:2848   */\n      mstore\n        /* \"#utility.yul\":2879:2883   */\n      0x20\n        /* \"#utility.yul\":2872:2877   */\n      dup2\n        /* \"#utility.yul\":2868:2884   */\n      add\n        /* \"#utility.yul\":2917:2920   */\n      dup5\n        /* \"#utility.yul\":2908:2914   */\n      dup5\n        /* \"#utility.yul\":2903:2906   */\n      dup5\n        /* \"#utility.yul\":2899:2915   */\n      add\n        /* \"#utility.yul\":2896:2921   */\n      gt\n        /* \"#utility.yul\":2893:3005   */\n      iszero\n      tag_210\n      jumpi\n        /* \"#utility.yul\":2924:3003   */\n      tag_211\n      tag_130\n      jump\t// in\n    tag_211:\n        /* \"#utility.yul\":2893:3005   */\n    tag_210:\n        /* \"#utility.yul\":3014:3068   */\n      tag_212\n        /* \"#utility.yul\":3061:3067   */\n      dup5\n        /* \"#utility.yul\":3056:3059   */\n      dup3\n        /* \"#utility.yul\":3051:3054   */\n      dup6\n        /* \"#utility.yul\":3014:3068   */\n      tag_132\n      jump\t// in\n    tag_212:\n        /* \"#utility.yul\":2733:3074   */\n      pop\n        /* \"#utility.yul\":2649:3074   */\n      swap4\n      swap3\n      pop\n      pop\n      pop\n      jump\t// out\n        /* \"#utility.yul\":3094:3434   */\n    tag_134:\n        /* \"#utility.yul\":3150:3155   */\n      0x00\n        /* \"#utility.yul\":3199:3202   */\n      dup3\n        /* \"#utility.yul\":3192:3196   */\n      0x1f\n        /* \"#utility.yul\":3184:3190   */\n      dup4\n        /* \"#utility.yul\":3180:3197   */\n      add\n        /* \"#utility.yul\":3176:3203   */\n      slt\n        /* \"#utility.yul\":3166:3288   */\n      tag_214\n      jumpi\n        /* \"#utility.yul\":3207:3286   */\n      tag_215\n      tag_123\n      jump\t// in\n    tag_215:\n        /* \"#utility.yul\":3166:3288   */\n    tag_214:\n        /* \"#utility.yul\":3324:3330   */\n      dup2\n        /* \"#utility.yul\":3311:3331   */\n      calldataload\n        /* \"#utility.yul\":3349:3428   */\n      tag_216\n        /* \"#utility.yul\":3424:3427   */\n      dup5\n        /* \"#utility.yul\":3416:3422   */\n      dup3\n        /* \"#utility.yul\":3409:3413   */\n      0x20\n        /* \"#utility.yul\":3401:3407   */\n      dup7\n        /* \"#utility.yul\":3397:3414   */\n      add\n        /* \"#utility.yul\":3349:3428   */\n      tag_133\n      jump\t// in\n    tag_216:\n        /* \"#utility.yul\":3340:3428   */\n      swap2\n      pop\n        /* \"#utility.yul\":3156:3434   */\n      pop\n        /* \"#utility.yul\":3094:3434   */\n      swap3\n      swap2\n      pop\n      pop\n      jump\t// out\n        /* \"#utility.yul\":3456:4401   */\n    tag_135:\n        /* \"#utility.yul\":3562:3567   */\n      0x00\n        /* \"#utility.yul\":3587:3678   */\n      tag_218\n        /* \"#utility.yul\":3603:3677   */\n      tag_219\n        /* \"#utility.yul\":3670:3676   */\n      dup5\n        /* \"#utility.yul\":3603:3677   */\n      tag_128\n      jump\t// in\n    tag_219:\n        /* \"#utility.yul\":3587:3678   */\n      tag_127\n      jump\t// in\n    tag_218:\n        /* \"#utility.yul\":3578:3678   */\n      swap1\n      pop\n        /* \"#utility.yul\":3698:3703   */\n      dup1\n        /* \"#utility.yul\":3727:3733   */\n      dup4\n        /* \"#utility.yul\":3720:3725   */\n      dup3\n        /* \"#utility.yul\":3713:3734   */\n      mstore\n        /* \"#utility.yul\":3761:3765   */\n      0x20\n        /* \"#utility.yul\":3754:3759   */\n      dup3\n        /* \"#utility.yul\":3750:3766   */\n      add\n        /* \"#utility.yul\":3743:3766   */\n      swap1\n      pop\n        /* \"#utility.yul\":3814:3818   */\n      0x20\n        /* \"#utility.yul\":3806:3812   */\n      dup5\n        /* \"#utility.yul\":3802:3819   */\n      mul\n        /* \"#utility.yul\":3794:3800   */\n      dup4\n        /* \"#utility.yul\":3790:3820   */\n      add\n        /* \"#utility.yul\":3843:3846   */\n      dup6\n        /* \"#utility.yul\":3835:3841   */\n      dup2\n        /* \"#utility.yul\":3832:3847   */\n      gt\n        /* \"#utility.yul\":3829:3951   */\n      iszero\n      tag_220\n      jumpi\n        /* \"#utility.yul\":3862:3941   */\n      tag_221\n      tag_129\n      jump\t// in\n    tag_221:\n        /* \"#utility.yul\":3829:3951   */\n    tag_220:\n        /* \"#utility.yul\":3977:3983   */\n      dup4\n        /* \"#utility.yul\":3960:4395   */\n    tag_222:\n        /* \"#utility.yul\":3994:4000   */\n      dup2\n        /* \"#utility.yul\":3989:3992   */\n      dup2\n        /* \"#utility.yul\":3986:4001   */\n      lt\n        /* \"#utility.yul\":3960:4395   */\n      iszero\n      tag_224\n      jumpi\n        /* \"#utility.yul\":4083:4086   */\n      dup1\n        /* \"#utility.yul\":4070:4087   */\n      calldataload\n        /* \"#utility.yul\":4119:4137   */\n      0xffffffffffffffff\n        /* \"#utility.yul\":4106:4117   */\n      dup2\n        /* \"#utility.yul\":4103:4138   */\n      gt\n        /* \"#utility.yul\":4100:4222   */\n      iszero\n      tag_225\n      jumpi\n        /* \"#utility.yul\":4141:4220   */\n      tag_226\n      tag_123\n      jump\t// in\n    tag_226:\n        /* \"#utility.yul\":4100:4222   */\n    tag_225:\n        /* \"#utility.yul\":4265:4276   */\n      dup1\n        /* \"#utility.yul\":4257:4263   */\n      dup7\n        /* \"#utility.yul\":4253:4277   */\n      add\n        /* \"#utility.yul\":4303:4350   */\n      tag_227\n        /* \"#utility.yul\":4346:4349   */\n      dup10\n        /* \"#utility.yul\":4334:4344   */\n      dup3\n        /* \"#utility.yul\":4303:4350   */\n      tag_134\n      jump\t// in\n    tag_227:\n        /* \"#utility.yul\":4298:4301   */\n      dup6\n        /* \"#utility.yul\":4291:4351   */\n      mstore\n        /* \"#utility.yul\":4380:4384   */\n      0x20\n        /* \"#utility.yul\":4375:4378   */\n      dup6\n        /* \"#utility.yul\":4371:4385   */\n      add\n        /* \"#utility.yul\":4364:4385   */\n      swap5\n      pop\n        /* \"#utility.yul\":4036:4395   */\n      pop\n      pop\n        /* \"#utility.yul\":4020:4024   */\n      0x20\n        /* \"#utility.yul\":4015:4018   */\n      dup2\n        /* \"#utility.yul\":4011:4025   */\n      add\n        /* \"#utility.yul\":4004:4025   */\n      swap1\n      pop\n        /* \"#utility.yul\":3960:4395   */\n      jump(tag_222)\n    tag_224:\n        /* \"#utility.yul\":3964:3985   */\n      pop\n        /* \"#utility.yul\":3568:4401   */\n      pop\n      pop\n        /* \"#utility.yul\":3456:4401   */\n      swap4\n      swap3\n      pop\n      pop\n      pop\n      jump\t// out\n        /* \"#utility.yul\":4423:4813   */\n    tag_136:\n        /* \"#utility.yul\":4504:4509   */\n      0x00\n        /* \"#utility.yul\":4553:4556   */\n      dup3\n        /* \"#utility.yul\":4546:4550   */\n      0x1f\n        /* \"#utility.yul\":4538:4544   */\n      dup4\n        /* \"#utility.yul\":4534:4551   */\n      add\n        /* \"#utility.yul\":4530:4557   */\n      slt\n        /* \"#utility.yul\":4520:4642   */\n      tag_229\n      jumpi\n        /* \"#utility.yul\":4561:4640   */\n      tag_230\n      tag_123\n      jump\t// in\n    tag_230:\n        /* \"#utility.yul\":4520:4642   */\n    tag_229:\n        /* \"#utility.yul\":4678:4684   */\n      dup2\n        /* \"#utility.yul\":4665:4685   */\n      calldataload\n        /* \"#utility.yul\":4703:4807   */\n      tag_231\n        /* \"#utility.yul\":4803:4806   */\n      dup5\n        /* \"#utility.yul\":4795:4801   */\n      dup3\n        /* \"#utility.yul\":4788:4792   */\n      0x20\n        /* \"#utility.yul\":4780:4786   */\n      dup7\n        /* \"#utility.yul\":4776:4793   */\n      add\n        /* \"#utility.yul\":4703:4807   */\n      tag_135\n      jump\t// in\n    tag_231:\n        /* \"#utility.yul\":4694:4807   */\n      swap2\n      pop\n        /* \"#utility.yul\":4510:4813   */\n      pop\n        /* \"#utility.yul\":4423:4813   */\n      swap3\n      swap2\n      pop\n      pop\n      jump\t// out\n        /* \"#utility.yul\":4819:5378   */\n    tag_14:\n        /* \"#utility.yul\":4913:4919   */\n      0x00\n        /* \"#utility.yul\":4962:4964   */\n      0x20\n        /* \"#utility.yul\":4950:4959   */\n      dup3\n        /* \"#utility.yul\":4941:4948   */\n      dup5\n        /* \"#utility.yul\":4937:4960   */\n      sub\n        /* \"#utility.yul\":4933:4965   */\n      slt\n        /* \"#utility.yul\":4930:5049   */\n      iszero\n      tag_233\n      jumpi\n        /* \"#utility.yul\":4968:5047   */\n      tag_234\n      tag_121\n      jump\t// in\n    tag_234:\n        /* \"#utility.yul\":4930:5049   */\n    tag_233:\n        /* \"#utility.yul\":5116:5117   */\n      0x00\n        /* \"#utility.yul\":5105:5114   */\n      dup3\n        /* \"#utility.yul\":5101:5118   */\n      add\n        /* \"#utility.yul\":5088:5119   */\n      calldataload\n        /* \"#utility.yul\":5146:5164   */\n      0xffffffffffffffff\n        /* \"#utility.yul\":5138:5144   */\n      dup2\n        /* \"#utility.yul\":5135:5165   */\n      gt\n        /* \"#utility.yul\":5132:5249   */\n      iszero\n      tag_235\n      jumpi\n        /* \"#utility.yul\":5168:5247   */\n      tag_236\n      tag_122\n      jump\t// in\n    tag_236:\n        /* \"#utility.yul\":5132:5249   */\n    tag_235:\n        /* \"#utility.yul\":5273:5361   */\n      tag_237\n        /* \"#utility.yul\":5353:5360   */\n      dup5\n        /* \"#utility.yul\":5344:5350   */\n      dup3\n        /* \"#utility.yul\":5333:5342   */\n      dup6\n        /* \"#utility.yul\":5329:5351   */\n      add\n        /* \"#utility.yul\":5273:5361   */\n      tag_136\n      jump\t// in\n    tag_237:\n        /* \"#utility.yul\":5263:5361   */\n      swap2\n      pop\n        /* \"#utility.yul\":5059:5371   */\n      pop\n        /* \"#utility.yul\":4819:5378   */\n      swap3\n      swap2\n      pop\n      pop\n      jump\t// out\n        /* \"#utility.yul\":5384:5506   */\n    tag_137:\n        /* \"#utility.yul\":5457:5481   */\n      tag_239\n        /* \"#utility.yul\":5475:5480   */\n      dup2\n        /* \"#utility.yul\":5457:5481   */\n      tag_118\n      jump\t// in\n    tag_239:\n        /* \"#utility.yul\":5450:5455   */\n      dup2\n        /* \"#utility.yul\":5447:5482   */\n      eq\n        /* \"#utility.yul\":5437:5500   */\n      tag_240\n      jumpi\n        /* \"#utility.yul\":5496:5497   */\n      0x00\n        /* \"#utility.yul\":5493:5494   */\n      dup1\n        /* \"#utility.yul\":5486:5498   */\n      revert\n        /* \"#utility.yul\":5437:5500   */\n    tag_240:\n        /* \"#utility.yul\":5384:5506   */\n      pop\n      jump\t// out\n        /* \"#utility.yul\":5512:5651   */\n    tag_138:\n        /* \"#utility.yul\":5558:5563   */\n      0x00\n        /* \"#utility.yul\":5596:5602   */\n      dup2\n        /* \"#utility.yul\":5583:5603   */\n      calldataload\n        /* \"#utility.yul\":5574:5603   */\n      swap1\n      pop\n        /* \"#utility.yul\":5612:5645   */\n      tag_242\n        /* \"#utility.yul\":5639:5644   */\n      dup2\n        /* \"#utility.yul\":5612:5645   */\n      tag_137\n      jump\t// in\n    tag_242:\n        /* \"#utility.yul\":5512:5651   */\n      swap3\n      swap2\n      pop\n      pop\n      jump\t// out\n        /* \"#utility.yul\":5657:5986   */\n    tag_18:\n        /* \"#utility.yul\":5716:5722   */\n      0x00\n        /* \"#utility.yul\":5765:5767   */\n      0x20\n        /* \"#utility.yul\":5753:5762   */\n      dup3\n        /* \"#utility.yul\":5744:5751   */\n      dup5\n        /* \"#utility.yul\":5740:5763   */\n      sub\n        /* \"#utility.yul\":5736:5768   */\n      slt\n        /* \"#utility.yul\":5733:5852   */\n      iszero\n      tag_244\n      jumpi\n        /* \"#utility.yul\":5771:5850   */\n      tag_245\n      tag_121\n      jump\t// in\n    tag_245:\n        /* \"#utility.yul\":5733:5852   */\n    tag_244:\n        /* \"#utility.yul\":5891:5892   */\n      0x00\n        /* \"#utility.yul\":5916:5969   */\n      tag_246\n        /* \"#utility.yul\":5961:5968   */\n      dup5\n        /* \"#utility.yul\":5952:5958   */\n      dup3\n        /* \"#utility.yul\":5941:5950   */\n      dup6\n        /* \"#utility.yul\":5937:5959   */\n      add\n        /* \"#utility.yul\":5916:5969   */\n      tag_138\n      jump\t// in\n    tag_246:\n        /* \"#utility.yul\":5906:5969   */\n      swap2\n      pop\n        /* \"#utility.yul\":5862:5979   */\n      pop\n        /* \"#utility.yul\":5657:5986   */\n      swap3\n      swap2\n      pop\n      pop\n      jump\t// out\n        /* \"#utility.yul\":5992:6069   */\n    tag_139:\n        /* \"#utility.yul\":6029:6036   */\n      0x00\n        /* \"#utility.yul\":6058:6063   */\n      dup2\n        /* \"#utility.yul\":6047:6063   */\n      swap1\n      pop\n        /* \"#utility.yul\":5992:6069   */\n      swap2\n      swap1\n      pop\n      jump\t// out\n        /* \"#utility.yul\":6075:6193   */\n    tag_140:\n        /* \"#utility.yul\":6162:6186   */\n      tag_249\n        /* \"#utility.yul\":6180:6185   */\n      dup2\n        /* \"#utility.yul\":6162:6186   */\n      tag_139\n      jump\t// in\n    tag_249:\n        /* \"#utility.yul\":6157:6160   */\n      dup3\n        /* \"#utility.yul\":6150:6187   */\n      mstore\n        /* \"#utility.yul\":6075:6193   */\n      pop\n      pop\n      jump\t// out\n        /* \"#utility.yul\":6199:6863   */\n    tag_21:\n        /* \"#utility.yul\":6404:6408   */\n      0x00\n        /* \"#utility.yul\":6442:6445   */\n      0xa0\n        /* \"#utility.yul\":6431:6440   */\n      dup3\n        /* \"#utility.yul\":6427:6446   */\n      add\n        /* \"#utility.yul\":6419:6446   */\n      swap1\n      pop\n        /* \"#utility.yul\":6456:6527   */\n      tag_251\n        /* \"#utility.yul\":6524:6525   */\n      0x00\n        /* \"#utility.yul\":6513:6522   */\n      dup4\n        /* \"#utility.yul\":6509:6526   */\n      add\n        /* \"#utility.yul\":6500:6506   */\n      dup9\n        /* \"#utility.yul\":6456:6527   */\n      tag_119\n      jump\t// in\n    tag_251:\n        /* \"#utility.yul\":6537:6609   */\n      tag_252\n        /* \"#utility.yul\":6605:6607   */\n      0x20\n        /* \"#utility.yul\":6594:6603   */\n      dup4\n        /* \"#utility.yul\":6590:6608   */\n      add\n        /* \"#utility.yul\":6581:6587   */\n      dup8\n        /* \"#utility.yul\":6537:6609   */\n      tag_119\n      jump\t// in\n    tag_252:\n        /* \"#utility.yul\":6619:6691   */\n      tag_253\n        /* \"#utility.yul\":6687:6689   */\n      0x40\n        /* \"#utility.yul\":6676:6685   */\n      dup4\n        /* \"#utility.yul\":6672:6690   */\n      add\n        /* \"#utility.yul\":6663:6669   */\n      dup7\n        /* \"#utility.yul\":6619:6691   */\n      tag_140\n      jump\t// in\n    tag_253:\n        /* \"#utility.yul\":6701:6773   */\n      tag_254\n        /* \"#utility.yul\":6769:6771   */\n      0x60\n        /* \"#utility.yul\":6758:6767   */\n      dup4\n        /* \"#utility.yul\":6754:6772   */\n      add\n        /* \"#utility.yul\":6745:6751   */\n      dup6\n        /* \"#utility.yul\":6701:6773   */\n      tag_140\n      jump\t// in\n    tag_254:\n        /* \"#utility.yul\":6783:6856   */\n      tag_255\n        /* \"#utility.yul\":6851:6854   */\n      0x80\n        /* \"#utility.yul\":6840:6849   */\n      dup4\n        /* \"#utility.yul\":6836:6855   */\n      add\n        /* \"#utility.yul\":6827:6833   */\n      dup5\n        /* \"#utility.yul\":6783:6856   */\n      tag_119\n      jump\t// in\n    tag_255:\n        /* \"#utility.yul\":6199:6863   */\n      swap7\n      swap6\n      pop\n      pop\n      pop\n      pop\n      pop\n      pop\n      jump\t// out\n        /* \"#utility.yul\":6869:6977   */\n    tag_141:\n        /* \"#utility.yul\":6946:6970   */\n      tag_257\n        /* \"#utility.yul\":6964:6969   */\n      dup2\n        /* \"#utility.yul\":6946:6970   */\n      tag_118\n      jump\t// in\n    tag_257:\n        /* \"#utility.yul\":6941:6944   */\n      dup3\n        /* \"#utility.yul\":6934:6971   */\n      mstore\n        /* \"#utility.yul\":6869:6977   */\n      pop\n      pop\n      jump\t// out\n        /* \"#utility.yul\":6983:7107   */\n    tag_142:\n        /* \"#utility.yul\":7060:7066   */\n      0x00\n        /* \"#utility.yul\":7094:7099   */\n      dup2\n        /* \"#utility.yul\":7088:7100   */\n      mload\n        /* \"#utility.yul\":7078:7100   */\n      swap1\n      pop\n        /* \"#utility.yul\":6983:7107   */\n      swap2\n      swap1\n      pop\n      jump\t// out\n        /* \"#utility.yul\":7113:7297   */\n    tag_143:\n        /* \"#utility.yul\":7212:7223   */\n      0x00\n        /* \"#utility.yul\":7246:7252   */\n      dup3\n        /* \"#utility.yul\":7241:7244   */\n      dup3\n        /* \"#utility.yul\":7234:7253   */\n      mstore\n        /* \"#utility.yul\":7286:7290   */\n      0x20\n        /* \"#utility.yul\":7281:7284   */\n      dup3\n        /* \"#utility.yul\":7277:7291   */\n      add\n        /* \"#utility.yul\":7262:7291   */\n      swap1\n      pop\n        /* \"#utility.yul\":7113:7297   */\n      swap3\n      swap2\n      pop\n      pop\n      jump\t// out\n        /* \"#utility.yul\":7303:7445   */\n    tag_144:\n        /* \"#utility.yul\":7380:7384   */\n      0x00\n        /* \"#utility.yul\":7403:7406   */\n      dup2\n        /* \"#utility.yul\":7395:7406   */\n      swap1\n      pop\n        /* \"#utility.yul\":7433:7437   */\n      0x20\n        /* \"#utility.yul\":7428:7431   */\n      dup3\n        /* \"#utility.yul\":7424:7438   */\n      add\n        /* \"#utility.yul\":7416:7438   */\n      swap1\n      pop\n        /* \"#utility.yul\":7303:7445   */\n      swap2\n      swap1\n      pop\n      jump\t// out\n        /* \"#utility.yul\":7451:7550   */\n    tag_145:\n        /* \"#utility.yul\":7503:7509   */\n      0x00\n        /* \"#utility.yul\":7537:7542   */\n      dup2\n        /* \"#utility.yul\":7531:7543   */\n      mload\n        /* \"#utility.yul\":7521:7543   */\n      swap1\n      pop\n        /* \"#utility.yul\":7451:7550   */\n      swap2\n      swap1\n      pop\n      jump\t// out\n        /* \"#utility.yul\":7556:7715   */\n    tag_146:\n        /* \"#utility.yul\":7630:7641   */\n      0x00\n        /* \"#utility.yul\":7664:7670   */\n      dup3\n        /* \"#utility.yul\":7659:7662   */\n      dup3\n        /* \"#utility.yul\":7652:7671   */\n      mstore\n        /* \"#utility.yul\":7704:7708   */\n      0x20\n        /* \"#utility.yul\":7699:7702   */\n      dup3\n        /* \"#utility.yul\":7695:7709   */\n      add\n        /* \"#utility.yul\":7680:7709   */\n      swap1\n      pop\n        /* \"#utility.yul\":7556:7715   */\n      swap3\n      swap2\n      pop\n      pop\n      jump\t// out\n        /* \"#utility.yul\":7721:7860   */\n    tag_147:\n        /* \"#utility.yul\":7810:7816   */\n      dup3\n        /* \"#utility.yul\":7805:7808   */\n      dup2\n        /* \"#utility.yul\":7800:7803   */\n      dup4\n        /* \"#utility.yul\":7794:7817   */\n      mcopy\n        /* \"#utility.yul\":7851:7852   */\n      0x00\n        /* \"#utility.yul\":7842:7848   */\n      dup4\n        /* \"#utility.yul\":7837:7840   */\n      dup4\n        /* \"#utility.yul\":7833:7849   */\n      add\n        /* \"#utility.yul\":7826:7853   */\n      mstore\n        /* \"#utility.yul\":7721:7860   */\n      pop\n      pop\n      pop\n      jump\t// out\n        /* \"#utility.yul\":7866:8223   */\n    tag_148:\n        /* \"#utility.yul\":7944:7947   */\n      0x00\n        /* \"#utility.yul\":7972:8011   */\n      tag_265\n        /* \"#utility.yul\":8005:8010   */\n      dup3\n        /* \"#utility.yul\":7972:8011   */\n      tag_145\n      jump\t// in\n    tag_265:\n        /* \"#utility.yul\":8027:8088   */\n      tag_266\n        /* \"#utility.yul\":8081:8087   */\n      dup2\n        /* \"#utility.yul\":8076:8079   */\n      dup6\n        /* \"#utility.yul\":8027:8088   */\n      tag_146\n      jump\t// in\n    tag_266:\n        /* \"#utility.yul\":8020:8088   */\n      swap4\n      pop\n        /* \"#utility.yul\":8097:8162   */\n      tag_267\n        /* \"#utility.yul\":8155:8161   */\n      dup2\n        /* \"#utility.yul\":8150:8153   */\n      dup6\n        /* \"#utility.yul\":8143:8147   */\n      0x20\n        /* \"#utility.yul\":8136:8141   */\n      dup7\n        /* \"#utility.yul\":8132:8148   */\n      add\n        /* \"#utility.yul\":8097:8162   */\n      tag_147\n      jump\t// in\n    tag_267:\n        /* \"#utility.yul\":8187:8216   */\n      tag_268\n        /* \"#utility.yul\":8209:8215   */\n      dup2\n        /* \"#utility.yul\":8187:8216   */\n      tag_124\n      jump\t// in\n    tag_268:\n        /* \"#utility.yul\":8182:8185   */\n      dup5\n        /* \"#utility.yul\":8178:8217   */\n      add\n        /* \"#utility.yul\":8171:8217   */\n      swap2\n      pop\n        /* \"#utility.yul\":7948:8223   */\n      pop\n        /* \"#utility.yul\":7866:8223   */\n      swap3\n      swap2\n      pop\n      pop\n      jump\t// out\n        /* \"#utility.yul\":8229:8425   */\n    tag_149:\n        /* \"#utility.yul\":8318:8328   */\n      0x00\n        /* \"#utility.yul\":8353:8419   */\n      tag_270\n        /* \"#utility.yul\":8415:8418   */\n      dup4\n        /* \"#utility.yul\":8407:8413   */\n      dup4\n        /* \"#utility.yul\":8353:8419   */\n      tag_148\n      jump\t// in\n    tag_270:\n        /* \"#utility.yul\":8339:8419   */\n      swap1\n      pop\n        /* \"#utility.yul\":8229:8425   */\n      swap3\n      swap2\n      pop\n      pop\n      jump\t// out\n        /* \"#utility.yul\":8431:8554   */\n    tag_150:\n        /* \"#utility.yul\":8511:8515   */\n      0x00\n        /* \"#utility.yul\":8543:8547   */\n      0x20\n        /* \"#utility.yul\":8538:8541   */\n      dup3\n        /* \"#utility.yul\":8534:8548   */\n      add\n        /* \"#utility.yul\":8526:8548   */\n      swap1\n      pop\n        /* \"#utility.yul\":8431:8554   */\n      swap2\n      swap1\n      pop\n      jump\t// out\n        /* \"#utility.yul\":8588:9559   */\n    tag_151:\n        /* \"#utility.yul\":8717:8720   */\n      0x00\n        /* \"#utility.yul\":8746:8810   */\n      tag_273\n        /* \"#utility.yul\":8804:8809   */\n      dup3\n        /* \"#utility.yul\":8746:8810   */\n      tag_142\n      jump\t// in\n    tag_273:\n        /* \"#utility.yul\":8826:8912   */\n      tag_274\n        /* \"#utility.yul\":8905:8911   */\n      dup2\n        /* \"#utility.yul\":8900:8903   */\n      dup6\n        /* \"#utility.yul\":8826:8912   */\n      tag_143\n      jump\t// in\n    tag_274:\n        /* \"#utility.yul\":8819:8912   */\n      swap4\n      pop\n        /* \"#utility.yul\":8938:8941   */\n      dup4\n        /* \"#utility.yul\":8983:8987   */\n      0x20\n        /* \"#utility.yul\":8975:8981   */\n      dup3\n        /* \"#utility.yul\":8971:8988   */\n      mul\n        /* \"#utility.yul\":8966:8969   */\n      dup6\n        /* \"#utility.yul\":8962:8989   */\n      add\n        /* \"#utility.yul\":9013:9079   */\n      tag_275\n        /* \"#utility.yul\":9073:9078   */\n      dup6\n        /* \"#utility.yul\":9013:9079   */\n      tag_144\n      jump\t// in\n    tag_275:\n        /* \"#utility.yul\":9102:9109   */\n      dup1\n        /* \"#utility.yul\":9133:9134   */\n      0x00\n        /* \"#utility.yul\":9118:9514   */\n    tag_276:\n        /* \"#utility.yul\":9143:9149   */\n      dup6\n        /* \"#utility.yul\":9140:9141   */\n      dup2\n        /* \"#utility.yul\":9137:9150   */\n      lt\n        /* \"#utility.yul\":9118:9514   */\n      iszero\n      tag_278\n      jumpi\n        /* \"#utility.yul\":9214:9223   */\n      dup5\n        /* \"#utility.yul\":9208:9212   */\n      dup5\n        /* \"#utility.yul\":9204:9224   */\n      sub\n        /* \"#utility.yul\":9199:9202   */\n      dup10\n        /* \"#utility.yul\":9192:9225   */\n      mstore\n        /* \"#utility.yul\":9265:9271   */\n      dup2\n        /* \"#utility.yul\":9259:9272   */\n      mload\n        /* \"#utility.yul\":9293:9377   */\n      tag_279\n        /* \"#utility.yul\":9372:9376   */\n      dup6\n        /* \"#utility.yul\":9357:9370   */\n      dup3\n        /* \"#utility.yul\":9293:9377   */\n      tag_149\n      jump\t// in\n    tag_279:\n        /* \"#utility.yul\":9285:9377   */\n      swap5\n      pop\n        /* \"#utility.yul\":9400:9470   */\n      tag_280\n        /* \"#utility.yul\":9463:9469   */\n      dup4\n        /* \"#utility.yul\":9400:9470   */\n      tag_150\n      jump\t// in\n    tag_280:\n        /* \"#utility.yul\":9390:9470   */\n      swap3\n      pop\n        /* \"#utility.yul\":9499:9503   */\n      0x20\n        /* \"#utility.yul\":9494:9497   */\n      dup11\n        /* \"#utility.yul\":9490:9504   */\n      add\n        /* \"#utility.yul\":9483:9504   */\n      swap10\n      pop\n        /* \"#utility.yul\":9178:9514   */\n      pop\n        /* \"#utility.yul\":9165:9166   */\n      0x01\n        /* \"#utility.yul\":9162:9163   */\n      dup2\n        /* \"#utility.yul\":9158:9167   */\n      add\n        /* \"#utility.yul\":9153:9167   */\n      swap1\n      pop\n        /* \"#utility.yul\":9118:9514   */\n      jump(tag_276)\n    tag_278:\n        /* \"#utility.yul\":9122:9136   */\n      pop\n        /* \"#utility.yul\":9530:9534   */\n      dup3\n        /* \"#utility.yul\":9523:9534   */\n      swap8\n      pop\n        /* \"#utility.yul\":9550:9553   */\n      dup8\n        /* \"#utility.yul\":9543:9553   */\n      swap6\n      pop\n        /* \"#utility.yul\":8722:9559   */\n      pop\n      pop\n      pop\n      pop\n      pop\n        /* \"#utility.yul\":8588:9559   */\n      swap3\n      swap2\n      pop\n      pop\n      jump\t// out\n        /* \"#utility.yul\":9565:9673   */\n    tag_152:\n        /* \"#utility.yul\":9642:9666   */\n      tag_282\n        /* \"#utility.yul\":9660:9665   */\n      dup2\n        /* \"#utility.yul\":9642:9666   */\n      tag_139\n      jump\t// in\n    tag_282:\n        /* \"#utility.yul\":9637:9640   */\n      dup3\n        /* \"#utility.yul\":9630:9667   */\n      mstore\n        /* \"#utility.yul\":9565:9673   */\n      pop\n      pop\n      jump\t// out\n        /* \"#utility.yul\":9737:11104   */\n    tag_153:\n        /* \"#utility.yul\":9848:9851   */\n      0x00\n        /* \"#utility.yul\":9884:9888   */\n      0xc0\n        /* \"#utility.yul\":9879:9882   */\n      dup4\n        /* \"#utility.yul\":9875:9889   */\n      add\n        /* \"#utility.yul\":9972:9976   */\n      0x00\n        /* \"#utility.yul\":9965:9970   */\n      dup4\n        /* \"#utility.yul\":9961:9977   */\n      add\n        /* \"#utility.yul\":9955:9978   */\n      mload\n        /* \"#utility.yul\":9991:10054   */\n      tag_284\n        /* \"#utility.yul\":10048:10052   */\n      0x00\n        /* \"#utility.yul\":10043:10046   */\n      dup7\n        /* \"#utility.yul\":10039:10053   */\n      add\n        /* \"#utility.yul\":10025:10037   */\n      dup3\n        /* \"#utility.yul\":9991:10054   */\n      tag_141\n      jump\t// in\n    tag_284:\n        /* \"#utility.yul\":9899:10064   */\n      pop\n        /* \"#utility.yul\":10151:10155   */\n      0x20\n        /* \"#utility.yul\":10144:10149   */\n      dup4\n        /* \"#utility.yul\":10140:10156   */\n      add\n        /* \"#utility.yul\":10134:10157   */\n      mload\n        /* \"#utility.yul\":10170:10233   */\n      tag_285\n        /* \"#utility.yul\":10227:10231   */\n      0x20\n        /* \"#utility.yul\":10222:10225   */\n      dup7\n        /* \"#utility.yul\":10218:10232   */\n      add\n        /* \"#utility.yul\":10204:10216   */\n      dup3\n        /* \"#utility.yul\":10170:10233   */\n      tag_141\n      jump\t// in\n    tag_285:\n        /* \"#utility.yul\":10074:10243   */\n      pop\n        /* \"#utility.yul\":10333:10337   */\n      0x40\n        /* \"#utility.yul\":10326:10331   */\n      dup4\n        /* \"#utility.yul\":10322:10338   */\n      add\n        /* \"#utility.yul\":10316:10339   */\n      mload\n        /* \"#utility.yul\":10386:10389   */\n      dup5\n        /* \"#utility.yul\":10380:10384   */\n      dup3\n        /* \"#utility.yul\":10376:10390   */\n      sub\n        /* \"#utility.yul\":10369:10373   */\n      0x40\n        /* \"#utility.yul\":10364:10367   */\n      dup7\n        /* \"#utility.yul\":10360:10374   */\n      add\n        /* \"#utility.yul\":10353:10391   */\n      mstore\n        /* \"#utility.yul\":10412:10535   */\n      tag_286\n        /* \"#utility.yul\":10530:10534   */\n      dup3\n        /* \"#utility.yul\":10516:10528   */\n      dup3\n        /* \"#utility.yul\":10412:10535   */\n      tag_151\n      jump\t// in\n    tag_286:\n        /* \"#utility.yul\":10404:10535   */\n      swap2\n      pop\n        /* \"#utility.yul\":10253:10546   */\n      pop\n        /* \"#utility.yul\":10636:10640   */\n      0x60\n        /* \"#utility.yul\":10629:10634   */\n      dup4\n        /* \"#utility.yul\":10625:10641   */\n      add\n        /* \"#utility.yul\":10619:10642   */\n      mload\n        /* \"#utility.yul\":10655:10718   */\n      tag_287\n        /* \"#utility.yul\":10712:10716   */\n      0x60\n        /* \"#utility.yul\":10707:10710   */\n      dup7\n        /* \"#utility.yul\":10703:10717   */\n      add\n        /* \"#utility.yul\":10689:10701   */\n      dup3\n        /* \"#utility.yul\":10655:10718   */\n      tag_152\n      jump\t// in\n    tag_287:\n        /* \"#utility.yul\":10556:10728   */\n      pop\n        /* \"#utility.yul\":10810:10814   */\n      0x80\n        /* \"#utility.yul\":10803:10808   */\n      dup4\n        /* \"#utility.yul\":10799:10815   */\n      add\n        /* \"#utility.yul\":10793:10816   */\n      mload\n        /* \"#utility.yul\":10829:10892   */\n      tag_288\n        /* \"#utility.yul\":10886:10890   */\n      0x80\n        /* \"#utility.yul\":10881:10884   */\n      dup7\n        /* \"#utility.yul\":10877:10891   */\n      add\n        /* \"#utility.yul\":10863:10875   */\n      dup3\n        /* \"#utility.yul\":10829:10892   */\n      tag_152\n      jump\t// in\n    tag_288:\n        /* \"#utility.yul\":10738:10902   */\n      pop\n        /* \"#utility.yul\":10985:10989   */\n      0xa0\n        /* \"#utility.yul\":10978:10983   */\n      dup4\n        /* \"#utility.yul\":10974:10990   */\n      add\n        /* \"#utility.yul\":10968:10991   */\n      mload\n        /* \"#utility.yul\":11004:11067   */\n      tag_289\n        /* \"#utility.yul\":11061:11065   */\n      0xa0\n        /* \"#utility.yul\":11056:11059   */\n      dup7\n        /* \"#utility.yul\":11052:11066   */\n      add\n        /* \"#utility.yul\":11038:11050   */\n      dup3\n        /* \"#utility.yul\":11004:11067   */\n      tag_141\n      jump\t// in\n    tag_289:\n        /* \"#utility.yul\":10912:11077   */\n      pop\n        /* \"#utility.yul\":11094:11098   */\n      dup1\n        /* \"#utility.yul\":11087:11098   */\n      swap2\n      pop\n        /* \"#utility.yul\":9853:11104   */\n      pop\n        /* \"#utility.yul\":9737:11104   */\n      swap3\n      swap2\n      pop\n      pop\n      jump\t// out\n        /* \"#utility.yul\":11110:11467   */\n    tag_25:\n        /* \"#utility.yul\":11245:11249   */\n      0x00\n        /* \"#utility.yul\":11283:11285   */\n      0x20\n        /* \"#utility.yul\":11272:11281   */\n      dup3\n        /* \"#utility.yul\":11268:11286   */\n      add\n        /* \"#utility.yul\":11260:11286   */\n      swap1\n      pop\n        /* \"#utility.yul\":11332:11341   */\n      dup2\n        /* \"#utility.yul\":11326:11330   */\n      dup2\n        /* \"#utility.yul\":11322:11342   */\n      sub\n        /* \"#utility.yul\":11318:11319   */\n      0x00\n        /* \"#utility.yul\":11307:11316   */\n      dup4\n        /* \"#utility.yul\":11303:11320   */\n      add\n        /* \"#utility.yul\":11296:11343   */\n      mstore\n        /* \"#utility.yul\":11360:11460   */\n      tag_291\n        /* \"#utility.yul\":11455:11459   */\n      dup2\n        /* \"#utility.yul\":11446:11452   */\n      dup5\n        /* \"#utility.yul\":11360:11460   */\n      tag_153\n      jump\t// in\n    tag_291:\n        /* \"#utility.yul\":11352:11460   */\n      swap1\n      pop\n        /* \"#utility.yul\":11110:11467   */\n      swap3\n      swap2\n      pop\n      pop\n      jump\t// out\n        /* \"#utility.yul\":11473:11563   */\n    tag_154:\n        /* \"#utility.yul\":11507:11514   */\n      0x00\n        /* \"#utility.yul\":11550:11555   */\n      dup2\n        /* \"#utility.yul\":11543:11556   */\n      iszero\n        /* \"#utility.yul\":11536:11557   */\n      iszero\n        /* \"#utility.yul\":11525:11557   */\n      swap1\n      pop\n        /* \"#utility.yul\":11473:11563   */\n      swap2\n      swap1\n      pop\n      jump\t// out\n        /* \"#utility.yul\":11569:11678   */\n    tag_155:\n        /* \"#utility.yul\":11650:11671   */\n      tag_294\n        /* \"#utility.yul\":11665:11670   */\n      dup2\n        /* \"#utility.yul\":11650:11671   */\n      tag_154\n      jump\t// in\n    tag_294:\n        /* \"#utility.yul\":11645:11648   */\n      dup3\n        /* \"#utility.yul\":11638:11672   */\n      mstore\n        /* \"#utility.yul\":11569:11678   */\n      pop\n      pop\n      jump\t// out\n        /* \"#utility.yul\":11684:11894   */\n    tag_29:\n        /* \"#utility.yul\":11771:11775   */\n      0x00\n        /* \"#utility.yul\":11809:11811   */\n      0x20\n        /* \"#utility.yul\":11798:11807   */\n      dup3\n        /* \"#utility.yul\":11794:11812   */\n      add\n        /* \"#utility.yul\":11786:11812   */\n      swap1\n      pop\n        /* \"#utility.yul\":11822:11887   */\n      tag_296\n        /* \"#utility.yul\":11884:11885   */\n      0x00\n        /* \"#utility.yul\":11873:11882   */\n      dup4\n        /* \"#utility.yul\":11869:11886   */\n      add\n        /* \"#utility.yul\":11860:11866   */\n      dup5\n        /* \"#utility.yul\":11822:11887   */\n      tag_155\n      jump\t// in\n    tag_296:\n        /* \"#utility.yul\":11684:11894   */\n      swap3\n      swap2\n      pop\n      pop\n      jump\t// out\n        /* \"#utility.yul\":11900:12080   */\n    tag_156:\n        /* \"#utility.yul\":11948:12025   */\n      0x4e487b7100000000000000000000000000000000000000000000000000000000\n        /* \"#utility.yul\":11945:11946   */\n      0x00\n        /* \"#utility.yul\":11938:12026   */\n      mstore\n        /* \"#utility.yul\":12045:12049   */\n      0x11\n        /* \"#utility.yul\":12042:12043   */\n      0x04\n        /* \"#utility.yul\":12035:12050   */\n      mstore\n        /* \"#utility.yul\":12069:12073   */\n      0x24\n        /* \"#utility.yul\":12066:12067   */\n      0x00\n        /* \"#utility.yul\":12059:12074   */\n      revert\n        /* \"#utility.yul\":12086:12277   */\n    tag_33:\n        /* \"#utility.yul\":12126:12129   */\n      0x00\n        /* \"#utility.yul\":12145:12165   */\n      tag_299\n        /* \"#utility.yul\":12163:12164   */\n      dup3\n        /* \"#utility.yul\":12145:12165   */\n      tag_118\n      jump\t// in\n    tag_299:\n        /* \"#utility.yul\":12140:12165   */\n      swap2\n      pop\n        /* \"#utility.yul\":12179:12199   */\n      tag_300\n        /* \"#utility.yul\":12197:12198   */\n      dup4\n        /* \"#utility.yul\":12179:12199   */\n      tag_118\n      jump\t// in\n    tag_300:\n        /* \"#utility.yul\":12174:12199   */\n      swap3\n      pop\n        /* \"#utility.yul\":12222:12223   */\n      dup3\n        /* \"#utility.yul\":12219:12220   */\n      dup3\n        /* \"#utility.yul\":12215:12224   */\n      add\n        /* \"#utility.yul\":12208:12224   */\n      swap1\n      pop\n        /* \"#utility.yul\":12243:12246   */\n      dup1\n        /* \"#utility.yul\":12240:12241   */\n      dup3\n        /* \"#utility.yul\":12237:12247   */\n      gt\n        /* \"#utility.yul\":12234:12270   */\n      iszero\n      tag_301\n      jumpi\n        /* \"#utility.yul\":12250:12268   */\n      tag_302\n      tag_156\n      jump\t// in\n    tag_302:\n        /* \"#utility.yul\":12234:12270   */\n    tag_301:\n        /* \"#utility.yul\":12086:12277   */\n      swap3\n      swap2\n      pop\n      pop\n      jump\t// out\n        /* \"#utility.yul\":12283:12477   */\n    tag_39:\n        /* \"#utility.yul\":12323:12327   */\n      0x00\n        /* \"#utility.yul\":12343:12363   */\n      tag_304\n        /* \"#utility.yul\":12361:12362   */\n      dup3\n        /* \"#utility.yul\":12343:12363   */\n      tag_118\n      jump\t// in\n    tag_304:\n        /* \"#utility.yul\":12338:12363   */\n      swap2\n      pop\n        /* \"#utility.yul\":12377:12397   */\n      tag_305\n        /* \"#utility.yul\":12395:12396   */\n      dup4\n        /* \"#utility.yul\":12377:12397   */\n      tag_118\n      jump\t// in\n    tag_305:\n        /* \"#utility.yul\":12372:12397   */\n      swap3\n      pop\n        /* \"#utility.yul\":12421:12422   */\n      dup3\n        /* \"#utility.yul\":12418:12419   */\n      dup3\n        /* \"#utility.yul\":12414:12423   */\n      sub\n        /* \"#utility.yul\":12406:12423   */\n      swap1\n      pop\n        /* \"#utility.yul\":12445:12446   */\n      dup2\n        /* \"#utility.yul\":12439:12443   */\n      dup2\n        /* \"#utility.yul\":12436:12447   */\n      gt\n        /* \"#utility.yul\":12433:12470   */\n      iszero\n      tag_306\n      jumpi\n        /* \"#utility.yul\":12450:12468   */\n      tag_307\n      tag_156\n      jump\t// in\n    tag_307:\n        /* \"#utility.yul\":12433:12470   */\n    tag_306:\n        /* \"#utility.yul\":12283:12477   */\n      swap3\n      swap2\n      pop\n      pop\n      jump\t// out\n        /* \"#utility.yul\":12483:12585   */\n    tag_157:\n        /* \"#utility.yul\":12525:12533   */\n      0x00\n        /* \"#utility.yul\":12572:12577   */\n      dup2\n        /* \"#utility.yul\":12569:12570   */\n      0x01\n        /* \"#utility.yul\":12565:12578   */\n      shr\n        /* \"#utility.yul\":12544:12578   */\n      swap1\n      pop\n        /* \"#utility.yul\":12483:12585   */\n      swap2\n      swap1\n      pop\n      jump\t// out\n        /* \"#utility.yul\":12591:13439   */\n    tag_158:\n        /* \"#utility.yul\":12652:12657   */\n      0x00\n        /* \"#utility.yul\":12659:12663   */\n      dup1\n        /* \"#utility.yul\":12683:12689   */\n      dup3\n        /* \"#utility.yul\":12674:12689   */\n      swap2\n      pop\n        /* \"#utility.yul\":12707:12712   */\n      dup4\n        /* \"#utility.yul\":12698:12712   */\n      swap1\n      pop\n        /* \"#utility.yul\":12721:13433   */\n    tag_310:\n        /* \"#utility.yul\":12742:12743   */\n      0x01\n        /* \"#utility.yul\":12732:12740   */\n      dup6\n        /* \"#utility.yul\":12729:12744   */\n      gt\n        /* \"#utility.yul\":12721:13433   */\n      iszero\n      tag_312\n      jumpi\n        /* \"#utility.yul\":12837:12841   */\n      dup1\n        /* \"#utility.yul\":12832:12835   */\n      dup7\n        /* \"#utility.yul\":12828:12842   */\n      div\n        /* \"#utility.yul\":12822:12826   */\n      dup2\n        /* \"#utility.yul\":12819:12843   */\n      gt\n        /* \"#utility.yul\":12816:12866   */\n      iszero\n      tag_313\n      jumpi\n        /* \"#utility.yul\":12846:12864   */\n      tag_314\n      tag_156\n      jump\t// in\n    tag_314:\n        /* \"#utility.yul\":12816:12866   */\n    tag_313:\n        /* \"#utility.yul\":12896:12897   */\n      0x01\n        /* \"#utility.yul\":12886:12894   */\n      dup6\n        /* \"#utility.yul\":12882:12898   */\n      and\n        /* \"#utility.yul\":12879:13330   */\n      iszero\n      tag_315\n      jumpi\n        /* \"#utility.yul\":13311:13315   */\n      dup1\n        /* \"#utility.yul\":13304:13309   */\n      dup3\n        /* \"#utility.yul\":13300:13316   */\n      mul\n        /* \"#utility.yul\":13291:13316   */\n      swap2\n      pop\n        /* \"#utility.yul\":12879:13330   */\n    tag_315:\n        /* \"#utility.yul\":13361:13365   */\n      dup1\n        /* \"#utility.yul\":13355:13359   */\n      dup2\n        /* \"#utility.yul\":13351:13366   */\n      mul\n        /* \"#utility.yul\":13343:13366   */\n      swap1\n      pop\n        /* \"#utility.yul\":13391:13423   */\n      tag_316\n        /* \"#utility.yul\":13414:13422   */\n      dup6\n        /* \"#utility.yul\":13391:13423   */\n      tag_157\n      jump\t// in\n    tag_316:\n        /* \"#utility.yul\":13379:13423   */\n      swap5\n      pop\n        /* \"#utility.yul\":12721:13433   */\n      jump(tag_310)\n    tag_312:\n        /* \"#utility.yul\":12591:13439   */\n      swap5\n      pop\n      swap5\n      swap3\n      pop\n      pop\n      pop\n      jump\t// out\n        /* \"#utility.yul\":13445:14518   */\n    tag_159:\n        /* \"#utility.yul\":13499:13504   */\n      0x00\n        /* \"#utility.yul\":13690:13698   */\n      dup3\n        /* \"#utility.yul\":13680:13720   */\n      tag_318\n      jumpi\n        /* \"#utility.yul\":13711:13712   */\n      0x01\n        /* \"#utility.yul\":13702:13712   */\n      swap1\n      pop\n        /* \"#utility.yul\":13713:13718   */\n      jump(tag_317)\n        /* \"#utility.yul\":13680:13720   */\n    tag_318:\n        /* \"#utility.yul\":13739:13743   */\n      dup2\n        /* \"#utility.yul\":13729:13765   */\n      tag_319\n      jumpi\n        /* \"#utility.yul\":13756:13757   */\n      0x00\n        /* \"#utility.yul\":13747:13757   */\n      swap1\n      pop\n        /* \"#utility.yul\":13758:13763   */\n      jump(tag_317)\n        /* \"#utility.yul\":13729:13765   */\n    tag_319:\n        /* \"#utility.yul\":13825:13829   */\n      dup2\n        /* \"#utility.yul\":13873:13874   */\n      0x01\n        /* \"#utility.yul\":13868:13895   */\n      dup2\n      eq\n      tag_321\n      jumpi\n        /* \"#utility.yul\":13909:13910   */\n      0x02\n        /* \"#utility.yul\":13904:14095   */\n      dup2\n      eq\n      tag_322\n      jumpi\n        /* \"#utility.yul\":13818:14095   */\n      jump(tag_320)\n        /* \"#utility.yul\":13868:13895   */\n    tag_321:\n        /* \"#utility.yul\":13886:13887   */\n      0x01\n        /* \"#utility.yul\":13877:13887   */\n      swap2\n      pop\n        /* \"#utility.yul\":13888:13893   */\n      pop\n      jump(tag_317)\n        /* \"#utility.yul\":13904:14095   */\n    tag_322:\n        /* \"#utility.yul\":13949:13952   */\n      0xff\n        /* \"#utility.yul\":13939:13947   */\n      dup5\n        /* \"#utility.yul\":13936:13953   */\n      gt\n        /* \"#utility.yul\":13933:13976   */\n      iszero\n      tag_323\n      jumpi\n        /* \"#utility.yul\":13956:13974   */\n      tag_324\n      tag_156\n      jump\t// in\n    tag_324:\n        /* \"#utility.yul\":13933:13976   */\n    tag_323:\n        /* \"#utility.yul\":14005:14013   */\n      dup4\n        /* \"#utility.yul\":14002:14003   */\n      0x02\n        /* \"#utility.yul\":13998:14014   */\n      exp\n        /* \"#utility.yul\":13989:14014   */\n      swap2\n      pop\n        /* \"#utility.yul\":14040:14043   */\n      dup5\n        /* \"#utility.yul\":14033:14038   */\n      dup3\n        /* \"#utility.yul\":14030:14044   */\n      gt\n        /* \"#utility.yul\":14027:14067   */\n      iszero\n      tag_325\n      jumpi\n        /* \"#utility.yul\":14047:14065   */\n      tag_326\n      tag_156\n      jump\t// in\n    tag_326:\n        /* \"#utility.yul\":14027:14067   */\n    tag_325:\n        /* \"#utility.yul\":14080:14085   */\n      pop\n      jump(tag_317)\n        /* \"#utility.yul\":13818:14095   */\n    tag_320:\n      pop\n        /* \"#utility.yul\":14204:14206   */\n      0x20\n        /* \"#utility.yul\":14194:14202   */\n      dup4\n        /* \"#utility.yul\":14191:14207   */\n      lt\n        /* \"#utility.yul\":14185:14188   */\n      0x0133\n        /* \"#utility.yul\":14179:14183   */\n      dup4\n        /* \"#utility.yul\":14176:14189   */\n      lt\n        /* \"#utility.yul\":14172:14208   */\n      and\n        /* \"#utility.yul\":14154:14156   */\n      0x4e\n        /* \"#utility.yul\":14144:14152   */\n      dup5\n        /* \"#utility.yul\":14141:14157   */\n      lt\n        /* \"#utility.yul\":14136:14138   */\n      0x0b\n        /* \"#utility.yul\":14130:14134   */\n      dup5\n        /* \"#utility.yul\":14127:14139   */\n      lt\n        /* \"#utility.yul\":14123:14158   */\n      and\n        /* \"#utility.yul\":14107:14218   */\n      or\n        /* \"#utility.yul\":14104:14350   */\n      iszero\n      tag_327\n      jumpi\n        /* \"#utility.yul\":14260:14268   */\n      dup3\n        /* \"#utility.yul\":14254:14258   */\n      dup3\n        /* \"#utility.yul\":14250:14269   */\n      exp\n        /* \"#utility.yul\":14241:14269   */\n      swap1\n      pop\n        /* \"#utility.yul\":14295:14298   */\n      dup4\n        /* \"#utility.yul\":14288:14293   */\n      dup2\n        /* \"#utility.yul\":14285:14299   */\n      gt\n        /* \"#utility.yul\":14282:14322   */\n      iszero\n      tag_328\n      jumpi\n        /* \"#utility.yul\":14302:14320   */\n      tag_329\n      tag_156\n      jump\t// in\n    tag_329:\n        /* \"#utility.yul\":14282:14322   */\n    tag_328:\n        /* \"#utility.yul\":14335:14340   */\n      jump(tag_317)\n        /* \"#utility.yul\":14104:14350   */\n    tag_327:\n        /* \"#utility.yul\":14375:14417   */\n      tag_330\n        /* \"#utility.yul\":14413:14416   */\n      dup5\n        /* \"#utility.yul\":14403:14411   */\n      dup5\n        /* \"#utility.yul\":14397:14401   */\n      dup5\n        /* \"#utility.yul\":14394:14395   */\n      0x01\n        /* \"#utility.yul\":14375:14417   */\n      tag_158\n      jump\t// in\n    tag_330:\n        /* \"#utility.yul\":14360:14417   */\n      swap3\n      pop\n      swap1\n      pop\n        /* \"#utility.yul\":14449:14453   */\n      dup2\n        /* \"#utility.yul\":14444:14447   */\n      dup5\n        /* \"#utility.yul\":14440:14454   */\n      div\n        /* \"#utility.yul\":14433:14438   */\n      dup2\n        /* \"#utility.yul\":14430:14455   */\n      gt\n        /* \"#utility.yul\":14427:14478   */\n      iszero\n      tag_331\n      jumpi\n        /* \"#utility.yul\":14458:14476   */\n      tag_332\n      tag_156\n      jump\t// in\n    tag_332:\n        /* \"#utility.yul\":14427:14478   */\n    tag_331:\n        /* \"#utility.yul\":14507:14511   */\n      dup2\n        /* \"#utility.yul\":14500:14505   */\n      dup2\n        /* \"#utility.yul\":14496:14512   */\n      mul\n        /* \"#utility.yul\":14487:14512   */\n      swap1\n      pop\n        /* \"#utility.yul\":13445:14518   */\n    tag_317:\n      swap4\n      swap3\n      pop\n      pop\n      pop\n      jump\t// out\n        /* \"#utility.yul\":14524:14809   */\n    tag_41:\n        /* \"#utility.yul\":14584:14589   */\n      0x00\n        /* \"#utility.yul\":14608:14631   */\n      tag_334\n        /* \"#utility.yul\":14626:14630   */\n      dup3\n        /* \"#utility.yul\":14608:14631   */\n      tag_118\n      jump\t// in\n    tag_334:\n        /* \"#utility.yul\":14600:14631   */\n      swap2\n      pop\n        /* \"#utility.yul\":14652:14679   */\n      tag_335\n        /* \"#utility.yul\":14670:14678   */\n      dup4\n        /* \"#utility.yul\":14652:14679   */\n      tag_118\n      jump\t// in\n    tag_335:\n        /* \"#utility.yul\":14640:14679   */\n      swap3\n      pop\n        /* \"#utility.yul\":14698:14802   */\n      tag_336\n        /* \"#utility.yul\":14735:14801   */\n      0xffffffffffffffffffffffffffffffffffffffffffffffffffffffffffffffff\n        /* \"#utility.yul\":14725:14733   */\n      dup5\n        /* \"#utility.yul\":14719:14723   */\n      dup5\n        /* \"#utility.yul\":14698:14802   */\n      tag_159\n      jump\t// in\n    tag_336:\n        /* \"#utility.yul\":14689:14802   */\n      swap1\n      pop\n        /* \"#utility.yul\":14524:14809   */\n      swap3\n      swap2\n      pop\n      pop\n      jump\t// out\n        /* \"#utility.yul\":14815:15048   */\n    tag_44:\n        /* \"#utility.yul\":14854:14857   */\n      0x00\n        /* \"#utility.yul\":14877:14901   */\n      tag_338\n        /* \"#utility.yul\":14895:14900   */\n      dup3\n        /* \"#utility.yul\":14877:14901   */\n      tag_118\n      jump\t// in\n    tag_338:\n        /* \"#utility.yul\":14868:14901   */\n      swap2\n      pop\n        /* \"#utility.yul\":14923:14989   */\n      0xffffffffffffffffffffffffffffffffffffffffffffffffffffffffffffffff\n        /* \"#utility.yul\":14916:14921   */\n      dup3\n        /* \"#utility.yul\":14913:14990   */\n      sub\n        /* \"#utility.yul\":14910:15013   */\n      tag_339\n      jumpi\n        /* \"#utility.yul\":14993:15011   */\n      tag_340\n      tag_156\n      jump\t// in\n    tag_340:\n        /* \"#utility.yul\":14910:15013   */\n    tag_339:\n        /* \"#utility.yul\":15040:15041   */\n      0x01\n        /* \"#utility.yul\":15033:15038   */\n      dup3\n        /* \"#utility.yul\":15029:15042   */\n      add\n        /* \"#utility.yul\":15022:15042   */\n      swap1\n      pop\n        /* \"#utility.yul\":14815:15048   */\n      swap2\n      swap1\n      pop\n      jump\t// out\n        /* \"#utility.yul\":15054:15234   */\n    tag_56:\n        /* \"#utility.yul\":15102:15179   */\n      0x4e487b7100000000000000000000000000000000000000000000000000000000\n        /* \"#utility.yul\":15099:15100   */\n      0x00\n        /* \"#utility.yul\":15092:15180   */\n      mstore\n        /* \"#utility.yul\":15199:15203   */\n      0x32\n        /* \"#utility.yul\":15196:15197   */\n      0x04\n        /* \"#utility.yul\":15189:15204   */\n      mstore\n        /* \"#utility.yul\":15223:15227   */\n      0x24\n        /* \"#utility.yul\":15220:15221   */\n      0x00\n        /* \"#utility.yul\":15213:15228   */\n      revert\n        /* \"#utility.yul\":15240:15420   */\n    tag_160:\n        /* \"#utility.yul\":15288:15365   */\n      0x4e487b7100000000000000000000000000000000000000000000000000000000\n        /* \"#utility.yul\":15285:15286   */\n      0x00\n        /* \"#utility.yul\":15278:15366   */\n      mstore\n        /* \"#utility.yul\":15385:15389   */\n      0x22\n        /* \"#utility.yul\":15382:15383   */\n      0x04\n        /* \"#utility.yul\":15375:15390   */\n      mstore\n        /* \"#utility.yul\":15409:15413   */\n      0x24\n        /* \"#utility.yul\":15406:15407   */\n      0x00\n        /* \"#utility.yul\":15399:15414   */\n      revert\n        /* \"#utility.yul\":15426:15746   */\n    tag_62:\n        /* \"#utility.yul\":15470:15476   */\n      0x00\n        /* \"#utility.yul\":15507:15508   */\n      0x02\n        /* \"#utility.yul\":15501:15505   */\n      dup3\n        /* \"#utility.yul\":15497:15509   */\n      div\n        /* \"#utility.yul\":15487:15509   */\n      swap1\n      pop\n        /* \"#utility.yul\":15554:15555   */\n      0x01\n        /* \"#utility.yul\":15548:15552   */\n      dup3\n        /* \"#utility.yul\":15544:15556   */\n      and\n        /* \"#utility.yul\":15575:15593   */\n      dup1\n        /* \"#utility.yul\":15565:15646   */\n      tag_344\n      jumpi\n        /* \"#utility.yul\":15631:15635   */\n      0x7f\n        /* \"#utility.yul\":15623:15629   */\n      dup3\n        /* \"#utility.yul\":15619:15636   */\n      and\n        /* \"#utility.yul\":15609:15636   */\n      swap2\n      pop\n        /* \"#utility.yul\":15565:15646   */\n    tag_344:\n        /* \"#utility.yul\":15693:15695   */\n      0x20\n        /* \"#utility.yul\":15685:15691   */\n      dup3\n        /* \"#utility.yul\":15682:15696   */\n      lt\n        /* \"#utility.yul\":15662:15680   */\n      dup2\n        /* \"#utility.yul\":15659:15697   */\n      sub\n        /* \"#utility.yul\":15656:15740   */\n      tag_345\n      jumpi\n        /* \"#utility.yul\":15712:15730   */\n      tag_346\n      tag_160\n      jump\t// in\n    tag_346:\n        /* \"#utility.yul\":15656:15740   */\n    tag_345:\n        /* \"#utility.yul\":15477:15746   */\n      pop\n        /* \"#utility.yul\":15426:15746   */\n      swap2\n      swap1\n      pop\n      jump\t// out\n        /* \"#utility.yul\":15752:15946   */\n    tag_161:\n        /* \"#utility.yul\":15861:15872   */\n      0x00\n        /* \"#utility.yul\":15895:15901   */\n      dup3\n        /* \"#utility.yul\":15890:15893   */\n      dup3\n        /* \"#utility.yul\":15883:15902   */\n      mstore\n        /* \"#utility.yul\":15935:15939   */\n      0x20\n        /* \"#utility.yul\":15930:15933   */\n      dup3\n        /* \"#utility.yul\":15926:15940   */\n      add\n        /* \"#utility.yul\":15911:15940   */\n      swap1\n      pop\n        /* \"#utility.yul\":15752:15946   */\n      swap3\n      swap2\n      pop\n      pop\n      jump\t// out\n        /* \"#utility.yul\":15980:16971   */\n    tag_162:\n        /* \"#utility.yul\":16119:16122   */\n      0x00\n        /* \"#utility.yul\":16148:16212   */\n      tag_349\n        /* \"#utility.yul\":16206:16211   */\n      dup3\n        /* \"#utility.yul\":16148:16212   */\n      tag_142\n      jump\t// in\n    tag_349:\n        /* \"#utility.yul\":16228:16324   */\n      tag_350\n        /* \"#utility.yul\":16317:16323   */\n      dup2\n        /* \"#utility.yul\":16312:16315   */\n      dup6\n        /* \"#utility.yul\":16228:16324   */\n      tag_161\n      jump\t// in\n    tag_350:\n        /* \"#utility.yul\":16221:16324   */\n      swap4\n      pop\n        /* \"#utility.yul\":16350:16353   */\n      dup4\n        /* \"#utility.yul\":16395:16399   */\n      0x20\n        /* \"#utility.yul\":16387:16393   */\n      dup3\n        /* \"#utility.yul\":16383:16400   */\n      mul\n        /* \"#utility.yul\":16378:16381   */\n      dup6\n        /* \"#utility.yul\":16374:16401   */\n      add\n        /* \"#utility.yul\":16425:16491   */\n      tag_351\n        /* \"#utility.yul\":16485:16490   */\n      dup6\n        /* \"#utility.yul\":16425:16491   */\n      tag_144\n      jump\t// in\n    tag_351:\n        /* \"#utility.yul\":16514:16521   */\n      dup1\n        /* \"#utility.yul\":16545:16546   */\n      0x00\n        /* \"#utility.yul\":16530:16926   */\n    tag_352:\n        /* \"#utility.yul\":16555:16561   */\n      dup6\n        /* \"#utility.yul\":16552:16553   */\n      dup2\n        /* \"#utility.yul\":16549:16562   */\n      lt\n        /* \"#utility.yul\":16530:16926   */\n      iszero\n      tag_354\n      jumpi\n        /* \"#utility.yul\":16626:16635   */\n      dup5\n        /* \"#utility.yul\":16620:16624   */\n      dup5\n        /* \"#utility.yul\":16616:16636   */\n      sub\n        /* \"#utility.yul\":16611:16614   */\n      dup10\n        /* \"#utility.yul\":16604:16637   */\n      mstore\n        /* \"#utility.yul\":16677:16683   */\n      dup2\n        /* \"#utility.yul\":16671:16684   */\n      mload\n        /* \"#utility.yul\":16705:16789   */\n      tag_355\n        /* \"#utility.yul\":16784:16788   */\n      dup6\n        /* \"#utility.yul\":16769:16782   */\n      dup3\n        /* \"#utility.yul\":16705:16789   */\n      tag_149\n      jump\t// in\n    tag_355:\n        /* \"#utility.yul\":16697:16789   */\n      swap5\n      pop\n        /* \"#utility.yul\":16812:16882   */\n      tag_356\n        /* \"#utility.yul\":16875:16881   */\n      dup4\n        /* \"#utility.yul\":16812:16882   */\n      tag_150\n      jump\t// in\n    tag_356:\n        /* \"#utility.yul\":16802:16882   */\n      swap3\n      pop\n        /* \"#utility.yul\":16911:16915   */\n      0x20\n        /* \"#utility.yul\":16906:16909   */\n      dup11\n        /* \"#utility.yul\":16902:16916   */\n      add\n        /* \"#utility.yul\":16895:16916   */\n      swap10\n      pop\n        /* \"#utility.yul\":16590:16926   */\n      pop\n        /* \"#utility.yul\":16577:16578   */\n      0x01\n        /* \"#utility.yul\":16574:16575   */\n      dup2\n        /* \"#utility.yul\":16570:16579   */\n      add\n        /* \"#utility.yul\":16565:16579   */\n      swap1\n      pop\n        /* \"#utility.yul\":16530:16926   */\n      jump(tag_352)\n    tag_354:\n        /* \"#utility.yul\":16534:16548   */\n      pop\n        /* \"#utility.yul\":16942:16946   */\n      dup3\n        /* \"#utility.yul\":16935:16946   */\n      swap8\n      pop\n        /* \"#utility.yul\":16962:16965   */\n      dup8\n        /* \"#utility.yul\":16955:16965   */\n      swap6\n      pop\n        /* \"#utility.yul\":16124:16971   */\n      pop\n      pop\n      pop\n      pop\n      pop\n        /* \"#utility.yul\":15980:16971   */\n      swap3\n      swap2\n      pop\n      pop\n      jump\t// out\n        /* \"#utility.yul\":16977:17832   */\n    tag_99:\n        /* \"#utility.yul\":17252:17256   */\n      0x00\n        /* \"#utility.yul\":17290:17293   */\n      0xa0\n        /* \"#utility.yul\":17279:17288   */\n      dup3\n        /* \"#utility.yul\":17275:17294   */\n      add\n        /* \"#utility.yul\":17267:17294   */\n      swap1\n      pop\n        /* \"#utility.yul\":17304:17375   */\n      tag_358\n        /* \"#utility.yul\":17372:17373   */\n      0x00\n        /* \"#utility.yul\":17361:17370   */\n      dup4\n        /* \"#utility.yul\":17357:17374   */\n      add\n        /* \"#utility.yul\":17348:17354   */\n      dup9\n        /* \"#utility.yul\":17304:17375   */\n      tag_119\n      jump\t// in\n    tag_358:\n        /* \"#utility.yul\":17385:17457   */\n      tag_359\n        /* \"#utility.yul\":17453:17455   */\n      0x20\n        /* \"#utility.yul\":17442:17451   */\n      dup4\n        /* \"#utility.yul\":17438:17456   */\n      add\n        /* \"#utility.yul\":17429:17435   */\n      dup8\n        /* \"#utility.yul\":17385:17457   */\n      tag_119\n      jump\t// in\n    tag_359:\n        /* \"#utility.yul\":17504:17513   */\n      dup2\n        /* \"#utility.yul\":17498:17502   */\n      dup2\n        /* \"#utility.yul\":17494:17514   */\n      sub\n        /* \"#utility.yul\":17489:17491   */\n      0x40\n        /* \"#utility.yul\":17478:17487   */\n      dup4\n        /* \"#utility.yul\":17474:17492   */\n      add\n        /* \"#utility.yul\":17467:17515   */\n      mstore\n        /* \"#utility.yul\":17532:17660   */\n      tag_360\n        /* \"#utility.yul\":17655:17659   */\n      dup2\n        /* \"#utility.yul\":17646:17652   */\n      dup7\n        /* \"#utility.yul\":17532:17660   */\n      tag_162\n      jump\t// in\n    tag_360:\n        /* \"#utility.yul\":17524:17660   */\n      swap1\n      pop\n        /* \"#utility.yul\":17670:17742   */\n      tag_361\n        /* \"#utility.yul\":17738:17740   */\n      0x60\n        /* \"#utility.yul\":17727:17736   */\n      dup4\n        /* \"#utility.yul\":17723:17741   */\n      add\n        /* \"#utility.yul\":17714:17720   */\n      dup6\n        /* \"#utility.yul\":17670:17742   */\n      tag_140\n      jump\t// in\n    tag_361:\n        /* \"#utility.yul\":17752:17825   */\n      tag_362\n        /* \"#utility.yul\":17820:17823   */\n      0x80\n        /* \"#utility.yul\":17809:17818   */\n      dup4\n        /* \"#utility.yul\":17805:17824   */\n      add\n        /* \"#utility.yul\":17796:17802   */\n      dup5\n        /* \"#utility.yul\":17752:17825   */\n      tag_119\n      jump\t// in\n    tag_362:\n        /* \"#utility.yul\":16977:17832   */\n      swap7\n      swap6\n      pop\n      pop\n      pop\n      pop\n      pop\n      pop\n      jump\t// out\n        /* \"#utility.yul\":17838:17979   */\n    tag_163:\n        /* \"#utility.yul\":17887:17891   */\n      0x00\n        /* \"#utility.yul\":17910:17913   */\n      dup2\n        /* \"#utility.yul\":17902:17913   */\n      swap1\n      pop\n        /* \"#utility.yul\":17933:17936   */\n      dup2\n        /* \"#utility.yul\":17930:17931   */\n      0x00\n        /* \"#utility.yul\":17923:17937   */\n      mstore\n        /* \"#utility.yul\":17967:17971   */\n      0x20\n        /* \"#utility.yul\":17964:17965   */\n      0x00\n        /* \"#utility.yul\":17954:17972   */\n      keccak256\n        /* \"#utility.yul\":17946:17972   */\n      swap1\n      pop\n        /* \"#utility.yul\":17838:17979   */\n      swap2\n      swap1\n      pop\n      jump\t// out\n        /* \"#utility.yul\":17985:18078   */\n    tag_164:\n        /* \"#utility.yul\":18022:18028   */\n      0x00\n        /* \"#utility.yul\":18069:18071   */\n      0x20\n        /* \"#utility.yul\":18064:18066   */\n      0x1f\n        /* \"#utility.yul\":18057:18062   */\n      dup4\n        /* \"#utility.yul\":18053:18067   */\n      add\n        /* \"#utility.yul\":18049:18072   */\n      div\n        /* \"#utility.yul\":18039:18072   */\n      swap1\n      pop\n        /* \"#utility.yul\":17985:18078   */\n      swap2\n      swap1\n      pop\n      jump\t// out\n        /* \"#utility.yul\":18084:18191   */\n    tag_165:\n        /* \"#utility.yul\":18128:18136   */\n      0x00\n        /* \"#utility.yul\":18178:18183   */\n      dup3\n        /* \"#utility.yul\":18172:18176   */\n      dup3\n        /* \"#utility.yul\":18168:18184   */\n      shl\n        /* \"#utility.yul\":18147:18184   */\n      swap1\n      pop\n        /* \"#utility.yul\":18084:18191   */\n      swap3\n      swap2\n      pop\n      pop\n      jump\t// out\n        /* \"#utility.yul\":18197:18590   */\n    tag_166:\n        /* \"#utility.yul\":18266:18272   */\n      0x00\n        /* \"#utility.yul\":18316:18317   */\n      0x08\n        /* \"#utility.yul\":18304:18314   */\n      dup4\n        /* \"#utility.yul\":18300:18318   */\n      mul\n        /* \"#utility.yul\":18339:18436   */\n      tag_367\n        /* \"#utility.yul\":18369:18435   */\n      0xffffffffffffffffffffffffffffffffffffffffffffffffffffffffffffffff\n        /* \"#utility.yul\":18358:18367   */\n      dup3\n        /* \"#utility.yul\":18339:18436   */\n      tag_165\n      jump\t// in\n    tag_367:\n        /* \"#utility.yul\":18457:18496   */\n      tag_368\n        /* \"#utility.yul\":18487:18495   */\n      dup7\n        /* \"#utility.yul\":18476:18485   */\n      dup4\n        /* \"#utility.yul\":18457:18496   */\n      tag_165\n      jump\t// in\n    tag_368:\n        /* \"#utility.yul\":18445:18496   */\n      swap6\n      pop\n        /* \"#utility.yul\":18529:18533   */\n      dup1\n        /* \"#utility.yul\":18525:18534   */\n      not\n        /* \"#utility.yul\":18518:18523   */\n      dup5\n        /* \"#utility.yul\":18514:18535   */\n      and\n        /* \"#utility.yul\":18505:18535   */\n      swap4\n      pop\n        /* \"#utility.yul\":18578:18582   */\n      dup1\n        /* \"#utility.yul\":18568:18576   */\n      dup7\n        /* \"#utility.yul\":18564:18583   */\n      and\n        /* \"#utility.yul\":18557:18562   */\n      dup5\n        /* \"#utility.yul\":18554:18584   */\n      or\n        /* \"#utility.yul\":18544:18584   */\n      swap3\n      pop\n        /* \"#utility.yul\":18273:18590   */\n      pop\n      pop\n        /* \"#utility.yul\":18197:18590   */\n      swap4\n      swap3\n      pop\n      pop\n      pop\n      jump\t// out\n        /* \"#utility.yul\":18596:18656   */\n    tag_167:\n        /* \"#utility.yul\":18624:18627   */\n      0x00\n        /* \"#utility.yul\":18645:18650   */\n      dup2\n        /* \"#utility.yul\":18638:18650   */\n      swap1\n      pop\n        /* \"#utility.yul\":18596:18656   */\n      swap2\n      swap1\n      pop\n      jump\t// out\n        /* \"#utility.yul\":18662:18804   */\n    tag_168:\n        /* \"#utility.yul\":18712:18721   */\n      0x00\n        /* \"#utility.yul\":18745:18798   */\n      tag_371\n        /* \"#utility.yul\":18763:18797   */\n      tag_372\n        /* \"#utility.yul\":18772:18796   */\n      tag_373\n        /* \"#utility.yul\":18790:18795   */\n      dup5\n        /* \"#utility.yul\":18772:18796   */\n      tag_118\n      jump\t// in\n    tag_373:\n        /* \"#utility.yul\":18763:18797   */\n      tag_167\n      jump\t// in\n    tag_372:\n        /* \"#utility.yul\":18745:18798   */\n      tag_118\n      jump\t// in\n    tag_371:\n        /* \"#utility.yul\":18732:18798   */\n      swap1\n      pop\n        /* \"#utility.yul\":18662:18804   */\n      swap2\n      swap1\n      pop\n      jump\t// out\n        /* \"#utility.yul\":18810:18885   */\n    tag_169:\n        /* \"#utility.yul\":18853:18856   */\n      0x00\n        /* \"#utility.yul\":18874:18879   */\n      dup2\n        /* \"#utility.yul\":18867:18879   */\n      swap1\n      pop\n        /* \"#utility.yul\":18810:18885   */\n      swap2\n      swap1\n      pop\n      jump\t// out\n        /* \"#utility.yul\":18891:19160   */\n    tag_170:\n        /* \"#utility.yul\":19001:19040   */\n      tag_376\n        /* \"#utility.yul\":19032:19039   */\n      dup4\n        /* \"#utility.yul\":19001:19040   */\n      tag_168\n      jump\t// in\n    tag_376:\n        /* \"#utility.yul\":19062:19153   */\n      tag_377\n        /* \"#utility.yul\":19111:19152   */\n      tag_378\n        /* \"#utility.yul\":19135:19151   */\n      dup3\n        /* \"#utility.yul\":19111:19152   */\n      tag_169\n      jump\t// in\n    tag_378:\n        /* \"#utility.yul\":19103:19109   */\n      dup5\n        /* \"#utility.yul\":19096:19100   */\n      dup5\n        /* \"#utility.yul\":19090:19101   */\n      sload\n        /* \"#utility.yul\":19062:19153   */\n      tag_166\n      jump\t// in\n    tag_377:\n        /* \"#utility.yul\":19056:19060   */\n      dup3\n        /* \"#utility.yul\":19049:19154   */\n      sstore\n        /* \"#utility.yul\":18967:19160   */\n      pop\n        /* \"#utility.yul\":18891:19160   */\n      pop\n      pop\n      pop\n      jump\t// out\n        /* \"#utility.yul\":19166:19239   */\n    tag_171:\n        /* \"#utility.yul\":19211:19214   */\n      0x00\n        /* \"#utility.yul\":19166:19239   */\n      swap1\n      jump\t// out\n        /* \"#utility.yul\":19245:19434   */\n    tag_172:\n        /* \"#utility.yul\":19322:19354   */\n      tag_381\n      tag_171\n      jump\t// in\n    tag_381:\n        /* \"#utility.yul\":19363:19428   */\n      tag_382\n        /* \"#utility.yul\":19421:19427   */\n      dup2\n        /* \"#utility.yul\":19413:19419   */\n      dup5\n        /* \"#utility.yul\":19407:19411   */\n      dup5\n        /* \"#utility.yul\":19363:19428   */\n      tag_170\n      jump\t// in\n    tag_382:\n        /* \"#utility.yul\":19298:19434   */\n      pop\n        /* \"#utility.yul\":19245:19434   */\n      pop\n      pop\n      jump\t// out\n        /* \"#utility.yul\":19440:19626   */\n    tag_173:\n        /* \"#utility.yul\":19500:19620   */\n    tag_384:\n        /* \"#utility.yul\":19517:19520   */\n      dup2\n        /* \"#utility.yul\":19510:19515   */\n      dup2\n        /* \"#utility.yul\":19507:19521   */\n      lt\n        /* \"#utility.yul\":19500:19620   */\n      iszero\n      tag_386\n      jumpi\n        /* \"#utility.yul\":19571:19610   */\n      tag_387\n        /* \"#utility.yul\":19608:19609   */\n      0x00\n        /* \"#utility.yul\":19601:19606   */\n      dup3\n        /* \"#utility.yul\":19571:19610   */\n      tag_172\n      jump\t// in\n    tag_387:\n        /* \"#utility.yul\":19544:19545   */\n      0x01\n        /* \"#utility.yul\":19537:19542   */\n      dup2\n        /* \"#utility.yul\":19533:19546   */\n      add\n        /* \"#utility.yul\":19524:19546   */\n      swap1\n      pop\n        /* \"#utility.yul\":19500:19620   */\n      jump(tag_384)\n    tag_386:\n        /* \"#utility.yul\":19440:19626   */\n      pop\n      pop\n      jump\t// out\n        /* \"#utility.yul\":19632:20175   */\n    tag_174:\n        /* \"#utility.yul\":19733:19735   */\n      0x1f\n        /* \"#utility.yul\":19728:19731   */\n      dup3\n        /* \"#utility.yul\":19725:19736   */\n      gt\n        /* \"#utility.yul\":19722:20168   */\n      iszero\n      tag_389\n      jumpi\n        /* \"#utility.yul\":19767:19805   */\n      tag_390\n        /* \"#utility.yul\":19799:19804   */\n      dup2\n        /* \"#utility.yul\":19767:19805   */\n      tag_163\n      jump\t// in\n    tag_390:\n        /* \"#utility.yul\":19851:19880   */\n      tag_391\n        /* \"#utility.yul\":19869:19879   */\n      dup5\n        /* \"#utility.yul\":19851:19880   */\n      tag_164\n      jump\t// in\n    tag_391:\n        /* \"#utility.yul\":19841:19849   */\n      dup2\n        /* \"#utility.yul\":19837:19881   */\n      add\n        /* \"#utility.yul\":20034:20036   */\n      0x20\n        /* \"#utility.yul\":20022:20032   */\n      dup6\n        /* \"#utility.yul\":20019:20037   */\n      lt\n        /* \"#utility.yul\":20016:20065   */\n      iszero\n      tag_392\n      jumpi\n        /* \"#utility.yul\":20055:20063   */\n      dup2\n        /* \"#utility.yul\":20040:20063   */\n      swap1\n      pop\n        /* \"#utility.yul\":20016:20065   */\n    tag_392:\n        /* \"#utility.yul\":20078:20158   */\n      tag_393\n        /* \"#utility.yul\":20134:20156   */\n      tag_394\n        /* \"#utility.yul\":20152:20155   */\n      dup6\n        /* \"#utility.yul\":20134:20156   */\n      tag_164\n      jump\t// in\n    tag_394:\n        /* \"#utility.yul\":20124:20132   */\n      dup4\n        /* \"#utility.yul\":20120:20157   */\n      add\n        /* \"#utility.yul\":20107:20118   */\n      dup3\n        /* \"#utility.yul\":20078:20158   */\n      tag_173\n      jump\t// in\n    tag_393:\n        /* \"#utility.yul\":19737:20168   */\n      pop\n      pop\n        /* \"#utility.yul\":19722:20168   */\n    tag_389:\n        /* \"#utility.yul\":19632:20175   */\n      pop\n      pop\n      pop\n      jump\t// out\n        /* \"#utility.yul\":20181:20298   */\n    tag_175:\n        /* \"#utility.yul\":20235:20243   */\n      0x00\n        /* \"#utility.yul\":20285:20290   */\n      dup3\n        /* \"#utility.yul\":20279:20283   */\n      dup3\n        /* \"#utility.yul\":20275:20291   */\n      shr\n        /* \"#utility.yul\":20254:20291   */\n      swap1\n      pop\n        /* \"#utility.yul\":20181:20298   */\n      swap3\n      swap2\n      pop\n      pop\n      jump\t// out\n        /* \"#utility.yul\":20304:20473   */\n    tag_176:\n        /* \"#utility.yul\":20348:20354   */\n      0x00\n        /* \"#utility.yul\":20381:20432   */\n      tag_397\n        /* \"#utility.yul\":20429:20430   */\n      0x00\n        /* \"#utility.yul\":20425:20431   */\n      not\n        /* \"#utility.yul\":20417:20422   */\n      dup5\n        /* \"#utility.yul\":20414:20415   */\n      0x08\n        /* \"#utility.yul\":20410:20423   */\n      mul\n        /* \"#utility.yul\":20381:20432   */\n      tag_175\n      jump\t// in\n    tag_397:\n        /* \"#utility.yul\":20377:20433   */\n      not\n        /* \"#utility.yul\":20462:20466   */\n      dup1\n        /* \"#utility.yul\":20456:20460   */\n      dup4\n        /* \"#utility.yul\":20452:20467   */\n      and\n        /* \"#utility.yul\":20442:20467   */\n      swap2\n      pop\n        /* \"#utility.yul\":20355:20473   */\n      pop\n        /* \"#utility.yul\":20304:20473   */\n      swap3\n      swap2\n      pop\n      pop\n      jump\t// out\n        /* \"#utility.yul\":20478:20773   */\n    tag_177:\n        /* \"#utility.yul\":20554:20558   */\n      0x00\n        /* \"#utility.yul\":20700:20729   */\n      tag_399\n        /* \"#utility.yul\":20725:20728   */\n      dup4\n        /* \"#utility.yul\":20719:20723   */\n      dup4\n        /* \"#utility.yul\":20700:20729   */\n      tag_176\n      jump\t// in\n    tag_399:\n        /* \"#utility.yul\":20692:20729   */\n      swap2\n      pop\n        /* \"#utility.yul\":20762:20765   */\n      dup3\n        /* \"#utility.yul\":20759:20760   */\n      0x02\n        /* \"#utility.yul\":20755:20766   */\n      mul\n        /* \"#utility.yul\":20749:20753   */\n      dup3\n        /* \"#utility.yul\":20746:20767   */\n      or\n        /* \"#utility.yul\":20738:20767   */\n      swap1\n      pop\n        /* \"#utility.yul\":20478:20773   */\n      swap3\n      swap2\n      pop\n      pop\n      jump\t// out\n        /* \"#utility.yul\":20778:22173   */\n    tag_104:\n        /* \"#utility.yul\":20895:20932   */\n      tag_401\n        /* \"#utility.yul\":20928:20931   */\n      dup3\n        /* \"#utility.yul\":20895:20932   */\n      tag_145\n      jump\t// in\n    tag_401:\n        /* \"#utility.yul\":20997:21015   */\n      0xffffffffffffffff\n        /* \"#utility.yul\":20989:20995   */\n      dup2\n        /* \"#utility.yul\":20986:21016   */\n      gt\n        /* \"#utility.yul\":20983:21039   */\n      iszero\n      tag_402\n      jumpi\n        /* \"#utility.yul\":21019:21037   */\n      tag_403\n      tag_125\n      jump\t// in\n    tag_403:\n        /* \"#utility.yul\":20983:21039   */\n    tag_402:\n        /* \"#utility.yul\":21063:21101   */\n      tag_404\n        /* \"#utility.yul\":21095:21099   */\n      dup3\n        /* \"#utility.yul\":21089:21100   */\n      sload\n        /* \"#utility.yul\":21063:21101   */\n      tag_62\n      jump\t// in\n    tag_404:\n        /* \"#utility.yul\":21148:21215   */\n      tag_405\n        /* \"#utility.yul\":21208:21214   */\n      dup3\n        /* \"#utility.yul\":21200:21206   */\n      dup3\n        /* \"#utility.yul\":21194:21198   */\n      dup6\n        /* \"#utility.yul\":21148:21215   */\n      tag_174\n      jump\t// in\n    tag_405:\n        /* \"#utility.yul\":21242:21243   */\n      0x00\n        /* \"#utility.yul\":21266:21270   */\n      0x20\n        /* \"#utility.yul\":21253:21270   */\n      swap1\n      pop\n        /* \"#utility.yul\":21298:21300   */\n      0x1f\n        /* \"#utility.yul\":21290:21296   */\n      dup4\n        /* \"#utility.yul\":21287:21301   */\n      gt\n        /* \"#utility.yul\":21315:21316   */\n      0x01\n        /* \"#utility.yul\":21310:21928   */\n      dup2\n      eq\n      tag_407\n      jumpi\n        /* \"#utility.yul\":21972:21973   */\n      0x00\n        /* \"#utility.yul\":21989:21995   */\n      dup5\n        /* \"#utility.yul\":21986:22063   */\n      iszero\n      tag_408\n      jumpi\n        /* \"#utility.yul\":22038:22047   */\n      dup3\n        /* \"#utility.yul\":22033:22036   */\n      dup8\n        /* \"#utility.yul\":22029:22048   */\n      add\n        /* \"#utility.yul\":22023:22049   */\n      mload\n        /* \"#utility.yul\":22014:22049   */\n      swap1\n      pop\n        /* \"#utility.yul\":21986:22063   */\n    tag_408:\n        /* \"#utility.yul\":22089:22156   */\n      tag_409\n        /* \"#utility.yul\":22149:22155   */\n      dup6\n        /* \"#utility.yul\":22142:22147   */\n      dup3\n        /* \"#utility.yul\":22089:22156   */\n      tag_177\n      jump\t// in\n    tag_409:\n        /* \"#utility.yul\":22083:22087   */\n      dup7\n        /* \"#utility.yul\":22076:22157   */\n      sstore\n        /* \"#utility.yul\":21945:22167   */\n      pop\n        /* \"#utility.yul\":21280:22167   */\n      jump(tag_406)\n        /* \"#utility.yul\":21310:21928   */\n    tag_407:\n        /* \"#utility.yul\":21362:21366   */\n      0x1f\n        /* \"#utility.yul\":21358:21367   */\n      not\n        /* \"#utility.yul\":21350:21356   */\n      dup5\n        /* \"#utility.yul\":21346:21368   */\n      and\n        /* \"#utility.yul\":21396:21433   */\n      tag_410\n        /* \"#utility.yul\":21428:21432   */\n      dup7\n        /* \"#utility.yul\":21396:21433   */\n      tag_163\n      jump\t// in\n    tag_410:\n        /* \"#utility.yul\":21455:21456   */\n      0x00\n        /* \"#utility.yul\":21469:21677   */\n    tag_411:\n        /* \"#utility.yul\":21483:21490   */\n      dup3\n        /* \"#utility.yul\":21480:21481   */\n      dup2\n        /* \"#utility.yul\":21477:21491   */\n      lt\n        /* \"#utility.yul\":21469:21677   */\n      iszero\n      tag_413\n      jumpi\n        /* \"#utility.yul\":21562:21571   */\n      dup5\n        /* \"#utility.yul\":21557:21560   */\n      dup10\n        /* \"#utility.yul\":21553:21572   */\n      add\n        /* \"#utility.yul\":21547:21573   */\n      mload\n        /* \"#utility.yul\":21539:21545   */\n      dup3\n        /* \"#utility.yul\":21532:21574   */\n      sstore\n        /* \"#utility.yul\":21613:21614   */\n      0x01\n        /* \"#utility.yul\":21605:21611   */\n      dup3\n        /* \"#utility.yul\":21601:21615   */\n      add\n        /* \"#utility.yul\":21591:21615   */\n      swap2\n      pop\n        /* \"#utility.yul\":21660:21662   */\n      0x20\n        /* \"#utility.yul\":21649:21658   */\n      dup6\n        /* \"#utility.yul\":21645:21663   */\n      add\n        /* \"#utility.yul\":21632:21663   */\n      swap5\n      pop\n        /* \"#utility.yul\":21506:21510   */\n      0x20\n        /* \"#utility.yul\":21503:21504   */\n      dup2\n        /* \"#utility.yul\":21499:21511   */\n      add\n        /* \"#utility.yul\":21494:21511   */\n      swap1\n      pop\n        /* \"#utility.yul\":21469:21677   */\n      jump(tag_411)\n    tag_413:\n        /* \"#utility.yul\":21705:21711   */\n      dup7\n        /* \"#utility.yul\":21696:21703   */\n      dup4\n        /* \"#utility.yul\":21693:21712   */\n      lt\n        /* \"#utility.yul\":21690:21869   */\n      iszero\n      tag_414\n      jumpi\n        /* \"#utility.yul\":21763:21772   */\n      dup5\n        /* \"#utility.yul\":21758:21761   */\n      dup10\n        /* \"#utility.yul\":21754:21773   */\n      add\n        /* \"#utility.yul\":21748:21774   */\n      mload\n        /* \"#utility.yul\":21806:21854   */\n      tag_415\n        /* \"#utility.yul\":21848:21852   */\n      0x1f\n        /* \"#utility.yul\":21840:21846   */\n      dup10\n        /* \"#utility.yul\":21836:21853   */\n      and\n        /* \"#utility.yul\":21825:21834   */\n      dup3\n        /* \"#utility.yul\":21806:21854   */\n      tag_176\n      jump\t// in\n    tag_415:\n        /* \"#utility.yul\":21798:21804   */\n      dup4\n        /* \"#utility.yul\":21791:21855   */\n      sstore\n        /* \"#utility.yul\":21713:21869   */\n      pop\n        /* \"#utility.yul\":21690:21869   */\n    tag_414:\n        /* \"#utility.yul\":21915:21916   */\n      0x01\n        /* \"#utility.yul\":21911:21912   */\n      0x02\n        /* \"#utility.yul\":21903:21909   */\n      dup9\n        /* \"#utility.yul\":21899:21913   */\n      mul\n        /* \"#utility.yul\":21895:21917   */\n      add\n        /* \"#utility.yul\":21889:21893   */\n      dup9\n        /* \"#utility.yul\":21882:21918   */\n      sstore\n        /* \"#utility.yul\":21317:21928   */\n      pop\n      pop\n      pop\n        /* \"#utility.yul\":21280:22167   */\n    tag_406:\n      pop\n        /* \"#utility.yul\":20870:22173   */\n      pop\n      pop\n      pop\n        /* \"#utility.yul\":20778:22173   */\n      pop\n      pop\n      jump\t// out\n\n    auxdata: 0xa2646970667358221220deb01987f396a8cc46ef049afb670083d595b48f6fcadecdae7b93901d07a37364736f6c634300081a0033\n}\n",
				"bytecode": {
					"linkReferences": {},
					"object": "60806040526004600155348015610014575f80fd5b505f61002461009e60201b60201c565b908060018154018082558091505060019003905f5260205f2090600602015f909190919091505f820151815f01556020820151816001015560408201518160020190805190602001906100789291906101c3565b50606082015181600301556080820151816004015560a082015181600501555050610775565b6100a661021a565b6040518060c001604052805f81526020014281526020015f67ffffffffffffffff8111156100d7576100d66102cc565b5b60405190808252806020026020018201604052801561010a57816020015b60608152602001906001900390816100f55790505b5081526020015f801b815260200161017a5f425f67ffffffffffffffff811115610137576101366102cc565b5b60405190808252806020026020018201604052801561016a57816020015b60608152602001906001900390816101555790505b505f801b5f61018860201b60201c565b81526020015f815250905090565b5f85858585856040516020016101a2959493929190610454565b60405160208183030381529060405280519060200120905095945050505050565b828054828255905f5260205f20908101928215610209579160200282015b828111156102085782518290816101f891906106a6565b50916020019190600101906101e1565b5b5090506102169190610251565b5090565b6040518060c001604052805f81526020015f8152602001606081526020015f80191681526020015f80191681526020015f81525090565b5b80821115610270575f81816102679190610274565b50600101610252565b5090565b508054610280906104d9565b5f825580601f1061029157506102ae565b601f0160209004905f5260205f20908101906102ad91906102b1565b5b50565b5b808211156102c8575f815f9055506001016102b2565b5090565b7f4e487b71000000000000000000000000000000000000000000000000000000005f52604160045260245ffd5b5f819050919050565b61030b816102f9565b82525050565b5f81519050919050565b5f82825260208201905092915050565b5f819050602082019050919050565b5f81519050919050565b5f82825260208201905092915050565b8281835e5f83830152505050565b5f601f19601f8301169050919050565b5f61037c8261033a565b6103868185610344565b9350610396818560208601610354565b61039f81610362565b840191505092915050565b5f6103b58383610372565b905092915050565b5f602082019050919050565b5f6103d382610311565b6103dd818561031b565b9350836020820285016103ef8561032b565b805f5b8581101561042a578484038952815161040b85826103aa565b9450610416836103bd565b925060208a019950506001810190506103f2565b50829750879550505050505092915050565b5f819050919050565b61044e8161043c565b82525050565b5f60a0820190506104675f830188610302565b6104746020830187610302565b818103604083015261048681866103c9565b90506104956060830185610445565b6104a26080830184610302565b9695505050505050565b7f4e487b71000000000000000000000000000000000000000000000000000000005f52602260045260245ffd5b5f60028204905060018216806104f057607f821691505b602082108103610503576105026104ac565b5b50919050565b5f819050815f5260205f209050919050565b5f6020601f8301049050919050565b5f82821b905092915050565b5f600883026105657fffffffffffffffffffffffffffffffffffffffffffffffffffffffffffffffff8261052a565b61056f868361052a565b95508019841693508086168417925050509392505050565b5f819050919050565b5f6105aa6105a56105a0846102f9565b610587565b6102f9565b9050919050565b5f819050919050565b6105c383610590565b6105d76105cf826105b1565b848454610536565b825550505050565b5f90565b6105eb6105df565b6105f68184846105ba565b505050565b5b818110156106195761060e5f826105e3565b6001810190506105fc565b5050565b601f82111561065e5761062f81610509565b6106388461051b565b81016020851015610647578190505b61065b6106538561051b565b8301826105fb565b50505b505050565b5f82821c905092915050565b5f61067e5f1984600802610663565b1980831691505092915050565b5f610696838361066f565b9150826002028217905092915050565b6106af8261033a565b67ffffffffffffffff8111156106c8576106c76102cc565b5b6106d282546104d9565b6106dd82828561061d565b5f60209050601f83116001811461070e575f84156106fc578287015190505b610706858261068b565b86555061076d565b601f19841661071c86610509565b5f5b828110156107435784890151825560018201915060208501945060208101905061071e565b86831015610760578489015161075c601f89168261066f565b8355505b6001600288020188555050505b505050505050565b6113ba806107825f395ff3fe608060405234801561000f575f80fd5b5060043610610055575f3560e01c806319cae46214610059578063450c624e146100775780635852cc0c1461009357806361d6f78a146100c7578063d8af642c146100e5575b5f80fd5b610061610103565b60405161006e9190610801565b60405180910390f35b610091600480360381019061008c9190610a49565b610109565b005b6100ad60048036038101906100a89190610aba565b61022f565b6040516100be959493929190610afd565b60405180910390f35b6100cf61026f565b6040516100dc9190610d0d565b60405180910390f35b6100ed6103bb565b6040516100fa9190610d47565b60405180910390f35b60015481565b5f61011261026f565b90505f6001825f01516101259190610d8d565b90505f4290505f836080015190505f805b6001156101835761014a85858986866106a5565b905060015461010061015c9190610dc0565b60026101689190610f22565b815f1c1061018357818061017b90610f6c565b925050610136565b5f6040518060c0016040528087815260200186815260200189815260200185815260200183815260200184815250908060018154018082558091505060019003905f5260205f2090600602015f909190919091505f820151815f01556020820151816001015560408201518160020190805190602001906102059291906106e0565b50606082015181600301556080820151816004015560a08201518160050155505050505050505050565b5f818154811061023d575f80fd5b905f5260205f2090600602015f91509050805f0154908060010154908060030154908060040154908060050154905085565b610277610737565b5f60015f805490506102899190610dc0565b8154811061029a57610299610fb3565b5b905f5260205f2090600602016040518060c00160405290815f82015481526020016001820154815260200160028201805480602002602001604051908101604052809291908181526020015f905b82821015610390578382905f5260205f200180546103059061100d565b80601f01602080910402602001604051908101604052809291908181526020018280546103319061100d565b801561037c5780601f106103535761010080835404028352916020019161037c565b820191905f5260205f20905b81548152906001019060200180831161035f57829003601f168201915b5050505050815260200190600101906102e8565b5050505081526020016003820154815260200160048201548152602001600582015481525050905090565b5f80600190505b5f8054905081101561069c575f8082815481106103e2576103e1610fb3565b5b905f5260205f2090600602016040518060c00160405290815f82015481526020016001820154815260200160028201805480602002602001604051908101604052809291908181526020015f905b828210156104d8578382905f5260205f2001805461044d9061100d565b80601f01602080910402602001604051908101604052809291908181526020018280546104799061100d565b80156104c45780601f1061049b576101008083540402835291602001916104c4565b820191905f5260205f20905b8154815290600101906020018083116104a757829003601f168201915b505050505081526020019060010190610430565b505050508152602001600382015481526020016004820154815260200160058201548152505090505f8060018461050f9190610dc0565b815481106105205761051f610fb3565b5b905f5260205f2090600602016040518060c00160405290815f82015481526020016001820154815260200160028201805480602002602001604051908101604052809291908181526020015f905b82821015610616578382905f5260205f2001805461058b9061100d565b80601f01602080910402602001604051908101604052809291908181526020018280546105b79061100d565b80156106025780601f106105d957610100808354040283529160200191610602565b820191905f5260205f20905b8154815290600101906020018083116105e557829003601f168201915b50505050508152602001906001019061056e565b5050505081526020016003820154815260200160048201548152602001600582015481525050905061065e825f01518360200151846040015185606001518660a001516106a5565b826080015114610673575f93505050506106a2565b806080015182606001511461068d575f93505050506106a2565b505080806001019150506103c2565b50600190505b90565b5f85858585856040516020016106bf9594939291906110c0565b60405160208183030381529060405280519060200120905095945050505050565b828054828255905f5260205f20908101928215610726579160200282015b8281111561072557825182908161071591906112b5565b50916020019190600101906106fe565b5b509050610733919061076e565b5090565b6040518060c001604052805f81526020015f8152602001606081526020015f80191681526020015f80191681526020015f81525090565b5b8082111561078d575f81816107849190610791565b5060010161076f565b5090565b50805461079d9061100d565b5f825580601f106107ae57506107cb565b601f0160209004905f5260205f20908101906107ca91906107ce565b5b50565b5b808211156107e5575f815f9055506001016107cf565b5090565b5f819050919050565b6107fb816107e9565b82525050565b5f6020820190506108145f8301846107f2565b92915050565b5f604051905090565b5f80fd5b5f80fd5b5f80fd5b5f601f19601f8301169050919050565b7f4e487b71000000000000000000000000000000000000000000000000000000005f52604160045260245ffd5b6108758261082f565b810181811067ffffffffffffffff821117156108945761089361083f565b5b80604052505050565b5f6108a661081a565b90506108b2828261086c565b919050565b5f67ffffffffffffffff8211156108d1576108d061083f565b5b602082029050602081019050919050565b5f80fd5b5f80fd5b5f67ffffffffffffffff8211156109045761090361083f565b5b61090d8261082f565b9050602081019050919050565b828183375f83830152505050565b5f61093a610935846108ea565b61089d565b905082815260208101848484011115610956576109556108e6565b5b61096184828561091a565b509392505050565b5f82601f83011261097d5761097c61082b565b5b813561098d848260208601610928565b91505092915050565b5f6109a86109a3846108b7565b61089d565b905080838252602082019050602084028301858111156109cb576109ca6108e2565b5b835b81811015610a1257803567ffffffffffffffff8111156109f0576109ef61082b565b5b8086016109fd8982610969565b855260208501945050506020810190506109cd565b5050509392505050565b5f82601f830112610a3057610a2f61082b565b5b8135610a40848260208601610996565b91505092915050565b5f60208284031215610a5e57610a5d610823565b5b5f82013567ffffffffffffffff811115610a7b57610a7a610827565b5b610a8784828501610a1c565b91505092915050565b610a99816107e9565b8114610aa3575f80fd5b50565b5f81359050610ab481610a90565b92915050565b5f60208284031215610acf57610ace610823565b5b5f610adc84828501610aa6565b91505092915050565b5f819050919050565b610af781610ae5565b82525050565b5f60a082019050610b105f8301886107f2565b610b1d60208301876107f2565b610b2a6040830186610aee565b610b376060830185610aee565b610b4460808301846107f2565b9695505050505050565b610b57816107e9565b82525050565b5f81519050919050565b5f82825260208201905092915050565b5f819050602082019050919050565b5f81519050919050565b5f82825260208201905092915050565b8281835e5f83830152505050565b5f610bb882610b86565b610bc28185610b90565b9350610bd2818560208601610ba0565b610bdb8161082f565b840191505092915050565b5f610bf18383610bae565b905092915050565b5f602082019050919050565b5f610c0f82610b5d565b610c198185610b67565b935083602082028501610c2b85610b77565b805f5b85811015610c665784840389528151610c478582610be6565b9450610c5283610bf9565b925060208a01995050600181019050610c2e565b50829750879550505050505092915050565b610c8181610ae5565b82525050565b5f60c083015f830151610c9c5f860182610b4e565b506020830151610caf6020860182610b4e565b5060408301518482036040860152610cc78282610c05565b9150506060830151610cdc6060860182610c78565b506080830151610cef6080860182610c78565b5060a0830151610d0260a0860182610b4e565b508091505092915050565b5f6020820190508181035f830152610d258184610c87565b905092915050565b5f8115159050919050565b610d4181610d2d565b82525050565b5f602082019050610d5a5f830184610d38565b92915050565b7f4e487b71000000000000000000000000000000000000000000000000000000005f52601160045260245ffd5b5f610d97826107e9565b9150610da2836107e9565b9250828201905080821115610dba57610db9610d60565b5b92915050565b5f610dca826107e9565b9150610dd5836107e9565b9250828203905081811115610ded57610dec610d60565b5b92915050565b5f8160011c9050919050565b5f808291508390505b6001851115610e4857808604811115610e2457610e23610d60565b5b6001851615610e335780820291505b8081029050610e4185610df3565b9450610e08565b94509492505050565b5f82610e605760019050610f1b565b81610e6d575f9050610f1b565b8160018114610e835760028114610e8d57610ebc565b6001915050610f1b565b60ff841115610e9f57610e9e610d60565b5b8360020a915084821115610eb657610eb5610d60565b5b50610f1b565b5060208310610133831016604e8410600b8410161715610ef15782820a905083811115610eec57610eeb610d60565b5b610f1b565b610efe8484846001610dff565b92509050818404811115610f1557610f14610d60565b5b81810290505b9392505050565b5f610f2c826107e9565b9150610f37836107e9565b9250610f647fffffffffffffffffffffffffffffffffffffffffffffffffffffffffffffffff8484610e51565b905092915050565b5f610f76826107e9565b91507fffffffffffffffffffffffffffffffffffffffffffffffffffffffffffffffff8203610fa857610fa7610d60565b5b600182019050919050565b7f4e487b71000000000000000000000000000000000000000000000000000000005f52603260045260245ffd5b7f4e487b71000000000000000000000000000000000000000000000000000000005f52602260045260245ffd5b5f600282049050600182168061102457607f821691505b60208210810361103757611036610fe0565b5b50919050565b5f82825260208201905092915050565b5f61105782610b5d565b611061818561103d565b93508360208202850161107385610b77565b805f5b858110156110ae578484038952815161108f8582610be6565b945061109a83610bf9565b925060208a01995050600181019050611076565b50829750879550505050505092915050565b5f60a0820190506110d35f8301886107f2565b6110e060208301876107f2565b81810360408301526110f2818661104d565b90506111016060830185610aee565b61110e60808301846107f2565b9695505050505050565b5f819050815f5260205f209050919050565b5f6020601f8301049050919050565b5f82821b905092915050565b5f600883026111747fffffffffffffffffffffffffffffffffffffffffffffffffffffffffffffffff82611139565b61117e8683611139565b95508019841693508086168417925050509392505050565b5f819050919050565b5f6111b96111b46111af846107e9565b611196565b6107e9565b9050919050565b5f819050919050565b6111d28361119f565b6111e66111de826111c0565b848454611145565b825550505050565b5f90565b6111fa6111ee565b6112058184846111c9565b505050565b5b818110156112285761121d5f826111f2565b60018101905061120b565b5050565b601f82111561126d5761123e81611118565b6112478461112a565b81016020851015611256578190505b61126a6112628561112a565b83018261120a565b50505b505050565b5f82821c905092915050565b5f61128d5f1984600802611272565b1980831691505092915050565b5f6112a5838361127e565b9150826002028217905092915050565b6112be82610b86565b67ffffffffffffffff8111156112d7576112d661083f565b5b6112e1825461100d565b6112ec82828561122c565b5f60209050601f83116001811461131d575f841561130b578287015190505b611315858261129a565b86555061137c565b601f19841661132b86611118565b5f5b828110156113525784890151825560018201915060208501945060208101905061132d565b8683101561136f578489015161136b601f89168261127e565b8355505b6001600288020188555050505b50505050505056fea2646970667358221220deb01987f396a8cc46ef049afb670083d595b48f6fcadecdae7b93901d07a37364736f6c634300081a0033",
					"opcodes": "PUSH1 0x80 PUSH1 0x40 MSTORE PUSH1 0x4 PUSH1 0x1 SSTORE CALLVALUE DUP1 ISZERO PUSH2 0x14 JUMPI PUSH0 DUP1 REVERT JUMPDEST POP PUSH0 PUSH2 0x24 PUSH2 0x9E PUSH1 0x20 SHL PUSH1 0x20 SHR JUMP JUMPDEST SWAP1 DUP1 PUSH1 0x1 DUP2 SLOAD ADD DUP1 DUP3 SSTORE DUP1 SWAP2 POP POP PUSH1 0x1 SWAP1 SUB SWAP1 PUSH0 MSTORE PUSH1 0x20 PUSH0 KECCAK256 SWAP1 PUSH1 0x6 MUL ADD PUSH0 SWAP1 SWAP2 SWAP1 SWAP2 SWAP1 SWAP2 POP PUSH0 DUP3 ADD MLOAD DUP2 PUSH0 ADD SSTORE PUSH1 0x20 DUP3 ADD MLOAD DUP2 PUSH1 0x1 ADD SSTORE PUSH1 0x40 DUP3 ADD MLOAD DUP2 PUSH1 0x2 ADD SWAP1 DUP1 MLOAD SWAP1 PUSH1 0x20 ADD SWAP1 PUSH2 0x78 SWAP3 SWAP2 SWAP1 PUSH2 0x1C3 JUMP JUMPDEST POP PUSH1 0x60 DUP3 ADD MLOAD DUP2 PUSH1 0x3 ADD SSTORE PUSH1 0x80 DUP3 ADD MLOAD DUP2 PUSH1 0x4 ADD SSTORE PUSH1 0xA0 DUP3 ADD MLOAD DUP2 PUSH1 0x5 ADD SSTORE POP POP PUSH2 0x775 JUMP JUMPDEST PUSH2 0xA6 PUSH2 0x21A JUMP JUMPDEST PUSH1 0x40 MLOAD DUP1 PUSH1 0xC0 ADD PUSH1 0x40 MSTORE DUP1 PUSH0 DUP2 MSTORE PUSH1 0x20 ADD TIMESTAMP DUP2 MSTORE PUSH1 0x20 ADD PUSH0 PUSH8 0xFFFFFFFFFFFFFFFF DUP2 GT ISZERO PUSH2 0xD7 JUMPI PUSH2 0xD6 PUSH2 0x2CC JUMP JUMPDEST JUMPDEST PUSH1 0x40 MLOAD SWAP1 DUP1 DUP3 MSTORE DUP1 PUSH1 0x20 MUL PUSH1 0x20 ADD DUP3 ADD PUSH1 0x40 MSTORE DUP1 ISZERO PUSH2 0x10A JUMPI DUP2 PUSH1 0x20 ADD JUMPDEST PUSH1 0x60 DUP2 MSTORE PUSH1 0x20 ADD SWAP1 PUSH1 0x1 SWAP1 SUB SWAP1 DUP2 PUSH2 0xF5 JUMPI SWAP1 POP JUMPDEST POP DUP2 MSTORE PUSH1 0x20 ADD PUSH0 DUP1 SHL DUP2 MSTORE PUSH1 0x20 ADD PUSH2 0x17A PUSH0 TIMESTAMP PUSH0 PUSH8 0xFFFFFFFFFFFFFFFF DUP2 GT ISZERO PUSH2 0x137 JUMPI PUSH2 0x136 PUSH2 0x2CC JUMP JUMPDEST JUMPDEST PUSH1 0x40 MLOAD SWAP1 DUP1 DUP3 MSTORE DUP1 PUSH1 0x20 MUL PUSH1 0x20 ADD DUP3 ADD PUSH1 0x40 MSTORE DUP1 ISZERO PUSH2 0x16A JUMPI DUP2 PUSH1 0x20 ADD JUMPDEST PUSH1 0x60 DUP2 MSTORE PUSH1 0x20 ADD SWAP1 PUSH1 0x1 SWAP1 SUB SWAP1 DUP2 PUSH2 0x155 JUMPI SWAP1 POP JUMPDEST POP PUSH0 DUP1 SHL PUSH0 PUSH2 0x188 PUSH1 0x20 SHL PUSH1 0x20 SHR JUMP JUMPDEST DUP2 MSTORE PUSH1 0x20 ADD PUSH0 DUP2 MSTORE POP SWAP1 POP SWAP1 JUMP JUMPDEST PUSH0 DUP6 DUP6 DUP6 DUP6 DUP6 PUSH1 0x40 MLOAD PUSH1 0x20 ADD PUSH2 0x1A2 SWAP6 SWAP5 SWAP4 SWAP3 SWAP2 SWAP1 PUSH2 0x454 JUMP JUMPDEST PUSH1 0x40 MLOAD PUSH1 0x20 DUP2 DUP4 SUB SUB DUP2 MSTORE SWAP1 PUSH1 0x40 MSTORE DUP1 MLOAD SWAP1 PUSH1 0x20 ADD KECCAK256 SWAP1 POP SWAP6 SWAP5 POP POP POP POP POP JUMP JUMPDEST DUP3 DUP1 SLOAD DUP3 DUP3 SSTORE SWAP1 PUSH0 MSTORE PUSH1 0x20 PUSH0 KECCAK256 SWAP1 DUP2 ADD SWAP3 DUP3 ISZERO PUSH2 0x209 JUMPI SWAP2 PUSH1 0x20 MUL DUP3 ADD JUMPDEST DUP3 DUP2 GT ISZERO PUSH2 0x208 JUMPI DUP3 MLOAD DUP3 SWAP1 DUP2 PUSH2 0x1F8 SWAP2 SWAP1 PUSH2 0x6A6 JUMP JUMPDEST POP SWAP2 PUSH1 0x20 ADD SWAP2 SWAP1 PUSH1 0x1 ADD SWAP1 PUSH2 0x1E1 JUMP JUMPDEST JUMPDEST POP SWAP1 POP PUSH2 0x216 SWAP2 SWAP1 PUSH2 0x251 JUMP JUMPDEST POP SWAP1 JUMP JUMPDEST PUSH1 0x40 MLOAD DUP1 PUSH1 0xC0 ADD PUSH1 0x40 MSTORE DUP1 PUSH0 DUP2 MSTORE PUSH1 0x20 ADD PUSH0 DUP2 MSTORE PUSH1 0x20 ADD PUSH1 0x60 DUP2 MSTORE PUSH1 0x20 ADD PUSH0 DUP1 NOT AND DUP2 MSTORE PUSH1 0x20 ADD PUSH0 DUP1 NOT AND DUP2 MSTORE PUSH1 0x20 ADD PUSH0 DUP2 MSTORE POP SWAP1 JUMP JUMPDEST JUMPDEST DUP1 DUP3 GT ISZERO PUSH2 0x270 JUMPI PUSH0 DUP2 DUP2 PUSH2 0x267 SWAP2 SWAP1 PUSH2 0x274 JUMP JUMPDEST POP PUSH1 0x1 ADD PUSH2 0x252 JUMP JUMPDEST POP SWAP1 JUMP JUMPDEST POP DUP1 SLOAD PUSH2 0x280 SWAP1 PUSH2 0x4D9 JUMP JUMPDEST PUSH0 DUP3 SSTORE DUP1 PUSH1 0x1F LT PUSH2 0x291 JUMPI POP PUSH2 0x2AE JUMP JUMPDEST PUSH1 0x1F ADD PUSH1 0x20 SWAP1 DIV SWAP1 PUSH0 MSTORE PUSH1 0x20 PUSH0 KECCAK256 SWAP1 DUP2 ADD SWAP1 PUSH2 0x2AD SWAP2 SWAP1 PUSH2 0x2B1 JUMP JUMPDEST JUMPDEST POP JUMP JUMPDEST JUMPDEST DUP1 DUP3 GT ISZERO PUSH2 0x2C8 JUMPI PUSH0 DUP2 PUSH0 SWAP1 SSTORE POP PUSH1 0x1 ADD PUSH2 0x2B2 JUMP JUMPDEST POP SWAP1 JUMP JUMPDEST PUSH32 0x4E487B7100000000000000000000000000000000000000000000000000000000 PUSH0 MSTORE PUSH1 0x41 PUSH1 0x4 MSTORE PUSH1 0x24 PUSH0 REVERT JUMPDEST PUSH0 DUP2 SWAP1 POP SWAP2 SWAP1 POP JUMP JUMPDEST PUSH2 0x30B DUP2 PUSH2 0x2F9 JUMP JUMPDEST DUP3 MSTORE POP POP JUMP JUMPDEST PUSH0 DUP2 MLOAD SWAP1 POP SWAP2 SWAP1 POP JUMP JUMPDEST PUSH0 DUP3 DUP3 MSTORE PUSH1 0x20 DUP3 ADD SWAP1 POP SWAP3 SWAP2 POP POP JUMP JUMPDEST PUSH0 DUP2 SWAP1 POP PUSH1 0x20 DUP3 ADD SWAP1 POP SWAP2 SWAP1 POP JUMP JUMPDEST PUSH0 DUP2 MLOAD SWAP1 POP SWAP2 SWAP1 POP JUMP JUMPDEST PUSH0 DUP3 DUP3 MSTORE PUSH1 0x20 DUP3 ADD SWAP1 POP SWAP3 SWAP2 POP POP JUMP JUMPDEST DUP3 DUP2 DUP4 MCOPY PUSH0 DUP4 DUP4 ADD MSTORE POP POP POP JUMP JUMPDEST PUSH0 PUSH1 0x1F NOT PUSH1 0x1F DUP4 ADD AND SWAP1 POP SWAP2 SWAP1 POP JUMP JUMPDEST PUSH0 PUSH2 0x37C DUP3 PUSH2 0x33A JUMP JUMPDEST PUSH2 0x386 DUP2 DUP6 PUSH2 0x344 JUMP JUMPDEST SWAP4 POP PUSH2 0x396 DUP2 DUP6 PUSH1 0x20 DUP7 ADD PUSH2 0x354 JUMP JUMPDEST PUSH2 0x39F DUP2 PUSH2 0x362 JUMP JUMPDEST DUP5 ADD SWAP2 POP POP SWAP3 SWAP2 POP POP JUMP JUMPDEST PUSH0 PUSH2 0x3B5 DUP4 DUP4 PUSH2 0x372 JUMP JUMPDEST SWAP1 POP SWAP3 SWAP2 POP POP JUMP JUMPDEST PUSH0 PUSH1 0x20 DUP3 ADD SWAP1 POP SWAP2 SWAP1 POP JUMP JUMPDEST PUSH0 PUSH2 0x3D3 DUP3 PUSH2 0x311 JUMP JUMPDEST PUSH2 0x3DD DUP2 DUP6 PUSH2 0x31B JUMP JUMPDEST SWAP4 POP DUP4 PUSH1 0x20 DUP3 MUL DUP6 ADD PUSH2 0x3EF DUP6 PUSH2 0x32B JUMP JUMPDEST DUP1 PUSH0 JUMPDEST DUP6 DUP2 LT ISZERO PUSH2 0x42A JUMPI DUP5 DUP5 SUB DUP10 MSTORE DUP2 MLOAD PUSH2 0x40B DUP6 DUP3 PUSH2 0x3AA JUMP JUMPDEST SWAP5 POP PUSH2 0x416 DUP4 PUSH2 0x3BD JUMP JUMPDEST SWAP3 POP PUSH1 0x20 DUP11 ADD SWAP10 POP POP PUSH1 0x1 DUP2 ADD SWAP1 POP PUSH2 0x3F2 JUMP JUMPDEST POP DUP3 SWAP8 POP DUP8 SWAP6 POP POP POP POP POP POP SWAP3 SWAP2 POP POP JUMP JUMPDEST PUSH0 DUP2 SWAP1 POP SWAP2 SWAP1 POP JUMP JUMPDEST PUSH2 0x44E DUP2 PUSH2 0x43C JUMP JUMPDEST DUP3 MSTORE POP POP JUMP JUMPDEST PUSH0 PUSH1 0xA0 DUP3 ADD SWAP1 POP PUSH2 0x467 PUSH0 DUP4 ADD DUP9 PUSH2 0x302 JUMP JUMPDEST PUSH2 0x474 PUSH1 0x20 DUP4 ADD DUP8 PUSH2 0x302 JUMP JUMPDEST DUP2 DUP2 SUB PUSH1 0x40 DUP4 ADD MSTORE PUSH2 0x486 DUP2 DUP7 PUSH2 0x3C9 JUMP JUMPDEST SWAP1 POP PUSH2 0x495 PUSH1 0x60 DUP4 ADD DUP6 PUSH2 0x445 JUMP JUMPDEST PUSH2 0x4A2 PUSH1 0x80 DUP4 ADD DUP5 PUSH2 0x302 JUMP JUMPDEST SWAP7 SWAP6 POP POP POP POP POP POP JUMP JUMPDEST PUSH32 0x4E487B7100000000000000000000000000000000000000000000000000000000 PUSH0 MSTORE PUSH1 0x22 PUSH1 0x4 MSTORE PUSH1 0x24 PUSH0 REVERT JUMPDEST PUSH0 PUSH1 0x2 DUP3 DIV SWAP1 POP PUSH1 0x1 DUP3 AND DUP1 PUSH2 0x4F0 JUMPI PUSH1 0x7F DUP3 AND SWAP2 POP JUMPDEST PUSH1 0x20 DUP3 LT DUP2 SUB PUSH2 0x503 JUMPI PUSH2 0x502 PUSH2 0x4AC JUMP JUMPDEST JUMPDEST POP SWAP2 SWAP1 POP JUMP JUMPDEST PUSH0 DUP2 SWAP1 POP DUP2 PUSH0 MSTORE PUSH1 0x20 PUSH0 KECCAK256 SWAP1 POP SWAP2 SWAP1 POP JUMP JUMPDEST PUSH0 PUSH1 0x20 PUSH1 0x1F DUP4 ADD DIV SWAP1 POP SWAP2 SWAP1 POP JUMP JUMPDEST PUSH0 DUP3 DUP3 SHL SWAP1 POP SWAP3 SWAP2 POP POP JUMP JUMPDEST PUSH0 PUSH1 0x8 DUP4 MUL PUSH2 0x565 PUSH32 0xFFFFFFFFFFFFFFFFFFFFFFFFFFFFFFFFFFFFFFFFFFFFFFFFFFFFFFFFFFFFFFFF DUP3 PUSH2 0x52A JUMP JUMPDEST PUSH2 0x56F DUP7 DUP4 PUSH2 0x52A JUMP JUMPDEST SWAP6 POP DUP1 NOT DUP5 AND SWAP4 POP DUP1 DUP7 AND DUP5 OR SWAP3 POP POP POP SWAP4 SWAP3 POP POP POP JUMP JUMPDEST PUSH0 DUP2 SWAP1 POP SWAP2 SWAP1 POP JUMP JUMPDEST PUSH0 PUSH2 0x5AA PUSH2 0x5A5 PUSH2 0x5A0 DUP5 PUSH2 0x2F9 JUMP JUMPDEST PUSH2 0x587 JUMP JUMPDEST PUSH2 0x2F9 JUMP JUMPDEST SWAP1 POP SWAP2 SWAP1 POP JUMP JUMPDEST PUSH0 DUP2 SWAP1 POP SWAP2 SWAP1 POP JUMP JUMPDEST PUSH2 0x5C3 DUP4 PUSH2 0x590 JUMP JUMPDEST PUSH2 0x5D7 PUSH2 0x5CF DUP3 PUSH2 0x5B1 JUMP JUMPDEST DUP5 DUP5 SLOAD PUSH2 0x536 JUMP JUMPDEST DUP3 SSTORE POP POP POP POP JUMP JUMPDEST PUSH0 SWAP1 JUMP JUMPDEST PUSH2 0x5EB PUSH2 0x5DF JUMP JUMPDEST PUSH2 0x5F6 DUP2 DUP5 DUP5 PUSH2 0x5BA JUMP JUMPDEST POP POP POP JUMP JUMPDEST JUMPDEST DUP2 DUP2 LT ISZERO PUSH2 0x619 JUMPI PUSH2 0x60E PUSH0 DUP3 PUSH2 0x5E3 JUMP JUMPDEST PUSH1 0x1 DUP2 ADD SWAP1 POP PUSH2 0x5FC JUMP JUMPDEST POP POP JUMP JUMPDEST PUSH1 0x1F DUP3 GT ISZERO PUSH2 0x65E JUMPI PUSH2 0x62F DUP2 PUSH2 0x509 JUMP JUMPDEST PUSH2 0x638 DUP5 PUSH2 0x51B JUMP JUMPDEST DUP2 ADD PUSH1 0x20 DUP6 LT ISZERO PUSH2 0x647 JUMPI DUP2 SWAP1 POP JUMPDEST PUSH2 0x65B PUSH2 0x653 DUP6 PUSH2 0x51B JUMP JUMPDEST DUP4 ADD DUP3 PUSH2 0x5FB JUMP JUMPDEST POP POP JUMPDEST POP POP POP JUMP JUMPDEST PUSH0 DUP3 DUP3 SHR SWAP1 POP SWAP3 SWAP2 POP POP JUMP JUMPDEST PUSH0 PUSH2 0x67E PUSH0 NOT DUP5 PUSH1 0x8 MUL PUSH2 0x663 JUMP JUMPDEST NOT DUP1 DUP4 AND SWAP2 POP POP SWAP3 SWAP2 POP POP JUMP JUMPDEST PUSH0 PUSH2 0x696 DUP4 DUP4 PUSH2 0x66F JUMP JUMPDEST SWAP2 POP DUP3 PUSH1 0x2 MUL DUP3 OR SWAP1 POP SWAP3 SWAP2 POP POP JUMP JUMPDEST PUSH2 0x6AF DUP3 PUSH2 0x33A JUMP JUMPDEST PUSH8 0xFFFFFFFFFFFFFFFF DUP2 GT ISZERO PUSH2 0x6C8 JUMPI PUSH2 0x6C7 PUSH2 0x2CC JUMP JUMPDEST JUMPDEST PUSH2 0x6D2 DUP3 SLOAD PUSH2 0x4D9 JUMP JUMPDEST PUSH2 0x6DD DUP3 DUP3 DUP6 PUSH2 0x61D JUMP JUMPDEST PUSH0 PUSH1 0x20 SWAP1 POP PUSH1 0x1F DUP4 GT PUSH1 0x1 DUP2 EQ PUSH2 0x70E JUMPI PUSH0 DUP5 ISZERO PUSH2 0x6FC JUMPI DUP3 DUP8 ADD MLOAD SWAP1 POP JUMPDEST PUSH2 0x706 DUP6 DUP3 PUSH2 0x68B JUMP JUMPDEST DUP7 SSTORE POP PUSH2 0x76D JUMP JUMPDEST PUSH1 0x1F NOT DUP5 AND PUSH2 0x71C DUP7 PUSH2 0x509 JUMP JUMPDEST PUSH0 JUMPDEST DUP3 DUP2 LT ISZERO PUSH2 0x743 JUMPI DUP5 DUP10 ADD MLOAD DUP3 SSTORE PUSH1 0x1 DUP3 ADD SWAP2 POP PUSH1 0x20 DUP6 ADD SWAP5 POP PUSH1 0x20 DUP2 ADD SWAP1 POP PUSH2 0x71E JUMP JUMPDEST DUP7 DUP4 LT ISZERO PUSH2 0x760 JUMPI DUP5 DUP10 ADD MLOAD PUSH2 0x75C PUSH1 0x1F DUP10 AND DUP3 PUSH2 0x66F JUMP JUMPDEST DUP4 SSTORE POP JUMPDEST PUSH1 0x1 PUSH1 0x2 DUP9 MUL ADD DUP9 SSTORE POP POP POP JUMPDEST POP POP POP POP POP POP JUMP JUMPDEST PUSH2 0x13BA DUP1 PUSH2 0x782 PUSH0 CODECOPY PUSH0 RETURN INVALID PUSH1 0x80 PUSH1 0x40 MSTORE CALLVALUE DUP1 ISZERO PUSH2 0xF JUMPI PUSH0 DUP1 REVERT JUMPDEST POP PUSH1 0x4 CALLDATASIZE LT PUSH2 0x55 JUMPI PUSH0 CALLDATALOAD PUSH1 0xE0 SHR DUP1 PUSH4 0x19CAE462 EQ PUSH2 0x59 JUMPI DUP1 PUSH4 0x450C624E EQ PUSH2 0x77 JUMPI DUP1 PUSH4 0x5852CC0C EQ PUSH2 0x93 JUMPI DUP1 PUSH4 0x61D6F78A EQ PUSH2 0xC7 JUMPI DUP1 PUSH4 0xD8AF642C EQ PUSH2 0xE5 JUMPI JUMPDEST PUSH0 DUP1 REVERT JUMPDEST PUSH2 0x61 PUSH2 0x103 JUMP JUMPDEST PUSH1 0x40 MLOAD PUSH2 0x6E SWAP2 SWAP1 PUSH2 0x801 JUMP JUMPDEST PUSH1 0x40 MLOAD DUP1 SWAP2 SUB SWAP1 RETURN JUMPDEST PUSH2 0x91 PUSH1 0x4 DUP1 CALLDATASIZE SUB DUP2 ADD SWAP1 PUSH2 0x8C SWAP2 SWAP1 PUSH2 0xA49 JUMP JUMPDEST PUSH2 0x109 JUMP JUMPDEST STOP JUMPDEST PUSH2 0xAD PUSH1 0x4 DUP1 CALLDATASIZE SUB DUP2 ADD SWAP1 PUSH2 0xA8 SWAP2 SWAP1 PUSH2 0xABA JUMP JUMPDEST PUSH2 0x22F JUMP JUMPDEST PUSH1 0x40 MLOAD PUSH2 0xBE SWAP6 SWAP5 SWAP4 SWAP3 SWAP2 SWAP1 PUSH2 0xAFD JUMP JUMPDEST PUSH1 0x40 MLOAD DUP1 SWAP2 SUB SWAP1 RETURN JUMPDEST PUSH2 0xCF PUSH2 0x26F JUMP JUMPDEST PUSH1 0x40 MLOAD PUSH2 0xDC SWAP2 SWAP1 PUSH2 0xD0D JUMP JUMPDEST PUSH1 0x40 MLOAD DUP1 SWAP2 SUB SWAP1 RETURN JUMPDEST PUSH2 0xED PUSH2 0x3BB JUMP JUMPDEST PUSH1 0x40 MLOAD PUSH2 0xFA SWAP2 SWAP1 PUSH2 0xD47 JUMP JUMPDEST PUSH1 0x40 MLOAD DUP1 SWAP2 SUB SWAP1 RETURN JUMPDEST PUSH1 0x1 SLOAD DUP2 JUMP JUMPDEST PUSH0 PUSH2 0x112 PUSH2 0x26F JUMP JUMPDEST SWAP1 POP PUSH0 PUSH1 0x1 DUP3 PUSH0 ADD MLOAD PUSH2 0x125 SWAP2 SWAP1 PUSH2 0xD8D JUMP JUMPDEST SWAP1 POP PUSH0 TIMESTAMP SWAP1 POP PUSH0 DUP4 PUSH1 0x80 ADD MLOAD SWAP1 POP PUSH0 DUP1 JUMPDEST PUSH1 0x1 ISZERO PUSH2 0x183 JUMPI PUSH2 0x14A DUP6 DUP6 DUP10 DUP7 DUP7 PUSH2 0x6A5 JUMP JUMPDEST SWAP1 POP PUSH1 0x1 SLOAD PUSH2 0x100 PUSH2 0x15C SWAP2 SWAP1 PUSH2 0xDC0 JUMP JUMPDEST PUSH1 0x2 PUSH2 0x168 SWAP2 SWAP1 PUSH2 0xF22 JUMP JUMPDEST DUP2 PUSH0 SHR LT PUSH2 0x183 JUMPI DUP2 DUP1 PUSH2 0x17B SWAP1 PUSH2 0xF6C JUMP JUMPDEST SWAP3 POP POP PUSH2 0x136 JUMP JUMPDEST PUSH0 PUSH1 0x40 MLOAD DUP1 PUSH1 0xC0 ADD PUSH1 0x40 MSTORE DUP1 DUP8 DUP2 MSTORE PUSH1 0x20 ADD DUP7 DUP2 MSTORE PUSH1 0x20 ADD DUP10 DUP2 MSTORE PUSH1 0x20 ADD DUP6 DUP2 MSTORE PUSH1 0x20 ADD DUP4 DUP2 MSTORE PUSH1 0x20 ADD DUP5 DUP2 MSTORE POP SWAP1 DUP1 PUSH1 0x1 DUP2 SLOAD ADD DUP1 DUP3 SSTORE DUP1 SWAP2 POP POP PUSH1 0x1 SWAP1 SUB SWAP1 PUSH0 MSTORE PUSH1 0x20 PUSH0 KECCAK256 SWAP1 PUSH1 0x6 MUL ADD PUSH0 SWAP1 SWAP2 SWAP1 SWAP2 SWAP1 SWAP2 POP PUSH0 DUP3 ADD MLOAD DUP2 PUSH0 ADD SSTORE PUSH1 0x20 DUP3 ADD MLOAD DUP2 PUSH1 0x1 ADD SSTORE PUSH1 0x40 DUP3 ADD MLOAD DUP2 PUSH1 0x2 ADD SWAP1 DUP1 MLOAD SWAP1 PUSH1 0x20 ADD SWAP1 PUSH2 0x205 SWAP3 SWAP2 SWAP1 PUSH2 0x6E0 JUMP JUMPDEST POP PUSH1 0x60 DUP3 ADD MLOAD DUP2 PUSH1 0x3 ADD SSTORE PUSH1 0x80 DUP3 ADD MLOAD DUP2 PUSH1 0x4 ADD SSTORE PUSH1 0xA0 DUP3 ADD MLOAD DUP2 PUSH1 0x5 ADD SSTORE POP POP POP POP POP POP POP POP POP JUMP JUMPDEST PUSH0 DUP2 DUP2 SLOAD DUP2 LT PUSH2 0x23D JUMPI PUSH0 DUP1 REVERT JUMPDEST SWAP1 PUSH0 MSTORE PUSH1 0x20 PUSH0 KECCAK256 SWAP1 PUSH1 0x6 MUL ADD PUSH0 SWAP2 POP SWAP1 POP DUP1 PUSH0 ADD SLOAD SWAP1 DUP1 PUSH1 0x1 ADD SLOAD SWAP1 DUP1 PUSH1 0x3 ADD SLOAD SWAP1 DUP1 PUSH1 0x4 ADD SLOAD SWAP1 DUP1 PUSH1 0x5 ADD SLOAD SWAP1 POP DUP6 JUMP JUMPDEST PUSH2 0x277 PUSH2 0x737 JUMP JUMPDEST PUSH0 PUSH1 0x1 PUSH0 DUP1 SLOAD SWAP1 POP PUSH2 0x289 SWAP2 SWAP1 PUSH2 0xDC0 JUMP JUMPDEST DUP2 SLOAD DUP2 LT PUSH2 0x29A JUMPI PUSH2 0x299 PUSH2 0xFB3 JUMP JUMPDEST JUMPDEST SWAP1 PUSH0 MSTORE PUSH1 0x20 PUSH0 KECCAK256 SWAP1 PUSH1 0x6 MUL ADD PUSH1 0x40 MLOAD DUP1 PUSH1 0xC0 ADD PUSH1 0x40 MSTORE SWAP1 DUP2 PUSH0 DUP3 ADD SLOAD DUP2 MSTORE PUSH1 0x20 ADD PUSH1 0x1 DUP3 ADD SLOAD DUP2 MSTORE PUSH1 0x20 ADD PUSH1 0x2 DUP3 ADD DUP1 SLOAD DUP1 PUSH1 0x20 MUL PUSH1 0x20 ADD PUSH1 0x40 MLOAD SWAP1 DUP2 ADD PUSH1 0x40 MSTORE DUP1 SWAP3 SWAP2 SWAP1 DUP2 DUP2 MSTORE PUSH1 0x20 ADD PUSH0 SWAP1 JUMPDEST DUP3 DUP3 LT ISZERO PUSH2 0x390 JUMPI DUP4 DUP3 SWAP1 PUSH0 MSTORE PUSH1 0x20 PUSH0 KECCAK256 ADD DUP1 SLOAD PUSH2 0x305 SWAP1 PUSH2 0x100D JUMP JUMPDEST DUP1 PUSH1 0x1F ADD PUSH1 0x20 DUP1 SWAP2 DIV MUL PUSH1 0x20 ADD PUSH1 0x40 MLOAD SWAP1 DUP2 ADD PUSH1 0x40 MSTORE DUP1 SWAP3 SWAP2 SWAP1 DUP2 DUP2 MSTORE PUSH1 0x20 ADD DUP3 DUP1 SLOAD PUSH2 0x331 SWAP1 PUSH2 0x100D JUMP JUMPDEST DUP1 ISZERO PUSH2 0x37C JUMPI DUP1 PUSH1 0x1F LT PUSH2 0x353 JUMPI PUSH2 0x100 DUP1 DUP4 SLOAD DIV MUL DUP4 MSTORE SWAP2 PUSH1 0x20 ADD SWAP2 PUSH2 0x37C JUMP JUMPDEST DUP3 ADD SWAP2 SWAP1 PUSH0 MSTORE PUSH1 0x20 PUSH0 KECCAK256 SWAP1 JUMPDEST DUP2 SLOAD DUP2 MSTORE SWAP1 PUSH1 0x1 ADD SWAP1 PUSH1 0x20 ADD DUP1 DUP4 GT PUSH2 0x35F JUMPI DUP3 SWAP1 SUB PUSH1 0x1F AND DUP3 ADD SWAP2 JUMPDEST POP POP POP POP POP DUP2 MSTORE PUSH1 0x20 ADD SWAP1 PUSH1 0x1 ADD SWAP1 PUSH2 0x2E8 JUMP JUMPDEST POP POP POP POP DUP2 MSTORE PUSH1 0x20 ADD PUSH1 0x3 DUP3 ADD SLOAD DUP2 MSTORE PUSH1 0x20 ADD PUSH1 0x4 DUP3 ADD SLOAD DUP2 MSTORE PUSH1 0x20 ADD PUSH1 0x5 DUP3 ADD SLOAD DUP2 MSTORE POP POP SWAP1 POP SWAP1 JUMP JUMPDEST PUSH0 DUP1 PUSH1 0x1 SWAP1 POP JUMPDEST PUSH0 DUP1 SLOAD SWAP1 POP DUP2 LT ISZERO PUSH2 0x69C JUMPI PUSH0 DUP1 DUP3 DUP2 SLOAD DUP2 LT PUSH2 0x3E2 JUMPI PUSH2 0x3E1 PUSH2 0xFB3 JUMP JUMPDEST JUMPDEST SWAP1 PUSH0 MSTORE PUSH1 0x20 PUSH0 KECCAK256 SWAP1 PUSH1 0x6 MUL ADD PUSH1 0x40 MLOAD DUP1 PUSH1 0xC0 ADD PUSH1 0x40 MSTORE SWAP1 DUP2 PUSH0 DUP3 ADD SLOAD DUP2 MSTORE PUSH1 0x20 ADD PUSH1 0x1 DUP3 ADD SLOAD DUP2 MSTORE PUSH1 0x20 ADD PUSH1 0x2 DUP3 ADD DUP1 SLOAD DUP1 PUSH1 0x20 MUL PUSH1 0x20 ADD PUSH1 0x40 MLOAD SWAP1 DUP2 ADD PUSH1 0x40 MSTORE DUP1 SWAP3 SWAP2 SWAP1 DUP2 DUP2 MSTORE PUSH1 0x20 ADD PUSH0 SWAP1 JUMPDEST DUP3 DUP3 LT ISZERO PUSH2 0x4D8 JUMPI DUP4 DUP3 SWAP1 PUSH0 MSTORE PUSH1 0x20 PUSH0 KECCAK256 ADD DUP1 SLOAD PUSH2 0x44D SWAP1 PUSH2 0x100D JUMP JUMPDEST DUP1 PUSH1 0x1F ADD PUSH1 0x20 DUP1 SWAP2 DIV MUL PUSH1 0x20 ADD PUSH1 0x40 MLOAD SWAP1 DUP2 ADD PUSH1 0x40 MSTORE DUP1 SWAP3 SWAP2 SWAP1 DUP2 DUP2 MSTORE PUSH1 0x20 ADD DUP3 DUP1 SLOAD PUSH2 0x479 SWAP1 PUSH2 0x100D JUMP JUMPDEST DUP1 ISZERO PUSH2 0x4C4 JUMPI DUP1 PUSH1 0x1F LT PUSH2 0x49B JUMPI PUSH2 0x100 DUP1 DUP4 SLOAD DIV MUL DUP4 MSTORE SWAP2 PUSH1 0x20 ADD SWAP2 PUSH2 0x4C4 JUMP JUMPDEST DUP3 ADD SWAP2 SWAP1 PUSH0 MSTORE PUSH1 0x20 PUSH0 KECCAK256 SWAP1 JUMPDEST DUP2 SLOAD DUP2 MSTORE SWAP1 PUSH1 0x1 ADD SWAP1 PUSH1 0x20 ADD DUP1 DUP4 GT PUSH2 0x4A7 JUMPI DUP3 SWAP1 SUB PUSH1 0x1F AND DUP3 ADD SWAP2 JUMPDEST POP POP POP POP POP DUP2 MSTORE PUSH1 0x20 ADD SWAP1 PUSH1 0x1 ADD SWAP1 PUSH2 0x430 JUMP JUMPDEST POP POP POP POP DUP2 MSTORE PUSH1 0x20 ADD PUSH1 0x3 DUP3 ADD SLOAD DUP2 MSTORE PUSH1 0x20 ADD PUSH1 0x4 DUP3 ADD SLOAD DUP2 MSTORE PUSH1 0x20 ADD PUSH1 0x5 DUP3 ADD SLOAD DUP2 MSTORE POP POP SWAP1 POP PUSH0 DUP1 PUSH1 0x1 DUP5 PUSH2 0x50F SWAP2 SWAP1 PUSH2 0xDC0 JUMP JUMPDEST DUP2 SLOAD DUP2 LT PUSH2 0x520 JUMPI PUSH2 0x51F PUSH2 0xFB3 JUMP JUMPDEST JUMPDEST SWAP1 PUSH0 MSTORE PUSH1 0x20 PUSH0 KECCAK256 SWAP1 PUSH1 0x6 MUL ADD PUSH1 0x40 MLOAD DUP1 PUSH1 0xC0 ADD PUSH1 0x40 MSTORE SWAP1 DUP2 PUSH0 DUP3 ADD SLOAD DUP2 MSTORE PUSH1 0x20 ADD PUSH1 0x1 DUP3 ADD SLOAD DUP2 MSTORE PUSH1 0x20 ADD PUSH1 0x2 DUP3 ADD DUP1 SLOAD DUP1 PUSH1 0x20 MUL PUSH1 0x20 ADD PUSH1 0x40 MLOAD SWAP1 DUP2 ADD PUSH1 0x40 MSTORE DUP1 SWAP3 SWAP2 SWAP1 DUP2 DUP2 MSTORE PUSH1 0x20 ADD PUSH0 SWAP1 JUMPDEST DUP3 DUP3 LT ISZERO PUSH2 0x616 JUMPI DUP4 DUP3 SWAP1 PUSH0 MSTORE PUSH1 0x20 PUSH0 KECCAK256 ADD DUP1 SLOAD PUSH2 0x58B SWAP1 PUSH2 0x100D JUMP JUMPDEST DUP1 PUSH1 0x1F ADD PUSH1 0x20 DUP1 SWAP2 DIV MUL PUSH1 0x20 ADD PUSH1 0x40 MLOAD SWAP1 DUP2 ADD PUSH1 0x40 MSTORE DUP1 SWAP3 SWAP2 SWAP1 DUP2 DUP2 MSTORE PUSH1 0x20 ADD DUP3 DUP1 SLOAD PUSH2 0x5B7 SWAP1 PUSH2 0x100D JUMP JUMPDEST DUP1 ISZERO PUSH2 0x602 JUMPI DUP1 PUSH1 0x1F LT PUSH2 0x5D9 JUMPI PUSH2 0x100 DUP1 DUP4 SLOAD DIV MUL DUP4 MSTORE SWAP2 PUSH1 0x20 ADD SWAP2 PUSH2 0x602 JUMP JUMPDEST DUP3 ADD SWAP2 SWAP1 PUSH0 MSTORE PUSH1 0x20 PUSH0 KECCAK256 SWAP1 JUMPDEST DUP2 SLOAD DUP2 MSTORE SWAP1 PUSH1 0x1 ADD SWAP1 PUSH1 0x20 ADD DUP1 DUP4 GT PUSH2 0x5E5 JUMPI DUP3 SWAP1 SUB PUSH1 0x1F AND DUP3 ADD SWAP2 JUMPDEST POP POP POP POP POP DUP2 MSTORE PUSH1 0x20 ADD SWAP1 PUSH1 0x1 ADD SWAP1 PUSH2 0x56E JUMP JUMPDEST POP POP POP POP DUP2 MSTORE PUSH1 0x20 ADD PUSH1 0x3 DUP3 ADD SLOAD DUP2 MSTORE PUSH1 0x20 ADD PUSH1 0x4 DUP3 ADD SLOAD DUP2 MSTORE PUSH1 0x20 ADD PUSH1 0x5 DUP3 ADD SLOAD DUP2 MSTORE POP POP SWAP1 POP PUSH2 0x65E DUP3 PUSH0 ADD MLOAD DUP4 PUSH1 0x20 ADD MLOAD DUP5 PUSH1 0x40 ADD MLOAD DUP6 PUSH1 0x60 ADD MLOAD DUP7 PUSH1 0xA0 ADD MLOAD PUSH2 0x6A5 JUMP JUMPDEST DUP3 PUSH1 0x80 ADD MLOAD EQ PUSH2 0x673 JUMPI PUSH0 SWAP4 POP POP POP POP PUSH2 0x6A2 JUMP JUMPDEST DUP1 PUSH1 0x80 ADD MLOAD DUP3 PUSH1 0x60 ADD MLOAD EQ PUSH2 0x68D JUMPI PUSH0 SWAP4 POP POP POP POP PUSH2 0x6A2 JUMP JUMPDEST POP POP DUP1 DUP1 PUSH1 0x1 ADD SWAP2 POP POP PUSH2 0x3C2 JUMP JUMPDEST POP PUSH1 0x1 SWAP1 POP JUMPDEST SWAP1 JUMP JUMPDEST PUSH0 DUP6 DUP6 DUP6 DUP6 DUP6 PUSH1 0x40 MLOAD PUSH1 0x20 ADD PUSH2 0x6BF SWAP6 SWAP5 SWAP4 SWAP3 SWAP2 SWAP1 PUSH2 0x10C0 JUMP JUMPDEST PUSH1 0x40 MLOAD PUSH1 0x20 DUP2 DUP4 SUB SUB DUP2 MSTORE SWAP1 PUSH1 0x40 MSTORE DUP1 MLOAD SWAP1 PUSH1 0x20 ADD KECCAK256 SWAP1 POP SWAP6 SWAP5 POP POP POP POP POP JUMP JUMPDEST DUP3 DUP1 SLOAD DUP3 DUP3 SSTORE SWAP1 PUSH0 MSTORE PUSH1 0x20 PUSH0 KECCAK256 SWAP1 DUP2 ADD SWAP3 DUP3 ISZERO PUSH2 0x726 JUMPI SWAP2 PUSH1 0x20 MUL DUP3 ADD JUMPDEST DUP3 DUP2 GT ISZERO PUSH2 0x725 JUMPI DUP3 MLOAD DUP3 SWAP1 DUP2 PUSH2 0x715 SWAP2 SWAP1 PUSH2 0x12B5 JUMP JUMPDEST POP SWAP2 PUSH1 0x20 ADD SWAP2 SWAP1 PUSH1 0x1 ADD SWAP1 PUSH2 0x6FE JUMP JUMPDEST JUMPDEST POP SWAP1 POP PUSH2 0x733 SWAP2 SWAP1 PUSH2 0x76E JUMP JUMPDEST POP SWAP1 JUMP JUMPDEST PUSH1 0x40 MLOAD DUP1 PUSH1 0xC0 ADD PUSH1 0x40 MSTORE DUP1 PUSH0 DUP2 MSTORE PUSH1 0x20 ADD PUSH0 DUP2 MSTORE PUSH1 0x20 ADD PUSH1 0x60 DUP2 MSTORE PUSH1 0x20 ADD PUSH0 DUP1 NOT AND DUP2 MSTORE PUSH1 0x20 ADD PUSH0 DUP1 NOT AND DUP2 MSTORE PUSH1 0x20 ADD PUSH0 DUP2 MSTORE POP SWAP1 JUMP JUMPDEST JUMPDEST DUP1 DUP3 GT ISZERO PUSH2 0x78D JUMPI PUSH0 DUP2 DUP2 PUSH2 0x784 SWAP2 SWAP1 PUSH2 0x791 JUMP JUMPDEST POP PUSH1 0x1 ADD PUSH2 0x76F JUMP JUMPDEST POP SWAP1 JUMP JUMPDEST POP DUP1 SLOAD PUSH2 0x79D SWAP1 PUSH2 0x100D JUMP JUMPDEST PUSH0 DUP3 SSTORE DUP1 PUSH1 0x1F LT PUSH2 0x7AE JUMPI POP PUSH2 0x7CB JUMP JUMPDEST PUSH1 0x1F ADD PUSH1 0x20 SWAP1 DIV SWAP1 PUSH0 MSTORE PUSH1 0x20 PUSH0 KECCAK256 SWAP1 DUP2 ADD SWAP1 PUSH2 0x7CA SWAP2 SWAP1 PUSH2 0x7CE JUMP JUMPDEST JUMPDEST POP JUMP JUMPDEST JUMPDEST DUP1 DUP3 GT ISZERO PUSH2 0x7E5 JUMPI PUSH0 DUP2 PUSH0 SWAP1 SSTORE POP PUSH1 0x1 ADD PUSH2 0x7CF JUMP JUMPDEST POP SWAP1 JUMP JUMPDEST PUSH0 DUP2 SWAP1 POP SWAP2 SWAP1 POP JUMP JUMPDEST PUSH2 0x7FB DUP2 PUSH2 0x7E9 JUMP JUMPDEST DUP3 MSTORE POP POP JUMP JUMPDEST PUSH0 PUSH1 0x20 DUP3 ADD SWAP1 POP PUSH2 0x814 PUSH0 DUP4 ADD DUP5 PUSH2 0x7F2 JUMP JUMPDEST SWAP3 SWAP2 POP POP JUMP JUMPDEST PUSH0 PUSH1 0x40 MLOAD SWAP1 POP SWAP1 JUMP JUMPDEST PUSH0 DUP1 REVERT JUMPDEST PUSH0 DUP1 REVERT JUMPDEST PUSH0 DUP1 REVERT JUMPDEST PUSH0 PUSH1 0x1F NOT PUSH1 0x1F DUP4 ADD AND SWAP1 POP SWAP2 SWAP1 POP JUMP JUMPDEST PUSH32 0x4E487B7100000000000000000000000000000000000000000000000000000000 PUSH0 MSTORE PUSH1 0x41 PUSH1 0x4 MSTORE PUSH1 0x24 PUSH0 REVERT JUMPDEST PUSH2 0x875 DUP3 PUSH2 0x82F JUMP JUMPDEST DUP2 ADD DUP2 DUP2 LT PUSH8 0xFFFFFFFFFFFFFFFF DUP3 GT OR ISZERO PUSH2 0x894 JUMPI PUSH2 0x893 PUSH2 0x83F JUMP JUMPDEST JUMPDEST DUP1 PUSH1 0x40 MSTORE POP POP POP JUMP JUMPDEST PUSH0 PUSH2 0x8A6 PUSH2 0x81A JUMP JUMPDEST SWAP1 POP PUSH2 0x8B2 DUP3 DUP3 PUSH2 0x86C JUMP JUMPDEST SWAP2 SWAP1 POP JUMP JUMPDEST PUSH0 PUSH8 0xFFFFFFFFFFFFFFFF DUP3 GT ISZERO PUSH2 0x8D1 JUMPI PUSH2 0x8D0 PUSH2 0x83F JUMP JUMPDEST JUMPDEST PUSH1 0x20 DUP3 MUL SWAP1 POP PUSH1 0x20 DUP2 ADD SWAP1 POP SWAP2 SWAP1 POP JUMP JUMPDEST PUSH0 DUP1 REVERT JUMPDEST PUSH0 DUP1 REVERT JUMPDEST PUSH0 PUSH8 0xFFFFFFFFFFFFFFFF DUP3 GT ISZERO PUSH2 0x904 JUMPI PUSH2 0x903 PUSH2 0x83F JUMP JUMPDEST JUMPDEST PUSH2 0x90D DUP3 PUSH2 0x82F JUMP JUMPDEST SWAP1 POP PUSH1 0x20 DUP2 ADD SWAP1 POP SWAP2 SWAP1 POP JUMP JUMPDEST DUP3 DUP2 DUP4 CALLDATACOPY PUSH0 DUP4 DUP4 ADD MSTORE POP POP POP JUMP JUMPDEST PUSH0 PUSH2 0x93A PUSH2 0x935 DUP5 PUSH2 0x8EA JUMP JUMPDEST PUSH2 0x89D JUMP JUMPDEST SWAP1 POP DUP3 DUP2 MSTORE PUSH1 0x20 DUP2 ADD DUP5 DUP5 DUP5 ADD GT ISZERO PUSH2 0x956 JUMPI PUSH2 0x955 PUSH2 0x8E6 JUMP JUMPDEST JUMPDEST PUSH2 0x961 DUP5 DUP3 DUP6 PUSH2 0x91A JUMP JUMPDEST POP SWAP4 SWAP3 POP POP POP JUMP JUMPDEST PUSH0 DUP3 PUSH1 0x1F DUP4 ADD SLT PUSH2 0x97D JUMPI PUSH2 0x97C PUSH2 0x82B JUMP JUMPDEST JUMPDEST DUP2 CALLDATALOAD PUSH2 0x98D DUP5 DUP3 PUSH1 0x20 DUP7 ADD PUSH2 0x928 JUMP JUMPDEST SWAP2 POP POP SWAP3 SWAP2 POP POP JUMP JUMPDEST PUSH0 PUSH2 0x9A8 PUSH2 0x9A3 DUP5 PUSH2 0x8B7 JUMP JUMPDEST PUSH2 0x89D JUMP JUMPDEST SWAP1 POP DUP1 DUP4 DUP3 MSTORE PUSH1 0x20 DUP3 ADD SWAP1 POP PUSH1 0x20 DUP5 MUL DUP4 ADD DUP6 DUP2 GT ISZERO PUSH2 0x9CB JUMPI PUSH2 0x9CA PUSH2 0x8E2 JUMP JUMPDEST JUMPDEST DUP4 JUMPDEST DUP2 DUP2 LT ISZERO PUSH2 0xA12 JUMPI DUP1 CALLDATALOAD PUSH8 0xFFFFFFFFFFFFFFFF DUP2 GT ISZERO PUSH2 0x9F0 JUMPI PUSH2 0x9EF PUSH2 0x82B JUMP JUMPDEST JUMPDEST DUP1 DUP7 ADD PUSH2 0x9FD DUP10 DUP3 PUSH2 0x969 JUMP JUMPDEST DUP6 MSTORE PUSH1 0x20 DUP6 ADD SWAP5 POP POP POP PUSH1 0x20 DUP2 ADD SWAP1 POP PUSH2 0x9CD JUMP JUMPDEST POP POP POP SWAP4 SWAP3 POP POP POP JUMP JUMPDEST PUSH0 DUP3 PUSH1 0x1F DUP4 ADD SLT PUSH2 0xA30 JUMPI PUSH2 0xA2F PUSH2 0x82B JUMP JUMPDEST JUMPDEST DUP2 CALLDATALOAD PUSH2 0xA40 DUP5 DUP3 PUSH1 0x20 DUP7 ADD PUSH2 0x996 JUMP JUMPDEST SWAP2 POP POP SWAP3 SWAP2 POP POP JUMP JUMPDEST PUSH0 PUSH1 0x20 DUP3 DUP5 SUB SLT ISZERO PUSH2 0xA5E JUMPI PUSH2 0xA5D PUSH2 0x823 JUMP JUMPDEST JUMPDEST PUSH0 DUP3 ADD CALLDATALOAD PUSH8 0xFFFFFFFFFFFFFFFF DUP2 GT ISZERO PUSH2 0xA7B JUMPI PUSH2 0xA7A PUSH2 0x827 JUMP JUMPDEST JUMPDEST PUSH2 0xA87 DUP5 DUP3 DUP6 ADD PUSH2 0xA1C JUMP JUMPDEST SWAP2 POP POP SWAP3 SWAP2 POP POP JUMP JUMPDEST PUSH2 0xA99 DUP2 PUSH2 0x7E9 JUMP JUMPDEST DUP2 EQ PUSH2 0xAA3 JUMPI PUSH0 DUP1 REVERT JUMPDEST POP JUMP JUMPDEST PUSH0 DUP2 CALLDATALOAD SWAP1 POP PUSH2 0xAB4 DUP2 PUSH2 0xA90 JUMP JUMPDEST SWAP3 SWAP2 POP POP JUMP JUMPDEST PUSH0 PUSH1 0x20 DUP3 DUP5 SUB SLT ISZERO PUSH2 0xACF JUMPI PUSH2 0xACE PUSH2 0x823 JUMP JUMPDEST JUMPDEST PUSH0 PUSH2 0xADC DUP5 DUP3 DUP6 ADD PUSH2 0xAA6 JUMP JUMPDEST SWAP2 POP POP SWAP3 SWAP2 POP POP JUMP JUMPDEST PUSH0 DUP2 SWAP1 POP SWAP2 SWAP1 POP JUMP JUMPDEST PUSH2 0xAF7 DUP2 PUSH2 0xAE5 JUMP JUMPDEST DUP3 MSTORE POP POP JUMP JUMPDEST PUSH0 PUSH1 0xA0 DUP3 ADD SWAP1 POP PUSH2 0xB10 PUSH0 DUP4 ADD DUP9 PUSH2 0x7F2 JUMP JUMPDEST PUSH2 0xB1D PUSH1 0x20 DUP4 ADD DUP8 PUSH2 0x7F2 JUMP JUMPDEST PUSH2 0xB2A PUSH1 0x40 DUP4 ADD DUP7 PUSH2 0xAEE JUMP JUMPDEST PUSH2 0xB37 PUSH1 0x60 DUP4 ADD DUP6 PUSH2 0xAEE JUMP JUMPDEST PUSH2 0xB44 PUSH1 0x80 DUP4 ADD DUP5 PUSH2 0x7F2 JUMP JUMPDEST SWAP7 SWAP6 POP POP POP POP POP POP JUMP JUMPDEST PUSH2 0xB57 DUP2 PUSH2 0x7E9 JUMP JUMPDEST DUP3 MSTORE POP POP JUMP JUMPDEST PUSH0 DUP2 MLOAD SWAP1 POP SWAP2 SWAP1 POP JUMP JUMPDEST PUSH0 DUP3 DUP3 MSTORE PUSH1 0x20 DUP3 ADD SWAP1 POP SWAP3 SWAP2 POP POP JUMP JUMPDEST PUSH0 DUP2 SWAP1 POP PUSH1 0x20 DUP3 ADD SWAP1 POP SWAP2 SWAP1 POP JUMP JUMPDEST PUSH0 DUP2 MLOAD SWAP1 POP SWAP2 SWAP1 POP JUMP JUMPDEST PUSH0 DUP3 DUP3 MSTORE PUSH1 0x20 DUP3 ADD SWAP1 POP SWAP3 SWAP2 POP POP JUMP JUMPDEST DUP3 DUP2 DUP4 MCOPY PUSH0 DUP4 DUP4 ADD MSTORE POP POP POP JUMP JUMPDEST PUSH0 PUSH2 0xBB8 DUP3 PUSH2 0xB86 JUMP JUMPDEST PUSH2 0xBC2 DUP2 DUP6 PUSH2 0xB90 JUMP JUMPDEST SWAP4 POP PUSH2 0xBD2 DUP2 DUP6 PUSH1 0x20 DUP7 ADD PUSH2 0xBA0 JUMP JUMPDEST PUSH2 0xBDB DUP2 PUSH2 0x82F JUMP JUMPDEST DUP5 ADD SWAP2 POP POP SWAP3 SWAP2 POP POP JUMP JUMPDEST PUSH0 PUSH2 0xBF1 DUP4 DUP4 PUSH2 0xBAE JUMP JUMPDEST SWAP1 POP SWAP3 SWAP2 POP POP JUMP JUMPDEST PUSH0 PUSH1 0x20 DUP3 ADD SWAP1 POP SWAP2 SWAP1 POP JUMP JUMPDEST PUSH0 PUSH2 0xC0F DUP3 PUSH2 0xB5D JUMP JUMPDEST PUSH2 0xC19 DUP2 DUP6 PUSH2 0xB67 JUMP JUMPDEST SWAP4 POP DUP4 PUSH1 0x20 DUP3 MUL DUP6 ADD PUSH2 0xC2B DUP6 PUSH2 0xB77 JUMP JUMPDEST DUP1 PUSH0 JUMPDEST DUP6 DUP2 LT ISZERO PUSH2 0xC66 JUMPI DUP5 DUP5 SUB DUP10 MSTORE DUP2 MLOAD PUSH2 0xC47 DUP6 DUP3 PUSH2 0xBE6 JUMP JUMPDEST SWAP5 POP PUSH2 0xC52 DUP4 PUSH2 0xBF9 JUMP JUMPDEST SWAP3 POP PUSH1 0x20 DUP11 ADD SWAP10 POP POP PUSH1 0x1 DUP2 ADD SWAP1 POP PUSH2 0xC2E JUMP JUMPDEST POP DUP3 SWAP8 POP DUP8 SWAP6 POP POP POP POP POP POP SWAP3 SWAP2 POP POP JUMP JUMPDEST PUSH2 0xC81 DUP2 PUSH2 0xAE5 JUMP JUMPDEST DUP3 MSTORE POP POP JUMP JUMPDEST PUSH0 PUSH1 0xC0 DUP4 ADD PUSH0 DUP4 ADD MLOAD PUSH2 0xC9C PUSH0 DUP7 ADD DUP3 PUSH2 0xB4E JUMP JUMPDEST POP PUSH1 0x20 DUP4 ADD MLOAD PUSH2 0xCAF PUSH1 0x20 DUP7 ADD DUP3 PUSH2 0xB4E JUMP JUMPDEST POP PUSH1 0x40 DUP4 ADD MLOAD DUP5 DUP3 SUB PUSH1 0x40 DUP7 ADD MSTORE PUSH2 0xCC7 DUP3 DUP3 PUSH2 0xC05 JUMP JUMPDEST SWAP2 POP POP PUSH1 0x60 DUP4 ADD MLOAD PUSH2 0xCDC PUSH1 0x60 DUP7 ADD DUP3 PUSH2 0xC78 JUMP JUMPDEST POP PUSH1 0x80 DUP4 ADD MLOAD PUSH2 0xCEF PUSH1 0x80 DUP7 ADD DUP3 PUSH2 0xC78 JUMP JUMPDEST POP PUSH1 0xA0 DUP4 ADD MLOAD PUSH2 0xD02 PUSH1 0xA0 DUP7 ADD DUP3 PUSH2 0xB4E JUMP JUMPDEST POP DUP1 SWAP2 POP POP SWAP3 SWAP2 POP POP JUMP JUMPDEST PUSH0 PUSH1 0x20 DUP3 ADD SWAP1 POP DUP2 DUP2 SUB PUSH0 DUP4 ADD MSTORE PUSH2 0xD25 DUP2 DUP5 PUSH2 0xC87 JUMP JUMPDEST SWAP1 POP SWAP3 SWAP2 POP POP JUMP JUMPDEST PUSH0 DUP2 ISZERO ISZERO SWAP1 POP SWAP2 SWAP1 POP JUMP JUMPDEST PUSH2 0xD41 DUP2 PUSH2 0xD2D JUMP JUMPDEST DUP3 MSTORE POP POP JUMP JUMPDEST PUSH0 PUSH1 0x20 DUP3 ADD SWAP1 POP PUSH2 0xD5A PUSH0 DUP4 ADD DUP5 PUSH2 0xD38 JUMP JUMPDEST SWAP3 SWAP2 POP POP JUMP JUMPDEST PUSH32 0x4E487B7100000000000000000000000000000000000000000000000000000000 PUSH0 MSTORE PUSH1 0x11 PUSH1 0x4 MSTORE PUSH1 0x24 PUSH0 REVERT JUMPDEST PUSH0 PUSH2 0xD97 DUP3 PUSH2 0x7E9 JUMP JUMPDEST SWAP2 POP PUSH2 0xDA2 DUP4 PUSH2 0x7E9 JUMP JUMPDEST SWAP3 POP DUP3 DUP3 ADD SWAP1 POP DUP1 DUP3 GT ISZERO PUSH2 0xDBA JUMPI PUSH2 0xDB9 PUSH2 0xD60 JUMP JUMPDEST JUMPDEST SWAP3 SWAP2 POP POP JUMP JUMPDEST PUSH0 PUSH2 0xDCA DUP3 PUSH2 0x7E9 JUMP JUMPDEST SWAP2 POP PUSH2 0xDD5 DUP4 PUSH2 0x7E9 JUMP JUMPDEST SWAP3 POP DUP3 DUP3 SUB SWAP1 POP DUP2 DUP2 GT ISZERO PUSH2 0xDED JUMPI PUSH2 0xDEC PUSH2 0xD60 JUMP JUMPDEST JUMPDEST SWAP3 SWAP2 POP POP JUMP JUMPDEST PUSH0 DUP2 PUSH1 0x1 SHR SWAP1 POP SWAP2 SWAP1 POP JUMP JUMPDEST PUSH0 DUP1 DUP3 SWAP2 POP DUP4 SWAP1 POP JUMPDEST PUSH1 0x1 DUP6 GT ISZERO PUSH2 0xE48 JUMPI DUP1 DUP7 DIV DUP2 GT ISZERO PUSH2 0xE24 JUMPI PUSH2 0xE23 PUSH2 0xD60 JUMP JUMPDEST JUMPDEST PUSH1 0x1 DUP6 AND ISZERO PUSH2 0xE33 JUMPI DUP1 DUP3 MUL SWAP2 POP JUMPDEST DUP1 DUP2 MUL SWAP1 POP PUSH2 0xE41 DUP6 PUSH2 0xDF3 JUMP JUMPDEST SWAP5 POP PUSH2 0xE08 JUMP JUMPDEST SWAP5 POP SWAP5 SWAP3 POP POP POP JUMP JUMPDEST PUSH0 DUP3 PUSH2 0xE60 JUMPI PUSH1 0x1 SWAP1 POP PUSH2 0xF1B JUMP JUMPDEST DUP2 PUSH2 0xE6D JUMPI PUSH0 SWAP1 POP PUSH2 0xF1B JUMP JUMPDEST DUP2 PUSH1 0x1 DUP2 EQ PUSH2 0xE83 JUMPI PUSH1 0x2 DUP2 EQ PUSH2 0xE8D JUMPI PUSH2 0xEBC JUMP JUMPDEST PUSH1 0x1 SWAP2 POP POP PUSH2 0xF1B JUMP JUMPDEST PUSH1 0xFF DUP5 GT ISZERO PUSH2 0xE9F JUMPI PUSH2 0xE9E PUSH2 0xD60 JUMP JUMPDEST JUMPDEST DUP4 PUSH1 0x2 EXP SWAP2 POP DUP5 DUP3 GT ISZERO PUSH2 0xEB6 JUMPI PUSH2 0xEB5 PUSH2 0xD60 JUMP JUMPDEST JUMPDEST POP PUSH2 0xF1B JUMP JUMPDEST POP PUSH1 0x20 DUP4 LT PUSH2 0x133 DUP4 LT AND PUSH1 0x4E DUP5 LT PUSH1 0xB DUP5 LT AND OR ISZERO PUSH2 0xEF1 JUMPI DUP3 DUP3 EXP SWAP1 POP DUP4 DUP2 GT ISZERO PUSH2 0xEEC JUMPI PUSH2 0xEEB PUSH2 0xD60 JUMP JUMPDEST JUMPDEST PUSH2 0xF1B JUMP JUMPDEST PUSH2 0xEFE DUP5 DUP5 DUP5 PUSH1 0x1 PUSH2 0xDFF JUMP JUMPDEST SWAP3 POP SWAP1 POP DUP2 DUP5 DIV DUP2 GT ISZERO PUSH2 0xF15 JUMPI PUSH2 0xF14 PUSH2 0xD60 JUMP JUMPDEST JUMPDEST DUP2 DUP2 MUL SWAP1 POP JUMPDEST SWAP4 SWAP3 POP POP POP JUMP JUMPDEST PUSH0 PUSH2 0xF2C DUP3 PUSH2 0x7E9 JUMP JUMPDEST SWAP2 POP PUSH2 0xF37 DUP4 PUSH2 0x7E9 JUMP JUMPDEST SWAP3 POP PUSH2 0xF64 PUSH32 0xFFFFFFFFFFFFFFFFFFFFFFFFFFFFFFFFFFFFFFFFFFFFFFFFFFFFFFFFFFFFFFFF DUP5 DUP5 PUSH2 0xE51 JUMP JUMPDEST SWAP1 POP SWAP3 SWAP2 POP POP JUMP JUMPDEST PUSH0 PUSH2 0xF76 DUP3 PUSH2 0x7E9 JUMP JUMPDEST SWAP2 POP PUSH32 0xFFFFFFFFFFFFFFFFFFFFFFFFFFFFFFFFFFFFFFFFFFFFFFFFFFFFFFFFFFFFFFFF DUP3 SUB PUSH2 0xFA8 JUMPI PUSH2 0xFA7 PUSH2 0xD60 JUMP JUMPDEST JUMPDEST PUSH1 0x1 DUP3 ADD SWAP1 POP SWAP2 SWAP1 POP JUMP JUMPDEST PUSH32 0x4E487B7100000000000000000000000000000000000000000000000000000000 PUSH0 MSTORE PUSH1 0x32 PUSH1 0x4 MSTORE PUSH1 0x24 PUSH0 REVERT JUMPDEST PUSH32 0x4E487B7100000000000000000000000000000000000000000000000000000000 PUSH0 MSTORE PUSH1 0x22 PUSH1 0x4 MSTORE PUSH1 0x24 PUSH0 REVERT JUMPDEST PUSH0 PUSH1 0x2 DUP3 DIV SWAP1 POP PUSH1 0x1 DUP3 AND DUP1 PUSH2 0x1024 JUMPI PUSH1 0x7F DUP3 AND SWAP2 POP JUMPDEST PUSH1 0x20 DUP3 LT DUP2 SUB PUSH2 0x1037 JUMPI PUSH2 0x1036 PUSH2 0xFE0 JUMP JUMPDEST JUMPDEST POP SWAP2 SWAP1 POP JUMP JUMPDEST PUSH0 DUP3 DUP3 MSTORE PUSH1 0x20 DUP3 ADD SWAP1 POP SWAP3 SWAP2 POP POP JUMP JUMPDEST PUSH0 PUSH2 0x1057 DUP3 PUSH2 0xB5D JUMP JUMPDEST PUSH2 0x1061 DUP2 DUP6 PUSH2 0x103D JUMP JUMPDEST SWAP4 POP DUP4 PUSH1 0x20 DUP3 MUL DUP6 ADD PUSH2 0x1073 DUP6 PUSH2 0xB77 JUMP JUMPDEST DUP1 PUSH0 JUMPDEST DUP6 DUP2 LT ISZERO PUSH2 0x10AE JUMPI DUP5 DUP5 SUB DUP10 MSTORE DUP2 MLOAD PUSH2 0x108F DUP6 DUP3 PUSH2 0xBE6 JUMP JUMPDEST SWAP5 POP PUSH2 0x109A DUP4 PUSH2 0xBF9 JUMP JUMPDEST SWAP3 POP PUSH1 0x20 DUP11 ADD SWAP10 POP POP PUSH1 0x1 DUP2 ADD SWAP1 POP PUSH2 0x1076 JUMP JUMPDEST POP DUP3 SWAP8 POP DUP8 SWAP6 POP POP POP POP POP POP SWAP3 SWAP2 POP POP JUMP JUMPDEST PUSH0 PUSH1 0xA0 DUP3 ADD SWAP1 POP PUSH2 0x10D3 PUSH0 DUP4 ADD DUP9 PUSH2 0x7F2 JUMP JUMPDEST PUSH2 0x10E0 PUSH1 0x20 DUP4 ADD DUP8 PUSH2 0x7F2 JUMP JUMPDEST DUP2 DUP2 SUB PUSH1 0x40 DUP4 ADD MSTORE PUSH2 0x10F2 DUP2 DUP7 PUSH2 0x104D JUMP JUMPDEST SWAP1 POP PUSH2 0x1101 PUSH1 0x60 DUP4 ADD DUP6 PUSH2 0xAEE JUMP JUMPDEST PUSH2 0x110E PUSH1 0x80 DUP4 ADD DUP5 PUSH2 0x7F2 JUMP JUMPDEST SWAP7 SWAP6 POP POP POP POP POP POP JUMP JUMPDEST PUSH0 DUP2 SWAP1 POP DUP2 PUSH0 MSTORE PUSH1 0x20 PUSH0 KECCAK256 SWAP1 POP SWAP2 SWAP1 POP JUMP JUMPDEST PUSH0 PUSH1 0x20 PUSH1 0x1F DUP4 ADD DIV SWAP1 POP SWAP2 SWAP1 POP JUMP JUMPDEST PUSH0 DUP3 DUP3 SHL SWAP1 POP SWAP3 SWAP2 POP POP JUMP JUMPDEST PUSH0 PUSH1 0x8 DUP4 MUL PUSH2 0x1174 PUSH32 0xFFFFFFFFFFFFFFFFFFFFFFFFFFFFFFFFFFFFFFFFFFFFFFFFFFFFFFFFFFFFFFFF DUP3 PUSH2 0x1139 JUMP JUMPDEST PUSH2 0x117E DUP7 DUP4 PUSH2 0x1139 JUMP JUMPDEST SWAP6 POP DUP1 NOT DUP5 AND SWAP4 POP DUP1 DUP7 AND DUP5 OR SWAP3 POP POP POP SWAP4 SWAP3 POP POP POP JUMP JUMPDEST PUSH0 DUP2 SWAP1 POP SWAP2 SWAP1 POP JUMP JUMPDEST PUSH0 PUSH2 0x11B9 PUSH2 0x11B4 PUSH2 0x11AF DUP5 PUSH2 0x7E9 JUMP JUMPDEST PUSH2 0x1196 JUMP JUMPDEST PUSH2 0x7E9 JUMP JUMPDEST SWAP1 POP SWAP2 SWAP1 POP JUMP JUMPDEST PUSH0 DUP2 SWAP1 POP SWAP2 SWAP1 POP JUMP JUMPDEST PUSH2 0x11D2 DUP4 PUSH2 0x119F JUMP JUMPDEST PUSH2 0x11E6 PUSH2 0x11DE DUP3 PUSH2 0x11C0 JUMP JUMPDEST DUP5 DUP5 SLOAD PUSH2 0x1145 JUMP JUMPDEST DUP3 SSTORE POP POP POP POP JUMP JUMPDEST PUSH0 SWAP1 JUMP JUMPDEST PUSH2 0x11FA PUSH2 0x11EE JUMP JUMPDEST PUSH2 0x1205 DUP2 DUP5 DUP5 PUSH2 0x11C9 JUMP JUMPDEST POP POP POP JUMP JUMPDEST JUMPDEST DUP2 DUP2 LT ISZERO PUSH2 0x1228 JUMPI PUSH2 0x121D PUSH0 DUP3 PUSH2 0x11F2 JUMP JUMPDEST PUSH1 0x1 DUP2 ADD SWAP1 POP PUSH2 0x120B JUMP JUMPDEST POP POP JUMP JUMPDEST PUSH1 0x1F DUP3 GT ISZERO PUSH2 0x126D JUMPI PUSH2 0x123E DUP2 PUSH2 0x1118 JUMP JUMPDEST PUSH2 0x1247 DUP5 PUSH2 0x112A JUMP JUMPDEST DUP2 ADD PUSH1 0x20 DUP6 LT ISZERO PUSH2 0x1256 JUMPI DUP2 SWAP1 POP JUMPDEST PUSH2 0x126A PUSH2 0x1262 DUP6 PUSH2 0x112A JUMP JUMPDEST DUP4 ADD DUP3 PUSH2 0x120A JUMP JUMPDEST POP POP JUMPDEST POP POP POP JUMP JUMPDEST PUSH0 DUP3 DUP3 SHR SWAP1 POP SWAP3 SWAP2 POP POP JUMP JUMPDEST PUSH0 PUSH2 0x128D PUSH0 NOT DUP5 PUSH1 0x8 MUL PUSH2 0x1272 JUMP JUMPDEST NOT DUP1 DUP4 AND SWAP2 POP POP SWAP3 SWAP2 POP POP JUMP JUMPDEST PUSH0 PUSH2 0x12A5 DUP4 DUP4 PUSH2 0x127E JUMP JUMPDEST SWAP2 POP DUP3 PUSH1 0x2 MUL DUP3 OR SWAP1 POP SWAP3 SWAP2 POP POP JUMP JUMPDEST PUSH2 0x12BE DUP3 PUSH2 0xB86 JUMP JUMPDEST PUSH8 0xFFFFFFFFFFFFFFFF DUP2 GT ISZERO PUSH2 0x12D7 JUMPI PUSH2 0x12D6 PUSH2 0x83F JUMP JUMPDEST JUMPDEST PUSH2 0x12E1 DUP3 SLOAD PUSH2 0x100D JUMP JUMPDEST PUSH2 0x12EC DUP3 DUP3 DUP6 PUSH2 0x122C JUMP JUMPDEST PUSH0 PUSH1 0x20 SWAP1 POP PUSH1 0x1F DUP4 GT PUSH1 0x1 DUP2 EQ PUSH2 0x131D JUMPI PUSH0 DUP5 ISZERO PUSH2 0x130B JUMPI DUP3 DUP8 ADD MLOAD SWAP1 POP JUMPDEST PUSH2 0x1315 DUP6 DUP3 PUSH2 0x129A JUMP JUMPDEST DUP7 SSTORE POP PUSH2 0x137C JUMP JUMPDEST PUSH1 0x1F NOT DUP5 AND PUSH2 0x132B DUP7 PUSH2 0x1118 JUMP JUMPDEST PUSH0 JUMPDEST DUP3 DUP2 LT ISZERO PUSH2 0x1352 JUMPI DUP5 DUP10 ADD MLOAD DUP3 SSTORE PUSH1 0x1 DUP3 ADD SWAP2 POP PUSH1 0x20 DUP6 ADD SWAP5 POP PUSH1 0x20 DUP2 ADD SWAP1 POP PUSH2 0x132D JUMP JUMPDEST DUP7 DUP4 LT ISZERO PUSH2 0x136F JUMPI DUP5 DUP10 ADD MLOAD PUSH2 0x136B PUSH1 0x1F DUP10 AND DUP3 PUSH2 0x127E JUMP JUMPDEST DUP4 SSTORE POP JUMPDEST PUSH1 0x1 PUSH1 0x2 DUP9 MUL ADD DUP9 SSTORE POP POP POP JUMPDEST POP POP POP POP POP POP JUMP INVALID LOG2 PUSH5 0x6970667358 0x22 SLT KECCAK256 0xDE 0xB0 NOT DUP8 RETURN SWAP7 0xA8 0xCC CHAINID 0xEF DIV SWAP11 0xFB PUSH8 0x83D595B48F6FCA 0xDE 0xCD 0xAE PUSH28 0x93901D07A37364736F6C634300081A00330000000000000000000000 "
				},
				"gasEstimates": {
					"creation": {
						"codeDepositCost": "1010000",
						"executionCost": "infinite",
						"totalCost": "infinite"
					},
					"external": {
						"addBlock(string[])": "infinite",
						"chain(uint256)": "infinite",
						"difficulty()": "2403",
						"getLatestBlock()": "infinite",
						"isChainValid()": "infinite"
					},
					"internal": {
						"calculateHash(uint256,uint256,string memory[] memory,bytes32,uint256)": "infinite",
						"createGenesisBlock()": "infinite"
					}
				},
				"methodIdentifiers": {
					"addBlock(string[])": "450c624e",
					"chain(uint256)": "5852cc0c",
					"difficulty()": "19cae462",
					"getLatestBlock()": "61d6f78a",
					"isChainValid()": "d8af642c"
				}
			},
			"storageLayout": {
				"storage": [
					{
						"astId": 19,
						"contract": "xyz.sol:Blockchain",
						"label": "chain",
						"offset": 0,
						"slot": "0",
						"type": "t_array(t_struct(Block)15_storage)dyn_storage"
					},
					{
						"astId": 22,
						"contract": "xyz.sol:Blockchain",
						"label": "difficulty",
						"offset": 0,
						"slot": "1",
						"type": "t_uint256"
					}
				],
				"types": {
					"t_array(t_string_storage)dyn_storage": {
						"base": "t_string_storage",
						"encoding": "dynamic_array",
						"label": "string[]",
						"numberOfBytes": "32"
					},
					"t_array(t_struct(Block)15_storage)dyn_storage": {
						"base": "t_struct(Block)15_storage",
						"encoding": "dynamic_array",
						"label": "struct Blockchain.Block[]",
						"numberOfBytes": "32"
					},
					"t_bytes32": {
						"encoding": "inplace",
						"label": "bytes32",
						"numberOfBytes": "32"
					},
					"t_string_storage": {
						"encoding": "bytes",
						"label": "string",
						"numberOfBytes": "32"
					},
					"t_struct(Block)15_storage": {
						"encoding": "inplace",
						"label": "struct Blockchain.Block",
						"members": [
							{
								"astId": 3,
								"contract": "xyz.sol:Blockchain",
								"label": "index",
								"offset": 0,
								"slot": "0",
								"type": "t_uint256"
							},
							{
								"astId": 5,
								"contract": "xyz.sol:Blockchain",
								"label": "timestamp",
								"offset": 0,
								"slot": "1",
								"type": "t_uint256"
							},
							{
								"astId": 8,
								"contract": "xyz.sol:Blockchain",
								"label": "transactions",
								"offset": 0,
								"slot": "2",
								"type": "t_array(t_string_storage)dyn_storage"
							},
							{
								"astId": 10,
								"contract": "xyz.sol:Blockchain",
								"label": "previousHash",
								"offset": 0,
								"slot": "3",
								"type": "t_bytes32"
							},
							{
								"astId": 12,
								"contract": "xyz.sol:Blockchain",
								"label": "hash",
								"offset": 0,
								"slot": "4",
								"type": "t_bytes32"
							},
							{
								"astId": 14,
								"contract": "xyz.sol:Blockchain",
								"label": "nonce",
								"offset": 0,
								"slot": "5",
								"type": "t_uint256"
							}
						],
						"numberOfBytes": "192"
					},
					"t_uint256": {
						"encoding": "inplace",
						"label": "uint256",
						"numberOfBytes": "32"
					}
				}
			},
			"userdoc": {
				"kind": "user",
				"methods": {},
				"version": 1
			}
		}
	}
}