{
	"wallet.sol": {
		"SimpleWallet": {
			"abi": [
				{
					"inputs": [],
					"stateMutability": "nonpayable",
					"type": "constructor"
				},
				{
					"anonymous": false,
					"inputs": [
						{
							"indexed": false,
							"internalType": "address",
							"name": "sender",
							"type": "address"
						},
						{
							"indexed": false,
							"internalType": "uint256",
							"name": "amonut",
							"type": "uint256"
						}
					],
					"name": "Receive",
					"type": "event"
				},
				{
					"anonymous": false,
					"inputs": [
						{
							"indexed": false,
							"internalType": "address",
							"name": "receiver",
							"type": "address"
						},
						{
							"indexed": false,
							"internalType": "uint256",
							"name": "amount",
							"type": "uint256"
						}
					],
					"name": "Transfer",
					"type": "event"
				},
				{
					"stateMutability": "nonpayable",
					"type": "fallback"
				},
				{
					"inputs": [],
					"name": "getContractBalanceInWei",
					"outputs": [
						{
							"internalType": "uint256",
							"name": "",
							"type": "uint256"
						}
					],
					"stateMutability": "view",
					"type": "function"
				},
				{
					"inputs": [],
					"name": "getOwnerBalanceInWei",
					"outputs": [
						{
							"internalType": "uint256",
							"name": "",
							"type": "uint256"
						}
					],
					"stateMutability": "view",
					"type": "function"
				},
				{
					"inputs": [],
					"name": "owner",
					"outputs": [
						{
							"internalType": "address",
							"name": "",
							"type": "address"
						}
					],
					"stateMutability": "view",
					"type": "function"
				},
				{
					"inputs": [],
					"name": "receiveFromUser",
					"outputs": [],
					"stateMutability": "payable",
					"type": "function"
				},
				{
					"inputs": [],
					"name": "str",
					"outputs": [
						{
							"internalType": "string",
							"name": "",
							"type": "string"
						}
					],
					"stateMutability": "view",
					"type": "function"
				},
				{
					"inputs": [],
					"name": "transferToContract",
					"outputs": [],
					"stateMutability": "payable",
					"type": "function"
				},
				{
					"inputs": [
						{
							"internalType": "address payable",
							"name": "_to",
							"type": "address"
						},
						{
							"internalType": "uint256",
							"name": "_weiAmount",
							"type": "uint256"
						}
					],
					"name": "transferToUserViaContract",
					"outputs": [],
					"stateMutability": "nonpayable",
					"type": "function"
				},
				{
					"inputs": [
						{
							"internalType": "address",
							"name": "_to",
							"type": "address"
						}
					],
					"name": "transferToUserViaMsgValue",
					"outputs": [],
					"stateMutability": "payable",
					"type": "function"
				},
				{
					"inputs": [
						{
							"internalType": "uint256",
							"name": "_weiAmount",
							"type": "uint256"
						}
					],
					"name": "withdrawFromContract",
					"outputs": [],
					"stateMutability": "nonpayable",
					"type": "function"
				},
				{
					"stateMutability": "payable",
					"type": "receive"
				}
			],
			"devdoc": {
				"kind": "dev",
				"methods": {},
				"version": 1
			},
			"evm": {
				"assembly": "    /* \"wallet.sol\":63:1839  contract SimpleWallet {... */\n  mstore(0x40, 0x80)\n    /* \"wallet.sol\":256:304  constructor(){... */\n  callvalue\n  dup1\n  iszero\n  tag_1\n  jumpi\n  0x00\n  dup1\n  revert\ntag_1:\n  pop\n    /* \"wallet.sol\":286:296  msg.sender */\n  caller\n    /* \"wallet.sol\":280:285  owner */\n  0x00\n  dup1\n    /* \"wallet.sol\":280:296  owner=msg.sender */\n  0x0100\n  exp\n  dup2\n  sload\n  dup2\n  0xffffffffffffffffffffffffffffffffffffffff\n  mul\n  not\n  and\n  swap1\n  dup4\n  0xffffffffffffffffffffffffffffffffffffffff\n  and\n  mul\n  or\n  swap1\n  sstore\n  pop\n    /* \"wallet.sol\":63:1839  contract SimpleWallet {... */\n  dataSize(sub_0)\n  dup1\n  dataOffset(sub_0)\n  0x00\n  codecopy\n  0x00\n  return\nstop\n\nsub_0: assembly {\n        /* \"wallet.sol\":63:1839  contract SimpleWallet {... */\n      mstore(0x40, 0x80)\n      jumpi(tag_1, lt(calldatasize, 0x04))\n      shr(0xe0, calldataload(0x00))\n      dup1\n      0x8da5cb5b\n      gt\n      tag_12\n      jumpi\n      dup1\n      0x8da5cb5b\n      eq\n      tag_7\n      jumpi\n      dup1\n      0xaeae547d\n      eq\n      tag_8\n      jumpi\n      dup1\n      0xbfa698de\n      eq\n      tag_9\n      jumpi\n      dup1\n      0xc15bae84\n      eq\n      tag_10\n      jumpi\n      dup1\n      0xd2b53948\n      eq\n      tag_11\n      jumpi\n      jump(tag_2)\n    tag_12:\n      dup1\n      0x12cccb34\n      eq\n      tag_3\n      jumpi\n      dup1\n      0x47cdcc1f\n      eq\n      tag_4\n      jumpi\n      dup1\n      0x547fbe8e\n      eq\n      tag_5\n      jumpi\n      dup1\n      0x6f3f42ac\n      eq\n      tag_6\n      jumpi\n      jump(tag_2)\n    tag_1:\n      jumpi(tag_2, calldatasize)\n        /* \"wallet.sol\":1747:1777  Receive(msg.sender, msg.value) */\n      0xd6717f327e0cb88b4a97a7f67a453e9258252c34937ccbdd86de7cb840e7def3\n        /* \"wallet.sol\":1755:1765  msg.sender */\n      caller\n        /* \"wallet.sol\":1767:1776  msg.value */\n      callvalue\n        /* \"wallet.sol\":1747:1777  Receive(msg.sender, msg.value) */\n      mload(0x40)\n      tag_15\n      swap3\n      swap2\n      swap1\n      tag_16\n      jump\t// in\n    tag_15:\n      mload(0x40)\n      dup1\n      swap2\n      sub\n      swap1\n      log1\n        /* \"wallet.sol\":63:1839  contract SimpleWallet {... */\n      stop\n    tag_2:\n      callvalue\n      dup1\n      iszero\n      tag_17\n      jumpi\n      0x00\n      dup1\n      revert\n    tag_17:\n      stop\n        /* \"wallet.sol\":467:573  function transferToContract() external payable  {... */\n    tag_3:\n      tag_20\n      tag_21\n      jump\t// in\n    tag_20:\n      stop\n        /* \"wallet.sol\":587:838  function transferToUserViaContract(address payable _to, uint _weiAmount) external onlyOwner {... */\n    tag_4:\n      callvalue\n      dup1\n      iszero\n      tag_22\n      jumpi\n      0x00\n      dup1\n      revert\n    tag_22:\n      pop\n      tag_23\n      0x04\n      dup1\n      calldatasize\n      sub\n      dup2\n      add\n      swap1\n      tag_24\n      swap2\n      swap1\n      tag_25\n      jump\t// in\n    tag_24:\n      tag_26\n      jump\t// in\n    tag_23:\n      stop\n        /* \"wallet.sol\":1598:1695  function getOwnerBalanceInWei() external view returns(uint){... */\n    tag_5:\n      callvalue\n      dup1\n      iszero\n      tag_27\n      jumpi\n      0x00\n      dup1\n      revert\n    tag_27:\n      pop\n      tag_28\n      tag_29\n      jump\t// in\n    tag_28:\n      mload(0x40)\n      tag_30\n      swap2\n      swap1\n      tag_31\n      jump\t// in\n    tag_30:\n      mload(0x40)\n      dup1\n      swap2\n      sub\n      swap1\n      return\n        /* \"wallet.sol\":1222:1412  function transferToUserViaMsgValue(address _to) external payable {... */\n    tag_6:\n      tag_32\n      0x04\n      dup1\n      calldatasize\n      sub\n      dup2\n      add\n      swap1\n      tag_33\n      swap2\n      swap1\n      tag_34\n      jump\t// in\n    tag_33:\n      tag_35\n      jump\t// in\n    tag_32:\n      stop\n        /* \"wallet.sol\":97:117  address public owner */\n    tag_7:\n      callvalue\n      dup1\n      iszero\n      tag_36\n      jumpi\n      0x00\n      dup1\n      revert\n    tag_36:\n      pop\n      tag_37\n      tag_38\n      jump\t// in\n    tag_37:\n      mload(0x40)\n      tag_39\n      swap2\n      swap1\n      tag_40\n      jump\t// in\n    tag_39:\n      mload(0x40)\n      dup1\n      swap2\n      sub\n      swap1\n      return\n        /* \"wallet.sol\":852:1050  function withdrawFromContract(uint _weiAmount) external onlyOwner {... */\n    tag_8:\n      callvalue\n      dup1\n      iszero\n      tag_41\n      jumpi\n      0x00\n      dup1\n      revert\n    tag_41:\n      pop\n      tag_42\n      0x04\n      dup1\n      calldatasize\n      sub\n      dup2\n      add\n      swap1\n      tag_43\n      swap2\n      swap1\n      tag_44\n      jump\t// in\n    tag_43:\n      tag_45\n      jump\t// in\n    tag_42:\n      stop\n        /* \"wallet.sol\":1064:1176  function getContractBalanceInWei() external view returns (uint) {... */\n    tag_9:\n      callvalue\n      dup1\n      iszero\n      tag_46\n      jumpi\n      0x00\n      dup1\n      revert\n    tag_46:\n      pop\n      tag_47\n      tag_48\n      jump\t// in\n    tag_47:\n      mload(0x40)\n      tag_49\n      swap2\n      swap1\n      tag_31\n      jump\t// in\n    tag_49:\n      mload(0x40)\n      dup1\n      swap2\n      sub\n      swap1\n      return\n        /* \"wallet.sol\":124:141  string public str */\n    tag_10:\n      callvalue\n      dup1\n      iszero\n      tag_50\n      jumpi\n      0x00\n      dup1\n      revert\n    tag_50:\n      pop\n      tag_51\n      tag_52\n      jump\t// in\n    tag_51:\n      mload(0x40)\n      tag_53\n      swap2\n      swap1\n      tag_54\n      jump\t// in\n    tag_53:\n      mload(0x40)\n      dup1\n      swap2\n      sub\n      swap1\n      return\n        /* \"wallet.sol\":1426:1588  function receiveFromUser() external payable {... */\n    tag_11:\n      tag_55\n      tag_56\n      jump\t// in\n    tag_55:\n      stop\n        /* \"wallet.sol\":467:573  function transferToContract() external payable  {... */\n    tag_21:\n        /* \"wallet.sol\":525:565  str=\"Amount transferred to the contract\" */\n      mload(0x40)\n      dup1\n      0x60\n      add\n      0x40\n      mstore\n      dup1\n      0x22\n      dup2\n      mstore\n      0x20\n      add\n      data_c123cd75709b7c6df0c0c5a89e8bb7a5262b866bac4d842c701fa5769b20fbab\n      0x22\n      swap2\n      codecopy\n        /* \"wallet.sol\":525:528  str */\n      0x01\n        /* \"wallet.sol\":525:565  str=\"Amount transferred to the contract\" */\n      swap1\n      dup2\n      tag_58\n      swap2\n      swap1\n      tag_59\n      jump\t// in\n    tag_58:\n      pop\n        /* \"wallet.sol\":467:573  function transferToContract() external payable  {... */\n      jump\t// out\n        /* \"wallet.sol\":587:838  function transferToUserViaContract(address payable _to, uint _weiAmount) external onlyOwner {... */\n    tag_26:\n        /* \"wallet.sol\":368:373  owner */\n      0x00\n      dup1\n      sload\n      swap1\n      0x0100\n      exp\n      swap1\n      div\n      0xffffffffffffffffffffffffffffffffffffffff\n      and\n        /* \"wallet.sol\":354:373  msg.sender == owner */\n      0xffffffffffffffffffffffffffffffffffffffff\n      and\n        /* \"wallet.sol\":354:364  msg.sender */\n      caller\n        /* \"wallet.sol\":354:373  msg.sender == owner */\n      0xffffffffffffffffffffffffffffffffffffffff\n      and\n      eq\n        /* \"wallet.sol\":346:398  require(msg.sender == owner,\"You don't have access\") */\n      tag_61\n      jumpi\n      mload(0x40)\n      0x08c379a000000000000000000000000000000000000000000000000000000000\n      dup2\n      mstore\n      0x04\n      add\n      tag_62\n      swap1\n      tag_63\n      jump\t// in\n    tag_62:\n      mload(0x40)\n      dup1\n      swap2\n      sub\n      swap1\n      revert\n    tag_61:\n        /* \"wallet.sol\":721:731  _weiAmount */\n      dup1\n        /* \"wallet.sol\":698:719  address(this).balance */\n      selfbalance\n        /* \"wallet.sol\":698:731  address(this).balance>=_weiAmount */\n      lt\n      iszero\n        /* \"wallet.sol\":690:755  require(address(this).balance>=_weiAmount,\"Insufficient Balance\") */\n      tag_65\n      jumpi\n      mload(0x40)\n      0x08c379a000000000000000000000000000000000000000000000000000000000\n      dup2\n      mstore\n      0x04\n      add\n      tag_66\n      swap1\n      tag_67\n      jump\t// in\n    tag_66:\n      mload(0x40)\n      dup1\n      swap2\n      sub\n      swap1\n      revert\n    tag_65:\n        /* \"wallet.sol\":766:769  _to */\n      dup2\n        /* \"wallet.sol\":766:778  _to.transfer */\n      0xffffffffffffffffffffffffffffffffffffffff\n      and\n        /* \"wallet.sol\":766:790  _to.transfer(_weiAmount) */\n      0x08fc\n        /* \"wallet.sol\":779:789  _weiAmount */\n      dup3\n        /* \"wallet.sol\":766:790  _to.transfer(_weiAmount) */\n      swap1\n      dup2\n      iszero\n      mul\n      swap1\n      mload(0x40)\n      0x00\n      mload(0x40)\n      dup1\n      dup4\n      sub\n      dup2\n      dup6\n      dup9\n      dup9\n      call\n      swap4\n      pop\n      pop\n      pop\n      pop\n      iszero\n      dup1\n      iszero\n      tag_69\n      jumpi\n      returndatasize\n      0x00\n      dup1\n      returndatacopy\n      revert(0x00, returndatasize)\n    tag_69:\n      pop\n        /* \"wallet.sol\":806:830  Transfer(_to,_weiAmount) */\n      0x69ca02dd4edd7bf0a4abb9ed3b7af3f14778db5d61921c7dc7cd545266326de2\n        /* \"wallet.sol\":815:818  _to */\n      dup3\n        /* \"wallet.sol\":819:829  _weiAmount */\n      dup3\n        /* \"wallet.sol\":806:830  Transfer(_to,_weiAmount) */\n      mload(0x40)\n      tag_70\n      swap3\n      swap2\n      swap1\n      tag_71\n      jump\t// in\n    tag_70:\n      mload(0x40)\n      dup1\n      swap2\n      sub\n      swap1\n      log1\n        /* \"wallet.sol\":587:838  function transferToUserViaContract(address payable _to, uint _weiAmount) external onlyOwner {... */\n      pop\n      pop\n      jump\t// out\n        /* \"wallet.sol\":1598:1695  function getOwnerBalanceInWei() external view returns(uint){... */\n    tag_29:\n        /* \"wallet.sol\":1652:1656  uint */\n      0x00\n        /* \"wallet.sol\":1674:1679  owner */\n      dup1\n      0x00\n      swap1\n      sload\n      swap1\n      0x0100\n      exp\n      swap1\n      div\n      0xffffffffffffffffffffffffffffffffffffffff\n      and\n        /* \"wallet.sol\":1674:1687  owner.balance */\n      0xffffffffffffffffffffffffffffffffffffffff\n      and\n      balance\n        /* \"wallet.sol\":1667:1687  return owner.balance */\n      swap1\n      pop\n        /* \"wallet.sol\":1598:1695  function getOwnerBalanceInWei() external view returns(uint){... */\n      swap1\n      jump\t// out\n        /* \"wallet.sol\":1222:1412  function transferToUserViaMsgValue(address _to) external payable {... */\n    tag_35:\n        /* \"wallet.sol\":1328:1337  msg.value */\n      callvalue\n        /* \"wallet.sol\":1305:1326  address(this).balance */\n      selfbalance\n        /* \"wallet.sol\":1305:1337  address(this).balance>=msg.value */\n      lt\n      iszero\n        /* \"wallet.sol\":1297:1361  require(address(this).balance>=msg.value,\"Insufficient Balance\") */\n      tag_74\n      jumpi\n      mload(0x40)\n      0x08c379a000000000000000000000000000000000000000000000000000000000\n      dup2\n      mstore\n      0x04\n      add\n      tag_75\n      swap1\n      tag_67\n      jump\t// in\n    tag_75:\n      mload(0x40)\n      dup1\n      swap2\n      sub\n      swap1\n      revert\n    tag_74:\n        /* \"wallet.sol\":1380:1383  _to */\n      dup1\n        /* \"wallet.sol\":1371:1393  payable (_to).transfer */\n      0xffffffffffffffffffffffffffffffffffffffff\n      and\n        /* \"wallet.sol\":1371:1404  payable (_to).transfer(msg.value) */\n      0x08fc\n        /* \"wallet.sol\":1394:1403  msg.value */\n      callvalue\n        /* \"wallet.sol\":1371:1404  payable (_to).transfer(msg.value) */\n      swap1\n      dup2\n      iszero\n      mul\n      swap1\n      mload(0x40)\n      0x00\n      mload(0x40)\n      dup1\n      dup4\n      sub\n      dup2\n      dup6\n      dup9\n      dup9\n      call\n      swap4\n      pop\n      pop\n      pop\n      pop\n      iszero\n      dup1\n      iszero\n      tag_77\n      jumpi\n      returndatasize\n      0x00\n      dup1\n      returndatacopy\n      revert(0x00, returndatasize)\n    tag_77:\n      pop\n        /* \"wallet.sol\":1222:1412  function transferToUserViaMsgValue(address _to) external payable {... */\n      pop\n      jump\t// out\n        /* \"wallet.sol\":97:117  address public owner */\n    tag_38:\n      0x00\n      dup1\n      sload\n      swap1\n      0x0100\n      exp\n      swap1\n      div\n      0xffffffffffffffffffffffffffffffffffffffff\n      and\n      dup2\n      jump\t// out\n        /* \"wallet.sol\":852:1050  function withdrawFromContract(uint _weiAmount) external onlyOwner {... */\n    tag_45:\n        /* \"wallet.sol\":368:373  owner */\n      0x00\n      dup1\n      sload\n      swap1\n      0x0100\n      exp\n      swap1\n      div\n      0xffffffffffffffffffffffffffffffffffffffff\n      and\n        /* \"wallet.sol\":354:373  msg.sender == owner */\n      0xffffffffffffffffffffffffffffffffffffffff\n      and\n        /* \"wallet.sol\":354:364  msg.sender */\n      caller\n        /* \"wallet.sol\":354:373  msg.sender == owner */\n      0xffffffffffffffffffffffffffffffffffffffff\n      and\n      eq\n        /* \"wallet.sol\":346:398  require(msg.sender == owner,\"You don't have access\") */\n      tag_79\n      jumpi\n      mload(0x40)\n      0x08c379a000000000000000000000000000000000000000000000000000000000\n      dup2\n      mstore\n      0x04\n      add\n      tag_80\n      swap1\n      tag_63\n      jump\t// in\n    tag_80:\n      mload(0x40)\n      dup1\n      swap2\n      sub\n      swap1\n      revert\n    tag_79:\n        /* \"wallet.sol\":961:971  _weiAmount */\n      dup1\n        /* \"wallet.sol\":936:957  address(this).balance */\n      selfbalance\n        /* \"wallet.sol\":936:971  address(this).balance >= _weiAmount */\n      lt\n      iszero\n        /* \"wallet.sol\":928:997  require(address(this).balance >= _weiAmount, \"Insuffficient balance\") */\n      tag_82\n      jumpi\n      mload(0x40)\n      0x08c379a000000000000000000000000000000000000000000000000000000000\n      dup2\n      mstore\n      0x04\n      add\n      tag_83\n      swap1\n      tag_84\n      jump\t// in\n    tag_83:\n      mload(0x40)\n      dup1\n      swap2\n      sub\n      swap1\n      revert\n    tag_82:\n        /* \"wallet.sol\":1015:1020  owner */\n      0x00\n      dup1\n      sload\n      swap1\n      0x0100\n      exp\n      swap1\n      div\n      0xffffffffffffffffffffffffffffffffffffffff\n      and\n        /* \"wallet.sol\":1007:1030  payable(owner).transfer */\n      0xffffffffffffffffffffffffffffffffffffffff\n      and\n        /* \"wallet.sol\":1007:1042  payable(owner).transfer(_weiAmount) */\n      0x08fc\n        /* \"wallet.sol\":1031:1041  _weiAmount */\n      dup3\n        /* \"wallet.sol\":1007:1042  payable(owner).transfer(_weiAmount) */\n      swap1\n      dup2\n      iszero\n      mul\n      swap1\n      mload(0x40)\n      0x00\n      mload(0x40)\n      dup1\n      dup4\n      sub\n      dup2\n      dup6\n      dup9\n      dup9\n      call\n      swap4\n      pop\n      pop\n      pop\n      pop\n      iszero\n      dup1\n      iszero\n      tag_86\n      jumpi\n      returndatasize\n      0x00\n      dup1\n      returndatacopy\n      revert(0x00, returndatasize)\n    tag_86:\n      pop\n        /* \"wallet.sol\":852:1050  function withdrawFromContract(uint _weiAmount) external onlyOwner {... */\n      pop\n      jump\t// out\n        /* \"wallet.sol\":1064:1176  function getContractBalanceInWei() external view returns (uint) {... */\n    tag_48:\n        /* \"wallet.sol\":1122:1126  uint */\n      0x00\n        /* \"wallet.sol\":1147:1168  address(this).balance */\n      selfbalance\n        /* \"wallet.sol\":1140:1168  return address(this).balance */\n      swap1\n      pop\n        /* \"wallet.sol\":1064:1176  function getContractBalanceInWei() external view returns (uint) {... */\n      swap1\n      jump\t// out\n        /* \"wallet.sol\":124:141  string public str */\n    tag_52:\n      0x01\n      dup1\n      sload\n      tag_88\n      swap1\n      tag_89\n      jump\t// in\n    tag_88:\n      dup1\n      0x1f\n      add\n      0x20\n      dup1\n      swap2\n      div\n      mul\n      0x20\n      add\n      mload(0x40)\n      swap1\n      dup2\n      add\n      0x40\n      mstore\n      dup1\n      swap3\n      swap2\n      swap1\n      dup2\n      dup2\n      mstore\n      0x20\n      add\n      dup3\n      dup1\n      sload\n      tag_90\n      swap1\n      tag_89\n      jump\t// in\n    tag_90:\n      dup1\n      iszero\n      tag_91\n      jumpi\n      dup1\n      0x1f\n      lt\n      tag_92\n      jumpi\n      0x0100\n      dup1\n      dup4\n      sload\n      div\n      mul\n      dup4\n      mstore\n      swap2\n      0x20\n      add\n      swap2\n      jump(tag_91)\n    tag_92:\n      dup3\n      add\n      swap2\n      swap1\n      0x00\n      mstore\n      keccak256(0x00, 0x20)\n      swap1\n    tag_93:\n      dup2\n      sload\n      dup2\n      mstore\n      swap1\n      0x01\n      add\n      swap1\n      0x20\n      add\n      dup1\n      dup4\n      gt\n      tag_93\n      jumpi\n      dup3\n      swap1\n      sub\n      0x1f\n      and\n      dup3\n      add\n      swap2\n    tag_91:\n      pop\n      pop\n      pop\n      pop\n      pop\n      dup2\n      jump\t// out\n        /* \"wallet.sol\":1426:1588  function receiveFromUser() external payable {... */\n    tag_56:\n        /* \"wallet.sol\":1497:1498  0 */\n      0x00\n        /* \"wallet.sol\":1487:1496  msg.value */\n      callvalue\n        /* \"wallet.sol\":1487:1498  msg.value>0 */\n      gt\n        /* \"wallet.sol\":1479:1537  require(msg.value>0,\"Wei Value must be greater than zero\") */\n      tag_95\n      jumpi\n      mload(0x40)\n      0x08c379a000000000000000000000000000000000000000000000000000000000\n      dup2\n      mstore\n      0x04\n      add\n      tag_96\n      swap1\n      tag_97\n      jump\t// in\n    tag_96:\n      mload(0x40)\n      dup1\n      swap2\n      sub\n      swap1\n      revert\n    tag_95:\n        /* \"wallet.sol\":1554:1559  owner */\n      0x00\n      dup1\n      sload\n      swap1\n      0x0100\n      exp\n      swap1\n      div\n      0xffffffffffffffffffffffffffffffffffffffff\n      and\n        /* \"wallet.sol\":1546:1569  payable(owner).transfer */\n      0xffffffffffffffffffffffffffffffffffffffff\n      and\n        /* \"wallet.sol\":1546:1580  payable(owner).transfer(msg.value) */\n      0x08fc\n        /* \"wallet.sol\":1570:1579  msg.value */\n      callvalue\n        /* \"wallet.sol\":1546:1580  payable(owner).transfer(msg.value) */\n      swap1\n      dup2\n      iszero\n      mul\n      swap1\n      mload(0x40)\n      0x00\n      mload(0x40)\n      dup1\n      dup4\n      sub\n      dup2\n      dup6\n      dup9\n      dup9\n      call\n      swap4\n      pop\n      pop\n      pop\n      pop\n      iszero\n      dup1\n      iszero\n      tag_99\n      jumpi\n      returndatasize\n      0x00\n      dup1\n      returndatacopy\n      revert(0x00, returndatasize)\n    tag_99:\n      pop\n        /* \"wallet.sol\":1426:1588  function receiveFromUser() external payable {... */\n      jump\t// out\n        /* \"#utility.yul\":7:133   */\n    tag_100:\n        /* \"#utility.yul\":44:51   */\n      0x00\n        /* \"#utility.yul\":84:126   */\n      0xffffffffffffffffffffffffffffffffffffffff\n        /* \"#utility.yul\":77:82   */\n      dup3\n        /* \"#utility.yul\":73:127   */\n      and\n        /* \"#utility.yul\":62:127   */\n      swap1\n      pop\n        /* \"#utility.yul\":7:133   */\n      swap2\n      swap1\n      pop\n      jump\t// out\n        /* \"#utility.yul\":139:235   */\n    tag_101:\n        /* \"#utility.yul\":176:183   */\n      0x00\n        /* \"#utility.yul\":205:229   */\n      tag_152\n        /* \"#utility.yul\":223:228   */\n      dup3\n        /* \"#utility.yul\":205:229   */\n      tag_100\n      jump\t// in\n    tag_152:\n        /* \"#utility.yul\":194:229   */\n      swap1\n      pop\n        /* \"#utility.yul\":139:235   */\n      swap2\n      swap1\n      pop\n      jump\t// out\n        /* \"#utility.yul\":241:359   */\n    tag_102:\n        /* \"#utility.yul\":328:352   */\n      tag_154\n        /* \"#utility.yul\":346:351   */\n      dup2\n        /* \"#utility.yul\":328:352   */\n      tag_101\n      jump\t// in\n    tag_154:\n        /* \"#utility.yul\":323:326   */\n      dup3\n        /* \"#utility.yul\":316:353   */\n      mstore\n        /* \"#utility.yul\":241:359   */\n      pop\n      pop\n      jump\t// out\n        /* \"#utility.yul\":365:442   */\n    tag_103:\n        /* \"#utility.yul\":402:409   */\n      0x00\n        /* \"#utility.yul\":431:436   */\n      dup2\n        /* \"#utility.yul\":420:436   */\n      swap1\n      pop\n        /* \"#utility.yul\":365:442   */\n      swap2\n      swap1\n      pop\n      jump\t// out\n        /* \"#utility.yul\":448:566   */\n    tag_104:\n        /* \"#utility.yul\":535:559   */\n      tag_157\n        /* \"#utility.yul\":553:558   */\n      dup2\n        /* \"#utility.yul\":535:559   */\n      tag_103\n      jump\t// in\n    tag_157:\n        /* \"#utility.yul\":530:533   */\n      dup3\n        /* \"#utility.yul\":523:560   */\n      mstore\n        /* \"#utility.yul\":448:566   */\n      pop\n      pop\n      jump\t// out\n        /* \"#utility.yul\":572:904   */\n    tag_16:\n        /* \"#utility.yul\":693:697   */\n      0x00\n        /* \"#utility.yul\":731:733   */\n      0x40\n        /* \"#utility.yul\":720:729   */\n      dup3\n        /* \"#utility.yul\":716:734   */\n      add\n        /* \"#utility.yul\":708:734   */\n      swap1\n      pop\n        /* \"#utility.yul\":744:815   */\n      tag_159\n        /* \"#utility.yul\":812:813   */\n      0x00\n        /* \"#utility.yul\":801:810   */\n      dup4\n        /* \"#utility.yul\":797:814   */\n      add\n        /* \"#utility.yul\":788:794   */\n      dup6\n        /* \"#utility.yul\":744:815   */\n      tag_102\n      jump\t// in\n    tag_159:\n        /* \"#utility.yul\":825:897   */\n      tag_160\n        /* \"#utility.yul\":893:895   */\n      0x20\n        /* \"#utility.yul\":882:891   */\n      dup4\n        /* \"#utility.yul\":878:896   */\n      add\n        /* \"#utility.yul\":869:875   */\n      dup5\n        /* \"#utility.yul\":825:897   */\n      tag_104\n      jump\t// in\n    tag_160:\n        /* \"#utility.yul\":572:904   */\n      swap4\n      swap3\n      pop\n      pop\n      pop\n      jump\t// out\n        /* \"#utility.yul\":991:1108   */\n    tag_106:\n        /* \"#utility.yul\":1100:1101   */\n      0x00\n        /* \"#utility.yul\":1097:1098   */\n      dup1\n        /* \"#utility.yul\":1090:1102   */\n      revert\n        /* \"#utility.yul\":1237:1341   */\n    tag_108:\n        /* \"#utility.yul\":1282:1289   */\n      0x00\n        /* \"#utility.yul\":1311:1335   */\n      tag_165\n        /* \"#utility.yul\":1329:1334   */\n      dup3\n        /* \"#utility.yul\":1311:1335   */\n      tag_100\n      jump\t// in\n    tag_165:\n        /* \"#utility.yul\":1300:1335   */\n      swap1\n      pop\n        /* \"#utility.yul\":1237:1341   */\n      swap2\n      swap1\n      pop\n      jump\t// out\n        /* \"#utility.yul\":1347:1485   */\n    tag_109:\n        /* \"#utility.yul\":1428:1460   */\n      tag_167\n        /* \"#utility.yul\":1454:1459   */\n      dup2\n        /* \"#utility.yul\":1428:1460   */\n      tag_108\n      jump\t// in\n    tag_167:\n        /* \"#utility.yul\":1421:1426   */\n      dup2\n        /* \"#utility.yul\":1418:1461   */\n      eq\n        /* \"#utility.yul\":1408:1479   */\n      tag_168\n      jumpi\n        /* \"#utility.yul\":1475:1476   */\n      0x00\n        /* \"#utility.yul\":1472:1473   */\n      dup1\n        /* \"#utility.yul\":1465:1477   */\n      revert\n        /* \"#utility.yul\":1408:1479   */\n    tag_168:\n        /* \"#utility.yul\":1347:1485   */\n      pop\n      jump\t// out\n        /* \"#utility.yul\":1491:1646   */\n    tag_110:\n        /* \"#utility.yul\":1545:1550   */\n      0x00\n        /* \"#utility.yul\":1583:1589   */\n      dup2\n        /* \"#utility.yul\":1570:1590   */\n      calldataload\n        /* \"#utility.yul\":1561:1590   */\n      swap1\n      pop\n        /* \"#utility.yul\":1599:1640   */\n      tag_170\n        /* \"#utility.yul\":1634:1639   */\n      dup2\n        /* \"#utility.yul\":1599:1640   */\n      tag_109\n      jump\t// in\n    tag_170:\n        /* \"#utility.yul\":1491:1646   */\n      swap3\n      swap2\n      pop\n      pop\n      jump\t// out\n        /* \"#utility.yul\":1652:1774   */\n    tag_111:\n        /* \"#utility.yul\":1725:1749   */\n      tag_172\n        /* \"#utility.yul\":1743:1748   */\n      dup2\n        /* \"#utility.yul\":1725:1749   */\n      tag_103\n      jump\t// in\n    tag_172:\n        /* \"#utility.yul\":1718:1723   */\n      dup2\n        /* \"#utility.yul\":1715:1750   */\n      eq\n        /* \"#utility.yul\":1705:1768   */\n      tag_173\n      jumpi\n        /* \"#utility.yul\":1764:1765   */\n      0x00\n        /* \"#utility.yul\":1761:1762   */\n      dup1\n        /* \"#utility.yul\":1754:1766   */\n      revert\n        /* \"#utility.yul\":1705:1768   */\n    tag_173:\n        /* \"#utility.yul\":1652:1774   */\n      pop\n      jump\t// out\n        /* \"#utility.yul\":1780:1919   */\n    tag_112:\n        /* \"#utility.yul\":1826:1831   */\n      0x00\n        /* \"#utility.yul\":1864:1870   */\n      dup2\n        /* \"#utility.yul\":1851:1871   */\n      calldataload\n        /* \"#utility.yul\":1842:1871   */\n      swap1\n      pop\n        /* \"#utility.yul\":1880:1913   */\n      tag_175\n        /* \"#utility.yul\":1907:1912   */\n      dup2\n        /* \"#utility.yul\":1880:1913   */\n      tag_111\n      jump\t// in\n    tag_175:\n        /* \"#utility.yul\":1780:1919   */\n      swap3\n      swap2\n      pop\n      pop\n      jump\t// out\n        /* \"#utility.yul\":1925:2415   */\n    tag_25:\n        /* \"#utility.yul\":2001:2007   */\n      0x00\n        /* \"#utility.yul\":2009:2015   */\n      dup1\n        /* \"#utility.yul\":2058:2060   */\n      0x40\n        /* \"#utility.yul\":2046:2055   */\n      dup4\n        /* \"#utility.yul\":2037:2044   */\n      dup6\n        /* \"#utility.yul\":2033:2056   */\n      sub\n        /* \"#utility.yul\":2029:2061   */\n      slt\n        /* \"#utility.yul\":2026:2145   */\n      iszero\n      tag_177\n      jumpi\n        /* \"#utility.yul\":2064:2143   */\n      tag_178\n      tag_106\n      jump\t// in\n    tag_178:\n        /* \"#utility.yul\":2026:2145   */\n    tag_177:\n        /* \"#utility.yul\":2184:2185   */\n      0x00\n        /* \"#utility.yul\":2209:2270   */\n      tag_179\n        /* \"#utility.yul\":2262:2269   */\n      dup6\n        /* \"#utility.yul\":2253:2259   */\n      dup3\n        /* \"#utility.yul\":2242:2251   */\n      dup7\n        /* \"#utility.yul\":2238:2260   */\n      add\n        /* \"#utility.yul\":2209:2270   */\n      tag_110\n      jump\t// in\n    tag_179:\n        /* \"#utility.yul\":2199:2270   */\n      swap3\n      pop\n        /* \"#utility.yul\":2155:2280   */\n      pop\n        /* \"#utility.yul\":2319:2321   */\n      0x20\n        /* \"#utility.yul\":2345:2398   */\n      tag_180\n        /* \"#utility.yul\":2390:2397   */\n      dup6\n        /* \"#utility.yul\":2381:2387   */\n      dup3\n        /* \"#utility.yul\":2370:2379   */\n      dup7\n        /* \"#utility.yul\":2366:2388   */\n      add\n        /* \"#utility.yul\":2345:2398   */\n      tag_112\n      jump\t// in\n    tag_180:\n        /* \"#utility.yul\":2335:2398   */\n      swap2\n      pop\n        /* \"#utility.yul\":2290:2408   */\n      pop\n        /* \"#utility.yul\":1925:2415   */\n      swap3\n      pop\n      swap3\n      swap1\n      pop\n      jump\t// out\n        /* \"#utility.yul\":2421:2643   */\n    tag_31:\n        /* \"#utility.yul\":2514:2518   */\n      0x00\n        /* \"#utility.yul\":2552:2554   */\n      0x20\n        /* \"#utility.yul\":2541:2550   */\n      dup3\n        /* \"#utility.yul\":2537:2555   */\n      add\n        /* \"#utility.yul\":2529:2555   */\n      swap1\n      pop\n        /* \"#utility.yul\":2565:2636   */\n      tag_182\n        /* \"#utility.yul\":2633:2634   */\n      0x00\n        /* \"#utility.yul\":2622:2631   */\n      dup4\n        /* \"#utility.yul\":2618:2635   */\n      add\n        /* \"#utility.yul\":2609:2615   */\n      dup5\n        /* \"#utility.yul\":2565:2636   */\n      tag_104\n      jump\t// in\n    tag_182:\n        /* \"#utility.yul\":2421:2643   */\n      swap3\n      swap2\n      pop\n      pop\n      jump\t// out\n        /* \"#utility.yul\":2649:2771   */\n    tag_113:\n        /* \"#utility.yul\":2722:2746   */\n      tag_184\n        /* \"#utility.yul\":2740:2745   */\n      dup2\n        /* \"#utility.yul\":2722:2746   */\n      tag_101\n      jump\t// in\n    tag_184:\n        /* \"#utility.yul\":2715:2720   */\n      dup2\n        /* \"#utility.yul\":2712:2747   */\n      eq\n        /* \"#utility.yul\":2702:2765   */\n      tag_185\n      jumpi\n        /* \"#utility.yul\":2761:2762   */\n      0x00\n        /* \"#utility.yul\":2758:2759   */\n      dup1\n        /* \"#utility.yul\":2751:2763   */\n      revert\n        /* \"#utility.yul\":2702:2765   */\n    tag_185:\n        /* \"#utility.yul\":2649:2771   */\n      pop\n      jump\t// out\n        /* \"#utility.yul\":2777:2916   */\n    tag_114:\n        /* \"#utility.yul\":2823:2828   */\n      0x00\n        /* \"#utility.yul\":2861:2867   */\n      dup2\n        /* \"#utility.yul\":2848:2868   */\n      calldataload\n        /* \"#utility.yul\":2839:2868   */\n      swap1\n      pop\n        /* \"#utility.yul\":2877:2910   */\n      tag_187\n        /* \"#utility.yul\":2904:2909   */\n      dup2\n        /* \"#utility.yul\":2877:2910   */\n      tag_113\n      jump\t// in\n    tag_187:\n        /* \"#utility.yul\":2777:2916   */\n      swap3\n      swap2\n      pop\n      pop\n      jump\t// out\n        /* \"#utility.yul\":2922:3251   */\n    tag_34:\n        /* \"#utility.yul\":2981:2987   */\n      0x00\n        /* \"#utility.yul\":3030:3032   */\n      0x20\n        /* \"#utility.yul\":3018:3027   */\n      dup3\n        /* \"#utility.yul\":3009:3016   */\n      dup5\n        /* \"#utility.yul\":3005:3028   */\n      sub\n        /* \"#utility.yul\":3001:3033   */\n      slt\n        /* \"#utility.yul\":2998:3117   */\n      iszero\n      tag_189\n      jumpi\n        /* \"#utility.yul\":3036:3115   */\n      tag_190\n      tag_106\n      jump\t// in\n    tag_190:\n        /* \"#utility.yul\":2998:3117   */\n    tag_189:\n        /* \"#utility.yul\":3156:3157   */\n      0x00\n        /* \"#utility.yul\":3181:3234   */\n      tag_191\n        /* \"#utility.yul\":3226:3233   */\n      dup5\n        /* \"#utility.yul\":3217:3223   */\n      dup3\n        /* \"#utility.yul\":3206:3215   */\n      dup6\n        /* \"#utility.yul\":3202:3224   */\n      add\n        /* \"#utility.yul\":3181:3234   */\n      tag_114\n      jump\t// in\n    tag_191:\n        /* \"#utility.yul\":3171:3234   */\n      swap2\n      pop\n        /* \"#utility.yul\":3127:3244   */\n      pop\n        /* \"#utility.yul\":2922:3251   */\n      swap3\n      swap2\n      pop\n      pop\n      jump\t// out\n        /* \"#utility.yul\":3257:3479   */\n    tag_40:\n        /* \"#utility.yul\":3350:3354   */\n      0x00\n        /* \"#utility.yul\":3388:3390   */\n      0x20\n        /* \"#utility.yul\":3377:3386   */\n      dup3\n        /* \"#utility.yul\":3373:3391   */\n      add\n        /* \"#utility.yul\":3365:3391   */\n      swap1\n      pop\n        /* \"#utility.yul\":3401:3472   */\n      tag_193\n        /* \"#utility.yul\":3469:3470   */\n      0x00\n        /* \"#utility.yul\":3458:3467   */\n      dup4\n        /* \"#utility.yul\":3454:3471   */\n      add\n        /* \"#utility.yul\":3445:3451   */\n      dup5\n        /* \"#utility.yul\":3401:3472   */\n      tag_102\n      jump\t// in\n    tag_193:\n        /* \"#utility.yul\":3257:3479   */\n      swap3\n      swap2\n      pop\n      pop\n      jump\t// out\n        /* \"#utility.yul\":3485:3814   */\n    tag_44:\n        /* \"#utility.yul\":3544:3550   */\n      0x00\n        /* \"#utility.yul\":3593:3595   */\n      0x20\n        /* \"#utility.yul\":3581:3590   */\n      dup3\n        /* \"#utility.yul\":3572:3579   */\n      dup5\n        /* \"#utility.yul\":3568:3591   */\n      sub\n        /* \"#utility.yul\":3564:3596   */\n      slt\n        /* \"#utility.yul\":3561:3680   */\n      iszero\n      tag_195\n      jumpi\n        /* \"#utility.yul\":3599:3678   */\n      tag_196\n      tag_106\n      jump\t// in\n    tag_196:\n        /* \"#utility.yul\":3561:3680   */\n    tag_195:\n        /* \"#utility.yul\":3719:3720   */\n      0x00\n        /* \"#utility.yul\":3744:3797   */\n      tag_197\n        /* \"#utility.yul\":3789:3796   */\n      dup5\n        /* \"#utility.yul\":3780:3786   */\n      dup3\n        /* \"#utility.yul\":3769:3778   */\n      dup6\n        /* \"#utility.yul\":3765:3787   */\n      add\n        /* \"#utility.yul\":3744:3797   */\n      tag_112\n      jump\t// in\n    tag_197:\n        /* \"#utility.yul\":3734:3797   */\n      swap2\n      pop\n        /* \"#utility.yul\":3690:3807   */\n      pop\n        /* \"#utility.yul\":3485:3814   */\n      swap3\n      swap2\n      pop\n      pop\n      jump\t// out\n        /* \"#utility.yul\":3820:3919   */\n    tag_115:\n        /* \"#utility.yul\":3872:3878   */\n      0x00\n        /* \"#utility.yul\":3906:3911   */\n      dup2\n        /* \"#utility.yul\":3900:3912   */\n      mload\n        /* \"#utility.yul\":3890:3912   */\n      swap1\n      pop\n        /* \"#utility.yul\":3820:3919   */\n      swap2\n      swap1\n      pop\n      jump\t// out\n        /* \"#utility.yul\":3925:4094   */\n    tag_116:\n        /* \"#utility.yul\":4009:4020   */\n      0x00\n        /* \"#utility.yul\":4043:4049   */\n      dup3\n        /* \"#utility.yul\":4038:4041   */\n      dup3\n        /* \"#utility.yul\":4031:4050   */\n      mstore\n        /* \"#utility.yul\":4083:4087   */\n      0x20\n        /* \"#utility.yul\":4078:4081   */\n      dup3\n        /* \"#utility.yul\":4074:4088   */\n      add\n        /* \"#utility.yul\":4059:4088   */\n      swap1\n      pop\n        /* \"#utility.yul\":3925:4094   */\n      swap3\n      swap2\n      pop\n      pop\n      jump\t// out\n        /* \"#utility.yul\":4100:4239   */\n    tag_117:\n        /* \"#utility.yul\":4189:4195   */\n      dup3\n        /* \"#utility.yul\":4184:4187   */\n      dup2\n        /* \"#utility.yul\":4179:4182   */\n      dup4\n        /* \"#utility.yul\":4173:4196   */\n      mcopy\n        /* \"#utility.yul\":4230:4231   */\n      0x00\n        /* \"#utility.yul\":4221:4227   */\n      dup4\n        /* \"#utility.yul\":4216:4219   */\n      dup4\n        /* \"#utility.yul\":4212:4228   */\n      add\n        /* \"#utility.yul\":4205:4232   */\n      mstore\n        /* \"#utility.yul\":4100:4239   */\n      pop\n      pop\n      pop\n      jump\t// out\n        /* \"#utility.yul\":4245:4347   */\n    tag_118:\n        /* \"#utility.yul\":4286:4292   */\n      0x00\n        /* \"#utility.yul\":4337:4339   */\n      0x1f\n        /* \"#utility.yul\":4333:4340   */\n      not\n        /* \"#utility.yul\":4328:4330   */\n      0x1f\n        /* \"#utility.yul\":4321:4326   */\n      dup4\n        /* \"#utility.yul\":4317:4331   */\n      add\n        /* \"#utility.yul\":4313:4341   */\n      and\n        /* \"#utility.yul\":4303:4341   */\n      swap1\n      pop\n        /* \"#utility.yul\":4245:4347   */\n      swap2\n      swap1\n      pop\n      jump\t// out\n        /* \"#utility.yul\":4353:4730   */\n    tag_119:\n        /* \"#utility.yul\":4441:4444   */\n      0x00\n        /* \"#utility.yul\":4469:4508   */\n      tag_203\n        /* \"#utility.yul\":4502:4507   */\n      dup3\n        /* \"#utility.yul\":4469:4508   */\n      tag_115\n      jump\t// in\n    tag_203:\n        /* \"#utility.yul\":4524:4595   */\n      tag_204\n        /* \"#utility.yul\":4588:4594   */\n      dup2\n        /* \"#utility.yul\":4583:4586   */\n      dup6\n        /* \"#utility.yul\":4524:4595   */\n      tag_116\n      jump\t// in\n    tag_204:\n        /* \"#utility.yul\":4517:4595   */\n      swap4\n      pop\n        /* \"#utility.yul\":4604:4669   */\n      tag_205\n        /* \"#utility.yul\":4662:4668   */\n      dup2\n        /* \"#utility.yul\":4657:4660   */\n      dup6\n        /* \"#utility.yul\":4650:4654   */\n      0x20\n        /* \"#utility.yul\":4643:4648   */\n      dup7\n        /* \"#utility.yul\":4639:4655   */\n      add\n        /* \"#utility.yul\":4604:4669   */\n      tag_117\n      jump\t// in\n    tag_205:\n        /* \"#utility.yul\":4694:4723   */\n      tag_206\n        /* \"#utility.yul\":4716:4722   */\n      dup2\n        /* \"#utility.yul\":4694:4723   */\n      tag_118\n      jump\t// in\n    tag_206:\n        /* \"#utility.yul\":4689:4692   */\n      dup5\n        /* \"#utility.yul\":4685:4724   */\n      add\n        /* \"#utility.yul\":4678:4724   */\n      swap2\n      pop\n        /* \"#utility.yul\":4445:4730   */\n      pop\n        /* \"#utility.yul\":4353:4730   */\n      swap3\n      swap2\n      pop\n      pop\n      jump\t// out\n        /* \"#utility.yul\":4736:5049   */\n    tag_54:\n        /* \"#utility.yul\":4849:4853   */\n      0x00\n        /* \"#utility.yul\":4887:4889   */\n      0x20\n        /* \"#utility.yul\":4876:4885   */\n      dup3\n        /* \"#utility.yul\":4872:4890   */\n      add\n        /* \"#utility.yul\":4864:4890   */\n      swap1\n      pop\n        /* \"#utility.yul\":4936:4945   */\n      dup2\n        /* \"#utility.yul\":4930:4934   */\n      dup2\n        /* \"#utility.yul\":4926:4946   */\n      sub\n        /* \"#utility.yul\":4922:4923   */\n      0x00\n        /* \"#utility.yul\":4911:4920   */\n      dup4\n        /* \"#utility.yul\":4907:4924   */\n      add\n        /* \"#utility.yul\":4900:4947   */\n      mstore\n        /* \"#utility.yul\":4964:5042   */\n      tag_208\n        /* \"#utility.yul\":5037:5041   */\n      dup2\n        /* \"#utility.yul\":5028:5034   */\n      dup5\n        /* \"#utility.yul\":4964:5042   */\n      tag_119\n      jump\t// in\n    tag_208:\n        /* \"#utility.yul\":4956:5042   */\n      swap1\n      pop\n        /* \"#utility.yul\":4736:5049   */\n      swap3\n      swap2\n      pop\n      pop\n      jump\t// out\n        /* \"#utility.yul\":5055:5235   */\n    tag_120:\n        /* \"#utility.yul\":5103:5180   */\n      0x4e487b7100000000000000000000000000000000000000000000000000000000\n        /* \"#utility.yul\":5100:5101   */\n      0x00\n        /* \"#utility.yul\":5093:5181   */\n      mstore\n        /* \"#utility.yul\":5200:5204   */\n      0x41\n        /* \"#utility.yul\":5197:5198   */\n      0x04\n        /* \"#utility.yul\":5190:5205   */\n      mstore\n        /* \"#utility.yul\":5224:5228   */\n      0x24\n        /* \"#utility.yul\":5221:5222   */\n      0x00\n        /* \"#utility.yul\":5214:5229   */\n      revert\n        /* \"#utility.yul\":5241:5421   */\n    tag_121:\n        /* \"#utility.yul\":5289:5366   */\n      0x4e487b7100000000000000000000000000000000000000000000000000000000\n        /* \"#utility.yul\":5286:5287   */\n      0x00\n        /* \"#utility.yul\":5279:5367   */\n      mstore\n        /* \"#utility.yul\":5386:5390   */\n      0x22\n        /* \"#utility.yul\":5383:5384   */\n      0x04\n        /* \"#utility.yul\":5376:5391   */\n      mstore\n        /* \"#utility.yul\":5410:5414   */\n      0x24\n        /* \"#utility.yul\":5407:5408   */\n      0x00\n        /* \"#utility.yul\":5400:5415   */\n      revert\n        /* \"#utility.yul\":5427:5747   */\n    tag_89:\n        /* \"#utility.yul\":5471:5477   */\n      0x00\n        /* \"#utility.yul\":5508:5509   */\n      0x02\n        /* \"#utility.yul\":5502:5506   */\n      dup3\n        /* \"#utility.yul\":5498:5510   */\n      div\n        /* \"#utility.yul\":5488:5510   */\n      swap1\n      pop\n        /* \"#utility.yul\":5555:5556   */\n      0x01\n        /* \"#utility.yul\":5549:5553   */\n      dup3\n        /* \"#utility.yul\":5545:5557   */\n      and\n        /* \"#utility.yul\":5576:5594   */\n      dup1\n        /* \"#utility.yul\":5566:5647   */\n      tag_212\n      jumpi\n        /* \"#utility.yul\":5632:5636   */\n      0x7f\n        /* \"#utility.yul\":5624:5630   */\n      dup3\n        /* \"#utility.yul\":5620:5637   */\n      and\n        /* \"#utility.yul\":5610:5637   */\n      swap2\n      pop\n        /* \"#utility.yul\":5566:5647   */\n    tag_212:\n        /* \"#utility.yul\":5694:5696   */\n      0x20\n        /* \"#utility.yul\":5686:5692   */\n      dup3\n        /* \"#utility.yul\":5683:5697   */\n      lt\n        /* \"#utility.yul\":5663:5681   */\n      dup2\n        /* \"#utility.yul\":5660:5698   */\n      sub\n        /* \"#utility.yul\":5657:5741   */\n      tag_213\n      jumpi\n        /* \"#utility.yul\":5713:5731   */\n      tag_214\n      tag_121\n      jump\t// in\n    tag_214:\n        /* \"#utility.yul\":5657:5741   */\n    tag_213:\n        /* \"#utility.yul\":5478:5747   */\n      pop\n        /* \"#utility.yul\":5427:5747   */\n      swap2\n      swap1\n      pop\n      jump\t// out\n        /* \"#utility.yul\":5753:5894   */\n    tag_122:\n        /* \"#utility.yul\":5802:5806   */\n      0x00\n        /* \"#utility.yul\":5825:5828   */\n      dup2\n        /* \"#utility.yul\":5817:5828   */\n      swap1\n      pop\n        /* \"#utility.yul\":5848:5851   */\n      dup2\n        /* \"#utility.yul\":5845:5846   */\n      0x00\n        /* \"#utility.yul\":5838:5852   */\n      mstore\n        /* \"#utility.yul\":5882:5886   */\n      0x20\n        /* \"#utility.yul\":5879:5880   */\n      0x00\n        /* \"#utility.yul\":5869:5887   */\n      keccak256\n        /* \"#utility.yul\":5861:5887   */\n      swap1\n      pop\n        /* \"#utility.yul\":5753:5894   */\n      swap2\n      swap1\n      pop\n      jump\t// out\n        /* \"#utility.yul\":5900:5993   */\n    tag_123:\n        /* \"#utility.yul\":5937:5943   */\n      0x00\n        /* \"#utility.yul\":5984:5986   */\n      0x20\n        /* \"#utility.yul\":5979:5981   */\n      0x1f\n        /* \"#utility.yul\":5972:5977   */\n      dup4\n        /* \"#utility.yul\":5968:5982   */\n      add\n        /* \"#utility.yul\":5964:5987   */\n      div\n        /* \"#utility.yul\":5954:5987   */\n      swap1\n      pop\n        /* \"#utility.yul\":5900:5993   */\n      swap2\n      swap1\n      pop\n      jump\t// out\n        /* \"#utility.yul\":5999:6106   */\n    tag_124:\n        /* \"#utility.yul\":6043:6051   */\n      0x00\n        /* \"#utility.yul\":6093:6098   */\n      dup3\n        /* \"#utility.yul\":6087:6091   */\n      dup3\n        /* \"#utility.yul\":6083:6099   */\n      shl\n        /* \"#utility.yul\":6062:6099   */\n      swap1\n      pop\n        /* \"#utility.yul\":5999:6106   */\n      swap3\n      swap2\n      pop\n      pop\n      jump\t// out\n        /* \"#utility.yul\":6112:6505   */\n    tag_125:\n        /* \"#utility.yul\":6181:6187   */\n      0x00\n        /* \"#utility.yul\":6231:6232   */\n      0x08\n        /* \"#utility.yul\":6219:6229   */\n      dup4\n        /* \"#utility.yul\":6215:6233   */\n      mul\n        /* \"#utility.yul\":6254:6351   */\n      tag_219\n        /* \"#utility.yul\":6284:6350   */\n      0xffffffffffffffffffffffffffffffffffffffffffffffffffffffffffffffff\n        /* \"#utility.yul\":6273:6282   */\n      dup3\n        /* \"#utility.yul\":6254:6351   */\n      tag_124\n      jump\t// in\n    tag_219:\n        /* \"#utility.yul\":6372:6411   */\n      tag_220\n        /* \"#utility.yul\":6402:6410   */\n      dup7\n        /* \"#utility.yul\":6391:6400   */\n      dup4\n        /* \"#utility.yul\":6372:6411   */\n      tag_124\n      jump\t// in\n    tag_220:\n        /* \"#utility.yul\":6360:6411   */\n      swap6\n      pop\n        /* \"#utility.yul\":6444:6448   */\n      dup1\n        /* \"#utility.yul\":6440:6449   */\n      not\n        /* \"#utility.yul\":6433:6438   */\n      dup5\n        /* \"#utility.yul\":6429:6450   */\n      and\n        /* \"#utility.yul\":6420:6450   */\n      swap4\n      pop\n        /* \"#utility.yul\":6493:6497   */\n      dup1\n        /* \"#utility.yul\":6483:6491   */\n      dup7\n        /* \"#utility.yul\":6479:6498   */\n      and\n        /* \"#utility.yul\":6472:6477   */\n      dup5\n        /* \"#utility.yul\":6469:6499   */\n      or\n        /* \"#utility.yul\":6459:6499   */\n      swap3\n      pop\n        /* \"#utility.yul\":6188:6505   */\n      pop\n      pop\n        /* \"#utility.yul\":6112:6505   */\n      swap4\n      swap3\n      pop\n      pop\n      pop\n      jump\t// out\n        /* \"#utility.yul\":6511:6571   */\n    tag_126:\n        /* \"#utility.yul\":6539:6542   */\n      0x00\n        /* \"#utility.yul\":6560:6565   */\n      dup2\n        /* \"#utility.yul\":6553:6565   */\n      swap1\n      pop\n        /* \"#utility.yul\":6511:6571   */\n      swap2\n      swap1\n      pop\n      jump\t// out\n        /* \"#utility.yul\":6577:6719   */\n    tag_127:\n        /* \"#utility.yul\":6627:6636   */\n      0x00\n        /* \"#utility.yul\":6660:6713   */\n      tag_223\n        /* \"#utility.yul\":6678:6712   */\n      tag_224\n        /* \"#utility.yul\":6687:6711   */\n      tag_225\n        /* \"#utility.yul\":6705:6710   */\n      dup5\n        /* \"#utility.yul\":6687:6711   */\n      tag_103\n      jump\t// in\n    tag_225:\n        /* \"#utility.yul\":6678:6712   */\n      tag_126\n      jump\t// in\n    tag_224:\n        /* \"#utility.yul\":6660:6713   */\n      tag_103\n      jump\t// in\n    tag_223:\n        /* \"#utility.yul\":6647:6713   */\n      swap1\n      pop\n        /* \"#utility.yul\":6577:6719   */\n      swap2\n      swap1\n      pop\n      jump\t// out\n        /* \"#utility.yul\":6725:6800   */\n    tag_128:\n        /* \"#utility.yul\":6768:6771   */\n      0x00\n        /* \"#utility.yul\":6789:6794   */\n      dup2\n        /* \"#utility.yul\":6782:6794   */\n      swap1\n      pop\n        /* \"#utility.yul\":6725:6800   */\n      swap2\n      swap1\n      pop\n      jump\t// out\n        /* \"#utility.yul\":6806:7075   */\n    tag_129:\n        /* \"#utility.yul\":6916:6955   */\n      tag_228\n        /* \"#utility.yul\":6947:6954   */\n      dup4\n        /* \"#utility.yul\":6916:6955   */\n      tag_127\n      jump\t// in\n    tag_228:\n        /* \"#utility.yul\":6977:7068   */\n      tag_229\n        /* \"#utility.yul\":7026:7067   */\n      tag_230\n        /* \"#utility.yul\":7050:7066   */\n      dup3\n        /* \"#utility.yul\":7026:7067   */\n      tag_128\n      jump\t// in\n    tag_230:\n        /* \"#utility.yul\":7018:7024   */\n      dup5\n        /* \"#utility.yul\":7011:7015   */\n      dup5\n        /* \"#utility.yul\":7005:7016   */\n      sload\n        /* \"#utility.yul\":6977:7068   */\n      tag_125\n      jump\t// in\n    tag_229:\n        /* \"#utility.yul\":6971:6975   */\n      dup3\n        /* \"#utility.yul\":6964:7069   */\n      sstore\n        /* \"#utility.yul\":6882:7075   */\n      pop\n        /* \"#utility.yul\":6806:7075   */\n      pop\n      pop\n      pop\n      jump\t// out\n        /* \"#utility.yul\":7081:7154   */\n    tag_130:\n        /* \"#utility.yul\":7126:7129   */\n      0x00\n        /* \"#utility.yul\":7081:7154   */\n      swap1\n      jump\t// out\n        /* \"#utility.yul\":7160:7349   */\n    tag_131:\n        /* \"#utility.yul\":7237:7269   */\n      tag_233\n      tag_130\n      jump\t// in\n    tag_233:\n        /* \"#utility.yul\":7278:7343   */\n      tag_234\n        /* \"#utility.yul\":7336:7342   */\n      dup2\n        /* \"#utility.yul\":7328:7334   */\n      dup5\n        /* \"#utility.yul\":7322:7326   */\n      dup5\n        /* \"#utility.yul\":7278:7343   */\n      tag_129\n      jump\t// in\n    tag_234:\n        /* \"#utility.yul\":7213:7349   */\n      pop\n        /* \"#utility.yul\":7160:7349   */\n      pop\n      pop\n      jump\t// out\n        /* \"#utility.yul\":7355:7541   */\n    tag_132:\n        /* \"#utility.yul\":7415:7535   */\n    tag_236:\n        /* \"#utility.yul\":7432:7435   */\n      dup2\n        /* \"#utility.yul\":7425:7430   */\n      dup2\n        /* \"#utility.yul\":7422:7436   */\n      lt\n        /* \"#utility.yul\":7415:7535   */\n      iszero\n      tag_238\n      jumpi\n        /* \"#utility.yul\":7486:7525   */\n      tag_239\n        /* \"#utility.yul\":7523:7524   */\n      0x00\n        /* \"#utility.yul\":7516:7521   */\n      dup3\n        /* \"#utility.yul\":7486:7525   */\n      tag_131\n      jump\t// in\n    tag_239:\n        /* \"#utility.yul\":7459:7460   */\n      0x01\n        /* \"#utility.yul\":7452:7457   */\n      dup2\n        /* \"#utility.yul\":7448:7461   */\n      add\n        /* \"#utility.yul\":7439:7461   */\n      swap1\n      pop\n        /* \"#utility.yul\":7415:7535   */\n      jump(tag_236)\n    tag_238:\n        /* \"#utility.yul\":7355:7541   */\n      pop\n      pop\n      jump\t// out\n        /* \"#utility.yul\":7547:8090   */\n    tag_133:\n        /* \"#utility.yul\":7648:7650   */\n      0x1f\n        /* \"#utility.yul\":7643:7646   */\n      dup3\n        /* \"#utility.yul\":7640:7651   */\n      gt\n        /* \"#utility.yul\":7637:8083   */\n      iszero\n      tag_241\n      jumpi\n        /* \"#utility.yul\":7682:7720   */\n      tag_242\n        /* \"#utility.yul\":7714:7719   */\n      dup2\n        /* \"#utility.yul\":7682:7720   */\n      tag_122\n      jump\t// in\n    tag_242:\n        /* \"#utility.yul\":7766:7795   */\n      tag_243\n        /* \"#utility.yul\":7784:7794   */\n      dup5\n        /* \"#utility.yul\":7766:7795   */\n      tag_123\n      jump\t// in\n    tag_243:\n        /* \"#utility.yul\":7756:7764   */\n      dup2\n        /* \"#utility.yul\":7752:7796   */\n      add\n        /* \"#utility.yul\":7949:7951   */\n      0x20\n        /* \"#utility.yul\":7937:7947   */\n      dup6\n        /* \"#utility.yul\":7934:7952   */\n      lt\n        /* \"#utility.yul\":7931:7980   */\n      iszero\n      tag_244\n      jumpi\n        /* \"#utility.yul\":7970:7978   */\n      dup2\n        /* \"#utility.yul\":7955:7978   */\n      swap1\n      pop\n        /* \"#utility.yul\":7931:7980   */\n    tag_244:\n        /* \"#utility.yul\":7993:8073   */\n      tag_245\n        /* \"#utility.yul\":8049:8071   */\n      tag_246\n        /* \"#utility.yul\":8067:8070   */\n      dup6\n        /* \"#utility.yul\":8049:8071   */\n      tag_123\n      jump\t// in\n    tag_246:\n        /* \"#utility.yul\":8039:8047   */\n      dup4\n        /* \"#utility.yul\":8035:8072   */\n      add\n        /* \"#utility.yul\":8022:8033   */\n      dup3\n        /* \"#utility.yul\":7993:8073   */\n      tag_132\n      jump\t// in\n    tag_245:\n        /* \"#utility.yul\":7652:8083   */\n      pop\n      pop\n        /* \"#utility.yul\":7637:8083   */\n    tag_241:\n        /* \"#utility.yul\":7547:8090   */\n      pop\n      pop\n      pop\n      jump\t// out\n        /* \"#utility.yul\":8096:8213   */\n    tag_134:\n        /* \"#utility.yul\":8150:8158   */\n      0x00\n        /* \"#utility.yul\":8200:8205   */\n      dup3\n        /* \"#utility.yul\":8194:8198   */\n      dup3\n        /* \"#utility.yul\":8190:8206   */\n      shr\n        /* \"#utility.yul\":8169:8206   */\n      swap1\n      pop\n        /* \"#utility.yul\":8096:8213   */\n      swap3\n      swap2\n      pop\n      pop\n      jump\t// out\n        /* \"#utility.yul\":8219:8388   */\n    tag_135:\n        /* \"#utility.yul\":8263:8269   */\n      0x00\n        /* \"#utility.yul\":8296:8347   */\n      tag_249\n        /* \"#utility.yul\":8344:8345   */\n      0x00\n        /* \"#utility.yul\":8340:8346   */\n      not\n        /* \"#utility.yul\":8332:8337   */\n      dup5\n        /* \"#utility.yul\":8329:8330   */\n      0x08\n        /* \"#utility.yul\":8325:8338   */\n      mul\n        /* \"#utility.yul\":8296:8347   */\n      tag_134\n      jump\t// in\n    tag_249:\n        /* \"#utility.yul\":8292:8348   */\n      not\n        /* \"#utility.yul\":8377:8381   */\n      dup1\n        /* \"#utility.yul\":8371:8375   */\n      dup4\n        /* \"#utility.yul\":8367:8382   */\n      and\n        /* \"#utility.yul\":8357:8382   */\n      swap2\n      pop\n        /* \"#utility.yul\":8270:8388   */\n      pop\n        /* \"#utility.yul\":8219:8388   */\n      swap3\n      swap2\n      pop\n      pop\n      jump\t// out\n        /* \"#utility.yul\":8393:8688   */\n    tag_136:\n        /* \"#utility.yul\":8469:8473   */\n      0x00\n        /* \"#utility.yul\":8615:8644   */\n      tag_251\n        /* \"#utility.yul\":8640:8643   */\n      dup4\n        /* \"#utility.yul\":8634:8638   */\n      dup4\n        /* \"#utility.yul\":8615:8644   */\n      tag_135\n      jump\t// in\n    tag_251:\n        /* \"#utility.yul\":8607:8644   */\n      swap2\n      pop\n        /* \"#utility.yul\":8677:8680   */\n      dup3\n        /* \"#utility.yul\":8674:8675   */\n      0x02\n        /* \"#utility.yul\":8670:8681   */\n      mul\n        /* \"#utility.yul\":8664:8668   */\n      dup3\n        /* \"#utility.yul\":8661:8682   */\n      or\n        /* \"#utility.yul\":8653:8682   */\n      swap1\n      pop\n        /* \"#utility.yul\":8393:8688   */\n      swap3\n      swap2\n      pop\n      pop\n      jump\t// out\n        /* \"#utility.yul\":8693:10088   */\n    tag_59:\n        /* \"#utility.yul\":8810:8847   */\n      tag_253\n        /* \"#utility.yul\":8843:8846   */\n      dup3\n        /* \"#utility.yul\":8810:8847   */\n      tag_115\n      jump\t// in\n    tag_253:\n        /* \"#utility.yul\":8912:8930   */\n      0xffffffffffffffff\n        /* \"#utility.yul\":8904:8910   */\n      dup2\n        /* \"#utility.yul\":8901:8931   */\n      gt\n        /* \"#utility.yul\":8898:8954   */\n      iszero\n      tag_254\n      jumpi\n        /* \"#utility.yul\":8934:8952   */\n      tag_255\n      tag_120\n      jump\t// in\n    tag_255:\n        /* \"#utility.yul\":8898:8954   */\n    tag_254:\n        /* \"#utility.yul\":8978:9016   */\n      tag_256\n        /* \"#utility.yul\":9010:9014   */\n      dup3\n        /* \"#utility.yul\":9004:9015   */\n      sload\n        /* \"#utility.yul\":8978:9016   */\n      tag_89\n      jump\t// in\n    tag_256:\n        /* \"#utility.yul\":9063:9130   */\n      tag_257\n        /* \"#utility.yul\":9123:9129   */\n      dup3\n        /* \"#utility.yul\":9115:9121   */\n      dup3\n        /* \"#utility.yul\":9109:9113   */\n      dup6\n        /* \"#utility.yul\":9063:9130   */\n      tag_133\n      jump\t// in\n    tag_257:\n        /* \"#utility.yul\":9157:9158   */\n      0x00\n        /* \"#utility.yul\":9181:9185   */\n      0x20\n        /* \"#utility.yul\":9168:9185   */\n      swap1\n      pop\n        /* \"#utility.yul\":9213:9215   */\n      0x1f\n        /* \"#utility.yul\":9205:9211   */\n      dup4\n        /* \"#utility.yul\":9202:9216   */\n      gt\n        /* \"#utility.yul\":9230:9231   */\n      0x01\n        /* \"#utility.yul\":9225:9843   */\n      dup2\n      eq\n      tag_259\n      jumpi\n        /* \"#utility.yul\":9887:9888   */\n      0x00\n        /* \"#utility.yul\":9904:9910   */\n      dup5\n        /* \"#utility.yul\":9901:9978   */\n      iszero\n      tag_260\n      jumpi\n        /* \"#utility.yul\":9953:9962   */\n      dup3\n        /* \"#utility.yul\":9948:9951   */\n      dup8\n        /* \"#utility.yul\":9944:9963   */\n      add\n        /* \"#utility.yul\":9938:9964   */\n      mload\n        /* \"#utility.yul\":9929:9964   */\n      swap1\n      pop\n        /* \"#utility.yul\":9901:9978   */\n    tag_260:\n        /* \"#utility.yul\":10004:10071   */\n      tag_261\n        /* \"#utility.yul\":10064:10070   */\n      dup6\n        /* \"#utility.yul\":10057:10062   */\n      dup3\n        /* \"#utility.yul\":10004:10071   */\n      tag_136\n      jump\t// in\n    tag_261:\n        /* \"#utility.yul\":9998:10002   */\n      dup7\n        /* \"#utility.yul\":9991:10072   */\n      sstore\n        /* \"#utility.yul\":9860:10082   */\n      pop\n        /* \"#utility.yul\":9195:10082   */\n      jump(tag_258)\n        /* \"#utility.yul\":9225:9843   */\n    tag_259:\n        /* \"#utility.yul\":9277:9281   */\n      0x1f\n        /* \"#utility.yul\":9273:9282   */\n      not\n        /* \"#utility.yul\":9265:9271   */\n      dup5\n        /* \"#utility.yul\":9261:9283   */\n      and\n        /* \"#utility.yul\":9311:9348   */\n      tag_262\n        /* \"#utility.yul\":9343:9347   */\n      dup7\n        /* \"#utility.yul\":9311:9348   */\n      tag_122\n      jump\t// in\n    tag_262:\n        /* \"#utility.yul\":9370:9371   */\n      0x00\n        /* \"#utility.yul\":9384:9592   */\n    tag_263:\n        /* \"#utility.yul\":9398:9405   */\n      dup3\n        /* \"#utility.yul\":9395:9396   */\n      dup2\n        /* \"#utility.yul\":9392:9406   */\n      lt\n        /* \"#utility.yul\":9384:9592   */\n      iszero\n      tag_265\n      jumpi\n        /* \"#utility.yul\":9477:9486   */\n      dup5\n        /* \"#utility.yul\":9472:9475   */\n      dup10\n        /* \"#utility.yul\":9468:9487   */\n      add\n        /* \"#utility.yul\":9462:9488   */\n      mload\n        /* \"#utility.yul\":9454:9460   */\n      dup3\n        /* \"#utility.yul\":9447:9489   */\n      sstore\n        /* \"#utility.yul\":9528:9529   */\n      0x01\n        /* \"#utility.yul\":9520:9526   */\n      dup3\n        /* \"#utility.yul\":9516:9530   */\n      add\n        /* \"#utility.yul\":9506:9530   */\n      swap2\n      pop\n        /* \"#utility.yul\":9575:9577   */\n      0x20\n        /* \"#utility.yul\":9564:9573   */\n      dup6\n        /* \"#utility.yul\":9560:9578   */\n      add\n        /* \"#utility.yul\":9547:9578   */\n      swap5\n      pop\n        /* \"#utility.yul\":9421:9425   */\n      0x20\n        /* \"#utility.yul\":9418:9419   */\n      dup2\n        /* \"#utility.yul\":9414:9426   */\n      add\n        /* \"#utility.yul\":9409:9426   */\n      swap1\n      pop\n        /* \"#utility.yul\":9384:9592   */\n      jump(tag_263)\n    tag_265:\n        /* \"#utility.yul\":9620:9626   */\n      dup7\n        /* \"#utility.yul\":9611:9618   */\n      dup4\n        /* \"#utility.yul\":9608:9627   */\n      lt\n        /* \"#utility.yul\":9605:9784   */\n      iszero\n      tag_266\n      jumpi\n        /* \"#utility.yul\":9678:9687   */\n      dup5\n        /* \"#utility.yul\":9673:9676   */\n      dup10\n        /* \"#utility.yul\":9669:9688   */\n      add\n        /* \"#utility.yul\":9663:9689   */\n      mload\n        /* \"#utility.yul\":9721:9769   */\n      tag_267\n        /* \"#utility.yul\":9763:9767   */\n      0x1f\n        /* \"#utility.yul\":9755:9761   */\n      dup10\n        /* \"#utility.yul\":9751:9768   */\n      and\n        /* \"#utility.yul\":9740:9749   */\n      dup3\n        /* \"#utility.yul\":9721:9769   */\n      tag_135\n      jump\t// in\n    tag_267:\n        /* \"#utility.yul\":9713:9719   */\n      dup4\n        /* \"#utility.yul\":9706:9770   */\n      sstore\n        /* \"#utility.yul\":9628:9784   */\n      pop\n        /* \"#utility.yul\":9605:9784   */\n    tag_266:\n        /* \"#utility.yul\":9830:9831   */\n      0x01\n        /* \"#utility.yul\":9826:9827   */\n      0x02\n        /* \"#utility.yul\":9818:9824   */\n      dup9\n        /* \"#utility.yul\":9814:9828   */\n      mul\n        /* \"#utility.yul\":9810:9832   */\n      add\n        /* \"#utility.yul\":9804:9808   */\n      dup9\n        /* \"#utility.yul\":9797:9833   */\n      sstore\n        /* \"#utility.yul\":9232:9843   */\n      pop\n      pop\n      pop\n        /* \"#utility.yul\":9195:10082   */\n    tag_258:\n      pop\n        /* \"#utility.yul\":8785:10088   */\n      pop\n      pop\n      pop\n        /* \"#utility.yul\":8693:10088   */\n      pop\n      pop\n      jump\t// out\n        /* \"#utility.yul\":10094:10265   */\n    tag_137:\n        /* \"#utility.yul\":10234:10257   */\n      0x596f7520646f6e27742068617665206163636573730000000000000000000000\n        /* \"#utility.yul\":10230:10231   */\n      0x00\n        /* \"#utility.yul\":10222:10228   */\n      dup3\n        /* \"#utility.yul\":10218:10232   */\n      add\n        /* \"#utility.yul\":10211:10258   */\n      mstore\n        /* \"#utility.yul\":10094:10265   */\n      pop\n      jump\t// out\n        /* \"#utility.yul\":10271:10637   */\n    tag_138:\n        /* \"#utility.yul\":10413:10416   */\n      0x00\n        /* \"#utility.yul\":10434:10501   */\n      tag_270\n        /* \"#utility.yul\":10498:10500   */\n      0x15\n        /* \"#utility.yul\":10493:10496   */\n      dup4\n        /* \"#utility.yul\":10434:10501   */\n      tag_116\n      jump\t// in\n    tag_270:\n        /* \"#utility.yul\":10427:10501   */\n      swap2\n      pop\n        /* \"#utility.yul\":10510:10603   */\n      tag_271\n        /* \"#utility.yul\":10599:10602   */\n      dup3\n        /* \"#utility.yul\":10510:10603   */\n      tag_137\n      jump\t// in\n    tag_271:\n        /* \"#utility.yul\":10628:10630   */\n      0x20\n        /* \"#utility.yul\":10623:10626   */\n      dup3\n        /* \"#utility.yul\":10619:10631   */\n      add\n        /* \"#utility.yul\":10612:10631   */\n      swap1\n      pop\n        /* \"#utility.yul\":10271:10637   */\n      swap2\n      swap1\n      pop\n      jump\t// out\n        /* \"#utility.yul\":10643:11062   */\n    tag_63:\n        /* \"#utility.yul\":10809:10813   */\n      0x00\n        /* \"#utility.yul\":10847:10849   */\n      0x20\n        /* \"#utility.yul\":10836:10845   */\n      dup3\n        /* \"#utility.yul\":10832:10850   */\n      add\n        /* \"#utility.yul\":10824:10850   */\n      swap1\n      pop\n        /* \"#utility.yul\":10896:10905   */\n      dup2\n        /* \"#utility.yul\":10890:10894   */\n      dup2\n        /* \"#utility.yul\":10886:10906   */\n      sub\n        /* \"#utility.yul\":10882:10883   */\n      0x00\n        /* \"#utility.yul\":10871:10880   */\n      dup4\n        /* \"#utility.yul\":10867:10884   */\n      add\n        /* \"#utility.yul\":10860:10907   */\n      mstore\n        /* \"#utility.yul\":10924:11055   */\n      tag_273\n        /* \"#utility.yul\":11050:11054   */\n      dup2\n        /* \"#utility.yul\":10924:11055   */\n      tag_138\n      jump\t// in\n    tag_273:\n        /* \"#utility.yul\":10916:11055   */\n      swap1\n      pop\n        /* \"#utility.yul\":10643:11062   */\n      swap2\n      swap1\n      pop\n      jump\t// out\n        /* \"#utility.yul\":11068:11238   */\n    tag_139:\n        /* \"#utility.yul\":11208:11230   */\n      0x496e73756666696369656e742042616c616e6365000000000000000000000000\n        /* \"#utility.yul\":11204:11205   */\n      0x00\n        /* \"#utility.yul\":11196:11202   */\n      dup3\n        /* \"#utility.yul\":11192:11206   */\n      add\n        /* \"#utility.yul\":11185:11231   */\n      mstore\n        /* \"#utility.yul\":11068:11238   */\n      pop\n      jump\t// out\n        /* \"#utility.yul\":11244:11610   */\n    tag_140:\n        /* \"#utility.yul\":11386:11389   */\n      0x00\n        /* \"#utility.yul\":11407:11474   */\n      tag_276\n        /* \"#utility.yul\":11471:11473   */\n      0x14\n        /* \"#utility.yul\":11466:11469   */\n      dup4\n        /* \"#utility.yul\":11407:11474   */\n      tag_116\n      jump\t// in\n    tag_276:\n        /* \"#utility.yul\":11400:11474   */\n      swap2\n      pop\n        /* \"#utility.yul\":11483:11576   */\n      tag_277\n        /* \"#utility.yul\":11572:11575   */\n      dup3\n        /* \"#utility.yul\":11483:11576   */\n      tag_139\n      jump\t// in\n    tag_277:\n        /* \"#utility.yul\":11601:11603   */\n      0x20\n        /* \"#utility.yul\":11596:11599   */\n      dup3\n        /* \"#utility.yul\":11592:11604   */\n      add\n        /* \"#utility.yul\":11585:11604   */\n      swap1\n      pop\n        /* \"#utility.yul\":11244:11610   */\n      swap2\n      swap1\n      pop\n      jump\t// out\n        /* \"#utility.yul\":11616:12035   */\n    tag_67:\n        /* \"#utility.yul\":11782:11786   */\n      0x00\n        /* \"#utility.yul\":11820:11822   */\n      0x20\n        /* \"#utility.yul\":11809:11818   */\n      dup3\n        /* \"#utility.yul\":11805:11823   */\n      add\n        /* \"#utility.yul\":11797:11823   */\n      swap1\n      pop\n        /* \"#utility.yul\":11869:11878   */\n      dup2\n        /* \"#utility.yul\":11863:11867   */\n      dup2\n        /* \"#utility.yul\":11859:11879   */\n      sub\n        /* \"#utility.yul\":11855:11856   */\n      0x00\n        /* \"#utility.yul\":11844:11853   */\n      dup4\n        /* \"#utility.yul\":11840:11857   */\n      add\n        /* \"#utility.yul\":11833:11880   */\n      mstore\n        /* \"#utility.yul\":11897:12028   */\n      tag_279\n        /* \"#utility.yul\":12023:12027   */\n      dup2\n        /* \"#utility.yul\":11897:12028   */\n      tag_140\n      jump\t// in\n    tag_279:\n        /* \"#utility.yul\":11889:12028   */\n      swap1\n      pop\n        /* \"#utility.yul\":11616:12035   */\n      swap2\n      swap1\n      pop\n      jump\t// out\n        /* \"#utility.yul\":12041:12183   */\n    tag_141:\n        /* \"#utility.yul\":12091:12100   */\n      0x00\n        /* \"#utility.yul\":12124:12177   */\n      tag_281\n        /* \"#utility.yul\":12142:12176   */\n      tag_282\n        /* \"#utility.yul\":12151:12175   */\n      tag_283\n        /* \"#utility.yul\":12169:12174   */\n      dup5\n        /* \"#utility.yul\":12151:12175   */\n      tag_100\n      jump\t// in\n    tag_283:\n        /* \"#utility.yul\":12142:12176   */\n      tag_126\n      jump\t// in\n    tag_282:\n        /* \"#utility.yul\":12124:12177   */\n      tag_100\n      jump\t// in\n    tag_281:\n        /* \"#utility.yul\":12111:12177   */\n      swap1\n      pop\n        /* \"#utility.yul\":12041:12183   */\n      swap2\n      swap1\n      pop\n      jump\t// out\n        /* \"#utility.yul\":12189:12315   */\n    tag_142:\n        /* \"#utility.yul\":12239:12248   */\n      0x00\n        /* \"#utility.yul\":12272:12309   */\n      tag_285\n        /* \"#utility.yul\":12303:12308   */\n      dup3\n        /* \"#utility.yul\":12272:12309   */\n      tag_141\n      jump\t// in\n    tag_285:\n        /* \"#utility.yul\":12259:12309   */\n      swap1\n      pop\n        /* \"#utility.yul\":12189:12315   */\n      swap2\n      swap1\n      pop\n      jump\t// out\n        /* \"#utility.yul\":12321:12455   */\n    tag_143:\n        /* \"#utility.yul\":12379:12388   */\n      0x00\n        /* \"#utility.yul\":12412:12449   */\n      tag_287\n        /* \"#utility.yul\":12443:12448   */\n      dup3\n        /* \"#utility.yul\":12412:12449   */\n      tag_142\n      jump\t// in\n    tag_287:\n        /* \"#utility.yul\":12399:12449   */\n      swap1\n      pop\n        /* \"#utility.yul\":12321:12455   */\n      swap2\n      swap1\n      pop\n      jump\t// out\n        /* \"#utility.yul\":12461:12608   */\n    tag_144:\n        /* \"#utility.yul\":12556:12601   */\n      tag_289\n        /* \"#utility.yul\":12595:12600   */\n      dup2\n        /* \"#utility.yul\":12556:12601   */\n      tag_143\n      jump\t// in\n    tag_289:\n        /* \"#utility.yul\":12551:12554   */\n      dup3\n        /* \"#utility.yul\":12544:12602   */\n      mstore\n        /* \"#utility.yul\":12461:12608   */\n      pop\n      pop\n      jump\t// out\n        /* \"#utility.yul\":12614:12962   */\n    tag_71:\n        /* \"#utility.yul\":12743:12747   */\n      0x00\n        /* \"#utility.yul\":12781:12783   */\n      0x40\n        /* \"#utility.yul\":12770:12779   */\n      dup3\n        /* \"#utility.yul\":12766:12784   */\n      add\n        /* \"#utility.yul\":12758:12784   */\n      swap1\n      pop\n        /* \"#utility.yul\":12794:12873   */\n      tag_291\n        /* \"#utility.yul\":12870:12871   */\n      0x00\n        /* \"#utility.yul\":12859:12868   */\n      dup4\n        /* \"#utility.yul\":12855:12872   */\n      add\n        /* \"#utility.yul\":12846:12852   */\n      dup6\n        /* \"#utility.yul\":12794:12873   */\n      tag_144\n      jump\t// in\n    tag_291:\n        /* \"#utility.yul\":12883:12955   */\n      tag_292\n        /* \"#utility.yul\":12951:12953   */\n      0x20\n        /* \"#utility.yul\":12940:12949   */\n      dup4\n        /* \"#utility.yul\":12936:12954   */\n      add\n        /* \"#utility.yul\":12927:12933   */\n      dup5\n        /* \"#utility.yul\":12883:12955   */\n      tag_104\n      jump\t// in\n    tag_292:\n        /* \"#utility.yul\":12614:12962   */\n      swap4\n      swap3\n      pop\n      pop\n      pop\n      jump\t// out\n        /* \"#utility.yul\":12968:13139   */\n    tag_145:\n        /* \"#utility.yul\":13108:13131   */\n      0x496e7375666666696369656e742062616c616e63650000000000000000000000\n        /* \"#utility.yul\":13104:13105   */\n      0x00\n        /* \"#utility.yul\":13096:13102   */\n      dup3\n        /* \"#utility.yul\":13092:13106   */\n      add\n        /* \"#utility.yul\":13085:13132   */\n      mstore\n        /* \"#utility.yul\":12968:13139   */\n      pop\n      jump\t// out\n        /* \"#utility.yul\":13145:13511   */\n    tag_146:\n        /* \"#utility.yul\":13287:13290   */\n      0x00\n        /* \"#utility.yul\":13308:13375   */\n      tag_295\n        /* \"#utility.yul\":13372:13374   */\n      0x15\n        /* \"#utility.yul\":13367:13370   */\n      dup4\n        /* \"#utility.yul\":13308:13375   */\n      tag_116\n      jump\t// in\n    tag_295:\n        /* \"#utility.yul\":13301:13375   */\n      swap2\n      pop\n        /* \"#utility.yul\":13384:13477   */\n      tag_296\n        /* \"#utility.yul\":13473:13476   */\n      dup3\n        /* \"#utility.yul\":13384:13477   */\n      tag_145\n      jump\t// in\n    tag_296:\n        /* \"#utility.yul\":13502:13504   */\n      0x20\n        /* \"#utility.yul\":13497:13500   */\n      dup3\n        /* \"#utility.yul\":13493:13505   */\n      add\n        /* \"#utility.yul\":13486:13505   */\n      swap1\n      pop\n        /* \"#utility.yul\":13145:13511   */\n      swap2\n      swap1\n      pop\n      jump\t// out\n        /* \"#utility.yul\":13517:13936   */\n    tag_84:\n        /* \"#utility.yul\":13683:13687   */\n      0x00\n        /* \"#utility.yul\":13721:13723   */\n      0x20\n        /* \"#utility.yul\":13710:13719   */\n      dup3\n        /* \"#utility.yul\":13706:13724   */\n      add\n        /* \"#utility.yul\":13698:13724   */\n      swap1\n      pop\n        /* \"#utility.yul\":13770:13779   */\n      dup2\n        /* \"#utility.yul\":13764:13768   */\n      dup2\n        /* \"#utility.yul\":13760:13780   */\n      sub\n        /* \"#utility.yul\":13756:13757   */\n      0x00\n        /* \"#utility.yul\":13745:13754   */\n      dup4\n        /* \"#utility.yul\":13741:13758   */\n      add\n        /* \"#utility.yul\":13734:13781   */\n      mstore\n        /* \"#utility.yul\":13798:13929   */\n      tag_298\n        /* \"#utility.yul\":13924:13928   */\n      dup2\n        /* \"#utility.yul\":13798:13929   */\n      tag_146\n      jump\t// in\n    tag_298:\n        /* \"#utility.yul\":13790:13929   */\n      swap1\n      pop\n        /* \"#utility.yul\":13517:13936   */\n      swap2\n      swap1\n      pop\n      jump\t// out\n        /* \"#utility.yul\":13942:14164   */\n    tag_147:\n        /* \"#utility.yul\":14082:14116   */\n      0x5765692056616c7565206d7573742062652067726561746572207468616e207a\n        /* \"#utility.yul\":14078:14079   */\n      0x00\n        /* \"#utility.yul\":14070:14076   */\n      dup3\n        /* \"#utility.yul\":14066:14080   */\n      add\n        /* \"#utility.yul\":14059:14117   */\n      mstore\n        /* \"#utility.yul\":14151:14156   */\n      0x65726f0000000000000000000000000000000000000000000000000000000000\n        /* \"#utility.yul\":14146:14148   */\n      0x20\n        /* \"#utility.yul\":14138:14144   */\n      dup3\n        /* \"#utility.yul\":14134:14149   */\n      add\n        /* \"#utility.yul\":14127:14157   */\n      mstore\n        /* \"#utility.yul\":13942:14164   */\n      pop\n      jump\t// out\n        /* \"#utility.yul\":14170:14536   */\n    tag_148:\n        /* \"#utility.yul\":14312:14315   */\n      0x00\n        /* \"#utility.yul\":14333:14400   */\n      tag_301\n        /* \"#utility.yul\":14397:14399   */\n      0x23\n        /* \"#utility.yul\":14392:14395   */\n      dup4\n        /* \"#utility.yul\":14333:14400   */\n      tag_116\n      jump\t// in\n    tag_301:\n        /* \"#utility.yul\":14326:14400   */\n      swap2\n      pop\n        /* \"#utility.yul\":14409:14502   */\n      tag_302\n        /* \"#utility.yul\":14498:14501   */\n      dup3\n        /* \"#utility.yul\":14409:14502   */\n      tag_147\n      jump\t// in\n    tag_302:\n        /* \"#utility.yul\":14527:14529   */\n      0x40\n        /* \"#utility.yul\":14522:14525   */\n      dup3\n        /* \"#utility.yul\":14518:14530   */\n      add\n        /* \"#utility.yul\":14511:14530   */\n      swap1\n      pop\n        /* \"#utility.yul\":14170:14536   */\n      swap2\n      swap1\n      pop\n      jump\t// out\n        /* \"#utility.yul\":14542:14961   */\n    tag_97:\n        /* \"#utility.yul\":14708:14712   */\n      0x00\n        /* \"#utility.yul\":14746:14748   */\n      0x20\n        /* \"#utility.yul\":14735:14744   */\n      dup3\n        /* \"#utility.yul\":14731:14749   */\n      add\n        /* \"#utility.yul\":14723:14749   */\n      swap1\n      pop\n        /* \"#utility.yul\":14795:14804   */\n      dup2\n        /* \"#utility.yul\":14789:14793   */\n      dup2\n        /* \"#utility.yul\":14785:14805   */\n      sub\n        /* \"#utility.yul\":14781:14782   */\n      0x00\n        /* \"#utility.yul\":14770:14779   */\n      dup4\n        /* \"#utility.yul\":14766:14783   */\n      add\n        /* \"#utility.yul\":14759:14806   */\n      mstore\n        /* \"#utility.yul\":14823:14954   */\n      tag_304\n        /* \"#utility.yul\":14949:14953   */\n      dup2\n        /* \"#utility.yul\":14823:14954   */\n      tag_148\n      jump\t// in\n    tag_304:\n        /* \"#utility.yul\":14815:14954   */\n      swap1\n      pop\n        /* \"#utility.yul\":14542:14961   */\n      swap2\n      swap1\n      pop\n      jump\t// out\n    stop\n    data_c123cd75709b7c6df0c0c5a89e8bb7a5262b866bac4d842c701fa5769b20fbab 416d6f756e74207472616e7366657272656420746f2074686520636f6e7472616374\n\n    auxdata: 0xa26469706673582212205d06dbca64e4b9fa82ab3d929b3108169b764930db059668231be4fef8b7bd5964736f6c634300081a0033\n}\n",
				"bytecode": {
					"linkReferences": {},
					"object": "6080604052348015600e575f80fd5b50335f806101000a81548173ffffffffffffffffffffffffffffffffffffffff021916908373ffffffffffffffffffffffffffffffffffffffff160217905550610ec88061005b5f395ff3fe608060405260043610610089575f3560e01c80638da5cb5b116100585780638da5cb5b1461014e578063aeae547d14610178578063bfa698de146101a0578063c15bae84146101ca578063d2b53948146101f4576100c9565b806312cccb34146100d657806347cdcc1f146100e0578063547fbe8e146101085780636f3f42ac14610132576100c9565b366100c9577fd6717f327e0cb88b4a97a7f67a453e9258252c34937ccbdd86de7cb840e7def333346040516100bf92919061072b565b60405180910390a1005b3480156100d4575f80fd5b005b6100de6101fe565b005b3480156100eb575f80fd5b50610106600480360381019061010191906107bb565b610228565b005b348015610113575f80fd5b5061011c610379565b60405161012991906107f9565b60405180910390f35b61014c6004803603810190610147919061083c565b6103b7565b005b348015610159575f80fd5b50610162610441565b60405161016f9190610867565b60405180910390f35b348015610183575f80fd5b5061019e60048036038101906101999190610880565b610464565b005b3480156101ab575f80fd5b506101b461059a565b6040516101c191906107f9565b60405180910390f35b3480156101d5575f80fd5b506101de6105a1565b6040516101eb919061091b565b60405180910390f35b6101fc61062d565b005b604051806060016040528060228152602001610e7160229139600190816102259190610b62565b50565b5f8054906101000a900473ffffffffffffffffffffffffffffffffffffffff1673ffffffffffffffffffffffffffffffffffffffff163373ffffffffffffffffffffffffffffffffffffffff16146102b5576040517f08c379a00000000000000000000000000000000000000000000000000000000081526004016102ac90610c7b565b60405180910390fd5b804710156102f8576040517f08c379a00000000000000000000000000000000000000000000000000000000081526004016102ef90610ce3565b60405180910390fd5b8173ffffffffffffffffffffffffffffffffffffffff166108fc8290811502906040515f60405180830381858888f1935050505015801561033b573d5f803e3d5ffd5b507f69ca02dd4edd7bf0a4abb9ed3b7af3f14778db5d61921c7dc7cd545266326de2828260405161036d929190610d53565b60405180910390a15050565b5f805f9054906101000a900473ffffffffffffffffffffffffffffffffffffffff1673ffffffffffffffffffffffffffffffffffffffff1631905090565b344710156103fa576040517f08c379a00000000000000000000000000000000000000000000000000000000081526004016103f190610ce3565b60405180910390fd5b8073ffffffffffffffffffffffffffffffffffffffff166108fc3490811502906040515f60405180830381858888f1935050505015801561043d573d5f803e3d5ffd5b5050565b5f8054906101000a900473ffffffffffffffffffffffffffffffffffffffff1681565b5f8054906101000a900473ffffffffffffffffffffffffffffffffffffffff1673ffffffffffffffffffffffffffffffffffffffff163373ffffffffffffffffffffffffffffffffffffffff16146104f1576040517f08c379a00000000000000000000000000000000000000000000000000000000081526004016104e890610c7b565b60405180910390fd5b80471015610534576040517f08c379a000000000000000000000000000000000000000000000000000000000815260040161052b90610dc4565b60405180910390fd5b5f8054906101000a900473ffffffffffffffffffffffffffffffffffffffff1673ffffffffffffffffffffffffffffffffffffffff166108fc8290811502906040515f60405180830381858888f19350505050158015610596573d5f803e3d5ffd5b5050565b5f47905090565b600180546105ae90610995565b80601f01602080910402602001604051908101604052809291908181526020018280546105da90610995565b80156106255780601f106105fc57610100808354040283529160200191610625565b820191905f5260205f20905b81548152906001019060200180831161060857829003601f168201915b505050505081565b5f341161066f576040517f08c379a000000000000000000000000000000000000000000000000000000000815260040161066690610e52565b60405180910390fd5b5f8054906101000a900473ffffffffffffffffffffffffffffffffffffffff1673ffffffffffffffffffffffffffffffffffffffff166108fc3490811502906040515f60405180830381858888f193505050501580156106d1573d5f803e3d5ffd5b50565b5f73ffffffffffffffffffffffffffffffffffffffff82169050919050565b5f6106fd826106d4565b9050919050565b61070d816106f3565b82525050565b5f819050919050565b61072581610713565b82525050565b5f60408201905061073e5f830185610704565b61074b602083018461071c565b9392505050565b5f80fd5b5f610760826106d4565b9050919050565b61077081610756565b811461077a575f80fd5b50565b5f8135905061078b81610767565b92915050565b61079a81610713565b81146107a4575f80fd5b50565b5f813590506107b581610791565b92915050565b5f80604083850312156107d1576107d0610752565b5b5f6107de8582860161077d565b92505060206107ef858286016107a7565b9150509250929050565b5f60208201905061080c5f83018461071c565b92915050565b61081b816106f3565b8114610825575f80fd5b50565b5f8135905061083681610812565b92915050565b5f6020828403121561085157610850610752565b5b5f61085e84828501610828565b91505092915050565b5f60208201905061087a5f830184610704565b92915050565b5f6020828403121561089557610894610752565b5b5f6108a2848285016107a7565b91505092915050565b5f81519050919050565b5f82825260208201905092915050565b8281835e5f83830152505050565b5f601f19601f8301169050919050565b5f6108ed826108ab565b6108f781856108b5565b93506109078185602086016108c5565b610910816108d3565b840191505092915050565b5f6020820190508181035f83015261093381846108e3565b905092915050565b7f4e487b71000000000000000000000000000000000000000000000000000000005f52604160045260245ffd5b7f4e487b71000000000000000000000000000000000000000000000000000000005f52602260045260245ffd5b5f60028204905060018216806109ac57607f821691505b6020821081036109bf576109be610968565b5b50919050565b5f819050815f5260205f209050919050565b5f6020601f8301049050919050565b5f82821b905092915050565b5f60088302610a217fffffffffffffffffffffffffffffffffffffffffffffffffffffffffffffffff826109e6565b610a2b86836109e6565b95508019841693508086168417925050509392505050565b5f819050919050565b5f610a66610a61610a5c84610713565b610a43565b610713565b9050919050565b5f819050919050565b610a7f83610a4c565b610a93610a8b82610a6d565b8484546109f2565b825550505050565b5f90565b610aa7610a9b565b610ab2818484610a76565b505050565b5b81811015610ad557610aca5f82610a9f565b600181019050610ab8565b5050565b601f821115610b1a57610aeb816109c5565b610af4846109d7565b81016020851015610b03578190505b610b17610b0f856109d7565b830182610ab7565b50505b505050565b5f82821c905092915050565b5f610b3a5f1984600802610b1f565b1980831691505092915050565b5f610b528383610b2b565b9150826002028217905092915050565b610b6b826108ab565b67ffffffffffffffff811115610b8457610b8361093b565b5b610b8e8254610995565b610b99828285610ad9565b5f60209050601f831160018114610bca575f8415610bb8578287015190505b610bc28582610b47565b865550610c29565b601f198416610bd8866109c5565b5f5b82811015610bff57848901518255600182019150602085019450602081019050610bda565b86831015610c1c5784890151610c18601f891682610b2b565b8355505b6001600288020188555050505b505050505050565b7f596f7520646f6e277420686176652061636365737300000000000000000000005f82015250565b5f610c656015836108b5565b9150610c7082610c31565b602082019050919050565b5f6020820190508181035f830152610c9281610c59565b9050919050565b7f496e73756666696369656e742042616c616e63650000000000000000000000005f82015250565b5f610ccd6014836108b5565b9150610cd882610c99565b602082019050919050565b5f6020820190508181035f830152610cfa81610cc1565b9050919050565b5f610d1b610d16610d11846106d4565b610a43565b6106d4565b9050919050565b5f610d2c82610d01565b9050919050565b5f610d3d82610d22565b9050919050565b610d4d81610d33565b82525050565b5f604082019050610d665f830185610d44565b610d73602083018461071c565b9392505050565b7f496e7375666666696369656e742062616c616e636500000000000000000000005f82015250565b5f610dae6015836108b5565b9150610db982610d7a565b602082019050919050565b5f6020820190508181035f830152610ddb81610da2565b9050919050565b7f5765692056616c7565206d7573742062652067726561746572207468616e207a5f8201527f65726f0000000000000000000000000000000000000000000000000000000000602082015250565b5f610e3c6023836108b5565b9150610e4782610de2565b604082019050919050565b5f6020820190508181035f830152610e6981610e30565b905091905056fe416d6f756e74207472616e7366657272656420746f2074686520636f6e7472616374a26469706673582212205d06dbca64e4b9fa82ab3d929b3108169b764930db059668231be4fef8b7bd5964736f6c634300081a0033",
					"opcodes": "PUSH1 0x80 PUSH1 0x40 MSTORE CALLVALUE DUP1 ISZERO PUSH1 0xE JUMPI PUSH0 DUP1 REVERT JUMPDEST POP CALLER PUSH0 DUP1 PUSH2 0x100 EXP DUP2 SLOAD DUP2 PUSH20 0xFFFFFFFFFFFFFFFFFFFFFFFFFFFFFFFFFFFFFFFF MUL NOT AND SWAP1 DUP4 PUSH20 0xFFFFFFFFFFFFFFFFFFFFFFFFFFFFFFFFFFFFFFFF AND MUL OR SWAP1 SSTORE POP PUSH2 0xEC8 DUP1 PUSH2 0x5B PUSH0 CODECOPY PUSH0 RETURN INVALID PUSH1 0x80 PUSH1 0x40 MSTORE PUSH1 0x4 CALLDATASIZE LT PUSH2 0x89 JUMPI PUSH0 CALLDATALOAD PUSH1 0xE0 SHR DUP1 PUSH4 0x8DA5CB5B GT PUSH2 0x58 JUMPI DUP1 PUSH4 0x8DA5CB5B EQ PUSH2 0x14E JUMPI DUP1 PUSH4 0xAEAE547D EQ PUSH2 0x178 JUMPI DUP1 PUSH4 0xBFA698DE EQ PUSH2 0x1A0 JUMPI DUP1 PUSH4 0xC15BAE84 EQ PUSH2 0x1CA JUMPI DUP1 PUSH4 0xD2B53948 EQ PUSH2 0x1F4 JUMPI PUSH2 0xC9 JUMP JUMPDEST DUP1 PUSH4 0x12CCCB34 EQ PUSH2 0xD6 JUMPI DUP1 PUSH4 0x47CDCC1F EQ PUSH2 0xE0 JUMPI DUP1 PUSH4 0x547FBE8E EQ PUSH2 0x108 JUMPI DUP1 PUSH4 0x6F3F42AC EQ PUSH2 0x132 JUMPI PUSH2 0xC9 JUMP JUMPDEST CALLDATASIZE PUSH2 0xC9 JUMPI PUSH32 0xD6717F327E0CB88B4A97A7F67A453E9258252C34937CCBDD86DE7CB840E7DEF3 CALLER CALLVALUE PUSH1 0x40 MLOAD PUSH2 0xBF SWAP3 SWAP2 SWAP1 PUSH2 0x72B JUMP JUMPDEST PUSH1 0x40 MLOAD DUP1 SWAP2 SUB SWAP1 LOG1 STOP JUMPDEST CALLVALUE DUP1 ISZERO PUSH2 0xD4 JUMPI PUSH0 DUP1 REVERT JUMPDEST STOP JUMPDEST PUSH2 0xDE PUSH2 0x1FE JUMP JUMPDEST STOP JUMPDEST CALLVALUE DUP1 ISZERO PUSH2 0xEB JUMPI PUSH0 DUP1 REVERT JUMPDEST POP PUSH2 0x106 PUSH1 0x4 DUP1 CALLDATASIZE SUB DUP2 ADD SWAP1 PUSH2 0x101 SWAP2 SWAP1 PUSH2 0x7BB JUMP JUMPDEST PUSH2 0x228 JUMP JUMPDEST STOP JUMPDEST CALLVALUE DUP1 ISZERO PUSH2 0x113 JUMPI PUSH0 DUP1 REVERT JUMPDEST POP PUSH2 0x11C PUSH2 0x379 JUMP JUMPDEST PUSH1 0x40 MLOAD PUSH2 0x129 SWAP2 SWAP1 PUSH2 0x7F9 JUMP JUMPDEST PUSH1 0x40 MLOAD DUP1 SWAP2 SUB SWAP1 RETURN JUMPDEST PUSH2 0x14C PUSH1 0x4 DUP1 CALLDATASIZE SUB DUP2 ADD SWAP1 PUSH2 0x147 SWAP2 SWAP1 PUSH2 0x83C JUMP JUMPDEST PUSH2 0x3B7 JUMP JUMPDEST STOP JUMPDEST CALLVALUE DUP1 ISZERO PUSH2 0x159 JUMPI PUSH0 DUP1 REVERT JUMPDEST POP PUSH2 0x162 PUSH2 0x441 JUMP JUMPDEST PUSH1 0x40 MLOAD PUSH2 0x16F SWAP2 SWAP1 PUSH2 0x867 JUMP JUMPDEST PUSH1 0x40 MLOAD DUP1 SWAP2 SUB SWAP1 RETURN JUMPDEST CALLVALUE DUP1 ISZERO PUSH2 0x183 JUMPI PUSH0 DUP1 REVERT JUMPDEST POP PUSH2 0x19E PUSH1 0x4 DUP1 CALLDATASIZE SUB DUP2 ADD SWAP1 PUSH2 0x199 SWAP2 SWAP1 PUSH2 0x880 JUMP JUMPDEST PUSH2 0x464 JUMP JUMPDEST STOP JUMPDEST CALLVALUE DUP1 ISZERO PUSH2 0x1AB JUMPI PUSH0 DUP1 REVERT JUMPDEST POP PUSH2 0x1B4 PUSH2 0x59A JUMP JUMPDEST PUSH1 0x40 MLOAD PUSH2 0x1C1 SWAP2 SWAP1 PUSH2 0x7F9 JUMP JUMPDEST PUSH1 0x40 MLOAD DUP1 SWAP2 SUB SWAP1 RETURN JUMPDEST CALLVALUE DUP1 ISZERO PUSH2 0x1D5 JUMPI PUSH0 DUP1 REVERT JUMPDEST POP PUSH2 0x1DE PUSH2 0x5A1 JUMP JUMPDEST PUSH1 0x40 MLOAD PUSH2 0x1EB SWAP2 SWAP1 PUSH2 0x91B JUMP JUMPDEST PUSH1 0x40 MLOAD DUP1 SWAP2 SUB SWAP1 RETURN JUMPDEST PUSH2 0x1FC PUSH2 0x62D JUMP JUMPDEST STOP JUMPDEST PUSH1 0x40 MLOAD DUP1 PUSH1 0x60 ADD PUSH1 0x40 MSTORE DUP1 PUSH1 0x22 DUP2 MSTORE PUSH1 0x20 ADD PUSH2 0xE71 PUSH1 0x22 SWAP2 CODECOPY PUSH1 0x1 SWAP1 DUP2 PUSH2 0x225 SWAP2 SWAP1 PUSH2 0xB62 JUMP JUMPDEST POP JUMP JUMPDEST PUSH0 DUP1 SLOAD SWAP1 PUSH2 0x100 EXP SWAP1 DIV PUSH20 0xFFFFFFFFFFFFFFFFFFFFFFFFFFFFFFFFFFFFFFFF AND PUSH20 0xFFFFFFFFFFFFFFFFFFFFFFFFFFFFFFFFFFFFFFFF AND CALLER PUSH20 0xFFFFFFFFFFFFFFFFFFFFFFFFFFFFFFFFFFFFFFFF AND EQ PUSH2 0x2B5 JUMPI PUSH1 0x40 MLOAD PUSH32 0x8C379A000000000000000000000000000000000000000000000000000000000 DUP2 MSTORE PUSH1 0x4 ADD PUSH2 0x2AC SWAP1 PUSH2 0xC7B JUMP JUMPDEST PUSH1 0x40 MLOAD DUP1 SWAP2 SUB SWAP1 REVERT JUMPDEST DUP1 SELFBALANCE LT ISZERO PUSH2 0x2F8 JUMPI PUSH1 0x40 MLOAD PUSH32 0x8C379A000000000000000000000000000000000000000000000000000000000 DUP2 MSTORE PUSH1 0x4 ADD PUSH2 0x2EF SWAP1 PUSH2 0xCE3 JUMP JUMPDEST PUSH1 0x40 MLOAD DUP1 SWAP2 SUB SWAP1 REVERT JUMPDEST DUP2 PUSH20 0xFFFFFFFFFFFFFFFFFFFFFFFFFFFFFFFFFFFFFFFF AND PUSH2 0x8FC DUP3 SWAP1 DUP2 ISZERO MUL SWAP1 PUSH1 0x40 MLOAD PUSH0 PUSH1 0x40 MLOAD DUP1 DUP4 SUB DUP2 DUP6 DUP9 DUP9 CALL SWAP4 POP POP POP POP ISZERO DUP1 ISZERO PUSH2 0x33B JUMPI RETURNDATASIZE PUSH0 DUP1 RETURNDATACOPY RETURNDATASIZE PUSH0 REVERT JUMPDEST POP PUSH32 0x69CA02DD4EDD7BF0A4ABB9ED3B7AF3F14778DB5D61921C7DC7CD545266326DE2 DUP3 DUP3 PUSH1 0x40 MLOAD PUSH2 0x36D SWAP3 SWAP2 SWAP1 PUSH2 0xD53 JUMP JUMPDEST PUSH1 0x40 MLOAD DUP1 SWAP2 SUB SWAP1 LOG1 POP POP JUMP JUMPDEST PUSH0 DUP1 PUSH0 SWAP1 SLOAD SWAP1 PUSH2 0x100 EXP SWAP1 DIV PUSH20 0xFFFFFFFFFFFFFFFFFFFFFFFFFFFFFFFFFFFFFFFF AND PUSH20 0xFFFFFFFFFFFFFFFFFFFFFFFFFFFFFFFFFFFFFFFF AND BALANCE SWAP1 POP SWAP1 JUMP JUMPDEST CALLVALUE SELFBALANCE LT ISZERO PUSH2 0x3FA JUMPI PUSH1 0x40 MLOAD PUSH32 0x8C379A000000000000000000000000000000000000000000000000000000000 DUP2 MSTORE PUSH1 0x4 ADD PUSH2 0x3F1 SWAP1 PUSH2 0xCE3 JUMP JUMPDEST PUSH1 0x40 MLOAD DUP1 SWAP2 SUB SWAP1 REVERT JUMPDEST DUP1 PUSH20 0xFFFFFFFFFFFFFFFFFFFFFFFFFFFFFFFFFFFFFFFF AND PUSH2 0x8FC CALLVALUE SWAP1 DUP2 ISZERO MUL SWAP1 PUSH1 0x40 MLOAD PUSH0 PUSH1 0x40 MLOAD DUP1 DUP4 SUB DUP2 DUP6 DUP9 DUP9 CALL SWAP4 POP POP POP POP ISZERO DUP1 ISZERO PUSH2 0x43D JUMPI RETURNDATASIZE PUSH0 DUP1 RETURNDATACOPY RETURNDATASIZE PUSH0 REVERT JUMPDEST POP POP JUMP JUMPDEST PUSH0 DUP1 SLOAD SWAP1 PUSH2 0x100 EXP SWAP1 DIV PUSH20 0xFFFFFFFFFFFFFFFFFFFFFFFFFFFFFFFFFFFFFFFF AND DUP2 JUMP JUMPDEST PUSH0 DUP1 SLOAD SWAP1 PUSH2 0x100 EXP SWAP1 DIV PUSH20 0xFFFFFFFFFFFFFFFFFFFFFFFFFFFFFFFFFFFFFFFF AND PUSH20 0xFFFFFFFFFFFFFFFFFFFFFFFFFFFFFFFFFFFFFFFF AND CALLER PUSH20 0xFFFFFFFFFFFFFFFFFFFFFFFFFFFFFFFFFFFFFFFF AND EQ PUSH2 0x4F1 JUMPI PUSH1 0x40 MLOAD PUSH32 0x8C379A000000000000000000000000000000000000000000000000000000000 DUP2 MSTORE PUSH1 0x4 ADD PUSH2 0x4E8 SWAP1 PUSH2 0xC7B JUMP JUMPDEST PUSH1 0x40 MLOAD DUP1 SWAP2 SUB SWAP1 REVERT JUMPDEST DUP1 SELFBALANCE LT ISZERO PUSH2 0x534 JUMPI PUSH1 0x40 MLOAD PUSH32 0x8C379A000000000000000000000000000000000000000000000000000000000 DUP2 MSTORE PUSH1 0x4 ADD PUSH2 0x52B SWAP1 PUSH2 0xDC4 JUMP JUMPDEST PUSH1 0x40 MLOAD DUP1 SWAP2 SUB SWAP1 REVERT JUMPDEST PUSH0 DUP1 SLOAD SWAP1 PUSH2 0x100 EXP SWAP1 DIV PUSH20 0xFFFFFFFFFFFFFFFFFFFFFFFFFFFFFFFFFFFFFFFF AND PUSH20 0xFFFFFFFFFFFFFFFFFFFFFFFFFFFFFFFFFFFFFFFF AND PUSH2 0x8FC DUP3 SWAP1 DUP2 ISZERO MUL SWAP1 PUSH1 0x40 MLOAD PUSH0 PUSH1 0x40 MLOAD DUP1 DUP4 SUB DUP2 DUP6 DUP9 DUP9 CALL SWAP4 POP POP POP POP ISZERO DUP1 ISZERO PUSH2 0x596 JUMPI RETURNDATASIZE PUSH0 DUP1 RETURNDATACOPY RETURNDATASIZE PUSH0 REVERT JUMPDEST POP POP JUMP JUMPDEST PUSH0 SELFBALANCE SWAP1 POP SWAP1 JUMP JUMPDEST PUSH1 0x1 DUP1 SLOAD PUSH2 0x5AE SWAP1 PUSH2 0x995 JUMP JUMPDEST DUP1 PUSH1 0x1F ADD PUSH1 0x20 DUP1 SWAP2 DIV MUL PUSH1 0x20 ADD PUSH1 0x40 MLOAD SWAP1 DUP2 ADD PUSH1 0x40 MSTORE DUP1 SWAP3 SWAP2 SWAP1 DUP2 DUP2 MSTORE PUSH1 0x20 ADD DUP3 DUP1 SLOAD PUSH2 0x5DA SWAP1 PUSH2 0x995 JUMP JUMPDEST DUP1 ISZERO PUSH2 0x625 JUMPI DUP1 PUSH1 0x1F LT PUSH2 0x5FC JUMPI PUSH2 0x100 DUP1 DUP4 SLOAD DIV MUL DUP4 MSTORE SWAP2 PUSH1 0x20 ADD SWAP2 PUSH2 0x625 JUMP JUMPDEST DUP3 ADD SWAP2 SWAP1 PUSH0 MSTORE PUSH1 0x20 PUSH0 KECCAK256 SWAP1 JUMPDEST DUP2 SLOAD DUP2 MSTORE SWAP1 PUSH1 0x1 ADD SWAP1 PUSH1 0x20 ADD DUP1 DUP4 GT PUSH2 0x608 JUMPI DUP3 SWAP1 SUB PUSH1 0x1F AND DUP3 ADD SWAP2 JUMPDEST POP POP POP POP POP DUP2 JUMP JUMPDEST PUSH0 CALLVALUE GT PUSH2 0x66F JUMPI PUSH1 0x40 MLOAD PUSH32 0x8C379A000000000000000000000000000000000000000000000000000000000 DUP2 MSTORE PUSH1 0x4 ADD PUSH2 0x666 SWAP1 PUSH2 0xE52 JUMP JUMPDEST PUSH1 0x40 MLOAD DUP1 SWAP2 SUB SWAP1 REVERT JUMPDEST PUSH0 DUP1 SLOAD SWAP1 PUSH2 0x100 EXP SWAP1 DIV PUSH20 0xFFFFFFFFFFFFFFFFFFFFFFFFFFFFFFFFFFFFFFFF AND PUSH20 0xFFFFFFFFFFFFFFFFFFFFFFFFFFFFFFFFFFFFFFFF AND PUSH2 0x8FC CALLVALUE SWAP1 DUP2 ISZERO MUL SWAP1 PUSH1 0x40 MLOAD PUSH0 PUSH1 0x40 MLOAD DUP1 DUP4 SUB DUP2 DUP6 DUP9 DUP9 CALL SWAP4 POP POP POP POP ISZERO DUP1 ISZERO PUSH2 0x6D1 JUMPI RETURNDATASIZE PUSH0 DUP1 RETURNDATACOPY RETURNDATASIZE PUSH0 REVERT JUMPDEST POP JUMP JUMPDEST PUSH0 PUSH20 0xFFFFFFFFFFFFFFFFFFFFFFFFFFFFFFFFFFFFFFFF DUP3 AND SWAP1 POP SWAP2 SWAP1 POP JUMP JUMPDEST PUSH0 PUSH2 0x6FD DUP3 PUSH2 0x6D4 JUMP JUMPDEST SWAP1 POP SWAP2 SWAP1 POP JUMP JUMPDEST PUSH2 0x70D DUP2 PUSH2 0x6F3 JUMP JUMPDEST DUP3 MSTORE POP POP JUMP JUMPDEST PUSH0 DUP2 SWAP1 POP SWAP2 SWAP1 POP JUMP JUMPDEST PUSH2 0x725 DUP2 PUSH2 0x713 JUMP JUMPDEST DUP3 MSTORE POP POP JUMP JUMPDEST PUSH0 PUSH1 0x40 DUP3 ADD SWAP1 POP PUSH2 0x73E PUSH0 DUP4 ADD DUP6 PUSH2 0x704 JUMP JUMPDEST PUSH2 0x74B PUSH1 0x20 DUP4 ADD DUP5 PUSH2 0x71C JUMP JUMPDEST SWAP4 SWAP3 POP POP POP JUMP JUMPDEST PUSH0 DUP1 REVERT JUMPDEST PUSH0 PUSH2 0x760 DUP3 PUSH2 0x6D4 JUMP JUMPDEST SWAP1 POP SWAP2 SWAP1 POP JUMP JUMPDEST PUSH2 0x770 DUP2 PUSH2 0x756 JUMP JUMPDEST DUP2 EQ PUSH2 0x77A JUMPI PUSH0 DUP1 REVERT JUMPDEST POP JUMP JUMPDEST PUSH0 DUP2 CALLDATALOAD SWAP1 POP PUSH2 0x78B DUP2 PUSH2 0x767 JUMP JUMPDEST SWAP3 SWAP2 POP POP JUMP JUMPDEST PUSH2 0x79A DUP2 PUSH2 0x713 JUMP JUMPDEST DUP2 EQ PUSH2 0x7A4 JUMPI PUSH0 DUP1 REVERT JUMPDEST POP JUMP JUMPDEST PUSH0 DUP2 CALLDATALOAD SWAP1 POP PUSH2 0x7B5 DUP2 PUSH2 0x791 JUMP JUMPDEST SWAP3 SWAP2 POP POP JUMP JUMPDEST PUSH0 DUP1 PUSH1 0x40 DUP4 DUP6 SUB SLT ISZERO PUSH2 0x7D1 JUMPI PUSH2 0x7D0 PUSH2 0x752 JUMP JUMPDEST JUMPDEST PUSH0 PUSH2 0x7DE DUP6 DUP3 DUP7 ADD PUSH2 0x77D JUMP JUMPDEST SWAP3 POP POP PUSH1 0x20 PUSH2 0x7EF DUP6 DUP3 DUP7 ADD PUSH2 0x7A7 JUMP JUMPDEST SWAP2 POP POP SWAP3 POP SWAP3 SWAP1 POP JUMP JUMPDEST PUSH0 PUSH1 0x20 DUP3 ADD SWAP1 POP PUSH2 0x80C PUSH0 DUP4 ADD DUP5 PUSH2 0x71C JUMP JUMPDEST SWAP3 SWAP2 POP POP JUMP JUMPDEST PUSH2 0x81B DUP2 PUSH2 0x6F3 JUMP JUMPDEST DUP2 EQ PUSH2 0x825 JUMPI PUSH0 DUP1 REVERT JUMPDEST POP JUMP JUMPDEST PUSH0 DUP2 CALLDATALOAD SWAP1 POP PUSH2 0x836 DUP2 PUSH2 0x812 JUMP JUMPDEST SWAP3 SWAP2 POP POP JUMP JUMPDEST PUSH0 PUSH1 0x20 DUP3 DUP5 SUB SLT ISZERO PUSH2 0x851 JUMPI PUSH2 0x850 PUSH2 0x752 JUMP JUMPDEST JUMPDEST PUSH0 PUSH2 0x85E DUP5 DUP3 DUP6 ADD PUSH2 0x828 JUMP JUMPDEST SWAP2 POP POP SWAP3 SWAP2 POP POP JUMP JUMPDEST PUSH0 PUSH1 0x20 DUP3 ADD SWAP1 POP PUSH2 0x87A PUSH0 DUP4 ADD DUP5 PUSH2 0x704 JUMP JUMPDEST SWAP3 SWAP2 POP POP JUMP JUMPDEST PUSH0 PUSH1 0x20 DUP3 DUP5 SUB SLT ISZERO PUSH2 0x895 JUMPI PUSH2 0x894 PUSH2 0x752 JUMP JUMPDEST JUMPDEST PUSH0 PUSH2 0x8A2 DUP5 DUP3 DUP6 ADD PUSH2 0x7A7 JUMP JUMPDEST SWAP2 POP POP SWAP3 SWAP2 POP POP JUMP JUMPDEST PUSH0 DUP2 MLOAD SWAP1 POP SWAP2 SWAP1 POP JUMP JUMPDEST PUSH0 DUP3 DUP3 MSTORE PUSH1 0x20 DUP3 ADD SWAP1 POP SWAP3 SWAP2 POP POP JUMP JUMPDEST DUP3 DUP2 DUP4 MCOPY PUSH0 DUP4 DUP4 ADD MSTORE POP POP POP JUMP JUMPDEST PUSH0 PUSH1 0x1F NOT PUSH1 0x1F DUP4 ADD AND SWAP1 POP SWAP2 SWAP1 POP JUMP JUMPDEST PUSH0 PUSH2 0x8ED DUP3 PUSH2 0x8AB JUMP JUMPDEST PUSH2 0x8F7 DUP2 DUP6 PUSH2 0x8B5 JUMP JUMPDEST SWAP4 POP PUSH2 0x907 DUP2 DUP6 PUSH1 0x20 DUP7 ADD PUSH2 0x8C5 JUMP JUMPDEST PUSH2 0x910 DUP2 PUSH2 0x8D3 JUMP JUMPDEST DUP5 ADD SWAP2 POP POP SWAP3 SWAP2 POP POP JUMP JUMPDEST PUSH0 PUSH1 0x20 DUP3 ADD SWAP1 POP DUP2 DUP2 SUB PUSH0 DUP4 ADD MSTORE PUSH2 0x933 DUP2 DUP5 PUSH2 0x8E3 JUMP JUMPDEST SWAP1 POP SWAP3 SWAP2 POP POP JUMP JUMPDEST PUSH32 0x4E487B7100000000000000000000000000000000000000000000000000000000 PUSH0 MSTORE PUSH1 0x41 PUSH1 0x4 MSTORE PUSH1 0x24 PUSH0 REVERT JUMPDEST PUSH32 0x4E487B7100000000000000000000000000000000000000000000000000000000 PUSH0 MSTORE PUSH1 0x22 PUSH1 0x4 MSTORE PUSH1 0x24 PUSH0 REVERT JUMPDEST PUSH0 PUSH1 0x2 DUP3 DIV SWAP1 POP PUSH1 0x1 DUP3 AND DUP1 PUSH2 0x9AC JUMPI PUSH1 0x7F DUP3 AND SWAP2 POP JUMPDEST PUSH1 0x20 DUP3 LT DUP2 SUB PUSH2 0x9BF JUMPI PUSH2 0x9BE PUSH2 0x968 JUMP JUMPDEST JUMPDEST POP SWAP2 SWAP1 POP JUMP JUMPDEST PUSH0 DUP2 SWAP1 POP DUP2 PUSH0 MSTORE PUSH1 0x20 PUSH0 KECCAK256 SWAP1 POP SWAP2 SWAP1 POP JUMP JUMPDEST PUSH0 PUSH1 0x20 PUSH1 0x1F DUP4 ADD DIV SWAP1 POP SWAP2 SWAP1 POP JUMP JUMPDEST PUSH0 DUP3 DUP3 SHL SWAP1 POP SWAP3 SWAP2 POP POP JUMP JUMPDEST PUSH0 PUSH1 0x8 DUP4 MUL PUSH2 0xA21 PUSH32 0xFFFFFFFFFFFFFFFFFFFFFFFFFFFFFFFFFFFFFFFFFFFFFFFFFFFFFFFFFFFFFFFF DUP3 PUSH2 0x9E6 JUMP JUMPDEST PUSH2 0xA2B DUP7 DUP4 PUSH2 0x9E6 JUMP JUMPDEST SWAP6 POP DUP1 NOT DUP5 AND SWAP4 POP DUP1 DUP7 AND DUP5 OR SWAP3 POP POP POP SWAP4 SWAP3 POP POP POP JUMP JUMPDEST PUSH0 DUP2 SWAP1 POP SWAP2 SWAP1 POP JUMP JUMPDEST PUSH0 PUSH2 0xA66 PUSH2 0xA61 PUSH2 0xA5C DUP5 PUSH2 0x713 JUMP JUMPDEST PUSH2 0xA43 JUMP JUMPDEST PUSH2 0x713 JUMP JUMPDEST SWAP1 POP SWAP2 SWAP1 POP JUMP JUMPDEST PUSH0 DUP2 SWAP1 POP SWAP2 SWAP1 POP JUMP JUMPDEST PUSH2 0xA7F DUP4 PUSH2 0xA4C JUMP JUMPDEST PUSH2 0xA93 PUSH2 0xA8B DUP3 PUSH2 0xA6D JUMP JUMPDEST DUP5 DUP5 SLOAD PUSH2 0x9F2 JUMP JUMPDEST DUP3 SSTORE POP POP POP POP JUMP JUMPDEST PUSH0 SWAP1 JUMP JUMPDEST PUSH2 0xAA7 PUSH2 0xA9B JUMP JUMPDEST PUSH2 0xAB2 DUP2 DUP5 DUP5 PUSH2 0xA76 JUMP JUMPDEST POP POP POP JUMP JUMPDEST JUMPDEST DUP2 DUP2 LT ISZERO PUSH2 0xAD5 JUMPI PUSH2 0xACA PUSH0 DUP3 PUSH2 0xA9F JUMP JUMPDEST PUSH1 0x1 DUP2 ADD SWAP1 POP PUSH2 0xAB8 JUMP JUMPDEST POP POP JUMP JUMPDEST PUSH1 0x1F DUP3 GT ISZERO PUSH2 0xB1A JUMPI PUSH2 0xAEB DUP2 PUSH2 0x9C5 JUMP JUMPDEST PUSH2 0xAF4 DUP5 PUSH2 0x9D7 JUMP JUMPDEST DUP2 ADD PUSH1 0x20 DUP6 LT ISZERO PUSH2 0xB03 JUMPI DUP2 SWAP1 POP JUMPDEST PUSH2 0xB17 PUSH2 0xB0F DUP6 PUSH2 0x9D7 JUMP JUMPDEST DUP4 ADD DUP3 PUSH2 0xAB7 JUMP JUMPDEST POP POP JUMPDEST POP POP POP JUMP JUMPDEST PUSH0 DUP3 DUP3 SHR SWAP1 POP SWAP3 SWAP2 POP POP JUMP JUMPDEST PUSH0 PUSH2 0xB3A PUSH0 NOT DUP5 PUSH1 0x8 MUL PUSH2 0xB1F JUMP JUMPDEST NOT DUP1 DUP4 AND SWAP2 POP POP SWAP3 SWAP2 POP POP JUMP JUMPDEST PUSH0 PUSH2 0xB52 DUP4 DUP4 PUSH2 0xB2B JUMP JUMPDEST SWAP2 POP DUP3 PUSH1 0x2 MUL DUP3 OR SWAP1 POP SWAP3 SWAP2 POP POP JUMP JUMPDEST PUSH2 0xB6B DUP3 PUSH2 0x8AB JUMP JUMPDEST PUSH8 0xFFFFFFFFFFFFFFFF DUP2 GT ISZERO PUSH2 0xB84 JUMPI PUSH2 0xB83 PUSH2 0x93B JUMP JUMPDEST JUMPDEST PUSH2 0xB8E DUP3 SLOAD PUSH2 0x995 JUMP JUMPDEST PUSH2 0xB99 DUP3 DUP3 DUP6 PUSH2 0xAD9 JUMP JUMPDEST PUSH0 PUSH1 0x20 SWAP1 POP PUSH1 0x1F DUP4 GT PUSH1 0x1 DUP2 EQ PUSH2 0xBCA JUMPI PUSH0 DUP5 ISZERO PUSH2 0xBB8 JUMPI DUP3 DUP8 ADD MLOAD SWAP1 POP JUMPDEST PUSH2 0xBC2 DUP6 DUP3 PUSH2 0xB47 JUMP JUMPDEST DUP7 SSTORE POP PUSH2 0xC29 JUMP JUMPDEST PUSH1 0x1F NOT DUP5 AND PUSH2 0xBD8 DUP7 PUSH2 0x9C5 JUMP JUMPDEST PUSH0 JUMPDEST DUP3 DUP2 LT ISZERO PUSH2 0xBFF JUMPI DUP5 DUP10 ADD MLOAD DUP3 SSTORE PUSH1 0x1 DUP3 ADD SWAP2 POP PUSH1 0x20 DUP6 ADD SWAP5 POP PUSH1 0x20 DUP2 ADD SWAP1 POP PUSH2 0xBDA JUMP JUMPDEST DUP7 DUP4 LT ISZERO PUSH2 0xC1C JUMPI DUP5 DUP10 ADD MLOAD PUSH2 0xC18 PUSH1 0x1F DUP10 AND DUP3 PUSH2 0xB2B JUMP JUMPDEST DUP4 SSTORE POP JUMPDEST PUSH1 0x1 PUSH1 0x2 DUP9 MUL ADD DUP9 SSTORE POP POP POP JUMPDEST POP POP POP POP POP POP JUMP JUMPDEST PUSH32 0x596F7520646F6E27742068617665206163636573730000000000000000000000 PUSH0 DUP3 ADD MSTORE POP JUMP JUMPDEST PUSH0 PUSH2 0xC65 PUSH1 0x15 DUP4 PUSH2 0x8B5 JUMP JUMPDEST SWAP2 POP PUSH2 0xC70 DUP3 PUSH2 0xC31 JUMP JUMPDEST PUSH1 0x20 DUP3 ADD SWAP1 POP SWAP2 SWAP1 POP JUMP JUMPDEST PUSH0 PUSH1 0x20 DUP3 ADD SWAP1 POP DUP2 DUP2 SUB PUSH0 DUP4 ADD MSTORE PUSH2 0xC92 DUP2 PUSH2 0xC59 JUMP JUMPDEST SWAP1 POP SWAP2 SWAP1 POP JUMP JUMPDEST PUSH32 0x496E73756666696369656E742042616C616E6365000000000000000000000000 PUSH0 DUP3 ADD MSTORE POP JUMP JUMPDEST PUSH0 PUSH2 0xCCD PUSH1 0x14 DUP4 PUSH2 0x8B5 JUMP JUMPDEST SWAP2 POP PUSH2 0xCD8 DUP3 PUSH2 0xC99 JUMP JUMPDEST PUSH1 0x20 DUP3 ADD SWAP1 POP SWAP2 SWAP1 POP JUMP JUMPDEST PUSH0 PUSH1 0x20 DUP3 ADD SWAP1 POP DUP2 DUP2 SUB PUSH0 DUP4 ADD MSTORE PUSH2 0xCFA DUP2 PUSH2 0xCC1 JUMP JUMPDEST SWAP1 POP SWAP2 SWAP1 POP JUMP JUMPDEST PUSH0 PUSH2 0xD1B PUSH2 0xD16 PUSH2 0xD11 DUP5 PUSH2 0x6D4 JUMP JUMPDEST PUSH2 0xA43 JUMP JUMPDEST PUSH2 0x6D4 JUMP JUMPDEST SWAP1 POP SWAP2 SWAP1 POP JUMP JUMPDEST PUSH0 PUSH2 0xD2C DUP3 PUSH2 0xD01 JUMP JUMPDEST SWAP1 POP SWAP2 SWAP1 POP JUMP JUMPDEST PUSH0 PUSH2 0xD3D DUP3 PUSH2 0xD22 JUMP JUMPDEST SWAP1 POP SWAP2 SWAP1 POP JUMP JUMPDEST PUSH2 0xD4D DUP2 PUSH2 0xD33 JUMP JUMPDEST DUP3 MSTORE POP POP JUMP JUMPDEST PUSH0 PUSH1 0x40 DUP3 ADD SWAP1 POP PUSH2 0xD66 PUSH0 DUP4 ADD DUP6 PUSH2 0xD44 JUMP JUMPDEST PUSH2 0xD73 PUSH1 0x20 DUP4 ADD DUP5 PUSH2 0x71C JUMP JUMPDEST SWAP4 SWAP3 POP POP POP JUMP JUMPDEST PUSH32 0x496E7375666666696369656E742062616C616E63650000000000000000000000 PUSH0 DUP3 ADD MSTORE POP JUMP JUMPDEST PUSH0 PUSH2 0xDAE PUSH1 0x15 DUP4 PUSH2 0x8B5 JUMP JUMPDEST SWAP2 POP PUSH2 0xDB9 DUP3 PUSH2 0xD7A JUMP JUMPDEST PUSH1 0x20 DUP3 ADD SWAP1 POP SWAP2 SWAP1 POP JUMP JUMPDEST PUSH0 PUSH1 0x20 DUP3 ADD SWAP1 POP DUP2 DUP2 SUB PUSH0 DUP4 ADD MSTORE PUSH2 0xDDB DUP2 PUSH2 0xDA2 JUMP JUMPDEST SWAP1 POP SWAP2 SWAP1 POP JUMP JUMPDEST PUSH32 0x5765692056616C7565206D7573742062652067726561746572207468616E207A PUSH0 DUP3 ADD MSTORE PUSH32 0x65726F0000000000000000000000000000000000000000000000000000000000 PUSH1 0x20 DUP3 ADD MSTORE POP JUMP JUMPDEST PUSH0 PUSH2 0xE3C PUSH1 0x23 DUP4 PUSH2 0x8B5 JUMP JUMPDEST SWAP2 POP PUSH2 0xE47 DUP3 PUSH2 0xDE2 JUMP JUMPDEST PUSH1 0x40 DUP3 ADD SWAP1 POP SWAP2 SWAP1 POP JUMP JUMPDEST PUSH0 PUSH1 0x20 DUP3 ADD SWAP1 POP DUP2 DUP2 SUB PUSH0 DUP4 ADD MSTORE PUSH2 0xE69 DUP2 PUSH2 0xE30 JUMP JUMPDEST SWAP1 POP SWAP2 SWAP1 POP JUMP INVALID COINBASE PUSH14 0x6F756E74207472616E7366657272 PUSH6 0x6420746F2074 PUSH9 0x6520636F6E74726163 PUSH21 0xA26469706673582212205D06DBCA64E4B9FA82AB3D SWAP3 SWAP12 BALANCE ADDMOD AND SWAP12 PUSH23 0x4930DB059668231BE4FEF8B7BD5964736F6C634300081A STOP CALLER "
				},
				"gasEstimates": {
					"creation": {
						"codeDepositCost": "756800",
						"executionCost": "25055",
						"totalCost": "781855"
					},
					"external": {
						"": "199",
						"getContractBalanceInWei()": "378",
						"getOwnerBalanceInWei()": "5118",
						"owner()": "2505",
						"receiveFromUser()": "infinite",
						"str()": "infinite",
						"transferToContract()": "infinite",
						"transferToUserViaContract(address,uint256)": "infinite",
						"transferToUserViaMsgValue(address)": "infinite",
						"withdrawFromContract(uint256)": "infinite"
					}
				},
				"methodIdentifiers": {
					"getContractBalanceInWei()": "bfa698de",
					"getOwnerBalanceInWei()": "547fbe8e",
					"owner()": "8da5cb5b",
					"receiveFromUser()": "d2b53948",
					"str()": "c15bae84",
					"transferToContract()": "12cccb34",
					"transferToUserViaContract(address,uint256)": "47cdcc1f",
					"transferToUserViaMsgValue(address)": "6f3f42ac",
					"withdrawFromContract(uint256)": "aeae547d"
				}
			},
			"storageLayout": {
				"storage": [
					{
						"astId": 3,
						"contract": "wallet.sol:SimpleWallet",
						"label": "owner",
						"offset": 0,
						"slot": "0",
						"type": "t_address"
					},
					{
						"astId": 5,
						"contract": "wallet.sol:SimpleWallet",
						"label": "str",
						"offset": 0,
						"slot": "1",
						"type": "t_string_storage"
					}
				],
				"types": {
					"t_address": {
						"encoding": "inplace",
						"label": "address",
						"numberOfBytes": "20"
					},
					"t_string_storage": {
						"encoding": "bytes",
						"label": "string",
						"numberOfBytes": "32"
					}
				}
			},
			"userdoc": {
				"kind": "user",
				"methods": {
					"transferToContract()": {
						"notice": "Contract related functions*"
					},
					"transferToUserViaMsgValue(address)": {
						"notice": "User related functions*"
					}
				},
				"version": 1
			}
		}
	}
}