{
  "contracts/SecureVoting.sol": {
    "SecureVoting": {
      "abi": [
        {
          "inputs": [
            {
              "internalType": "string[]",
              "name": "candidateNames",
              "type": "string[]"
            }
          ],
          "stateMutability": "nonpayable",
          "type": "constructor"
        },
        {
          "anonymous": false,
          "inputs": [
            {
              "indexed": true,
              "internalType": "address",
              "name": "voter",
              "type": "address"
            },
            {
              "indexed": false,
              "internalType": "uint256",
              "name": "candidateIndex",
              "type": "uint256"
            }
          ],
          "name": "Voted",
          "type": "event"
        },
        {
          "anonymous": false,
          "inputs": [],
          "name": "VotingClosed",
          "type": "event"
        },
        {
          "anonymous": false,
          "inputs": [],
          "name": "VotingOpened",
          "type": "event"
        },
        {
          "inputs": [],
          "name": "admin",
          "outputs": [
            {
              "internalType": "address",
              "name": "",
              "type": "address"
            }
          ],
          "stateMutability": "view",
          "type": "function"
        },
        {
          "inputs": [
            {
              "internalType": "uint256",
              "name": "",
              "type": "uint256"
            }
          ],
          "name": "candidates",
          "outputs": [
            {
              "internalType": "string",
              "name": "name",
              "type": "string"
            },
            {
              "internalType": "uint256",
              "name": "voteCount",
              "type": "uint256"
            }
          ],
          "stateMutability": "view",
          "type": "function"
        },
        {
          "inputs": [],
          "name": "closeVoting",
          "outputs": [],
          "stateMutability": "nonpayable",
          "type": "function"
        },
        {
          "inputs": [],
          "name": "getCandidates",
          "outputs": [
            {
              "components": [
                {
                  "internalType": "string",
                  "name": "name",
                  "type": "string"
                },
                {
                  "internalType": "uint256",
                  "name": "voteCount",
                  "type": "uint256"
                }
              ],
              "internalType": "struct SecureVoting.Candidate[]",
              "name": "",
              "type": "tuple[]"
            }
          ],
          "stateMutability": "view",
          "type": "function"
        },
        {
          "inputs": [],
          "name": "getResults",
          "outputs": [
            {
              "internalType": "string",
              "name": "winner",
              "type": "string"
            },
            {
              "internalType": "uint256",
              "name": "voteCount",
              "type": "uint256"
            }
          ],
          "stateMutability": "view",
          "type": "function"
        },
        {
          "inputs": [
            {
              "internalType": "address",
              "name": "",
              "type": "address"
            }
          ],
          "name": "hasVoted",
          "outputs": [
            {
              "internalType": "bool",
              "name": "",
              "type": "bool"
            }
          ],
          "stateMutability": "view",
          "type": "function"
        },
        {
          "inputs": [],
          "name": "openVoting",
          "outputs": [],
          "stateMutability": "nonpayable",
          "type": "function"
        },
        {
          "inputs": [
            {
              "internalType": "uint256",
              "name": "candidateIndex",
              "type": "uint256"
            }
          ],
          "name": "vote",
          "outputs": [],
          "stateMutability": "nonpayable",
          "type": "function"
        },
        {
          "inputs": [],
          "name": "votingOpen",
          "outputs": [
            {
              "internalType": "bool",
              "name": "",
              "type": "bool"
            }
          ],
          "stateMutability": "view",
          "type": "function"
        }
      ],
      "evm": {
        "bytecode": {
          "linkReferences": {},
          "object": "60806040523480156200001157600080fd5b5060405162001760380380620017608339818101604052810190620000379190620003b3565b336000806101000a81548173ffffffffffffffffffffffffffffffffffffffff021916908373ffffffffffffffffffffffffffffffffffffffff16021790555060005b81518110156200011c5760026040518060400160405280848481518110620000a757620000a662000404565b5b60200260200101518152602001600081525090806001815401808255809150506001900390600052602060002090600202016000909190919091506000820151816000019081620000f991906200067e565b506020820151816001015550508080620001139062000794565b9150506200007a565b5050620007e1565b6000604051905090565b600080fd5b600080fd5b600080fd5b6000601f19601f8301169050919050565b7f4e487b7100000000000000000000000000000000000000000000000000000000600052604160045260246000fd5b62000188826200013d565b810181811067ffffffffffffffff82111715620001aa57620001a96200014e565b5b80604052505050565b6000620001bf62000124565b9050620001cd82826200017d565b919050565b600067ffffffffffffffff821115620001f057620001ef6200014e565b5b602082029050602081019050919050565b600080fd5b600080fd5b600067ffffffffffffffff8211156200022957620002286200014e565b5b62000234826200013d565b9050602081019050919050565b60005b838110156200026157808201518184015260208101905062000244565b60008484015250505050565b6000620002846200027e846200020b565b620001b3565b905082815260208101848484011115620002a357620002a262000206565b5b620002b084828562000241565b509392505050565b600082601f830112620002d057620002cf62000138565b5b8151620002e28482602086016200026d565b91505092915050565b600062000302620002fc84620001d2565b620001b3565b9050808382526020820190506020840283018581111562000328576200032762000201565b5b835b818110156200037657805167ffffffffffffffff81111562000351576200035062000138565b5b808601620003608982620002b8565b855260208501945050506020810190506200032a565b5050509392505050565b600082601f83011262000398576200039762000138565b5b8151620003aa848260208601620002eb565b91505092915050565b600060208284031215620003cc57620003cb6200012e565b5b600082015167ffffffffffffffff811115620003ed57620003ec62000133565b5b620003fb8482850162000380565b91505092915050565b7f4e487b7100000000000000000000000000000000000000000000000000000000600052603260045260246000fd5b600081519050919050565b7f4e487b7100000000000000000000000000000000000000000000000000000000600052602260045260246000fd5b600060028204905060018216806200048657607f821691505b6020821081036200049c576200049b6200043e565b5b50919050565b60008190508160005260206000209050919050565b60006020601f8301049050919050565b600082821b905092915050565b600060088302620005067fffffffffffffffffffffffffffffffffffffffffffffffffffffffffffffffff82620004c7565b620005128683620004c7565b95508019841693508086168417925050509392505050565b6000819050919050565b6000819050919050565b60006200055f6200055962000553846200052a565b62000534565b6200052a565b9050919050565b6000819050919050565b6200057b836200053e565b620005936200058a8262000566565b848454620004d4565b825550505050565b600090565b620005aa6200059b565b620005b781848462000570565b505050565b5b81811015620005df57620005d3600082620005a0565b600181019050620005bd565b5050565b601f8211156200062e57620005f881620004a2565b6200060384620004b7565b8101602085101562000613578190505b6200062b6200062285620004b7565b830182620005bc565b50505b505050565b600082821c905092915050565b6000620006536000198460080262000633565b1980831691505092915050565b60006200066e838362000640565b9150826002028217905092915050565b620006898262000433565b67ffffffffffffffff811115620006a557620006a46200014e565b5b620006b182546200046d565b620006be828285620005e3565b600060209050601f831160018114620006f65760008415620006e1578287015190505b620006ed858262000660565b8655506200075d565b601f1984166200070686620004a2565b60005b82811015620007305784890151825560018201915060208501945060208101905062000709565b868310156200075057848901516200074c601f89168262000640565b8355505b6001600288020188555050505b505050505050565b7f4e487b7100000000000000000000000000000000000000000000000000000000600052601160045260246000fd5b6000620007a1826200052a565b91507fffffffffffffffffffffffffffffffffffffffffffffffffffffffffffffffff8203620007d657620007d562000765565b5b600182019050919050565b610f6f80620007f16000396000f3fe608060405234801561001057600080fd5b50600436106100935760003560e01c80634717f97c116100665780634717f97c14610133578063a95824b414610152578063affc067014610170578063c631b2921461017a578063f851a4401461018457610093565b80630121b93f1461009857806306a49fce146100b457806309eef43e146100d25780633477ee2e14610102575b600080fd5b6100b260048036038101906100ad91906108e1565b6101a2565b005b6100bc6103a8565b6040516100c99190610aac565b60405180910390f35b6100ec60048036038101906100e79190610b2c565b6104a3565b6040516100f99190610b74565b60405180910390f35b61011c600480360381019061011791906108e1565b6104c3565b60405161012a929190610be8565b60405180910390f35b61013b61057f565b604051610149929190610be8565b60405180910390f35b61015a6106c2565b6040516101679190610b74565b60405180910390f35b6101786106d5565b005b6101826107ac565b005b61018c610882565b6040516101999190610c27565b60405180910390f35b600060149054906101000a900460ff166101f1576040517f08c379a00000000000000000000000000000000000000000000000000000000081526004016101e890610c8e565b60405180910390fd5b600160003373ffffffffffffffffffffffffffffffffffffffff1673ffffffffffffffffffffffffffffffffffffffff16815260200190815260200160002060009054906101000a900460ff161561027e576040517f08c379a000000000000000000000000000000000000000000000000000000000815260040161027590610cfa565b60405180910390fd5b60028054905081106102c5576040517f08c379a00000000000000000000000000000000000000000000000000000000081526004016102bc90610d66565b60405180910390fd5b60018060003373ffffffffffffffffffffffffffffffffffffffff1673ffffffffffffffffffffffffffffffffffffffff16815260200190815260200160002060006101000a81548160ff021916908315150217905550600281815481106103305761032f610d86565b5b9060005260206000209060020201600101600081548092919061035290610de4565b91905055503373ffffffffffffffffffffffffffffffffffffffff167f4d99b957a2bc29a30ebd96a7be8e68fe50a3c701db28a91436490b7d53870ca48260405161039d9190610e2c565b60405180910390a250565b60606002805480602002602001604051908101604052809291908181526020016000905b8282101561049a57838290600052602060002090600202016040518060400160405290816000820180546103ff90610e76565b80601f016020809104026020016040519081016040528092919081815260200182805461042b90610e76565b80156104785780601f1061044d57610100808354040283529160200191610478565b820191906000526020600020905b81548152906001019060200180831161045b57829003601f168201915b50505050508152602001600182015481525050815260200190600101906103cc565b50505050905090565b60016020528060005260406000206000915054906101000a900460ff1681565b600281815481106104d357600080fd5b90600052602060002090600202016000915090508060000180546104f690610e76565b80601f016020809104026020016040519081016040528092919081815260200182805461052290610e76565b801561056f5780601f106105445761010080835404028352916020019161056f565b820191906000526020600020905b81548152906001019060200180831161055257829003601f168201915b5050505050908060010154905082565b6060600080600090506000805b6002805490508110156106055782600282815481106105ae576105ad610d86565b5b90600052602060002090600202016001015411156105f257600281815481106105da576105d9610d86565b5b90600052602060002090600202016001015492508091505b80806105fd90610de4565b91505061058c565b506002818154811061061a57610619610d86565b5b90600052602060002090600202016000018281805461063890610e76565b80601f016020809104026020016040519081016040528092919081815260200182805461066490610e76565b80156106b15780601f10610686576101008083540402835291602001916106b1565b820191906000526020600020905b81548152906001019060200180831161069457829003601f168201915b505050505091509350935050509091565b600060149054906101000a900460ff1681565b60008054906101000a900473ffffffffffffffffffffffffffffffffffffffff1673ffffffffffffffffffffffffffffffffffffffff163373ffffffffffffffffffffffffffffffffffffffff1614610763576040517f08c379a000000000000000000000000000000000000000000000000000000000815260040161075a90610f19565b60405180910390fd5b6001600060146101000a81548160ff0219169083151502179055507fa737faa632a36c00ccb4220893426e922f9442f1cab67acd8301f88a596d4abc60405160405180910390a1565b60008054906101000a900473ffffffffffffffffffffffffffffffffffffffff1673ffffffffffffffffffffffffffffffffffffffff163373ffffffffffffffffffffffffffffffffffffffff161461083a576040517f08c379a000000000000000000000000000000000000000000000000000000000815260040161083190610f19565b60405180910390fd5b60008060146101000a81548160ff0219169083151502179055507f66b6cb4a09abc3bf1cacc3c67420258856ffdad0deba9078cbd1658957b5021860405160405180910390a1565b60008054906101000a900473ffffffffffffffffffffffffffffffffffffffff1681565b600080fd5b6000819050919050565b6108be816108ab565b81146108c957600080fd5b50565b6000813590506108db816108b5565b92915050565b6000602082840312156108f7576108f66108a6565b5b6000610905848285016108cc565b91505092915050565b600081519050919050565b600082825260208201905092915050565b6000819050602082019050919050565b600081519050919050565b600082825260208201905092915050565b60005b83811015610974578082015181840152602081019050610959565b60008484015250505050565b6000601f19601f8301169050919050565b600061099c8261093a565b6109a68185610945565b93506109b6818560208601610956565b6109bf81610980565b840191505092915050565b6109d3816108ab565b82525050565b600060408301600083015184820360008601526109f68282610991565b9150506020830151610a0b60208601826109ca565b508091505092915050565b6000610a2283836109d9565b905092915050565b6000602082019050919050565b6000610a428261090e565b610a4c8185610919565b935083602082028501610a5e8561092a565b8060005b85811015610a9a5784840389528151610a7b8582610a16565b9450610a8683610a2a565b925060208a01995050600181019050610a62565b50829750879550505050505092915050565b60006020820190508181036000830152610ac68184610a37565b905092915050565b600073ffffffffffffffffffffffffffffffffffffffff82169050919050565b6000610af982610ace565b9050919050565b610b0981610aee565b8114610b1457600080fd5b50565b600081359050610b2681610b00565b92915050565b600060208284031215610b4257610b416108a6565b5b6000610b5084828501610b17565b91505092915050565b60008115159050919050565b610b6e81610b59565b82525050565b6000602082019050610b896000830184610b65565b92915050565b600082825260208201905092915050565b6000610bab8261093a565b610bb58185610b8f565b9350610bc5818560208601610956565b610bce81610980565b840191505092915050565b610be2816108ab565b82525050565b60006040820190508181036000830152610c028185610ba0565b9050610c116020830184610bd9565b9392505050565b610c2181610aee565b82525050565b6000602082019050610c3c6000830184610c18565b92915050565b7f566f74696e67206973206e6f74206f70656e0000000000000000000000000000600082015250565b6000610c78601283610b8f565b9150610c8382610c42565b602082019050919050565b60006020820190508181036000830152610ca781610c6b565b9050919050565b7f596f75206861766520616c726561647920766f74656400000000000000000000600082015250565b6000610ce4601683610b8f565b9150610cef82610cae565b602082019050919050565b60006020820190508181036000830152610d1381610cd7565b9050919050565b7f496e76616c69642063616e646964617465000000000000000000000000000000600082015250565b6000610d50601183610b8f565b9150610d5b82610d1a565b602082019050919050565b60006020820190508181036000830152610d7f81610d43565b9050919050565b7f4e487b7100000000000000000000000000000000000000000000000000000000600052603260045260246000fd5b7f4e487b7100000000000000000000000000000000000000000000000000000000600052601160045260246000fd5b6000610def826108ab565b91507fffffffffffffffffffffffffffffffffffffffffffffffffffffffffffffffff8203610e2157610e20610db5565b5b600182019050919050565b6000602082019050610e416000830184610bd9565b92915050565b7f4e487b7100000000000000000000000000000000000000000000000000000000600052602260045260246000fd5b60006002820490506001821680610e8e57607f821691505b602082108103610ea157610ea0610e47565b5b50919050565b7f4f6e6c792061646d696e2063616e20706572666f726d2074686973206163746960008201527f6f6e000000000000000000000000000000000000000000000000000000000000602082015250565b6000610f03602283610b8f565b9150610f0e82610ea7565b604082019050919050565b60006020820190508181036000830152610f3281610ef6565b905091905056fea2646970667358221220d4815e80438fd564cb69179e4366b89f0bef7657970f15e0cddf68f66b95d0f264736f6c63430008130033",
          "opcodes": "PUSH1 0x80 PUSH1 0x40 MSTORE CALLVALUE DUP1 ISZERO PUSH3 0x11 JUMPI PUSH1 0x0 DUP1 REVERT JUMPDEST POP PUSH1 0x40 MLOAD PUSH3 0x1760 CODESIZE SUB DUP1 PUSH3 0x1760 DUP4 CODECOPY DUP2 DUP2 ADD PUSH1 0x40 MSTORE DUP2 ADD SWAP1 PUSH3 0x37 SWAP2 SWAP1 PUSH3 0x3B3 JUMP JUMPDEST CALLER PUSH1 0x0 DUP1 PUSH2 0x100 EXP DUP2 SLOAD DUP2 PUSH20 0xFFFFFFFFFFFFFFFFFFFFFFFFFFFFFFFFFFFFFFFF MUL NOT AND SWAP1 DUP4 PUSH20 0xFFFFFFFFFFFFFFFFFFFFFFFFFFFFFFFFFFFFFFFF AND MUL OR SWAP1 SSTORE POP PUSH1 0x0 JUMPDEST DUP2 MLOAD DUP2 LT ISZERO PUSH3 0x11C JUMPI PUSH1 0x2 PUSH1 0x40 MLOAD DUP1 PUSH1 0x40 ADD PUSH1 0x40 MSTORE DUP1 DUP5 DUP5 DUP2 MLOAD DUP2 LT PUSH3 0xA7 JUMPI PUSH3 0xA6 PUSH3 0x404 JUMP JUMPDEST JUMPDEST PUSH1 0x20 MUL PUSH1 0x20 ADD ADD MLOAD DUP2 MSTORE PUSH1 0x20 ADD PUSH1 0x0 DUP2 MSTORE POP SWAP1 DUP1 PUSH1 0x1 DUP2 SLOAD ADD DUP1 DUP3 SSTORE DUP1 SWAP2 POP POP PUSH1 0x1 SWAP1 SUB SWAP1 PUSH1 0x0 MSTORE PUSH1 0x20 PUSH1 0x0 KECCAK256 SWAP1 PUSH1 0x2 MUL ADD PUSH1 0x0 SWAP1 SWAP2 SWAP1 SWAP2 SWAP1 SWAP2 POP PUSH1 0x0 DUP3 ADD MLOAD DUP2 PUSH1 0x0 ADD SWAP1 DUP2 PUSH3 0xF9 SWAP2 SWAP1 PUSH3 0x67E JUMP JUMPDEST POP PUSH1 0x20 DUP3 ADD MLOAD DUP2 PUSH1 0x1 ADD SSTORE POP POP DUP1 DUP1 PUSH3 0x113 SWAP1 PUSH3 0x794 JUMP JUMPDEST SWAP2 POP POP PUSH3 0x7A JUMP JUMPDEST POP POP PUSH3 0x7E1 JUMP JUMPDEST PUSH1 0x0 PUSH1 0x40 MLOAD SWAP1 POP SWAP1 JUMP JUMPDEST PUSH1 0x0 DUP1 REVERT JUMPDEST PUSH1 0x0 DUP1 REVERT JUMPDEST PUSH1 0x0 DUP1 REVERT JUMPDEST PUSH1 0x0 PUSH1 0x1F NOT PUSH1 0x1F DUP4 ADD AND SWAP1 POP SWAP2 SWAP1 POP JUMP JUMPDEST PUSH32 0x4E487B7100000000000000000000000000000000000000000000000000000000 PUSH1 0x0 MSTORE PUSH1 0x41 PUSH1 0x4 MSTORE PUSH1 0x24 PUSH1 0x0 REVERT JUMPDEST PUSH3 0x188 DUP3 PUSH3 0x13D JUMP JUMPDEST DUP2 ADD DUP2 DUP2 LT PUSH8 0xFFFFFFFFFFFFFFFF DUP3 GT OR ISZERO PUSH3 0x1AA JUMPI PUSH3 0x1A9 PUSH3 0x14E JUMP JUMPDEST JUMPDEST DUP1 PUSH1 0x40 MSTORE POP POP POP JUMP JUMPDEST PUSH1 0x0 PUSH3 0x1BF PUSH3 0x124 JUMP JUMPDEST SWAP1 POP PUSH3 0x1CD DUP3 DUP3 PUSH3 0x17D JUMP JUMPDEST SWAP2 SWAP1 POP JUMP JUMPDEST PUSH1 0x0 PUSH8 0xFFFFFFFFFFFFFFFF DUP3 GT ISZERO PUSH3 0x1F0 JUMPI PUSH3 0x1EF PUSH3 0x14E JUMP JUMPDEST JUMPDEST PUSH1 0x20 DUP3 MUL SWAP1 POP PUSH1 0x20 DUP2 ADD SWAP1 POP SWAP2 SWAP1 POP JUMP JUMPDEST PUSH1 0x0 DUP1 REVERT JUMPDEST PUSH1 0x0 DUP1 REVERT JUMPDEST PUSH1 0x0 PUSH8 0xFFFFFFFFFFFFFFFF DUP3 GT ISZERO PUSH3 0x229 JUMPI PUSH3 0x228 PUSH3 0x14E JUMP JUMPDEST JUMPDEST PUSH3 0x234 DUP3 PUSH3 0x13D JUMP JUMPDEST SWAP1 POP PUSH1 0x20 DUP2 ADD SWAP1 POP SWAP2 SWAP1 POP JUMP JUMPDEST PUSH1 0x0 JUMPDEST DUP4 DUP2 LT ISZERO PUSH3 0x261 JUMPI DUP1 DUP3 ADD MLOAD DUP2 DUP5 ADD MSTORE PUSH1 0x20 DUP2 ADD SWAP1 POP PUSH3 0x244 JUMP JUMPDEST PUSH1 0x0 DUP5 DUP5 ADD MSTORE POP POP POP POP JUMP JUMPDEST PUSH1 0x0 PUSH3 0x284 PUSH3 0x27E DUP5 PUSH3 0x20B JUMP JUMPDEST PUSH3 0x1B3 JUMP JUMPDEST SWAP1 POP DUP3 DUP2 MSTORE PUSH1 0x20 DUP2 ADD DUP5 DUP5 DUP5 ADD GT ISZERO PUSH3 0x2A3 JUMPI PUSH3 0x2A2 PUSH3 0x206 JUMP JUMPDEST JUMPDEST PUSH3 0x2B0 DUP5 DUP3 DUP6 PUSH3 0x241 JUMP JUMPDEST POP SWAP4 SWAP3 POP POP POP JUMP JUMPDEST PUSH1 0x0 DUP3 PUSH1 0x1F DUP4 ADD SLT PUSH3 0x2D0 JUMPI PUSH3 0x2CF PUSH3 0x138 JUMP JUMPDEST JUMPDEST DUP2 MLOAD PUSH3 0x2E2 DUP5 DUP3 PUSH1 0x20 DUP7 ADD PUSH3 0x26D JUMP JUMPDEST SWAP2 POP POP SWAP3 SWAP2 POP POP JUMP JUMPDEST PUSH1 0x0 PUSH3 0x302 PUSH3 0x2FC DUP5 PUSH3 0x1D2 JUMP JUMPDEST PUSH3 0x1B3 JUMP JUMPDEST SWAP1 POP DUP1 DUP4 DUP3 MSTORE PUSH1 0x20 DUP3 ADD SWAP1 POP PUSH1 0x20 DUP5 MUL DUP4 ADD DUP6 DUP2 GT ISZERO PUSH3 0x328 JUMPI PUSH3 0x327 PUSH3 0x201 JUMP JUMPDEST JUMPDEST DUP4 JUMPDEST DUP2 DUP2 LT ISZERO PUSH3 0x376 JUMPI DUP1 MLOAD PUSH8 0xFFFFFFFFFFFFFFFF DUP2 GT ISZERO PUSH3 0x351 JUMPI PUSH3 0x350 PUSH3 0x138 JUMP JUMPDEST JUMPDEST DUP1 DUP7 ADD PUSH3 0x360 DUP10 DUP3 PUSH3 0x2B8 JUMP JUMPDEST DUP6 MSTORE PUSH1 0x20 DUP6 ADD SWAP5 POP POP POP PUSH1 0x20 DUP2 ADD SWAP1 POP PUSH3 0x32A JUMP JUMPDEST POP POP POP SWAP4 SWAP3 POP POP POP JUMP JUMPDEST PUSH1 0x0 DUP3 PUSH1 0x1F DUP4 ADD SLT PUSH3 0x398 JUMPI PUSH3 0x397 PUSH3 0x138 JUMP JUMPDEST JUMPDEST DUP2 MLOAD PUSH3 0x3AA DUP5 DUP3 PUSH1 0x20 DUP7 ADD PUSH3 0x2EB JUMP JUMPDEST SWAP2 POP POP SWAP3 SWAP2 POP POP JUMP JUMPDEST PUSH1 0x0 PUSH1 0x20 DUP3 DUP5 SUB SLT ISZERO PUSH3 0x3CC JUMPI PUSH3 0x3CB PUSH3 0x12E JUMP JUMPDEST JUMPDEST PUSH1 0x0 DUP3 ADD MLOAD PUSH8 0xFFFFFFFFFFFFFFFF DUP2 GT ISZERO PUSH3 0x3ED JUMPI PUSH3 0x3EC PUSH3 0x133 JUMP JUMPDEST JUMPDEST PUSH3 0x3FB DUP5 DUP3 DUP6 ADD PUSH3 0x380 JUMP JUMPDEST SWAP2 POP POP SWAP3 SWAP2 POP POP JUMP JUMPDEST PUSH32 0x4E487B7100000000000000000000000000000000000000000000000000000000 PUSH1 0x0 MSTORE PUSH1 0x32 PUSH1 0x4 MSTORE PUSH1 0x24 PUSH1 0x0 REVERT JUMPDEST PUSH1 0x0 DUP2 MLOAD SWAP1 POP SWAP2 SWAP1 POP JUMP JUMPDEST PUSH32 0x4E487B7100000000000000000000000000000000000000000000000000000000 PUSH1 0x0 MSTORE PUSH1 0x22 PUSH1 0x4 MSTORE PUSH1 0x24 PUSH1 0x0 REVERT JUMPDEST PUSH1 0x0 PUSH1 0x2 DUP3 DIV SWAP1 POP PUSH1 0x1 DUP3 AND DUP1 PUSH3 0x486 JUMPI PUSH1 0x7F DUP3 AND SWAP2 POP JUMPDEST PUSH1 0x20 DUP3 LT DUP2 SUB PUSH3 0x49C JUMPI PUSH3 0x49B PUSH3 0x43E JUMP JUMPDEST JUMPDEST POP SWAP2 SWAP1 POP JUMP JUMPDEST PUSH1 0x0 DUP2 SWAP1 POP DUP2 PUSH1 0x0 MSTORE PUSH1 0x20 PUSH1 0x0 KECCAK256 SWAP1 POP SWAP2 SWAP1 POP JUMP JUMPDEST PUSH1 0x0 PUSH1 0x20 PUSH1 0x1F DUP4 ADD DIV SWAP1 POP SWAP2 SWAP1 POP JUMP JUMPDEST PUSH1 0x0 DUP3 DUP3 SHL SWAP1 POP SWAP3 SWAP2 POP POP JUMP JUMPDEST PUSH1 0x0 PUSH1 0x8 DUP4 MUL PUSH3 0x506 PUSH32 0xFFFFFFFFFFFFFFFFFFFFFFFFFFFFFFFFFFFFFFFFFFFFFFFFFFFFFFFFFFFFFFFF DUP3 PUSH3 0x4C7 JUMP JUMPDEST PUSH3 0x512 DUP7 DUP4 PUSH3 0x4C7 JUMP JUMPDEST SWAP6 POP DUP1 NOT DUP5 AND SWAP4 POP DUP1 DUP7 AND DUP5 OR SWAP3 POP POP POP SWAP4 SWAP3 POP POP POP JUMP JUMPDEST PUSH1 0x0 DUP2 SWAP1 POP SWAP2 SWAP1 POP JUMP JUMPDEST PUSH1 0x0 DUP2 SWAP1 POP SWAP2 SWAP1 POP JUMP JUMPDEST PUSH1 0x0 PUSH3 0x55F PUSH3 0x559 PUSH3 0x553 DUP5 PUSH3 0x52A JUMP JUMPDEST PUSH3 0x534 JUMP JUMPDEST PUSH3 0x52A JUMP JUMPDEST SWAP1 POP SWAP2 SWAP1 POP JUMP JUMPDEST PUSH1 0x0 DUP2 SWAP1 POP SWAP2 SWAP1 POP JUMP JUMPDEST PUSH3 0x57B DUP4 PUSH3 0x53E JUMP JUMPDEST PUSH3 0x593 PUSH3 0x58A DUP3 PUSH3 0x566 JUMP JUMPDEST DUP5 DUP5 SLOAD PUSH3 0x4D4 JUMP JUMPDEST DUP3 SSTORE POP POP POP POP JUMP JUMPDEST PUSH1 0x0 SWAP1 JUMP JUMPDEST PUSH3 0x5AA PUSH3 0x59B JUMP JUMPDEST PUSH3 0x5B7 DUP2 DUP5 DUP5 PUSH3 0x570 JUMP JUMPDEST POP POP POP JUMP JUMPDEST JUMPDEST DUP2 DUP2 LT ISZERO PUSH3 0x5DF JUMPI PUSH3 0x5D3 PUSH1 0x0 DUP3 PUSH3 0x5A0 JUMP JUMPDEST PUSH1 0x1 DUP2 ADD SWAP1 POP PUSH3 0x5BD JUMP JUMPDEST POP POP JUMP JUMPDEST PUSH1 0x1F DUP3 GT ISZERO PUSH3 0x62E JUMPI PUSH3 0x5F8 DUP2 PUSH3 0x4A2 JUMP JUMPDEST PUSH3 0x603 DUP5 PUSH3 0x4B7 JUMP JUMPDEST DUP2 ADD PUSH1 0x20 DUP6 LT ISZERO PUSH3 0x613 JUMPI DUP2 SWAP1 POP JUMPDEST PUSH3 0x62B PUSH3 0x622 DUP6 PUSH3 0x4B7 JUMP JUMPDEST DUP4 ADD DUP3 PUSH3 0x5BC JUMP JUMPDEST POP POP JUMPDEST POP POP POP JUMP JUMPDEST PUSH1 0x0 DUP3 DUP3 SHR SWAP1 POP SWAP3 SWAP2 POP POP JUMP JUMPDEST PUSH1 0x0 PUSH3 0x653 PUSH1 0x0 NOT DUP5 PUSH1 0x8 MUL PUSH3 0x633 JUMP JUMPDEST NOT DUP1 DUP4 AND SWAP2 POP POP SWAP3 SWAP2 POP POP JUMP JUMPDEST PUSH1 0x0 PUSH3 0x66E DUP4 DUP4 PUSH3 0x640 JUMP JUMPDEST SWAP2 POP DUP3 PUSH1 0x2 MUL DUP3 OR SWAP1 POP SWAP3 SWAP2 POP POP JUMP JUMPDEST PUSH3 0x689 DUP3 PUSH3 0x433 JUMP JUMPDEST PUSH8 0xFFFFFFFFFFFFFFFF DUP2 GT ISZERO PUSH3 0x6A5 JUMPI PUSH3 0x6A4 PUSH3 0x14E JUMP JUMPDEST JUMPDEST PUSH3 0x6B1 DUP3 SLOAD PUSH3 0x46D JUMP JUMPDEST PUSH3 0x6BE DUP3 DUP3 DUP6 PUSH3 0x5E3 JUMP JUMPDEST PUSH1 0x0 PUSH1 0x20 SWAP1 POP PUSH1 0x1F DUP4 GT PUSH1 0x1 DUP2 EQ PUSH3 0x6F6 JUMPI PUSH1 0x0 DUP5 ISZERO PUSH3 0x6E1 JUMPI DUP3 DUP8 ADD MLOAD SWAP1 POP JUMPDEST PUSH3 0x6ED DUP6 DUP3 PUSH3 0x660 JUMP JUMPDEST DUP7 SSTORE POP PUSH3 0x75D JUMP JUMPDEST PUSH1 0x1F NOT DUP5 AND PUSH3 0x706 DUP7 PUSH3 0x4A2 JUMP JUMPDEST PUSH1 0x0 JUMPDEST DUP3 DUP2 LT ISZERO PUSH3 0x730 JUMPI DUP5 DUP10 ADD MLOAD DUP3 SSTORE PUSH1 0x1 DUP3 ADD SWAP2 POP PUSH1 0x20 DUP6 ADD SWAP5 POP PUSH1 0x20 DUP2 ADD SWAP1 POP PUSH3 0x709 JUMP JUMPDEST DUP7 DUP4 LT ISZERO PUSH3 0x750 JUMPI DUP5 DUP10 ADD MLOAD PUSH3 0x74C PUSH1 0x1F DUP10 AND DUP3 PUSH3 0x640 JUMP JUMPDEST DUP4 SSTORE POP JUMPDEST PUSH1 0x1 PUSH1 0x2 DUP9 MUL ADD DUP9 SSTORE POP POP POP JUMPDEST POP POP POP POP POP POP JUMP JUMPDEST PUSH32 0x4E487B7100000000000000000000000000000000000000000000000000000000 PUSH1 0x0 MSTORE PUSH1 0x11 PUSH1 0x4 MSTORE PUSH1 0x24 PUSH1 0x0 REVERT JUMPDEST PUSH1 0x0 PUSH3 0x7A1 DUP3 PUSH3 0x52A JUMP JUMPDEST SWAP2 POP PUSH32 0xFFFFFFFFFFFFFFFFFFFFFFFFFFFFFFFFFFFFFFFFFFFFFFFFFFFFFFFFFFFFFFFF DUP3 SUB PUSH3 0x7D6 JUMPI PUSH3 0x7D5 PUSH3 0x765 JUMP JUMPDEST JUMPDEST PUSH1 0x1 DUP3 ADD SWAP1 POP SWAP2 SWAP1 POP JUMP JUMPDEST PUSH2 0xF6F DUP1 PUSH3 0x7F1 PUSH1 0x0 CODECOPY PUSH1 0x0 RETURN INVALID PUSH1 0x80 PUSH1 0x40 MSTORE CALLVALUE DUP1 ISZERO PUSH2 0x10 JUMPI PUSH1 0x0 DUP1 REVERT JUMPDEST POP PUSH1 0x4 CALLDATASIZE LT PUSH2 0x93 JUMPI PUSH1 0x0 CALLDATALOAD PUSH1 0xE0 SHR DUP1 PUSH4 0x4717F97C GT PUSH2 0x66 JUMPI DUP1 PUSH4 0x4717F97C EQ PUSH2 0x133 JUMPI DUP1 PUSH4 0xA95824B4 EQ PUSH2 0x152 JUMPI DUP1 PUSH4 0xAFFC0670 EQ PUSH2 0x170 JUMPI DUP1 PUSH4 0xC631B292 EQ PUSH2 0x17A JUMPI DUP1 PUSH4 0xF851A440 EQ PUSH2 0x184 JUMPI PUSH2 0x93 JUMP JUMPDEST DUP1 PUSH4 0x121B93F EQ PUSH2 0x98 JUMPI DUP1 PUSH4 0x6A49FCE EQ PUSH2 0xB4 JUMPI DUP1 PUSH4 0x9EEF43E EQ PUSH2 0xD2 JUMPI DUP1 PUSH4 0x3477EE2E EQ PUSH2 0x102 JUMPI JUMPDEST PUSH1 0x0 DUP1 REVERT JUMPDEST PUSH2 0xB2 PUSH1 0x4 DUP1 CALLDATASIZE SUB DUP2 ADD SWAP1 PUSH2 0xAD SWAP2 SWAP1 PUSH2 0x8E1 JUMP JUMPDEST PUSH2 0x1A2 JUMP JUMPDEST STOP JUMPDEST PUSH2 0xBC PUSH2 0x3A8 JUMP JUMPDEST PUSH1 0x40 MLOAD PUSH2 0xC9 SWAP2 SWAP1 PUSH2 0xAAC JUMP JUMPDEST PUSH1 0x40 MLOAD DUP1 SWAP2 SUB SWAP1 RETURN JUMPDEST PUSH2 0xEC PUSH1 0x4 DUP1 CALLDATASIZE SUB DUP2 ADD SWAP1 PUSH2 0xE7 SWAP2 SWAP1 PUSH2 0xB2C JUMP JUMPDEST PUSH2 0x4A3 JUMP JUMPDEST PUSH1 0x40 MLOAD PUSH2 0xF9 SWAP2 SWAP1 PUSH2 0xB74 JUMP JUMPDEST PUSH1 0x40 MLOAD DUP1 SWAP2 SUB SWAP1 RETURN JUMPDEST PUSH2 0x11C PUSH1 0x4 DUP1 CALLDATASIZE SUB DUP2 ADD SWAP1 PUSH2 0x117 SWAP2 SWAP1 PUSH2 0x8E1 JUMP JUMPDEST PUSH2 0x4C3 JUMP JUMPDEST PUSH1 0x40 MLOAD PUSH2 0x12A SWAP3 SWAP2 SWAP1 PUSH2 0xBE8 JUMP JUMPDEST PUSH1 0x40 MLOAD DUP1 SWAP2 SUB SWAP1 RETURN JUMPDEST PUSH2 0x13B PUSH2 0x57F JUMP JUMPDEST PUSH1 0x40 MLOAD PUSH2 0x149 SWAP3 SWAP2 SWAP1 PUSH2 0xBE8 JUMP JUMPDEST PUSH1 0x40 MLOAD DUP1 SWAP2 SUB SWAP1 RETURN JUMPDEST PUSH2 0x15A PUSH2 0x6C2 JUMP JUMPDEST PUSH1 0x40 MLOAD PUSH2 0x167 SWAP2 SWAP1 PUSH2 0xB74 JUMP JUMPDEST PUSH1 0x40 MLOAD DUP1 SWAP2 SUB SWAP1 RETURN JUMPDEST PUSH2 0x178 PUSH2 0x6D5 JUMP JUMPDEST STOP JUMPDEST PUSH2 0x182 PUSH2 0x7AC JUMP JUMPDEST STOP JUMPDEST PUSH2 0x18C PUSH2 0x882 JUMP JUMPDEST PUSH1 0x40 MLOAD PUSH2 0x199 SWAP2 SWAP1 PUSH2 0xC27 JUMP JUMPDEST PUSH1 0x40 MLOAD DUP1 SWAP2 SUB SWAP1 RETURN JUMPDEST PUSH1 0x0 PUSH1 0x14 SWAP1 SLOAD SWAP1 PUSH2 0x100 EXP SWAP1 DIV PUSH1 0xFF AND PUSH2 0x1F1 JUMPI PUSH1 0x40 MLOAD PUSH32 0x8C379A000000000000000000000000000000000000000000000000000000000 DUP2 MSTORE PUSH1 0x4 ADD PUSH2 0x1E8 SWAP1 PUSH2 0xC8E JUMP JUMPDEST PUSH1 0x40 MLOAD DUP1 SWAP2 SUB SWAP1 REVERT JUMPDEST PUSH1 0x1 PUSH1 0x0 CALLER PUSH20 0xFFFFFFFFFFFFFFFFFFFFFFFFFFFFFFFFFFFFFFFF AND PUSH20 0xFFFFFFFFFFFFFFFFFFFFFFFFFFFFFFFFFFFFFFFF AND DUP2 MSTORE PUSH1 0x20 ADD SWAP1 DUP2 MSTORE PUSH1 0x20 ADD PUSH1 0x0 KECCAK256 PUSH1 0x0 SWAP1 SLOAD SWAP1 PUSH2 0x100 EXP SWAP1 DIV PUSH1 0xFF AND ISZERO PUSH2 0x27E JUMPI PUSH1 0x40 MLOAD PUSH32 0x8C379A000000000000000000000000000000000000000000000000000000000 DUP2 MSTORE PUSH1 0x4 ADD PUSH2 0x275 SWAP1 PUSH2 0xCFA JUMP JUMPDEST PUSH1 0x40 MLOAD DUP1 SWAP2 SUB SWAP1 REVERT JUMPDEST PUSH1 0x2 DUP1 SLOAD SWAP1 POP DUP2 LT PUSH2 0x2C5 JUMPI PUSH1 0x40 MLOAD PUSH32 0x8C379A000000000000000000000000000000000000000000000000000000000 DUP2 MSTORE PUSH1 0x4 ADD PUSH2 0x2BC SWAP1 PUSH2 0xD66 JUMP JUMPDEST PUSH1 0x40 MLOAD DUP1 SWAP2 SUB SWAP1 REVERT JUMPDEST PUSH1 0x1 DUP1 PUSH1 0x0 CALLER PUSH20 0xFFFFFFFFFFFFFFFFFFFFFFFFFFFFFFFFFFFFFFFF AND PUSH20 0xFFFFFFFFFFFFFFFFFFFFFFFFFFFFFFFFFFFFFFFF AND DUP2 MSTORE PUSH1 0x20 ADD SWAP1 DUP2 MSTORE PUSH1 0x20 ADD PUSH1 0x0 KECCAK256 PUSH1 0x0 PUSH2 0x100 EXP DUP2 SLOAD DUP2 PUSH1 0xFF MUL NOT AND SWAP1 DUP4 ISZERO ISZERO MUL OR SWAP1 SSTORE POP PUSH1 0x2 DUP2 DUP2 SLOAD DUP2 LT PUSH2 0x330 JUMPI PUSH2 0x32F PUSH2 0xD86 JUMP JUMPDEST JUMPDEST SWAP1 PUSH1 0x0 MSTORE PUSH1 0x20 PUSH1 0x0 KECCAK256 SWAP1 PUSH1 0x2 MUL ADD PUSH1 0x1 ADD PUSH1 0x0 DUP2 SLOAD DUP1 SWAP3 SWAP2 SWAP1 PUSH2 0x352 SWAP1 PUSH2 0xDE4 JUMP JUMPDEST SWAP2 SWAP1 POP SSTORE POP CALLER PUSH20 0xFFFFFFFFFFFFFFFFFFFFFFFFFFFFFFFFFFFFFFFF AND PUSH32 0x4D99B957A2BC29A30EBD96A7BE8E68FE50A3C701DB28A91436490B7D53870CA4 DUP3 PUSH1 0x40 MLOAD PUSH2 0x39D SWAP2 SWAP1 PUSH2 0xE2C JUMP JUMPDEST PUSH1 0x40 MLOAD DUP1 SWAP2 SUB SWAP1 LOG2 POP JUMP JUMPDEST PUSH1 0x60 PUSH1 0x2 DUP1 SLOAD DUP1 PUSH1 0x20 MUL PUSH1 0x20 ADD PUSH1 0x40 MLOAD SWAP1 DUP2 ADD PUSH1 0x40 MSTORE DUP1 SWAP3 SWAP2 SWAP1 DUP2 DUP2 MSTORE PUSH1 0x20 ADD PUSH1 0x0 SWAP1 JUMPDEST DUP3 DUP3 LT ISZERO PUSH2 0x49A JUMPI DUP4 DUP3 SWAP1 PUSH1 0x0 MSTORE PUSH1 0x20 PUSH1 0x0 KECCAK256 SWAP1 PUSH1 0x2 MUL ADD PUSH1 0x40 MLOAD DUP1 PUSH1 0x40 ADD PUSH1 0x40 MSTORE SWAP1 DUP2 PUSH1 0x0 DUP3 ADD DUP1 SLOAD PUSH2 0x3FF SWAP1 PUSH2 0xE76 JUMP JUMPDEST DUP1 PUSH1 0x1F ADD PUSH1 0x20 DUP1 SWAP2 DIV MUL PUSH1 0x20 ADD PUSH1 0x40 MLOAD SWAP1 DUP2 ADD PUSH1 0x40 MSTORE DUP1 SWAP3 SWAP2 SWAP1 DUP2 DUP2 MSTORE PUSH1 0x20 ADD DUP3 DUP1 SLOAD PUSH2 0x42B SWAP1 PUSH2 0xE76 JUMP JUMPDEST DUP1 ISZERO PUSH2 0x478 JUMPI DUP1 PUSH1 0x1F LT PUSH2 0x44D JUMPI PUSH2 0x100 DUP1 DUP4 SLOAD DIV MUL DUP4 MSTORE SWAP2 PUSH1 0x20 ADD SWAP2 PUSH2 0x478 JUMP JUMPDEST DUP3 ADD SWAP2 SWAP1 PUSH1 0x0 MSTORE PUSH1 0x20 PUSH1 0x0 KECCAK256 SWAP1 JUMPDEST DUP2 SLOAD DUP2 MSTORE SWAP1 PUSH1 0x1 ADD SWAP1 PUSH1 0x20 ADD DUP1 DUP4 GT PUSH2 0x45B JUMPI DUP3 SWAP1 SUB PUSH1 0x1F AND DUP3 ADD SWAP2 JUMPDEST POP POP POP POP POP DUP2 MSTORE PUSH1 0x20 ADD PUSH1 0x1 DUP3 ADD SLOAD DUP2 MSTORE POP POP DUP2 MSTORE PUSH1 0x20 ADD SWAP1 PUSH1 0x1 ADD SWAP1 PUSH2 0x3CC JUMP JUMPDEST POP POP POP POP SWAP1 POP SWAP1 JUMP JUMPDEST PUSH1 0x1 PUSH1 0x20 MSTORE DUP1 PUSH1 0x0 MSTORE PUSH1 0x40 PUSH1 0x0 KECCAK256 PUSH1 0x0 SWAP2 POP SLOAD SWAP1 PUSH2 0x100 EXP SWAP1 DIV PUSH1 0xFF AND DUP2 JUMP JUMPDEST PUSH1 0x2 DUP2 DUP2 SLOAD DUP2 LT PUSH2 0x4D3 JUMPI PUSH1 0x0 DUP1 REVERT JUMPDEST SWAP1 PUSH1 0x0 MSTORE PUSH1 0x20 PUSH1 0x0 KECCAK256 SWAP1 PUSH1 0x2 MUL ADD PUSH1 0x0 SWAP2 POP SWAP1 POP DUP1 PUSH1 0x0 ADD DUP1 SLOAD PUSH2 0x4F6 SWAP1 PUSH2 0xE76 JUMP JUMPDEST DUP1 PUSH1 0x1F ADD PUSH1 0x20 DUP1 SWAP2 DIV MUL PUSH1 0x20 ADD PUSH1 0x40 MLOAD SWAP1 DUP2 ADD PUSH1 0x40 MSTORE DUP1 SWAP3 SWAP2 SWAP1 DUP2 DUP2 MSTORE PUSH1 0x20 ADD DUP3 DUP1 SLOAD PUSH2 0x522 SWAP1 PUSH2 0xE76 JUMP JUMPDEST DUP1 ISZERO PUSH2 0x56F JUMPI DUP1 PUSH1 0x1F LT PUSH2 0x544 JUMPI PUSH2 0x100 DUP1 DUP4 SLOAD DIV MUL DUP4 MSTORE SWAP2 PUSH1 0x20 ADD SWAP2 PUSH2 0x56F JUMP JUMPDEST DUP3 ADD SWAP2 SWAP1 PUSH1 0x0 MSTORE PUSH1 0x20 PUSH1 0x0 KECCAK256 SWAP1 JUMPDEST DUP2 SLOAD DUP2 MSTORE SWAP1 PUSH1 0x1 ADD SWAP1 PUSH1 0x20 ADD DUP1 DUP4 GT PUSH2 0x552 JUMPI DUP3 SWAP1 SUB PUSH1 0x1F AND DUP3 ADD SWAP2 JUMPDEST POP POP POP POP POP SWAP1 DUP1 PUSH1 0x1 ADD SLOAD SWAP1 POP DUP3 JUMP JUMPDEST PUSH1 0x60 PUSH1 0x0 DUP1 PUSH1 0x0 SWAP1 POP PUSH1 0x0 DUP1 JUMPDEST PUSH1 0x2 DUP1 SLOAD SWAP1 POP DUP2 LT ISZERO PUSH2 0x605 JUMPI DUP3 PUSH1 0x2 DUP3 DUP2 SLOAD DUP2 LT PUSH2 0x5AE JUMPI PUSH2 0x5AD PUSH2 0xD86 JUMP JUMPDEST JUMPDEST SWAP1 PUSH1 0x0 MSTORE PUSH1 0x20 PUSH1 0x0 KECCAK256 SWAP1 PUSH1 0x2 MUL ADD PUSH1 0x1 ADD SLOAD GT ISZERO PUSH2 0x5F2 JUMPI PUSH1 0x2 DUP2 DUP2 SLOAD DUP2 LT PUSH2 0x5DA JUMPI PUSH2 0x5D9 PUSH2 0xD86 JUMP JUMPDEST JUMPDEST SWAP1 PUSH1 0x0 MSTORE PUSH1 0x20 PUSH1 0x0 KECCAK256 SWAP1 PUSH1 0x2 MUL ADD PUSH1 0x1 ADD SLOAD SWAP3 POP DUP1 SWAP2 POP JUMPDEST DUP1 DUP1 PUSH2 0x5FD SWAP1 PUSH2 0xDE4 JUMP JUMPDEST SWAP2 POP POP PUSH2 0x58C JUMP JUMPDEST POP PUSH1 0x2 DUP2 DUP2 SLOAD DUP2 LT PUSH2 0x61A JUMPI PUSH2 0x619 PUSH2 0xD86 JUMP JUMPDEST JUMPDEST SWAP1 PUSH1 0x0 MSTORE PUSH1 0x20 PUSH1 0x0 KECCAK256 SWAP1 PUSH1 0x2 MUL ADD PUSH1 0x0 ADD DUP3 DUP2 DUP1 SLOAD PUSH2 0x638 SWAP1 PUSH2 0xE76 JUMP JUMPDEST DUP1 PUSH1 0x1F ADD PUSH1 0x20 DUP1 SWAP2 DIV MUL PUSH1 0x20 ADD PUSH1 0x40 MLOAD SWAP1 DUP2 ADD PUSH1 0x40 MSTORE DUP1 SWAP3 SWAP2 SWAP1 DUP2 DUP2 MSTORE PUSH1 0x20 ADD DUP3 DUP1 SLOAD PUSH2 0x664 SWAP1 PUSH2 0xE76 JUMP JUMPDEST DUP1 ISZERO PUSH2 0x6B1 JUMPI DUP1 PUSH1 0x1F LT PUSH2 0x686 JUMPI PUSH2 0x100 DUP1 DUP4 SLOAD DIV MUL DUP4 MSTORE SWAP2 PUSH1 0x20 ADD SWAP2 PUSH2 0x6B1 JUMP JUMPDEST DUP3 ADD SWAP2 SWAP1 PUSH1 0x0 MSTORE PUSH1 0x20 PUSH1 0x0 KECCAK256 SWAP1 JUMPDEST DUP2 SLOAD DUP2 MSTORE SWAP1 PUSH1 0x1 ADD SWAP1 PUSH1 0x20 ADD DUP1 DUP4 GT PUSH2 0x694 JUMPI DUP3 SWAP1 SUB PUSH1 0x1F AND DUP3 ADD SWAP2 JUMPDEST POP POP POP POP POP SWAP2 POP SWAP4 POP SWAP4 POP POP POP SWAP1 SWAP2 JUMP JUMPDEST PUSH1 0x0 PUSH1 0x14 SWAP1 SLOAD SWAP1 PUSH2 0x100 EXP SWAP1 DIV PUSH1 0xFF AND DUP2 JUMP JUMPDEST PUSH1 0x0 DUP1 SLOAD SWAP1 PUSH2 0x100 EXP SWAP1 DIV PUSH20 0xFFFFFFFFFFFFFFFFFFFFFFFFFFFFFFFFFFFFFFFF AND PUSH20 0xFFFFFFFFFFFFFFFFFFFFFFFFFFFFFFFFFFFFFFFF AND CALLER PUSH20 0xFFFFFFFFFFFFFFFFFFFFFFFFFFFFFFFFFFFFFFFF AND EQ PUSH2 0x763 JUMPI PUSH1 0x40 MLOAD PUSH32 0x8C379A000000000000000000000000000000000000000000000000000000000 DUP2 MSTORE PUSH1 0x4 ADD PUSH2 0x75A SWAP1 PUSH2 0xF19 JUMP JUMPDEST PUSH1 0x40 MLOAD DUP1 SWAP2 SUB SWAP1 REVERT JUMPDEST PUSH1 0x1 PUSH1 0x0 PUSH1 0x14 PUSH2 0x100 EXP DUP2 SLOAD DUP2 PUSH1 0xFF MUL NOT AND SWAP1 DUP4 ISZERO ISZERO MUL OR SWAP1 SSTORE POP PUSH32 0xA737FAA632A36C00CCB4220893426E922F9442F1CAB67ACD8301F88A596D4ABC PUSH1 0x40 MLOAD PUSH1 0x40 MLOAD DUP1 SWAP2 SUB SWAP1 LOG1 JUMP JUMPDEST PUSH1 0x0 DUP1 SLOAD SWAP1 PUSH2 0x100 EXP SWAP1 DIV PUSH20 0xFFFFFFFFFFFFFFFFFFFFFFFFFFFFFFFFFFFFFFFF AND PUSH20 0xFFFFFFFFFFFFFFFFFFFFFFFFFFFFFFFFFFFFFFFF AND CALLER PUSH20 0xFFFFFFFFFFFFFFFFFFFFFFFFFFFFFFFFFFFFFFFF AND EQ PUSH2 0x83A JUMPI PUSH1 0x40 MLOAD PUSH32 0x8C379A000000000000000000000000000000000000000000000000000000000 DUP2 MSTORE PUSH1 0x4 ADD PUSH2 0x831 SWAP1 PUSH2 0xF19 JUMP JUMPDEST PUSH1 0x40 MLOAD DUP1 SWAP2 SUB SWAP1 REVERT JUMPDEST PUSH1 0x0 DUP1 PUSH1 0x14 PUSH2 0x100 EXP DUP2 SLOAD DUP2 PUSH1 0xFF MUL NOT AND SWAP1 DUP4 ISZERO ISZERO MUL OR SWAP1 SSTORE POP PUSH32 0x66B6CB4A09ABC3BF1CACC3C67420258856FFDAD0DEBA9078CBD1658957B50218 PUSH1 0x40 MLOAD PUSH1 0x40 MLOAD DUP1 SWAP2 SUB SWAP1 LOG1 JUMP JUMPDEST PUSH1 0x0 DUP1 SLOAD SWAP1 PUSH2 0x100 EXP SWAP1 DIV PUSH20 0xFFFFFFFFFFFFFFFFFFFFFFFFFFFFFFFFFFFFFFFF AND DUP2 JUMP JUMPDEST PUSH1 0x0 DUP1 REVERT JUMPDEST PUSH1 0x0 DUP2 SWAP1 POP SWAP2 SWAP1 POP JUMP JUMPDEST PUSH2 0x8BE DUP2 PUSH2 0x8AB JUMP JUMPDEST DUP2 EQ PUSH2 0x8C9 JUMPI PUSH1 0x0 DUP1 REVERT JUMPDEST POP JUMP JUMPDEST PUSH1 0x0 DUP2 CALLDATALOAD SWAP1 POP PUSH2 0x8DB DUP2 PUSH2 0x8B5 JUMP JUMPDEST SWAP3 SWAP2 POP POP JUMP JUMPDEST PUSH1 0x0 PUSH1 0x20 DUP3 DUP5 SUB SLT ISZERO PUSH2 0x8F7 JUMPI PUSH2 0x8F6 PUSH2 0x8A6 JUMP JUMPDEST JUMPDEST PUSH1 0x0 PUSH2 0x905 DUP5 DUP3 DUP6 ADD PUSH2 0x8CC JUMP JUMPDEST SWAP2 POP POP SWAP3 SWAP2 POP POP JUMP JUMPDEST PUSH1 0x0 DUP2 MLOAD SWAP1 POP SWAP2 SWAP1 POP JUMP JUMPDEST PUSH1 0x0 DUP3 DUP3 MSTORE PUSH1 0x20 DUP3 ADD SWAP1 POP SWAP3 SWAP2 POP POP JUMP JUMPDEST PUSH1 0x0 DUP2 SWAP1 POP PUSH1 0x20 DUP3 ADD SWAP1 POP SWAP2 SWAP1 POP JUMP JUMPDEST PUSH1 0x0 DUP2 MLOAD SWAP1 POP SWAP2 SWAP1 POP JUMP JUMPDEST PUSH1 0x0 DUP3 DUP3 MSTORE PUSH1 0x20 DUP3 ADD SWAP1 POP SWAP3 SWAP2 POP POP JUMP JUMPDEST PUSH1 0x0 JUMPDEST DUP4 DUP2 LT ISZERO PUSH2 0x974 JUMPI DUP1 DUP3 ADD MLOAD DUP2 DUP5 ADD MSTORE PUSH1 0x20 DUP2 ADD SWAP1 POP PUSH2 0x959 JUMP JUMPDEST PUSH1 0x0 DUP5 DUP5 ADD MSTORE POP POP POP POP JUMP JUMPDEST PUSH1 0x0 PUSH1 0x1F NOT PUSH1 0x1F DUP4 ADD AND SWAP1 POP SWAP2 SWAP1 POP JUMP JUMPDEST PUSH1 0x0 PUSH2 0x99C DUP3 PUSH2 0x93A JUMP JUMPDEST PUSH2 0x9A6 DUP2 DUP6 PUSH2 0x945 JUMP JUMPDEST SWAP4 POP PUSH2 0x9B6 DUP2 DUP6 PUSH1 0x20 DUP7 ADD PUSH2 0x956 JUMP JUMPDEST PUSH2 0x9BF DUP2 PUSH2 0x980 JUMP JUMPDEST DUP5 ADD SWAP2 POP POP SWAP3 SWAP2 POP POP JUMP JUMPDEST PUSH2 0x9D3 DUP2 PUSH2 0x8AB JUMP JUMPDEST DUP3 MSTORE POP POP JUMP JUMPDEST PUSH1 0x0 PUSH1 0x40 DUP4 ADD PUSH1 0x0 DUP4 ADD MLOAD DUP5 DUP3 SUB PUSH1 0x0 DUP7 ADD MSTORE PUSH2 0x9F6 DUP3 DUP3 PUSH2 0x991 JUMP JUMPDEST SWAP2 POP POP PUSH1 0x20 DUP4 ADD MLOAD PUSH2 0xA0B PUSH1 0x20 DUP7 ADD DUP3 PUSH2 0x9CA JUMP JUMPDEST POP DUP1 SWAP2 POP POP SWAP3 SWAP2 POP POP JUMP JUMPDEST PUSH1 0x0 PUSH2 0xA22 DUP4 DUP4 PUSH2 0x9D9 JUMP JUMPDEST SWAP1 POP SWAP3 SWAP2 POP POP JUMP JUMPDEST PUSH1 0x0 PUSH1 0x20 DUP3 ADD SWAP1 POP SWAP2 SWAP1 POP JUMP JUMPDEST PUSH1 0x0 PUSH2 0xA42 DUP3 PUSH2 0x90E JUMP JUMPDEST PUSH2 0xA4C DUP2 DUP6 PUSH2 0x919 JUMP JUMPDEST SWAP4 POP DUP4 PUSH1 0x20 DUP3 MUL DUP6 ADD PUSH2 0xA5E DUP6 PUSH2 0x92A JUMP JUMPDEST DUP1 PUSH1 0x0 JUMPDEST DUP6 DUP2 LT ISZERO PUSH2 0xA9A JUMPI DUP5 DUP5 SUB DUP10 MSTORE DUP2 MLOAD PUSH2 0xA7B DUP6 DUP3 PUSH2 0xA16 JUMP JUMPDEST SWAP5 POP PUSH2 0xA86 DUP4 PUSH2 0xA2A JUMP JUMPDEST SWAP3 POP PUSH1 0x20 DUP11 ADD SWAP10 POP POP PUSH1 0x1 DUP2 ADD SWAP1 POP PUSH2 0xA62 JUMP JUMPDEST POP DUP3 SWAP8 POP DUP8 SWAP6 POP POP POP POP POP POP SWAP3 SWAP2 POP POP JUMP JUMPDEST PUSH1 0x0 PUSH1 0x20 DUP3 ADD SWAP1 POP DUP2 DUP2 SUB PUSH1 0x0 DUP4 ADD MSTORE PUSH2 0xAC6 DUP2 DUP5 PUSH2 0xA37 JUMP JUMPDEST SWAP1 POP SWAP3 SWAP2 POP POP JUMP JUMPDEST PUSH1 0x0 PUSH20 0xFFFFFFFFFFFFFFFFFFFFFFFFFFFFFFFFFFFFFFFF DUP3 AND SWAP1 POP SWAP2 SWAP1 POP JUMP JUMPDEST PUSH1 0x0 PUSH2 0xAF9 DUP3 PUSH2 0xACE JUMP JUMPDEST SWAP1 POP SWAP2 SWAP1 POP JUMP JUMPDEST PUSH2 0xB09 DUP2 PUSH2 0xAEE JUMP JUMPDEST DUP2 EQ PUSH2 0xB14 JUMPI PUSH1 0x0 DUP1 REVERT JUMPDEST POP JUMP JUMPDEST PUSH1 0x0 DUP2 CALLDATALOAD SWAP1 POP PUSH2 0xB26 DUP2 PUSH2 0xB00 JUMP JUMPDEST SWAP3 SWAP2 POP POP JUMP JUMPDEST PUSH1 0x0 PUSH1 0x20 DUP3 DUP5 SUB SLT ISZERO PUSH2 0xB42 JUMPI PUSH2 0xB41 PUSH2 0x8A6 JUMP JUMPDEST JUMPDEST PUSH1 0x0 PUSH2 0xB50 DUP5 DUP3 DUP6 ADD PUSH2 0xB17 JUMP JUMPDEST SWAP2 POP POP SWAP3 SWAP2 POP POP JUMP JUMPDEST PUSH1 0x0 DUP2 ISZERO ISZERO SWAP1 POP SWAP2 SWAP1 POP JUMP JUMPDEST PUSH2 0xB6E DUP2 PUSH2 0xB59 JUMP JUMPDEST DUP3 MSTORE POP POP JUMP JUMPDEST PUSH1 0x0 PUSH1 0x20 DUP3 ADD SWAP1 POP PUSH2 0xB89 PUSH1 0x0 DUP4 ADD DUP5 PUSH2 0xB65 JUMP JUMPDEST SWAP3 SWAP2 POP POP JUMP JUMPDEST PUSH1 0x0 DUP3 DUP3 MSTORE PUSH1 0x20 DUP3 ADD SWAP1 POP SWAP3 SWAP2 POP POP JUMP JUMPDEST PUSH1 0x0 PUSH2 0xBAB DUP3 PUSH2 0x93A JUMP JUMPDEST PUSH2 0xBB5 DUP2 DUP6 PUSH2 0xB8F JUMP JUMPDEST SWAP4 POP PUSH2 0xBC5 DUP2 DUP6 PUSH1 0x20 DUP7 ADD PUSH2 0x956 JUMP JUMPDEST PUSH2 0xBCE DUP2 PUSH2 0x980 JUMP JUMPDEST DUP5 ADD SWAP2 POP POP SWAP3 SWAP2 POP POP JUMP JUMPDEST PUSH2 0xBE2 DUP2 PUSH2 0x8AB JUMP JUMPDEST DUP3 MSTORE POP POP JUMP JUMPDEST PUSH1 0x0 PUSH1 0x40 DUP3 ADD SWAP1 POP DUP2 DUP2 SUB PUSH1 0x0 DUP4 ADD MSTORE PUSH2 0xC02 DUP2 DUP6 PUSH2 0xBA0 JUMP JUMPDEST SWAP1 POP PUSH2 0xC11 PUSH1 0x20 DUP4 ADD DUP5 PUSH2 0xBD9 JUMP JUMPDEST SWAP4 SWAP3 POP POP POP JUMP JUMPDEST PUSH2 0xC21 DUP2 PUSH2 0xAEE JUMP JUMPDEST DUP3 MSTORE POP POP JUMP JUMPDEST PUSH1 0x0 PUSH1 0x20 DUP3 ADD SWAP1 POP PUSH2 0xC3C PUSH1 0x0 DUP4 ADD DUP5 PUSH2 0xC18 JUMP JUMPDEST SWAP3 SWAP2 POP POP JUMP JUMPDEST PUSH32 0x566F74696E67206973206E6F74206F70656E0000000000000000000000000000 PUSH1 0x0 DUP3 ADD MSTORE POP JUMP JUMPDEST PUSH1 0x0 PUSH2 0xC78 PUSH1 0x12 DUP4 PUSH2 0xB8F JUMP JUMPDEST SWAP2 POP PUSH2 0xC83 DUP3 PUSH2 0xC42 JUMP JUMPDEST PUSH1 0x20 DUP3 ADD SWAP1 POP SWAP2 SWAP1 POP JUMP JUMPDEST PUSH1 0x0 PUSH1 0x20 DUP3 ADD SWAP1 POP DUP2 DUP2 SUB PUSH1 0x0 DUP4 ADD MSTORE PUSH2 0xCA7 DUP2 PUSH2 0xC6B JUMP JUMPDEST SWAP1 POP SWAP2 SWAP1 POP JUMP JUMPDEST PUSH32 0x596F75206861766520616C726561647920766F74656400000000000000000000 PUSH1 0x0 DUP3 ADD MSTORE POP JUMP JUMPDEST PUSH1 0x0 PUSH2 0xCE4 PUSH1 0x16 DUP4 PUSH2 0xB8F JUMP JUMPDEST SWAP2 POP PUSH2 0xCEF DUP3 PUSH2 0xCAE JUMP JUMPDEST PUSH1 0x20 DUP3 ADD SWAP1 POP SWAP2 SWAP1 POP JUMP JUMPDEST PUSH1 0x0 PUSH1 0x20 DUP3 ADD SWAP1 POP DUP2 DUP2 SUB PUSH1 0x0 DUP4 ADD MSTORE PUSH2 0xD13 DUP2 PUSH2 0xCD7 JUMP JUMPDEST SWAP1 POP SWAP2 SWAP1 POP JUMP JUMPDEST PUSH32 0x496E76616C69642063616E646964617465000000000000000000000000000000 PUSH1 0x0 DUP3 ADD MSTORE POP JUMP JUMPDEST PUSH1 0x0 PUSH2 0xD50 PUSH1 0x11 DUP4 PUSH2 0xB8F JUMP JUMPDEST SWAP2 POP PUSH2 0xD5B DUP3 PUSH2 0xD1A JUMP JUMPDEST PUSH1 0x20 DUP3 ADD SWAP1 POP SWAP2 SWAP1 POP JUMP JUMPDEST PUSH1 0x0 PUSH1 0x20 DUP3 ADD SWAP1 POP DUP2 DUP2 SUB PUSH1 0x0 DUP4 ADD MSTORE PUSH2 0xD7F DUP2 PUSH2 0xD43 JUMP JUMPDEST SWAP1 POP SWAP2 SWAP1 POP JUMP JUMPDEST PUSH32 0x4E487B7100000000000000000000000000000000000000000000000000000000 PUSH1 0x0 MSTORE PUSH1 0x32 PUSH1 0x4 MSTORE PUSH1 0x24 PUSH1 0x0 REVERT JUMPDEST PUSH32 0x4E487B7100000000000000000000000000000000000000000000000000000000 PUSH1 0x0 MSTORE PUSH1 0x11 PUSH1 0x4 MSTORE PUSH1 0x24 PUSH1 0x0 REVERT JUMPDEST PUSH1 0x0 PUSH2 0xDEF DUP3 PUSH2 0x8AB JUMP JUMPDEST SWAP2 POP PUSH32 0xFFFFFFFFFFFFFFFFFFFFFFFFFFFFFFFFFFFFFFFFFFFFFFFFFFFFFFFFFFFFFFFF DUP3 SUB PUSH2 0xE21 JUMPI PUSH2 0xE20 PUSH2 0xDB5 JUMP JUMPDEST JUMPDEST PUSH1 0x1 DUP3 ADD SWAP1 POP SWAP2 SWAP1 POP JUMP JUMPDEST PUSH1 0x0 PUSH1 0x20 DUP3 ADD SWAP1 POP PUSH2 0xE41 PUSH1 0x0 DUP4 ADD DUP5 PUSH2 0xBD9 JUMP JUMPDEST SWAP3 SWAP2 POP POP JUMP JUMPDEST PUSH32 0x4E487B7100000000000000000000000000000000000000000000000000000000 PUSH1 0x0 MSTORE PUSH1 0x22 PUSH1 0x4 MSTORE PUSH1 0x24 PUSH1 0x0 REVERT JUMPDEST PUSH1 0x0 PUSH1 0x2 DUP3 DIV SWAP1 POP PUSH1 0x1 DUP3 AND DUP1 PUSH2 0xE8E JUMPI PUSH1 0x7F DUP3 AND SWAP2 POP JUMPDEST PUSH1 0x20 DUP3 LT DUP2 SUB PUSH2 0xEA1 JUMPI PUSH2 0xEA0 PUSH2 0xE47 JUMP JUMPDEST JUMPDEST POP SWAP2 SWAP1 POP JUMP JUMPDEST PUSH32 0x4F6E6C792061646D696E2063616E20706572666F726D20746869732061637469 PUSH1 0x0 DUP3 ADD MSTORE PUSH32 0x6F6E000000000000000000000000000000000000000000000000000000000000 PUSH1 0x20 DUP3 ADD MSTORE POP JUMP JUMPDEST PUSH1 0x0 PUSH2 0xF03 PUSH1 0x22 DUP4 PUSH2 0xB8F JUMP JUMPDEST SWAP2 POP PUSH2 0xF0E DUP3 PUSH2 0xEA7 JUMP JUMPDEST PUSH1 0x40 DUP3 ADD SWAP1 POP SWAP2 SWAP1 POP JUMP JUMPDEST PUSH1 0x0 PUSH1 0x20 DUP3 ADD SWAP1 POP DUP2 DUP2 SUB PUSH1 0x0 DUP4 ADD MSTORE PUSH2 0xF32 DUP2 PUSH2 0xEF6 JUMP JUMPDEST SWAP1 POP SWAP2 SWAP1 POP JUMP INVALID LOG2 PUSH5 0x6970667358 0x22 SLT KECCAK256 0xD4 DUP2 0x5E DUP1 NUMBER DUP16 0xD5 PUSH5 0xCB69179E43 PUSH7 0xB89F0BEF765797 0xF ISZERO 0xE0 0xCD 0xDF PUSH9 0xF66B95D0F264736F6C PUSH4 0x43000813 STOP CALLER "
        },
        "methodIdentifiers": {
          "admin()": "f851a440",
          "candidates(uint256)": "3477ee2e",
          "closeVoting()": "c631b292",
          "getCandidates()": "06a49fce",
          "getResults()": "4717f97c",
          "hasVoted(address)": "09eef43e",
          "openVoting()": "affc0670",
          "vote(uint256)": "0121b93f",
          "votingOpen()": "a95824b4"
        }
      }
    }
  }
}