{
  "_format": "hh-sol-artifact-1",
  "contractName": "Voting",
  "sourceName": "contracts/voting.sol",
  "abi": [
    {
      "inputs": [
        {
          "internalType": "string",
          "name": "_title",
          "type": "string"
        },
        {
          "internalType": "string",
          "name": "_description",
          "type": "string"
        }
      ],
      "stateMutability": "nonpayable",
      "type": "constructor"
    },
    {
      "inputs": [
        {
          "internalType": "string",
          "name": "_title",
          "type": "string"
        }
      ],
      "name": "addChoice",
      "outputs": [],
      "stateMutability": "nonpayable",
      "type": "function"
    },
    {
      "inputs": [],
      "name": "getChoices",
      "outputs": [
        {
          "internalType": "string[]",
          "name": "",
          "type": "string[]"
        },
        {
          "internalType": "uint256[]",
          "name": "",
          "type": "uint256[]"
        }
      ],
      "stateMutability": "view",
      "type": "function"
    },
    {
      "inputs": [],
      "name": "newPoll",
      "outputs": [
        {
          "internalType": "string",
          "name": "title",
          "type": "string"
        },
        {
          "internalType": "bool",
          "name": "status",
          "type": "bool"
        },
        {
          "internalType": "string",
          "name": "description",
          "type": "string"
        }
      ],
      "stateMutability": "view",
      "type": "function"
    },
    {
      "inputs": [
        {
          "internalType": "uint256",
          "name": "_id",
          "type": "uint256"
        }
      ],
      "name": "showChoices",
      "outputs": [
        {
          "internalType": "string",
          "name": "",
          "type": "string"
        }
      ],
      "stateMutability": "view",
      "type": "function"
    },
    {
      "inputs": [
        {
          "internalType": "uint256",
          "name": "_id",
          "type": "uint256"
        }
      ],
      "name": "vote",
      "outputs": [],
      "stateMutability": "nonpayable",
      "type": "function"
    }
  ],
  "bytecode": "0x608060405234801561001057600080fd5b506040516118df3803806118df83398181016040528101906100329190610231565b336000806101000a81548173ffffffffffffffffffffffffffffffffffffffff021916908373ffffffffffffffffffffffffffffffffffffffff160217905550816001600001908161008491906104ca565b50806001600201908161009791906104ca565b5060018060010160006101000a81548160ff021916908315150217905550505061059c565b6000604051905090565b600080fd5b600080fd5b600080fd5b600080fd5b6000601f19601f8301169050919050565b7f4e487b7100000000000000000000000000000000000000000000000000000000600052604160045260246000fd5b610123826100da565b810181811067ffffffffffffffff82111715610142576101416100eb565b5b80604052505050565b60006101556100bc565b9050610161828261011a565b919050565b600067ffffffffffffffff821115610181576101806100eb565b5b61018a826100da565b9050602081019050919050565b60005b838110156101b557808201518184015260208101905061019a565b60008484015250505050565b60006101d46101cf84610166565b61014b565b9050828152602081018484840111156101f0576101ef6100d5565b5b6101fb848285610197565b509392505050565b600082601f830112610218576102176100d0565b5b81516102288482602086016101c1565b91505092915050565b60008060408385031215610248576102476100c6565b5b600083015167ffffffffffffffff811115610266576102656100cb565b5b61027285828601610203565b925050602083015167ffffffffffffffff811115610293576102926100cb565b5b61029f85828601610203565b9150509250929050565b600081519050919050565b7f4e487b7100000000000000000000000000000000000000000000000000000000600052602260045260246000fd5b600060028204905060018216806102fb57607f821691505b60208210810361030e5761030d6102b4565b5b50919050565b60008190508160005260206000209050919050565b60006020601f8301049050919050565b600082821b905092915050565b6000600883026103767fffffffffffffffffffffffffffffffffffffffffffffffffffffffffffffffff82610339565b6103808683610339565b95508019841693508086168417925050509392505050565b6000819050919050565b6000819050919050565b60006103c76103c26103bd84610398565b6103a2565b610398565b9050919050565b6000819050919050565b6103e1836103ac565b6103f56103ed826103ce565b848454610346565b825550505050565b600090565b61040a6103fd565b6104158184846103d8565b505050565b5b818110156104395761042e600082610402565b60018101905061041b565b5050565b601f82111561047e5761044f81610314565b61045884610329565b81016020851015610467578190505b61047b61047385610329565b83018261041a565b50505b505050565b600082821c905092915050565b60006104a160001984600802610483565b1980831691505092915050565b60006104ba8383610490565b9150826002028217905092915050565b6104d3826102a9565b67ffffffffffffffff8111156104ec576104eb6100eb565b5b6104f682546102e3565b61050182828561043d565b600060209050601f8311600181146105345760008415610522578287015190505b61052c85826104ae565b865550610594565b601f19841661054286610314565b60005b8281101561056a57848901518255600182019150602085019450602081019050610545565b868310156105875784890151610583601f891682610490565b8355505b6001600288020188555050505b505050505050565b611334806105ab6000396000f3fe608060405234801561001057600080fd5b50600436106100575760003560e01c80630121b93f1461005c57806319f485b3146100785780635fa520bb14610098578063629e0585146100b457806398c81bbf146100e4575b600080fd5b61007660048036038101906100719190610958565b610103565b005b610080610407565b60405161008f93929190610a30565b60405180910390f35b6100b260048036038101906100ad9190610baa565b61053c565b005b6100ce60048036038101906100c99190610958565b610662565b6040516100db9190610bf3565b60405180910390f35b6100ec610722565b6040516100fa929190610ddf565b60405180910390f35b6001800160009054906101000a900460ff16610154576040517f08c379a000000000000000000000000000000000000000000000000000000000815260040161014b90610e62565b60405180910390fd5b60006001600301828154811061016d5761016c610e82565b5b90600052602060002090600302019050600115158160020160003373ffffffffffffffffffffffffffffffffffffffff1673ffffffffffffffffffffffffffffffffffffffff16815260200190815260200160002060009054906101000a900460ff16151503610212576040517f08c379a000000000000000000000000000000000000000000000000000000000815260040161020990610efd565b60405180910390fd5b81600560003373ffffffffffffffffffffffffffffffffffffffff1673ffffffffffffffffffffffffffffffffffffffff168152602001908152602001600020541461034c576000600560003373ffffffffffffffffffffffffffffffffffffffff1673ffffffffffffffffffffffffffffffffffffffff1681526020019081526020016000205490506000600160030182815481106102b5576102b4610e82565b5b906000526020600020906003020190506000816001015411156102ef5760018160010160008282546102e79190610f4c565b925050819055505b60008160020160003373ffffffffffffffffffffffffffffffffffffffff1673ffffffffffffffffffffffffffffffffffffffff16815260200190815260200160002060006101000a81548160ff02191690831515021790555050505b6001816001015461035d9190610f80565b816001018190555060018160020160003373ffffffffffffffffffffffffffffffffffffffff1673ffffffffffffffffffffffffffffffffffffffff16815260200190815260200160002060006101000a81548160ff02191690831515021790555081600560003373ffffffffffffffffffffffffffffffffffffffff1673ffffffffffffffffffffffffffffffffffffffff168152602001908152602001600020819055505050565b600180600001805461041890610fe3565b80601f016020809104026020016040519081016040528092919081815260200182805461044490610fe3565b80156104915780601f1061046657610100808354040283529160200191610491565b820191906000526020600020905b81548152906001019060200180831161047457829003601f168201915b5050505050908060010160009054906101000a900460ff16908060020180546104b990610fe3565b80601f01602080910402602001604051908101604052809291908181526020018280546104e590610fe3565b80156105325780601f1061050757610100808354040283529160200191610532565b820191906000526020600020905b81548152906001019060200180831161051557829003601f168201915b5050505050905083565b60008054906101000a900473ffffffffffffffffffffffffffffffffffffffff1673ffffffffffffffffffffffffffffffffffffffff163373ffffffffffffffffffffffffffffffffffffffff16146105ca576040517f08c379a00000000000000000000000000000000000000000000000000000000081526004016105c190611060565b60405180910390fd5b6001800160009054906101000a900460ff1661061b576040517f08c379a000000000000000000000000000000000000000000000000000000000815260040161061290610e62565b60405180910390fd5b60006001600301600181600181540180825580915050039060005260206000209060030201905081816000019081610653919061122c565b50600081600101819055505050565b606060006001600301838154811061067d5761067c610e82565b5b9060005260206000209060030201905080600001805461069c90610fe3565b80601f01602080910402602001604051908101604052809291908181526020018280546106c890610fe3565b80156107155780601f106106ea57610100808354040283529160200191610715565b820191906000526020600020905b8154815290600101906020018083116106f857829003601f168201915b5050505050915050919050565b6060806000600160030180549050905060008167ffffffffffffffff81111561074e5761074d610a7f565b5b60405190808252806020026020018201604052801561078157816020015b606081526020019060019003908161076c5790505b50905060008267ffffffffffffffff8111156107a05761079f610a7f565b5b6040519080825280602002602001820160405280156107ce5781602001602082028036833780820191505090505b50905060005b8381101561090057600160030181815481106107f3576107f2610e82565b5b9060005260206000209060030201600001805461080f90610fe3565b80601f016020809104026020016040519081016040528092919081815260200182805461083b90610fe3565b80156108885780601f1061085d57610100808354040283529160200191610888565b820191906000526020600020905b81548152906001019060200180831161086b57829003601f168201915b50505050508382815181106108a05761089f610e82565b5b6020026020010181905250600160030181815481106108c2576108c1610e82565b5b9060005260206000209060030201600101548282815181106108e7576108e6610e82565b5b60200260200101818152505080806001019150506107d4565b508181945094505050509091565b6000604051905090565b600080fd5b600080fd5b6000819050919050565b61093581610922565b811461094057600080fd5b50565b6000813590506109528161092c565b92915050565b60006020828403121561096e5761096d610918565b5b600061097c84828501610943565b91505092915050565b600081519050919050565b600082825260208201905092915050565b60005b838110156109bf5780820151818401526020810190506109a4565b60008484015250505050565b6000601f19601f8301169050919050565b60006109e782610985565b6109f18185610990565b9350610a018185602086016109a1565b610a0a816109cb565b840191505092915050565b60008115159050919050565b610a2a81610a15565b82525050565b60006060820190508181036000830152610a4a81866109dc565b9050610a596020830185610a21565b8181036040830152610a6b81846109dc565b9050949350505050565b600080fd5b600080fd5b7f4e487b7100000000000000000000000000000000000000000000000000000000600052604160045260246000fd5b610ab7826109cb565b810181811067ffffffffffffffff82111715610ad657610ad5610a7f565b5b80604052505050565b6000610ae961090e565b9050610af58282610aae565b919050565b600067ffffffffffffffff821115610b1557610b14610a7f565b5b610b1e826109cb565b9050602081019050919050565b82818337600083830152505050565b6000610b4d610b4884610afa565b610adf565b905082815260208101848484011115610b6957610b68610a7a565b5b610b74848285610b2b565b509392505050565b600082601f830112610b9157610b90610a75565b5b8135610ba1848260208601610b3a565b91505092915050565b600060208284031215610bc057610bbf610918565b5b600082013567ffffffffffffffff811115610bde57610bdd61091d565b5b610bea84828501610b7c565b91505092915050565b60006020820190508181036000830152610c0d81846109dc565b905092915050565b600081519050919050565b600082825260208201905092915050565b6000819050602082019050919050565b600082825260208201905092915050565b6000610c5d82610985565b610c678185610c41565b9350610c778185602086016109a1565b610c80816109cb565b840191505092915050565b6000610c978383610c52565b905092915050565b6000602082019050919050565b6000610cb782610c15565b610cc18185610c20565b935083602082028501610cd385610c31565b8060005b85811015610d0f5784840389528151610cf08582610c8b565b9450610cfb83610c9f565b925060208a01995050600181019050610cd7565b50829750879550505050505092915050565b600081519050919050565b600082825260208201905092915050565b6000819050602082019050919050565b610d5681610922565b82525050565b6000610d688383610d4d565b60208301905092915050565b6000602082019050919050565b6000610d8c82610d21565b610d968185610d2c565b9350610da183610d3d565b8060005b83811015610dd2578151610db98882610d5c565b9750610dc483610d74565b925050600181019050610da5565b5085935050505092915050565b60006040820190508181036000830152610df98185610cac565b90508181036020830152610e0d8184610d81565b90509392505050565b7f4e6f74204163746976652e000000000000000000000000000000000000000000600082015250565b6000610e4c600b83610990565b9150610e5782610e16565b602082019050919050565b60006020820190508181036000830152610e7b81610e3f565b9050919050565b7f4e487b7100000000000000000000000000000000000000000000000000000000600052603260045260246000fd5b7f416c726561647920566f74656420466f7220746869732063686f6963652e0000600082015250565b6000610ee7601e83610990565b9150610ef282610eb1565b602082019050919050565b60006020820190508181036000830152610f1681610eda565b9050919050565b7f4e487b7100000000000000000000000000000000000000000000000000000000600052601160045260246000fd5b6000610f5782610922565b9150610f6283610922565b9250828203905081811115610f7a57610f79610f1d565b5b92915050565b6000610f8b82610922565b9150610f9683610922565b9250828201905080821115610fae57610fad610f1d565b5b92915050565b7f4e487b7100000000000000000000000000000000000000000000000000000000600052602260045260246000fd5b60006002820490506001821680610ffb57607f821691505b60208210810361100e5761100d610fb4565b5b50919050565b7f4e6f7420417574686f72697a65642e0000000000000000000000000000000000600082015250565b600061104a600f83610990565b915061105582611014565b602082019050919050565b600060208201905081810360008301526110798161103d565b9050919050565b60008190508160005260206000209050919050565b60006020601f8301049050919050565b600082821b905092915050565b6000600883026110e27fffffffffffffffffffffffffffffffffffffffffffffffffffffffffffffffff826110a5565b6110ec86836110a5565b95508019841693508086168417925050509392505050565b6000819050919050565b600061112961112461111f84610922565b611104565b610922565b9050919050565b6000819050919050565b6111438361110e565b61115761114f82611130565b8484546110b2565b825550505050565b600090565b61116c61115f565b61117781848461113a565b505050565b5b8181101561119b57611190600082611164565b60018101905061117d565b5050565b601f8211156111e0576111b181611080565b6111ba84611095565b810160208510156111c9578190505b6111dd6111d585611095565b83018261117c565b50505b505050565b600082821c905092915050565b6000611203600019846008026111e5565b1980831691505092915050565b600061121c83836111f2565b9150826002028217905092915050565b61123582610985565b67ffffffffffffffff81111561124e5761124d610a7f565b5b6112588254610fe3565b61126382828561119f565b600060209050601f8311600181146112965760008415611284578287015190505b61128e8582611210565b8655506112f6565b601f1984166112a486611080565b60005b828110156112cc578489015182556001820191506020850194506020810190506112a7565b868310156112e957848901516112e5601f8916826111f2565b8355505b6001600288020188555050505b50505050505056fea2646970667358221220311c0aba8afa2cc435e27da49564fb3fb0ab6850d47a283dc12b2ffd2d25fb6864736f6c634300081c0033",
  "linkReferences": {},
  "deployedLinkReferences": {}
}